{
	"contracts/TileNFT.sol": {
		"TileNFT": {
			"abi": [
				{
					"inputs": [],
					"stateMutability": "nonpayable",
					"type": "constructor"
				},
				{
					"anonymous": false,
					"inputs": [
						{
							"indexed": true,
							"internalType": "address",
							"name": "owner",
							"type": "address"
						},
						{
							"indexed": true,
							"internalType": "address",
							"name": "approved",
							"type": "address"
						},
						{
							"indexed": true,
							"internalType": "uint256",
							"name": "tokenId",
							"type": "uint256"
						}
					],
					"name": "Approval",
					"type": "event"
				},
				{
					"anonymous": false,
					"inputs": [
						{
							"indexed": true,
							"internalType": "address",
							"name": "owner",
							"type": "address"
						},
						{
							"indexed": true,
							"internalType": "address",
							"name": "operator",
							"type": "address"
						},
						{
							"indexed": false,
							"internalType": "bool",
							"name": "approved",
							"type": "bool"
						}
					],
					"name": "ApprovalForAll",
					"type": "event"
				},
				{
					"anonymous": false,
					"inputs": [
						{
							"indexed": true,
							"internalType": "address",
							"name": "from",
							"type": "address"
						},
						{
							"indexed": true,
							"internalType": "address",
							"name": "to",
							"type": "address"
						},
						{
							"indexed": true,
							"internalType": "uint256",
							"name": "tokenId",
							"type": "uint256"
						}
					],
					"name": "Transfer",
					"type": "event"
				},
				{
					"inputs": [
						{
							"internalType": "address",
							"name": "to",
							"type": "address"
						},
						{
							"internalType": "uint256",
							"name": "tokenId",
							"type": "uint256"
						}
					],
					"name": "approve",
					"outputs": [],
					"stateMutability": "nonpayable",
					"type": "function"
				},
				{
					"inputs": [
						{
							"internalType": "address",
							"name": "owner",
							"type": "address"
						}
					],
					"name": "balanceOf",
					"outputs": [
						{
							"internalType": "uint256",
							"name": "",
							"type": "uint256"
						}
					],
					"stateMutability": "view",
					"type": "function"
				},
				{
					"inputs": [
						{
							"internalType": "uint256",
							"name": "_tokenId",
							"type": "uint256"
						}
					],
					"name": "burn",
					"outputs": [],
					"stateMutability": "nonpayable",
					"type": "function"
				},
				{
					"inputs": [
						{
							"internalType": "uint256",
							"name": "tokenId",
							"type": "uint256"
						}
					],
					"name": "getApproved",
					"outputs": [
						{
							"internalType": "address",
							"name": "",
							"type": "address"
						}
					],
					"stateMutability": "view",
					"type": "function"
				},
				{
					"inputs": [
						{
							"internalType": "address",
							"name": "owner",
							"type": "address"
						},
						{
							"internalType": "address",
							"name": "operator",
							"type": "address"
						}
					],
					"name": "isApprovedForAll",
					"outputs": [
						{
							"internalType": "bool",
							"name": "",
							"type": "bool"
						}
					],
					"stateMutability": "view",
					"type": "function"
				},
				{
					"inputs": [
						{
							"internalType": "uint256",
							"name": "_tokenId",
							"type": "uint256"
						}
					],
					"name": "mint",
					"outputs": [],
					"stateMutability": "nonpayable",
					"type": "function"
				},
				{
					"inputs": [],
					"name": "name",
					"outputs": [
						{
							"internalType": "string",
							"name": "",
							"type": "string"
						}
					],
					"stateMutability": "view",
					"type": "function"
				},
				{
					"inputs": [
						{
							"internalType": "uint256",
							"name": "tokenId",
							"type": "uint256"
						}
					],
					"name": "ownerOf",
					"outputs": [
						{
							"internalType": "address",
							"name": "",
							"type": "address"
						}
					],
					"stateMutability": "view",
					"type": "function"
				},
				{
					"inputs": [
						{
							"internalType": "address",
							"name": "from",
							"type": "address"
						},
						{
							"internalType": "address",
							"name": "to",
							"type": "address"
						},
						{
							"internalType": "uint256",
							"name": "tokenId",
							"type": "uint256"
						}
					],
					"name": "safeTransferFrom",
					"outputs": [],
					"stateMutability": "nonpayable",
					"type": "function"
				},
				{
					"inputs": [
						{
							"internalType": "address",
							"name": "from",
							"type": "address"
						},
						{
							"internalType": "address",
							"name": "to",
							"type": "address"
						},
						{
							"internalType": "uint256",
							"name": "tokenId",
							"type": "uint256"
						},
						{
							"internalType": "bytes",
							"name": "_data",
							"type": "bytes"
						}
					],
					"name": "safeTransferFrom",
					"outputs": [],
					"stateMutability": "nonpayable",
					"type": "function"
				},
				{
					"inputs": [
						{
							"internalType": "address",
							"name": "operator",
							"type": "address"
						},
						{
							"internalType": "bool",
							"name": "approved",
							"type": "bool"
						}
					],
					"name": "setApprovalForAll",
					"outputs": [],
					"stateMutability": "nonpayable",
					"type": "function"
				},
				{
					"inputs": [
						{
							"internalType": "bytes4",
							"name": "interfaceId",
							"type": "bytes4"
						}
					],
					"name": "supportsInterface",
					"outputs": [
						{
							"internalType": "bool",
							"name": "",
							"type": "bool"
						}
					],
					"stateMutability": "view",
					"type": "function"
				},
				{
					"inputs": [],
					"name": "symbol",
					"outputs": [
						{
							"internalType": "string",
							"name": "",
							"type": "string"
						}
					],
					"stateMutability": "view",
					"type": "function"
				},
				{
					"inputs": [
						{
							"internalType": "uint256",
							"name": "tokenId",
							"type": "uint256"
						}
					],
					"name": "tokenURI",
					"outputs": [
						{
							"internalType": "string",
							"name": "",
							"type": "string"
						}
					],
					"stateMutability": "view",
					"type": "function"
				},
				{
					"inputs": [
						{
							"internalType": "address",
							"name": "from",
							"type": "address"
						},
						{
							"internalType": "address",
							"name": "to",
							"type": "address"
						},
						{
							"internalType": "uint256",
							"name": "tokenId",
							"type": "uint256"
						}
					],
					"name": "transferFrom",
					"outputs": [],
					"stateMutability": "nonpayable",
					"type": "function"
				}
			],
			"devdoc": {
				"kind": "dev",
				"methods": {
					"approve(address,uint256)": {
						"details": "See {IERC721-approve}. 토큰 권한은 특정 주소에게 부여한다. NFT의 소유자만 권한을 부여할 수 있어야 한다. 권한이 부여되면 Approval 이벤트를 발생시킨다."
					},
					"balanceOf(address)": {
						"details": "See {IERC721-balanceOf}. 특정 주소가 몇 개의 NFT 토큰을 보유하는지 반환한다. 매개변수는 0 주소(address(0)일 수 없다.)"
					},
					"getApproved(uint256)": {
						"details": "See {IERC721-getApproved}. 토큰의 approve 권한을 가진 주소를 반환한다."
					},
					"isApprovedForAll(address,address)": {
						"details": "See {IERC721-isApprovedForAll}. 특정 주소가 operator 권한을 갖는지 반환한다."
					},
					"name()": {
						"details": "See {IERC721Metadata-name}."
					},
					"ownerOf(uint256)": {
						"details": "See {IERC721-ownerOf}. 특정 토큰의 소유자 주소를 반환한다."
					},
					"safeTransferFrom(address,address,uint256)": {
						"details": "See {IERC721-safeTransferFrom}."
					},
					"safeTransferFrom(address,address,uint256,bytes)": {
						"details": "See {IERC721-safeTransferFrom}. NFT 전송 함수 1. 송금을 지시할 수 있는 대상은 NFT의 소유 당사자(ownerOf()), 승인 받은 주소, 지정된 관리자 주소이다. 2. tokenId가 유효한 토큰인지 확인할 수 있어야 한다. 3. 받는 주소가 0 주소가 아닌지 확인한다. 위 조건이 맞다면, 함수 내부에서 _balances와 _owners 정보를 변경하고 Transfer 이벤트를 발생시킨다."
					},
					"setApprovalForAll(address,bool)": {
						"details": "See {IERC721-setApprovalForAll}. 토큰의 operator를 설정한다. operator 란 특정 소유자의 토큰을 전송할 수 있는 모든 권한을 가지며, 토큰 소유자에 의해서만 권한을 지정할 수 있어야 한다. 함수 호출 시  ApprovalForAll 이벤트를 발생시킨다."
					},
					"supportsInterface(bytes4)": {
						"details": "See {IERC165-supportsInterface}."
					},
					"symbol()": {
						"details": "See {IERC721Metadata-symbol}."
					},
					"tokenURI(uint256)": {
						"details": "See {IERC721Metadata-tokenURI}."
					},
					"transferFrom(address,address,uint256)": {
						"details": "See {IERC721-transferFrom}."
					}
				},
				"version": 1
			},
			"evm": {
				"assembly": "    /* \"contracts/TileNFT.sol\":99:389  contract TileNFT is ERC721 {\r... */\n  mstore(0x40, 0x80)\n    /* \"contracts/TileNFT.sol\":133:170  constructor() ERC721(\"LAND\", \"LD\") {} */\n  callvalue\n  dup1\n  iszero\n  tag_1\n  jumpi\n  0x00\n  dup1\n  revert\ntag_1:\n  pop\n    /* \"contracts/token/ERC721/ERC721.sol\":1273:1389  constructor(string memory name_, string memory symbol_) {\r... */\n  mload(0x40)\n  dup1\n  0x40\n  add\n  0x40\n  mstore\n  dup1\n  0x04\n  dup2\n  mstore\n  0x20\n  add\n  0x4c414e4400000000000000000000000000000000000000000000000000000000\n  dup2\n  mstore\n  pop\n  mload(0x40)\n  dup1\n  0x40\n  add\n  0x40\n  mstore\n  dup1\n  0x02\n  dup2\n  mstore\n  0x20\n  add\n  0x4c44000000000000000000000000000000000000000000000000000000000000\n  dup2\n  mstore\n  pop\n    /* \"contracts/token/ERC721/ERC721.sol\":1348:1353  name_ */\n  dup2\n    /* \"contracts/token/ERC721/ERC721.sol\":1340:1345  _name */\n  0x00\n    /* \"contracts/token/ERC721/ERC721.sol\":1340:1353  _name = name_ */\n  swap1\n  dup1\n  mload\n  swap1\n  0x20\n  add\n  swap1\n  tag_5\n  swap3\n  swap2\n  swap1\n  tag_6\n  jump\t// in\ntag_5:\n  pop\n    /* \"contracts/token/ERC721/ERC721.sol\":1374:1381  symbol_ */\n  dup1\n    /* \"contracts/token/ERC721/ERC721.sol\":1364:1371  _symbol */\n  0x01\n    /* \"contracts/token/ERC721/ERC721.sol\":1364:1381  _symbol = symbol_ */\n  swap1\n  dup1\n  mload\n  swap1\n  0x20\n  add\n  swap1\n  tag_7\n  swap3\n  swap2\n  swap1\n  tag_6\n  jump\t// in\ntag_7:\n  pop\n    /* \"contracts/token/ERC721/ERC721.sol\":1273:1389  constructor(string memory name_, string memory symbol_) {\r... */\n  pop\n  pop\n    /* \"contracts/TileNFT.sol\":99:389  contract TileNFT is ERC721 {\r... */\n  jump(tag_9)\ntag_6:\n  dup3\n  dup1\n  sload\n  tag_10\n  swap1\n  tag_11\n  jump\t// in\ntag_10:\n  swap1\n  0x00\n  mstore\n  keccak256(0x00, 0x20)\n  swap1\n  0x1f\n  add\n  0x20\n  swap1\n  div\n  dup2\n  add\n  swap3\n  dup3\n  tag_13\n  jumpi\n  0x00\n  dup6\n  sstore\n  jump(tag_12)\ntag_13:\n  dup3\n  0x1f\n  lt\n  tag_14\n  jumpi\n  dup1\n  mload\n  not(0xff)\n  and\n  dup4\n  dup1\n  add\n  or\n  dup6\n  sstore\n  jump(tag_12)\ntag_14:\n  dup3\n  dup1\n  add\n  0x01\n  add\n  dup6\n  sstore\n  dup3\n  iszero\n  tag_12\n  jumpi\n  swap2\n  dup3\n  add\ntag_15:\n  dup3\n  dup2\n  gt\n  iszero\n  tag_16\n  jumpi\n  dup3\n  mload\n  dup3\n  sstore\n  swap2\n  0x20\n  add\n  swap2\n  swap1\n  0x01\n  add\n  swap1\n  jump(tag_15)\ntag_16:\ntag_12:\n  pop\n  swap1\n  pop\n  tag_17\n  swap2\n  swap1\n  tag_18\n  jump\t// in\ntag_17:\n  pop\n  swap1\n  jump\t// out\ntag_18:\ntag_19:\n  dup1\n  dup3\n  gt\n  iszero\n  tag_20\n  jumpi\n  0x00\n  dup2\n  0x00\n  swap1\n  sstore\n  pop\n  0x01\n  add\n  jump(tag_19)\ntag_20:\n  pop\n  swap1\n  jump\t// out\n    /* \"#utility.yul\":7:327   */\ntag_11:\n    /* \"#utility.yul\":51:57   */\n  0x00\n    /* \"#utility.yul\":88:89   */\n  0x02\n    /* \"#utility.yul\":82:86   */\n  dup3\n    /* \"#utility.yul\":78:90   */\n  div\n    /* \"#utility.yul\":68:90   */\n  swap1\n  pop\n    /* \"#utility.yul\":135:136   */\n  0x01\n    /* \"#utility.yul\":129:133   */\n  dup3\n    /* \"#utility.yul\":125:137   */\n  and\n    /* \"#utility.yul\":156:174   */\n  dup1\n    /* \"#utility.yul\":146:227   */\n  tag_23\n  jumpi\n    /* \"#utility.yul\":212:216   */\n  0x7f\n    /* \"#utility.yul\":204:210   */\n  dup3\n    /* \"#utility.yul\":200:217   */\n  and\n    /* \"#utility.yul\":190:217   */\n  swap2\n  pop\n    /* \"#utility.yul\":146:227   */\ntag_23:\n    /* \"#utility.yul\":274:276   */\n  0x20\n    /* \"#utility.yul\":266:272   */\n  dup3\n    /* \"#utility.yul\":263:277   */\n  lt\n    /* \"#utility.yul\":243:261   */\n  dup2\n    /* \"#utility.yul\":240:278   */\n  eq\n    /* \"#utility.yul\":237:321   */\n  iszero\n  tag_24\n  jumpi\n    /* \"#utility.yul\":293:311   */\n  tag_25\n  tag_26\n  jump\t// in\ntag_25:\n    /* \"#utility.yul\":237:321   */\ntag_24:\n    /* \"#utility.yul\":58:327   */\n  pop\n    /* \"#utility.yul\":7:327   */\n  swap2\n  swap1\n  pop\n  jump\t// out\n    /* \"#utility.yul\":333:513   */\ntag_26:\n    /* \"#utility.yul\":381:458   */\n  0x4e487b7100000000000000000000000000000000000000000000000000000000\n    /* \"#utility.yul\":378:379   */\n  0x00\n    /* \"#utility.yul\":371:459   */\n  mstore\n    /* \"#utility.yul\":478:482   */\n  0x22\n    /* \"#utility.yul\":475:476   */\n  0x04\n    /* \"#utility.yul\":468:483   */\n  mstore\n    /* \"#utility.yul\":502:506   */\n  0x24\n    /* \"#utility.yul\":499:500   */\n  0x00\n    /* \"#utility.yul\":492:507   */\n  revert\n    /* \"contracts/TileNFT.sol\":99:389  contract TileNFT is ERC721 {\r... */\ntag_9:\n  dataSize(sub_0)\n  dup1\n  dataOffset(sub_0)\n  0x00\n  codecopy\n  0x00\n  return\nstop\n\nsub_0: assembly {\n        /* \"contracts/TileNFT.sol\":99:389  contract TileNFT is ERC721 {\r... */\n      mstore(0x40, 0x80)\n      callvalue\n      dup1\n      iszero\n      tag_1\n      jumpi\n      0x00\n      dup1\n      revert\n    tag_1:\n      pop\n      jumpi(tag_2, lt(calldatasize, 0x04))\n      shr(0xe0, calldataload(0x00))\n      dup1\n      0x6352211e\n      gt\n      tag_18\n      jumpi\n      dup1\n      0xa22cb465\n      gt\n      tag_19\n      jumpi\n      dup1\n      0xa22cb465\n      eq\n      tag_14\n      jumpi\n      dup1\n      0xb88d4fde\n      eq\n      tag_15\n      jumpi\n      dup1\n      0xc87b56dd\n      eq\n      tag_16\n      jumpi\n      dup1\n      0xe985e9c5\n      eq\n      tag_17\n      jumpi\n      jump(tag_2)\n    tag_19:\n      dup1\n      0x6352211e\n      eq\n      tag_10\n      jumpi\n      dup1\n      0x70a08231\n      eq\n      tag_11\n      jumpi\n      dup1\n      0x95d89b41\n      eq\n      tag_12\n      jumpi\n      dup1\n      0xa0712d68\n      eq\n      tag_13\n      jumpi\n      jump(tag_2)\n    tag_18:\n      dup1\n      0x095ea7b3\n      gt\n      tag_20\n      jumpi\n      dup1\n      0x095ea7b3\n      eq\n      tag_6\n      jumpi\n      dup1\n      0x23b872dd\n      eq\n      tag_7\n      jumpi\n      dup1\n      0x42842e0e\n      eq\n      tag_8\n      jumpi\n      dup1\n      0x42966c68\n      eq\n      tag_9\n      jumpi\n      jump(tag_2)\n    tag_20:\n      dup1\n      0x01ffc9a7\n      eq\n      tag_3\n      jumpi\n      dup1\n      0x06fdde03\n      eq\n      tag_4\n      jumpi\n      dup1\n      0x081812fc\n      eq\n      tag_5\n      jumpi\n    tag_2:\n      0x00\n      dup1\n      revert\n        /* \"contracts/token/ERC721/ERC721.sol\":1461:1816  function supportsInterface(bytes4 interfaceId)\r... */\n    tag_3:\n      tag_21\n      0x04\n      dup1\n      calldatasize\n      sub\n      dup2\n      add\n      swap1\n      tag_22\n      swap2\n      swap1\n      tag_23\n      jump\t// in\n    tag_22:\n      tag_24\n      jump\t// in\n    tag_21:\n      mload(0x40)\n      tag_25\n      swap2\n      swap1\n      tag_26\n      jump\t// in\n    tag_25:\n      mload(0x40)\n      dup1\n      swap2\n      sub\n      swap1\n      return\n        /* \"contracts/token/ERC721/ERC721.sol\":2829:2929  function name() public view virtual override returns (string memory) {\r... */\n    tag_4:\n      tag_27\n      tag_28\n      jump\t// in\n    tag_27:\n      mload(0x40)\n      tag_29\n      swap2\n      swap1\n      tag_30\n      jump\t// in\n    tag_29:\n      mload(0x40)\n      dup1\n      swap2\n      sub\n      swap1\n      return\n        /* \"contracts/token/ERC721/ERC721.sol\":4802:5110  function getApproved(uint256 tokenId)\r... */\n    tag_5:\n      tag_31\n      0x04\n      dup1\n      calldatasize\n      sub\n      dup2\n      add\n      swap1\n      tag_32\n      swap2\n      swap1\n      tag_33\n      jump\t// in\n    tag_32:\n      tag_34\n      jump\t// in\n    tag_31:\n      mload(0x40)\n      tag_35\n      swap2\n      swap1\n      tag_36\n      jump\t// in\n    tag_35:\n      mload(0x40)\n      dup1\n      swap2\n      sub\n      swap1\n      return\n        /* \"contracts/token/ERC721/ERC721.sol\":4258:4669  function approve(address to, uint256 tokenId) public virtual override {\r... */\n    tag_6:\n      tag_37\n      0x04\n      dup1\n      calldatasize\n      sub\n      dup2\n      add\n      swap1\n      tag_38\n      swap2\n      swap1\n      tag_39\n      jump\t// in\n    tag_38:\n      tag_40\n      jump\t// in\n    tag_37:\n      stop\n        /* \"contracts/token/ERC721/ERC721.sol\":6530:6851  function transferFrom(\r... */\n    tag_7:\n      tag_41\n      0x04\n      dup1\n      calldatasize\n      sub\n      dup2\n      add\n      swap1\n      tag_42\n      swap2\n      swap1\n      tag_43\n      jump\t// in\n    tag_42:\n      tag_44\n      jump\t// in\n    tag_41:\n      stop\n        /* \"contracts/token/ERC721/ERC721.sol\":9188:9369  function safeTransferFrom(\r... */\n    tag_8:\n      tag_45\n      0x04\n      dup1\n      calldatasize\n      sub\n      dup2\n      add\n      swap1\n      tag_46\n      swap2\n      swap1\n      tag_43\n      jump\t// in\n    tag_46:\n      tag_47\n      jump\t// in\n    tag_45:\n      stop\n        /* \"contracts/TileNFT.sol\":313:386  function burn(uint256 _tokenId) public {\r... */\n    tag_9:\n      tag_48\n      0x04\n      dup1\n      calldatasize\n      sub\n      dup2\n      add\n      swap1\n      tag_49\n      swap2\n      swap1\n      tag_33\n      jump\t// in\n    tag_49:\n      tag_50\n      jump\t// in\n    tag_48:\n      stop\n        /* \"contracts/token/ERC721/ERC721.sol\":2436:2762  function ownerOf(uint256 tokenId)\r... */\n    tag_10:\n      tag_51\n      0x04\n      dup1\n      calldatasize\n      sub\n      dup2\n      add\n      swap1\n      tag_52\n      swap2\n      swap1\n      tag_33\n      jump\t// in\n    tag_52:\n      tag_53\n      jump\t// in\n    tag_51:\n      mload(0x40)\n      tag_54\n      swap2\n      swap1\n      tag_36\n      jump\t// in\n    tag_54:\n      mload(0x40)\n      dup1\n      swap2\n      sub\n      swap1\n      return\n        /* \"contracts/token/ERC721/ERC721.sol\":2020:2315  function balanceOf(address owner)\r... */\n    tag_11:\n      tag_55\n      0x04\n      dup1\n      calldatasize\n      sub\n      dup2\n      add\n      swap1\n      tag_56\n      swap2\n      swap1\n      tag_57\n      jump\t// in\n    tag_56:\n      tag_58\n      jump\t// in\n    tag_55:\n      mload(0x40)\n      tag_59\n      swap2\n      swap1\n      tag_60\n      jump\t// in\n    tag_59:\n      mload(0x40)\n      dup1\n      swap2\n      sub\n      swap1\n      return\n        /* \"contracts/token/ERC721/ERC721.sol\":2998:3102  function symbol() public view virtual override returns (string memory) {\r... */\n    tag_12:\n      tag_61\n      tag_62\n      jump\t// in\n    tag_61:\n      mload(0x40)\n      tag_63\n      swap2\n      swap1\n      tag_30\n      jump\t// in\n    tag_63:\n      mload(0x40)\n      dup1\n      swap2\n      sub\n      swap1\n      return\n        /* \"contracts/TileNFT.sol\":178:305  function mint(uint256 _tokenId) public {\r... */\n    tag_13:\n      tag_64\n      0x04\n      dup1\n      calldatasize\n      sub\n      dup2\n      add\n      swap1\n      tag_65\n      swap2\n      swap1\n      tag_33\n      jump\t// in\n    tag_65:\n      tag_66\n      jump\t// in\n    tag_64:\n      stop\n        /* \"contracts/token/ERC721/ERC721.sol\":5473:5660  function setApprovalForAll(address operator, bool approved)\r... */\n    tag_14:\n      tag_67\n      0x04\n      dup1\n      calldatasize\n      sub\n      dup2\n      add\n      swap1\n      tag_68\n      swap2\n      swap1\n      tag_69\n      jump\t// in\n    tag_68:\n      tag_70\n      jump\t// in\n    tag_67:\n      stop\n        /* \"contracts/token/ERC721/ERC721.sol\":9879:10244  function safeTransferFrom(\r... */\n    tag_15:\n      tag_71\n      0x04\n      dup1\n      calldatasize\n      sub\n      dup2\n      add\n      swap1\n      tag_72\n      swap2\n      swap1\n      tag_73\n      jump\t// in\n    tag_72:\n      tag_74\n      jump\t// in\n    tag_71:\n      stop\n        /* \"contracts/token/ERC721/ERC721.sol\":3173:3641  function tokenURI(uint256 tokenId)\r... */\n    tag_16:\n      tag_75\n      0x04\n      dup1\n      calldatasize\n      sub\n      dup2\n      add\n      swap1\n      tag_76\n      swap2\n      swap1\n      tag_33\n      jump\t// in\n    tag_76:\n      tag_77\n      jump\t// in\n    tag_75:\n      mload(0x40)\n      tag_78\n      swap2\n      swap1\n      tag_30\n      jump\t// in\n    tag_78:\n      mload(0x40)\n      dup1\n      swap2\n      sub\n      swap1\n      return\n        /* \"contracts/token/ERC721/ERC721.sol\":6249:6463  function isApprovedForAll(address owner, address operator)\r... */\n    tag_17:\n      tag_79\n      0x04\n      dup1\n      calldatasize\n      sub\n      dup2\n      add\n      swap1\n      tag_80\n      swap2\n      swap1\n      tag_81\n      jump\t// in\n    tag_80:\n      tag_82\n      jump\t// in\n    tag_79:\n      mload(0x40)\n      tag_83\n      swap2\n      swap1\n      tag_26\n      jump\t// in\n    tag_83:\n      mload(0x40)\n      dup1\n      swap2\n      sub\n      swap1\n      return\n        /* \"contracts/token/ERC721/ERC721.sol\":1461:1816  function supportsInterface(bytes4 interfaceId)\r... */\n    tag_24:\n        /* \"contracts/token/ERC721/ERC721.sol\":1608:1612  bool */\n      0x00\n        /* \"contracts/token/ERC721/ERC721.sol\":1665:1690  type(IERC721).interfaceId */\n      0x80ac58cd00000000000000000000000000000000000000000000000000000000\n        /* \"contracts/token/ERC721/ERC721.sol\":1650:1690  interfaceId == type(IERC721).interfaceId */\n      not(0xffffffffffffffffffffffffffffffffffffffffffffffffffffffff)\n      and\n        /* \"contracts/token/ERC721/ERC721.sol\":1650:1661  interfaceId */\n      dup3\n        /* \"contracts/token/ERC721/ERC721.sol\":1650:1690  interfaceId == type(IERC721).interfaceId */\n      not(0xffffffffffffffffffffffffffffffffffffffffffffffffffffffff)\n      and\n      eq\n        /* \"contracts/token/ERC721/ERC721.sol\":1650:1755  interfaceId == type(IERC721).interfaceId ||\r... */\n      dup1\n      tag_85\n      jumpi\n      pop\n        /* \"contracts/token/ERC721/ERC721.sol\":1722:1755  type(IERC721Metadata).interfaceId */\n      0x5b5e139f00000000000000000000000000000000000000000000000000000000\n        /* \"contracts/token/ERC721/ERC721.sol\":1707:1755  interfaceId == type(IERC721Metadata).interfaceId */\n      not(0xffffffffffffffffffffffffffffffffffffffffffffffffffffffff)\n      and\n        /* \"contracts/token/ERC721/ERC721.sol\":1707:1718  interfaceId */\n      dup3\n        /* \"contracts/token/ERC721/ERC721.sol\":1707:1755  interfaceId == type(IERC721Metadata).interfaceId */\n      not(0xffffffffffffffffffffffffffffffffffffffffffffffffffffffff)\n      and\n      eq\n        /* \"contracts/token/ERC721/ERC721.sol\":1650:1755  interfaceId == type(IERC721).interfaceId ||\r... */\n    tag_85:\n        /* \"contracts/token/ERC721/ERC721.sol\":1650:1808  interfaceId == type(IERC721).interfaceId ||\r... */\n      dup1\n      tag_86\n      jumpi\n      pop\n        /* \"contracts/token/ERC721/ERC721.sol\":1772:1808  super.supportsInterface(interfaceId) */\n      tag_87\n        /* \"contracts/token/ERC721/ERC721.sol\":1796:1807  interfaceId */\n      dup3\n        /* \"contracts/token/ERC721/ERC721.sol\":1772:1795  super.supportsInterface */\n      tag_88\n        /* \"contracts/token/ERC721/ERC721.sol\":1772:1808  super.supportsInterface(interfaceId) */\n      jump\t// in\n    tag_87:\n        /* \"contracts/token/ERC721/ERC721.sol\":1650:1808  interfaceId == type(IERC721).interfaceId ||\r... */\n    tag_86:\n        /* \"contracts/token/ERC721/ERC721.sol\":1630:1808  return\r... */\n      swap1\n      pop\n        /* \"contracts/token/ERC721/ERC721.sol\":1461:1816  function supportsInterface(bytes4 interfaceId)\r... */\n      swap2\n      swap1\n      pop\n      jump\t// out\n        /* \"contracts/token/ERC721/ERC721.sol\":2829:2929  function name() public view virtual override returns (string memory) {\r... */\n    tag_28:\n        /* \"contracts/token/ERC721/ERC721.sol\":2883:2896  string memory */\n      0x60\n        /* \"contracts/token/ERC721/ERC721.sol\":2916:2921  _name */\n      0x00\n        /* \"contracts/token/ERC721/ERC721.sol\":2909:2921  return _name */\n      dup1\n      sload\n      tag_90\n      swap1\n      tag_91\n      jump\t// in\n    tag_90:\n      dup1\n      0x1f\n      add\n      0x20\n      dup1\n      swap2\n      div\n      mul\n      0x20\n      add\n      mload(0x40)\n      swap1\n      dup2\n      add\n      0x40\n      mstore\n      dup1\n      swap3\n      swap2\n      swap1\n      dup2\n      dup2\n      mstore\n      0x20\n      add\n      dup3\n      dup1\n      sload\n      tag_92\n      swap1\n      tag_91\n      jump\t// in\n    tag_92:\n      dup1\n      iszero\n      tag_93\n      jumpi\n      dup1\n      0x1f\n      lt\n      tag_94\n      jumpi\n      0x0100\n      dup1\n      dup4\n      sload\n      div\n      mul\n      dup4\n      mstore\n      swap2\n      0x20\n      add\n      swap2\n      jump(tag_93)\n    tag_94:\n      dup3\n      add\n      swap2\n      swap1\n      0x00\n      mstore\n      keccak256(0x00, 0x20)\n      swap1\n    tag_95:\n      dup2\n      sload\n      dup2\n      mstore\n      swap1\n      0x01\n      add\n      swap1\n      0x20\n      add\n      dup1\n      dup4\n      gt\n      tag_95\n      jumpi\n      dup3\n      swap1\n      sub\n      0x1f\n      and\n      dup3\n      add\n      swap2\n    tag_93:\n      pop\n      pop\n      pop\n      pop\n      pop\n      swap1\n      pop\n        /* \"contracts/token/ERC721/ERC721.sol\":2829:2929  function name() public view virtual override returns (string memory) {\r... */\n      swap1\n      jump\t// out\n        /* \"contracts/token/ERC721/ERC721.sol\":4802:5110  function getApproved(uint256 tokenId)\r... */\n    tag_34:\n        /* \"contracts/token/ERC721/ERC721.sol\":4923:4930  address */\n      0x00\n        /* \"contracts/token/ERC721/ERC721.sol\":4970:4986  _exists(tokenId) */\n      tag_97\n        /* \"contracts/token/ERC721/ERC721.sol\":4978:4985  tokenId */\n      dup3\n        /* \"contracts/token/ERC721/ERC721.sol\":4970:4977  _exists */\n      tag_98\n        /* \"contracts/token/ERC721/ERC721.sol\":4970:4986  _exists(tokenId) */\n      jump\t// in\n    tag_97:\n        /* \"contracts/token/ERC721/ERC721.sol\":4948:5058  require(\r... */\n      tag_99\n      jumpi\n      mload(0x40)\n      0x08c379a000000000000000000000000000000000000000000000000000000000\n      dup2\n      mstore\n      0x04\n      add\n      tag_100\n      swap1\n      tag_101\n      jump\t// in\n    tag_100:\n      mload(0x40)\n      dup1\n      swap2\n      sub\n      swap1\n      revert\n    tag_99:\n        /* \"contracts/token/ERC721/ERC721.sol\":5078:5093  _tokenApprovals */\n      0x04\n        /* \"contracts/token/ERC721/ERC721.sol\":5078:5102  _tokenApprovals[tokenId] */\n      0x00\n        /* \"contracts/token/ERC721/ERC721.sol\":5094:5101  tokenId */\n      dup4\n        /* \"contracts/token/ERC721/ERC721.sol\":5078:5102  _tokenApprovals[tokenId] */\n      dup2\n      mstore\n      0x20\n      add\n      swap1\n      dup2\n      mstore\n      0x20\n      add\n      0x00\n      keccak256\n      0x00\n      swap1\n      sload\n      swap1\n      0x0100\n      exp\n      swap1\n      div\n      0xffffffffffffffffffffffffffffffffffffffff\n      and\n        /* \"contracts/token/ERC721/ERC721.sol\":5071:5102  return _tokenApprovals[tokenId] */\n      swap1\n      pop\n        /* \"contracts/token/ERC721/ERC721.sol\":4802:5110  function getApproved(uint256 tokenId)\r... */\n      swap2\n      swap1\n      pop\n      jump\t// out\n        /* \"contracts/token/ERC721/ERC721.sol\":4258:4669  function approve(address to, uint256 tokenId) public virtual override {\r... */\n    tag_40:\n        /* \"contracts/token/ERC721/ERC721.sol\":4339:4352  address owner */\n      0x00\n        /* \"contracts/token/ERC721/ERC721.sol\":4355:4378  ERC721.ownerOf(tokenId) */\n      tag_103\n        /* \"contracts/token/ERC721/ERC721.sol\":4370:4377  tokenId */\n      dup3\n        /* \"contracts/token/ERC721/ERC721.sol\":4355:4369  ERC721.ownerOf */\n      tag_53\n        /* \"contracts/token/ERC721/ERC721.sol\":4355:4378  ERC721.ownerOf(tokenId) */\n      jump\t// in\n    tag_103:\n        /* \"contracts/token/ERC721/ERC721.sol\":4339:4378  address owner = ERC721.ownerOf(tokenId) */\n      swap1\n      pop\n        /* \"contracts/token/ERC721/ERC721.sol\":4405:4410  owner */\n      dup1\n        /* \"contracts/token/ERC721/ERC721.sol\":4399:4410  to != owner */\n      0xffffffffffffffffffffffffffffffffffffffff\n      and\n        /* \"contracts/token/ERC721/ERC721.sol\":4399:4401  to */\n      dup4\n        /* \"contracts/token/ERC721/ERC721.sol\":4399:4410  to != owner */\n      0xffffffffffffffffffffffffffffffffffffffff\n      and\n      eq\n      iszero\n        /* \"contracts/token/ERC721/ERC721.sol\":4391:4448  require(to != owner, \"ERC721: approval to current owner\") */\n      tag_104\n      jumpi\n      mload(0x40)\n      0x08c379a000000000000000000000000000000000000000000000000000000000\n      dup2\n      mstore\n      0x04\n      add\n      tag_105\n      swap1\n      tag_106\n      jump\t// in\n    tag_105:\n      mload(0x40)\n      dup1\n      swap2\n      sub\n      swap1\n      revert\n    tag_104:\n        /* \"contracts/token/ERC721/ERC721.sol\":4497:4502  owner */\n      dup1\n        /* \"contracts/token/ERC721/ERC721.sol\":4481:4502  _msgSender() == owner */\n      0xffffffffffffffffffffffffffffffffffffffff\n      and\n        /* \"contracts/token/ERC721/ERC721.sol\":4481:4493  _msgSender() */\n      tag_107\n        /* \"contracts/token/ERC721/ERC721.sol\":4481:4491  _msgSender */\n      tag_108\n        /* \"contracts/token/ERC721/ERC721.sol\":4481:4493  _msgSender() */\n      jump\t// in\n    tag_107:\n        /* \"contracts/token/ERC721/ERC721.sol\":4481:4502  _msgSender() == owner */\n      0xffffffffffffffffffffffffffffffffffffffff\n      and\n      eq\n        /* \"contracts/token/ERC721/ERC721.sol\":4481:4543  _msgSender() == owner || isApprovedForAll(owner, _msgSender()) */\n      dup1\n      tag_109\n      jumpi\n      pop\n        /* \"contracts/token/ERC721/ERC721.sol\":4506:4543  isApprovedForAll(owner, _msgSender()) */\n      tag_110\n        /* \"contracts/token/ERC721/ERC721.sol\":4523:4528  owner */\n      dup2\n        /* \"contracts/token/ERC721/ERC721.sol\":4530:4542  _msgSender() */\n      tag_111\n        /* \"contracts/token/ERC721/ERC721.sol\":4530:4540  _msgSender */\n      tag_108\n        /* \"contracts/token/ERC721/ERC721.sol\":4530:4542  _msgSender() */\n      jump\t// in\n    tag_111:\n        /* \"contracts/token/ERC721/ERC721.sol\":4506:4522  isApprovedForAll */\n      tag_82\n        /* \"contracts/token/ERC721/ERC721.sol\":4506:4543  isApprovedForAll(owner, _msgSender()) */\n      jump\t// in\n    tag_110:\n        /* \"contracts/token/ERC721/ERC721.sol\":4481:4543  _msgSender() == owner || isApprovedForAll(owner, _msgSender()) */\n    tag_109:\n        /* \"contracts/token/ERC721/ERC721.sol\":4459:4627  require(\r... */\n      tag_112\n      jumpi\n      mload(0x40)\n      0x08c379a000000000000000000000000000000000000000000000000000000000\n      dup2\n      mstore\n      0x04\n      add\n      tag_113\n      swap1\n      tag_114\n      jump\t// in\n    tag_113:\n      mload(0x40)\n      dup1\n      swap2\n      sub\n      swap1\n      revert\n    tag_112:\n        /* \"contracts/token/ERC721/ERC721.sol\":4640:4661  _approve(to, tokenId) */\n      tag_115\n        /* \"contracts/token/ERC721/ERC721.sol\":4649:4651  to */\n      dup4\n        /* \"contracts/token/ERC721/ERC721.sol\":4653:4660  tokenId */\n      dup4\n        /* \"contracts/token/ERC721/ERC721.sol\":4640:4648  _approve */\n      tag_116\n        /* \"contracts/token/ERC721/ERC721.sol\":4640:4661  _approve(to, tokenId) */\n      jump\t// in\n    tag_115:\n        /* \"contracts/token/ERC721/ERC721.sol\":4328:4669  {\r... */\n      pop\n        /* \"contracts/token/ERC721/ERC721.sol\":4258:4669  function approve(address to, uint256 tokenId) public virtual override {\r... */\n      pop\n      pop\n      jump\t// out\n        /* \"contracts/token/ERC721/ERC721.sol\":6530:6851  function transferFrom(\r... */\n    tag_44:\n        /* \"contracts/token/ERC721/ERC721.sol\":6686:6727  _isApprovedOrOwner(_msgSender(), tokenId) */\n      tag_118\n        /* \"contracts/token/ERC721/ERC721.sol\":6705:6717  _msgSender() */\n      tag_119\n        /* \"contracts/token/ERC721/ERC721.sol\":6705:6715  _msgSender */\n      tag_108\n        /* \"contracts/token/ERC721/ERC721.sol\":6705:6717  _msgSender() */\n      jump\t// in\n    tag_119:\n        /* \"contracts/token/ERC721/ERC721.sol\":6719:6726  tokenId */\n      dup3\n        /* \"contracts/token/ERC721/ERC721.sol\":6686:6704  _isApprovedOrOwner */\n      tag_120\n        /* \"contracts/token/ERC721/ERC721.sol\":6686:6727  _isApprovedOrOwner(_msgSender(), tokenId) */\n      jump\t// in\n    tag_118:\n        /* \"contracts/token/ERC721/ERC721.sol\":6664:6804  require(\r... */\n      tag_121\n      jumpi\n      mload(0x40)\n      0x08c379a000000000000000000000000000000000000000000000000000000000\n      dup2\n      mstore\n      0x04\n      add\n      tag_122\n      swap1\n      tag_123\n      jump\t// in\n    tag_122:\n      mload(0x40)\n      dup1\n      swap2\n      sub\n      swap1\n      revert\n    tag_121:\n        /* \"contracts/token/ERC721/ERC721.sol\":6815:6843  _transfer(from, to, tokenId) */\n      tag_124\n        /* \"contracts/token/ERC721/ERC721.sol\":6825:6829  from */\n      dup4\n        /* \"contracts/token/ERC721/ERC721.sol\":6831:6833  to */\n      dup4\n        /* \"contracts/token/ERC721/ERC721.sol\":6835:6842  tokenId */\n      dup4\n        /* \"contracts/token/ERC721/ERC721.sol\":6815:6824  _transfer */\n      tag_125\n        /* \"contracts/token/ERC721/ERC721.sol\":6815:6843  _transfer(from, to, tokenId) */\n      jump\t// in\n    tag_124:\n        /* \"contracts/token/ERC721/ERC721.sol\":6530:6851  function transferFrom(\r... */\n      pop\n      pop\n      pop\n      jump\t// out\n        /* \"contracts/token/ERC721/ERC721.sol\":9188:9369  function safeTransferFrom(\r... */\n    tag_47:\n        /* \"contracts/token/ERC721/ERC721.sol\":9326:9361  safeTransferFrom(from, to, tokenId) */\n      tag_127\n        /* \"contracts/token/ERC721/ERC721.sol\":9343:9347  from */\n      dup4\n        /* \"contracts/token/ERC721/ERC721.sol\":9349:9351  to */\n      dup4\n        /* \"contracts/token/ERC721/ERC721.sol\":9353:9360  tokenId */\n      dup4\n        /* \"contracts/token/ERC721/ERC721.sol\":9326:9342  safeTransferFrom */\n      tag_47\n        /* \"contracts/token/ERC721/ERC721.sol\":9326:9361  safeTransferFrom(from, to, tokenId) */\n      jump\t// in\n    tag_127:\n        /* \"contracts/token/ERC721/ERC721.sol\":9188:9369  function safeTransferFrom(\r... */\n      pop\n      pop\n      pop\n      jump\t// out\n        /* \"contracts/TileNFT.sol\":313:386  function burn(uint256 _tokenId) public {\r... */\n    tag_50:\n        /* \"contracts/TileNFT.sol\":363:378  _burn(_tokenId) */\n      tag_129\n        /* \"contracts/TileNFT.sol\":369:377  _tokenId */\n      dup2\n        /* \"contracts/TileNFT.sol\":363:368  _burn */\n      tag_130\n        /* \"contracts/TileNFT.sol\":363:378  _burn(_tokenId) */\n      jump\t// in\n    tag_129:\n        /* \"contracts/TileNFT.sol\":313:386  function burn(uint256 _tokenId) public {\r... */\n      pop\n      jump\t// out\n        /* \"contracts/token/ERC721/ERC721.sol\":2436:2762  function ownerOf(uint256 tokenId)\r... */\n    tag_53:\n        /* \"contracts/token/ERC721/ERC721.sol\":2553:2560  address */\n      0x00\n        /* \"contracts/token/ERC721/ERC721.sol\":2578:2591  address owner */\n      dup1\n        /* \"contracts/token/ERC721/ERC721.sol\":2594:2601  _owners */\n      0x02\n        /* \"contracts/token/ERC721/ERC721.sol\":2594:2610  _owners[tokenId] */\n      0x00\n        /* \"contracts/token/ERC721/ERC721.sol\":2602:2609  tokenId */\n      dup5\n        /* \"contracts/token/ERC721/ERC721.sol\":2594:2610  _owners[tokenId] */\n      dup2\n      mstore\n      0x20\n      add\n      swap1\n      dup2\n      mstore\n      0x20\n      add\n      0x00\n      keccak256\n      0x00\n      swap1\n      sload\n      swap1\n      0x0100\n      exp\n      swap1\n      div\n      0xffffffffffffffffffffffffffffffffffffffff\n      and\n        /* \"contracts/token/ERC721/ERC721.sol\":2578:2610  address owner = _owners[tokenId] */\n      swap1\n      pop\n        /* \"contracts/token/ERC721/ERC721.sol\":2660:2661  0 */\n      0x00\n        /* \"contracts/token/ERC721/ERC721.sol\":2643:2662  owner != address(0) */\n      0xffffffffffffffffffffffffffffffffffffffff\n      and\n        /* \"contracts/token/ERC721/ERC721.sol\":2643:2648  owner */\n      dup2\n        /* \"contracts/token/ERC721/ERC721.sol\":2643:2662  owner != address(0) */\n      0xffffffffffffffffffffffffffffffffffffffff\n      and\n      eq\n      iszero\n        /* \"contracts/token/ERC721/ERC721.sol\":2621:2731  require(\r... */\n      tag_132\n      jumpi\n      mload(0x40)\n      0x08c379a000000000000000000000000000000000000000000000000000000000\n      dup2\n      mstore\n      0x04\n      add\n      tag_133\n      swap1\n      tag_134\n      jump\t// in\n    tag_133:\n      mload(0x40)\n      dup1\n      swap2\n      sub\n      swap1\n      revert\n    tag_132:\n        /* \"contracts/token/ERC721/ERC721.sol\":2749:2754  owner */\n      dup1\n        /* \"contracts/token/ERC721/ERC721.sol\":2742:2754  return owner */\n      swap2\n      pop\n      pop\n        /* \"contracts/token/ERC721/ERC721.sol\":2436:2762  function ownerOf(uint256 tokenId)\r... */\n      swap2\n      swap1\n      pop\n      jump\t// out\n        /* \"contracts/token/ERC721/ERC721.sol\":2020:2315  function balanceOf(address owner)\r... */\n    tag_58:\n        /* \"contracts/token/ERC721/ERC721.sol\":2137:2144  uint256 */\n      0x00\n        /* \"contracts/token/ERC721/ERC721.sol\":2201:2202  0 */\n      dup1\n        /* \"contracts/token/ERC721/ERC721.sol\":2184:2203  owner != address(0) */\n      0xffffffffffffffffffffffffffffffffffffffff\n      and\n        /* \"contracts/token/ERC721/ERC721.sol\":2184:2189  owner */\n      dup3\n        /* \"contracts/token/ERC721/ERC721.sol\":2184:2203  owner != address(0) */\n      0xffffffffffffffffffffffffffffffffffffffff\n      and\n      eq\n      iszero\n        /* \"contracts/token/ERC721/ERC721.sol\":2162:2273  require(\r... */\n      tag_136\n      jumpi\n      mload(0x40)\n      0x08c379a000000000000000000000000000000000000000000000000000000000\n      dup2\n      mstore\n      0x04\n      add\n      tag_137\n      swap1\n      tag_138\n      jump\t// in\n    tag_137:\n      mload(0x40)\n      dup1\n      swap2\n      sub\n      swap1\n      revert\n    tag_136:\n        /* \"contracts/token/ERC721/ERC721.sol\":2291:2300  _balances */\n      0x03\n        /* \"contracts/token/ERC721/ERC721.sol\":2291:2307  _balances[owner] */\n      0x00\n        /* \"contracts/token/ERC721/ERC721.sol\":2301:2306  owner */\n      dup4\n        /* \"contracts/token/ERC721/ERC721.sol\":2291:2307  _balances[owner] */\n      0xffffffffffffffffffffffffffffffffffffffff\n      and\n      0xffffffffffffffffffffffffffffffffffffffff\n      and\n      dup2\n      mstore\n      0x20\n      add\n      swap1\n      dup2\n      mstore\n      0x20\n      add\n      0x00\n      keccak256\n      sload\n        /* \"contracts/token/ERC721/ERC721.sol\":2284:2307  return _balances[owner] */\n      swap1\n      pop\n        /* \"contracts/token/ERC721/ERC721.sol\":2020:2315  function balanceOf(address owner)\r... */\n      swap2\n      swap1\n      pop\n      jump\t// out\n        /* \"contracts/token/ERC721/ERC721.sol\":2998:3102  function symbol() public view virtual override returns (string memory) {\r... */\n    tag_62:\n        /* \"contracts/token/ERC721/ERC721.sol\":3054:3067  string memory */\n      0x60\n        /* \"contracts/token/ERC721/ERC721.sol\":3087:3094  _symbol */\n      0x01\n        /* \"contracts/token/ERC721/ERC721.sol\":3080:3094  return _symbol */\n      dup1\n      sload\n      tag_140\n      swap1\n      tag_91\n      jump\t// in\n    tag_140:\n      dup1\n      0x1f\n      add\n      0x20\n      dup1\n      swap2\n      div\n      mul\n      0x20\n      add\n      mload(0x40)\n      swap1\n      dup2\n      add\n      0x40\n      mstore\n      dup1\n      swap3\n      swap2\n      swap1\n      dup2\n      dup2\n      mstore\n      0x20\n      add\n      dup3\n      dup1\n      sload\n      tag_141\n      swap1\n      tag_91\n      jump\t// in\n    tag_141:\n      dup1\n      iszero\n      tag_142\n      jumpi\n      dup1\n      0x1f\n      lt\n      tag_143\n      jumpi\n      0x0100\n      dup1\n      dup4\n      sload\n      div\n      mul\n      dup4\n      mstore\n      swap2\n      0x20\n      add\n      swap2\n      jump(tag_142)\n    tag_143:\n      dup3\n      add\n      swap2\n      swap1\n      0x00\n      mstore\n      keccak256(0x00, 0x20)\n      swap1\n    tag_144:\n      dup2\n      sload\n      dup2\n      mstore\n      swap1\n      0x01\n      add\n      swap1\n      0x20\n      add\n      dup1\n      dup4\n      gt\n      tag_144\n      jumpi\n      dup3\n      swap1\n      sub\n      0x1f\n      and\n      dup3\n      add\n      swap2\n    tag_142:\n      pop\n      pop\n      pop\n      pop\n      pop\n      swap1\n      pop\n        /* \"contracts/token/ERC721/ERC721.sol\":2998:3102  function symbol() public view virtual override returns (string memory) {\r... */\n      swap1\n      jump\t// out\n        /* \"contracts/TileNFT.sol\":178:305  function mint(uint256 _tokenId) public {\r... */\n    tag_66:\n        /* \"contracts/TileNFT.sol\":228:244  uint256 tokenIds */\n      0x00\n        /* \"contracts/TileNFT.sol\":247:255  _tokenId */\n      dup2\n        /* \"contracts/TileNFT.sol\":228:255  uint256 tokenIds = _tokenId */\n      swap1\n      pop\n        /* \"contracts/TileNFT.sol\":266:297  _safeMint(msg.sender, tokenIds) */\n      tag_146\n        /* \"contracts/TileNFT.sol\":276:286  msg.sender */\n      caller\n        /* \"contracts/TileNFT.sol\":288:296  tokenIds */\n      dup3\n        /* \"contracts/TileNFT.sol\":266:275  _safeMint */\n      tag_147\n        /* \"contracts/TileNFT.sol\":266:297  _safeMint(msg.sender, tokenIds) */\n      jump\t// in\n    tag_146:\n        /* \"contracts/TileNFT.sol\":217:305  {\r... */\n      pop\n        /* \"contracts/TileNFT.sol\":178:305  function mint(uint256 _tokenId) public {\r... */\n      pop\n      jump\t// out\n        /* \"contracts/token/ERC721/ERC721.sol\":5473:5660  function setApprovalForAll(address operator, bool approved)\r... */\n    tag_70:\n        /* \"contracts/token/ERC721/ERC721.sol\":5600:5652  _setApprovalForAll(_msgSender(), operator, approved) */\n      tag_149\n        /* \"contracts/token/ERC721/ERC721.sol\":5619:5631  _msgSender() */\n      tag_150\n        /* \"contracts/token/ERC721/ERC721.sol\":5619:5629  _msgSender */\n      tag_108\n        /* \"contracts/token/ERC721/ERC721.sol\":5619:5631  _msgSender() */\n      jump\t// in\n    tag_150:\n        /* \"contracts/token/ERC721/ERC721.sol\":5633:5641  operator */\n      dup4\n        /* \"contracts/token/ERC721/ERC721.sol\":5643:5651  approved */\n      dup4\n        /* \"contracts/token/ERC721/ERC721.sol\":5600:5618  _setApprovalForAll */\n      tag_151\n        /* \"contracts/token/ERC721/ERC721.sol\":5600:5652  _setApprovalForAll(_msgSender(), operator, approved) */\n      jump\t// in\n    tag_149:\n        /* \"contracts/token/ERC721/ERC721.sol\":5473:5660  function setApprovalForAll(address operator, bool approved)\r... */\n      pop\n      pop\n      jump\t// out\n        /* \"contracts/token/ERC721/ERC721.sol\":9879:10244  function safeTransferFrom(\r... */\n    tag_74:\n        /* \"contracts/token/ERC721/ERC721.sol\":10068:10109  _isApprovedOrOwner(_msgSender(), tokenId) */\n      tag_153\n        /* \"contracts/token/ERC721/ERC721.sol\":10087:10099  _msgSender() */\n      tag_154\n        /* \"contracts/token/ERC721/ERC721.sol\":10087:10097  _msgSender */\n      tag_108\n        /* \"contracts/token/ERC721/ERC721.sol\":10087:10099  _msgSender() */\n      jump\t// in\n    tag_154:\n        /* \"contracts/token/ERC721/ERC721.sol\":10101:10108  tokenId */\n      dup4\n        /* \"contracts/token/ERC721/ERC721.sol\":10068:10086  _isApprovedOrOwner */\n      tag_120\n        /* \"contracts/token/ERC721/ERC721.sol\":10068:10109  _isApprovedOrOwner(_msgSender(), tokenId) */\n      jump\t// in\n    tag_153:\n        /* \"contracts/token/ERC721/ERC721.sol\":10046:10186  require(\r... */\n      tag_155\n      jumpi\n      mload(0x40)\n      0x08c379a000000000000000000000000000000000000000000000000000000000\n      dup2\n      mstore\n      0x04\n      add\n      tag_156\n      swap1\n      tag_157\n      jump\t// in\n    tag_156:\n      mload(0x40)\n      dup1\n      swap2\n      sub\n      swap1\n      revert\n    tag_155:\n        /* \"contracts/token/ERC721/ERC721.sol\":10197:10236  _safeTransfer(from, to, tokenId, _data) */\n      tag_158\n        /* \"contracts/token/ERC721/ERC721.sol\":10211:10215  from */\n      dup5\n        /* \"contracts/token/ERC721/ERC721.sol\":10217:10219  to */\n      dup5\n        /* \"contracts/token/ERC721/ERC721.sol\":10221:10228  tokenId */\n      dup5\n        /* \"contracts/token/ERC721/ERC721.sol\":10230:10235  _data */\n      dup5\n        /* \"contracts/token/ERC721/ERC721.sol\":10197:10210  _safeTransfer */\n      tag_159\n        /* \"contracts/token/ERC721/ERC721.sol\":10197:10236  _safeTransfer(from, to, tokenId, _data) */\n      jump\t// in\n    tag_158:\n        /* \"contracts/token/ERC721/ERC721.sol\":9879:10244  function safeTransferFrom(\r... */\n      pop\n      pop\n      pop\n      pop\n      jump\t// out\n        /* \"contracts/token/ERC721/ERC721.sol\":3173:3641  function tokenURI(uint256 tokenId)\r... */\n    tag_77:\n        /* \"contracts/token/ERC721/ERC721.sol\":3291:3304  string memory */\n      0x60\n        /* \"contracts/token/ERC721/ERC721.sol\":3344:3360  _exists(tokenId) */\n      tag_161\n        /* \"contracts/token/ERC721/ERC721.sol\":3352:3359  tokenId */\n      dup3\n        /* \"contracts/token/ERC721/ERC721.sol\":3344:3351  _exists */\n      tag_98\n        /* \"contracts/token/ERC721/ERC721.sol\":3344:3360  _exists(tokenId) */\n      jump\t// in\n    tag_161:\n        /* \"contracts/token/ERC721/ERC721.sol\":3322:3435  require(\r... */\n      tag_162\n      jumpi\n      mload(0x40)\n      0x08c379a000000000000000000000000000000000000000000000000000000000\n      dup2\n      mstore\n      0x04\n      add\n      tag_163\n      swap1\n      tag_164\n      jump\t// in\n    tag_163:\n      mload(0x40)\n      dup1\n      swap2\n      sub\n      swap1\n      revert\n    tag_162:\n        /* \"contracts/token/ERC721/ERC721.sol\":3448:3469  string memory baseURI */\n      0x00\n        /* \"contracts/token/ERC721/ERC721.sol\":3472:3482  _baseURI() */\n      tag_165\n        /* \"contracts/token/ERC721/ERC721.sol\":3472:3480  _baseURI */\n      tag_166\n        /* \"contracts/token/ERC721/ERC721.sol\":3472:3482  _baseURI() */\n      jump\t// in\n    tag_165:\n        /* \"contracts/token/ERC721/ERC721.sol\":3448:3482  string memory baseURI = _baseURI() */\n      swap1\n      pop\n        /* \"contracts/token/ERC721/ERC721.sol\":3537:3538  0 */\n      0x00\n        /* \"contracts/token/ERC721/ERC721.sol\":3519:3526  baseURI */\n      dup2\n        /* \"contracts/token/ERC721/ERC721.sol\":3513:3534  bytes(baseURI).length */\n      mload\n        /* \"contracts/token/ERC721/ERC721.sol\":3513:3538  bytes(baseURI).length > 0 */\n      gt\n        /* \"contracts/token/ERC721/ERC721.sol\":3513:3633  bytes(baseURI).length > 0\r... */\n      tag_167\n      jumpi\n      mload(0x40)\n      dup1\n      0x20\n      add\n      0x40\n      mstore\n      dup1\n      0x00\n      dup2\n      mstore\n      pop\n      jump(tag_168)\n    tag_167:\n        /* \"contracts/token/ERC721/ERC721.sol\":3582:3589  baseURI */\n      dup1\n        /* \"contracts/token/ERC721/ERC721.sol\":3591:3609  tokenId.toString() */\n      tag_169\n        /* \"contracts/token/ERC721/ERC721.sol\":3591:3598  tokenId */\n      dup5\n        /* \"contracts/token/ERC721/ERC721.sol\":3591:3607  tokenId.toString */\n      tag_170\n        /* \"contracts/token/ERC721/ERC721.sol\":3591:3609  tokenId.toString() */\n      jump\t// in\n    tag_169:\n        /* \"contracts/token/ERC721/ERC721.sol\":3565:3610  abi.encodePacked(baseURI, tokenId.toString()) */\n      add(0x20, mload(0x40))\n      tag_171\n      swap3\n      swap2\n      swap1\n      tag_172\n      jump\t// in\n    tag_171:\n      mload(0x40)\n      0x20\n      dup2\n      dup4\n      sub\n      sub\n      dup2\n      mstore\n      swap1\n      0x40\n      mstore\n        /* \"contracts/token/ERC721/ERC721.sol\":3513:3633  bytes(baseURI).length > 0\r... */\n    tag_168:\n        /* \"contracts/token/ERC721/ERC721.sol\":3493:3633  return\r... */\n      swap2\n      pop\n      pop\n        /* \"contracts/token/ERC721/ERC721.sol\":3173:3641  function tokenURI(uint256 tokenId)\r... */\n      swap2\n      swap1\n      pop\n      jump\t// out\n        /* \"contracts/token/ERC721/ERC721.sol\":6249:6463  function isApprovedForAll(address owner, address operator)\r... */\n    tag_82:\n        /* \"contracts/token/ERC721/ERC721.sol\":6391:6395  bool */\n      0x00\n        /* \"contracts/token/ERC721/ERC721.sol\":6420:6438  _operatorApprovals */\n      0x05\n        /* \"contracts/token/ERC721/ERC721.sol\":6420:6445  _operatorApprovals[owner] */\n      0x00\n        /* \"contracts/token/ERC721/ERC721.sol\":6439:6444  owner */\n      dup5\n        /* \"contracts/token/ERC721/ERC721.sol\":6420:6445  _operatorApprovals[owner] */\n      0xffffffffffffffffffffffffffffffffffffffff\n      and\n      0xffffffffffffffffffffffffffffffffffffffff\n      and\n      dup2\n      mstore\n      0x20\n      add\n      swap1\n      dup2\n      mstore\n      0x20\n      add\n      0x00\n      keccak256\n        /* \"contracts/token/ERC721/ERC721.sol\":6420:6455  _operatorApprovals[owner][operator] */\n      0x00\n        /* \"contracts/token/ERC721/ERC721.sol\":6446:6454  operator */\n      dup4\n        /* \"contracts/token/ERC721/ERC721.sol\":6420:6455  _operatorApprovals[owner][operator] */\n      0xffffffffffffffffffffffffffffffffffffffff\n      and\n      0xffffffffffffffffffffffffffffffffffffffff\n      and\n      dup2\n      mstore\n      0x20\n      add\n      swap1\n      dup2\n      mstore\n      0x20\n      add\n      0x00\n      keccak256\n      0x00\n      swap1\n      sload\n      swap1\n      0x0100\n      exp\n      swap1\n      div\n      0xff\n      and\n        /* \"contracts/token/ERC721/ERC721.sol\":6413:6455  return _operatorApprovals[owner][operator] */\n      swap1\n      pop\n        /* \"contracts/token/ERC721/ERC721.sol\":6249:6463  function isApprovedForAll(address owner, address operator)\r... */\n      swap3\n      swap2\n      pop\n      pop\n      jump\t// out\n        /* \"contracts/utils/introspection/ERC165.sol\":854:1061  function supportsInterface(bytes4 interfaceId)\r... */\n    tag_88:\n        /* \"contracts/utils/introspection/ERC165.sol\":984:988  bool */\n      0x00\n        /* \"contracts/utils/introspection/ERC165.sol\":1028:1053  type(IERC165).interfaceId */\n      0x01ffc9a700000000000000000000000000000000000000000000000000000000\n        /* \"contracts/utils/introspection/ERC165.sol\":1013:1053  interfaceId == type(IERC165).interfaceId */\n      not(0xffffffffffffffffffffffffffffffffffffffffffffffffffffffff)\n      and\n        /* \"contracts/utils/introspection/ERC165.sol\":1013:1024  interfaceId */\n      dup3\n        /* \"contracts/utils/introspection/ERC165.sol\":1013:1053  interfaceId == type(IERC165).interfaceId */\n      not(0xffffffffffffffffffffffffffffffffffffffffffffffffffffffff)\n      and\n      eq\n        /* \"contracts/utils/introspection/ERC165.sol\":1006:1053  return interfaceId == type(IERC165).interfaceId */\n      swap1\n      pop\n        /* \"contracts/utils/introspection/ERC165.sol\":854:1061  function supportsInterface(bytes4 interfaceId)\r... */\n      swap2\n      swap1\n      pop\n      jump\t// out\n        /* \"contracts/token/ERC721/ERC721.sol\":13481:13608  function _exists(uint256 tokenId) internal view virtual returns (bool) {\r... */\n    tag_98:\n        /* \"contracts/token/ERC721/ERC721.sol\":13546:13550  bool */\n      0x00\n        /* \"contracts/token/ERC721/ERC721.sol\":13598:13599  0 */\n      dup1\n        /* \"contracts/token/ERC721/ERC721.sol\":13570:13600  _owners[tokenId] != address(0) */\n      0xffffffffffffffffffffffffffffffffffffffff\n      and\n        /* \"contracts/token/ERC721/ERC721.sol\":13570:13577  _owners */\n      0x02\n        /* \"contracts/token/ERC721/ERC721.sol\":13570:13586  _owners[tokenId] */\n      0x00\n        /* \"contracts/token/ERC721/ERC721.sol\":13578:13585  tokenId */\n      dup5\n        /* \"contracts/token/ERC721/ERC721.sol\":13570:13586  _owners[tokenId] */\n      dup2\n      mstore\n      0x20\n      add\n      swap1\n      dup2\n      mstore\n      0x20\n      add\n      0x00\n      keccak256\n      0x00\n      swap1\n      sload\n      swap1\n      0x0100\n      exp\n      swap1\n      div\n      0xffffffffffffffffffffffffffffffffffffffff\n      and\n        /* \"contracts/token/ERC721/ERC721.sol\":13570:13600  _owners[tokenId] != address(0) */\n      0xffffffffffffffffffffffffffffffffffffffff\n      and\n      eq\n      iszero\n        /* \"contracts/token/ERC721/ERC721.sol\":13563:13600  return _owners[tokenId] != address(0) */\n      swap1\n      pop\n        /* \"contracts/token/ERC721/ERC721.sol\":13481:13608  function _exists(uint256 tokenId) internal view virtual returns (bool) {\r... */\n      swap2\n      swap1\n      pop\n      jump\t// out\n        /* \"contracts/utils/Context.sol\":656:754  function _msgSender() internal view virtual returns (address) {\r... */\n    tag_108:\n        /* \"contracts/utils/Context.sol\":709:716  address */\n      0x00\n        /* \"contracts/utils/Context.sol\":736:746  msg.sender */\n      caller\n        /* \"contracts/utils/Context.sol\":729:746  return msg.sender */\n      swap1\n      pop\n        /* \"contracts/utils/Context.sol\":656:754  function _msgSender() internal view virtual returns (address) {\r... */\n      swap1\n      jump\t// out\n        /* \"contracts/token/ERC721/ERC721.sol\":7961:8135  function _approve(address to, uint256 tokenId) internal virtual {\r... */\n    tag_116:\n        /* \"contracts/token/ERC721/ERC721.sol\":8063:8065  to */\n      dup2\n        /* \"contracts/token/ERC721/ERC721.sol\":8036:8051  _tokenApprovals */\n      0x04\n        /* \"contracts/token/ERC721/ERC721.sol\":8036:8060  _tokenApprovals[tokenId] */\n      0x00\n        /* \"contracts/token/ERC721/ERC721.sol\":8052:8059  tokenId */\n      dup4\n        /* \"contracts/token/ERC721/ERC721.sol\":8036:8060  _tokenApprovals[tokenId] */\n      dup2\n      mstore\n      0x20\n      add\n      swap1\n      dup2\n      mstore\n      0x20\n      add\n      0x00\n      keccak256\n      0x00\n        /* \"contracts/token/ERC721/ERC721.sol\":8036:8065  _tokenApprovals[tokenId] = to */\n      0x0100\n      exp\n      dup2\n      sload\n      dup2\n      0xffffffffffffffffffffffffffffffffffffffff\n      mul\n      not\n      and\n      swap1\n      dup4\n      0xffffffffffffffffffffffffffffffffffffffff\n      and\n      mul\n      or\n      swap1\n      sstore\n      pop\n        /* \"contracts/token/ERC721/ERC721.sol\":8119:8126  tokenId */\n      dup1\n        /* \"contracts/token/ERC721/ERC721.sol\":8115:8117  to */\n      dup3\n        /* \"contracts/token/ERC721/ERC721.sol\":8081:8127  Approval(ERC721.ownerOf(tokenId), to, tokenId) */\n      0xffffffffffffffffffffffffffffffffffffffff\n      and\n        /* \"contracts/token/ERC721/ERC721.sol\":8090:8113  ERC721.ownerOf(tokenId) */\n      tag_178\n        /* \"contracts/token/ERC721/ERC721.sol\":8105:8112  tokenId */\n      dup4\n        /* \"contracts/token/ERC721/ERC721.sol\":8090:8104  ERC721.ownerOf */\n      tag_53\n        /* \"contracts/token/ERC721/ERC721.sol\":8090:8113  ERC721.ownerOf(tokenId) */\n      jump\t// in\n    tag_178:\n        /* \"contracts/token/ERC721/ERC721.sol\":8081:8127  Approval(ERC721.ownerOf(tokenId), to, tokenId) */\n      0xffffffffffffffffffffffffffffffffffffffff\n      and\n      0x8c5be1e5ebec7d5bd14f71427d1e84f3dd0314c0f7b2291e5b200ac8c7c3b925\n      mload(0x40)\n      mload(0x40)\n      dup1\n      swap2\n      sub\n      swap1\n      log4\n        /* \"contracts/token/ERC721/ERC721.sol\":7961:8135  function _approve(address to, uint256 tokenId) internal virtual {\r... */\n      pop\n      pop\n      jump\t// out\n        /* \"contracts/token/ERC721/ERC721.sol\":13019:13473  function _isApprovedOrOwner(address spender, uint256 tokenId)\r... */\n    tag_120:\n        /* \"contracts/token/ERC721/ERC721.sol\":13148:13152  bool */\n      0x00\n        /* \"contracts/token/ERC721/ERC721.sol\":13192:13208  _exists(tokenId) */\n      tag_180\n        /* \"contracts/token/ERC721/ERC721.sol\":13200:13207  tokenId */\n      dup3\n        /* \"contracts/token/ERC721/ERC721.sol\":13192:13199  _exists */\n      tag_98\n        /* \"contracts/token/ERC721/ERC721.sol\":13192:13208  _exists(tokenId) */\n      jump\t// in\n    tag_180:\n        /* \"contracts/token/ERC721/ERC721.sol\":13170:13280  require(\r... */\n      tag_181\n      jumpi\n      mload(0x40)\n      0x08c379a000000000000000000000000000000000000000000000000000000000\n      dup2\n      mstore\n      0x04\n      add\n      tag_182\n      swap1\n      tag_183\n      jump\t// in\n    tag_182:\n      mload(0x40)\n      dup1\n      swap2\n      sub\n      swap1\n      revert\n    tag_181:\n        /* \"contracts/token/ERC721/ERC721.sol\":13293:13306  address owner */\n      0x00\n        /* \"contracts/token/ERC721/ERC721.sol\":13309:13332  ERC721.ownerOf(tokenId) */\n      tag_184\n        /* \"contracts/token/ERC721/ERC721.sol\":13324:13331  tokenId */\n      dup4\n        /* \"contracts/token/ERC721/ERC721.sol\":13309:13323  ERC721.ownerOf */\n      tag_53\n        /* \"contracts/token/ERC721/ERC721.sol\":13309:13332  ERC721.ownerOf(tokenId) */\n      jump\t// in\n    tag_184:\n        /* \"contracts/token/ERC721/ERC721.sol\":13293:13332  address owner = ERC721.ownerOf(tokenId) */\n      swap1\n      pop\n        /* \"contracts/token/ERC721/ERC721.sol\":13362:13367  owner */\n      dup1\n        /* \"contracts/token/ERC721/ERC721.sol\":13351:13367  spender == owner */\n      0xffffffffffffffffffffffffffffffffffffffff\n      and\n        /* \"contracts/token/ERC721/ERC721.sol\":13351:13358  spender */\n      dup5\n        /* \"contracts/token/ERC721/ERC721.sol\":13351:13367  spender == owner */\n      0xffffffffffffffffffffffffffffffffffffffff\n      and\n      eq\n        /* \"contracts/token/ERC721/ERC721.sol\":13351:13416  spender == owner ||\r... */\n      dup1\n      tag_185\n      jumpi\n      pop\n        /* \"contracts/token/ERC721/ERC721.sol\":13384:13416  isApprovedForAll(owner, spender) */\n      tag_186\n        /* \"contracts/token/ERC721/ERC721.sol\":13401:13406  owner */\n      dup2\n        /* \"contracts/token/ERC721/ERC721.sol\":13408:13415  spender */\n      dup6\n        /* \"contracts/token/ERC721/ERC721.sol\":13384:13400  isApprovedForAll */\n      tag_82\n        /* \"contracts/token/ERC721/ERC721.sol\":13384:13416  isApprovedForAll(owner, spender) */\n      jump\t// in\n    tag_186:\n        /* \"contracts/token/ERC721/ERC721.sol\":13351:13416  spender == owner ||\r... */\n    tag_185:\n        /* \"contracts/token/ERC721/ERC721.sol\":13351:13464  spender == owner ||\r... */\n      dup1\n      tag_187\n      jumpi\n      pop\n        /* \"contracts/token/ERC721/ERC721.sol\":13457:13464  spender */\n      dup4\n        /* \"contracts/token/ERC721/ERC721.sol\":13433:13464  getApproved(tokenId) == spender */\n      0xffffffffffffffffffffffffffffffffffffffff\n      and\n        /* \"contracts/token/ERC721/ERC721.sol\":13433:13453  getApproved(tokenId) */\n      tag_188\n        /* \"contracts/token/ERC721/ERC721.sol\":13445:13452  tokenId */\n      dup5\n        /* \"contracts/token/ERC721/ERC721.sol\":13433:13444  getApproved */\n      tag_34\n        /* \"contracts/token/ERC721/ERC721.sol\":13433:13453  getApproved(tokenId) */\n      jump\t// in\n    tag_188:\n        /* \"contracts/token/ERC721/ERC721.sol\":13433:13464  getApproved(tokenId) == spender */\n      0xffffffffffffffffffffffffffffffffffffffff\n      and\n      eq\n        /* \"contracts/token/ERC721/ERC721.sol\":13351:13464  spender == owner ||\r... */\n    tag_187:\n        /* \"contracts/token/ERC721/ERC721.sol\":13343:13465  return (spender == owner ||\r... */\n      swap2\n      pop\n      pop\n        /* \"contracts/token/ERC721/ERC721.sol\":13019:13473  function _isApprovedOrOwner(address spender, uint256 tokenId)\r... */\n      swap3\n      swap2\n      pop\n      pop\n      jump\t// out\n        /* \"contracts/token/ERC721/ERC721.sol\":7156:7818  function _transfer(\r... */\n    tag_125:\n        /* \"contracts/token/ERC721/ERC721.sol\":7329:7333  from */\n      dup3\n        /* \"contracts/token/ERC721/ERC721.sol\":7302:7333  ERC721.ownerOf(tokenId) == from */\n      0xffffffffffffffffffffffffffffffffffffffff\n      and\n        /* \"contracts/token/ERC721/ERC721.sol\":7302:7325  ERC721.ownerOf(tokenId) */\n      tag_190\n        /* \"contracts/token/ERC721/ERC721.sol\":7317:7324  tokenId */\n      dup3\n        /* \"contracts/token/ERC721/ERC721.sol\":7302:7316  ERC721.ownerOf */\n      tag_53\n        /* \"contracts/token/ERC721/ERC721.sol\":7302:7325  ERC721.ownerOf(tokenId) */\n      jump\t// in\n    tag_190:\n        /* \"contracts/token/ERC721/ERC721.sol\":7302:7333  ERC721.ownerOf(tokenId) == from */\n      0xffffffffffffffffffffffffffffffffffffffff\n      and\n      eq\n        /* \"contracts/token/ERC721/ERC721.sol\":7280:7398  require(\r... */\n      tag_191\n      jumpi\n      mload(0x40)\n      0x08c379a000000000000000000000000000000000000000000000000000000000\n      dup2\n      mstore\n      0x04\n      add\n      tag_192\n      swap1\n      tag_193\n      jump\t// in\n    tag_192:\n      mload(0x40)\n      dup1\n      swap2\n      sub\n      swap1\n      revert\n    tag_191:\n        /* \"contracts/token/ERC721/ERC721.sol\":7431:7432  0 */\n      0x00\n        /* \"contracts/token/ERC721/ERC721.sol\":7417:7433  to != address(0) */\n      0xffffffffffffffffffffffffffffffffffffffff\n      and\n        /* \"contracts/token/ERC721/ERC721.sol\":7417:7419  to */\n      dup3\n        /* \"contracts/token/ERC721/ERC721.sol\":7417:7433  to != address(0) */\n      0xffffffffffffffffffffffffffffffffffffffff\n      and\n      eq\n      iszero\n        /* \"contracts/token/ERC721/ERC721.sol\":7409:7474  require(to != address(0), \"ERC721: transfer to the zero address\") */\n      tag_194\n      jumpi\n      mload(0x40)\n      0x08c379a000000000000000000000000000000000000000000000000000000000\n      dup2\n      mstore\n      0x04\n      add\n      tag_195\n      swap1\n      tag_196\n      jump\t// in\n    tag_195:\n      mload(0x40)\n      dup1\n      swap2\n      sub\n      swap1\n      revert\n    tag_194:\n        /* \"contracts/token/ERC721/ERC721.sol\":7487:7526  _beforeTokenTransfer(from, to, tokenId) */\n      tag_197\n        /* \"contracts/token/ERC721/ERC721.sol\":7508:7512  from */\n      dup4\n        /* \"contracts/token/ERC721/ERC721.sol\":7514:7516  to */\n      dup4\n        /* \"contracts/token/ERC721/ERC721.sol\":7518:7525  tokenId */\n      dup4\n        /* \"contracts/token/ERC721/ERC721.sol\":7487:7507  _beforeTokenTransfer */\n      tag_198\n        /* \"contracts/token/ERC721/ERC721.sol\":7487:7526  _beforeTokenTransfer(from, to, tokenId) */\n      jump\t// in\n    tag_197:\n        /* \"contracts/token/ERC721/ERC721.sol\":7591:7620  _approve(address(0), tokenId) */\n      tag_199\n        /* \"contracts/token/ERC721/ERC721.sol\":7608:7609  0 */\n      0x00\n        /* \"contracts/token/ERC721/ERC721.sol\":7612:7619  tokenId */\n      dup3\n        /* \"contracts/token/ERC721/ERC721.sol\":7591:7599  _approve */\n      tag_116\n        /* \"contracts/token/ERC721/ERC721.sol\":7591:7620  _approve(address(0), tokenId) */\n      jump\t// in\n    tag_199:\n        /* \"contracts/token/ERC721/ERC721.sol\":7652:7653  1 */\n      0x01\n        /* \"contracts/token/ERC721/ERC721.sol\":7633:7642  _balances */\n      0x03\n        /* \"contracts/token/ERC721/ERC721.sol\":7633:7648  _balances[from] */\n      0x00\n        /* \"contracts/token/ERC721/ERC721.sol\":7643:7647  from */\n      dup6\n        /* \"contracts/token/ERC721/ERC721.sol\":7633:7648  _balances[from] */\n      0xffffffffffffffffffffffffffffffffffffffff\n      and\n      0xffffffffffffffffffffffffffffffffffffffff\n      and\n      dup2\n      mstore\n      0x20\n      add\n      swap1\n      dup2\n      mstore\n      0x20\n      add\n      0x00\n      keccak256\n      0x00\n        /* \"contracts/token/ERC721/ERC721.sol\":7633:7653  _balances[from] -= 1 */\n      dup3\n      dup3\n      sload\n      tag_200\n      swap2\n      swap1\n      tag_201\n      jump\t// in\n    tag_200:\n      swap3\n      pop\n      pop\n      dup2\n      swap1\n      sstore\n      pop\n        /* \"contracts/token/ERC721/ERC721.sol\":7681:7682  1 */\n      0x01\n        /* \"contracts/token/ERC721/ERC721.sol\":7664:7673  _balances */\n      0x03\n        /* \"contracts/token/ERC721/ERC721.sol\":7664:7677  _balances[to] */\n      0x00\n        /* \"contracts/token/ERC721/ERC721.sol\":7674:7676  to */\n      dup5\n        /* \"contracts/token/ERC721/ERC721.sol\":7664:7677  _balances[to] */\n      0xffffffffffffffffffffffffffffffffffffffff\n      and\n      0xffffffffffffffffffffffffffffffffffffffff\n      and\n      dup2\n      mstore\n      0x20\n      add\n      swap1\n      dup2\n      mstore\n      0x20\n      add\n      0x00\n      keccak256\n      0x00\n        /* \"contracts/token/ERC721/ERC721.sol\":7664:7682  _balances[to] += 1 */\n      dup3\n      dup3\n      sload\n      tag_202\n      swap2\n      swap1\n      tag_203\n      jump\t// in\n    tag_202:\n      swap3\n      pop\n      pop\n      dup2\n      swap1\n      sstore\n      pop\n        /* \"contracts/token/ERC721/ERC721.sol\":7712:7714  to */\n      dup2\n        /* \"contracts/token/ERC721/ERC721.sol\":7693:7700  _owners */\n      0x02\n        /* \"contracts/token/ERC721/ERC721.sol\":7693:7709  _owners[tokenId] */\n      0x00\n        /* \"contracts/token/ERC721/ERC721.sol\":7701:7708  tokenId */\n      dup4\n        /* \"contracts/token/ERC721/ERC721.sol\":7693:7709  _owners[tokenId] */\n      dup2\n      mstore\n      0x20\n      add\n      swap1\n      dup2\n      mstore\n      0x20\n      add\n      0x00\n      keccak256\n      0x00\n        /* \"contracts/token/ERC721/ERC721.sol\":7693:7714  _owners[tokenId] = to */\n      0x0100\n      exp\n      dup2\n      sload\n      dup2\n      0xffffffffffffffffffffffffffffffffffffffff\n      mul\n      not\n      and\n      swap1\n      dup4\n      0xffffffffffffffffffffffffffffffffffffffff\n      and\n      mul\n      or\n      swap1\n      sstore\n      pop\n        /* \"contracts/token/ERC721/ERC721.sol\":7751:7758  tokenId */\n      dup1\n        /* \"contracts/token/ERC721/ERC721.sol\":7747:7749  to */\n      dup3\n        /* \"contracts/token/ERC721/ERC721.sol\":7732:7759  Transfer(from, to, tokenId) */\n      0xffffffffffffffffffffffffffffffffffffffff\n      and\n        /* \"contracts/token/ERC721/ERC721.sol\":7741:7745  from */\n      dup5\n        /* \"contracts/token/ERC721/ERC721.sol\":7732:7759  Transfer(from, to, tokenId) */\n      0xffffffffffffffffffffffffffffffffffffffff\n      and\n      0xddf252ad1be2c89b69c2b068fc378daa952ba7f163c4a11628f55a4df523b3ef\n      mload(0x40)\n      mload(0x40)\n      dup1\n      swap2\n      sub\n      swap1\n      log4\n        /* \"contracts/token/ERC721/ERC721.sol\":7772:7810  _afterTokenTransfer(from, to, tokenId) */\n      tag_204\n        /* \"contracts/token/ERC721/ERC721.sol\":7792:7796  from */\n      dup4\n        /* \"contracts/token/ERC721/ERC721.sol\":7798:7800  to */\n      dup4\n        /* \"contracts/token/ERC721/ERC721.sol\":7802:7809  tokenId */\n      dup4\n        /* \"contracts/token/ERC721/ERC721.sol\":7772:7791  _afterTokenTransfer */\n      tag_205\n        /* \"contracts/token/ERC721/ERC721.sol\":7772:7810  _afterTokenTransfer(from, to, tokenId) */\n      jump\t// in\n    tag_204:\n        /* \"contracts/token/ERC721/ERC721.sol\":7156:7818  function _transfer(\r... */\n      pop\n      pop\n      pop\n      jump\t// out\n        /* \"contracts/token/ERC721/ERC721.sol\":15070:15462  function _burn(uint256 tokenId) internal virtual {\r... */\n    tag_130:\n        /* \"contracts/token/ERC721/ERC721.sol\":15130:15143  address owner */\n      0x00\n        /* \"contracts/token/ERC721/ERC721.sol\":15146:15169  ERC721.ownerOf(tokenId) */\n      tag_207\n        /* \"contracts/token/ERC721/ERC721.sol\":15161:15168  tokenId */\n      dup3\n        /* \"contracts/token/ERC721/ERC721.sol\":15146:15160  ERC721.ownerOf */\n      tag_53\n        /* \"contracts/token/ERC721/ERC721.sol\":15146:15169  ERC721.ownerOf(tokenId) */\n      jump\t// in\n    tag_207:\n        /* \"contracts/token/ERC721/ERC721.sol\":15130:15169  address owner = ERC721.ownerOf(tokenId) */\n      swap1\n      pop\n        /* \"contracts/token/ERC721/ERC721.sol\":15182:15230  _beforeTokenTransfer(owner, address(0), tokenId) */\n      tag_208\n        /* \"contracts/token/ERC721/ERC721.sol\":15203:15208  owner */\n      dup2\n        /* \"contracts/token/ERC721/ERC721.sol\":15218:15219  0 */\n      0x00\n        /* \"contracts/token/ERC721/ERC721.sol\":15222:15229  tokenId */\n      dup5\n        /* \"contracts/token/ERC721/ERC721.sol\":15182:15202  _beforeTokenTransfer */\n      tag_198\n        /* \"contracts/token/ERC721/ERC721.sol\":15182:15230  _beforeTokenTransfer(owner, address(0), tokenId) */\n      jump\t// in\n    tag_208:\n        /* \"contracts/token/ERC721/ERC721.sol\":15243:15272  _approve(address(0), tokenId) */\n      tag_209\n        /* \"contracts/token/ERC721/ERC721.sol\":15260:15261  0 */\n      0x00\n        /* \"contracts/token/ERC721/ERC721.sol\":15264:15271  tokenId */\n      dup4\n        /* \"contracts/token/ERC721/ERC721.sol\":15243:15251  _approve */\n      tag_116\n        /* \"contracts/token/ERC721/ERC721.sol\":15243:15272  _approve(address(0), tokenId) */\n      jump\t// in\n    tag_209:\n        /* \"contracts/token/ERC721/ERC721.sol\":15305:15306  1 */\n      0x01\n        /* \"contracts/token/ERC721/ERC721.sol\":15285:15294  _balances */\n      0x03\n        /* \"contracts/token/ERC721/ERC721.sol\":15285:15301  _balances[owner] */\n      0x00\n        /* \"contracts/token/ERC721/ERC721.sol\":15295:15300  owner */\n      dup4\n        /* \"contracts/token/ERC721/ERC721.sol\":15285:15301  _balances[owner] */\n      0xffffffffffffffffffffffffffffffffffffffff\n      and\n      0xffffffffffffffffffffffffffffffffffffffff\n      and\n      dup2\n      mstore\n      0x20\n      add\n      swap1\n      dup2\n      mstore\n      0x20\n      add\n      0x00\n      keccak256\n      0x00\n        /* \"contracts/token/ERC721/ERC721.sol\":15285:15306  _balances[owner] -= 1 */\n      dup3\n      dup3\n      sload\n      tag_210\n      swap2\n      swap1\n      tag_201\n      jump\t// in\n    tag_210:\n      swap3\n      pop\n      pop\n      dup2\n      swap1\n      sstore\n      pop\n        /* \"contracts/token/ERC721/ERC721.sol\":15324:15331  _owners */\n      0x02\n        /* \"contracts/token/ERC721/ERC721.sol\":15324:15340  _owners[tokenId] */\n      0x00\n        /* \"contracts/token/ERC721/ERC721.sol\":15332:15339  tokenId */\n      dup4\n        /* \"contracts/token/ERC721/ERC721.sol\":15324:15340  _owners[tokenId] */\n      dup2\n      mstore\n      0x20\n      add\n      swap1\n      dup2\n      mstore\n      0x20\n      add\n      0x00\n      keccak256\n      0x00\n        /* \"contracts/token/ERC721/ERC721.sol\":15317:15340  delete _owners[tokenId] */\n      0x0100\n      exp\n      dup2\n      sload\n      swap1\n      0xffffffffffffffffffffffffffffffffffffffff\n      mul\n      not\n      and\n      swap1\n      sstore\n        /* \"contracts/token/ERC721/ERC721.sol\":15386:15393  tokenId */\n      dup2\n        /* \"contracts/token/ERC721/ERC721.sol\":15382:15383  0 */\n      0x00\n        /* \"contracts/token/ERC721/ERC721.sol\":15358:15394  Transfer(owner, address(0), tokenId) */\n      0xffffffffffffffffffffffffffffffffffffffff\n      and\n        /* \"contracts/token/ERC721/ERC721.sol\":15367:15372  owner */\n      dup3\n        /* \"contracts/token/ERC721/ERC721.sol\":15358:15394  Transfer(owner, address(0), tokenId) */\n      0xffffffffffffffffffffffffffffffffffffffff\n      and\n      0xddf252ad1be2c89b69c2b068fc378daa952ba7f163c4a11628f55a4df523b3ef\n      mload(0x40)\n      mload(0x40)\n      dup1\n      swap2\n      sub\n      swap1\n      log4\n        /* \"contracts/token/ERC721/ERC721.sol\":15407:15454  _afterTokenTransfer(owner, address(0), tokenId) */\n      tag_211\n        /* \"contracts/token/ERC721/ERC721.sol\":15427:15432  owner */\n      dup2\n        /* \"contracts/token/ERC721/ERC721.sol\":15442:15443  0 */\n      0x00\n        /* \"contracts/token/ERC721/ERC721.sol\":15446:15453  tokenId */\n      dup5\n        /* \"contracts/token/ERC721/ERC721.sol\":15407:15426  _afterTokenTransfer */\n      tag_205\n        /* \"contracts/token/ERC721/ERC721.sol\":15407:15454  _afterTokenTransfer(owner, address(0), tokenId) */\n      jump\t// in\n    tag_211:\n        /* \"contracts/token/ERC721/ERC721.sol\":15119:15462  {\r... */\n      pop\n        /* \"contracts/token/ERC721/ERC721.sol\":15070:15462  function _burn(uint256 tokenId) internal virtual {\r... */\n      pop\n      jump\t// out\n        /* \"contracts/token/ERC721/ERC721.sol\":14435:14545  function _safeMint(address to, uint256 tokenId) internal virtual {\r... */\n    tag_147:\n        /* \"contracts/token/ERC721/ERC721.sol\":14511:14537  _safeMint(to, tokenId, \"\") */\n      tag_213\n        /* \"contracts/token/ERC721/ERC721.sol\":14521:14523  to */\n      dup3\n        /* \"contracts/token/ERC721/ERC721.sol\":14525:14532  tokenId */\n      dup3\n        /* \"contracts/token/ERC721/ERC721.sol\":14511:14537  _safeMint(to, tokenId, \"\") */\n      mload(0x40)\n      dup1\n      0x20\n      add\n      0x40\n      mstore\n      dup1\n      0x00\n      dup2\n      mstore\n      pop\n        /* \"contracts/token/ERC721/ERC721.sol\":14511:14520  _safeMint */\n      tag_214\n        /* \"contracts/token/ERC721/ERC721.sol\":14511:14537  _safeMint(to, tokenId, \"\") */\n      jump\t// in\n    tag_213:\n        /* \"contracts/token/ERC721/ERC721.sol\":14435:14545  function _safeMint(address to, uint256 tokenId) internal virtual {\r... */\n      pop\n      pop\n      jump\t// out\n        /* \"contracts/token/ERC721/ERC721.sol\":5795:6110  function _setApprovalForAll(\r... */\n    tag_151:\n        /* \"contracts/token/ERC721/ERC721.sol\":5950:5958  operator */\n      dup2\n        /* \"contracts/token/ERC721/ERC721.sol\":5941:5958  owner != operator */\n      0xffffffffffffffffffffffffffffffffffffffff\n      and\n        /* \"contracts/token/ERC721/ERC721.sol\":5941:5946  owner */\n      dup4\n        /* \"contracts/token/ERC721/ERC721.sol\":5941:5958  owner != operator */\n      0xffffffffffffffffffffffffffffffffffffffff\n      and\n      eq\n      iszero\n        /* \"contracts/token/ERC721/ERC721.sol\":5933:5988  require(owner != operator, \"ERC721: approve to caller\") */\n      tag_216\n      jumpi\n      mload(0x40)\n      0x08c379a000000000000000000000000000000000000000000000000000000000\n      dup2\n      mstore\n      0x04\n      add\n      tag_217\n      swap1\n      tag_218\n      jump\t// in\n    tag_217:\n      mload(0x40)\n      dup1\n      swap2\n      sub\n      swap1\n      revert\n    tag_216:\n        /* \"contracts/token/ERC721/ERC721.sol\":6037:6045  approved */\n      dup1\n        /* \"contracts/token/ERC721/ERC721.sol\":5999:6017  _operatorApprovals */\n      0x05\n        /* \"contracts/token/ERC721/ERC721.sol\":5999:6024  _operatorApprovals[owner] */\n      0x00\n        /* \"contracts/token/ERC721/ERC721.sol\":6018:6023  owner */\n      dup6\n        /* \"contracts/token/ERC721/ERC721.sol\":5999:6024  _operatorApprovals[owner] */\n      0xffffffffffffffffffffffffffffffffffffffff\n      and\n      0xffffffffffffffffffffffffffffffffffffffff\n      and\n      dup2\n      mstore\n      0x20\n      add\n      swap1\n      dup2\n      mstore\n      0x20\n      add\n      0x00\n      keccak256\n        /* \"contracts/token/ERC721/ERC721.sol\":5999:6034  _operatorApprovals[owner][operator] */\n      0x00\n        /* \"contracts/token/ERC721/ERC721.sol\":6025:6033  operator */\n      dup5\n        /* \"contracts/token/ERC721/ERC721.sol\":5999:6034  _operatorApprovals[owner][operator] */\n      0xffffffffffffffffffffffffffffffffffffffff\n      and\n      0xffffffffffffffffffffffffffffffffffffffff\n      and\n      dup2\n      mstore\n      0x20\n      add\n      swap1\n      dup2\n      mstore\n      0x20\n      add\n      0x00\n      keccak256\n      0x00\n        /* \"contracts/token/ERC721/ERC721.sol\":5999:6045  _operatorApprovals[owner][operator] = approved */\n      0x0100\n      exp\n      dup2\n      sload\n      dup2\n      0xff\n      mul\n      not\n      and\n      swap1\n      dup4\n      iszero\n      iszero\n      mul\n      or\n      swap1\n      sstore\n      pop\n        /* \"contracts/token/ERC721/ERC721.sol\":6083:6091  operator */\n      dup2\n        /* \"contracts/token/ERC721/ERC721.sol\":6061:6102  ApprovalForAll(owner, operator, approved) */\n      0xffffffffffffffffffffffffffffffffffffffff\n      and\n        /* \"contracts/token/ERC721/ERC721.sol\":6076:6081  owner */\n      dup4\n        /* \"contracts/token/ERC721/ERC721.sol\":6061:6102  ApprovalForAll(owner, operator, approved) */\n      0xffffffffffffffffffffffffffffffffffffffff\n      and\n      0x17307eab39ab6107e8899845ad3d59bd9653f200f220920489ca2b5937696c31\n        /* \"contracts/token/ERC721/ERC721.sol\":6093:6101  approved */\n      dup4\n        /* \"contracts/token/ERC721/ERC721.sol\":6061:6102  ApprovalForAll(owner, operator, approved) */\n      mload(0x40)\n      tag_219\n      swap2\n      swap1\n      tag_26\n      jump\t// in\n    tag_219:\n      mload(0x40)\n      dup1\n      swap2\n      sub\n      swap1\n      log3\n        /* \"contracts/token/ERC721/ERC721.sol\":5795:6110  function _setApprovalForAll(\r... */\n      pop\n      pop\n      pop\n      jump\t// out\n        /* \"contracts/token/ERC721/ERC721.sol\":11226:11578  function _safeTransfer(\r... */\n    tag_159:\n        /* \"contracts/token/ERC721/ERC721.sol\":11383:11411  _transfer(from, to, tokenId) */\n      tag_221\n        /* \"contracts/token/ERC721/ERC721.sol\":11393:11397  from */\n      dup5\n        /* \"contracts/token/ERC721/ERC721.sol\":11399:11401  to */\n      dup5\n        /* \"contracts/token/ERC721/ERC721.sol\":11403:11410  tokenId */\n      dup5\n        /* \"contracts/token/ERC721/ERC721.sol\":11383:11392  _transfer */\n      tag_125\n        /* \"contracts/token/ERC721/ERC721.sol\":11383:11411  _transfer(from, to, tokenId) */\n      jump\t// in\n    tag_221:\n        /* \"contracts/token/ERC721/ERC721.sol\":11444:11492  _checkOnERC721Received(from, to, tokenId, _data) */\n      tag_222\n        /* \"contracts/token/ERC721/ERC721.sol\":11467:11471  from */\n      dup5\n        /* \"contracts/token/ERC721/ERC721.sol\":11473:11475  to */\n      dup5\n        /* \"contracts/token/ERC721/ERC721.sol\":11477:11484  tokenId */\n      dup5\n        /* \"contracts/token/ERC721/ERC721.sol\":11486:11491  _data */\n      dup5\n        /* \"contracts/token/ERC721/ERC721.sol\":11444:11466  _checkOnERC721Received */\n      tag_223\n        /* \"contracts/token/ERC721/ERC721.sol\":11444:11492  _checkOnERC721Received(from, to, tokenId, _data) */\n      jump\t// in\n    tag_222:\n        /* \"contracts/token/ERC721/ERC721.sol\":11422:11570  require(\r... */\n      tag_224\n      jumpi\n      mload(0x40)\n      0x08c379a000000000000000000000000000000000000000000000000000000000\n      dup2\n      mstore\n      0x04\n      add\n      tag_225\n      swap1\n      tag_226\n      jump\t// in\n    tag_225:\n      mload(0x40)\n      dup1\n      swap2\n      sub\n      swap1\n      revert\n    tag_224:\n        /* \"contracts/token/ERC721/ERC721.sol\":11226:11578  function _safeTransfer(\r... */\n      pop\n      pop\n      pop\n      pop\n      jump\t// out\n        /* \"contracts/token/ERC721/ERC721.sol\":3903:3997  function _baseURI() internal view virtual returns (string memory) {\r... */\n    tag_166:\n        /* \"contracts/token/ERC721/ERC721.sol\":3954:3967  string memory */\n      0x60\n        /* \"contracts/token/ERC721/ERC721.sol\":3980:3989  return \"\" */\n      mload(0x40)\n      dup1\n      0x20\n      add\n      0x40\n      mstore\n      dup1\n      0x00\n      dup2\n      mstore\n      pop\n      swap1\n      pop\n        /* \"contracts/token/ERC721/ERC721.sol\":3903:3997  function _baseURI() internal view virtual returns (string memory) {\r... */\n      swap1\n      jump\t// out\n        /* \"contracts/utils/Strings.sol\":342:1065  function toString(uint256 value) internal pure returns (string memory) {\r... */\n    tag_170:\n        /* \"contracts/utils/Strings.sol\":398:411  string memory */\n      0x60\n        /* \"contracts/utils/Strings.sol\":628:629  0 */\n      0x00\n        /* \"contracts/utils/Strings.sol\":619:624  value */\n      dup3\n        /* \"contracts/utils/Strings.sol\":619:629  value == 0 */\n      eq\n        /* \"contracts/utils/Strings.sol\":615:668  if (value == 0) {\r... */\n      iszero\n      tag_229\n      jumpi\n        /* \"contracts/utils/Strings.sol\":646:656  return \"0\" */\n      mload(0x40)\n      dup1\n      0x40\n      add\n      0x40\n      mstore\n      dup1\n      0x01\n      dup2\n      mstore\n      0x20\n      add\n      0x3000000000000000000000000000000000000000000000000000000000000000\n      dup2\n      mstore\n      pop\n      swap1\n      pop\n      jump(tag_228)\n        /* \"contracts/utils/Strings.sol\":615:668  if (value == 0) {\r... */\n    tag_229:\n        /* \"contracts/utils/Strings.sol\":678:690  uint256 temp */\n      0x00\n        /* \"contracts/utils/Strings.sol\":693:698  value */\n      dup3\n        /* \"contracts/utils/Strings.sol\":678:698  uint256 temp = value */\n      swap1\n      pop\n        /* \"contracts/utils/Strings.sol\":709:723  uint256 digits */\n      0x00\n        /* \"contracts/utils/Strings.sol\":734:812  while (temp != 0) {\r... */\n    tag_230:\n        /* \"contracts/utils/Strings.sol\":749:750  0 */\n      0x00\n        /* \"contracts/utils/Strings.sol\":741:745  temp */\n      dup3\n        /* \"contracts/utils/Strings.sol\":741:750  temp != 0 */\n      eq\n        /* \"contracts/utils/Strings.sol\":734:812  while (temp != 0) {\r... */\n      tag_231\n      jumpi\n        /* \"contracts/utils/Strings.sol\":767:775  digits++ */\n      dup1\n      dup1\n      tag_232\n      swap1\n      tag_233\n      jump\t// in\n    tag_232:\n      swap2\n      pop\n      pop\n        /* \"contracts/utils/Strings.sol\":798:800  10 */\n      0x0a\n        /* \"contracts/utils/Strings.sol\":790:800  temp /= 10 */\n      dup3\n      tag_234\n      swap2\n      swap1\n      tag_235\n      jump\t// in\n    tag_234:\n      swap2\n      pop\n        /* \"contracts/utils/Strings.sol\":734:812  while (temp != 0) {\r... */\n      jump(tag_230)\n    tag_231:\n        /* \"contracts/utils/Strings.sol\":822:841  bytes memory buffer */\n      0x00\n        /* \"contracts/utils/Strings.sol\":854:860  digits */\n      dup2\n        /* \"contracts/utils/Strings.sol\":844:861  new bytes(digits) */\n      0xffffffffffffffff\n      dup2\n      gt\n      iszero\n      tag_236\n      jumpi\n      tag_237\n      tag_238\n      jump\t// in\n    tag_237:\n    tag_236:\n      mload(0x40)\n      swap1\n      dup1\n      dup3\n      mstore\n      dup1\n      0x1f\n      add\n      not(0x1f)\n      and\n      0x20\n      add\n      dup3\n      add\n      0x40\n      mstore\n      dup1\n      iszero\n      tag_239\n      jumpi\n      dup2\n      0x20\n      add\n      0x01\n      dup3\n      mul\n      dup1\n      calldatasize\n      dup4\n      calldatacopy\n      dup1\n      dup3\n      add\n      swap2\n      pop\n      pop\n      swap1\n      pop\n    tag_239:\n      pop\n        /* \"contracts/utils/Strings.sol\":822:861  bytes memory buffer = new bytes(digits) */\n      swap1\n      pop\n        /* \"contracts/utils/Strings.sol\":872:1026  while (value != 0) {\r... */\n    tag_240:\n        /* \"contracts/utils/Strings.sol\":888:889  0 */\n      0x00\n        /* \"contracts/utils/Strings.sol\":879:884  value */\n      dup6\n        /* \"contracts/utils/Strings.sol\":879:889  value != 0 */\n      eq\n        /* \"contracts/utils/Strings.sol\":872:1026  while (value != 0) {\r... */\n      tag_241\n      jumpi\n        /* \"contracts/utils/Strings.sol\":916:917  1 */\n      0x01\n        /* \"contracts/utils/Strings.sol\":906:917  digits -= 1 */\n      dup3\n      tag_242\n      swap2\n      swap1\n      tag_201\n      jump\t// in\n    tag_242:\n      swap2\n      pop\n        /* \"contracts/utils/Strings.sol\":983:985  10 */\n      0x0a\n        /* \"contracts/utils/Strings.sol\":975:980  value */\n      dup6\n        /* \"contracts/utils/Strings.sol\":975:985  value % 10 */\n      tag_243\n      swap2\n      swap1\n      tag_244\n      jump\t// in\n    tag_243:\n        /* \"contracts/utils/Strings.sol\":962:964  48 */\n      0x30\n        /* \"contracts/utils/Strings.sol\":962:986  48 + uint256(value % 10) */\n      tag_245\n      swap2\n      swap1\n      tag_203\n      jump\t// in\n    tag_245:\n        /* \"contracts/utils/Strings.sol\":949:988  bytes1(uint8(48 + uint256(value % 10))) */\n      0xf8\n      shl\n        /* \"contracts/utils/Strings.sol\":932:938  buffer */\n      dup2\n        /* \"contracts/utils/Strings.sol\":939:945  digits */\n      dup4\n        /* \"contracts/utils/Strings.sol\":932:946  buffer[digits] */\n      dup2\n      mload\n      dup2\n      lt\n      tag_246\n      jumpi\n      tag_247\n      tag_248\n      jump\t// in\n    tag_247:\n    tag_246:\n      0x20\n      add\n      add\n        /* \"contracts/utils/Strings.sol\":932:988  buffer[digits] = bytes1(uint8(48 + uint256(value % 10))) */\n      swap1\n      not(0xffffffffffffffffffffffffffffffffffffffffffffffffffffffffffffff)\n      and\n      swap1\n      dup2\n      0x00\n      byte\n      swap1\n      mstore8\n      pop\n        /* \"contracts/utils/Strings.sol\":1012:1014  10 */\n      0x0a\n        /* \"contracts/utils/Strings.sol\":1003:1014  value /= 10 */\n      dup6\n      tag_249\n      swap2\n      swap1\n      tag_235\n      jump\t// in\n    tag_249:\n      swap5\n      pop\n        /* \"contracts/utils/Strings.sol\":872:1026  while (value != 0) {\r... */\n      jump(tag_240)\n    tag_241:\n        /* \"contracts/utils/Strings.sol\":1050:1056  buffer */\n      dup1\n        /* \"contracts/utils/Strings.sol\":1036:1057  return string(buffer) */\n      swap4\n      pop\n      pop\n      pop\n      pop\n        /* \"contracts/utils/Strings.sol\":342:1065  function toString(uint256 value) internal pure returns (string memory) {\r... */\n    tag_228:\n      swap2\n      swap1\n      pop\n      jump\t// out\n        /* \"contracts/token/ERC721/ERC721.sol\":8619:8745  function _beforeTokenTransfer(\r... */\n    tag_198:\n      pop\n      pop\n      pop\n      jump\t// out\n        /* \"contracts/token/ERC721/ERC721.sol\":8992:9117  function _afterTokenTransfer(\r... */\n    tag_205:\n      pop\n      pop\n      pop\n      jump\t// out\n        /* \"contracts/token/ERC721/ERC721.sol\":14553:14874  function _safeMint(\r... */\n    tag_214:\n        /* \"contracts/token/ERC721/ERC721.sol\":14683:14701  _mint(to, tokenId) */\n      tag_253\n        /* \"contracts/token/ERC721/ERC721.sol\":14689:14691  to */\n      dup4\n        /* \"contracts/token/ERC721/ERC721.sol\":14693:14700  tokenId */\n      dup4\n        /* \"contracts/token/ERC721/ERC721.sol\":14683:14688  _mint */\n      tag_254\n        /* \"contracts/token/ERC721/ERC721.sol\":14683:14701  _mint(to, tokenId) */\n      jump\t// in\n    tag_253:\n        /* \"contracts/token/ERC721/ERC721.sol\":14734:14788  _checkOnERC721Received(address(0), to, tokenId, _data) */\n      tag_255\n        /* \"contracts/token/ERC721/ERC721.sol\":14765:14766  0 */\n      0x00\n        /* \"contracts/token/ERC721/ERC721.sol\":14769:14771  to */\n      dup5\n        /* \"contracts/token/ERC721/ERC721.sol\":14773:14780  tokenId */\n      dup5\n        /* \"contracts/token/ERC721/ERC721.sol\":14782:14787  _data */\n      dup5\n        /* \"contracts/token/ERC721/ERC721.sol\":14734:14756  _checkOnERC721Received */\n      tag_223\n        /* \"contracts/token/ERC721/ERC721.sol\":14734:14788  _checkOnERC721Received(address(0), to, tokenId, _data) */\n      jump\t// in\n    tag_255:\n        /* \"contracts/token/ERC721/ERC721.sol\":14712:14866  require(\r... */\n      tag_256\n      jumpi\n      mload(0x40)\n      0x08c379a000000000000000000000000000000000000000000000000000000000\n      dup2\n      mstore\n      0x04\n      add\n      tag_257\n      swap1\n      tag_226\n      jump\t// in\n    tag_257:\n      mload(0x40)\n      dup1\n      swap2\n      sub\n      swap1\n      revert\n    tag_256:\n        /* \"contracts/token/ERC721/ERC721.sol\":14553:14874  function _safeMint(\r... */\n      pop\n      pop\n      pop\n      jump\t// out\n        /* \"contracts/token/ERC721/ERC721.sol\":11820:12800  function _checkOnERC721Received(\r... */\n    tag_223:\n        /* \"contracts/token/ERC721/ERC721.sol\":11975:11979  bool */\n      0x00\n        /* \"contracts/token/ERC721/ERC721.sol\":11996:12011  to.isContract() */\n      tag_259\n        /* \"contracts/token/ERC721/ERC721.sol\":11996:11998  to */\n      dup5\n        /* \"contracts/token/ERC721/ERC721.sol\":11996:12009  to.isContract */\n      0xffffffffffffffffffffffffffffffffffffffff\n      and\n      tag_260\n        /* \"contracts/token/ERC721/ERC721.sol\":11996:12011  to.isContract() */\n      jump\t// in\n    tag_259:\n        /* \"contracts/token/ERC721/ERC721.sol\":11992:12793  if (to.isContract()) {\r... */\n      iszero\n      tag_261\n      jumpi\n        /* \"contracts/token/ERC721/ERC721.sol\":12065:12067  to */\n      dup4\n        /* \"contracts/token/ERC721/ERC721.sol\":12049:12085  IERC721Receiver(to).onERC721Received */\n      0xffffffffffffffffffffffffffffffffffffffff\n      and\n      0x150b7a02\n        /* \"contracts/token/ERC721/ERC721.sol\":12108:12120  _msgSender() */\n      tag_262\n        /* \"contracts/token/ERC721/ERC721.sol\":12108:12118  _msgSender */\n      tag_108\n        /* \"contracts/token/ERC721/ERC721.sol\":12108:12120  _msgSender() */\n      jump\t// in\n    tag_262:\n        /* \"contracts/token/ERC721/ERC721.sol\":12143:12147  from */\n      dup8\n        /* \"contracts/token/ERC721/ERC721.sol\":12170:12177  tokenId */\n      dup7\n        /* \"contracts/token/ERC721/ERC721.sol\":12200:12205  _data */\n      dup7\n        /* \"contracts/token/ERC721/ERC721.sol\":12049:12224  IERC721Receiver(to).onERC721Received(\r... */\n      mload(0x40)\n      dup6\n      0xffffffff\n      and\n      0xe0\n      shl\n      dup2\n      mstore\n      0x04\n      add\n      tag_263\n      swap5\n      swap4\n      swap3\n      swap2\n      swap1\n      tag_264\n      jump\t// in\n    tag_263:\n      0x20\n      mload(0x40)\n      dup1\n      dup4\n      sub\n      dup2\n      0x00\n      dup8\n      dup1\n      extcodesize\n      iszero\n      dup1\n      iszero\n      tag_265\n      jumpi\n      0x00\n      dup1\n      revert\n    tag_265:\n      pop\n      gas\n      call\n      swap3\n      pop\n      pop\n      pop\n      dup1\n      iszero\n      tag_266\n      jumpi\n      pop\n      mload(0x40)\n      returndatasize\n      not(0x1f)\n      0x1f\n      dup3\n      add\n      and\n      dup3\n      add\n      dup1\n      0x40\n      mstore\n      pop\n      dup2\n      add\n      swap1\n      tag_267\n      swap2\n      swap1\n      tag_268\n      jump\t// in\n    tag_267:\n      0x01\n    tag_266:\n        /* \"contracts/token/ERC721/ERC721.sol\":12028:12738  try\r... */\n      tag_269\n      jumpi\n      returndatasize\n      dup1\n      0x00\n      dup2\n      eq\n      tag_274\n      jumpi\n      mload(0x40)\n      swap2\n      pop\n      and(add(returndatasize, 0x3f), not(0x1f))\n      dup3\n      add\n      0x40\n      mstore\n      returndatasize\n      dup3\n      mstore\n      returndatasize\n      0x00\n      0x20\n      dup5\n      add\n      returndatacopy\n      jump(tag_273)\n    tag_274:\n      0x60\n      swap2\n      pop\n    tag_273:\n      pop\n        /* \"contracts/token/ERC721/ERC721.sol\":12424:12425  0 */\n      0x00\n        /* \"contracts/token/ERC721/ERC721.sol\":12407:12413  reason */\n      dup2\n        /* \"contracts/token/ERC721/ERC721.sol\":12407:12420  reason.length */\n      mload\n        /* \"contracts/token/ERC721/ERC721.sol\":12407:12425  reason.length == 0 */\n      eq\n        /* \"contracts/token/ERC721/ERC721.sol\":12403:12723  if (reason.length == 0) {\r... */\n      iszero\n      tag_275\n      jumpi\n        /* \"contracts/token/ERC721/ERC721.sol\":12450:12558  revert(\r... */\n      mload(0x40)\n      0x08c379a000000000000000000000000000000000000000000000000000000000\n      dup2\n      mstore\n      0x04\n      add\n      tag_276\n      swap1\n      tag_226\n      jump\t// in\n    tag_276:\n      mload(0x40)\n      dup1\n      swap2\n      sub\n      swap1\n      revert\n        /* \"contracts/token/ERC721/ERC721.sol\":12403:12723  if (reason.length == 0) {\r... */\n    tag_275:\n        /* \"contracts/token/ERC721/ERC721.sol\":12673:12679  reason */\n      dup1\n        /* \"contracts/token/ERC721/ERC721.sol\":12667:12680  mload(reason) */\n      mload\n        /* \"contracts/token/ERC721/ERC721.sol\":12658:12664  reason */\n      dup2\n        /* \"contracts/token/ERC721/ERC721.sol\":12654:12656  32 */\n      0x20\n        /* \"contracts/token/ERC721/ERC721.sol\":12650:12665  add(32, reason) */\n      add\n        /* \"contracts/token/ERC721/ERC721.sol\":12643:12681  revert(add(32, reason), mload(reason)) */\n      revert\n        /* \"contracts/token/ERC721/ERC721.sol\":12028:12738  try\r... */\n    tag_269:\n        /* \"contracts/token/ERC721/ERC721.sol\":12298:12339  IERC721Receiver.onERC721Received.selector */\n      shl(0xe0, 0x150b7a02)\n        /* \"contracts/token/ERC721/ERC721.sol\":12288:12339  retval == IERC721Receiver.onERC721Received.selector */\n      not(0xffffffffffffffffffffffffffffffffffffffffffffffffffffffff)\n      and\n        /* \"contracts/token/ERC721/ERC721.sol\":12288:12294  retval */\n      dup2\n        /* \"contracts/token/ERC721/ERC721.sol\":12288:12339  retval == IERC721Receiver.onERC721Received.selector */\n      not(0xffffffffffffffffffffffffffffffffffffffffffffffffffffffff)\n      and\n      eq\n        /* \"contracts/token/ERC721/ERC721.sol\":12281:12339  return retval == IERC721Receiver.onERC721Received.selector */\n      swap2\n      pop\n      pop\n      jump(tag_258)\n        /* \"contracts/token/ERC721/ERC721.sol\":11992:12793  if (to.isContract()) {\r... */\n    tag_261:\n        /* \"contracts/token/ERC721/ERC721.sol\":12777:12781  true */\n      0x01\n        /* \"contracts/token/ERC721/ERC721.sol\":12770:12781  return true */\n      swap1\n      pop\n        /* \"contracts/token/ERC721/ERC721.sol\":11820:12800  function _checkOnERC721Received(\r... */\n    tag_258:\n      swap5\n      swap4\n      pop\n      pop\n      pop\n      pop\n      jump\t// out\n        /* \"contracts/token/ERC721/ERC721.sol\":13988:14427  function _mint(address to, uint256 tokenId) internal virtual {\r... */\n    tag_254:\n        /* \"contracts/token/ERC721/ERC721.sol\":14082:14083  0 */\n      0x00\n        /* \"contracts/token/ERC721/ERC721.sol\":14068:14084  to != address(0) */\n      0xffffffffffffffffffffffffffffffffffffffff\n      and\n        /* \"contracts/token/ERC721/ERC721.sol\":14068:14070  to */\n      dup3\n        /* \"contracts/token/ERC721/ERC721.sol\":14068:14084  to != address(0) */\n      0xffffffffffffffffffffffffffffffffffffffff\n      and\n      eq\n      iszero\n        /* \"contracts/token/ERC721/ERC721.sol\":14060:14121  require(to != address(0), \"ERC721: mint to the zero address\") */\n      tag_281\n      jumpi\n      mload(0x40)\n      0x08c379a000000000000000000000000000000000000000000000000000000000\n      dup2\n      mstore\n      0x04\n      add\n      tag_282\n      swap1\n      tag_283\n      jump\t// in\n    tag_282:\n      mload(0x40)\n      dup1\n      swap2\n      sub\n      swap1\n      revert\n    tag_281:\n        /* \"contracts/token/ERC721/ERC721.sol\":14141:14157  _exists(tokenId) */\n      tag_284\n        /* \"contracts/token/ERC721/ERC721.sol\":14149:14156  tokenId */\n      dup2\n        /* \"contracts/token/ERC721/ERC721.sol\":14141:14148  _exists */\n      tag_98\n        /* \"contracts/token/ERC721/ERC721.sol\":14141:14157  _exists(tokenId) */\n      jump\t// in\n    tag_284:\n        /* \"contracts/token/ERC721/ERC721.sol\":14140:14157  !_exists(tokenId) */\n      iszero\n        /* \"contracts/token/ERC721/ERC721.sol\":14132:14190  require(!_exists(tokenId), \"ERC721: token already minted\") */\n      tag_285\n      jumpi\n      mload(0x40)\n      0x08c379a000000000000000000000000000000000000000000000000000000000\n      dup2\n      mstore\n      0x04\n      add\n      tag_286\n      swap1\n      tag_287\n      jump\t// in\n    tag_286:\n      mload(0x40)\n      dup1\n      swap2\n      sub\n      swap1\n      revert\n    tag_285:\n        /* \"contracts/token/ERC721/ERC721.sol\":14203:14248  _beforeTokenTransfer(address(0), to, tokenId) */\n      tag_288\n        /* \"contracts/token/ERC721/ERC721.sol\":14232:14233  0 */\n      0x00\n        /* \"contracts/token/ERC721/ERC721.sol\":14236:14238  to */\n      dup4\n        /* \"contracts/token/ERC721/ERC721.sol\":14240:14247  tokenId */\n      dup4\n        /* \"contracts/token/ERC721/ERC721.sol\":14203:14223  _beforeTokenTransfer */\n      tag_198\n        /* \"contracts/token/ERC721/ERC721.sol\":14203:14248  _beforeTokenTransfer(address(0), to, tokenId) */\n      jump\t// in\n    tag_288:\n        /* \"contracts/token/ERC721/ERC721.sol\":14278:14279  1 */\n      0x01\n        /* \"contracts/token/ERC721/ERC721.sol\":14261:14270  _balances */\n      0x03\n        /* \"contracts/token/ERC721/ERC721.sol\":14261:14274  _balances[to] */\n      0x00\n        /* \"contracts/token/ERC721/ERC721.sol\":14271:14273  to */\n      dup5\n        /* \"contracts/token/ERC721/ERC721.sol\":14261:14274  _balances[to] */\n      0xffffffffffffffffffffffffffffffffffffffff\n      and\n      0xffffffffffffffffffffffffffffffffffffffff\n      and\n      dup2\n      mstore\n      0x20\n      add\n      swap1\n      dup2\n      mstore\n      0x20\n      add\n      0x00\n      keccak256\n      0x00\n        /* \"contracts/token/ERC721/ERC721.sol\":14261:14279  _balances[to] += 1 */\n      dup3\n      dup3\n      sload\n      tag_289\n      swap2\n      swap1\n      tag_203\n      jump\t// in\n    tag_289:\n      swap3\n      pop\n      pop\n      dup2\n      swap1\n      sstore\n      pop\n        /* \"contracts/token/ERC721/ERC721.sol\":14309:14311  to */\n      dup2\n        /* \"contracts/token/ERC721/ERC721.sol\":14290:14297  _owners */\n      0x02\n        /* \"contracts/token/ERC721/ERC721.sol\":14290:14306  _owners[tokenId] */\n      0x00\n        /* \"contracts/token/ERC721/ERC721.sol\":14298:14305  tokenId */\n      dup4\n        /* \"contracts/token/ERC721/ERC721.sol\":14290:14306  _owners[tokenId] */\n      dup2\n      mstore\n      0x20\n      add\n      swap1\n      dup2\n      mstore\n      0x20\n      add\n      0x00\n      keccak256\n      0x00\n        /* \"contracts/token/ERC721/ERC721.sol\":14290:14311  _owners[tokenId] = to */\n      0x0100\n      exp\n      dup2\n      sload\n      dup2\n      0xffffffffffffffffffffffffffffffffffffffff\n      mul\n      not\n      and\n      swap1\n      dup4\n      0xffffffffffffffffffffffffffffffffffffffff\n      and\n      mul\n      or\n      swap1\n      sstore\n      pop\n        /* \"contracts/token/ERC721/ERC721.sol\":14354:14361  tokenId */\n      dup1\n        /* \"contracts/token/ERC721/ERC721.sol\":14350:14352  to */\n      dup3\n        /* \"contracts/token/ERC721/ERC721.sol\":14329:14362  Transfer(address(0), to, tokenId) */\n      0xffffffffffffffffffffffffffffffffffffffff\n      and\n        /* \"contracts/token/ERC721/ERC721.sol\":14346:14347  0 */\n      0x00\n        /* \"contracts/token/ERC721/ERC721.sol\":14329:14362  Transfer(address(0), to, tokenId) */\n      0xffffffffffffffffffffffffffffffffffffffff\n      and\n      0xddf252ad1be2c89b69c2b068fc378daa952ba7f163c4a11628f55a4df523b3ef\n      mload(0x40)\n      mload(0x40)\n      dup1\n      swap2\n      sub\n      swap1\n      log4\n        /* \"contracts/token/ERC721/ERC721.sol\":14375:14419  _afterTokenTransfer(address(0), to, tokenId) */\n      tag_290\n        /* \"contracts/token/ERC721/ERC721.sol\":14403:14404  0 */\n      0x00\n        /* \"contracts/token/ERC721/ERC721.sol\":14407:14409  to */\n      dup4\n        /* \"contracts/token/ERC721/ERC721.sol\":14411:14418  tokenId */\n      dup4\n        /* \"contracts/token/ERC721/ERC721.sol\":14375:14394  _afterTokenTransfer */\n      tag_205\n        /* \"contracts/token/ERC721/ERC721.sol\":14375:14419  _afterTokenTransfer(address(0), to, tokenId) */\n      jump\t// in\n    tag_290:\n        /* \"contracts/token/ERC721/ERC721.sol\":13988:14427  function _mint(address to, uint256 tokenId) internal virtual {\r... */\n      pop\n      pop\n      jump\t// out\n        /* \"contracts/utils/Address.sol\":797:1184  function isContract(address account) internal view returns (bool) {\r... */\n    tag_260:\n        /* \"contracts/utils/Address.sol\":857:861  bool */\n      0x00\n        /* \"contracts/utils/Address.sol\":1065:1077  uint256 size */\n      dup1\n        /* \"contracts/utils/Address.sol\":1132:1139  account */\n      dup3\n        /* \"contracts/utils/Address.sol\":1120:1140  extcodesize(account) */\n      extcodesize\n        /* \"contracts/utils/Address.sol\":1112:1140  size := extcodesize(account) */\n      swap1\n      pop\n        /* \"contracts/utils/Address.sol\":1175:1176  0 */\n      0x00\n        /* \"contracts/utils/Address.sol\":1168:1172  size */\n      dup2\n        /* \"contracts/utils/Address.sol\":1168:1176  size > 0 */\n      gt\n        /* \"contracts/utils/Address.sol\":1161:1176  return size > 0 */\n      swap2\n      pop\n      pop\n        /* \"contracts/utils/Address.sol\":797:1184  function isContract(address account) internal view returns (bool) {\r... */\n      swap2\n      swap1\n      pop\n      jump\t// out\n        /* \"#utility.yul\":7:417   */\n    tag_293:\n        /* \"#utility.yul\":84:89   */\n      0x00\n        /* \"#utility.yul\":109:174   */\n      tag_295\n        /* \"#utility.yul\":125:173   */\n      tag_296\n        /* \"#utility.yul\":166:172   */\n      dup5\n        /* \"#utility.yul\":125:173   */\n      tag_297\n      jump\t// in\n    tag_296:\n        /* \"#utility.yul\":109:174   */\n      tag_298\n      jump\t// in\n    tag_295:\n        /* \"#utility.yul\":100:174   */\n      swap1\n      pop\n        /* \"#utility.yul\":197:203   */\n      dup3\n        /* \"#utility.yul\":190:195   */\n      dup2\n        /* \"#utility.yul\":183:204   */\n      mstore\n        /* \"#utility.yul\":235:239   */\n      0x20\n        /* \"#utility.yul\":228:233   */\n      dup2\n        /* \"#utility.yul\":224:240   */\n      add\n        /* \"#utility.yul\":273:276   */\n      dup5\n        /* \"#utility.yul\":264:270   */\n      dup5\n        /* \"#utility.yul\":259:262   */\n      dup5\n        /* \"#utility.yul\":255:271   */\n      add\n        /* \"#utility.yul\":252:277   */\n      gt\n        /* \"#utility.yul\":249:361   */\n      iszero\n      tag_299\n      jumpi\n        /* \"#utility.yul\":280:359   */\n      tag_300\n      tag_301\n      jump\t// in\n    tag_300:\n        /* \"#utility.yul\":249:361   */\n    tag_299:\n        /* \"#utility.yul\":370:411   */\n      tag_302\n        /* \"#utility.yul\":404:410   */\n      dup5\n        /* \"#utility.yul\":399:402   */\n      dup3\n        /* \"#utility.yul\":394:397   */\n      dup6\n        /* \"#utility.yul\":370:411   */\n      tag_303\n      jump\t// in\n    tag_302:\n        /* \"#utility.yul\":90:417   */\n      pop\n        /* \"#utility.yul\":7:417   */\n      swap4\n      swap3\n      pop\n      pop\n      pop\n      jump\t// out\n        /* \"#utility.yul\":423:562   */\n    tag_304:\n        /* \"#utility.yul\":469:474   */\n      0x00\n        /* \"#utility.yul\":507:513   */\n      dup2\n        /* \"#utility.yul\":494:514   */\n      calldataload\n        /* \"#utility.yul\":485:514   */\n      swap1\n      pop\n        /* \"#utility.yul\":523:556   */\n      tag_306\n        /* \"#utility.yul\":550:555   */\n      dup2\n        /* \"#utility.yul\":523:556   */\n      tag_307\n      jump\t// in\n    tag_306:\n        /* \"#utility.yul\":423:562   */\n      swap3\n      swap2\n      pop\n      pop\n      jump\t// out\n        /* \"#utility.yul\":568:701   */\n    tag_308:\n        /* \"#utility.yul\":611:616   */\n      0x00\n        /* \"#utility.yul\":649:655   */\n      dup2\n        /* \"#utility.yul\":636:656   */\n      calldataload\n        /* \"#utility.yul\":627:656   */\n      swap1\n      pop\n        /* \"#utility.yul\":665:695   */\n      tag_310\n        /* \"#utility.yul\":689:694   */\n      dup2\n        /* \"#utility.yul\":665:695   */\n      tag_311\n      jump\t// in\n    tag_310:\n        /* \"#utility.yul\":568:701   */\n      swap3\n      swap2\n      pop\n      pop\n      jump\t// out\n        /* \"#utility.yul\":707:844   */\n    tag_312:\n        /* \"#utility.yul\":752:757   */\n      0x00\n        /* \"#utility.yul\":790:796   */\n      dup2\n        /* \"#utility.yul\":777:797   */\n      calldataload\n        /* \"#utility.yul\":768:797   */\n      swap1\n      pop\n        /* \"#utility.yul\":806:838   */\n      tag_314\n        /* \"#utility.yul\":832:837   */\n      dup2\n        /* \"#utility.yul\":806:838   */\n      tag_315\n      jump\t// in\n    tag_314:\n        /* \"#utility.yul\":707:844   */\n      swap3\n      swap2\n      pop\n      pop\n      jump\t// out\n        /* \"#utility.yul\":850:991   */\n    tag_316:\n        /* \"#utility.yul\":906:911   */\n      0x00\n        /* \"#utility.yul\":937:943   */\n      dup2\n        /* \"#utility.yul\":931:944   */\n      mload\n        /* \"#utility.yul\":922:944   */\n      swap1\n      pop\n        /* \"#utility.yul\":953:985   */\n      tag_318\n        /* \"#utility.yul\":979:984   */\n      dup2\n        /* \"#utility.yul\":953:985   */\n      tag_315\n      jump\t// in\n    tag_318:\n        /* \"#utility.yul\":850:991   */\n      swap3\n      swap2\n      pop\n      pop\n      jump\t// out\n        /* \"#utility.yul\":1010:1348   */\n    tag_319:\n        /* \"#utility.yul\":1065:1070   */\n      0x00\n        /* \"#utility.yul\":1114:1117   */\n      dup3\n        /* \"#utility.yul\":1107:1111   */\n      0x1f\n        /* \"#utility.yul\":1099:1105   */\n      dup4\n        /* \"#utility.yul\":1095:1112   */\n      add\n        /* \"#utility.yul\":1091:1118   */\n      slt\n        /* \"#utility.yul\":1081:1203   */\n      tag_321\n      jumpi\n        /* \"#utility.yul\":1122:1201   */\n      tag_322\n      tag_323\n      jump\t// in\n    tag_322:\n        /* \"#utility.yul\":1081:1203   */\n    tag_321:\n        /* \"#utility.yul\":1239:1245   */\n      dup2\n        /* \"#utility.yul\":1226:1246   */\n      calldataload\n        /* \"#utility.yul\":1264:1342   */\n      tag_324\n        /* \"#utility.yul\":1338:1341   */\n      dup5\n        /* \"#utility.yul\":1330:1336   */\n      dup3\n        /* \"#utility.yul\":1323:1327   */\n      0x20\n        /* \"#utility.yul\":1315:1321   */\n      dup7\n        /* \"#utility.yul\":1311:1328   */\n      add\n        /* \"#utility.yul\":1264:1342   */\n      tag_293\n      jump\t// in\n    tag_324:\n        /* \"#utility.yul\":1255:1342   */\n      swap2\n      pop\n        /* \"#utility.yul\":1071:1348   */\n      pop\n        /* \"#utility.yul\":1010:1348   */\n      swap3\n      swap2\n      pop\n      pop\n      jump\t// out\n        /* \"#utility.yul\":1354:1493   */\n    tag_325:\n        /* \"#utility.yul\":1400:1405   */\n      0x00\n        /* \"#utility.yul\":1438:1444   */\n      dup2\n        /* \"#utility.yul\":1425:1445   */\n      calldataload\n        /* \"#utility.yul\":1416:1445   */\n      swap1\n      pop\n        /* \"#utility.yul\":1454:1487   */\n      tag_327\n        /* \"#utility.yul\":1481:1486   */\n      dup2\n        /* \"#utility.yul\":1454:1487   */\n      tag_328\n      jump\t// in\n    tag_327:\n        /* \"#utility.yul\":1354:1493   */\n      swap3\n      swap2\n      pop\n      pop\n      jump\t// out\n        /* \"#utility.yul\":1499:1828   */\n    tag_57:\n        /* \"#utility.yul\":1558:1564   */\n      0x00\n        /* \"#utility.yul\":1607:1609   */\n      0x20\n        /* \"#utility.yul\":1595:1604   */\n      dup3\n        /* \"#utility.yul\":1586:1593   */\n      dup5\n        /* \"#utility.yul\":1582:1605   */\n      sub\n        /* \"#utility.yul\":1578:1610   */\n      slt\n        /* \"#utility.yul\":1575:1694   */\n      iszero\n      tag_330\n      jumpi\n        /* \"#utility.yul\":1613:1692   */\n      tag_331\n      tag_332\n      jump\t// in\n    tag_331:\n        /* \"#utility.yul\":1575:1694   */\n    tag_330:\n        /* \"#utility.yul\":1733:1734   */\n      0x00\n        /* \"#utility.yul\":1758:1811   */\n      tag_333\n        /* \"#utility.yul\":1803:1810   */\n      dup5\n        /* \"#utility.yul\":1794:1800   */\n      dup3\n        /* \"#utility.yul\":1783:1792   */\n      dup6\n        /* \"#utility.yul\":1779:1801   */\n      add\n        /* \"#utility.yul\":1758:1811   */\n      tag_304\n      jump\t// in\n    tag_333:\n        /* \"#utility.yul\":1748:1811   */\n      swap2\n      pop\n        /* \"#utility.yul\":1704:1821   */\n      pop\n        /* \"#utility.yul\":1499:1828   */\n      swap3\n      swap2\n      pop\n      pop\n      jump\t// out\n        /* \"#utility.yul\":1834:2308   */\n    tag_81:\n        /* \"#utility.yul\":1902:1908   */\n      0x00\n        /* \"#utility.yul\":1910:1916   */\n      dup1\n        /* \"#utility.yul\":1959:1961   */\n      0x40\n        /* \"#utility.yul\":1947:1956   */\n      dup4\n        /* \"#utility.yul\":1938:1945   */\n      dup6\n        /* \"#utility.yul\":1934:1957   */\n      sub\n        /* \"#utility.yul\":1930:1962   */\n      slt\n        /* \"#utility.yul\":1927:2046   */\n      iszero\n      tag_335\n      jumpi\n        /* \"#utility.yul\":1965:2044   */\n      tag_336\n      tag_332\n      jump\t// in\n    tag_336:\n        /* \"#utility.yul\":1927:2046   */\n    tag_335:\n        /* \"#utility.yul\":2085:2086   */\n      0x00\n        /* \"#utility.yul\":2110:2163   */\n      tag_337\n        /* \"#utility.yul\":2155:2162   */\n      dup6\n        /* \"#utility.yul\":2146:2152   */\n      dup3\n        /* \"#utility.yul\":2135:2144   */\n      dup7\n        /* \"#utility.yul\":2131:2153   */\n      add\n        /* \"#utility.yul\":2110:2163   */\n      tag_304\n      jump\t// in\n    tag_337:\n        /* \"#utility.yul\":2100:2163   */\n      swap3\n      pop\n        /* \"#utility.yul\":2056:2173   */\n      pop\n        /* \"#utility.yul\":2212:2214   */\n      0x20\n        /* \"#utility.yul\":2238:2291   */\n      tag_338\n        /* \"#utility.yul\":2283:2290   */\n      dup6\n        /* \"#utility.yul\":2274:2280   */\n      dup3\n        /* \"#utility.yul\":2263:2272   */\n      dup7\n        /* \"#utility.yul\":2259:2281   */\n      add\n        /* \"#utility.yul\":2238:2291   */\n      tag_304\n      jump\t// in\n    tag_338:\n        /* \"#utility.yul\":2228:2291   */\n      swap2\n      pop\n        /* \"#utility.yul\":2183:2301   */\n      pop\n        /* \"#utility.yul\":1834:2308   */\n      swap3\n      pop\n      swap3\n      swap1\n      pop\n      jump\t// out\n        /* \"#utility.yul\":2314:2933   */\n    tag_43:\n        /* \"#utility.yul\":2391:2397   */\n      0x00\n        /* \"#utility.yul\":2399:2405   */\n      dup1\n        /* \"#utility.yul\":2407:2413   */\n      0x00\n        /* \"#utility.yul\":2456:2458   */\n      0x60\n        /* \"#utility.yul\":2444:2453   */\n      dup5\n        /* \"#utility.yul\":2435:2442   */\n      dup7\n        /* \"#utility.yul\":2431:2454   */\n      sub\n        /* \"#utility.yul\":2427:2459   */\n      slt\n        /* \"#utility.yul\":2424:2543   */\n      iszero\n      tag_340\n      jumpi\n        /* \"#utility.yul\":2462:2541   */\n      tag_341\n      tag_332\n      jump\t// in\n    tag_341:\n        /* \"#utility.yul\":2424:2543   */\n    tag_340:\n        /* \"#utility.yul\":2582:2583   */\n      0x00\n        /* \"#utility.yul\":2607:2660   */\n      tag_342\n        /* \"#utility.yul\":2652:2659   */\n      dup7\n        /* \"#utility.yul\":2643:2649   */\n      dup3\n        /* \"#utility.yul\":2632:2641   */\n      dup8\n        /* \"#utility.yul\":2628:2650   */\n      add\n        /* \"#utility.yul\":2607:2660   */\n      tag_304\n      jump\t// in\n    tag_342:\n        /* \"#utility.yul\":2597:2660   */\n      swap4\n      pop\n        /* \"#utility.yul\":2553:2670   */\n      pop\n        /* \"#utility.yul\":2709:2711   */\n      0x20\n        /* \"#utility.yul\":2735:2788   */\n      tag_343\n        /* \"#utility.yul\":2780:2787   */\n      dup7\n        /* \"#utility.yul\":2771:2777   */\n      dup3\n        /* \"#utility.yul\":2760:2769   */\n      dup8\n        /* \"#utility.yul\":2756:2778   */\n      add\n        /* \"#utility.yul\":2735:2788   */\n      tag_304\n      jump\t// in\n    tag_343:\n        /* \"#utility.yul\":2725:2788   */\n      swap3\n      pop\n        /* \"#utility.yul\":2680:2798   */\n      pop\n        /* \"#utility.yul\":2837:2839   */\n      0x40\n        /* \"#utility.yul\":2863:2916   */\n      tag_344\n        /* \"#utility.yul\":2908:2915   */\n      dup7\n        /* \"#utility.yul\":2899:2905   */\n      dup3\n        /* \"#utility.yul\":2888:2897   */\n      dup8\n        /* \"#utility.yul\":2884:2906   */\n      add\n        /* \"#utility.yul\":2863:2916   */\n      tag_325\n      jump\t// in\n    tag_344:\n        /* \"#utility.yul\":2853:2916   */\n      swap2\n      pop\n        /* \"#utility.yul\":2808:2926   */\n      pop\n        /* \"#utility.yul\":2314:2933   */\n      swap3\n      pop\n      swap3\n      pop\n      swap3\n      jump\t// out\n        /* \"#utility.yul\":2939:3882   */\n    tag_73:\n        /* \"#utility.yul\":3034:3040   */\n      0x00\n        /* \"#utility.yul\":3042:3048   */\n      dup1\n        /* \"#utility.yul\":3050:3056   */\n      0x00\n        /* \"#utility.yul\":3058:3064   */\n      dup1\n        /* \"#utility.yul\":3107:3110   */\n      0x80\n        /* \"#utility.yul\":3095:3104   */\n      dup6\n        /* \"#utility.yul\":3086:3093   */\n      dup8\n        /* \"#utility.yul\":3082:3105   */\n      sub\n        /* \"#utility.yul\":3078:3111   */\n      slt\n        /* \"#utility.yul\":3075:3195   */\n      iszero\n      tag_346\n      jumpi\n        /* \"#utility.yul\":3114:3193   */\n      tag_347\n      tag_332\n      jump\t// in\n    tag_347:\n        /* \"#utility.yul\":3075:3195   */\n    tag_346:\n        /* \"#utility.yul\":3234:3235   */\n      0x00\n        /* \"#utility.yul\":3259:3312   */\n      tag_348\n        /* \"#utility.yul\":3304:3311   */\n      dup8\n        /* \"#utility.yul\":3295:3301   */\n      dup3\n        /* \"#utility.yul\":3284:3293   */\n      dup9\n        /* \"#utility.yul\":3280:3302   */\n      add\n        /* \"#utility.yul\":3259:3312   */\n      tag_304\n      jump\t// in\n    tag_348:\n        /* \"#utility.yul\":3249:3312   */\n      swap5\n      pop\n        /* \"#utility.yul\":3205:3322   */\n      pop\n        /* \"#utility.yul\":3361:3363   */\n      0x20\n        /* \"#utility.yul\":3387:3440   */\n      tag_349\n        /* \"#utility.yul\":3432:3439   */\n      dup8\n        /* \"#utility.yul\":3423:3429   */\n      dup3\n        /* \"#utility.yul\":3412:3421   */\n      dup9\n        /* \"#utility.yul\":3408:3430   */\n      add\n        /* \"#utility.yul\":3387:3440   */\n      tag_304\n      jump\t// in\n    tag_349:\n        /* \"#utility.yul\":3377:3440   */\n      swap4\n      pop\n        /* \"#utility.yul\":3332:3450   */\n      pop\n        /* \"#utility.yul\":3489:3491   */\n      0x40\n        /* \"#utility.yul\":3515:3568   */\n      tag_350\n        /* \"#utility.yul\":3560:3567   */\n      dup8\n        /* \"#utility.yul\":3551:3557   */\n      dup3\n        /* \"#utility.yul\":3540:3549   */\n      dup9\n        /* \"#utility.yul\":3536:3558   */\n      add\n        /* \"#utility.yul\":3515:3568   */\n      tag_325\n      jump\t// in\n    tag_350:\n        /* \"#utility.yul\":3505:3568   */\n      swap3\n      pop\n        /* \"#utility.yul\":3460:3578   */\n      pop\n        /* \"#utility.yul\":3645:3647   */\n      0x60\n        /* \"#utility.yul\":3634:3643   */\n      dup6\n        /* \"#utility.yul\":3630:3648   */\n      add\n        /* \"#utility.yul\":3617:3649   */\n      calldataload\n        /* \"#utility.yul\":3676:3694   */\n      0xffffffffffffffff\n        /* \"#utility.yul\":3668:3674   */\n      dup2\n        /* \"#utility.yul\":3665:3695   */\n      gt\n        /* \"#utility.yul\":3662:3779   */\n      iszero\n      tag_351\n      jumpi\n        /* \"#utility.yul\":3698:3777   */\n      tag_352\n      tag_353\n      jump\t// in\n    tag_352:\n        /* \"#utility.yul\":3662:3779   */\n    tag_351:\n        /* \"#utility.yul\":3803:3865   */\n      tag_354\n        /* \"#utility.yul\":3857:3864   */\n      dup8\n        /* \"#utility.yul\":3848:3854   */\n      dup3\n        /* \"#utility.yul\":3837:3846   */\n      dup9\n        /* \"#utility.yul\":3833:3855   */\n      add\n        /* \"#utility.yul\":3803:3865   */\n      tag_319\n      jump\t// in\n    tag_354:\n        /* \"#utility.yul\":3793:3865   */\n      swap2\n      pop\n        /* \"#utility.yul\":3588:3875   */\n      pop\n        /* \"#utility.yul\":2939:3882   */\n      swap3\n      swap6\n      swap2\n      swap5\n      pop\n      swap3\n      pop\n      jump\t// out\n        /* \"#utility.yul\":3888:4356   */\n    tag_69:\n        /* \"#utility.yul\":3953:3959   */\n      0x00\n        /* \"#utility.yul\":3961:3967   */\n      dup1\n        /* \"#utility.yul\":4010:4012   */\n      0x40\n        /* \"#utility.yul\":3998:4007   */\n      dup4\n        /* \"#utility.yul\":3989:3996   */\n      dup6\n        /* \"#utility.yul\":3985:4008   */\n      sub\n        /* \"#utility.yul\":3981:4013   */\n      slt\n        /* \"#utility.yul\":3978:4097   */\n      iszero\n      tag_356\n      jumpi\n        /* \"#utility.yul\":4016:4095   */\n      tag_357\n      tag_332\n      jump\t// in\n    tag_357:\n        /* \"#utility.yul\":3978:4097   */\n    tag_356:\n        /* \"#utility.yul\":4136:4137   */\n      0x00\n        /* \"#utility.yul\":4161:4214   */\n      tag_358\n        /* \"#utility.yul\":4206:4213   */\n      dup6\n        /* \"#utility.yul\":4197:4203   */\n      dup3\n        /* \"#utility.yul\":4186:4195   */\n      dup7\n        /* \"#utility.yul\":4182:4204   */\n      add\n        /* \"#utility.yul\":4161:4214   */\n      tag_304\n      jump\t// in\n    tag_358:\n        /* \"#utility.yul\":4151:4214   */\n      swap3\n      pop\n        /* \"#utility.yul\":4107:4224   */\n      pop\n        /* \"#utility.yul\":4263:4265   */\n      0x20\n        /* \"#utility.yul\":4289:4339   */\n      tag_359\n        /* \"#utility.yul\":4331:4338   */\n      dup6\n        /* \"#utility.yul\":4322:4328   */\n      dup3\n        /* \"#utility.yul\":4311:4320   */\n      dup7\n        /* \"#utility.yul\":4307:4329   */\n      add\n        /* \"#utility.yul\":4289:4339   */\n      tag_308\n      jump\t// in\n    tag_359:\n        /* \"#utility.yul\":4279:4339   */\n      swap2\n      pop\n        /* \"#utility.yul\":4234:4349   */\n      pop\n        /* \"#utility.yul\":3888:4356   */\n      swap3\n      pop\n      swap3\n      swap1\n      pop\n      jump\t// out\n        /* \"#utility.yul\":4362:4836   */\n    tag_39:\n        /* \"#utility.yul\":4430:4436   */\n      0x00\n        /* \"#utility.yul\":4438:4444   */\n      dup1\n        /* \"#utility.yul\":4487:4489   */\n      0x40\n        /* \"#utility.yul\":4475:4484   */\n      dup4\n        /* \"#utility.yul\":4466:4473   */\n      dup6\n        /* \"#utility.yul\":4462:4485   */\n      sub\n        /* \"#utility.yul\":4458:4490   */\n      slt\n        /* \"#utility.yul\":4455:4574   */\n      iszero\n      tag_361\n      jumpi\n        /* \"#utility.yul\":4493:4572   */\n      tag_362\n      tag_332\n      jump\t// in\n    tag_362:\n        /* \"#utility.yul\":4455:4574   */\n    tag_361:\n        /* \"#utility.yul\":4613:4614   */\n      0x00\n        /* \"#utility.yul\":4638:4691   */\n      tag_363\n        /* \"#utility.yul\":4683:4690   */\n      dup6\n        /* \"#utility.yul\":4674:4680   */\n      dup3\n        /* \"#utility.yul\":4663:4672   */\n      dup7\n        /* \"#utility.yul\":4659:4681   */\n      add\n        /* \"#utility.yul\":4638:4691   */\n      tag_304\n      jump\t// in\n    tag_363:\n        /* \"#utility.yul\":4628:4691   */\n      swap3\n      pop\n        /* \"#utility.yul\":4584:4701   */\n      pop\n        /* \"#utility.yul\":4740:4742   */\n      0x20\n        /* \"#utility.yul\":4766:4819   */\n      tag_364\n        /* \"#utility.yul\":4811:4818   */\n      dup6\n        /* \"#utility.yul\":4802:4808   */\n      dup3\n        /* \"#utility.yul\":4791:4800   */\n      dup7\n        /* \"#utility.yul\":4787:4809   */\n      add\n        /* \"#utility.yul\":4766:4819   */\n      tag_325\n      jump\t// in\n    tag_364:\n        /* \"#utility.yul\":4756:4819   */\n      swap2\n      pop\n        /* \"#utility.yul\":4711:4829   */\n      pop\n        /* \"#utility.yul\":4362:4836   */\n      swap3\n      pop\n      swap3\n      swap1\n      pop\n      jump\t// out\n        /* \"#utility.yul\":4842:5169   */\n    tag_23:\n        /* \"#utility.yul\":4900:4906   */\n      0x00\n        /* \"#utility.yul\":4949:4951   */\n      0x20\n        /* \"#utility.yul\":4937:4946   */\n      dup3\n        /* \"#utility.yul\":4928:4935   */\n      dup5\n        /* \"#utility.yul\":4924:4947   */\n      sub\n        /* \"#utility.yul\":4920:4952   */\n      slt\n        /* \"#utility.yul\":4917:5036   */\n      iszero\n      tag_366\n      jumpi\n        /* \"#utility.yul\":4955:5034   */\n      tag_367\n      tag_332\n      jump\t// in\n    tag_367:\n        /* \"#utility.yul\":4917:5036   */\n    tag_366:\n        /* \"#utility.yul\":5075:5076   */\n      0x00\n        /* \"#utility.yul\":5100:5152   */\n      tag_368\n        /* \"#utility.yul\":5144:5151   */\n      dup5\n        /* \"#utility.yul\":5135:5141   */\n      dup3\n        /* \"#utility.yul\":5124:5133   */\n      dup6\n        /* \"#utility.yul\":5120:5142   */\n      add\n        /* \"#utility.yul\":5100:5152   */\n      tag_312\n      jump\t// in\n    tag_368:\n        /* \"#utility.yul\":5090:5152   */\n      swap2\n      pop\n        /* \"#utility.yul\":5046:5162   */\n      pop\n        /* \"#utility.yul\":4842:5169   */\n      swap3\n      swap2\n      pop\n      pop\n      jump\t// out\n        /* \"#utility.yul\":5175:5524   */\n    tag_268:\n        /* \"#utility.yul\":5244:5250   */\n      0x00\n        /* \"#utility.yul\":5293:5295   */\n      0x20\n        /* \"#utility.yul\":5281:5290   */\n      dup3\n        /* \"#utility.yul\":5272:5279   */\n      dup5\n        /* \"#utility.yul\":5268:5291   */\n      sub\n        /* \"#utility.yul\":5264:5296   */\n      slt\n        /* \"#utility.yul\":5261:5380   */\n      iszero\n      tag_370\n      jumpi\n        /* \"#utility.yul\":5299:5378   */\n      tag_371\n      tag_332\n      jump\t// in\n    tag_371:\n        /* \"#utility.yul\":5261:5380   */\n    tag_370:\n        /* \"#utility.yul\":5419:5420   */\n      0x00\n        /* \"#utility.yul\":5444:5507   */\n      tag_372\n        /* \"#utility.yul\":5499:5506   */\n      dup5\n        /* \"#utility.yul\":5490:5496   */\n      dup3\n        /* \"#utility.yul\":5479:5488   */\n      dup6\n        /* \"#utility.yul\":5475:5497   */\n      add\n        /* \"#utility.yul\":5444:5507   */\n      tag_316\n      jump\t// in\n    tag_372:\n        /* \"#utility.yul\":5434:5507   */\n      swap2\n      pop\n        /* \"#utility.yul\":5390:5517   */\n      pop\n        /* \"#utility.yul\":5175:5524   */\n      swap3\n      swap2\n      pop\n      pop\n      jump\t// out\n        /* \"#utility.yul\":5530:5859   */\n    tag_33:\n        /* \"#utility.yul\":5589:5595   */\n      0x00\n        /* \"#utility.yul\":5638:5640   */\n      0x20\n        /* \"#utility.yul\":5626:5635   */\n      dup3\n        /* \"#utility.yul\":5617:5624   */\n      dup5\n        /* \"#utility.yul\":5613:5636   */\n      sub\n        /* \"#utility.yul\":5609:5641   */\n      slt\n        /* \"#utility.yul\":5606:5725   */\n      iszero\n      tag_374\n      jumpi\n        /* \"#utility.yul\":5644:5723   */\n      tag_375\n      tag_332\n      jump\t// in\n    tag_375:\n        /* \"#utility.yul\":5606:5725   */\n    tag_374:\n        /* \"#utility.yul\":5764:5765   */\n      0x00\n        /* \"#utility.yul\":5789:5842   */\n      tag_376\n        /* \"#utility.yul\":5834:5841   */\n      dup5\n        /* \"#utility.yul\":5825:5831   */\n      dup3\n        /* \"#utility.yul\":5814:5823   */\n      dup6\n        /* \"#utility.yul\":5810:5832   */\n      add\n        /* \"#utility.yul\":5789:5842   */\n      tag_325\n      jump\t// in\n    tag_376:\n        /* \"#utility.yul\":5779:5842   */\n      swap2\n      pop\n        /* \"#utility.yul\":5735:5852   */\n      pop\n        /* \"#utility.yul\":5530:5859   */\n      swap3\n      swap2\n      pop\n      pop\n      jump\t// out\n        /* \"#utility.yul\":5865:5983   */\n    tag_377:\n        /* \"#utility.yul\":5952:5976   */\n      tag_379\n        /* \"#utility.yul\":5970:5975   */\n      dup2\n        /* \"#utility.yul\":5952:5976   */\n      tag_380\n      jump\t// in\n    tag_379:\n        /* \"#utility.yul\":5947:5950   */\n      dup3\n        /* \"#utility.yul\":5940:5977   */\n      mstore\n        /* \"#utility.yul\":5865:5983   */\n      pop\n      pop\n      jump\t// out\n        /* \"#utility.yul\":5989:6098   */\n    tag_381:\n        /* \"#utility.yul\":6070:6091   */\n      tag_383\n        /* \"#utility.yul\":6085:6090   */\n      dup2\n        /* \"#utility.yul\":6070:6091   */\n      tag_384\n      jump\t// in\n    tag_383:\n        /* \"#utility.yul\":6065:6068   */\n      dup3\n        /* \"#utility.yul\":6058:6092   */\n      mstore\n        /* \"#utility.yul\":5989:6098   */\n      pop\n      pop\n      jump\t// out\n        /* \"#utility.yul\":6104:6464   */\n    tag_385:\n        /* \"#utility.yul\":6190:6193   */\n      0x00\n        /* \"#utility.yul\":6218:6256   */\n      tag_387\n        /* \"#utility.yul\":6250:6255   */\n      dup3\n        /* \"#utility.yul\":6218:6256   */\n      tag_388\n      jump\t// in\n    tag_387:\n        /* \"#utility.yul\":6272:6342   */\n      tag_389\n        /* \"#utility.yul\":6335:6341   */\n      dup2\n        /* \"#utility.yul\":6330:6333   */\n      dup6\n        /* \"#utility.yul\":6272:6342   */\n      tag_390\n      jump\t// in\n    tag_389:\n        /* \"#utility.yul\":6265:6342   */\n      swap4\n      pop\n        /* \"#utility.yul\":6351:6403   */\n      tag_391\n        /* \"#utility.yul\":6396:6402   */\n      dup2\n        /* \"#utility.yul\":6391:6394   */\n      dup6\n        /* \"#utility.yul\":6384:6388   */\n      0x20\n        /* \"#utility.yul\":6377:6382   */\n      dup7\n        /* \"#utility.yul\":6373:6389   */\n      add\n        /* \"#utility.yul\":6351:6403   */\n      tag_392\n      jump\t// in\n    tag_391:\n        /* \"#utility.yul\":6428:6457   */\n      tag_393\n        /* \"#utility.yul\":6450:6456   */\n      dup2\n        /* \"#utility.yul\":6428:6457   */\n      tag_394\n      jump\t// in\n    tag_393:\n        /* \"#utility.yul\":6423:6426   */\n      dup5\n        /* \"#utility.yul\":6419:6458   */\n      add\n        /* \"#utility.yul\":6412:6458   */\n      swap2\n      pop\n        /* \"#utility.yul\":6194:6464   */\n      pop\n        /* \"#utility.yul\":6104:6464   */\n      swap3\n      swap2\n      pop\n      pop\n      jump\t// out\n        /* \"#utility.yul\":6470:6834   */\n    tag_395:\n        /* \"#utility.yul\":6558:6561   */\n      0x00\n        /* \"#utility.yul\":6586:6625   */\n      tag_397\n        /* \"#utility.yul\":6619:6624   */\n      dup3\n        /* \"#utility.yul\":6586:6625   */\n      tag_398\n      jump\t// in\n    tag_397:\n        /* \"#utility.yul\":6641:6712   */\n      tag_399\n        /* \"#utility.yul\":6705:6711   */\n      dup2\n        /* \"#utility.yul\":6700:6703   */\n      dup6\n        /* \"#utility.yul\":6641:6712   */\n      tag_400\n      jump\t// in\n    tag_399:\n        /* \"#utility.yul\":6634:6712   */\n      swap4\n      pop\n        /* \"#utility.yul\":6721:6773   */\n      tag_401\n        /* \"#utility.yul\":6766:6772   */\n      dup2\n        /* \"#utility.yul\":6761:6764   */\n      dup6\n        /* \"#utility.yul\":6754:6758   */\n      0x20\n        /* \"#utility.yul\":6747:6752   */\n      dup7\n        /* \"#utility.yul\":6743:6759   */\n      add\n        /* \"#utility.yul\":6721:6773   */\n      tag_392\n      jump\t// in\n    tag_401:\n        /* \"#utility.yul\":6798:6827   */\n      tag_402\n        /* \"#utility.yul\":6820:6826   */\n      dup2\n        /* \"#utility.yul\":6798:6827   */\n      tag_394\n      jump\t// in\n    tag_402:\n        /* \"#utility.yul\":6793:6796   */\n      dup5\n        /* \"#utility.yul\":6789:6828   */\n      add\n        /* \"#utility.yul\":6782:6828   */\n      swap2\n      pop\n        /* \"#utility.yul\":6562:6834   */\n      pop\n        /* \"#utility.yul\":6470:6834   */\n      swap3\n      swap2\n      pop\n      pop\n      jump\t// out\n        /* \"#utility.yul\":6840:7217   */\n    tag_403:\n        /* \"#utility.yul\":6946:6949   */\n      0x00\n        /* \"#utility.yul\":6974:7013   */\n      tag_405\n        /* \"#utility.yul\":7007:7012   */\n      dup3\n        /* \"#utility.yul\":6974:7013   */\n      tag_398\n      jump\t// in\n    tag_405:\n        /* \"#utility.yul\":7029:7118   */\n      tag_406\n        /* \"#utility.yul\":7111:7117   */\n      dup2\n        /* \"#utility.yul\":7106:7109   */\n      dup6\n        /* \"#utility.yul\":7029:7118   */\n      tag_407\n      jump\t// in\n    tag_406:\n        /* \"#utility.yul\":7022:7118   */\n      swap4\n      pop\n        /* \"#utility.yul\":7127:7179   */\n      tag_408\n        /* \"#utility.yul\":7172:7178   */\n      dup2\n        /* \"#utility.yul\":7167:7170   */\n      dup6\n        /* \"#utility.yul\":7160:7164   */\n      0x20\n        /* \"#utility.yul\":7153:7158   */\n      dup7\n        /* \"#utility.yul\":7149:7165   */\n      add\n        /* \"#utility.yul\":7127:7179   */\n      tag_392\n      jump\t// in\n    tag_408:\n        /* \"#utility.yul\":7204:7210   */\n      dup1\n        /* \"#utility.yul\":7199:7202   */\n      dup5\n        /* \"#utility.yul\":7195:7211   */\n      add\n        /* \"#utility.yul\":7188:7211   */\n      swap2\n      pop\n        /* \"#utility.yul\":6950:7217   */\n      pop\n        /* \"#utility.yul\":6840:7217   */\n      swap3\n      swap2\n      pop\n      pop\n      jump\t// out\n        /* \"#utility.yul\":7223:7589   */\n    tag_409:\n        /* \"#utility.yul\":7365:7368   */\n      0x00\n        /* \"#utility.yul\":7386:7453   */\n      tag_411\n        /* \"#utility.yul\":7450:7452   */\n      0x32\n        /* \"#utility.yul\":7445:7448   */\n      dup4\n        /* \"#utility.yul\":7386:7453   */\n      tag_400\n      jump\t// in\n    tag_411:\n        /* \"#utility.yul\":7379:7453   */\n      swap2\n      pop\n        /* \"#utility.yul\":7462:7555   */\n      tag_412\n        /* \"#utility.yul\":7551:7554   */\n      dup3\n        /* \"#utility.yul\":7462:7555   */\n      tag_413\n      jump\t// in\n    tag_412:\n        /* \"#utility.yul\":7580:7582   */\n      0x40\n        /* \"#utility.yul\":7575:7578   */\n      dup3\n        /* \"#utility.yul\":7571:7583   */\n      add\n        /* \"#utility.yul\":7564:7583   */\n      swap1\n      pop\n        /* \"#utility.yul\":7223:7589   */\n      swap2\n      swap1\n      pop\n      jump\t// out\n        /* \"#utility.yul\":7595:7961   */\n    tag_414:\n        /* \"#utility.yul\":7737:7740   */\n      0x00\n        /* \"#utility.yul\":7758:7825   */\n      tag_416\n        /* \"#utility.yul\":7822:7824   */\n      0x25\n        /* \"#utility.yul\":7817:7820   */\n      dup4\n        /* \"#utility.yul\":7758:7825   */\n      tag_400\n      jump\t// in\n    tag_416:\n        /* \"#utility.yul\":7751:7825   */\n      swap2\n      pop\n        /* \"#utility.yul\":7834:7927   */\n      tag_417\n        /* \"#utility.yul\":7923:7926   */\n      dup3\n        /* \"#utility.yul\":7834:7927   */\n      tag_418\n      jump\t// in\n    tag_417:\n        /* \"#utility.yul\":7952:7954   */\n      0x40\n        /* \"#utility.yul\":7947:7950   */\n      dup3\n        /* \"#utility.yul\":7943:7955   */\n      add\n        /* \"#utility.yul\":7936:7955   */\n      swap1\n      pop\n        /* \"#utility.yul\":7595:7961   */\n      swap2\n      swap1\n      pop\n      jump\t// out\n        /* \"#utility.yul\":7967:8333   */\n    tag_419:\n        /* \"#utility.yul\":8109:8112   */\n      0x00\n        /* \"#utility.yul\":8130:8197   */\n      tag_421\n        /* \"#utility.yul\":8194:8196   */\n      0x1c\n        /* \"#utility.yul\":8189:8192   */\n      dup4\n        /* \"#utility.yul\":8130:8197   */\n      tag_400\n      jump\t// in\n    tag_421:\n        /* \"#utility.yul\":8123:8197   */\n      swap2\n      pop\n        /* \"#utility.yul\":8206:8299   */\n      tag_422\n        /* \"#utility.yul\":8295:8298   */\n      dup3\n        /* \"#utility.yul\":8206:8299   */\n      tag_423\n      jump\t// in\n    tag_422:\n        /* \"#utility.yul\":8324:8326   */\n      0x20\n        /* \"#utility.yul\":8319:8322   */\n      dup3\n        /* \"#utility.yul\":8315:8327   */\n      add\n        /* \"#utility.yul\":8308:8327   */\n      swap1\n      pop\n        /* \"#utility.yul\":7967:8333   */\n      swap2\n      swap1\n      pop\n      jump\t// out\n        /* \"#utility.yul\":8339:8705   */\n    tag_424:\n        /* \"#utility.yul\":8481:8484   */\n      0x00\n        /* \"#utility.yul\":8502:8569   */\n      tag_426\n        /* \"#utility.yul\":8566:8568   */\n      0x24\n        /* \"#utility.yul\":8561:8564   */\n      dup4\n        /* \"#utility.yul\":8502:8569   */\n      tag_400\n      jump\t// in\n    tag_426:\n        /* \"#utility.yul\":8495:8569   */\n      swap2\n      pop\n        /* \"#utility.yul\":8578:8671   */\n      tag_427\n        /* \"#utility.yul\":8667:8670   */\n      dup3\n        /* \"#utility.yul\":8578:8671   */\n      tag_428\n      jump\t// in\n    tag_427:\n        /* \"#utility.yul\":8696:8698   */\n      0x40\n        /* \"#utility.yul\":8691:8694   */\n      dup3\n        /* \"#utility.yul\":8687:8699   */\n      add\n        /* \"#utility.yul\":8680:8699   */\n      swap1\n      pop\n        /* \"#utility.yul\":8339:8705   */\n      swap2\n      swap1\n      pop\n      jump\t// out\n        /* \"#utility.yul\":8711:9077   */\n    tag_429:\n        /* \"#utility.yul\":8853:8856   */\n      0x00\n        /* \"#utility.yul\":8874:8941   */\n      tag_431\n        /* \"#utility.yul\":8938:8940   */\n      0x19\n        /* \"#utility.yul\":8933:8936   */\n      dup4\n        /* \"#utility.yul\":8874:8941   */\n      tag_400\n      jump\t// in\n    tag_431:\n        /* \"#utility.yul\":8867:8941   */\n      swap2\n      pop\n        /* \"#utility.yul\":8950:9043   */\n      tag_432\n        /* \"#utility.yul\":9039:9042   */\n      dup3\n        /* \"#utility.yul\":8950:9043   */\n      tag_433\n      jump\t// in\n    tag_432:\n        /* \"#utility.yul\":9068:9070   */\n      0x20\n        /* \"#utility.yul\":9063:9066   */\n      dup3\n        /* \"#utility.yul\":9059:9071   */\n      add\n        /* \"#utility.yul\":9052:9071   */\n      swap1\n      pop\n        /* \"#utility.yul\":8711:9077   */\n      swap2\n      swap1\n      pop\n      jump\t// out\n        /* \"#utility.yul\":9083:9449   */\n    tag_434:\n        /* \"#utility.yul\":9225:9228   */\n      0x00\n        /* \"#utility.yul\":9246:9313   */\n      tag_436\n        /* \"#utility.yul\":9310:9312   */\n      0x2c\n        /* \"#utility.yul\":9305:9308   */\n      dup4\n        /* \"#utility.yul\":9246:9313   */\n      tag_400\n      jump\t// in\n    tag_436:\n        /* \"#utility.yul\":9239:9313   */\n      swap2\n      pop\n        /* \"#utility.yul\":9322:9415   */\n      tag_437\n        /* \"#utility.yul\":9411:9414   */\n      dup3\n        /* \"#utility.yul\":9322:9415   */\n      tag_438\n      jump\t// in\n    tag_437:\n        /* \"#utility.yul\":9440:9442   */\n      0x40\n        /* \"#utility.yul\":9435:9438   */\n      dup3\n        /* \"#utility.yul\":9431:9443   */\n      add\n        /* \"#utility.yul\":9424:9443   */\n      swap1\n      pop\n        /* \"#utility.yul\":9083:9449   */\n      swap2\n      swap1\n      pop\n      jump\t// out\n        /* \"#utility.yul\":9455:9821   */\n    tag_439:\n        /* \"#utility.yul\":9597:9600   */\n      0x00\n        /* \"#utility.yul\":9618:9685   */\n      tag_441\n        /* \"#utility.yul\":9682:9684   */\n      0x31\n        /* \"#utility.yul\":9677:9680   */\n      dup4\n        /* \"#utility.yul\":9618:9685   */\n      tag_400\n      jump\t// in\n    tag_441:\n        /* \"#utility.yul\":9611:9685   */\n      swap2\n      pop\n        /* \"#utility.yul\":9694:9787   */\n      tag_442\n        /* \"#utility.yul\":9783:9786   */\n      dup3\n        /* \"#utility.yul\":9694:9787   */\n      tag_443\n      jump\t// in\n    tag_442:\n        /* \"#utility.yul\":9812:9814   */\n      0x40\n        /* \"#utility.yul\":9807:9810   */\n      dup3\n        /* \"#utility.yul\":9803:9815   */\n      add\n        /* \"#utility.yul\":9796:9815   */\n      swap1\n      pop\n        /* \"#utility.yul\":9455:9821   */\n      swap2\n      swap1\n      pop\n      jump\t// out\n        /* \"#utility.yul\":9827:10193   */\n    tag_444:\n        /* \"#utility.yul\":9969:9972   */\n      0x00\n        /* \"#utility.yul\":9990:10057   */\n      tag_446\n        /* \"#utility.yul\":10054:10056   */\n      0x38\n        /* \"#utility.yul\":10049:10052   */\n      dup4\n        /* \"#utility.yul\":9990:10057   */\n      tag_400\n      jump\t// in\n    tag_446:\n        /* \"#utility.yul\":9983:10057   */\n      swap2\n      pop\n        /* \"#utility.yul\":10066:10159   */\n      tag_447\n        /* \"#utility.yul\":10155:10158   */\n      dup3\n        /* \"#utility.yul\":10066:10159   */\n      tag_448\n      jump\t// in\n    tag_447:\n        /* \"#utility.yul\":10184:10186   */\n      0x40\n        /* \"#utility.yul\":10179:10182   */\n      dup3\n        /* \"#utility.yul\":10175:10187   */\n      add\n        /* \"#utility.yul\":10168:10187   */\n      swap1\n      pop\n        /* \"#utility.yul\":9827:10193   */\n      swap2\n      swap1\n      pop\n      jump\t// out\n        /* \"#utility.yul\":10199:10565   */\n    tag_449:\n        /* \"#utility.yul\":10341:10344   */\n      0x00\n        /* \"#utility.yul\":10362:10429   */\n      tag_451\n        /* \"#utility.yul\":10426:10428   */\n      0x2a\n        /* \"#utility.yul\":10421:10424   */\n      dup4\n        /* \"#utility.yul\":10362:10429   */\n      tag_400\n      jump\t// in\n    tag_451:\n        /* \"#utility.yul\":10355:10429   */\n      swap2\n      pop\n        /* \"#utility.yul\":10438:10531   */\n      tag_452\n        /* \"#utility.yul\":10527:10530   */\n      dup3\n        /* \"#utility.yul\":10438:10531   */\n      tag_453\n      jump\t// in\n    tag_452:\n        /* \"#utility.yul\":10556:10558   */\n      0x40\n        /* \"#utility.yul\":10551:10554   */\n      dup3\n        /* \"#utility.yul\":10547:10559   */\n      add\n        /* \"#utility.yul\":10540:10559   */\n      swap1\n      pop\n        /* \"#utility.yul\":10199:10565   */\n      swap2\n      swap1\n      pop\n      jump\t// out\n        /* \"#utility.yul\":10571:10937   */\n    tag_454:\n        /* \"#utility.yul\":10713:10716   */\n      0x00\n        /* \"#utility.yul\":10734:10801   */\n      tag_456\n        /* \"#utility.yul\":10798:10800   */\n      0x29\n        /* \"#utility.yul\":10793:10796   */\n      dup4\n        /* \"#utility.yul\":10734:10801   */\n      tag_400\n      jump\t// in\n    tag_456:\n        /* \"#utility.yul\":10727:10801   */\n      swap2\n      pop\n        /* \"#utility.yul\":10810:10903   */\n      tag_457\n        /* \"#utility.yul\":10899:10902   */\n      dup3\n        /* \"#utility.yul\":10810:10903   */\n      tag_458\n      jump\t// in\n    tag_457:\n        /* \"#utility.yul\":10928:10930   */\n      0x40\n        /* \"#utility.yul\":10923:10926   */\n      dup3\n        /* \"#utility.yul\":10919:10931   */\n      add\n        /* \"#utility.yul\":10912:10931   */\n      swap1\n      pop\n        /* \"#utility.yul\":10571:10937   */\n      swap2\n      swap1\n      pop\n      jump\t// out\n        /* \"#utility.yul\":10943:11309   */\n    tag_459:\n        /* \"#utility.yul\":11085:11088   */\n      0x00\n        /* \"#utility.yul\":11106:11173   */\n      tag_461\n        /* \"#utility.yul\":11170:11172   */\n      0x20\n        /* \"#utility.yul\":11165:11168   */\n      dup4\n        /* \"#utility.yul\":11106:11173   */\n      tag_400\n      jump\t// in\n    tag_461:\n        /* \"#utility.yul\":11099:11173   */\n      swap2\n      pop\n        /* \"#utility.yul\":11182:11275   */\n      tag_462\n        /* \"#utility.yul\":11271:11274   */\n      dup3\n        /* \"#utility.yul\":11182:11275   */\n      tag_463\n      jump\t// in\n    tag_462:\n        /* \"#utility.yul\":11300:11302   */\n      0x20\n        /* \"#utility.yul\":11295:11298   */\n      dup3\n        /* \"#utility.yul\":11291:11303   */\n      add\n        /* \"#utility.yul\":11284:11303   */\n      swap1\n      pop\n        /* \"#utility.yul\":10943:11309   */\n      swap2\n      swap1\n      pop\n      jump\t// out\n        /* \"#utility.yul\":11315:11681   */\n    tag_464:\n        /* \"#utility.yul\":11457:11460   */\n      0x00\n        /* \"#utility.yul\":11478:11545   */\n      tag_466\n        /* \"#utility.yul\":11542:11544   */\n      0x2c\n        /* \"#utility.yul\":11537:11540   */\n      dup4\n        /* \"#utility.yul\":11478:11545   */\n      tag_400\n      jump\t// in\n    tag_466:\n        /* \"#utility.yul\":11471:11545   */\n      swap2\n      pop\n        /* \"#utility.yul\":11554:11647   */\n      tag_467\n        /* \"#utility.yul\":11643:11646   */\n      dup3\n        /* \"#utility.yul\":11554:11647   */\n      tag_468\n      jump\t// in\n    tag_467:\n        /* \"#utility.yul\":11672:11674   */\n      0x40\n        /* \"#utility.yul\":11667:11670   */\n      dup3\n        /* \"#utility.yul\":11663:11675   */\n      add\n        /* \"#utility.yul\":11656:11675   */\n      swap1\n      pop\n        /* \"#utility.yul\":11315:11681   */\n      swap2\n      swap1\n      pop\n      jump\t// out\n        /* \"#utility.yul\":11687:12053   */\n    tag_469:\n        /* \"#utility.yul\":11829:11832   */\n      0x00\n        /* \"#utility.yul\":11850:11917   */\n      tag_471\n        /* \"#utility.yul\":11914:11916   */\n      0x21\n        /* \"#utility.yul\":11909:11912   */\n      dup4\n        /* \"#utility.yul\":11850:11917   */\n      tag_400\n      jump\t// in\n    tag_471:\n        /* \"#utility.yul\":11843:11917   */\n      swap2\n      pop\n        /* \"#utility.yul\":11926:12019   */\n      tag_472\n        /* \"#utility.yul\":12015:12018   */\n      dup3\n        /* \"#utility.yul\":11926:12019   */\n      tag_473\n      jump\t// in\n    tag_472:\n        /* \"#utility.yul\":12044:12046   */\n      0x40\n        /* \"#utility.yul\":12039:12042   */\n      dup3\n        /* \"#utility.yul\":12035:12047   */\n      add\n        /* \"#utility.yul\":12028:12047   */\n      swap1\n      pop\n        /* \"#utility.yul\":11687:12053   */\n      swap2\n      swap1\n      pop\n      jump\t// out\n        /* \"#utility.yul\":12059:12425   */\n    tag_474:\n        /* \"#utility.yul\":12201:12204   */\n      0x00\n        /* \"#utility.yul\":12222:12289   */\n      tag_476\n        /* \"#utility.yul\":12286:12288   */\n      0x31\n        /* \"#utility.yul\":12281:12284   */\n      dup4\n        /* \"#utility.yul\":12222:12289   */\n      tag_400\n      jump\t// in\n    tag_476:\n        /* \"#utility.yul\":12215:12289   */\n      swap2\n      pop\n        /* \"#utility.yul\":12298:12391   */\n      tag_477\n        /* \"#utility.yul\":12387:12390   */\n      dup3\n        /* \"#utility.yul\":12298:12391   */\n      tag_478\n      jump\t// in\n    tag_477:\n        /* \"#utility.yul\":12416:12418   */\n      0x40\n        /* \"#utility.yul\":12411:12414   */\n      dup3\n        /* \"#utility.yul\":12407:12419   */\n      add\n        /* \"#utility.yul\":12400:12419   */\n      swap1\n      pop\n        /* \"#utility.yul\":12059:12425   */\n      swap2\n      swap1\n      pop\n      jump\t// out\n        /* \"#utility.yul\":12431:12797   */\n    tag_479:\n        /* \"#utility.yul\":12573:12576   */\n      0x00\n        /* \"#utility.yul\":12594:12661   */\n      tag_481\n        /* \"#utility.yul\":12658:12660   */\n      0x2f\n        /* \"#utility.yul\":12653:12656   */\n      dup4\n        /* \"#utility.yul\":12594:12661   */\n      tag_400\n      jump\t// in\n    tag_481:\n        /* \"#utility.yul\":12587:12661   */\n      swap2\n      pop\n        /* \"#utility.yul\":12670:12763   */\n      tag_482\n        /* \"#utility.yul\":12759:12762   */\n      dup3\n        /* \"#utility.yul\":12670:12763   */\n      tag_483\n      jump\t// in\n    tag_482:\n        /* \"#utility.yul\":12788:12790   */\n      0x40\n        /* \"#utility.yul\":12783:12786   */\n      dup3\n        /* \"#utility.yul\":12779:12791   */\n      add\n        /* \"#utility.yul\":12772:12791   */\n      swap1\n      pop\n        /* \"#utility.yul\":12431:12797   */\n      swap2\n      swap1\n      pop\n      jump\t// out\n        /* \"#utility.yul\":12803:12921   */\n    tag_484:\n        /* \"#utility.yul\":12890:12914   */\n      tag_486\n        /* \"#utility.yul\":12908:12913   */\n      dup2\n        /* \"#utility.yul\":12890:12914   */\n      tag_487\n      jump\t// in\n    tag_486:\n        /* \"#utility.yul\":12885:12888   */\n      dup3\n        /* \"#utility.yul\":12878:12915   */\n      mstore\n        /* \"#utility.yul\":12803:12921   */\n      pop\n      pop\n      jump\t// out\n        /* \"#utility.yul\":12927:13362   */\n    tag_172:\n        /* \"#utility.yul\":13107:13110   */\n      0x00\n        /* \"#utility.yul\":13129:13224   */\n      tag_489\n        /* \"#utility.yul\":13220:13223   */\n      dup3\n        /* \"#utility.yul\":13211:13217   */\n      dup6\n        /* \"#utility.yul\":13129:13224   */\n      tag_403\n      jump\t// in\n    tag_489:\n        /* \"#utility.yul\":13122:13224   */\n      swap2\n      pop\n        /* \"#utility.yul\":13241:13336   */\n      tag_490\n        /* \"#utility.yul\":13332:13335   */\n      dup3\n        /* \"#utility.yul\":13323:13329   */\n      dup5\n        /* \"#utility.yul\":13241:13336   */\n      tag_403\n      jump\t// in\n    tag_490:\n        /* \"#utility.yul\":13234:13336   */\n      swap2\n      pop\n        /* \"#utility.yul\":13353:13356   */\n      dup2\n        /* \"#utility.yul\":13346:13356   */\n      swap1\n      pop\n        /* \"#utility.yul\":12927:13362   */\n      swap4\n      swap3\n      pop\n      pop\n      pop\n      jump\t// out\n        /* \"#utility.yul\":13368:13590   */\n    tag_36:\n        /* \"#utility.yul\":13461:13465   */\n      0x00\n        /* \"#utility.yul\":13499:13501   */\n      0x20\n        /* \"#utility.yul\":13488:13497   */\n      dup3\n        /* \"#utility.yul\":13484:13502   */\n      add\n        /* \"#utility.yul\":13476:13502   */\n      swap1\n      pop\n        /* \"#utility.yul\":13512:13583   */\n      tag_492\n        /* \"#utility.yul\":13580:13581   */\n      0x00\n        /* \"#utility.yul\":13569:13578   */\n      dup4\n        /* \"#utility.yul\":13565:13582   */\n      add\n        /* \"#utility.yul\":13556:13562   */\n      dup5\n        /* \"#utility.yul\":13512:13583   */\n      tag_377\n      jump\t// in\n    tag_492:\n        /* \"#utility.yul\":13368:13590   */\n      swap3\n      swap2\n      pop\n      pop\n      jump\t// out\n        /* \"#utility.yul\":13596:14236   */\n    tag_264:\n        /* \"#utility.yul\":13791:13795   */\n      0x00\n        /* \"#utility.yul\":13829:13832   */\n      0x80\n        /* \"#utility.yul\":13818:13827   */\n      dup3\n        /* \"#utility.yul\":13814:13833   */\n      add\n        /* \"#utility.yul\":13806:13833   */\n      swap1\n      pop\n        /* \"#utility.yul\":13843:13914   */\n      tag_494\n        /* \"#utility.yul\":13911:13912   */\n      0x00\n        /* \"#utility.yul\":13900:13909   */\n      dup4\n        /* \"#utility.yul\":13896:13913   */\n      add\n        /* \"#utility.yul\":13887:13893   */\n      dup8\n        /* \"#utility.yul\":13843:13914   */\n      tag_377\n      jump\t// in\n    tag_494:\n        /* \"#utility.yul\":13924:13996   */\n      tag_495\n        /* \"#utility.yul\":13992:13994   */\n      0x20\n        /* \"#utility.yul\":13981:13990   */\n      dup4\n        /* \"#utility.yul\":13977:13995   */\n      add\n        /* \"#utility.yul\":13968:13974   */\n      dup7\n        /* \"#utility.yul\":13924:13996   */\n      tag_377\n      jump\t// in\n    tag_495:\n        /* \"#utility.yul\":14006:14078   */\n      tag_496\n        /* \"#utility.yul\":14074:14076   */\n      0x40\n        /* \"#utility.yul\":14063:14072   */\n      dup4\n        /* \"#utility.yul\":14059:14077   */\n      add\n        /* \"#utility.yul\":14050:14056   */\n      dup6\n        /* \"#utility.yul\":14006:14078   */\n      tag_484\n      jump\t// in\n    tag_496:\n        /* \"#utility.yul\":14125:14134   */\n      dup2\n        /* \"#utility.yul\":14119:14123   */\n      dup2\n        /* \"#utility.yul\":14115:14135   */\n      sub\n        /* \"#utility.yul\":14110:14112   */\n      0x60\n        /* \"#utility.yul\":14099:14108   */\n      dup4\n        /* \"#utility.yul\":14095:14113   */\n      add\n        /* \"#utility.yul\":14088:14136   */\n      mstore\n        /* \"#utility.yul\":14153:14229   */\n      tag_497\n        /* \"#utility.yul\":14224:14228   */\n      dup2\n        /* \"#utility.yul\":14215:14221   */\n      dup5\n        /* \"#utility.yul\":14153:14229   */\n      tag_385\n      jump\t// in\n    tag_497:\n        /* \"#utility.yul\":14145:14229   */\n      swap1\n      pop\n        /* \"#utility.yul\":13596:14236   */\n      swap6\n      swap5\n      pop\n      pop\n      pop\n      pop\n      pop\n      jump\t// out\n        /* \"#utility.yul\":14242:14452   */\n    tag_26:\n        /* \"#utility.yul\":14329:14333   */\n      0x00\n        /* \"#utility.yul\":14367:14369   */\n      0x20\n        /* \"#utility.yul\":14356:14365   */\n      dup3\n        /* \"#utility.yul\":14352:14370   */\n      add\n        /* \"#utility.yul\":14344:14370   */\n      swap1\n      pop\n        /* \"#utility.yul\":14380:14445   */\n      tag_499\n        /* \"#utility.yul\":14442:14443   */\n      0x00\n        /* \"#utility.yul\":14431:14440   */\n      dup4\n        /* \"#utility.yul\":14427:14444   */\n      add\n        /* \"#utility.yul\":14418:14424   */\n      dup5\n        /* \"#utility.yul\":14380:14445   */\n      tag_381\n      jump\t// in\n    tag_499:\n        /* \"#utility.yul\":14242:14452   */\n      swap3\n      swap2\n      pop\n      pop\n      jump\t// out\n        /* \"#utility.yul\":14458:14771   */\n    tag_30:\n        /* \"#utility.yul\":14571:14575   */\n      0x00\n        /* \"#utility.yul\":14609:14611   */\n      0x20\n        /* \"#utility.yul\":14598:14607   */\n      dup3\n        /* \"#utility.yul\":14594:14612   */\n      add\n        /* \"#utility.yul\":14586:14612   */\n      swap1\n      pop\n        /* \"#utility.yul\":14658:14667   */\n      dup2\n        /* \"#utility.yul\":14652:14656   */\n      dup2\n        /* \"#utility.yul\":14648:14668   */\n      sub\n        /* \"#utility.yul\":14644:14645   */\n      0x00\n        /* \"#utility.yul\":14633:14642   */\n      dup4\n        /* \"#utility.yul\":14629:14646   */\n      add\n        /* \"#utility.yul\":14622:14669   */\n      mstore\n        /* \"#utility.yul\":14686:14764   */\n      tag_501\n        /* \"#utility.yul\":14759:14763   */\n      dup2\n        /* \"#utility.yul\":14750:14756   */\n      dup5\n        /* \"#utility.yul\":14686:14764   */\n      tag_395\n      jump\t// in\n    tag_501:\n        /* \"#utility.yul\":14678:14764   */\n      swap1\n      pop\n        /* \"#utility.yul\":14458:14771   */\n      swap3\n      swap2\n      pop\n      pop\n      jump\t// out\n        /* \"#utility.yul\":14777:15196   */\n    tag_226:\n        /* \"#utility.yul\":14943:14947   */\n      0x00\n        /* \"#utility.yul\":14981:14983   */\n      0x20\n        /* \"#utility.yul\":14970:14979   */\n      dup3\n        /* \"#utility.yul\":14966:14984   */\n      add\n        /* \"#utility.yul\":14958:14984   */\n      swap1\n      pop\n        /* \"#utility.yul\":15030:15039   */\n      dup2\n        /* \"#utility.yul\":15024:15028   */\n      dup2\n        /* \"#utility.yul\":15020:15040   */\n      sub\n        /* \"#utility.yul\":15016:15017   */\n      0x00\n        /* \"#utility.yul\":15005:15014   */\n      dup4\n        /* \"#utility.yul\":15001:15018   */\n      add\n        /* \"#utility.yul\":14994:15041   */\n      mstore\n        /* \"#utility.yul\":15058:15189   */\n      tag_503\n        /* \"#utility.yul\":15184:15188   */\n      dup2\n        /* \"#utility.yul\":15058:15189   */\n      tag_409\n      jump\t// in\n    tag_503:\n        /* \"#utility.yul\":15050:15189   */\n      swap1\n      pop\n        /* \"#utility.yul\":14777:15196   */\n      swap2\n      swap1\n      pop\n      jump\t// out\n        /* \"#utility.yul\":15202:15621   */\n    tag_193:\n        /* \"#utility.yul\":15368:15372   */\n      0x00\n        /* \"#utility.yul\":15406:15408   */\n      0x20\n        /* \"#utility.yul\":15395:15404   */\n      dup3\n        /* \"#utility.yul\":15391:15409   */\n      add\n        /* \"#utility.yul\":15383:15409   */\n      swap1\n      pop\n        /* \"#utility.yul\":15455:15464   */\n      dup2\n        /* \"#utility.yul\":15449:15453   */\n      dup2\n        /* \"#utility.yul\":15445:15465   */\n      sub\n        /* \"#utility.yul\":15441:15442   */\n      0x00\n        /* \"#utility.yul\":15430:15439   */\n      dup4\n        /* \"#utility.yul\":15426:15443   */\n      add\n        /* \"#utility.yul\":15419:15466   */\n      mstore\n        /* \"#utility.yul\":15483:15614   */\n      tag_505\n        /* \"#utility.yul\":15609:15613   */\n      dup2\n        /* \"#utility.yul\":15483:15614   */\n      tag_414\n      jump\t// in\n    tag_505:\n        /* \"#utility.yul\":15475:15614   */\n      swap1\n      pop\n        /* \"#utility.yul\":15202:15621   */\n      swap2\n      swap1\n      pop\n      jump\t// out\n        /* \"#utility.yul\":15627:16046   */\n    tag_287:\n        /* \"#utility.yul\":15793:15797   */\n      0x00\n        /* \"#utility.yul\":15831:15833   */\n      0x20\n        /* \"#utility.yul\":15820:15829   */\n      dup3\n        /* \"#utility.yul\":15816:15834   */\n      add\n        /* \"#utility.yul\":15808:15834   */\n      swap1\n      pop\n        /* \"#utility.yul\":15880:15889   */\n      dup2\n        /* \"#utility.yul\":15874:15878   */\n      dup2\n        /* \"#utility.yul\":15870:15890   */\n      sub\n        /* \"#utility.yul\":15866:15867   */\n      0x00\n        /* \"#utility.yul\":15855:15864   */\n      dup4\n        /* \"#utility.yul\":15851:15868   */\n      add\n        /* \"#utility.yul\":15844:15891   */\n      mstore\n        /* \"#utility.yul\":15908:16039   */\n      tag_507\n        /* \"#utility.yul\":16034:16038   */\n      dup2\n        /* \"#utility.yul\":15908:16039   */\n      tag_419\n      jump\t// in\n    tag_507:\n        /* \"#utility.yul\":15900:16039   */\n      swap1\n      pop\n        /* \"#utility.yul\":15627:16046   */\n      swap2\n      swap1\n      pop\n      jump\t// out\n        /* \"#utility.yul\":16052:16471   */\n    tag_196:\n        /* \"#utility.yul\":16218:16222   */\n      0x00\n        /* \"#utility.yul\":16256:16258   */\n      0x20\n        /* \"#utility.yul\":16245:16254   */\n      dup3\n        /* \"#utility.yul\":16241:16259   */\n      add\n        /* \"#utility.yul\":16233:16259   */\n      swap1\n      pop\n        /* \"#utility.yul\":16305:16314   */\n      dup2\n        /* \"#utility.yul\":16299:16303   */\n      dup2\n        /* \"#utility.yul\":16295:16315   */\n      sub\n        /* \"#utility.yul\":16291:16292   */\n      0x00\n        /* \"#utility.yul\":16280:16289   */\n      dup4\n        /* \"#utility.yul\":16276:16293   */\n      add\n        /* \"#utility.yul\":16269:16316   */\n      mstore\n        /* \"#utility.yul\":16333:16464   */\n      tag_509\n        /* \"#utility.yul\":16459:16463   */\n      dup2\n        /* \"#utility.yul\":16333:16464   */\n      tag_424\n      jump\t// in\n    tag_509:\n        /* \"#utility.yul\":16325:16464   */\n      swap1\n      pop\n        /* \"#utility.yul\":16052:16471   */\n      swap2\n      swap1\n      pop\n      jump\t// out\n        /* \"#utility.yul\":16477:16896   */\n    tag_218:\n        /* \"#utility.yul\":16643:16647   */\n      0x00\n        /* \"#utility.yul\":16681:16683   */\n      0x20\n        /* \"#utility.yul\":16670:16679   */\n      dup3\n        /* \"#utility.yul\":16666:16684   */\n      add\n        /* \"#utility.yul\":16658:16684   */\n      swap1\n      pop\n        /* \"#utility.yul\":16730:16739   */\n      dup2\n        /* \"#utility.yul\":16724:16728   */\n      dup2\n        /* \"#utility.yul\":16720:16740   */\n      sub\n        /* \"#utility.yul\":16716:16717   */\n      0x00\n        /* \"#utility.yul\":16705:16714   */\n      dup4\n        /* \"#utility.yul\":16701:16718   */\n      add\n        /* \"#utility.yul\":16694:16741   */\n      mstore\n        /* \"#utility.yul\":16758:16889   */\n      tag_511\n        /* \"#utility.yul\":16884:16888   */\n      dup2\n        /* \"#utility.yul\":16758:16889   */\n      tag_429\n      jump\t// in\n    tag_511:\n        /* \"#utility.yul\":16750:16889   */\n      swap1\n      pop\n        /* \"#utility.yul\":16477:16896   */\n      swap2\n      swap1\n      pop\n      jump\t// out\n        /* \"#utility.yul\":16902:17321   */\n    tag_183:\n        /* \"#utility.yul\":17068:17072   */\n      0x00\n        /* \"#utility.yul\":17106:17108   */\n      0x20\n        /* \"#utility.yul\":17095:17104   */\n      dup3\n        /* \"#utility.yul\":17091:17109   */\n      add\n        /* \"#utility.yul\":17083:17109   */\n      swap1\n      pop\n        /* \"#utility.yul\":17155:17164   */\n      dup2\n        /* \"#utility.yul\":17149:17153   */\n      dup2\n        /* \"#utility.yul\":17145:17165   */\n      sub\n        /* \"#utility.yul\":17141:17142   */\n      0x00\n        /* \"#utility.yul\":17130:17139   */\n      dup4\n        /* \"#utility.yul\":17126:17143   */\n      add\n        /* \"#utility.yul\":17119:17166   */\n      mstore\n        /* \"#utility.yul\":17183:17314   */\n      tag_513\n        /* \"#utility.yul\":17309:17313   */\n      dup2\n        /* \"#utility.yul\":17183:17314   */\n      tag_434\n      jump\t// in\n    tag_513:\n        /* \"#utility.yul\":17175:17314   */\n      swap1\n      pop\n        /* \"#utility.yul\":16902:17321   */\n      swap2\n      swap1\n      pop\n      jump\t// out\n        /* \"#utility.yul\":17327:17746   */\n    tag_157:\n        /* \"#utility.yul\":17493:17497   */\n      0x00\n        /* \"#utility.yul\":17531:17533   */\n      0x20\n        /* \"#utility.yul\":17520:17529   */\n      dup3\n        /* \"#utility.yul\":17516:17534   */\n      add\n        /* \"#utility.yul\":17508:17534   */\n      swap1\n      pop\n        /* \"#utility.yul\":17580:17589   */\n      dup2\n        /* \"#utility.yul\":17574:17578   */\n      dup2\n        /* \"#utility.yul\":17570:17590   */\n      sub\n        /* \"#utility.yul\":17566:17567   */\n      0x00\n        /* \"#utility.yul\":17555:17564   */\n      dup4\n        /* \"#utility.yul\":17551:17568   */\n      add\n        /* \"#utility.yul\":17544:17591   */\n      mstore\n        /* \"#utility.yul\":17608:17739   */\n      tag_515\n        /* \"#utility.yul\":17734:17738   */\n      dup2\n        /* \"#utility.yul\":17608:17739   */\n      tag_439\n      jump\t// in\n    tag_515:\n        /* \"#utility.yul\":17600:17739   */\n      swap1\n      pop\n        /* \"#utility.yul\":17327:17746   */\n      swap2\n      swap1\n      pop\n      jump\t// out\n        /* \"#utility.yul\":17752:18171   */\n    tag_114:\n        /* \"#utility.yul\":17918:17922   */\n      0x00\n        /* \"#utility.yul\":17956:17958   */\n      0x20\n        /* \"#utility.yul\":17945:17954   */\n      dup3\n        /* \"#utility.yul\":17941:17959   */\n      add\n        /* \"#utility.yul\":17933:17959   */\n      swap1\n      pop\n        /* \"#utility.yul\":18005:18014   */\n      dup2\n        /* \"#utility.yul\":17999:18003   */\n      dup2\n        /* \"#utility.yul\":17995:18015   */\n      sub\n        /* \"#utility.yul\":17991:17992   */\n      0x00\n        /* \"#utility.yul\":17980:17989   */\n      dup4\n        /* \"#utility.yul\":17976:17993   */\n      add\n        /* \"#utility.yul\":17969:18016   */\n      mstore\n        /* \"#utility.yul\":18033:18164   */\n      tag_517\n        /* \"#utility.yul\":18159:18163   */\n      dup2\n        /* \"#utility.yul\":18033:18164   */\n      tag_444\n      jump\t// in\n    tag_517:\n        /* \"#utility.yul\":18025:18164   */\n      swap1\n      pop\n        /* \"#utility.yul\":17752:18171   */\n      swap2\n      swap1\n      pop\n      jump\t// out\n        /* \"#utility.yul\":18177:18596   */\n    tag_138:\n        /* \"#utility.yul\":18343:18347   */\n      0x00\n        /* \"#utility.yul\":18381:18383   */\n      0x20\n        /* \"#utility.yul\":18370:18379   */\n      dup3\n        /* \"#utility.yul\":18366:18384   */\n      add\n        /* \"#utility.yul\":18358:18384   */\n      swap1\n      pop\n        /* \"#utility.yul\":18430:18439   */\n      dup2\n        /* \"#utility.yul\":18424:18428   */\n      dup2\n        /* \"#utility.yul\":18420:18440   */\n      sub\n        /* \"#utility.yul\":18416:18417   */\n      0x00\n        /* \"#utility.yul\":18405:18414   */\n      dup4\n        /* \"#utility.yul\":18401:18418   */\n      add\n        /* \"#utility.yul\":18394:18441   */\n      mstore\n        /* \"#utility.yul\":18458:18589   */\n      tag_519\n        /* \"#utility.yul\":18584:18588   */\n      dup2\n        /* \"#utility.yul\":18458:18589   */\n      tag_449\n      jump\t// in\n    tag_519:\n        /* \"#utility.yul\":18450:18589   */\n      swap1\n      pop\n        /* \"#utility.yul\":18177:18596   */\n      swap2\n      swap1\n      pop\n      jump\t// out\n        /* \"#utility.yul\":18602:19021   */\n    tag_134:\n        /* \"#utility.yul\":18768:18772   */\n      0x00\n        /* \"#utility.yul\":18806:18808   */\n      0x20\n        /* \"#utility.yul\":18795:18804   */\n      dup3\n        /* \"#utility.yul\":18791:18809   */\n      add\n        /* \"#utility.yul\":18783:18809   */\n      swap1\n      pop\n        /* \"#utility.yul\":18855:18864   */\n      dup2\n        /* \"#utility.yul\":18849:18853   */\n      dup2\n        /* \"#utility.yul\":18845:18865   */\n      sub\n        /* \"#utility.yul\":18841:18842   */\n      0x00\n        /* \"#utility.yul\":18830:18839   */\n      dup4\n        /* \"#utility.yul\":18826:18843   */\n      add\n        /* \"#utility.yul\":18819:18866   */\n      mstore\n        /* \"#utility.yul\":18883:19014   */\n      tag_521\n        /* \"#utility.yul\":19009:19013   */\n      dup2\n        /* \"#utility.yul\":18883:19014   */\n      tag_454\n      jump\t// in\n    tag_521:\n        /* \"#utility.yul\":18875:19014   */\n      swap1\n      pop\n        /* \"#utility.yul\":18602:19021   */\n      swap2\n      swap1\n      pop\n      jump\t// out\n        /* \"#utility.yul\":19027:19446   */\n    tag_283:\n        /* \"#utility.yul\":19193:19197   */\n      0x00\n        /* \"#utility.yul\":19231:19233   */\n      0x20\n        /* \"#utility.yul\":19220:19229   */\n      dup3\n        /* \"#utility.yul\":19216:19234   */\n      add\n        /* \"#utility.yul\":19208:19234   */\n      swap1\n      pop\n        /* \"#utility.yul\":19280:19289   */\n      dup2\n        /* \"#utility.yul\":19274:19278   */\n      dup2\n        /* \"#utility.yul\":19270:19290   */\n      sub\n        /* \"#utility.yul\":19266:19267   */\n      0x00\n        /* \"#utility.yul\":19255:19264   */\n      dup4\n        /* \"#utility.yul\":19251:19268   */\n      add\n        /* \"#utility.yul\":19244:19291   */\n      mstore\n        /* \"#utility.yul\":19308:19439   */\n      tag_523\n        /* \"#utility.yul\":19434:19438   */\n      dup2\n        /* \"#utility.yul\":19308:19439   */\n      tag_459\n      jump\t// in\n    tag_523:\n        /* \"#utility.yul\":19300:19439   */\n      swap1\n      pop\n        /* \"#utility.yul\":19027:19446   */\n      swap2\n      swap1\n      pop\n      jump\t// out\n        /* \"#utility.yul\":19452:19871   */\n    tag_101:\n        /* \"#utility.yul\":19618:19622   */\n      0x00\n        /* \"#utility.yul\":19656:19658   */\n      0x20\n        /* \"#utility.yul\":19645:19654   */\n      dup3\n        /* \"#utility.yul\":19641:19659   */\n      add\n        /* \"#utility.yul\":19633:19659   */\n      swap1\n      pop\n        /* \"#utility.yul\":19705:19714   */\n      dup2\n        /* \"#utility.yul\":19699:19703   */\n      dup2\n        /* \"#utility.yul\":19695:19715   */\n      sub\n        /* \"#utility.yul\":19691:19692   */\n      0x00\n        /* \"#utility.yul\":19680:19689   */\n      dup4\n        /* \"#utility.yul\":19676:19693   */\n      add\n        /* \"#utility.yul\":19669:19716   */\n      mstore\n        /* \"#utility.yul\":19733:19864   */\n      tag_525\n        /* \"#utility.yul\":19859:19863   */\n      dup2\n        /* \"#utility.yul\":19733:19864   */\n      tag_464\n      jump\t// in\n    tag_525:\n        /* \"#utility.yul\":19725:19864   */\n      swap1\n      pop\n        /* \"#utility.yul\":19452:19871   */\n      swap2\n      swap1\n      pop\n      jump\t// out\n        /* \"#utility.yul\":19877:20296   */\n    tag_106:\n        /* \"#utility.yul\":20043:20047   */\n      0x00\n        /* \"#utility.yul\":20081:20083   */\n      0x20\n        /* \"#utility.yul\":20070:20079   */\n      dup3\n        /* \"#utility.yul\":20066:20084   */\n      add\n        /* \"#utility.yul\":20058:20084   */\n      swap1\n      pop\n        /* \"#utility.yul\":20130:20139   */\n      dup2\n        /* \"#utility.yul\":20124:20128   */\n      dup2\n        /* \"#utility.yul\":20120:20140   */\n      sub\n        /* \"#utility.yul\":20116:20117   */\n      0x00\n        /* \"#utility.yul\":20105:20114   */\n      dup4\n        /* \"#utility.yul\":20101:20118   */\n      add\n        /* \"#utility.yul\":20094:20141   */\n      mstore\n        /* \"#utility.yul\":20158:20289   */\n      tag_527\n        /* \"#utility.yul\":20284:20288   */\n      dup2\n        /* \"#utility.yul\":20158:20289   */\n      tag_469\n      jump\t// in\n    tag_527:\n        /* \"#utility.yul\":20150:20289   */\n      swap1\n      pop\n        /* \"#utility.yul\":19877:20296   */\n      swap2\n      swap1\n      pop\n      jump\t// out\n        /* \"#utility.yul\":20302:20721   */\n    tag_123:\n        /* \"#utility.yul\":20468:20472   */\n      0x00\n        /* \"#utility.yul\":20506:20508   */\n      0x20\n        /* \"#utility.yul\":20495:20504   */\n      dup3\n        /* \"#utility.yul\":20491:20509   */\n      add\n        /* \"#utility.yul\":20483:20509   */\n      swap1\n      pop\n        /* \"#utility.yul\":20555:20564   */\n      dup2\n        /* \"#utility.yul\":20549:20553   */\n      dup2\n        /* \"#utility.yul\":20545:20565   */\n      sub\n        /* \"#utility.yul\":20541:20542   */\n      0x00\n        /* \"#utility.yul\":20530:20539   */\n      dup4\n        /* \"#utility.yul\":20526:20543   */\n      add\n        /* \"#utility.yul\":20519:20566   */\n      mstore\n        /* \"#utility.yul\":20583:20714   */\n      tag_529\n        /* \"#utility.yul\":20709:20713   */\n      dup2\n        /* \"#utility.yul\":20583:20714   */\n      tag_474\n      jump\t// in\n    tag_529:\n        /* \"#utility.yul\":20575:20714   */\n      swap1\n      pop\n        /* \"#utility.yul\":20302:20721   */\n      swap2\n      swap1\n      pop\n      jump\t// out\n        /* \"#utility.yul\":20727:21146   */\n    tag_164:\n        /* \"#utility.yul\":20893:20897   */\n      0x00\n        /* \"#utility.yul\":20931:20933   */\n      0x20\n        /* \"#utility.yul\":20920:20929   */\n      dup3\n        /* \"#utility.yul\":20916:20934   */\n      add\n        /* \"#utility.yul\":20908:20934   */\n      swap1\n      pop\n        /* \"#utility.yul\":20980:20989   */\n      dup2\n        /* \"#utility.yul\":20974:20978   */\n      dup2\n        /* \"#utility.yul\":20970:20990   */\n      sub\n        /* \"#utility.yul\":20966:20967   */\n      0x00\n        /* \"#utility.yul\":20955:20964   */\n      dup4\n        /* \"#utility.yul\":20951:20968   */\n      add\n        /* \"#utility.yul\":20944:20991   */\n      mstore\n        /* \"#utility.yul\":21008:21139   */\n      tag_531\n        /* \"#utility.yul\":21134:21138   */\n      dup2\n        /* \"#utility.yul\":21008:21139   */\n      tag_479\n      jump\t// in\n    tag_531:\n        /* \"#utility.yul\":21000:21139   */\n      swap1\n      pop\n        /* \"#utility.yul\":20727:21146   */\n      swap2\n      swap1\n      pop\n      jump\t// out\n        /* \"#utility.yul\":21152:21374   */\n    tag_60:\n        /* \"#utility.yul\":21245:21249   */\n      0x00\n        /* \"#utility.yul\":21283:21285   */\n      0x20\n        /* \"#utility.yul\":21272:21281   */\n      dup3\n        /* \"#utility.yul\":21268:21286   */\n      add\n        /* \"#utility.yul\":21260:21286   */\n      swap1\n      pop\n        /* \"#utility.yul\":21296:21367   */\n      tag_533\n        /* \"#utility.yul\":21364:21365   */\n      0x00\n        /* \"#utility.yul\":21353:21362   */\n      dup4\n        /* \"#utility.yul\":21349:21366   */\n      add\n        /* \"#utility.yul\":21340:21346   */\n      dup5\n        /* \"#utility.yul\":21296:21367   */\n      tag_484\n      jump\t// in\n    tag_533:\n        /* \"#utility.yul\":21152:21374   */\n      swap3\n      swap2\n      pop\n      pop\n      jump\t// out\n        /* \"#utility.yul\":21380:21509   */\n    tag_298:\n        /* \"#utility.yul\":21414:21420   */\n      0x00\n        /* \"#utility.yul\":21441:21461   */\n      tag_535\n      tag_536\n      jump\t// in\n    tag_535:\n        /* \"#utility.yul\":21431:21461   */\n      swap1\n      pop\n        /* \"#utility.yul\":21470:21503   */\n      tag_537\n        /* \"#utility.yul\":21498:21502   */\n      dup3\n        /* \"#utility.yul\":21490:21496   */\n      dup3\n        /* \"#utility.yul\":21470:21503   */\n      tag_538\n      jump\t// in\n    tag_537:\n        /* \"#utility.yul\":21380:21509   */\n      swap2\n      swap1\n      pop\n      jump\t// out\n        /* \"#utility.yul\":21515:21590   */\n    tag_536:\n        /* \"#utility.yul\":21548:21554   */\n      0x00\n        /* \"#utility.yul\":21581:21583   */\n      0x40\n        /* \"#utility.yul\":21575:21584   */\n      mload\n        /* \"#utility.yul\":21565:21584   */\n      swap1\n      pop\n        /* \"#utility.yul\":21515:21590   */\n      swap1\n      jump\t// out\n        /* \"#utility.yul\":21596:21903   */\n    tag_297:\n        /* \"#utility.yul\":21657:21661   */\n      0x00\n        /* \"#utility.yul\":21747:21765   */\n      0xffffffffffffffff\n        /* \"#utility.yul\":21739:21745   */\n      dup3\n        /* \"#utility.yul\":21736:21766   */\n      gt\n        /* \"#utility.yul\":21733:21789   */\n      iszero\n      tag_541\n      jumpi\n        /* \"#utility.yul\":21769:21787   */\n      tag_542\n      tag_238\n      jump\t// in\n    tag_542:\n        /* \"#utility.yul\":21733:21789   */\n    tag_541:\n        /* \"#utility.yul\":21807:21836   */\n      tag_543\n        /* \"#utility.yul\":21829:21835   */\n      dup3\n        /* \"#utility.yul\":21807:21836   */\n      tag_394\n      jump\t// in\n    tag_543:\n        /* \"#utility.yul\":21799:21836   */\n      swap1\n      pop\n        /* \"#utility.yul\":21891:21895   */\n      0x20\n        /* \"#utility.yul\":21885:21889   */\n      dup2\n        /* \"#utility.yul\":21881:21896   */\n      add\n        /* \"#utility.yul\":21873:21896   */\n      swap1\n      pop\n        /* \"#utility.yul\":21596:21903   */\n      swap2\n      swap1\n      pop\n      jump\t// out\n        /* \"#utility.yul\":21909:22007   */\n    tag_388:\n        /* \"#utility.yul\":21960:21966   */\n      0x00\n        /* \"#utility.yul\":21994:21999   */\n      dup2\n        /* \"#utility.yul\":21988:22000   */\n      mload\n        /* \"#utility.yul\":21978:22000   */\n      swap1\n      pop\n        /* \"#utility.yul\":21909:22007   */\n      swap2\n      swap1\n      pop\n      jump\t// out\n        /* \"#utility.yul\":22013:22112   */\n    tag_398:\n        /* \"#utility.yul\":22065:22071   */\n      0x00\n        /* \"#utility.yul\":22099:22104   */\n      dup2\n        /* \"#utility.yul\":22093:22105   */\n      mload\n        /* \"#utility.yul\":22083:22105   */\n      swap1\n      pop\n        /* \"#utility.yul\":22013:22112   */\n      swap2\n      swap1\n      pop\n      jump\t// out\n        /* \"#utility.yul\":22118:22286   */\n    tag_390:\n        /* \"#utility.yul\":22201:22212   */\n      0x00\n        /* \"#utility.yul\":22235:22241   */\n      dup3\n        /* \"#utility.yul\":22230:22233   */\n      dup3\n        /* \"#utility.yul\":22223:22242   */\n      mstore\n        /* \"#utility.yul\":22275:22279   */\n      0x20\n        /* \"#utility.yul\":22270:22273   */\n      dup3\n        /* \"#utility.yul\":22266:22280   */\n      add\n        /* \"#utility.yul\":22251:22280   */\n      swap1\n      pop\n        /* \"#utility.yul\":22118:22286   */\n      swap3\n      swap2\n      pop\n      pop\n      jump\t// out\n        /* \"#utility.yul\":22292:22461   */\n    tag_400:\n        /* \"#utility.yul\":22376:22387   */\n      0x00\n        /* \"#utility.yul\":22410:22416   */\n      dup3\n        /* \"#utility.yul\":22405:22408   */\n      dup3\n        /* \"#utility.yul\":22398:22417   */\n      mstore\n        /* \"#utility.yul\":22450:22454   */\n      0x20\n        /* \"#utility.yul\":22445:22448   */\n      dup3\n        /* \"#utility.yul\":22441:22455   */\n      add\n        /* \"#utility.yul\":22426:22455   */\n      swap1\n      pop\n        /* \"#utility.yul\":22292:22461   */\n      swap3\n      swap2\n      pop\n      pop\n      jump\t// out\n        /* \"#utility.yul\":22467:22615   */\n    tag_407:\n        /* \"#utility.yul\":22569:22580   */\n      0x00\n        /* \"#utility.yul\":22606:22609   */\n      dup2\n        /* \"#utility.yul\":22591:22609   */\n      swap1\n      pop\n        /* \"#utility.yul\":22467:22615   */\n      swap3\n      swap2\n      pop\n      pop\n      jump\t// out\n        /* \"#utility.yul\":22621:22926   */\n    tag_203:\n        /* \"#utility.yul\":22661:22664   */\n      0x00\n        /* \"#utility.yul\":22680:22700   */\n      tag_550\n        /* \"#utility.yul\":22698:22699   */\n      dup3\n        /* \"#utility.yul\":22680:22700   */\n      tag_487\n      jump\t// in\n    tag_550:\n        /* \"#utility.yul\":22675:22700   */\n      swap2\n      pop\n        /* \"#utility.yul\":22714:22734   */\n      tag_551\n        /* \"#utility.yul\":22732:22733   */\n      dup4\n        /* \"#utility.yul\":22714:22734   */\n      tag_487\n      jump\t// in\n    tag_551:\n        /* \"#utility.yul\":22709:22734   */\n      swap3\n      pop\n        /* \"#utility.yul\":22868:22869   */\n      dup3\n        /* \"#utility.yul\":22800:22866   */\n      0xffffffffffffffffffffffffffffffffffffffffffffffffffffffffffffffff\n        /* \"#utility.yul\":22796:22870   */\n      sub\n        /* \"#utility.yul\":22793:22794   */\n      dup3\n        /* \"#utility.yul\":22790:22871   */\n      gt\n        /* \"#utility.yul\":22787:22894   */\n      iszero\n      tag_552\n      jumpi\n        /* \"#utility.yul\":22874:22892   */\n      tag_553\n      tag_554\n      jump\t// in\n    tag_553:\n        /* \"#utility.yul\":22787:22894   */\n    tag_552:\n        /* \"#utility.yul\":22918:22919   */\n      dup3\n        /* \"#utility.yul\":22915:22916   */\n      dup3\n        /* \"#utility.yul\":22911:22920   */\n      add\n        /* \"#utility.yul\":22904:22920   */\n      swap1\n      pop\n        /* \"#utility.yul\":22621:22926   */\n      swap3\n      swap2\n      pop\n      pop\n      jump\t// out\n        /* \"#utility.yul\":22932:23117   */\n    tag_235:\n        /* \"#utility.yul\":22972:22973   */\n      0x00\n        /* \"#utility.yul\":22989:23009   */\n      tag_556\n        /* \"#utility.yul\":23007:23008   */\n      dup3\n        /* \"#utility.yul\":22989:23009   */\n      tag_487\n      jump\t// in\n    tag_556:\n        /* \"#utility.yul\":22984:23009   */\n      swap2\n      pop\n        /* \"#utility.yul\":23023:23043   */\n      tag_557\n        /* \"#utility.yul\":23041:23042   */\n      dup4\n        /* \"#utility.yul\":23023:23043   */\n      tag_487\n      jump\t// in\n    tag_557:\n        /* \"#utility.yul\":23018:23043   */\n      swap3\n      pop\n        /* \"#utility.yul\":23062:23063   */\n      dup3\n        /* \"#utility.yul\":23052:23087   */\n      tag_558\n      jumpi\n        /* \"#utility.yul\":23067:23085   */\n      tag_559\n      tag_560\n      jump\t// in\n    tag_559:\n        /* \"#utility.yul\":23052:23087   */\n    tag_558:\n        /* \"#utility.yul\":23109:23110   */\n      dup3\n        /* \"#utility.yul\":23106:23107   */\n      dup3\n        /* \"#utility.yul\":23102:23111   */\n      div\n        /* \"#utility.yul\":23097:23111   */\n      swap1\n      pop\n        /* \"#utility.yul\":22932:23117   */\n      swap3\n      swap2\n      pop\n      pop\n      jump\t// out\n        /* \"#utility.yul\":23123:23314   */\n    tag_201:\n        /* \"#utility.yul\":23163:23167   */\n      0x00\n        /* \"#utility.yul\":23183:23203   */\n      tag_562\n        /* \"#utility.yul\":23201:23202   */\n      dup3\n        /* \"#utility.yul\":23183:23203   */\n      tag_487\n      jump\t// in\n    tag_562:\n        /* \"#utility.yul\":23178:23203   */\n      swap2\n      pop\n        /* \"#utility.yul\":23217:23237   */\n      tag_563\n        /* \"#utility.yul\":23235:23236   */\n      dup4\n        /* \"#utility.yul\":23217:23237   */\n      tag_487\n      jump\t// in\n    tag_563:\n        /* \"#utility.yul\":23212:23237   */\n      swap3\n      pop\n        /* \"#utility.yul\":23256:23257   */\n      dup3\n        /* \"#utility.yul\":23253:23254   */\n      dup3\n        /* \"#utility.yul\":23250:23258   */\n      lt\n        /* \"#utility.yul\":23247:23281   */\n      iszero\n      tag_564\n      jumpi\n        /* \"#utility.yul\":23261:23279   */\n      tag_565\n      tag_554\n      jump\t// in\n    tag_565:\n        /* \"#utility.yul\":23247:23281   */\n    tag_564:\n        /* \"#utility.yul\":23306:23307   */\n      dup3\n        /* \"#utility.yul\":23303:23304   */\n      dup3\n        /* \"#utility.yul\":23299:23308   */\n      sub\n        /* \"#utility.yul\":23291:23308   */\n      swap1\n      pop\n        /* \"#utility.yul\":23123:23314   */\n      swap3\n      swap2\n      pop\n      pop\n      jump\t// out\n        /* \"#utility.yul\":23320:23416   */\n    tag_380:\n        /* \"#utility.yul\":23357:23364   */\n      0x00\n        /* \"#utility.yul\":23386:23410   */\n      tag_567\n        /* \"#utility.yul\":23404:23409   */\n      dup3\n        /* \"#utility.yul\":23386:23410   */\n      tag_568\n      jump\t// in\n    tag_567:\n        /* \"#utility.yul\":23375:23410   */\n      swap1\n      pop\n        /* \"#utility.yul\":23320:23416   */\n      swap2\n      swap1\n      pop\n      jump\t// out\n        /* \"#utility.yul\":23422:23512   */\n    tag_384:\n        /* \"#utility.yul\":23456:23463   */\n      0x00\n        /* \"#utility.yul\":23499:23504   */\n      dup2\n        /* \"#utility.yul\":23492:23505   */\n      iszero\n        /* \"#utility.yul\":23485:23506   */\n      iszero\n        /* \"#utility.yul\":23474:23506   */\n      swap1\n      pop\n        /* \"#utility.yul\":23422:23512   */\n      swap2\n      swap1\n      pop\n      jump\t// out\n        /* \"#utility.yul\":23518:23667   */\n    tag_570:\n        /* \"#utility.yul\":23554:23561   */\n      0x00\n        /* \"#utility.yul\":23594:23660   */\n      0xffffffff00000000000000000000000000000000000000000000000000000000\n        /* \"#utility.yul\":23587:23592   */\n      dup3\n        /* \"#utility.yul\":23583:23661   */\n      and\n        /* \"#utility.yul\":23572:23661   */\n      swap1\n      pop\n        /* \"#utility.yul\":23518:23667   */\n      swap2\n      swap1\n      pop\n      jump\t// out\n        /* \"#utility.yul\":23673:23799   */\n    tag_568:\n        /* \"#utility.yul\":23710:23717   */\n      0x00\n        /* \"#utility.yul\":23750:23792   */\n      0xffffffffffffffffffffffffffffffffffffffff\n        /* \"#utility.yul\":23743:23748   */\n      dup3\n        /* \"#utility.yul\":23739:23793   */\n      and\n        /* \"#utility.yul\":23728:23793   */\n      swap1\n      pop\n        /* \"#utility.yul\":23673:23799   */\n      swap2\n      swap1\n      pop\n      jump\t// out\n        /* \"#utility.yul\":23805:23882   */\n    tag_487:\n        /* \"#utility.yul\":23842:23849   */\n      0x00\n        /* \"#utility.yul\":23871:23876   */\n      dup2\n        /* \"#utility.yul\":23860:23876   */\n      swap1\n      pop\n        /* \"#utility.yul\":23805:23882   */\n      swap2\n      swap1\n      pop\n      jump\t// out\n        /* \"#utility.yul\":23888:24042   */\n    tag_303:\n        /* \"#utility.yul\":23972:23978   */\n      dup3\n        /* \"#utility.yul\":23967:23970   */\n      dup2\n        /* \"#utility.yul\":23962:23965   */\n      dup4\n        /* \"#utility.yul\":23949:23979   */\n      calldatacopy\n        /* \"#utility.yul\":24034:24035   */\n      0x00\n        /* \"#utility.yul\":24025:24031   */\n      dup4\n        /* \"#utility.yul\":24020:24023   */\n      dup4\n        /* \"#utility.yul\":24016:24032   */\n      add\n        /* \"#utility.yul\":24009:24036   */\n      mstore\n        /* \"#utility.yul\":23888:24042   */\n      pop\n      pop\n      pop\n      jump\t// out\n        /* \"#utility.yul\":24048:24355   */\n    tag_392:\n        /* \"#utility.yul\":24116:24117   */\n      0x00\n        /* \"#utility.yul\":24126:24239   */\n    tag_576:\n        /* \"#utility.yul\":24140:24146   */\n      dup4\n        /* \"#utility.yul\":24137:24138   */\n      dup2\n        /* \"#utility.yul\":24134:24147   */\n      lt\n        /* \"#utility.yul\":24126:24239   */\n      iszero\n      tag_578\n      jumpi\n        /* \"#utility.yul\":24225:24226   */\n      dup1\n        /* \"#utility.yul\":24220:24223   */\n      dup3\n        /* \"#utility.yul\":24216:24227   */\n      add\n        /* \"#utility.yul\":24210:24228   */\n      mload\n        /* \"#utility.yul\":24206:24207   */\n      dup2\n        /* \"#utility.yul\":24201:24204   */\n      dup5\n        /* \"#utility.yul\":24197:24208   */\n      add\n        /* \"#utility.yul\":24190:24229   */\n      mstore\n        /* \"#utility.yul\":24162:24164   */\n      0x20\n        /* \"#utility.yul\":24159:24160   */\n      dup2\n        /* \"#utility.yul\":24155:24165   */\n      add\n        /* \"#utility.yul\":24150:24165   */\n      swap1\n      pop\n        /* \"#utility.yul\":24126:24239   */\n      jump(tag_576)\n    tag_578:\n        /* \"#utility.yul\":24257:24263   */\n      dup4\n        /* \"#utility.yul\":24254:24255   */\n      dup2\n        /* \"#utility.yul\":24251:24264   */\n      gt\n        /* \"#utility.yul\":24248:24349   */\n      iszero\n      tag_579\n      jumpi\n        /* \"#utility.yul\":24337:24338   */\n      0x00\n        /* \"#utility.yul\":24328:24334   */\n      dup5\n        /* \"#utility.yul\":24323:24326   */\n      dup5\n        /* \"#utility.yul\":24319:24335   */\n      add\n        /* \"#utility.yul\":24312:24339   */\n      mstore\n        /* \"#utility.yul\":24248:24349   */\n    tag_579:\n        /* \"#utility.yul\":24097:24355   */\n      pop\n        /* \"#utility.yul\":24048:24355   */\n      pop\n      pop\n      pop\n      jump\t// out\n        /* \"#utility.yul\":24361:24681   */\n    tag_91:\n        /* \"#utility.yul\":24405:24411   */\n      0x00\n        /* \"#utility.yul\":24442:24443   */\n      0x02\n        /* \"#utility.yul\":24436:24440   */\n      dup3\n        /* \"#utility.yul\":24432:24444   */\n      div\n        /* \"#utility.yul\":24422:24444   */\n      swap1\n      pop\n        /* \"#utility.yul\":24489:24490   */\n      0x01\n        /* \"#utility.yul\":24483:24487   */\n      dup3\n        /* \"#utility.yul\":24479:24491   */\n      and\n        /* \"#utility.yul\":24510:24528   */\n      dup1\n        /* \"#utility.yul\":24500:24581   */\n      tag_581\n      jumpi\n        /* \"#utility.yul\":24566:24570   */\n      0x7f\n        /* \"#utility.yul\":24558:24564   */\n      dup3\n        /* \"#utility.yul\":24554:24571   */\n      and\n        /* \"#utility.yul\":24544:24571   */\n      swap2\n      pop\n        /* \"#utility.yul\":24500:24581   */\n    tag_581:\n        /* \"#utility.yul\":24628:24630   */\n      0x20\n        /* \"#utility.yul\":24620:24626   */\n      dup3\n        /* \"#utility.yul\":24617:24631   */\n      lt\n        /* \"#utility.yul\":24597:24615   */\n      dup2\n        /* \"#utility.yul\":24594:24632   */\n      eq\n        /* \"#utility.yul\":24591:24675   */\n      iszero\n      tag_582\n      jumpi\n        /* \"#utility.yul\":24647:24665   */\n      tag_583\n      tag_584\n      jump\t// in\n    tag_583:\n        /* \"#utility.yul\":24591:24675   */\n    tag_582:\n        /* \"#utility.yul\":24412:24681   */\n      pop\n        /* \"#utility.yul\":24361:24681   */\n      swap2\n      swap1\n      pop\n      jump\t// out\n        /* \"#utility.yul\":24687:24968   */\n    tag_538:\n        /* \"#utility.yul\":24770:24797   */\n      tag_586\n        /* \"#utility.yul\":24792:24796   */\n      dup3\n        /* \"#utility.yul\":24770:24797   */\n      tag_394\n      jump\t// in\n    tag_586:\n        /* \"#utility.yul\":24762:24768   */\n      dup2\n        /* \"#utility.yul\":24758:24798   */\n      add\n        /* \"#utility.yul\":24900:24906   */\n      dup2\n        /* \"#utility.yul\":24888:24898   */\n      dup2\n        /* \"#utility.yul\":24885:24907   */\n      lt\n        /* \"#utility.yul\":24864:24882   */\n      0xffffffffffffffff\n        /* \"#utility.yul\":24852:24862   */\n      dup3\n        /* \"#utility.yul\":24849:24883   */\n      gt\n        /* \"#utility.yul\":24846:24908   */\n      or\n        /* \"#utility.yul\":24843:24931   */\n      iszero\n      tag_587\n      jumpi\n        /* \"#utility.yul\":24911:24929   */\n      tag_588\n      tag_238\n      jump\t// in\n    tag_588:\n        /* \"#utility.yul\":24843:24931   */\n    tag_587:\n        /* \"#utility.yul\":24951:24961   */\n      dup1\n        /* \"#utility.yul\":24947:24949   */\n      0x40\n        /* \"#utility.yul\":24940:24962   */\n      mstore\n        /* \"#utility.yul\":24730:24968   */\n      pop\n        /* \"#utility.yul\":24687:24968   */\n      pop\n      pop\n      jump\t// out\n        /* \"#utility.yul\":24974:25207   */\n    tag_233:\n        /* \"#utility.yul\":25013:25016   */\n      0x00\n        /* \"#utility.yul\":25036:25060   */\n      tag_590\n        /* \"#utility.yul\":25054:25059   */\n      dup3\n        /* \"#utility.yul\":25036:25060   */\n      tag_487\n      jump\t// in\n    tag_590:\n        /* \"#utility.yul\":25027:25060   */\n      swap2\n      pop\n        /* \"#utility.yul\":25082:25148   */\n      0xffffffffffffffffffffffffffffffffffffffffffffffffffffffffffffffff\n        /* \"#utility.yul\":25075:25080   */\n      dup3\n        /* \"#utility.yul\":25072:25149   */\n      eq\n        /* \"#utility.yul\":25069:25172   */\n      iszero\n      tag_591\n      jumpi\n        /* \"#utility.yul\":25152:25170   */\n      tag_592\n      tag_554\n      jump\t// in\n    tag_592:\n        /* \"#utility.yul\":25069:25172   */\n    tag_591:\n        /* \"#utility.yul\":25199:25200   */\n      0x01\n        /* \"#utility.yul\":25192:25197   */\n      dup3\n        /* \"#utility.yul\":25188:25201   */\n      add\n        /* \"#utility.yul\":25181:25201   */\n      swap1\n      pop\n        /* \"#utility.yul\":24974:25207   */\n      swap2\n      swap1\n      pop\n      jump\t// out\n        /* \"#utility.yul\":25213:25389   */\n    tag_244:\n        /* \"#utility.yul\":25245:25246   */\n      0x00\n        /* \"#utility.yul\":25262:25282   */\n      tag_594\n        /* \"#utility.yul\":25280:25281   */\n      dup3\n        /* \"#utility.yul\":25262:25282   */\n      tag_487\n      jump\t// in\n    tag_594:\n        /* \"#utility.yul\":25257:25282   */\n      swap2\n      pop\n        /* \"#utility.yul\":25296:25316   */\n      tag_595\n        /* \"#utility.yul\":25314:25315   */\n      dup4\n        /* \"#utility.yul\":25296:25316   */\n      tag_487\n      jump\t// in\n    tag_595:\n        /* \"#utility.yul\":25291:25316   */\n      swap3\n      pop\n        /* \"#utility.yul\":25335:25336   */\n      dup3\n        /* \"#utility.yul\":25325:25360   */\n      tag_596\n      jumpi\n        /* \"#utility.yul\":25340:25358   */\n      tag_597\n      tag_560\n      jump\t// in\n    tag_597:\n        /* \"#utility.yul\":25325:25360   */\n    tag_596:\n        /* \"#utility.yul\":25381:25382   */\n      dup3\n        /* \"#utility.yul\":25378:25379   */\n      dup3\n        /* \"#utility.yul\":25374:25383   */\n      mod\n        /* \"#utility.yul\":25369:25383   */\n      swap1\n      pop\n        /* \"#utility.yul\":25213:25389   */\n      swap3\n      swap2\n      pop\n      pop\n      jump\t// out\n        /* \"#utility.yul\":25395:25575   */\n    tag_554:\n        /* \"#utility.yul\":25443:25520   */\n      0x4e487b7100000000000000000000000000000000000000000000000000000000\n        /* \"#utility.yul\":25440:25441   */\n      0x00\n        /* \"#utility.yul\":25433:25521   */\n      mstore\n        /* \"#utility.yul\":25540:25544   */\n      0x11\n        /* \"#utility.yul\":25537:25538   */\n      0x04\n        /* \"#utility.yul\":25530:25545   */\n      mstore\n        /* \"#utility.yul\":25564:25568   */\n      0x24\n        /* \"#utility.yul\":25561:25562   */\n      0x00\n        /* \"#utility.yul\":25554:25569   */\n      revert\n        /* \"#utility.yul\":25581:25761   */\n    tag_560:\n        /* \"#utility.yul\":25629:25706   */\n      0x4e487b7100000000000000000000000000000000000000000000000000000000\n        /* \"#utility.yul\":25626:25627   */\n      0x00\n        /* \"#utility.yul\":25619:25707   */\n      mstore\n        /* \"#utility.yul\":25726:25730   */\n      0x12\n        /* \"#utility.yul\":25723:25724   */\n      0x04\n        /* \"#utility.yul\":25716:25731   */\n      mstore\n        /* \"#utility.yul\":25750:25754   */\n      0x24\n        /* \"#utility.yul\":25747:25748   */\n      0x00\n        /* \"#utility.yul\":25740:25755   */\n      revert\n        /* \"#utility.yul\":25767:25947   */\n    tag_584:\n        /* \"#utility.yul\":25815:25892   */\n      0x4e487b7100000000000000000000000000000000000000000000000000000000\n        /* \"#utility.yul\":25812:25813   */\n      0x00\n        /* \"#utility.yul\":25805:25893   */\n      mstore\n        /* \"#utility.yul\":25912:25916   */\n      0x22\n        /* \"#utility.yul\":25909:25910   */\n      0x04\n        /* \"#utility.yul\":25902:25917   */\n      mstore\n        /* \"#utility.yul\":25936:25940   */\n      0x24\n        /* \"#utility.yul\":25933:25934   */\n      0x00\n        /* \"#utility.yul\":25926:25941   */\n      revert\n        /* \"#utility.yul\":25953:26133   */\n    tag_248:\n        /* \"#utility.yul\":26001:26078   */\n      0x4e487b7100000000000000000000000000000000000000000000000000000000\n        /* \"#utility.yul\":25998:25999   */\n      0x00\n        /* \"#utility.yul\":25991:26079   */\n      mstore\n        /* \"#utility.yul\":26098:26102   */\n      0x32\n        /* \"#utility.yul\":26095:26096   */\n      0x04\n        /* \"#utility.yul\":26088:26103   */\n      mstore\n        /* \"#utility.yul\":26122:26126   */\n      0x24\n        /* \"#utility.yul\":26119:26120   */\n      0x00\n        /* \"#utility.yul\":26112:26127   */\n      revert\n        /* \"#utility.yul\":26139:26319   */\n    tag_238:\n        /* \"#utility.yul\":26187:26264   */\n      0x4e487b7100000000000000000000000000000000000000000000000000000000\n        /* \"#utility.yul\":26184:26185   */\n      0x00\n        /* \"#utility.yul\":26177:26265   */\n      mstore\n        /* \"#utility.yul\":26284:26288   */\n      0x41\n        /* \"#utility.yul\":26281:26282   */\n      0x04\n        /* \"#utility.yul\":26274:26289   */\n      mstore\n        /* \"#utility.yul\":26308:26312   */\n      0x24\n        /* \"#utility.yul\":26305:26306   */\n      0x00\n        /* \"#utility.yul\":26298:26313   */\n      revert\n        /* \"#utility.yul\":26325:26442   */\n    tag_323:\n        /* \"#utility.yul\":26434:26435   */\n      0x00\n        /* \"#utility.yul\":26431:26432   */\n      dup1\n        /* \"#utility.yul\":26424:26436   */\n      revert\n        /* \"#utility.yul\":26448:26565   */\n    tag_301:\n        /* \"#utility.yul\":26557:26558   */\n      0x00\n        /* \"#utility.yul\":26554:26555   */\n      dup1\n        /* \"#utility.yul\":26547:26559   */\n      revert\n        /* \"#utility.yul\":26571:26688   */\n    tag_353:\n        /* \"#utility.yul\":26680:26681   */\n      0x00\n        /* \"#utility.yul\":26677:26678   */\n      dup1\n        /* \"#utility.yul\":26670:26682   */\n      revert\n        /* \"#utility.yul\":26694:26811   */\n    tag_332:\n        /* \"#utility.yul\":26803:26804   */\n      0x00\n        /* \"#utility.yul\":26800:26801   */\n      dup1\n        /* \"#utility.yul\":26793:26805   */\n      revert\n        /* \"#utility.yul\":26817:26919   */\n    tag_394:\n        /* \"#utility.yul\":26858:26864   */\n      0x00\n        /* \"#utility.yul\":26909:26911   */\n      0x1f\n        /* \"#utility.yul\":26905:26912   */\n      not\n        /* \"#utility.yul\":26900:26902   */\n      0x1f\n        /* \"#utility.yul\":26893:26898   */\n      dup4\n        /* \"#utility.yul\":26889:26903   */\n      add\n        /* \"#utility.yul\":26885:26913   */\n      and\n        /* \"#utility.yul\":26875:26913   */\n      swap1\n      pop\n        /* \"#utility.yul\":26817:26919   */\n      swap2\n      swap1\n      pop\n      jump\t// out\n        /* \"#utility.yul\":26925:27162   */\n    tag_413:\n        /* \"#utility.yul\":27065:27099   */\n      0x4552433732313a207472616e7366657220746f206e6f6e204552433732315265\n        /* \"#utility.yul\":27061:27062   */\n      0x00\n        /* \"#utility.yul\":27053:27059   */\n      dup3\n        /* \"#utility.yul\":27049:27063   */\n      add\n        /* \"#utility.yul\":27042:27100   */\n      mstore\n        /* \"#utility.yul\":27134:27154   */\n      0x63656976657220696d706c656d656e7465720000000000000000000000000000\n        /* \"#utility.yul\":27129:27131   */\n      0x20\n        /* \"#utility.yul\":27121:27127   */\n      dup3\n        /* \"#utility.yul\":27117:27132   */\n      add\n        /* \"#utility.yul\":27110:27155   */\n      mstore\n        /* \"#utility.yul\":26925:27162   */\n      pop\n      jump\t// out\n        /* \"#utility.yul\":27168:27392   */\n    tag_418:\n        /* \"#utility.yul\":27308:27342   */\n      0x4552433732313a207472616e736665722066726f6d20696e636f727265637420\n        /* \"#utility.yul\":27304:27305   */\n      0x00\n        /* \"#utility.yul\":27296:27302   */\n      dup3\n        /* \"#utility.yul\":27292:27306   */\n      add\n        /* \"#utility.yul\":27285:27343   */\n      mstore\n        /* \"#utility.yul\":27377:27384   */\n      0x6f776e6572000000000000000000000000000000000000000000000000000000\n        /* \"#utility.yul\":27372:27374   */\n      0x20\n        /* \"#utility.yul\":27364:27370   */\n      dup3\n        /* \"#utility.yul\":27360:27375   */\n      add\n        /* \"#utility.yul\":27353:27385   */\n      mstore\n        /* \"#utility.yul\":27168:27392   */\n      pop\n      jump\t// out\n        /* \"#utility.yul\":27398:27576   */\n    tag_423:\n        /* \"#utility.yul\":27538:27568   */\n      0x4552433732313a20746f6b656e20616c7265616479206d696e74656400000000\n        /* \"#utility.yul\":27534:27535   */\n      0x00\n        /* \"#utility.yul\":27526:27532   */\n      dup3\n        /* \"#utility.yul\":27522:27536   */\n      add\n        /* \"#utility.yul\":27515:27569   */\n      mstore\n        /* \"#utility.yul\":27398:27576   */\n      pop\n      jump\t// out\n        /* \"#utility.yul\":27582:27805   */\n    tag_428:\n        /* \"#utility.yul\":27722:27756   */\n      0x4552433732313a207472616e7366657220746f20746865207a65726f20616464\n        /* \"#utility.yul\":27718:27719   */\n      0x00\n        /* \"#utility.yul\":27710:27716   */\n      dup3\n        /* \"#utility.yul\":27706:27720   */\n      add\n        /* \"#utility.yul\":27699:27757   */\n      mstore\n        /* \"#utility.yul\":27791:27797   */\n      0x7265737300000000000000000000000000000000000000000000000000000000\n        /* \"#utility.yul\":27786:27788   */\n      0x20\n        /* \"#utility.yul\":27778:27784   */\n      dup3\n        /* \"#utility.yul\":27774:27789   */\n      add\n        /* \"#utility.yul\":27767:27798   */\n      mstore\n        /* \"#utility.yul\":27582:27805   */\n      pop\n      jump\t// out\n        /* \"#utility.yul\":27811:27986   */\n    tag_433:\n        /* \"#utility.yul\":27951:27978   */\n      0x4552433732313a20617070726f766520746f2063616c6c657200000000000000\n        /* \"#utility.yul\":27947:27948   */\n      0x00\n        /* \"#utility.yul\":27939:27945   */\n      dup3\n        /* \"#utility.yul\":27935:27949   */\n      add\n        /* \"#utility.yul\":27928:27979   */\n      mstore\n        /* \"#utility.yul\":27811:27986   */\n      pop\n      jump\t// out\n        /* \"#utility.yul\":27992:28223   */\n    tag_438:\n        /* \"#utility.yul\":28132:28166   */\n      0x4552433732313a206f70657261746f7220717565727920666f72206e6f6e6578\n        /* \"#utility.yul\":28128:28129   */\n      0x00\n        /* \"#utility.yul\":28120:28126   */\n      dup3\n        /* \"#utility.yul\":28116:28130   */\n      add\n        /* \"#utility.yul\":28109:28167   */\n      mstore\n        /* \"#utility.yul\":28201:28215   */\n      0x697374656e7420746f6b656e0000000000000000000000000000000000000000\n        /* \"#utility.yul\":28196:28198   */\n      0x20\n        /* \"#utility.yul\":28188:28194   */\n      dup3\n        /* \"#utility.yul\":28184:28199   */\n      add\n        /* \"#utility.yul\":28177:28216   */\n      mstore\n        /* \"#utility.yul\":27992:28223   */\n      pop\n      jump\t// out\n        /* \"#utility.yul\":28229:28465   */\n    tag_443:\n        /* \"#utility.yul\":28369:28403   */\n      0x4552433732313a207472616e736765722063616c6c6572206973206e6f74206f\n        /* \"#utility.yul\":28365:28366   */\n      0x00\n        /* \"#utility.yul\":28357:28363   */\n      dup3\n        /* \"#utility.yul\":28353:28367   */\n      add\n        /* \"#utility.yul\":28346:28404   */\n      mstore\n        /* \"#utility.yul\":28438:28457   */\n      0x776e6572206e6f7220617070726f766564000000000000000000000000000000\n        /* \"#utility.yul\":28433:28435   */\n      0x20\n        /* \"#utility.yul\":28425:28431   */\n      dup3\n        /* \"#utility.yul\":28421:28436   */\n      add\n        /* \"#utility.yul\":28414:28458   */\n      mstore\n        /* \"#utility.yul\":28229:28465   */\n      pop\n      jump\t// out\n        /* \"#utility.yul\":28471:28714   */\n    tag_448:\n        /* \"#utility.yul\":28611:28645   */\n      0x4552433732313a20617070726f76652063616c6c6572206973206e6f74206f77\n        /* \"#utility.yul\":28607:28608   */\n      0x00\n        /* \"#utility.yul\":28599:28605   */\n      dup3\n        /* \"#utility.yul\":28595:28609   */\n      add\n        /* \"#utility.yul\":28588:28646   */\n      mstore\n        /* \"#utility.yul\":28680:28706   */\n      0x6e6572206e6f7220617070726f76656420666f7220616c6c0000000000000000\n        /* \"#utility.yul\":28675:28677   */\n      0x20\n        /* \"#utility.yul\":28667:28673   */\n      dup3\n        /* \"#utility.yul\":28663:28678   */\n      add\n        /* \"#utility.yul\":28656:28707   */\n      mstore\n        /* \"#utility.yul\":28471:28714   */\n      pop\n      jump\t// out\n        /* \"#utility.yul\":28720:28949   */\n    tag_453:\n        /* \"#utility.yul\":28860:28894   */\n      0x4552433732313a2062616c616e636520717565727920666f7220746865207a65\n        /* \"#utility.yul\":28856:28857   */\n      0x00\n        /* \"#utility.yul\":28848:28854   */\n      dup3\n        /* \"#utility.yul\":28844:28858   */\n      add\n        /* \"#utility.yul\":28837:28895   */\n      mstore\n        /* \"#utility.yul\":28929:28941   */\n      0x726f206164647265737300000000000000000000000000000000000000000000\n        /* \"#utility.yul\":28924:28926   */\n      0x20\n        /* \"#utility.yul\":28916:28922   */\n      dup3\n        /* \"#utility.yul\":28912:28927   */\n      add\n        /* \"#utility.yul\":28905:28942   */\n      mstore\n        /* \"#utility.yul\":28720:28949   */\n      pop\n      jump\t// out\n        /* \"#utility.yul\":28955:29183   */\n    tag_458:\n        /* \"#utility.yul\":29095:29129   */\n      0x4552433732313a206f776e657220717565727920666f72206e6f6e6578697374\n        /* \"#utility.yul\":29091:29092   */\n      0x00\n        /* \"#utility.yul\":29083:29089   */\n      dup3\n        /* \"#utility.yul\":29079:29093   */\n      add\n        /* \"#utility.yul\":29072:29130   */\n      mstore\n        /* \"#utility.yul\":29164:29175   */\n      0x656e7420746f6b656e0000000000000000000000000000000000000000000000\n        /* \"#utility.yul\":29159:29161   */\n      0x20\n        /* \"#utility.yul\":29151:29157   */\n      dup3\n        /* \"#utility.yul\":29147:29162   */\n      add\n        /* \"#utility.yul\":29140:29176   */\n      mstore\n        /* \"#utility.yul\":28955:29183   */\n      pop\n      jump\t// out\n        /* \"#utility.yul\":29189:29371   */\n    tag_463:\n        /* \"#utility.yul\":29329:29363   */\n      0x4552433732313a206d696e7420746f20746865207a65726f2061646472657373\n        /* \"#utility.yul\":29325:29326   */\n      0x00\n        /* \"#utility.yul\":29317:29323   */\n      dup3\n        /* \"#utility.yul\":29313:29327   */\n      add\n        /* \"#utility.yul\":29306:29364   */\n      mstore\n        /* \"#utility.yul\":29189:29371   */\n      pop\n      jump\t// out\n        /* \"#utility.yul\":29377:29608   */\n    tag_468:\n        /* \"#utility.yul\":29517:29551   */\n      0x4552433732313a20617070726f76656420717565727920666f72206e6f6e6578\n        /* \"#utility.yul\":29513:29514   */\n      0x00\n        /* \"#utility.yul\":29505:29511   */\n      dup3\n        /* \"#utility.yul\":29501:29515   */\n      add\n        /* \"#utility.yul\":29494:29552   */\n      mstore\n        /* \"#utility.yul\":29586:29600   */\n      0x697374656e7420746f6b656e0000000000000000000000000000000000000000\n        /* \"#utility.yul\":29581:29583   */\n      0x20\n        /* \"#utility.yul\":29573:29579   */\n      dup3\n        /* \"#utility.yul\":29569:29584   */\n      add\n        /* \"#utility.yul\":29562:29601   */\n      mstore\n        /* \"#utility.yul\":29377:29608   */\n      pop\n      jump\t// out\n        /* \"#utility.yul\":29614:29834   */\n    tag_473:\n        /* \"#utility.yul\":29754:29788   */\n      0x4552433732313a20617070726f76616c20746f2063757272656e74206f776e65\n        /* \"#utility.yul\":29750:29751   */\n      0x00\n        /* \"#utility.yul\":29742:29748   */\n      dup3\n        /* \"#utility.yul\":29738:29752   */\n      add\n        /* \"#utility.yul\":29731:29789   */\n      mstore\n        /* \"#utility.yul\":29823:29826   */\n      0x7200000000000000000000000000000000000000000000000000000000000000\n        /* \"#utility.yul\":29818:29820   */\n      0x20\n        /* \"#utility.yul\":29810:29816   */\n      dup3\n        /* \"#utility.yul\":29806:29821   */\n      add\n        /* \"#utility.yul\":29799:29827   */\n      mstore\n        /* \"#utility.yul\":29614:29834   */\n      pop\n      jump\t// out\n        /* \"#utility.yul\":29840:30076   */\n    tag_478:\n        /* \"#utility.yul\":29980:30014   */\n      0x4552433732313a207472616e736665722063616c6c6572206973206e6f74206f\n        /* \"#utility.yul\":29976:29977   */\n      0x00\n        /* \"#utility.yul\":29968:29974   */\n      dup3\n        /* \"#utility.yul\":29964:29978   */\n      add\n        /* \"#utility.yul\":29957:30015   */\n      mstore\n        /* \"#utility.yul\":30049:30068   */\n      0x776e6572206e6f7220617070726f766564000000000000000000000000000000\n        /* \"#utility.yul\":30044:30046   */\n      0x20\n        /* \"#utility.yul\":30036:30042   */\n      dup3\n        /* \"#utility.yul\":30032:30047   */\n      add\n        /* \"#utility.yul\":30025:30069   */\n      mstore\n        /* \"#utility.yul\":29840:30076   */\n      pop\n      jump\t// out\n        /* \"#utility.yul\":30082:30316   */\n    tag_483:\n        /* \"#utility.yul\":30222:30256   */\n      0x4552433732314d657461646174653a2055524920717565727920666f72206e6f\n        /* \"#utility.yul\":30218:30219   */\n      0x00\n        /* \"#utility.yul\":30210:30216   */\n      dup3\n        /* \"#utility.yul\":30206:30220   */\n      add\n        /* \"#utility.yul\":30199:30257   */\n      mstore\n        /* \"#utility.yul\":30291:30308   */\n      0x6e6578697374656e7420746f6b656e0000000000000000000000000000000000\n        /* \"#utility.yul\":30286:30288   */\n      0x20\n        /* \"#utility.yul\":30278:30284   */\n      dup3\n        /* \"#utility.yul\":30274:30289   */\n      add\n        /* \"#utility.yul\":30267:30309   */\n      mstore\n        /* \"#utility.yul\":30082:30316   */\n      pop\n      jump\t// out\n        /* \"#utility.yul\":30322:30444   */\n    tag_307:\n        /* \"#utility.yul\":30395:30419   */\n      tag_624\n        /* \"#utility.yul\":30413:30418   */\n      dup2\n        /* \"#utility.yul\":30395:30419   */\n      tag_380\n      jump\t// in\n    tag_624:\n        /* \"#utility.yul\":30388:30393   */\n      dup2\n        /* \"#utility.yul\":30385:30420   */\n      eq\n        /* \"#utility.yul\":30375:30438   */\n      tag_625\n      jumpi\n        /* \"#utility.yul\":30434:30435   */\n      0x00\n        /* \"#utility.yul\":30431:30432   */\n      dup1\n        /* \"#utility.yul\":30424:30436   */\n      revert\n        /* \"#utility.yul\":30375:30438   */\n    tag_625:\n        /* \"#utility.yul\":30322:30444   */\n      pop\n      jump\t// out\n        /* \"#utility.yul\":30450:30566   */\n    tag_311:\n        /* \"#utility.yul\":30520:30541   */\n      tag_627\n        /* \"#utility.yul\":30535:30540   */\n      dup2\n        /* \"#utility.yul\":30520:30541   */\n      tag_384\n      jump\t// in\n    tag_627:\n        /* \"#utility.yul\":30513:30518   */\n      dup2\n        /* \"#utility.yul\":30510:30542   */\n      eq\n        /* \"#utility.yul\":30500:30560   */\n      tag_628\n      jumpi\n        /* \"#utility.yul\":30556:30557   */\n      0x00\n        /* \"#utility.yul\":30553:30554   */\n      dup1\n        /* \"#utility.yul\":30546:30558   */\n      revert\n        /* \"#utility.yul\":30500:30560   */\n    tag_628:\n        /* \"#utility.yul\":30450:30566   */\n      pop\n      jump\t// out\n        /* \"#utility.yul\":30572:30692   */\n    tag_315:\n        /* \"#utility.yul\":30644:30667   */\n      tag_630\n        /* \"#utility.yul\":30661:30666   */\n      dup2\n        /* \"#utility.yul\":30644:30667   */\n      tag_570\n      jump\t// in\n    tag_630:\n        /* \"#utility.yul\":30637:30642   */\n      dup2\n        /* \"#utility.yul\":30634:30668   */\n      eq\n        /* \"#utility.yul\":30624:30686   */\n      tag_631\n      jumpi\n        /* \"#utility.yul\":30682:30683   */\n      0x00\n        /* \"#utility.yul\":30679:30680   */\n      dup1\n        /* \"#utility.yul\":30672:30684   */\n      revert\n        /* \"#utility.yul\":30624:30686   */\n    tag_631:\n        /* \"#utility.yul\":30572:30692   */\n      pop\n      jump\t// out\n        /* \"#utility.yul\":30698:30820   */\n    tag_328:\n        /* \"#utility.yul\":30771:30795   */\n      tag_633\n        /* \"#utility.yul\":30789:30794   */\n      dup2\n        /* \"#utility.yul\":30771:30795   */\n      tag_487\n      jump\t// in\n    tag_633:\n        /* \"#utility.yul\":30764:30769   */\n      dup2\n        /* \"#utility.yul\":30761:30796   */\n      eq\n        /* \"#utility.yul\":30751:30814   */\n      tag_634\n      jumpi\n        /* \"#utility.yul\":30810:30811   */\n      0x00\n        /* \"#utility.yul\":30807:30808   */\n      dup1\n        /* \"#utility.yul\":30800:30812   */\n      revert\n        /* \"#utility.yul\":30751:30814   */\n    tag_634:\n        /* \"#utility.yul\":30698:30820   */\n      pop\n      jump\t// out\n\n    auxdata: 0xa2646970667358221220618c7be44f7ac6eb367d4d060dec9f80162c749a7989d5e1fe3551c13f423d4c64736f6c63430008070033\n}\n",
				"bytecode": {
					"linkReferences": {},
					"object": "60806040523480156200001157600080fd5b506040518060400160405280600481526020017f4c414e44000000000000000000000000000000000000000000000000000000008152506040518060400160405280600281526020017f4c44000000000000000000000000000000000000000000000000000000000000815250816000908051906020019062000096929190620000b8565b508060019080519060200190620000af929190620000b8565b505050620001cd565b828054620000c69062000168565b90600052602060002090601f016020900481019282620000ea576000855562000136565b82601f106200010557805160ff191683800117855562000136565b8280016001018555821562000136579182015b828111156200013557825182559160200191906001019062000118565b5b50905062000145919062000149565b5090565b5b80821115620001645760008160009055506001016200014a565b5090565b600060028204905060018216806200018157607f821691505b602082108114156200019857620001976200019e565b5b50919050565b7f4e487b7100000000000000000000000000000000000000000000000000000000600052602260045260246000fd5b61292580620001dd6000396000f3fe608060405234801561001057600080fd5b50600436106100f55760003560e01c80636352211e11610097578063a22cb46511610066578063a22cb46514610282578063b88d4fde1461029e578063c87b56dd146102ba578063e985e9c5146102ea576100f5565b80636352211e146101e857806370a082311461021857806395d89b4114610248578063a0712d6814610266576100f5565b8063095ea7b3116100d3578063095ea7b31461017857806323b872dd1461019457806342842e0e146101b057806342966c68146101cc576100f5565b806301ffc9a7146100fa57806306fdde031461012a578063081812fc14610148575b600080fd5b610114600480360381019061010f9190611a46565b61031a565b6040516101219190611e35565b60405180910390f35b6101326103fc565b60405161013f9190611e50565b60405180910390f35b610162600480360381019061015d9190611aa0565b61048e565b60405161016f9190611dce565b60405180910390f35b610192600480360381019061018d9190611a06565b610513565b005b6101ae60048036038101906101a991906118f0565b61062b565b005b6101ca60048036038101906101c591906118f0565b61068b565b005b6101e660048036038101906101e19190611aa0565b61069b565b005b61020260048036038101906101fd9190611aa0565b6106a7565b60405161020f9190611dce565b60405180910390f35b610232600480360381019061022d9190611883565b610759565b60405161023f9190612052565b60405180910390f35b610250610811565b60405161025d9190611e50565b60405180910390f35b610280600480360381019061027b9190611aa0565b6108a3565b005b61029c600480360381019061029791906119c6565b6108b6565b005b6102b860048036038101906102b39190611943565b6108cc565b005b6102d460048036038101906102cf9190611aa0565b61092e565b6040516102e19190611e50565b60405180910390f35b61030460048036038101906102ff91906118b0565b6109d5565b6040516103119190611e35565b60405180910390f35b60007f80ac58cd000000000000000000000000000000000000000000000000000000007bffffffffffffffffffffffffffffffffffffffffffffffffffffffff1916827bffffffffffffffffffffffffffffffffffffffffffffffffffffffff191614806103e557507f5b5e139f000000000000000000000000000000000000000000000000000000007bffffffffffffffffffffffffffffffffffffffffffffffffffffffff1916827bffffffffffffffffffffffffffffffffffffffffffffffffffffffff1916145b806103f557506103f482610a69565b5b9050919050565b60606000805461040b90612277565b80601f016020809104026020016040519081016040528092919081815260200182805461043790612277565b80156104845780601f1061045957610100808354040283529160200191610484565b820191906000526020600020905b81548152906001019060200180831161046757829003601f168201915b5050505050905090565b600061049982610ad3565b6104d8576040517f08c379a00000000000000000000000000000000000000000000000000000000081526004016104cf90611fd2565b60405180910390fd5b6004600083815260200190815260200160002060009054906101000a900473ffffffffffffffffffffffffffffffffffffffff169050919050565b600061051e826106a7565b90508073ffffffffffffffffffffffffffffffffffffffff168373ffffffffffffffffffffffffffffffffffffffff16141561058f576040517f08c379a000000000000000000000000000000000000000000000000000000000815260040161058690611ff2565b60405180910390fd5b8073ffffffffffffffffffffffffffffffffffffffff166105ae610b3f565b73ffffffffffffffffffffffffffffffffffffffff1614806105dd57506105dc816105d7610b3f565b6109d5565b5b61061c576040517f08c379a000000000000000000000000000000000000000000000000000000000815260040161061390611f52565b60405180910390fd5b6106268383610b47565b505050565b61063c610636610b3f565b82610c00565b61067b576040517f08c379a000000000000000000000000000000000000000000000000000000000815260040161067290612012565b60405180910390fd5b610686838383610cde565b505050565b61069683838361068b565b505050565b6106a481610f45565b50565b6000806002600084815260200190815260200160002060009054906101000a900473ffffffffffffffffffffffffffffffffffffffff169050600073ffffffffffffffffffffffffffffffffffffffff168173ffffffffffffffffffffffffffffffffffffffff161415610750576040517f08c379a000000000000000000000000000000000000000000000000000000000815260040161074790611f92565b60405180910390fd5b80915050919050565b60008073ffffffffffffffffffffffffffffffffffffffff168273ffffffffffffffffffffffffffffffffffffffff1614156107ca576040517f08c379a00000000000000000000000000000000000000000000000000000000081526004016107c190611f72565b60405180910390fd5b600360008373ffffffffffffffffffffffffffffffffffffffff1673ffffffffffffffffffffffffffffffffffffffff168152602001908152602001600020549050919050565b60606001805461082090612277565b80601f016020809104026020016040519081016040528092919081815260200182805461084c90612277565b80156108995780601f1061086e57610100808354040283529160200191610899565b820191906000526020600020905b81548152906001019060200180831161087c57829003601f168201915b5050505050905090565b60008190506108b23382611062565b5050565b6108c86108c1610b3f565b8383611080565b5050565b6108dd6108d7610b3f565b83610c00565b61091c576040517f08c379a000000000000000000000000000000000000000000000000000000000815260040161091390611f32565b60405180910390fd5b610928848484846111ed565b50505050565b606061093982610ad3565b610978576040517f08c379a000000000000000000000000000000000000000000000000000000000815260040161096f90612032565b60405180910390fd5b6000610982611249565b905060008151116109a257604051806020016040528060008152506109cd565b806109ac84611260565b6040516020016109bd929190611daa565b6040516020818303038152906040525b915050919050565b6000600560008473ffffffffffffffffffffffffffffffffffffffff1673ffffffffffffffffffffffffffffffffffffffff16815260200190815260200160002060008373ffffffffffffffffffffffffffffffffffffffff1673ffffffffffffffffffffffffffffffffffffffff16815260200190815260200160002060009054906101000a900460ff16905092915050565b60007f01ffc9a7000000000000000000000000000000000000000000000000000000007bffffffffffffffffffffffffffffffffffffffffffffffffffffffff1916827bffffffffffffffffffffffffffffffffffffffffffffffffffffffff1916149050919050565b60008073ffffffffffffffffffffffffffffffffffffffff166002600084815260200190815260200160002060009054906101000a900473ffffffffffffffffffffffffffffffffffffffff1673ffffffffffffffffffffffffffffffffffffffff1614159050919050565b600033905090565b816004600083815260200190815260200160002060006101000a81548173ffffffffffffffffffffffffffffffffffffffff021916908373ffffffffffffffffffffffffffffffffffffffff160217905550808273ffffffffffffffffffffffffffffffffffffffff16610bba836106a7565b73ffffffffffffffffffffffffffffffffffffffff167f8c5be1e5ebec7d5bd14f71427d1e84f3dd0314c0f7b2291e5b200ac8c7c3b92560405160405180910390a45050565b6000610c0b82610ad3565b610c4a576040517f08c379a0000000000000000000000000000000000000000000000000000000008152600401610c4190611f12565b60405180910390fd5b6000610c55836106a7565b90508073ffffffffffffffffffffffffffffffffffffffff168473ffffffffffffffffffffffffffffffffffffffff161480610c975750610c9681856109d5565b5b80610cd557508373ffffffffffffffffffffffffffffffffffffffff16610cbd8461048e565b73ffffffffffffffffffffffffffffffffffffffff16145b91505092915050565b8273ffffffffffffffffffffffffffffffffffffffff16610cfe826106a7565b73ffffffffffffffffffffffffffffffffffffffff1614610d54576040517f08c379a0000000000000000000000000000000000000000000000000000000008152600401610d4b90611e92565b60405180910390fd5b600073ffffffffffffffffffffffffffffffffffffffff168273ffffffffffffffffffffffffffffffffffffffff161415610dc4576040517f08c379a0000000000000000000000000000000000000000000000000000000008152600401610dbb90611ed2565b60405180910390fd5b610dcf8383836113c1565b610dda600082610b47565b6001600360008573ffffffffffffffffffffffffffffffffffffffff1673ffffffffffffffffffffffffffffffffffffffff1681526020019081526020016000206000828254610e2a919061218d565b925050819055506001600360008473ffffffffffffffffffffffffffffffffffffffff1673ffffffffffffffffffffffffffffffffffffffff1681526020019081526020016000206000828254610e819190612106565b92505081905550816002600083815260200190815260200160002060006101000a81548173ffffffffffffffffffffffffffffffffffffffff021916908373ffffffffffffffffffffffffffffffffffffffff160217905550808273ffffffffffffffffffffffffffffffffffffffff168473ffffffffffffffffffffffffffffffffffffffff167fddf252ad1be2c89b69c2b068fc378daa952ba7f163c4a11628f55a4df523b3ef60405160405180910390a4610f408383836113c6565b505050565b6000610f50826106a7565b9050610f5e816000846113c1565b610f69600083610b47565b6001600360008373ffffffffffffffffffffffffffffffffffffffff1673ffffffffffffffffffffffffffffffffffffffff1681526020019081526020016000206000828254610fb9919061218d565b925050819055506002600083815260200190815260200160002060006101000a81549073ffffffffffffffffffffffffffffffffffffffff021916905581600073ffffffffffffffffffffffffffffffffffffffff168273ffffffffffffffffffffffffffffffffffffffff167fddf252ad1be2c89b69c2b068fc378daa952ba7f163c4a11628f55a4df523b3ef60405160405180910390a461105e816000846113c6565b5050565b61107c8282604051806020016040528060008152506113cb565b5050565b8173ffffffffffffffffffffffffffffffffffffffff168373ffffffffffffffffffffffffffffffffffffffff1614156110ef576040517f08c379a00000000000000000000000000000000000000000000000000000000081526004016110e690611ef2565b60405180910390fd5b80600560008573ffffffffffffffffffffffffffffffffffffffff1673ffffffffffffffffffffffffffffffffffffffff16815260200190815260200160002060008473ffffffffffffffffffffffffffffffffffffffff1673ffffffffffffffffffffffffffffffffffffffff16815260200190815260200160002060006101000a81548160ff0219169083151502179055508173ffffffffffffffffffffffffffffffffffffffff168373ffffffffffffffffffffffffffffffffffffffff167f17307eab39ab6107e8899845ad3d59bd9653f200f220920489ca2b5937696c31836040516111e09190611e35565b60405180910390a3505050565b6111f8848484610cde565b61120484848484611426565b611243576040517f08c379a000000000000000000000000000000000000000000000000000000000815260040161123a90611e72565b60405180910390fd5b50505050565b606060405180602001604052806000815250905090565b606060008214156112a8576040518060400160405280600181526020017f300000000000000000000000000000000000000000000000000000000000000081525090506113bc565b600082905060005b600082146112da5780806112c3906122da565b915050600a826112d3919061215c565b91506112b0565b60008167ffffffffffffffff8111156112f6576112f5612410565b5b6040519080825280601f01601f1916602001820160405280156113285781602001600182028036833780820191505090505b5090505b600085146113b557600182611341919061218d565b9150600a856113509190612323565b603061135c9190612106565b60f81b818381518110611372576113716123e1565b5b60200101907effffffffffffffffffffffffffffffffffffffffffffffffffffffffffffff1916908160001a905350600a856113ae919061215c565b945061132c565b8093505050505b919050565b505050565b505050565b6113d583836115bd565b6113e26000848484611426565b611421576040517f08c379a000000000000000000000000000000000000000000000000000000000815260040161141890611e72565b60405180910390fd5b505050565b60006114478473ffffffffffffffffffffffffffffffffffffffff16611797565b156115b0578373ffffffffffffffffffffffffffffffffffffffff1663150b7a02611470610b3f565b8786866040518563ffffffff1660e01b81526004016114929493929190611de9565b602060405180830381600087803b1580156114ac57600080fd5b505af19250505080156114dd57506040513d601f19601f820116820180604052508101906114da9190611a73565b60015b611560573d806000811461150d576040519150601f19603f3d011682016040523d82523d6000602084013e611512565b606091505b50600081511415611558576040517f08c379a000000000000000000000000000000000000000000000000000000000815260040161154f90611e72565b60405180910390fd5b805181602001fd5b63150b7a0260e01b7bffffffffffffffffffffffffffffffffffffffffffffffffffffffff1916817bffffffffffffffffffffffffffffffffffffffffffffffffffffffff1916149150506115b5565b600190505b949350505050565b600073ffffffffffffffffffffffffffffffffffffffff168273ffffffffffffffffffffffffffffffffffffffff16141561162d576040517f08c379a000000000000000000000000000000000000000000000000000000000815260040161162490611fb2565b60405180910390fd5b61163681610ad3565b15611676576040517f08c379a000000000000000000000000000000000000000000000000000000000815260040161166d90611eb2565b60405180910390fd5b611682600083836113c1565b6001600360008473ffffffffffffffffffffffffffffffffffffffff1673ffffffffffffffffffffffffffffffffffffffff16815260200190815260200160002060008282546116d29190612106565b92505081905550816002600083815260200190815260200160002060006101000a81548173ffffffffffffffffffffffffffffffffffffffff021916908373ffffffffffffffffffffffffffffffffffffffff160217905550808273ffffffffffffffffffffffffffffffffffffffff16600073ffffffffffffffffffffffffffffffffffffffff167fddf252ad1be2c89b69c2b068fc378daa952ba7f163c4a11628f55a4df523b3ef60405160405180910390a4611793600083836113c6565b5050565b600080823b905060008111915050919050565b60006117bd6117b884612092565b61206d565b9050828152602081018484840111156117d9576117d8612444565b5b6117e4848285612235565b509392505050565b6000813590506117fb81612893565b92915050565b600081359050611810816128aa565b92915050565b600081359050611825816128c1565b92915050565b60008151905061183a816128c1565b92915050565b600082601f8301126118555761185461243f565b5b81356118658482602086016117aa565b91505092915050565b60008135905061187d816128d8565b92915050565b6000602082840312156118995761189861244e565b5b60006118a7848285016117ec565b91505092915050565b600080604083850312156118c7576118c661244e565b5b60006118d5858286016117ec565b92505060206118e6858286016117ec565b9150509250929050565b6000806000606084860312156119095761190861244e565b5b6000611917868287016117ec565b9350506020611928868287016117ec565b92505060406119398682870161186e565b9150509250925092565b6000806000806080858703121561195d5761195c61244e565b5b600061196b878288016117ec565b945050602061197c878288016117ec565b935050604061198d8782880161186e565b925050606085013567ffffffffffffffff8111156119ae576119ad612449565b5b6119ba87828801611840565b91505092959194509250565b600080604083850312156119dd576119dc61244e565b5b60006119eb858286016117ec565b92505060206119fc85828601611801565b9150509250929050565b60008060408385031215611a1d57611a1c61244e565b5b6000611a2b858286016117ec565b9250506020611a3c8582860161186e565b9150509250929050565b600060208284031215611a5c57611a5b61244e565b5b6000611a6a84828501611816565b91505092915050565b600060208284031215611a8957611a8861244e565b5b6000611a978482850161182b565b91505092915050565b600060208284031215611ab657611ab561244e565b5b6000611ac48482850161186e565b91505092915050565b611ad6816121c1565b82525050565b611ae5816121d3565b82525050565b6000611af6826120c3565b611b0081856120d9565b9350611b10818560208601612244565b611b1981612453565b840191505092915050565b6000611b2f826120ce565b611b3981856120ea565b9350611b49818560208601612244565b611b5281612453565b840191505092915050565b6000611b68826120ce565b611b7281856120fb565b9350611b82818560208601612244565b80840191505092915050565b6000611b9b6032836120ea565b9150611ba682612464565b604082019050919050565b6000611bbe6025836120ea565b9150611bc9826124b3565b604082019050919050565b6000611be1601c836120ea565b9150611bec82612502565b602082019050919050565b6000611c046024836120ea565b9150611c0f8261252b565b604082019050919050565b6000611c276019836120ea565b9150611c328261257a565b602082019050919050565b6000611c4a602c836120ea565b9150611c55826125a3565b604082019050919050565b6000611c6d6031836120ea565b9150611c78826125f2565b604082019050919050565b6000611c906038836120ea565b9150611c9b82612641565b604082019050919050565b6000611cb3602a836120ea565b9150611cbe82612690565b604082019050919050565b6000611cd66029836120ea565b9150611ce1826126df565b604082019050919050565b6000611cf96020836120ea565b9150611d048261272e565b602082019050919050565b6000611d1c602c836120ea565b9150611d2782612757565b604082019050919050565b6000611d3f6021836120ea565b9150611d4a826127a6565b604082019050919050565b6000611d626031836120ea565b9150611d6d826127f5565b604082019050919050565b6000611d85602f836120ea565b9150611d9082612844565b604082019050919050565b611da48161222b565b82525050565b6000611db68285611b5d565b9150611dc28284611b5d565b91508190509392505050565b6000602082019050611de36000830184611acd565b92915050565b6000608082019050611dfe6000830187611acd565b611e0b6020830186611acd565b611e186040830185611d9b565b8181036060830152611e2a8184611aeb565b905095945050505050565b6000602082019050611e4a6000830184611adc565b92915050565b60006020820190508181036000830152611e6a8184611b24565b905092915050565b60006020820190508181036000830152611e8b81611b8e565b9050919050565b60006020820190508181036000830152611eab81611bb1565b9050919050565b60006020820190508181036000830152611ecb81611bd4565b9050919050565b60006020820190508181036000830152611eeb81611bf7565b9050919050565b60006020820190508181036000830152611f0b81611c1a565b9050919050565b60006020820190508181036000830152611f2b81611c3d565b9050919050565b60006020820190508181036000830152611f4b81611c60565b9050919050565b60006020820190508181036000830152611f6b81611c83565b9050919050565b60006020820190508181036000830152611f8b81611ca6565b9050919050565b60006020820190508181036000830152611fab81611cc9565b9050919050565b60006020820190508181036000830152611fcb81611cec565b9050919050565b60006020820190508181036000830152611feb81611d0f565b9050919050565b6000602082019050818103600083015261200b81611d32565b9050919050565b6000602082019050818103600083015261202b81611d55565b9050919050565b6000602082019050818103600083015261204b81611d78565b9050919050565b60006020820190506120676000830184611d9b565b92915050565b6000612077612088565b905061208382826122a9565b919050565b6000604051905090565b600067ffffffffffffffff8211156120ad576120ac612410565b5b6120b682612453565b9050602081019050919050565b600081519050919050565b600081519050919050565b600082825260208201905092915050565b600082825260208201905092915050565b600081905092915050565b60006121118261222b565b915061211c8361222b565b9250827fffffffffffffffffffffffffffffffffffffffffffffffffffffffffffffffff0382111561215157612150612354565b5b828201905092915050565b60006121678261222b565b91506121728361222b565b92508261218257612181612383565b5b828204905092915050565b60006121988261222b565b91506121a38361222b565b9250828210156121b6576121b5612354565b5b828203905092915050565b60006121cc8261220b565b9050919050565b60008115159050919050565b60007fffffffff0000000000000000000000000000000000000000000000000000000082169050919050565b600073ffffffffffffffffffffffffffffffffffffffff82169050919050565b6000819050919050565b82818337600083830152505050565b60005b83811015612262578082015181840152602081019050612247565b83811115612271576000848401525b50505050565b6000600282049050600182168061228f57607f821691505b602082108114156122a3576122a26123b2565b5b50919050565b6122b282612453565b810181811067ffffffffffffffff821117156122d1576122d0612410565b5b80604052505050565b60006122e58261222b565b91507fffffffffffffffffffffffffffffffffffffffffffffffffffffffffffffffff82141561231857612317612354565b5b600182019050919050565b600061232e8261222b565b91506123398361222b565b92508261234957612348612383565b5b828206905092915050565b7f4e487b7100000000000000000000000000000000000000000000000000000000600052601160045260246000fd5b7f4e487b7100000000000000000000000000000000000000000000000000000000600052601260045260246000fd5b7f4e487b7100000000000000000000000000000000000000000000000000000000600052602260045260246000fd5b7f4e487b7100000000000000000000000000000000000000000000000000000000600052603260045260246000fd5b7f4e487b7100000000000000000000000000000000000000000000000000000000600052604160045260246000fd5b600080fd5b600080fd5b600080fd5b600080fd5b6000601f19601f8301169050919050565b7f4552433732313a207472616e7366657220746f206e6f6e20455243373231526560008201527f63656976657220696d706c656d656e7465720000000000000000000000000000602082015250565b7f4552433732313a207472616e736665722066726f6d20696e636f72726563742060008201527f6f776e6572000000000000000000000000000000000000000000000000000000602082015250565b7f4552433732313a20746f6b656e20616c7265616479206d696e74656400000000600082015250565b7f4552433732313a207472616e7366657220746f20746865207a65726f2061646460008201527f7265737300000000000000000000000000000000000000000000000000000000602082015250565b7f4552433732313a20617070726f766520746f2063616c6c657200000000000000600082015250565b7f4552433732313a206f70657261746f7220717565727920666f72206e6f6e657860008201527f697374656e7420746f6b656e0000000000000000000000000000000000000000602082015250565b7f4552433732313a207472616e736765722063616c6c6572206973206e6f74206f60008201527f776e6572206e6f7220617070726f766564000000000000000000000000000000602082015250565b7f4552433732313a20617070726f76652063616c6c6572206973206e6f74206f7760008201527f6e6572206e6f7220617070726f76656420666f7220616c6c0000000000000000602082015250565b7f4552433732313a2062616c616e636520717565727920666f7220746865207a6560008201527f726f206164647265737300000000000000000000000000000000000000000000602082015250565b7f4552433732313a206f776e657220717565727920666f72206e6f6e657869737460008201527f656e7420746f6b656e0000000000000000000000000000000000000000000000602082015250565b7f4552433732313a206d696e7420746f20746865207a65726f2061646472657373600082015250565b7f4552433732313a20617070726f76656420717565727920666f72206e6f6e657860008201527f697374656e7420746f6b656e0000000000000000000000000000000000000000602082015250565b7f4552433732313a20617070726f76616c20746f2063757272656e74206f776e6560008201527f7200000000000000000000000000000000000000000000000000000000000000602082015250565b7f4552433732313a207472616e736665722063616c6c6572206973206e6f74206f60008201527f776e6572206e6f7220617070726f766564000000000000000000000000000000602082015250565b7f4552433732314d657461646174653a2055524920717565727920666f72206e6f60008201527f6e6578697374656e7420746f6b656e0000000000000000000000000000000000602082015250565b61289c816121c1565b81146128a757600080fd5b50565b6128b3816121d3565b81146128be57600080fd5b50565b6128ca816121df565b81146128d557600080fd5b50565b6128e18161222b565b81146128ec57600080fd5b5056fea2646970667358221220618c7be44f7ac6eb367d4d060dec9f80162c749a7989d5e1fe3551c13f423d4c64736f6c63430008070033",
					"opcodes": "PUSH1 0x80 PUSH1 0x40 MSTORE CALLVALUE DUP1 ISZERO PUSH3 0x11 JUMPI PUSH1 0x0 DUP1 REVERT JUMPDEST POP PUSH1 0x40 MLOAD DUP1 PUSH1 0x40 ADD PUSH1 0x40 MSTORE DUP1 PUSH1 0x4 DUP2 MSTORE PUSH1 0x20 ADD PUSH32 0x4C414E4400000000000000000000000000000000000000000000000000000000 DUP2 MSTORE POP PUSH1 0x40 MLOAD DUP1 PUSH1 0x40 ADD PUSH1 0x40 MSTORE DUP1 PUSH1 0x2 DUP2 MSTORE PUSH1 0x20 ADD PUSH32 0x4C44000000000000000000000000000000000000000000000000000000000000 DUP2 MSTORE POP DUP2 PUSH1 0x0 SWAP1 DUP1 MLOAD SWAP1 PUSH1 0x20 ADD SWAP1 PUSH3 0x96 SWAP3 SWAP2 SWAP1 PUSH3 0xB8 JUMP JUMPDEST POP DUP1 PUSH1 0x1 SWAP1 DUP1 MLOAD SWAP1 PUSH1 0x20 ADD SWAP1 PUSH3 0xAF SWAP3 SWAP2 SWAP1 PUSH3 0xB8 JUMP JUMPDEST POP POP POP PUSH3 0x1CD JUMP JUMPDEST DUP3 DUP1 SLOAD PUSH3 0xC6 SWAP1 PUSH3 0x168 JUMP JUMPDEST SWAP1 PUSH1 0x0 MSTORE PUSH1 0x20 PUSH1 0x0 KECCAK256 SWAP1 PUSH1 0x1F ADD PUSH1 0x20 SWAP1 DIV DUP2 ADD SWAP3 DUP3 PUSH3 0xEA JUMPI PUSH1 0x0 DUP6 SSTORE PUSH3 0x136 JUMP JUMPDEST DUP3 PUSH1 0x1F LT PUSH3 0x105 JUMPI DUP1 MLOAD PUSH1 0xFF NOT AND DUP4 DUP1 ADD OR DUP6 SSTORE PUSH3 0x136 JUMP JUMPDEST DUP3 DUP1 ADD PUSH1 0x1 ADD DUP6 SSTORE DUP3 ISZERO PUSH3 0x136 JUMPI SWAP2 DUP3 ADD JUMPDEST DUP3 DUP2 GT ISZERO PUSH3 0x135 JUMPI DUP3 MLOAD DUP3 SSTORE SWAP2 PUSH1 0x20 ADD SWAP2 SWAP1 PUSH1 0x1 ADD SWAP1 PUSH3 0x118 JUMP JUMPDEST JUMPDEST POP SWAP1 POP PUSH3 0x145 SWAP2 SWAP1 PUSH3 0x149 JUMP JUMPDEST POP SWAP1 JUMP JUMPDEST JUMPDEST DUP1 DUP3 GT ISZERO PUSH3 0x164 JUMPI PUSH1 0x0 DUP2 PUSH1 0x0 SWAP1 SSTORE POP PUSH1 0x1 ADD PUSH3 0x14A JUMP JUMPDEST POP SWAP1 JUMP JUMPDEST PUSH1 0x0 PUSH1 0x2 DUP3 DIV SWAP1 POP PUSH1 0x1 DUP3 AND DUP1 PUSH3 0x181 JUMPI PUSH1 0x7F DUP3 AND SWAP2 POP JUMPDEST PUSH1 0x20 DUP3 LT DUP2 EQ ISZERO PUSH3 0x198 JUMPI PUSH3 0x197 PUSH3 0x19E JUMP JUMPDEST JUMPDEST POP SWAP2 SWAP1 POP JUMP JUMPDEST PUSH32 0x4E487B7100000000000000000000000000000000000000000000000000000000 PUSH1 0x0 MSTORE PUSH1 0x22 PUSH1 0x4 MSTORE PUSH1 0x24 PUSH1 0x0 REVERT JUMPDEST PUSH2 0x2925 DUP1 PUSH3 0x1DD PUSH1 0x0 CODECOPY PUSH1 0x0 RETURN INVALID PUSH1 0x80 PUSH1 0x40 MSTORE CALLVALUE DUP1 ISZERO PUSH2 0x10 JUMPI PUSH1 0x0 DUP1 REVERT JUMPDEST POP PUSH1 0x4 CALLDATASIZE LT PUSH2 0xF5 JUMPI PUSH1 0x0 CALLDATALOAD PUSH1 0xE0 SHR DUP1 PUSH4 0x6352211E GT PUSH2 0x97 JUMPI DUP1 PUSH4 0xA22CB465 GT PUSH2 0x66 JUMPI DUP1 PUSH4 0xA22CB465 EQ PUSH2 0x282 JUMPI DUP1 PUSH4 0xB88D4FDE EQ PUSH2 0x29E JUMPI DUP1 PUSH4 0xC87B56DD EQ PUSH2 0x2BA JUMPI DUP1 PUSH4 0xE985E9C5 EQ PUSH2 0x2EA JUMPI PUSH2 0xF5 JUMP JUMPDEST DUP1 PUSH4 0x6352211E EQ PUSH2 0x1E8 JUMPI DUP1 PUSH4 0x70A08231 EQ PUSH2 0x218 JUMPI DUP1 PUSH4 0x95D89B41 EQ PUSH2 0x248 JUMPI DUP1 PUSH4 0xA0712D68 EQ PUSH2 0x266 JUMPI PUSH2 0xF5 JUMP JUMPDEST DUP1 PUSH4 0x95EA7B3 GT PUSH2 0xD3 JUMPI DUP1 PUSH4 0x95EA7B3 EQ PUSH2 0x178 JUMPI DUP1 PUSH4 0x23B872DD EQ PUSH2 0x194 JUMPI DUP1 PUSH4 0x42842E0E EQ PUSH2 0x1B0 JUMPI DUP1 PUSH4 0x42966C68 EQ PUSH2 0x1CC JUMPI PUSH2 0xF5 JUMP JUMPDEST DUP1 PUSH4 0x1FFC9A7 EQ PUSH2 0xFA JUMPI DUP1 PUSH4 0x6FDDE03 EQ PUSH2 0x12A JUMPI DUP1 PUSH4 0x81812FC EQ PUSH2 0x148 JUMPI JUMPDEST PUSH1 0x0 DUP1 REVERT JUMPDEST PUSH2 0x114 PUSH1 0x4 DUP1 CALLDATASIZE SUB DUP2 ADD SWAP1 PUSH2 0x10F SWAP2 SWAP1 PUSH2 0x1A46 JUMP JUMPDEST PUSH2 0x31A JUMP JUMPDEST PUSH1 0x40 MLOAD PUSH2 0x121 SWAP2 SWAP1 PUSH2 0x1E35 JUMP JUMPDEST PUSH1 0x40 MLOAD DUP1 SWAP2 SUB SWAP1 RETURN JUMPDEST PUSH2 0x132 PUSH2 0x3FC JUMP JUMPDEST PUSH1 0x40 MLOAD PUSH2 0x13F SWAP2 SWAP1 PUSH2 0x1E50 JUMP JUMPDEST PUSH1 0x40 MLOAD DUP1 SWAP2 SUB SWAP1 RETURN JUMPDEST PUSH2 0x162 PUSH1 0x4 DUP1 CALLDATASIZE SUB DUP2 ADD SWAP1 PUSH2 0x15D SWAP2 SWAP1 PUSH2 0x1AA0 JUMP JUMPDEST PUSH2 0x48E JUMP JUMPDEST PUSH1 0x40 MLOAD PUSH2 0x16F SWAP2 SWAP1 PUSH2 0x1DCE JUMP JUMPDEST PUSH1 0x40 MLOAD DUP1 SWAP2 SUB SWAP1 RETURN JUMPDEST PUSH2 0x192 PUSH1 0x4 DUP1 CALLDATASIZE SUB DUP2 ADD SWAP1 PUSH2 0x18D SWAP2 SWAP1 PUSH2 0x1A06 JUMP JUMPDEST PUSH2 0x513 JUMP JUMPDEST STOP JUMPDEST PUSH2 0x1AE PUSH1 0x4 DUP1 CALLDATASIZE SUB DUP2 ADD SWAP1 PUSH2 0x1A9 SWAP2 SWAP1 PUSH2 0x18F0 JUMP JUMPDEST PUSH2 0x62B JUMP JUMPDEST STOP JUMPDEST PUSH2 0x1CA PUSH1 0x4 DUP1 CALLDATASIZE SUB DUP2 ADD SWAP1 PUSH2 0x1C5 SWAP2 SWAP1 PUSH2 0x18F0 JUMP JUMPDEST PUSH2 0x68B JUMP JUMPDEST STOP JUMPDEST PUSH2 0x1E6 PUSH1 0x4 DUP1 CALLDATASIZE SUB DUP2 ADD SWAP1 PUSH2 0x1E1 SWAP2 SWAP1 PUSH2 0x1AA0 JUMP JUMPDEST PUSH2 0x69B JUMP JUMPDEST STOP JUMPDEST PUSH2 0x202 PUSH1 0x4 DUP1 CALLDATASIZE SUB DUP2 ADD SWAP1 PUSH2 0x1FD SWAP2 SWAP1 PUSH2 0x1AA0 JUMP JUMPDEST PUSH2 0x6A7 JUMP JUMPDEST PUSH1 0x40 MLOAD PUSH2 0x20F SWAP2 SWAP1 PUSH2 0x1DCE JUMP JUMPDEST PUSH1 0x40 MLOAD DUP1 SWAP2 SUB SWAP1 RETURN JUMPDEST PUSH2 0x232 PUSH1 0x4 DUP1 CALLDATASIZE SUB DUP2 ADD SWAP1 PUSH2 0x22D SWAP2 SWAP1 PUSH2 0x1883 JUMP JUMPDEST PUSH2 0x759 JUMP JUMPDEST PUSH1 0x40 MLOAD PUSH2 0x23F SWAP2 SWAP1 PUSH2 0x2052 JUMP JUMPDEST PUSH1 0x40 MLOAD DUP1 SWAP2 SUB SWAP1 RETURN JUMPDEST PUSH2 0x250 PUSH2 0x811 JUMP JUMPDEST PUSH1 0x40 MLOAD PUSH2 0x25D SWAP2 SWAP1 PUSH2 0x1E50 JUMP JUMPDEST PUSH1 0x40 MLOAD DUP1 SWAP2 SUB SWAP1 RETURN JUMPDEST PUSH2 0x280 PUSH1 0x4 DUP1 CALLDATASIZE SUB DUP2 ADD SWAP1 PUSH2 0x27B SWAP2 SWAP1 PUSH2 0x1AA0 JUMP JUMPDEST PUSH2 0x8A3 JUMP JUMPDEST STOP JUMPDEST PUSH2 0x29C PUSH1 0x4 DUP1 CALLDATASIZE SUB DUP2 ADD SWAP1 PUSH2 0x297 SWAP2 SWAP1 PUSH2 0x19C6 JUMP JUMPDEST PUSH2 0x8B6 JUMP JUMPDEST STOP JUMPDEST PUSH2 0x2B8 PUSH1 0x4 DUP1 CALLDATASIZE SUB DUP2 ADD SWAP1 PUSH2 0x2B3 SWAP2 SWAP1 PUSH2 0x1943 JUMP JUMPDEST PUSH2 0x8CC JUMP JUMPDEST STOP JUMPDEST PUSH2 0x2D4 PUSH1 0x4 DUP1 CALLDATASIZE SUB DUP2 ADD SWAP1 PUSH2 0x2CF SWAP2 SWAP1 PUSH2 0x1AA0 JUMP JUMPDEST PUSH2 0x92E JUMP JUMPDEST PUSH1 0x40 MLOAD PUSH2 0x2E1 SWAP2 SWAP1 PUSH2 0x1E50 JUMP JUMPDEST PUSH1 0x40 MLOAD DUP1 SWAP2 SUB SWAP1 RETURN JUMPDEST PUSH2 0x304 PUSH1 0x4 DUP1 CALLDATASIZE SUB DUP2 ADD SWAP1 PUSH2 0x2FF SWAP2 SWAP1 PUSH2 0x18B0 JUMP JUMPDEST PUSH2 0x9D5 JUMP JUMPDEST PUSH1 0x40 MLOAD PUSH2 0x311 SWAP2 SWAP1 PUSH2 0x1E35 JUMP JUMPDEST PUSH1 0x40 MLOAD DUP1 SWAP2 SUB SWAP1 RETURN JUMPDEST PUSH1 0x0 PUSH32 0x80AC58CD00000000000000000000000000000000000000000000000000000000 PUSH28 0xFFFFFFFFFFFFFFFFFFFFFFFFFFFFFFFFFFFFFFFFFFFFFFFFFFFFFFFF NOT AND DUP3 PUSH28 0xFFFFFFFFFFFFFFFFFFFFFFFFFFFFFFFFFFFFFFFFFFFFFFFFFFFFFFFF NOT AND EQ DUP1 PUSH2 0x3E5 JUMPI POP PUSH32 0x5B5E139F00000000000000000000000000000000000000000000000000000000 PUSH28 0xFFFFFFFFFFFFFFFFFFFFFFFFFFFFFFFFFFFFFFFFFFFFFFFFFFFFFFFF NOT AND DUP3 PUSH28 0xFFFFFFFFFFFFFFFFFFFFFFFFFFFFFFFFFFFFFFFFFFFFFFFFFFFFFFFF NOT AND EQ JUMPDEST DUP1 PUSH2 0x3F5 JUMPI POP PUSH2 0x3F4 DUP3 PUSH2 0xA69 JUMP JUMPDEST JUMPDEST SWAP1 POP SWAP2 SWAP1 POP JUMP JUMPDEST PUSH1 0x60 PUSH1 0x0 DUP1 SLOAD PUSH2 0x40B SWAP1 PUSH2 0x2277 JUMP JUMPDEST DUP1 PUSH1 0x1F ADD PUSH1 0x20 DUP1 SWAP2 DIV MUL PUSH1 0x20 ADD PUSH1 0x40 MLOAD SWAP1 DUP2 ADD PUSH1 0x40 MSTORE DUP1 SWAP3 SWAP2 SWAP1 DUP2 DUP2 MSTORE PUSH1 0x20 ADD DUP3 DUP1 SLOAD PUSH2 0x437 SWAP1 PUSH2 0x2277 JUMP JUMPDEST DUP1 ISZERO PUSH2 0x484 JUMPI DUP1 PUSH1 0x1F LT PUSH2 0x459 JUMPI PUSH2 0x100 DUP1 DUP4 SLOAD DIV MUL DUP4 MSTORE SWAP2 PUSH1 0x20 ADD SWAP2 PUSH2 0x484 JUMP JUMPDEST DUP3 ADD SWAP2 SWAP1 PUSH1 0x0 MSTORE PUSH1 0x20 PUSH1 0x0 KECCAK256 SWAP1 JUMPDEST DUP2 SLOAD DUP2 MSTORE SWAP1 PUSH1 0x1 ADD SWAP1 PUSH1 0x20 ADD DUP1 DUP4 GT PUSH2 0x467 JUMPI DUP3 SWAP1 SUB PUSH1 0x1F AND DUP3 ADD SWAP2 JUMPDEST POP POP POP POP POP SWAP1 POP SWAP1 JUMP JUMPDEST PUSH1 0x0 PUSH2 0x499 DUP3 PUSH2 0xAD3 JUMP JUMPDEST PUSH2 0x4D8 JUMPI PUSH1 0x40 MLOAD PUSH32 0x8C379A000000000000000000000000000000000000000000000000000000000 DUP2 MSTORE PUSH1 0x4 ADD PUSH2 0x4CF SWAP1 PUSH2 0x1FD2 JUMP JUMPDEST PUSH1 0x40 MLOAD DUP1 SWAP2 SUB SWAP1 REVERT JUMPDEST PUSH1 0x4 PUSH1 0x0 DUP4 DUP2 MSTORE PUSH1 0x20 ADD SWAP1 DUP2 MSTORE PUSH1 0x20 ADD PUSH1 0x0 KECCAK256 PUSH1 0x0 SWAP1 SLOAD SWAP1 PUSH2 0x100 EXP SWAP1 DIV PUSH20 0xFFFFFFFFFFFFFFFFFFFFFFFFFFFFFFFFFFFFFFFF AND SWAP1 POP SWAP2 SWAP1 POP JUMP JUMPDEST PUSH1 0x0 PUSH2 0x51E DUP3 PUSH2 0x6A7 JUMP JUMPDEST SWAP1 POP DUP1 PUSH20 0xFFFFFFFFFFFFFFFFFFFFFFFFFFFFFFFFFFFFFFFF AND DUP4 PUSH20 0xFFFFFFFFFFFFFFFFFFFFFFFFFFFFFFFFFFFFFFFF AND EQ ISZERO PUSH2 0x58F JUMPI PUSH1 0x40 MLOAD PUSH32 0x8C379A000000000000000000000000000000000000000000000000000000000 DUP2 MSTORE PUSH1 0x4 ADD PUSH2 0x586 SWAP1 PUSH2 0x1FF2 JUMP JUMPDEST PUSH1 0x40 MLOAD DUP1 SWAP2 SUB SWAP1 REVERT JUMPDEST DUP1 PUSH20 0xFFFFFFFFFFFFFFFFFFFFFFFFFFFFFFFFFFFFFFFF AND PUSH2 0x5AE PUSH2 0xB3F JUMP JUMPDEST PUSH20 0xFFFFFFFFFFFFFFFFFFFFFFFFFFFFFFFFFFFFFFFF AND EQ DUP1 PUSH2 0x5DD JUMPI POP PUSH2 0x5DC DUP2 PUSH2 0x5D7 PUSH2 0xB3F JUMP JUMPDEST PUSH2 0x9D5 JUMP JUMPDEST JUMPDEST PUSH2 0x61C JUMPI PUSH1 0x40 MLOAD PUSH32 0x8C379A000000000000000000000000000000000000000000000000000000000 DUP2 MSTORE PUSH1 0x4 ADD PUSH2 0x613 SWAP1 PUSH2 0x1F52 JUMP JUMPDEST PUSH1 0x40 MLOAD DUP1 SWAP2 SUB SWAP1 REVERT JUMPDEST PUSH2 0x626 DUP4 DUP4 PUSH2 0xB47 JUMP JUMPDEST POP POP POP JUMP JUMPDEST PUSH2 0x63C PUSH2 0x636 PUSH2 0xB3F JUMP JUMPDEST DUP3 PUSH2 0xC00 JUMP JUMPDEST PUSH2 0x67B JUMPI PUSH1 0x40 MLOAD PUSH32 0x8C379A000000000000000000000000000000000000000000000000000000000 DUP2 MSTORE PUSH1 0x4 ADD PUSH2 0x672 SWAP1 PUSH2 0x2012 JUMP JUMPDEST PUSH1 0x40 MLOAD DUP1 SWAP2 SUB SWAP1 REVERT JUMPDEST PUSH2 0x686 DUP4 DUP4 DUP4 PUSH2 0xCDE JUMP JUMPDEST POP POP POP JUMP JUMPDEST PUSH2 0x696 DUP4 DUP4 DUP4 PUSH2 0x68B JUMP JUMPDEST POP POP POP JUMP JUMPDEST PUSH2 0x6A4 DUP2 PUSH2 0xF45 JUMP JUMPDEST POP JUMP JUMPDEST PUSH1 0x0 DUP1 PUSH1 0x2 PUSH1 0x0 DUP5 DUP2 MSTORE PUSH1 0x20 ADD SWAP1 DUP2 MSTORE PUSH1 0x20 ADD PUSH1 0x0 KECCAK256 PUSH1 0x0 SWAP1 SLOAD SWAP1 PUSH2 0x100 EXP SWAP1 DIV PUSH20 0xFFFFFFFFFFFFFFFFFFFFFFFFFFFFFFFFFFFFFFFF AND SWAP1 POP PUSH1 0x0 PUSH20 0xFFFFFFFFFFFFFFFFFFFFFFFFFFFFFFFFFFFFFFFF AND DUP2 PUSH20 0xFFFFFFFFFFFFFFFFFFFFFFFFFFFFFFFFFFFFFFFF AND EQ ISZERO PUSH2 0x750 JUMPI PUSH1 0x40 MLOAD PUSH32 0x8C379A000000000000000000000000000000000000000000000000000000000 DUP2 MSTORE PUSH1 0x4 ADD PUSH2 0x747 SWAP1 PUSH2 0x1F92 JUMP JUMPDEST PUSH1 0x40 MLOAD DUP1 SWAP2 SUB SWAP1 REVERT JUMPDEST DUP1 SWAP2 POP POP SWAP2 SWAP1 POP JUMP JUMPDEST PUSH1 0x0 DUP1 PUSH20 0xFFFFFFFFFFFFFFFFFFFFFFFFFFFFFFFFFFFFFFFF AND DUP3 PUSH20 0xFFFFFFFFFFFFFFFFFFFFFFFFFFFFFFFFFFFFFFFF AND EQ ISZERO PUSH2 0x7CA JUMPI PUSH1 0x40 MLOAD PUSH32 0x8C379A000000000000000000000000000000000000000000000000000000000 DUP2 MSTORE PUSH1 0x4 ADD PUSH2 0x7C1 SWAP1 PUSH2 0x1F72 JUMP JUMPDEST PUSH1 0x40 MLOAD DUP1 SWAP2 SUB SWAP1 REVERT JUMPDEST PUSH1 0x3 PUSH1 0x0 DUP4 PUSH20 0xFFFFFFFFFFFFFFFFFFFFFFFFFFFFFFFFFFFFFFFF AND PUSH20 0xFFFFFFFFFFFFFFFFFFFFFFFFFFFFFFFFFFFFFFFF AND DUP2 MSTORE PUSH1 0x20 ADD SWAP1 DUP2 MSTORE PUSH1 0x20 ADD PUSH1 0x0 KECCAK256 SLOAD SWAP1 POP SWAP2 SWAP1 POP JUMP JUMPDEST PUSH1 0x60 PUSH1 0x1 DUP1 SLOAD PUSH2 0x820 SWAP1 PUSH2 0x2277 JUMP JUMPDEST DUP1 PUSH1 0x1F ADD PUSH1 0x20 DUP1 SWAP2 DIV MUL PUSH1 0x20 ADD PUSH1 0x40 MLOAD SWAP1 DUP2 ADD PUSH1 0x40 MSTORE DUP1 SWAP3 SWAP2 SWAP1 DUP2 DUP2 MSTORE PUSH1 0x20 ADD DUP3 DUP1 SLOAD PUSH2 0x84C SWAP1 PUSH2 0x2277 JUMP JUMPDEST DUP1 ISZERO PUSH2 0x899 JUMPI DUP1 PUSH1 0x1F LT PUSH2 0x86E JUMPI PUSH2 0x100 DUP1 DUP4 SLOAD DIV MUL DUP4 MSTORE SWAP2 PUSH1 0x20 ADD SWAP2 PUSH2 0x899 JUMP JUMPDEST DUP3 ADD SWAP2 SWAP1 PUSH1 0x0 MSTORE PUSH1 0x20 PUSH1 0x0 KECCAK256 SWAP1 JUMPDEST DUP2 SLOAD DUP2 MSTORE SWAP1 PUSH1 0x1 ADD SWAP1 PUSH1 0x20 ADD DUP1 DUP4 GT PUSH2 0x87C JUMPI DUP3 SWAP1 SUB PUSH1 0x1F AND DUP3 ADD SWAP2 JUMPDEST POP POP POP POP POP SWAP1 POP SWAP1 JUMP JUMPDEST PUSH1 0x0 DUP2 SWAP1 POP PUSH2 0x8B2 CALLER DUP3 PUSH2 0x1062 JUMP JUMPDEST POP POP JUMP JUMPDEST PUSH2 0x8C8 PUSH2 0x8C1 PUSH2 0xB3F JUMP JUMPDEST DUP4 DUP4 PUSH2 0x1080 JUMP JUMPDEST POP POP JUMP JUMPDEST PUSH2 0x8DD PUSH2 0x8D7 PUSH2 0xB3F JUMP JUMPDEST DUP4 PUSH2 0xC00 JUMP JUMPDEST PUSH2 0x91C JUMPI PUSH1 0x40 MLOAD PUSH32 0x8C379A000000000000000000000000000000000000000000000000000000000 DUP2 MSTORE PUSH1 0x4 ADD PUSH2 0x913 SWAP1 PUSH2 0x1F32 JUMP JUMPDEST PUSH1 0x40 MLOAD DUP1 SWAP2 SUB SWAP1 REVERT JUMPDEST PUSH2 0x928 DUP5 DUP5 DUP5 DUP5 PUSH2 0x11ED JUMP JUMPDEST POP POP POP POP JUMP JUMPDEST PUSH1 0x60 PUSH2 0x939 DUP3 PUSH2 0xAD3 JUMP JUMPDEST PUSH2 0x978 JUMPI PUSH1 0x40 MLOAD PUSH32 0x8C379A000000000000000000000000000000000000000000000000000000000 DUP2 MSTORE PUSH1 0x4 ADD PUSH2 0x96F SWAP1 PUSH2 0x2032 JUMP JUMPDEST PUSH1 0x40 MLOAD DUP1 SWAP2 SUB SWAP1 REVERT JUMPDEST PUSH1 0x0 PUSH2 0x982 PUSH2 0x1249 JUMP JUMPDEST SWAP1 POP PUSH1 0x0 DUP2 MLOAD GT PUSH2 0x9A2 JUMPI PUSH1 0x40 MLOAD DUP1 PUSH1 0x20 ADD PUSH1 0x40 MSTORE DUP1 PUSH1 0x0 DUP2 MSTORE POP PUSH2 0x9CD JUMP JUMPDEST DUP1 PUSH2 0x9AC DUP5 PUSH2 0x1260 JUMP JUMPDEST PUSH1 0x40 MLOAD PUSH1 0x20 ADD PUSH2 0x9BD SWAP3 SWAP2 SWAP1 PUSH2 0x1DAA JUMP JUMPDEST PUSH1 0x40 MLOAD PUSH1 0x20 DUP2 DUP4 SUB SUB DUP2 MSTORE SWAP1 PUSH1 0x40 MSTORE JUMPDEST SWAP2 POP POP SWAP2 SWAP1 POP JUMP JUMPDEST PUSH1 0x0 PUSH1 0x5 PUSH1 0x0 DUP5 PUSH20 0xFFFFFFFFFFFFFFFFFFFFFFFFFFFFFFFFFFFFFFFF AND PUSH20 0xFFFFFFFFFFFFFFFFFFFFFFFFFFFFFFFFFFFFFFFF AND DUP2 MSTORE PUSH1 0x20 ADD SWAP1 DUP2 MSTORE PUSH1 0x20 ADD PUSH1 0x0 KECCAK256 PUSH1 0x0 DUP4 PUSH20 0xFFFFFFFFFFFFFFFFFFFFFFFFFFFFFFFFFFFFFFFF AND PUSH20 0xFFFFFFFFFFFFFFFFFFFFFFFFFFFFFFFFFFFFFFFF AND DUP2 MSTORE PUSH1 0x20 ADD SWAP1 DUP2 MSTORE PUSH1 0x20 ADD PUSH1 0x0 KECCAK256 PUSH1 0x0 SWAP1 SLOAD SWAP1 PUSH2 0x100 EXP SWAP1 DIV PUSH1 0xFF AND SWAP1 POP SWAP3 SWAP2 POP POP JUMP JUMPDEST PUSH1 0x0 PUSH32 0x1FFC9A700000000000000000000000000000000000000000000000000000000 PUSH28 0xFFFFFFFFFFFFFFFFFFFFFFFFFFFFFFFFFFFFFFFFFFFFFFFFFFFFFFFF NOT AND DUP3 PUSH28 0xFFFFFFFFFFFFFFFFFFFFFFFFFFFFFFFFFFFFFFFFFFFFFFFFFFFFFFFF NOT AND EQ SWAP1 POP SWAP2 SWAP1 POP JUMP JUMPDEST PUSH1 0x0 DUP1 PUSH20 0xFFFFFFFFFFFFFFFFFFFFFFFFFFFFFFFFFFFFFFFF AND PUSH1 0x2 PUSH1 0x0 DUP5 DUP2 MSTORE PUSH1 0x20 ADD SWAP1 DUP2 MSTORE PUSH1 0x20 ADD PUSH1 0x0 KECCAK256 PUSH1 0x0 SWAP1 SLOAD SWAP1 PUSH2 0x100 EXP SWAP1 DIV PUSH20 0xFFFFFFFFFFFFFFFFFFFFFFFFFFFFFFFFFFFFFFFF AND PUSH20 0xFFFFFFFFFFFFFFFFFFFFFFFFFFFFFFFFFFFFFFFF AND EQ ISZERO SWAP1 POP SWAP2 SWAP1 POP JUMP JUMPDEST PUSH1 0x0 CALLER SWAP1 POP SWAP1 JUMP JUMPDEST DUP2 PUSH1 0x4 PUSH1 0x0 DUP4 DUP2 MSTORE PUSH1 0x20 ADD SWAP1 DUP2 MSTORE PUSH1 0x20 ADD PUSH1 0x0 KECCAK256 PUSH1 0x0 PUSH2 0x100 EXP DUP2 SLOAD DUP2 PUSH20 0xFFFFFFFFFFFFFFFFFFFFFFFFFFFFFFFFFFFFFFFF MUL NOT AND SWAP1 DUP4 PUSH20 0xFFFFFFFFFFFFFFFFFFFFFFFFFFFFFFFFFFFFFFFF AND MUL OR SWAP1 SSTORE POP DUP1 DUP3 PUSH20 0xFFFFFFFFFFFFFFFFFFFFFFFFFFFFFFFFFFFFFFFF AND PUSH2 0xBBA DUP4 PUSH2 0x6A7 JUMP JUMPDEST PUSH20 0xFFFFFFFFFFFFFFFFFFFFFFFFFFFFFFFFFFFFFFFF AND PUSH32 0x8C5BE1E5EBEC7D5BD14F71427D1E84F3DD0314C0F7B2291E5B200AC8C7C3B925 PUSH1 0x40 MLOAD PUSH1 0x40 MLOAD DUP1 SWAP2 SUB SWAP1 LOG4 POP POP JUMP JUMPDEST PUSH1 0x0 PUSH2 0xC0B DUP3 PUSH2 0xAD3 JUMP JUMPDEST PUSH2 0xC4A JUMPI PUSH1 0x40 MLOAD PUSH32 0x8C379A000000000000000000000000000000000000000000000000000000000 DUP2 MSTORE PUSH1 0x4 ADD PUSH2 0xC41 SWAP1 PUSH2 0x1F12 JUMP JUMPDEST PUSH1 0x40 MLOAD DUP1 SWAP2 SUB SWAP1 REVERT JUMPDEST PUSH1 0x0 PUSH2 0xC55 DUP4 PUSH2 0x6A7 JUMP JUMPDEST SWAP1 POP DUP1 PUSH20 0xFFFFFFFFFFFFFFFFFFFFFFFFFFFFFFFFFFFFFFFF AND DUP5 PUSH20 0xFFFFFFFFFFFFFFFFFFFFFFFFFFFFFFFFFFFFFFFF AND EQ DUP1 PUSH2 0xC97 JUMPI POP PUSH2 0xC96 DUP2 DUP6 PUSH2 0x9D5 JUMP JUMPDEST JUMPDEST DUP1 PUSH2 0xCD5 JUMPI POP DUP4 PUSH20 0xFFFFFFFFFFFFFFFFFFFFFFFFFFFFFFFFFFFFFFFF AND PUSH2 0xCBD DUP5 PUSH2 0x48E JUMP JUMPDEST PUSH20 0xFFFFFFFFFFFFFFFFFFFFFFFFFFFFFFFFFFFFFFFF AND EQ JUMPDEST SWAP2 POP POP SWAP3 SWAP2 POP POP JUMP JUMPDEST DUP3 PUSH20 0xFFFFFFFFFFFFFFFFFFFFFFFFFFFFFFFFFFFFFFFF AND PUSH2 0xCFE DUP3 PUSH2 0x6A7 JUMP JUMPDEST PUSH20 0xFFFFFFFFFFFFFFFFFFFFFFFFFFFFFFFFFFFFFFFF AND EQ PUSH2 0xD54 JUMPI PUSH1 0x40 MLOAD PUSH32 0x8C379A000000000000000000000000000000000000000000000000000000000 DUP2 MSTORE PUSH1 0x4 ADD PUSH2 0xD4B SWAP1 PUSH2 0x1E92 JUMP JUMPDEST PUSH1 0x40 MLOAD DUP1 SWAP2 SUB SWAP1 REVERT JUMPDEST PUSH1 0x0 PUSH20 0xFFFFFFFFFFFFFFFFFFFFFFFFFFFFFFFFFFFFFFFF AND DUP3 PUSH20 0xFFFFFFFFFFFFFFFFFFFFFFFFFFFFFFFFFFFFFFFF AND EQ ISZERO PUSH2 0xDC4 JUMPI PUSH1 0x40 MLOAD PUSH32 0x8C379A000000000000000000000000000000000000000000000000000000000 DUP2 MSTORE PUSH1 0x4 ADD PUSH2 0xDBB SWAP1 PUSH2 0x1ED2 JUMP JUMPDEST PUSH1 0x40 MLOAD DUP1 SWAP2 SUB SWAP1 REVERT JUMPDEST PUSH2 0xDCF DUP4 DUP4 DUP4 PUSH2 0x13C1 JUMP JUMPDEST PUSH2 0xDDA PUSH1 0x0 DUP3 PUSH2 0xB47 JUMP JUMPDEST PUSH1 0x1 PUSH1 0x3 PUSH1 0x0 DUP6 PUSH20 0xFFFFFFFFFFFFFFFFFFFFFFFFFFFFFFFFFFFFFFFF AND PUSH20 0xFFFFFFFFFFFFFFFFFFFFFFFFFFFFFFFFFFFFFFFF AND DUP2 MSTORE PUSH1 0x20 ADD SWAP1 DUP2 MSTORE PUSH1 0x20 ADD PUSH1 0x0 KECCAK256 PUSH1 0x0 DUP3 DUP3 SLOAD PUSH2 0xE2A SWAP2 SWAP1 PUSH2 0x218D JUMP JUMPDEST SWAP3 POP POP DUP2 SWAP1 SSTORE POP PUSH1 0x1 PUSH1 0x3 PUSH1 0x0 DUP5 PUSH20 0xFFFFFFFFFFFFFFFFFFFFFFFFFFFFFFFFFFFFFFFF AND PUSH20 0xFFFFFFFFFFFFFFFFFFFFFFFFFFFFFFFFFFFFFFFF AND DUP2 MSTORE PUSH1 0x20 ADD SWAP1 DUP2 MSTORE PUSH1 0x20 ADD PUSH1 0x0 KECCAK256 PUSH1 0x0 DUP3 DUP3 SLOAD PUSH2 0xE81 SWAP2 SWAP1 PUSH2 0x2106 JUMP JUMPDEST SWAP3 POP POP DUP2 SWAP1 SSTORE POP DUP2 PUSH1 0x2 PUSH1 0x0 DUP4 DUP2 MSTORE PUSH1 0x20 ADD SWAP1 DUP2 MSTORE PUSH1 0x20 ADD PUSH1 0x0 KECCAK256 PUSH1 0x0 PUSH2 0x100 EXP DUP2 SLOAD DUP2 PUSH20 0xFFFFFFFFFFFFFFFFFFFFFFFFFFFFFFFFFFFFFFFF MUL NOT AND SWAP1 DUP4 PUSH20 0xFFFFFFFFFFFFFFFFFFFFFFFFFFFFFFFFFFFFFFFF AND MUL OR SWAP1 SSTORE POP DUP1 DUP3 PUSH20 0xFFFFFFFFFFFFFFFFFFFFFFFFFFFFFFFFFFFFFFFF AND DUP5 PUSH20 0xFFFFFFFFFFFFFFFFFFFFFFFFFFFFFFFFFFFFFFFF AND PUSH32 0xDDF252AD1BE2C89B69C2B068FC378DAA952BA7F163C4A11628F55A4DF523B3EF PUSH1 0x40 MLOAD PUSH1 0x40 MLOAD DUP1 SWAP2 SUB SWAP1 LOG4 PUSH2 0xF40 DUP4 DUP4 DUP4 PUSH2 0x13C6 JUMP JUMPDEST POP POP POP JUMP JUMPDEST PUSH1 0x0 PUSH2 0xF50 DUP3 PUSH2 0x6A7 JUMP JUMPDEST SWAP1 POP PUSH2 0xF5E DUP2 PUSH1 0x0 DUP5 PUSH2 0x13C1 JUMP JUMPDEST PUSH2 0xF69 PUSH1 0x0 DUP4 PUSH2 0xB47 JUMP JUMPDEST PUSH1 0x1 PUSH1 0x3 PUSH1 0x0 DUP4 PUSH20 0xFFFFFFFFFFFFFFFFFFFFFFFFFFFFFFFFFFFFFFFF AND PUSH20 0xFFFFFFFFFFFFFFFFFFFFFFFFFFFFFFFFFFFFFFFF AND DUP2 MSTORE PUSH1 0x20 ADD SWAP1 DUP2 MSTORE PUSH1 0x20 ADD PUSH1 0x0 KECCAK256 PUSH1 0x0 DUP3 DUP3 SLOAD PUSH2 0xFB9 SWAP2 SWAP1 PUSH2 0x218D JUMP JUMPDEST SWAP3 POP POP DUP2 SWAP1 SSTORE POP PUSH1 0x2 PUSH1 0x0 DUP4 DUP2 MSTORE PUSH1 0x20 ADD SWAP1 DUP2 MSTORE PUSH1 0x20 ADD PUSH1 0x0 KECCAK256 PUSH1 0x0 PUSH2 0x100 EXP DUP2 SLOAD SWAP1 PUSH20 0xFFFFFFFFFFFFFFFFFFFFFFFFFFFFFFFFFFFFFFFF MUL NOT AND SWAP1 SSTORE DUP2 PUSH1 0x0 PUSH20 0xFFFFFFFFFFFFFFFFFFFFFFFFFFFFFFFFFFFFFFFF AND DUP3 PUSH20 0xFFFFFFFFFFFFFFFFFFFFFFFFFFFFFFFFFFFFFFFF AND PUSH32 0xDDF252AD1BE2C89B69C2B068FC378DAA952BA7F163C4A11628F55A4DF523B3EF PUSH1 0x40 MLOAD PUSH1 0x40 MLOAD DUP1 SWAP2 SUB SWAP1 LOG4 PUSH2 0x105E DUP2 PUSH1 0x0 DUP5 PUSH2 0x13C6 JUMP JUMPDEST POP POP JUMP JUMPDEST PUSH2 0x107C DUP3 DUP3 PUSH1 0x40 MLOAD DUP1 PUSH1 0x20 ADD PUSH1 0x40 MSTORE DUP1 PUSH1 0x0 DUP2 MSTORE POP PUSH2 0x13CB JUMP JUMPDEST POP POP JUMP JUMPDEST DUP2 PUSH20 0xFFFFFFFFFFFFFFFFFFFFFFFFFFFFFFFFFFFFFFFF AND DUP4 PUSH20 0xFFFFFFFFFFFFFFFFFFFFFFFFFFFFFFFFFFFFFFFF AND EQ ISZERO PUSH2 0x10EF JUMPI PUSH1 0x40 MLOAD PUSH32 0x8C379A000000000000000000000000000000000000000000000000000000000 DUP2 MSTORE PUSH1 0x4 ADD PUSH2 0x10E6 SWAP1 PUSH2 0x1EF2 JUMP JUMPDEST PUSH1 0x40 MLOAD DUP1 SWAP2 SUB SWAP1 REVERT JUMPDEST DUP1 PUSH1 0x5 PUSH1 0x0 DUP6 PUSH20 0xFFFFFFFFFFFFFFFFFFFFFFFFFFFFFFFFFFFFFFFF AND PUSH20 0xFFFFFFFFFFFFFFFFFFFFFFFFFFFFFFFFFFFFFFFF AND DUP2 MSTORE PUSH1 0x20 ADD SWAP1 DUP2 MSTORE PUSH1 0x20 ADD PUSH1 0x0 KECCAK256 PUSH1 0x0 DUP5 PUSH20 0xFFFFFFFFFFFFFFFFFFFFFFFFFFFFFFFFFFFFFFFF AND PUSH20 0xFFFFFFFFFFFFFFFFFFFFFFFFFFFFFFFFFFFFFFFF AND DUP2 MSTORE PUSH1 0x20 ADD SWAP1 DUP2 MSTORE PUSH1 0x20 ADD PUSH1 0x0 KECCAK256 PUSH1 0x0 PUSH2 0x100 EXP DUP2 SLOAD DUP2 PUSH1 0xFF MUL NOT AND SWAP1 DUP4 ISZERO ISZERO MUL OR SWAP1 SSTORE POP DUP2 PUSH20 0xFFFFFFFFFFFFFFFFFFFFFFFFFFFFFFFFFFFFFFFF AND DUP4 PUSH20 0xFFFFFFFFFFFFFFFFFFFFFFFFFFFFFFFFFFFFFFFF AND PUSH32 0x17307EAB39AB6107E8899845AD3D59BD9653F200F220920489CA2B5937696C31 DUP4 PUSH1 0x40 MLOAD PUSH2 0x11E0 SWAP2 SWAP1 PUSH2 0x1E35 JUMP JUMPDEST PUSH1 0x40 MLOAD DUP1 SWAP2 SUB SWAP1 LOG3 POP POP POP JUMP JUMPDEST PUSH2 0x11F8 DUP5 DUP5 DUP5 PUSH2 0xCDE JUMP JUMPDEST PUSH2 0x1204 DUP5 DUP5 DUP5 DUP5 PUSH2 0x1426 JUMP JUMPDEST PUSH2 0x1243 JUMPI PUSH1 0x40 MLOAD PUSH32 0x8C379A000000000000000000000000000000000000000000000000000000000 DUP2 MSTORE PUSH1 0x4 ADD PUSH2 0x123A SWAP1 PUSH2 0x1E72 JUMP JUMPDEST PUSH1 0x40 MLOAD DUP1 SWAP2 SUB SWAP1 REVERT JUMPDEST POP POP POP POP JUMP JUMPDEST PUSH1 0x60 PUSH1 0x40 MLOAD DUP1 PUSH1 0x20 ADD PUSH1 0x40 MSTORE DUP1 PUSH1 0x0 DUP2 MSTORE POP SWAP1 POP SWAP1 JUMP JUMPDEST PUSH1 0x60 PUSH1 0x0 DUP3 EQ ISZERO PUSH2 0x12A8 JUMPI PUSH1 0x40 MLOAD DUP1 PUSH1 0x40 ADD PUSH1 0x40 MSTORE DUP1 PUSH1 0x1 DUP2 MSTORE PUSH1 0x20 ADD PUSH32 0x3000000000000000000000000000000000000000000000000000000000000000 DUP2 MSTORE POP SWAP1 POP PUSH2 0x13BC JUMP JUMPDEST PUSH1 0x0 DUP3 SWAP1 POP PUSH1 0x0 JUMPDEST PUSH1 0x0 DUP3 EQ PUSH2 0x12DA JUMPI DUP1 DUP1 PUSH2 0x12C3 SWAP1 PUSH2 0x22DA JUMP JUMPDEST SWAP2 POP POP PUSH1 0xA DUP3 PUSH2 0x12D3 SWAP2 SWAP1 PUSH2 0x215C JUMP JUMPDEST SWAP2 POP PUSH2 0x12B0 JUMP JUMPDEST PUSH1 0x0 DUP2 PUSH8 0xFFFFFFFFFFFFFFFF DUP2 GT ISZERO PUSH2 0x12F6 JUMPI PUSH2 0x12F5 PUSH2 0x2410 JUMP JUMPDEST JUMPDEST PUSH1 0x40 MLOAD SWAP1 DUP1 DUP3 MSTORE DUP1 PUSH1 0x1F ADD PUSH1 0x1F NOT AND PUSH1 0x20 ADD DUP3 ADD PUSH1 0x40 MSTORE DUP1 ISZERO PUSH2 0x1328 JUMPI DUP2 PUSH1 0x20 ADD PUSH1 0x1 DUP3 MUL DUP1 CALLDATASIZE DUP4 CALLDATACOPY DUP1 DUP3 ADD SWAP2 POP POP SWAP1 POP JUMPDEST POP SWAP1 POP JUMPDEST PUSH1 0x0 DUP6 EQ PUSH2 0x13B5 JUMPI PUSH1 0x1 DUP3 PUSH2 0x1341 SWAP2 SWAP1 PUSH2 0x218D JUMP JUMPDEST SWAP2 POP PUSH1 0xA DUP6 PUSH2 0x1350 SWAP2 SWAP1 PUSH2 0x2323 JUMP JUMPDEST PUSH1 0x30 PUSH2 0x135C SWAP2 SWAP1 PUSH2 0x2106 JUMP JUMPDEST PUSH1 0xF8 SHL DUP2 DUP4 DUP2 MLOAD DUP2 LT PUSH2 0x1372 JUMPI PUSH2 0x1371 PUSH2 0x23E1 JUMP JUMPDEST JUMPDEST PUSH1 0x20 ADD ADD SWAP1 PUSH31 0xFFFFFFFFFFFFFFFFFFFFFFFFFFFFFFFFFFFFFFFFFFFFFFFFFFFFFFFFFFFFFF NOT AND SWAP1 DUP2 PUSH1 0x0 BYTE SWAP1 MSTORE8 POP PUSH1 0xA DUP6 PUSH2 0x13AE SWAP2 SWAP1 PUSH2 0x215C JUMP JUMPDEST SWAP5 POP PUSH2 0x132C JUMP JUMPDEST DUP1 SWAP4 POP POP POP POP JUMPDEST SWAP2 SWAP1 POP JUMP JUMPDEST POP POP POP JUMP JUMPDEST POP POP POP JUMP JUMPDEST PUSH2 0x13D5 DUP4 DUP4 PUSH2 0x15BD JUMP JUMPDEST PUSH2 0x13E2 PUSH1 0x0 DUP5 DUP5 DUP5 PUSH2 0x1426 JUMP JUMPDEST PUSH2 0x1421 JUMPI PUSH1 0x40 MLOAD PUSH32 0x8C379A000000000000000000000000000000000000000000000000000000000 DUP2 MSTORE PUSH1 0x4 ADD PUSH2 0x1418 SWAP1 PUSH2 0x1E72 JUMP JUMPDEST PUSH1 0x40 MLOAD DUP1 SWAP2 SUB SWAP1 REVERT JUMPDEST POP POP POP JUMP JUMPDEST PUSH1 0x0 PUSH2 0x1447 DUP5 PUSH20 0xFFFFFFFFFFFFFFFFFFFFFFFFFFFFFFFFFFFFFFFF AND PUSH2 0x1797 JUMP JUMPDEST ISZERO PUSH2 0x15B0 JUMPI DUP4 PUSH20 0xFFFFFFFFFFFFFFFFFFFFFFFFFFFFFFFFFFFFFFFF AND PUSH4 0x150B7A02 PUSH2 0x1470 PUSH2 0xB3F JUMP JUMPDEST DUP8 DUP7 DUP7 PUSH1 0x40 MLOAD DUP6 PUSH4 0xFFFFFFFF AND PUSH1 0xE0 SHL DUP2 MSTORE PUSH1 0x4 ADD PUSH2 0x1492 SWAP5 SWAP4 SWAP3 SWAP2 SWAP1 PUSH2 0x1DE9 JUMP JUMPDEST PUSH1 0x20 PUSH1 0x40 MLOAD DUP1 DUP4 SUB DUP2 PUSH1 0x0 DUP8 DUP1 EXTCODESIZE ISZERO DUP1 ISZERO PUSH2 0x14AC JUMPI PUSH1 0x0 DUP1 REVERT JUMPDEST POP GAS CALL SWAP3 POP POP POP DUP1 ISZERO PUSH2 0x14DD JUMPI POP PUSH1 0x40 MLOAD RETURNDATASIZE PUSH1 0x1F NOT PUSH1 0x1F DUP3 ADD AND DUP3 ADD DUP1 PUSH1 0x40 MSTORE POP DUP2 ADD SWAP1 PUSH2 0x14DA SWAP2 SWAP1 PUSH2 0x1A73 JUMP JUMPDEST PUSH1 0x1 JUMPDEST PUSH2 0x1560 JUMPI RETURNDATASIZE DUP1 PUSH1 0x0 DUP2 EQ PUSH2 0x150D JUMPI PUSH1 0x40 MLOAD SWAP2 POP PUSH1 0x1F NOT PUSH1 0x3F RETURNDATASIZE ADD AND DUP3 ADD PUSH1 0x40 MSTORE RETURNDATASIZE DUP3 MSTORE RETURNDATASIZE PUSH1 0x0 PUSH1 0x20 DUP5 ADD RETURNDATACOPY PUSH2 0x1512 JUMP JUMPDEST PUSH1 0x60 SWAP2 POP JUMPDEST POP PUSH1 0x0 DUP2 MLOAD EQ ISZERO PUSH2 0x1558 JUMPI PUSH1 0x40 MLOAD PUSH32 0x8C379A000000000000000000000000000000000000000000000000000000000 DUP2 MSTORE PUSH1 0x4 ADD PUSH2 0x154F SWAP1 PUSH2 0x1E72 JUMP JUMPDEST PUSH1 0x40 MLOAD DUP1 SWAP2 SUB SWAP1 REVERT JUMPDEST DUP1 MLOAD DUP2 PUSH1 0x20 ADD REVERT JUMPDEST PUSH4 0x150B7A02 PUSH1 0xE0 SHL PUSH28 0xFFFFFFFFFFFFFFFFFFFFFFFFFFFFFFFFFFFFFFFFFFFFFFFFFFFFFFFF NOT AND DUP2 PUSH28 0xFFFFFFFFFFFFFFFFFFFFFFFFFFFFFFFFFFFFFFFFFFFFFFFFFFFFFFFF NOT AND EQ SWAP2 POP POP PUSH2 0x15B5 JUMP JUMPDEST PUSH1 0x1 SWAP1 POP JUMPDEST SWAP5 SWAP4 POP POP POP POP JUMP JUMPDEST PUSH1 0x0 PUSH20 0xFFFFFFFFFFFFFFFFFFFFFFFFFFFFFFFFFFFFFFFF AND DUP3 PUSH20 0xFFFFFFFFFFFFFFFFFFFFFFFFFFFFFFFFFFFFFFFF AND EQ ISZERO PUSH2 0x162D JUMPI PUSH1 0x40 MLOAD PUSH32 0x8C379A000000000000000000000000000000000000000000000000000000000 DUP2 MSTORE PUSH1 0x4 ADD PUSH2 0x1624 SWAP1 PUSH2 0x1FB2 JUMP JUMPDEST PUSH1 0x40 MLOAD DUP1 SWAP2 SUB SWAP1 REVERT JUMPDEST PUSH2 0x1636 DUP2 PUSH2 0xAD3 JUMP JUMPDEST ISZERO PUSH2 0x1676 JUMPI PUSH1 0x40 MLOAD PUSH32 0x8C379A000000000000000000000000000000000000000000000000000000000 DUP2 MSTORE PUSH1 0x4 ADD PUSH2 0x166D SWAP1 PUSH2 0x1EB2 JUMP JUMPDEST PUSH1 0x40 MLOAD DUP1 SWAP2 SUB SWAP1 REVERT JUMPDEST PUSH2 0x1682 PUSH1 0x0 DUP4 DUP4 PUSH2 0x13C1 JUMP JUMPDEST PUSH1 0x1 PUSH1 0x3 PUSH1 0x0 DUP5 PUSH20 0xFFFFFFFFFFFFFFFFFFFFFFFFFFFFFFFFFFFFFFFF AND PUSH20 0xFFFFFFFFFFFFFFFFFFFFFFFFFFFFFFFFFFFFFFFF AND DUP2 MSTORE PUSH1 0x20 ADD SWAP1 DUP2 MSTORE PUSH1 0x20 ADD PUSH1 0x0 KECCAK256 PUSH1 0x0 DUP3 DUP3 SLOAD PUSH2 0x16D2 SWAP2 SWAP1 PUSH2 0x2106 JUMP JUMPDEST SWAP3 POP POP DUP2 SWAP1 SSTORE POP DUP2 PUSH1 0x2 PUSH1 0x0 DUP4 DUP2 MSTORE PUSH1 0x20 ADD SWAP1 DUP2 MSTORE PUSH1 0x20 ADD PUSH1 0x0 KECCAK256 PUSH1 0x0 PUSH2 0x100 EXP DUP2 SLOAD DUP2 PUSH20 0xFFFFFFFFFFFFFFFFFFFFFFFFFFFFFFFFFFFFFFFF MUL NOT AND SWAP1 DUP4 PUSH20 0xFFFFFFFFFFFFFFFFFFFFFFFFFFFFFFFFFFFFFFFF AND MUL OR SWAP1 SSTORE POP DUP1 DUP3 PUSH20 0xFFFFFFFFFFFFFFFFFFFFFFFFFFFFFFFFFFFFFFFF AND PUSH1 0x0 PUSH20 0xFFFFFFFFFFFFFFFFFFFFFFFFFFFFFFFFFFFFFFFF AND PUSH32 0xDDF252AD1BE2C89B69C2B068FC378DAA952BA7F163C4A11628F55A4DF523B3EF PUSH1 0x40 MLOAD PUSH1 0x40 MLOAD DUP1 SWAP2 SUB SWAP1 LOG4 PUSH2 0x1793 PUSH1 0x0 DUP4 DUP4 PUSH2 0x13C6 JUMP JUMPDEST POP POP JUMP JUMPDEST PUSH1 0x0 DUP1 DUP3 EXTCODESIZE SWAP1 POP PUSH1 0x0 DUP2 GT SWAP2 POP POP SWAP2 SWAP1 POP JUMP JUMPDEST PUSH1 0x0 PUSH2 0x17BD PUSH2 0x17B8 DUP5 PUSH2 0x2092 JUMP JUMPDEST PUSH2 0x206D JUMP JUMPDEST SWAP1 POP DUP3 DUP2 MSTORE PUSH1 0x20 DUP2 ADD DUP5 DUP5 DUP5 ADD GT ISZERO PUSH2 0x17D9 JUMPI PUSH2 0x17D8 PUSH2 0x2444 JUMP JUMPDEST JUMPDEST PUSH2 0x17E4 DUP5 DUP3 DUP6 PUSH2 0x2235 JUMP JUMPDEST POP SWAP4 SWAP3 POP POP POP JUMP JUMPDEST PUSH1 0x0 DUP2 CALLDATALOAD SWAP1 POP PUSH2 0x17FB DUP2 PUSH2 0x2893 JUMP JUMPDEST SWAP3 SWAP2 POP POP JUMP JUMPDEST PUSH1 0x0 DUP2 CALLDATALOAD SWAP1 POP PUSH2 0x1810 DUP2 PUSH2 0x28AA JUMP JUMPDEST SWAP3 SWAP2 POP POP JUMP JUMPDEST PUSH1 0x0 DUP2 CALLDATALOAD SWAP1 POP PUSH2 0x1825 DUP2 PUSH2 0x28C1 JUMP JUMPDEST SWAP3 SWAP2 POP POP JUMP JUMPDEST PUSH1 0x0 DUP2 MLOAD SWAP1 POP PUSH2 0x183A DUP2 PUSH2 0x28C1 JUMP JUMPDEST SWAP3 SWAP2 POP POP JUMP JUMPDEST PUSH1 0x0 DUP3 PUSH1 0x1F DUP4 ADD SLT PUSH2 0x1855 JUMPI PUSH2 0x1854 PUSH2 0x243F JUMP JUMPDEST JUMPDEST DUP2 CALLDATALOAD PUSH2 0x1865 DUP5 DUP3 PUSH1 0x20 DUP7 ADD PUSH2 0x17AA JUMP JUMPDEST SWAP2 POP POP SWAP3 SWAP2 POP POP JUMP JUMPDEST PUSH1 0x0 DUP2 CALLDATALOAD SWAP1 POP PUSH2 0x187D DUP2 PUSH2 0x28D8 JUMP JUMPDEST SWAP3 SWAP2 POP POP JUMP JUMPDEST PUSH1 0x0 PUSH1 0x20 DUP3 DUP5 SUB SLT ISZERO PUSH2 0x1899 JUMPI PUSH2 0x1898 PUSH2 0x244E JUMP JUMPDEST JUMPDEST PUSH1 0x0 PUSH2 0x18A7 DUP5 DUP3 DUP6 ADD PUSH2 0x17EC JUMP JUMPDEST SWAP2 POP POP SWAP3 SWAP2 POP POP JUMP JUMPDEST PUSH1 0x0 DUP1 PUSH1 0x40 DUP4 DUP6 SUB SLT ISZERO PUSH2 0x18C7 JUMPI PUSH2 0x18C6 PUSH2 0x244E JUMP JUMPDEST JUMPDEST PUSH1 0x0 PUSH2 0x18D5 DUP6 DUP3 DUP7 ADD PUSH2 0x17EC JUMP JUMPDEST SWAP3 POP POP PUSH1 0x20 PUSH2 0x18E6 DUP6 DUP3 DUP7 ADD PUSH2 0x17EC JUMP JUMPDEST SWAP2 POP POP SWAP3 POP SWAP3 SWAP1 POP JUMP JUMPDEST PUSH1 0x0 DUP1 PUSH1 0x0 PUSH1 0x60 DUP5 DUP7 SUB SLT ISZERO PUSH2 0x1909 JUMPI PUSH2 0x1908 PUSH2 0x244E JUMP JUMPDEST JUMPDEST PUSH1 0x0 PUSH2 0x1917 DUP7 DUP3 DUP8 ADD PUSH2 0x17EC JUMP JUMPDEST SWAP4 POP POP PUSH1 0x20 PUSH2 0x1928 DUP7 DUP3 DUP8 ADD PUSH2 0x17EC JUMP JUMPDEST SWAP3 POP POP PUSH1 0x40 PUSH2 0x1939 DUP7 DUP3 DUP8 ADD PUSH2 0x186E JUMP JUMPDEST SWAP2 POP POP SWAP3 POP SWAP3 POP SWAP3 JUMP JUMPDEST PUSH1 0x0 DUP1 PUSH1 0x0 DUP1 PUSH1 0x80 DUP6 DUP8 SUB SLT ISZERO PUSH2 0x195D JUMPI PUSH2 0x195C PUSH2 0x244E JUMP JUMPDEST JUMPDEST PUSH1 0x0 PUSH2 0x196B DUP8 DUP3 DUP9 ADD PUSH2 0x17EC JUMP JUMPDEST SWAP5 POP POP PUSH1 0x20 PUSH2 0x197C DUP8 DUP3 DUP9 ADD PUSH2 0x17EC JUMP JUMPDEST SWAP4 POP POP PUSH1 0x40 PUSH2 0x198D DUP8 DUP3 DUP9 ADD PUSH2 0x186E JUMP JUMPDEST SWAP3 POP POP PUSH1 0x60 DUP6 ADD CALLDATALOAD PUSH8 0xFFFFFFFFFFFFFFFF DUP2 GT ISZERO PUSH2 0x19AE JUMPI PUSH2 0x19AD PUSH2 0x2449 JUMP JUMPDEST JUMPDEST PUSH2 0x19BA DUP8 DUP3 DUP9 ADD PUSH2 0x1840 JUMP JUMPDEST SWAP2 POP POP SWAP3 SWAP6 SWAP2 SWAP5 POP SWAP3 POP JUMP JUMPDEST PUSH1 0x0 DUP1 PUSH1 0x40 DUP4 DUP6 SUB SLT ISZERO PUSH2 0x19DD JUMPI PUSH2 0x19DC PUSH2 0x244E JUMP JUMPDEST JUMPDEST PUSH1 0x0 PUSH2 0x19EB DUP6 DUP3 DUP7 ADD PUSH2 0x17EC JUMP JUMPDEST SWAP3 POP POP PUSH1 0x20 PUSH2 0x19FC DUP6 DUP3 DUP7 ADD PUSH2 0x1801 JUMP JUMPDEST SWAP2 POP POP SWAP3 POP SWAP3 SWAP1 POP JUMP JUMPDEST PUSH1 0x0 DUP1 PUSH1 0x40 DUP4 DUP6 SUB SLT ISZERO PUSH2 0x1A1D JUMPI PUSH2 0x1A1C PUSH2 0x244E JUMP JUMPDEST JUMPDEST PUSH1 0x0 PUSH2 0x1A2B DUP6 DUP3 DUP7 ADD PUSH2 0x17EC JUMP JUMPDEST SWAP3 POP POP PUSH1 0x20 PUSH2 0x1A3C DUP6 DUP3 DUP7 ADD PUSH2 0x186E JUMP JUMPDEST SWAP2 POP POP SWAP3 POP SWAP3 SWAP1 POP JUMP JUMPDEST PUSH1 0x0 PUSH1 0x20 DUP3 DUP5 SUB SLT ISZERO PUSH2 0x1A5C JUMPI PUSH2 0x1A5B PUSH2 0x244E JUMP JUMPDEST JUMPDEST PUSH1 0x0 PUSH2 0x1A6A DUP5 DUP3 DUP6 ADD PUSH2 0x1816 JUMP JUMPDEST SWAP2 POP POP SWAP3 SWAP2 POP POP JUMP JUMPDEST PUSH1 0x0 PUSH1 0x20 DUP3 DUP5 SUB SLT ISZERO PUSH2 0x1A89 JUMPI PUSH2 0x1A88 PUSH2 0x244E JUMP JUMPDEST JUMPDEST PUSH1 0x0 PUSH2 0x1A97 DUP5 DUP3 DUP6 ADD PUSH2 0x182B JUMP JUMPDEST SWAP2 POP POP SWAP3 SWAP2 POP POP JUMP JUMPDEST PUSH1 0x0 PUSH1 0x20 DUP3 DUP5 SUB SLT ISZERO PUSH2 0x1AB6 JUMPI PUSH2 0x1AB5 PUSH2 0x244E JUMP JUMPDEST JUMPDEST PUSH1 0x0 PUSH2 0x1AC4 DUP5 DUP3 DUP6 ADD PUSH2 0x186E JUMP JUMPDEST SWAP2 POP POP SWAP3 SWAP2 POP POP JUMP JUMPDEST PUSH2 0x1AD6 DUP2 PUSH2 0x21C1 JUMP JUMPDEST DUP3 MSTORE POP POP JUMP JUMPDEST PUSH2 0x1AE5 DUP2 PUSH2 0x21D3 JUMP JUMPDEST DUP3 MSTORE POP POP JUMP JUMPDEST PUSH1 0x0 PUSH2 0x1AF6 DUP3 PUSH2 0x20C3 JUMP JUMPDEST PUSH2 0x1B00 DUP2 DUP6 PUSH2 0x20D9 JUMP JUMPDEST SWAP4 POP PUSH2 0x1B10 DUP2 DUP6 PUSH1 0x20 DUP7 ADD PUSH2 0x2244 JUMP JUMPDEST PUSH2 0x1B19 DUP2 PUSH2 0x2453 JUMP JUMPDEST DUP5 ADD SWAP2 POP POP SWAP3 SWAP2 POP POP JUMP JUMPDEST PUSH1 0x0 PUSH2 0x1B2F DUP3 PUSH2 0x20CE JUMP JUMPDEST PUSH2 0x1B39 DUP2 DUP6 PUSH2 0x20EA JUMP JUMPDEST SWAP4 POP PUSH2 0x1B49 DUP2 DUP6 PUSH1 0x20 DUP7 ADD PUSH2 0x2244 JUMP JUMPDEST PUSH2 0x1B52 DUP2 PUSH2 0x2453 JUMP JUMPDEST DUP5 ADD SWAP2 POP POP SWAP3 SWAP2 POP POP JUMP JUMPDEST PUSH1 0x0 PUSH2 0x1B68 DUP3 PUSH2 0x20CE JUMP JUMPDEST PUSH2 0x1B72 DUP2 DUP6 PUSH2 0x20FB JUMP JUMPDEST SWAP4 POP PUSH2 0x1B82 DUP2 DUP6 PUSH1 0x20 DUP7 ADD PUSH2 0x2244 JUMP JUMPDEST DUP1 DUP5 ADD SWAP2 POP POP SWAP3 SWAP2 POP POP JUMP JUMPDEST PUSH1 0x0 PUSH2 0x1B9B PUSH1 0x32 DUP4 PUSH2 0x20EA JUMP JUMPDEST SWAP2 POP PUSH2 0x1BA6 DUP3 PUSH2 0x2464 JUMP JUMPDEST PUSH1 0x40 DUP3 ADD SWAP1 POP SWAP2 SWAP1 POP JUMP JUMPDEST PUSH1 0x0 PUSH2 0x1BBE PUSH1 0x25 DUP4 PUSH2 0x20EA JUMP JUMPDEST SWAP2 POP PUSH2 0x1BC9 DUP3 PUSH2 0x24B3 JUMP JUMPDEST PUSH1 0x40 DUP3 ADD SWAP1 POP SWAP2 SWAP1 POP JUMP JUMPDEST PUSH1 0x0 PUSH2 0x1BE1 PUSH1 0x1C DUP4 PUSH2 0x20EA JUMP JUMPDEST SWAP2 POP PUSH2 0x1BEC DUP3 PUSH2 0x2502 JUMP JUMPDEST PUSH1 0x20 DUP3 ADD SWAP1 POP SWAP2 SWAP1 POP JUMP JUMPDEST PUSH1 0x0 PUSH2 0x1C04 PUSH1 0x24 DUP4 PUSH2 0x20EA JUMP JUMPDEST SWAP2 POP PUSH2 0x1C0F DUP3 PUSH2 0x252B JUMP JUMPDEST PUSH1 0x40 DUP3 ADD SWAP1 POP SWAP2 SWAP1 POP JUMP JUMPDEST PUSH1 0x0 PUSH2 0x1C27 PUSH1 0x19 DUP4 PUSH2 0x20EA JUMP JUMPDEST SWAP2 POP PUSH2 0x1C32 DUP3 PUSH2 0x257A JUMP JUMPDEST PUSH1 0x20 DUP3 ADD SWAP1 POP SWAP2 SWAP1 POP JUMP JUMPDEST PUSH1 0x0 PUSH2 0x1C4A PUSH1 0x2C DUP4 PUSH2 0x20EA JUMP JUMPDEST SWAP2 POP PUSH2 0x1C55 DUP3 PUSH2 0x25A3 JUMP JUMPDEST PUSH1 0x40 DUP3 ADD SWAP1 POP SWAP2 SWAP1 POP JUMP JUMPDEST PUSH1 0x0 PUSH2 0x1C6D PUSH1 0x31 DUP4 PUSH2 0x20EA JUMP JUMPDEST SWAP2 POP PUSH2 0x1C78 DUP3 PUSH2 0x25F2 JUMP JUMPDEST PUSH1 0x40 DUP3 ADD SWAP1 POP SWAP2 SWAP1 POP JUMP JUMPDEST PUSH1 0x0 PUSH2 0x1C90 PUSH1 0x38 DUP4 PUSH2 0x20EA JUMP JUMPDEST SWAP2 POP PUSH2 0x1C9B DUP3 PUSH2 0x2641 JUMP JUMPDEST PUSH1 0x40 DUP3 ADD SWAP1 POP SWAP2 SWAP1 POP JUMP JUMPDEST PUSH1 0x0 PUSH2 0x1CB3 PUSH1 0x2A DUP4 PUSH2 0x20EA JUMP JUMPDEST SWAP2 POP PUSH2 0x1CBE DUP3 PUSH2 0x2690 JUMP JUMPDEST PUSH1 0x40 DUP3 ADD SWAP1 POP SWAP2 SWAP1 POP JUMP JUMPDEST PUSH1 0x0 PUSH2 0x1CD6 PUSH1 0x29 DUP4 PUSH2 0x20EA JUMP JUMPDEST SWAP2 POP PUSH2 0x1CE1 DUP3 PUSH2 0x26DF JUMP JUMPDEST PUSH1 0x40 DUP3 ADD SWAP1 POP SWAP2 SWAP1 POP JUMP JUMPDEST PUSH1 0x0 PUSH2 0x1CF9 PUSH1 0x20 DUP4 PUSH2 0x20EA JUMP JUMPDEST SWAP2 POP PUSH2 0x1D04 DUP3 PUSH2 0x272E JUMP JUMPDEST PUSH1 0x20 DUP3 ADD SWAP1 POP SWAP2 SWAP1 POP JUMP JUMPDEST PUSH1 0x0 PUSH2 0x1D1C PUSH1 0x2C DUP4 PUSH2 0x20EA JUMP JUMPDEST SWAP2 POP PUSH2 0x1D27 DUP3 PUSH2 0x2757 JUMP JUMPDEST PUSH1 0x40 DUP3 ADD SWAP1 POP SWAP2 SWAP1 POP JUMP JUMPDEST PUSH1 0x0 PUSH2 0x1D3F PUSH1 0x21 DUP4 PUSH2 0x20EA JUMP JUMPDEST SWAP2 POP PUSH2 0x1D4A DUP3 PUSH2 0x27A6 JUMP JUMPDEST PUSH1 0x40 DUP3 ADD SWAP1 POP SWAP2 SWAP1 POP JUMP JUMPDEST PUSH1 0x0 PUSH2 0x1D62 PUSH1 0x31 DUP4 PUSH2 0x20EA JUMP JUMPDEST SWAP2 POP PUSH2 0x1D6D DUP3 PUSH2 0x27F5 JUMP JUMPDEST PUSH1 0x40 DUP3 ADD SWAP1 POP SWAP2 SWAP1 POP JUMP JUMPDEST PUSH1 0x0 PUSH2 0x1D85 PUSH1 0x2F DUP4 PUSH2 0x20EA JUMP JUMPDEST SWAP2 POP PUSH2 0x1D90 DUP3 PUSH2 0x2844 JUMP JUMPDEST PUSH1 0x40 DUP3 ADD SWAP1 POP SWAP2 SWAP1 POP JUMP JUMPDEST PUSH2 0x1DA4 DUP2 PUSH2 0x222B JUMP JUMPDEST DUP3 MSTORE POP POP JUMP JUMPDEST PUSH1 0x0 PUSH2 0x1DB6 DUP3 DUP6 PUSH2 0x1B5D JUMP JUMPDEST SWAP2 POP PUSH2 0x1DC2 DUP3 DUP5 PUSH2 0x1B5D JUMP JUMPDEST SWAP2 POP DUP2 SWAP1 POP SWAP4 SWAP3 POP POP POP JUMP JUMPDEST PUSH1 0x0 PUSH1 0x20 DUP3 ADD SWAP1 POP PUSH2 0x1DE3 PUSH1 0x0 DUP4 ADD DUP5 PUSH2 0x1ACD JUMP JUMPDEST SWAP3 SWAP2 POP POP JUMP JUMPDEST PUSH1 0x0 PUSH1 0x80 DUP3 ADD SWAP1 POP PUSH2 0x1DFE PUSH1 0x0 DUP4 ADD DUP8 PUSH2 0x1ACD JUMP JUMPDEST PUSH2 0x1E0B PUSH1 0x20 DUP4 ADD DUP7 PUSH2 0x1ACD JUMP JUMPDEST PUSH2 0x1E18 PUSH1 0x40 DUP4 ADD DUP6 PUSH2 0x1D9B JUMP JUMPDEST DUP2 DUP2 SUB PUSH1 0x60 DUP4 ADD MSTORE PUSH2 0x1E2A DUP2 DUP5 PUSH2 0x1AEB JUMP JUMPDEST SWAP1 POP SWAP6 SWAP5 POP POP POP POP POP JUMP JUMPDEST PUSH1 0x0 PUSH1 0x20 DUP3 ADD SWAP1 POP PUSH2 0x1E4A PUSH1 0x0 DUP4 ADD DUP5 PUSH2 0x1ADC JUMP JUMPDEST SWAP3 SWAP2 POP POP JUMP JUMPDEST PUSH1 0x0 PUSH1 0x20 DUP3 ADD SWAP1 POP DUP2 DUP2 SUB PUSH1 0x0 DUP4 ADD MSTORE PUSH2 0x1E6A DUP2 DUP5 PUSH2 0x1B24 JUMP JUMPDEST SWAP1 POP SWAP3 SWAP2 POP POP JUMP JUMPDEST PUSH1 0x0 PUSH1 0x20 DUP3 ADD SWAP1 POP DUP2 DUP2 SUB PUSH1 0x0 DUP4 ADD MSTORE PUSH2 0x1E8B DUP2 PUSH2 0x1B8E JUMP JUMPDEST SWAP1 POP SWAP2 SWAP1 POP JUMP JUMPDEST PUSH1 0x0 PUSH1 0x20 DUP3 ADD SWAP1 POP DUP2 DUP2 SUB PUSH1 0x0 DUP4 ADD MSTORE PUSH2 0x1EAB DUP2 PUSH2 0x1BB1 JUMP JUMPDEST SWAP1 POP SWAP2 SWAP1 POP JUMP JUMPDEST PUSH1 0x0 PUSH1 0x20 DUP3 ADD SWAP1 POP DUP2 DUP2 SUB PUSH1 0x0 DUP4 ADD MSTORE PUSH2 0x1ECB DUP2 PUSH2 0x1BD4 JUMP JUMPDEST SWAP1 POP SWAP2 SWAP1 POP JUMP JUMPDEST PUSH1 0x0 PUSH1 0x20 DUP3 ADD SWAP1 POP DUP2 DUP2 SUB PUSH1 0x0 DUP4 ADD MSTORE PUSH2 0x1EEB DUP2 PUSH2 0x1BF7 JUMP JUMPDEST SWAP1 POP SWAP2 SWAP1 POP JUMP JUMPDEST PUSH1 0x0 PUSH1 0x20 DUP3 ADD SWAP1 POP DUP2 DUP2 SUB PUSH1 0x0 DUP4 ADD MSTORE PUSH2 0x1F0B DUP2 PUSH2 0x1C1A JUMP JUMPDEST SWAP1 POP SWAP2 SWAP1 POP JUMP JUMPDEST PUSH1 0x0 PUSH1 0x20 DUP3 ADD SWAP1 POP DUP2 DUP2 SUB PUSH1 0x0 DUP4 ADD MSTORE PUSH2 0x1F2B DUP2 PUSH2 0x1C3D JUMP JUMPDEST SWAP1 POP SWAP2 SWAP1 POP JUMP JUMPDEST PUSH1 0x0 PUSH1 0x20 DUP3 ADD SWAP1 POP DUP2 DUP2 SUB PUSH1 0x0 DUP4 ADD MSTORE PUSH2 0x1F4B DUP2 PUSH2 0x1C60 JUMP JUMPDEST SWAP1 POP SWAP2 SWAP1 POP JUMP JUMPDEST PUSH1 0x0 PUSH1 0x20 DUP3 ADD SWAP1 POP DUP2 DUP2 SUB PUSH1 0x0 DUP4 ADD MSTORE PUSH2 0x1F6B DUP2 PUSH2 0x1C83 JUMP JUMPDEST SWAP1 POP SWAP2 SWAP1 POP JUMP JUMPDEST PUSH1 0x0 PUSH1 0x20 DUP3 ADD SWAP1 POP DUP2 DUP2 SUB PUSH1 0x0 DUP4 ADD MSTORE PUSH2 0x1F8B DUP2 PUSH2 0x1CA6 JUMP JUMPDEST SWAP1 POP SWAP2 SWAP1 POP JUMP JUMPDEST PUSH1 0x0 PUSH1 0x20 DUP3 ADD SWAP1 POP DUP2 DUP2 SUB PUSH1 0x0 DUP4 ADD MSTORE PUSH2 0x1FAB DUP2 PUSH2 0x1CC9 JUMP JUMPDEST SWAP1 POP SWAP2 SWAP1 POP JUMP JUMPDEST PUSH1 0x0 PUSH1 0x20 DUP3 ADD SWAP1 POP DUP2 DUP2 SUB PUSH1 0x0 DUP4 ADD MSTORE PUSH2 0x1FCB DUP2 PUSH2 0x1CEC JUMP JUMPDEST SWAP1 POP SWAP2 SWAP1 POP JUMP JUMPDEST PUSH1 0x0 PUSH1 0x20 DUP3 ADD SWAP1 POP DUP2 DUP2 SUB PUSH1 0x0 DUP4 ADD MSTORE PUSH2 0x1FEB DUP2 PUSH2 0x1D0F JUMP JUMPDEST SWAP1 POP SWAP2 SWAP1 POP JUMP JUMPDEST PUSH1 0x0 PUSH1 0x20 DUP3 ADD SWAP1 POP DUP2 DUP2 SUB PUSH1 0x0 DUP4 ADD MSTORE PUSH2 0x200B DUP2 PUSH2 0x1D32 JUMP JUMPDEST SWAP1 POP SWAP2 SWAP1 POP JUMP JUMPDEST PUSH1 0x0 PUSH1 0x20 DUP3 ADD SWAP1 POP DUP2 DUP2 SUB PUSH1 0x0 DUP4 ADD MSTORE PUSH2 0x202B DUP2 PUSH2 0x1D55 JUMP JUMPDEST SWAP1 POP SWAP2 SWAP1 POP JUMP JUMPDEST PUSH1 0x0 PUSH1 0x20 DUP3 ADD SWAP1 POP DUP2 DUP2 SUB PUSH1 0x0 DUP4 ADD MSTORE PUSH2 0x204B DUP2 PUSH2 0x1D78 JUMP JUMPDEST SWAP1 POP SWAP2 SWAP1 POP JUMP JUMPDEST PUSH1 0x0 PUSH1 0x20 DUP3 ADD SWAP1 POP PUSH2 0x2067 PUSH1 0x0 DUP4 ADD DUP5 PUSH2 0x1D9B JUMP JUMPDEST SWAP3 SWAP2 POP POP JUMP JUMPDEST PUSH1 0x0 PUSH2 0x2077 PUSH2 0x2088 JUMP JUMPDEST SWAP1 POP PUSH2 0x2083 DUP3 DUP3 PUSH2 0x22A9 JUMP JUMPDEST SWAP2 SWAP1 POP JUMP JUMPDEST PUSH1 0x0 PUSH1 0x40 MLOAD SWAP1 POP SWAP1 JUMP JUMPDEST PUSH1 0x0 PUSH8 0xFFFFFFFFFFFFFFFF DUP3 GT ISZERO PUSH2 0x20AD JUMPI PUSH2 0x20AC PUSH2 0x2410 JUMP JUMPDEST JUMPDEST PUSH2 0x20B6 DUP3 PUSH2 0x2453 JUMP JUMPDEST SWAP1 POP PUSH1 0x20 DUP2 ADD SWAP1 POP SWAP2 SWAP1 POP JUMP JUMPDEST PUSH1 0x0 DUP2 MLOAD SWAP1 POP SWAP2 SWAP1 POP JUMP JUMPDEST PUSH1 0x0 DUP2 MLOAD SWAP1 POP SWAP2 SWAP1 POP JUMP JUMPDEST PUSH1 0x0 DUP3 DUP3 MSTORE PUSH1 0x20 DUP3 ADD SWAP1 POP SWAP3 SWAP2 POP POP JUMP JUMPDEST PUSH1 0x0 DUP3 DUP3 MSTORE PUSH1 0x20 DUP3 ADD SWAP1 POP SWAP3 SWAP2 POP POP JUMP JUMPDEST PUSH1 0x0 DUP2 SWAP1 POP SWAP3 SWAP2 POP POP JUMP JUMPDEST PUSH1 0x0 PUSH2 0x2111 DUP3 PUSH2 0x222B JUMP JUMPDEST SWAP2 POP PUSH2 0x211C DUP4 PUSH2 0x222B JUMP JUMPDEST SWAP3 POP DUP3 PUSH32 0xFFFFFFFFFFFFFFFFFFFFFFFFFFFFFFFFFFFFFFFFFFFFFFFFFFFFFFFFFFFFFFFF SUB DUP3 GT ISZERO PUSH2 0x2151 JUMPI PUSH2 0x2150 PUSH2 0x2354 JUMP JUMPDEST JUMPDEST DUP3 DUP3 ADD SWAP1 POP SWAP3 SWAP2 POP POP JUMP JUMPDEST PUSH1 0x0 PUSH2 0x2167 DUP3 PUSH2 0x222B JUMP JUMPDEST SWAP2 POP PUSH2 0x2172 DUP4 PUSH2 0x222B JUMP JUMPDEST SWAP3 POP DUP3 PUSH2 0x2182 JUMPI PUSH2 0x2181 PUSH2 0x2383 JUMP JUMPDEST JUMPDEST DUP3 DUP3 DIV SWAP1 POP SWAP3 SWAP2 POP POP JUMP JUMPDEST PUSH1 0x0 PUSH2 0x2198 DUP3 PUSH2 0x222B JUMP JUMPDEST SWAP2 POP PUSH2 0x21A3 DUP4 PUSH2 0x222B JUMP JUMPDEST SWAP3 POP DUP3 DUP3 LT ISZERO PUSH2 0x21B6 JUMPI PUSH2 0x21B5 PUSH2 0x2354 JUMP JUMPDEST JUMPDEST DUP3 DUP3 SUB SWAP1 POP SWAP3 SWAP2 POP POP JUMP JUMPDEST PUSH1 0x0 PUSH2 0x21CC DUP3 PUSH2 0x220B JUMP JUMPDEST SWAP1 POP SWAP2 SWAP1 POP JUMP JUMPDEST PUSH1 0x0 DUP2 ISZERO ISZERO SWAP1 POP SWAP2 SWAP1 POP JUMP JUMPDEST PUSH1 0x0 PUSH32 0xFFFFFFFF00000000000000000000000000000000000000000000000000000000 DUP3 AND SWAP1 POP SWAP2 SWAP1 POP JUMP JUMPDEST PUSH1 0x0 PUSH20 0xFFFFFFFFFFFFFFFFFFFFFFFFFFFFFFFFFFFFFFFF DUP3 AND SWAP1 POP SWAP2 SWAP1 POP JUMP JUMPDEST PUSH1 0x0 DUP2 SWAP1 POP SWAP2 SWAP1 POP JUMP JUMPDEST DUP3 DUP2 DUP4 CALLDATACOPY PUSH1 0x0 DUP4 DUP4 ADD MSTORE POP POP POP JUMP JUMPDEST PUSH1 0x0 JUMPDEST DUP4 DUP2 LT ISZERO PUSH2 0x2262 JUMPI DUP1 DUP3 ADD MLOAD DUP2 DUP5 ADD MSTORE PUSH1 0x20 DUP2 ADD SWAP1 POP PUSH2 0x2247 JUMP JUMPDEST DUP4 DUP2 GT ISZERO PUSH2 0x2271 JUMPI PUSH1 0x0 DUP5 DUP5 ADD MSTORE JUMPDEST POP POP POP POP JUMP JUMPDEST PUSH1 0x0 PUSH1 0x2 DUP3 DIV SWAP1 POP PUSH1 0x1 DUP3 AND DUP1 PUSH2 0x228F JUMPI PUSH1 0x7F DUP3 AND SWAP2 POP JUMPDEST PUSH1 0x20 DUP3 LT DUP2 EQ ISZERO PUSH2 0x22A3 JUMPI PUSH2 0x22A2 PUSH2 0x23B2 JUMP JUMPDEST JUMPDEST POP SWAP2 SWAP1 POP JUMP JUMPDEST PUSH2 0x22B2 DUP3 PUSH2 0x2453 JUMP JUMPDEST DUP2 ADD DUP2 DUP2 LT PUSH8 0xFFFFFFFFFFFFFFFF DUP3 GT OR ISZERO PUSH2 0x22D1 JUMPI PUSH2 0x22D0 PUSH2 0x2410 JUMP JUMPDEST JUMPDEST DUP1 PUSH1 0x40 MSTORE POP POP POP JUMP JUMPDEST PUSH1 0x0 PUSH2 0x22E5 DUP3 PUSH2 0x222B JUMP JUMPDEST SWAP2 POP PUSH32 0xFFFFFFFFFFFFFFFFFFFFFFFFFFFFFFFFFFFFFFFFFFFFFFFFFFFFFFFFFFFFFFFF DUP3 EQ ISZERO PUSH2 0x2318 JUMPI PUSH2 0x2317 PUSH2 0x2354 JUMP JUMPDEST JUMPDEST PUSH1 0x1 DUP3 ADD SWAP1 POP SWAP2 SWAP1 POP JUMP JUMPDEST PUSH1 0x0 PUSH2 0x232E DUP3 PUSH2 0x222B JUMP JUMPDEST SWAP2 POP PUSH2 0x2339 DUP4 PUSH2 0x222B JUMP JUMPDEST SWAP3 POP DUP3 PUSH2 0x2349 JUMPI PUSH2 0x2348 PUSH2 0x2383 JUMP JUMPDEST JUMPDEST DUP3 DUP3 MOD SWAP1 POP SWAP3 SWAP2 POP POP JUMP JUMPDEST PUSH32 0x4E487B7100000000000000000000000000000000000000000000000000000000 PUSH1 0x0 MSTORE PUSH1 0x11 PUSH1 0x4 MSTORE PUSH1 0x24 PUSH1 0x0 REVERT JUMPDEST PUSH32 0x4E487B7100000000000000000000000000000000000000000000000000000000 PUSH1 0x0 MSTORE PUSH1 0x12 PUSH1 0x4 MSTORE PUSH1 0x24 PUSH1 0x0 REVERT JUMPDEST PUSH32 0x4E487B7100000000000000000000000000000000000000000000000000000000 PUSH1 0x0 MSTORE PUSH1 0x22 PUSH1 0x4 MSTORE PUSH1 0x24 PUSH1 0x0 REVERT JUMPDEST PUSH32 0x4E487B7100000000000000000000000000000000000000000000000000000000 PUSH1 0x0 MSTORE PUSH1 0x32 PUSH1 0x4 MSTORE PUSH1 0x24 PUSH1 0x0 REVERT JUMPDEST PUSH32 0x4E487B7100000000000000000000000000000000000000000000000000000000 PUSH1 0x0 MSTORE PUSH1 0x41 PUSH1 0x4 MSTORE PUSH1 0x24 PUSH1 0x0 REVERT JUMPDEST PUSH1 0x0 DUP1 REVERT JUMPDEST PUSH1 0x0 DUP1 REVERT JUMPDEST PUSH1 0x0 DUP1 REVERT JUMPDEST PUSH1 0x0 DUP1 REVERT JUMPDEST PUSH1 0x0 PUSH1 0x1F NOT PUSH1 0x1F DUP4 ADD AND SWAP1 POP SWAP2 SWAP1 POP JUMP JUMPDEST PUSH32 0x4552433732313A207472616E7366657220746F206E6F6E204552433732315265 PUSH1 0x0 DUP3 ADD MSTORE PUSH32 0x63656976657220696D706C656D656E7465720000000000000000000000000000 PUSH1 0x20 DUP3 ADD MSTORE POP JUMP JUMPDEST PUSH32 0x4552433732313A207472616E736665722066726F6D20696E636F727265637420 PUSH1 0x0 DUP3 ADD MSTORE PUSH32 0x6F776E6572000000000000000000000000000000000000000000000000000000 PUSH1 0x20 DUP3 ADD MSTORE POP JUMP JUMPDEST PUSH32 0x4552433732313A20746F6B656E20616C7265616479206D696E74656400000000 PUSH1 0x0 DUP3 ADD MSTORE POP JUMP JUMPDEST PUSH32 0x4552433732313A207472616E7366657220746F20746865207A65726F20616464 PUSH1 0x0 DUP3 ADD MSTORE PUSH32 0x7265737300000000000000000000000000000000000000000000000000000000 PUSH1 0x20 DUP3 ADD MSTORE POP JUMP JUMPDEST PUSH32 0x4552433732313A20617070726F766520746F2063616C6C657200000000000000 PUSH1 0x0 DUP3 ADD MSTORE POP JUMP JUMPDEST PUSH32 0x4552433732313A206F70657261746F7220717565727920666F72206E6F6E6578 PUSH1 0x0 DUP3 ADD MSTORE PUSH32 0x697374656E7420746F6B656E0000000000000000000000000000000000000000 PUSH1 0x20 DUP3 ADD MSTORE POP JUMP JUMPDEST PUSH32 0x4552433732313A207472616E736765722063616C6C6572206973206E6F74206F PUSH1 0x0 DUP3 ADD MSTORE PUSH32 0x776E6572206E6F7220617070726F766564000000000000000000000000000000 PUSH1 0x20 DUP3 ADD MSTORE POP JUMP JUMPDEST PUSH32 0x4552433732313A20617070726F76652063616C6C6572206973206E6F74206F77 PUSH1 0x0 DUP3 ADD MSTORE PUSH32 0x6E6572206E6F7220617070726F76656420666F7220616C6C0000000000000000 PUSH1 0x20 DUP3 ADD MSTORE POP JUMP JUMPDEST PUSH32 0x4552433732313A2062616C616E636520717565727920666F7220746865207A65 PUSH1 0x0 DUP3 ADD MSTORE PUSH32 0x726F206164647265737300000000000000000000000000000000000000000000 PUSH1 0x20 DUP3 ADD MSTORE POP JUMP JUMPDEST PUSH32 0x4552433732313A206F776E657220717565727920666F72206E6F6E6578697374 PUSH1 0x0 DUP3 ADD MSTORE PUSH32 0x656E7420746F6B656E0000000000000000000000000000000000000000000000 PUSH1 0x20 DUP3 ADD MSTORE POP JUMP JUMPDEST PUSH32 0x4552433732313A206D696E7420746F20746865207A65726F2061646472657373 PUSH1 0x0 DUP3 ADD MSTORE POP JUMP JUMPDEST PUSH32 0x4552433732313A20617070726F76656420717565727920666F72206E6F6E6578 PUSH1 0x0 DUP3 ADD MSTORE PUSH32 0x697374656E7420746F6B656E0000000000000000000000000000000000000000 PUSH1 0x20 DUP3 ADD MSTORE POP JUMP JUMPDEST PUSH32 0x4552433732313A20617070726F76616C20746F2063757272656E74206F776E65 PUSH1 0x0 DUP3 ADD MSTORE PUSH32 0x7200000000000000000000000000000000000000000000000000000000000000 PUSH1 0x20 DUP3 ADD MSTORE POP JUMP JUMPDEST PUSH32 0x4552433732313A207472616E736665722063616C6C6572206973206E6F74206F PUSH1 0x0 DUP3 ADD MSTORE PUSH32 0x776E6572206E6F7220617070726F766564000000000000000000000000000000 PUSH1 0x20 DUP3 ADD MSTORE POP JUMP JUMPDEST PUSH32 0x4552433732314D657461646174653A2055524920717565727920666F72206E6F PUSH1 0x0 DUP3 ADD MSTORE PUSH32 0x6E6578697374656E7420746F6B656E0000000000000000000000000000000000 PUSH1 0x20 DUP3 ADD MSTORE POP JUMP JUMPDEST PUSH2 0x289C DUP2 PUSH2 0x21C1 JUMP JUMPDEST DUP2 EQ PUSH2 0x28A7 JUMPI PUSH1 0x0 DUP1 REVERT JUMPDEST POP JUMP JUMPDEST PUSH2 0x28B3 DUP2 PUSH2 0x21D3 JUMP JUMPDEST DUP2 EQ PUSH2 0x28BE JUMPI PUSH1 0x0 DUP1 REVERT JUMPDEST POP JUMP JUMPDEST PUSH2 0x28CA DUP2 PUSH2 0x21DF JUMP JUMPDEST DUP2 EQ PUSH2 0x28D5 JUMPI PUSH1 0x0 DUP1 REVERT JUMPDEST POP JUMP JUMPDEST PUSH2 0x28E1 DUP2 PUSH2 0x222B JUMP JUMPDEST DUP2 EQ PUSH2 0x28EC JUMPI PUSH1 0x0 DUP1 REVERT JUMPDEST POP JUMP INVALID LOG2 PUSH5 0x6970667358 0x22 SLT KECCAK256 PUSH2 0x8C7B 0xE4 0x4F PUSH27 0xC6EB367D4D060DEC9F80162C749A7989D5E1FE3551C13F423D4C64 PUSH20 0x6F6C634300080700330000000000000000000000 "
				},
				"gasEstimates": {
					"creation": {
						"codeDepositCost": "2106600",
						"executionCost": "infinite",
						"totalCost": "infinite"
					},
					"external": {
						"approve(address,uint256)": "infinite",
						"balanceOf(address)": "2924",
						"burn(uint256)": "infinite",
						"getApproved(uint256)": "5228",
						"isApprovedForAll(address,address)": "infinite",
						"mint(uint256)": "infinite",
						"name()": "infinite",
						"ownerOf(uint256)": "3000",
						"safeTransferFrom(address,address,uint256)": "infinite",
						"safeTransferFrom(address,address,uint256,bytes)": "infinite",
						"setApprovalForAll(address,bool)": "infinite",
						"supportsInterface(bytes4)": "797",
						"symbol()": "infinite",
						"tokenURI(uint256)": "3395",
						"transferFrom(address,address,uint256)": "infinite"
					}
				},
				"methodIdentifiers": {
					"approve(address,uint256)": "095ea7b3",
					"balanceOf(address)": "70a08231",
					"burn(uint256)": "42966c68",
					"getApproved(uint256)": "081812fc",
					"isApprovedForAll(address,address)": "e985e9c5",
					"mint(uint256)": "a0712d68",
					"name()": "06fdde03",
					"ownerOf(uint256)": "6352211e",
					"safeTransferFrom(address,address,uint256)": "42842e0e",
					"safeTransferFrom(address,address,uint256,bytes)": "b88d4fde",
					"setApprovalForAll(address,bool)": "a22cb465",
					"supportsInterface(bytes4)": "01ffc9a7",
					"symbol()": "95d89b41",
					"tokenURI(uint256)": "c87b56dd",
					"transferFrom(address,address,uint256)": "23b872dd"
				}
			},
			"userdoc": {
				"kind": "user",
				"methods": {},
				"version": 1
			}
		}
	}
}