{
	"contracts/MintToken.sol": {
		"MintToken": {
			"abi": [
				{
					"inputs": [
						{
							"internalType": "string",
							"name": "name",
							"type": "string"
						},
						{
							"internalType": "string",
							"name": "symbol",
							"type": "string"
						},
						{
							"internalType": "uint8",
							"name": "decimal",
							"type": "uint8"
						}
					],
					"stateMutability": "nonpayable",
					"type": "constructor"
				},
				{
					"anonymous": false,
					"inputs": [
						{
							"indexed": true,
							"internalType": "address",
							"name": "owner",
							"type": "address"
						},
						{
							"indexed": true,
							"internalType": "address",
							"name": "spender",
							"type": "address"
						},
						{
							"indexed": false,
							"internalType": "uint256",
							"name": "value",
							"type": "uint256"
						}
					],
					"name": "Approval",
					"type": "event"
				},
				{
					"anonymous": false,
					"inputs": [
						{
							"indexed": true,
							"internalType": "address",
							"name": "previousOwner",
							"type": "address"
						},
						{
							"indexed": true,
							"internalType": "address",
							"name": "newOwner",
							"type": "address"
						}
					],
					"name": "OwnershipTransferred",
					"type": "event"
				},
				{
					"anonymous": false,
					"inputs": [
						{
							"indexed": true,
							"internalType": "address",
							"name": "from",
							"type": "address"
						},
						{
							"indexed": true,
							"internalType": "address",
							"name": "to",
							"type": "address"
						},
						{
							"indexed": false,
							"internalType": "uint256",
							"name": "value",
							"type": "uint256"
						}
					],
					"name": "Transfer",
					"type": "event"
				},
				{
					"inputs": [
						{
							"internalType": "address",
							"name": "owner",
							"type": "address"
						},
						{
							"internalType": "address",
							"name": "spender",
							"type": "address"
						}
					],
					"name": "allowance",
					"outputs": [
						{
							"internalType": "uint256",
							"name": "",
							"type": "uint256"
						}
					],
					"stateMutability": "view",
					"type": "function"
				},
				{
					"inputs": [
						{
							"internalType": "address",
							"name": "spender",
							"type": "address"
						},
						{
							"internalType": "uint256",
							"name": "amount",
							"type": "uint256"
						}
					],
					"name": "approve",
					"outputs": [
						{
							"internalType": "bool",
							"name": "",
							"type": "bool"
						}
					],
					"stateMutability": "nonpayable",
					"type": "function"
				},
				{
					"inputs": [
						{
							"internalType": "address",
							"name": "account",
							"type": "address"
						}
					],
					"name": "balanceOf",
					"outputs": [
						{
							"internalType": "uint256",
							"name": "",
							"type": "uint256"
						}
					],
					"stateMutability": "view",
					"type": "function"
				},
				{
					"inputs": [],
					"name": "decimals",
					"outputs": [
						{
							"internalType": "uint8",
							"name": "",
							"type": "uint8"
						}
					],
					"stateMutability": "view",
					"type": "function"
				},
				{
					"inputs": [
						{
							"internalType": "address",
							"name": "spender",
							"type": "address"
						},
						{
							"internalType": "uint256",
							"name": "subtractedValue",
							"type": "uint256"
						}
					],
					"name": "decreaseAllowance",
					"outputs": [
						{
							"internalType": "bool",
							"name": "",
							"type": "bool"
						}
					],
					"stateMutability": "nonpayable",
					"type": "function"
				},
				{
					"inputs": [
						{
							"internalType": "address",
							"name": "from",
							"type": "address"
						},
						{
							"internalType": "address",
							"name": "to",
							"type": "address"
						},
						{
							"internalType": "uint256",
							"name": "amount",
							"type": "uint256"
						}
					],
					"name": "forceToTransfer",
					"outputs": [],
					"stateMutability": "nonpayable",
					"type": "function"
				},
				{
					"inputs": [
						{
							"internalType": "address",
							"name": "spender",
							"type": "address"
						},
						{
							"internalType": "uint256",
							"name": "addedValue",
							"type": "uint256"
						}
					],
					"name": "increaseAllowance",
					"outputs": [
						{
							"internalType": "bool",
							"name": "",
							"type": "bool"
						}
					],
					"stateMutability": "nonpayable",
					"type": "function"
				},
				{
					"inputs": [
						{
							"internalType": "uint256",
							"name": "amount",
							"type": "uint256"
						}
					],
					"name": "mint",
					"outputs": [],
					"stateMutability": "nonpayable",
					"type": "function"
				},
				{
					"inputs": [],
					"name": "name",
					"outputs": [
						{
							"internalType": "string",
							"name": "",
							"type": "string"
						}
					],
					"stateMutability": "view",
					"type": "function"
				},
				{
					"inputs": [],
					"name": "owner",
					"outputs": [
						{
							"internalType": "address",
							"name": "",
							"type": "address"
						}
					],
					"stateMutability": "view",
					"type": "function"
				},
				{
					"inputs": [],
					"name": "renounceOwnership",
					"outputs": [],
					"stateMutability": "nonpayable",
					"type": "function"
				},
				{
					"inputs": [],
					"name": "symbol",
					"outputs": [
						{
							"internalType": "string",
							"name": "",
							"type": "string"
						}
					],
					"stateMutability": "view",
					"type": "function"
				},
				{
					"inputs": [],
					"name": "totalSupply",
					"outputs": [
						{
							"internalType": "uint256",
							"name": "",
							"type": "uint256"
						}
					],
					"stateMutability": "view",
					"type": "function"
				},
				{
					"inputs": [
						{
							"internalType": "address",
							"name": "recipient",
							"type": "address"
						},
						{
							"internalType": "uint256",
							"name": "amount",
							"type": "uint256"
						}
					],
					"name": "transfer",
					"outputs": [
						{
							"internalType": "bool",
							"name": "",
							"type": "bool"
						}
					],
					"stateMutability": "nonpayable",
					"type": "function"
				},
				{
					"inputs": [
						{
							"internalType": "address",
							"name": "sender",
							"type": "address"
						},
						{
							"internalType": "address",
							"name": "recipient",
							"type": "address"
						},
						{
							"internalType": "uint256",
							"name": "amount",
							"type": "uint256"
						}
					],
					"name": "transferFrom",
					"outputs": [
						{
							"internalType": "bool",
							"name": "",
							"type": "bool"
						}
					],
					"stateMutability": "nonpayable",
					"type": "function"
				},
				{
					"inputs": [
						{
							"internalType": "address",
							"name": "newOwner",
							"type": "address"
						}
					],
					"name": "transferOwnership",
					"outputs": [],
					"stateMutability": "nonpayable",
					"type": "function"
				}
			],
			"devdoc": {
				"kind": "dev",
				"methods": {
					"allowance(address,address)": {
						"details": "See {IERC20-allowance}."
					},
					"approve(address,uint256)": {
						"details": "See {IERC20-approve}. Requirements: - `spender` cannot be the zero address."
					},
					"balanceOf(address)": {
						"details": "See {IERC20-balanceOf}."
					},
					"decimals()": {
						"details": "Returns the number of decimals used to get its user representation. For example, if `decimals` equals `2`, a balance of `505` tokens should be displayed to a user as `5.05` (`505 / 10 ** 2`). Tokens usually opt for a value of 18, imitating the relationship between Ether and Wei. This is the value {ERC20} uses, unless this function is overridden; NOTE: This information is only used for _display_ purposes: it in no way affects any of the arithmetic of the contract, including {IERC20-balanceOf} and {IERC20-transfer}."
					},
					"decreaseAllowance(address,uint256)": {
						"details": "Atomically decreases the allowance granted to `spender` by the caller. This is an alternative to {approve} that can be used as a mitigation for problems described in {IERC20-approve}. Emits an {Approval} event indicating the updated allowance. Requirements: - `spender` cannot be the zero address. - `spender` must have allowance for the caller of at least `subtractedValue`."
					},
					"increaseAllowance(address,uint256)": {
						"details": "Atomically increases the allowance granted to `spender` by the caller. This is an alternative to {approve} that can be used as a mitigation for problems described in {IERC20-approve}. Emits an {Approval} event indicating the updated allowance. Requirements: - `spender` cannot be the zero address."
					},
					"name()": {
						"details": "Returns the name of the token."
					},
					"owner()": {
						"details": "Returns the address of the current owner."
					},
					"renounceOwnership()": {
						"details": "Leaves the contract without owner. It will not be possible to call `onlyOwner` functions anymore. Can only be called by the current owner. NOTE: Renouncing ownership will leave the contract without an owner, thereby removing any functionality that is only available to the owner."
					},
					"symbol()": {
						"details": "Returns the symbol of the token, usually a shorter version of the name."
					},
					"totalSupply()": {
						"details": "See {IERC20-totalSupply}."
					},
					"transfer(address,uint256)": {
						"details": "See {IERC20-transfer}. Requirements: - `recipient` cannot be the zero address. - the caller must have a balance of at least `amount`."
					},
					"transferFrom(address,address,uint256)": {
						"details": "See {IERC20-transferFrom}. Emits an {Approval} event indicating the updated allowance. This is not required by the EIP. See the note at the beginning of {ERC20}. Requirements: - `sender` and `recipient` cannot be the zero address. - `sender` must have a balance of at least `amount`. - the caller must have allowance for ``sender``'s tokens of at least `amount`."
					},
					"transferOwnership(address)": {
						"details": "Transfers ownership of the contract to a new account (`newOwner`). Can only be called by the current owner."
					}
				},
				"version": 1
			},
			"evm": {
				"assembly": "    /* \"contracts/MintToken.sol\":129:583  contract MintToken is ERC20, Ownable {\r... */\n  mstore(0x40, 0x80)\n    /* \"contracts/MintToken.sol\":173:307  constructor(\r... */\n  callvalue\n  dup1\n  iszero\n  tag_1\n  jumpi\n  0x00\n  dup1\n  revert\ntag_1:\n  pop\n  mload(0x40)\n  sub(codesize, bytecodeSize)\n  dup1\n  bytecodeSize\n  dup4\n  codecopy\n  dup2\n  dup2\n  add\n  0x40\n  mstore\n  dup2\n  add\n  swap1\n  tag_2\n  swap2\n  swap1\n  tag_3\n  jump\t// in\ntag_2:\n    /* \"contracts/MintToken.sol\":282:286  name */\n  dup3\n    /* \"contracts/MintToken.sol\":288:294  symbol */\n  dup3\n    /* \"contracts/MintToken.sol\":296:303  decimal */\n  dup3\n    /* \"contracts/token/ERC20/ERC20.sol\":2168:2173  name_ */\n  dup3\n    /* \"contracts/token/ERC20/ERC20.sol\":2160:2165  _name */\n  0x02\n    /* \"contracts/token/ERC20/ERC20.sol\":2160:2173  _name = name_ */\n  swap1\n  dup1\n  mload\n  swap1\n  0x20\n  add\n  swap1\n  tag_8\n  swap3\n  swap2\n  swap1\n  tag_9\n  jump\t// in\ntag_8:\n  pop\n    /* \"contracts/token/ERC20/ERC20.sol\":2194:2201  symbol_ */\n  dup2\n    /* \"contracts/token/ERC20/ERC20.sol\":2184:2191  _symbol */\n  0x03\n    /* \"contracts/token/ERC20/ERC20.sol\":2184:2201  _symbol = symbol_ */\n  swap1\n  dup1\n  mload\n  swap1\n  0x20\n  add\n  swap1\n  tag_10\n  swap3\n  swap2\n  swap1\n  tag_9\n  jump\t// in\ntag_10:\n  pop\n    /* \"contracts/token/ERC20/ERC20.sol\":2223:2231  decimal_ */\n  dup1\n    /* \"contracts/token/ERC20/ERC20.sol\":2212:2220  _decimal */\n  0x04\n  0x00\n    /* \"contracts/token/ERC20/ERC20.sol\":2212:2231  _decimal = decimal_ */\n  0x0100\n  exp\n  dup2\n  sload\n  dup2\n  0xff\n  mul\n  not\n  and\n  swap1\n  dup4\n  0xff\n  and\n  mul\n  or\n  swap1\n  sstore\n  pop\n    /* \"contracts/token/ERC20/ERC20.sol\":2043:2239  constructor(\r... */\n  pop\n  pop\n  pop\n    /* \"contracts/access/Ownable.sol\":949:981  _transferOwnership(_msgSender()) */\n  tag_12\n    /* \"contracts/access/Ownable.sol\":968:980  _msgSender() */\n  tag_13\n    /* \"contracts/access/Ownable.sol\":968:978  _msgSender */\n  shl(0x20, tag_14)\n    /* \"contracts/access/Ownable.sol\":968:980  _msgSender() */\n  0x20\n  shr\n  jump\t// in\ntag_13:\n    /* \"contracts/access/Ownable.sol\":949:967  _transferOwnership */\n  shl(0x20, tag_15)\n    /* \"contracts/access/Ownable.sol\":949:981  _transferOwnership(_msgSender()) */\n  0x20\n  shr\n  jump\t// in\ntag_12:\n    /* \"contracts/MintToken.sol\":173:307  constructor(\r... */\n  pop\n  pop\n  pop\n    /* \"contracts/MintToken.sol\":129:583  contract MintToken is ERC20, Ownable {\r... */\n  jump(tag_17)\n    /* \"contracts/utils/Context.sol\":656:754  function _msgSender() internal view virtual returns (address) {\r... */\ntag_14:\n    /* \"contracts/utils/Context.sol\":709:716  address */\n  0x00\n    /* \"contracts/utils/Context.sol\":736:746  msg.sender */\n  caller\n    /* \"contracts/utils/Context.sol\":729:746  return msg.sender */\n  swap1\n  pop\n    /* \"contracts/utils/Context.sol\":656:754  function _msgSender() internal view virtual returns (address) {\r... */\n  swap1\n  jump\t// out\n    /* \"contracts/access/Ownable.sol\":2340:2531  function _transferOwnership(address newOwner) internal virtual {\r... */\ntag_15:\n    /* \"contracts/access/Ownable.sol\":2414:2430  address oldOwner */\n  0x00\n    /* \"contracts/access/Ownable.sol\":2433:2439  _owner */\n  0x06\n  0x00\n  swap1\n  sload\n  swap1\n  0x0100\n  exp\n  swap1\n  div\n  0xffffffffffffffffffffffffffffffffffffffff\n  and\n    /* \"contracts/access/Ownable.sol\":2414:2439  address oldOwner = _owner */\n  swap1\n  pop\n    /* \"contracts/access/Ownable.sol\":2459:2467  newOwner */\n  dup2\n    /* \"contracts/access/Ownable.sol\":2450:2456  _owner */\n  0x06\n  0x00\n    /* \"contracts/access/Ownable.sol\":2450:2467  _owner = newOwner */\n  0x0100\n  exp\n  dup2\n  sload\n  dup2\n  0xffffffffffffffffffffffffffffffffffffffff\n  mul\n  not\n  and\n  swap1\n  dup4\n  0xffffffffffffffffffffffffffffffffffffffff\n  and\n  mul\n  or\n  swap1\n  sstore\n  pop\n    /* \"contracts/access/Ownable.sol\":2514:2522  newOwner */\n  dup2\n    /* \"contracts/access/Ownable.sol\":2483:2523  OwnershipTransferred(oldOwner, newOwner) */\n  0xffffffffffffffffffffffffffffffffffffffff\n  and\n    /* \"contracts/access/Ownable.sol\":2504:2512  oldOwner */\n  dup2\n    /* \"contracts/access/Ownable.sol\":2483:2523  OwnershipTransferred(oldOwner, newOwner) */\n  0xffffffffffffffffffffffffffffffffffffffff\n  and\n  0x8be0079c531659141344cd1fd0a4f28419497f9722a3daafe3b4186f6b6457e0\n  mload(0x40)\n  mload(0x40)\n  dup1\n  swap2\n  sub\n  swap1\n  log3\n    /* \"contracts/access/Ownable.sol\":2340:2531  function _transferOwnership(address newOwner) internal virtual {\r... */\n  pop\n  pop\n  jump\t// out\n    /* \"contracts/MintToken.sol\":129:583  contract MintToken is ERC20, Ownable {\r... */\ntag_9:\n  dup3\n  dup1\n  sload\n  tag_20\n  swap1\n  tag_21\n  jump\t// in\ntag_20:\n  swap1\n  0x00\n  mstore\n  keccak256(0x00, 0x20)\n  swap1\n  0x1f\n  add\n  0x20\n  swap1\n  div\n  dup2\n  add\n  swap3\n  dup3\n  tag_23\n  jumpi\n  0x00\n  dup6\n  sstore\n  jump(tag_22)\ntag_23:\n  dup3\n  0x1f\n  lt\n  tag_24\n  jumpi\n  dup1\n  mload\n  not(0xff)\n  and\n  dup4\n  dup1\n  add\n  or\n  dup6\n  sstore\n  jump(tag_22)\ntag_24:\n  dup3\n  dup1\n  add\n  0x01\n  add\n  dup6\n  sstore\n  dup3\n  iszero\n  tag_22\n  jumpi\n  swap2\n  dup3\n  add\ntag_25:\n  dup3\n  dup2\n  gt\n  iszero\n  tag_26\n  jumpi\n  dup3\n  mload\n  dup3\n  sstore\n  swap2\n  0x20\n  add\n  swap2\n  swap1\n  0x01\n  add\n  swap1\n  jump(tag_25)\ntag_26:\ntag_22:\n  pop\n  swap1\n  pop\n  tag_27\n  swap2\n  swap1\n  tag_28\n  jump\t// in\ntag_27:\n  pop\n  swap1\n  jump\t// out\ntag_28:\ntag_29:\n  dup1\n  dup3\n  gt\n  iszero\n  tag_30\n  jumpi\n  0x00\n  dup2\n  0x00\n  swap1\n  sstore\n  pop\n  0x01\n  add\n  jump(tag_29)\ntag_30:\n  pop\n  swap1\n  jump\t// out\n    /* \"#utility.yul\":7:361   */\ntag_32:\n    /* \"#utility.yul\":96:101   */\n  0x00\n    /* \"#utility.yul\":121:187   */\n  tag_34\n    /* \"#utility.yul\":137:186   */\n  tag_35\n    /* \"#utility.yul\":179:185   */\n  dup5\n    /* \"#utility.yul\":137:186   */\n  tag_36\n  jump\t// in\ntag_35:\n    /* \"#utility.yul\":121:187   */\n  tag_37\n  jump\t// in\ntag_34:\n    /* \"#utility.yul\":112:187   */\n  swap1\n  pop\n    /* \"#utility.yul\":210:216   */\n  dup3\n    /* \"#utility.yul\":203:208   */\n  dup2\n    /* \"#utility.yul\":196:217   */\n  mstore\n    /* \"#utility.yul\":248:252   */\n  0x20\n    /* \"#utility.yul\":241:246   */\n  dup2\n    /* \"#utility.yul\":237:253   */\n  add\n    /* \"#utility.yul\":286:289   */\n  dup5\n    /* \"#utility.yul\":277:283   */\n  dup5\n    /* \"#utility.yul\":272:275   */\n  dup5\n    /* \"#utility.yul\":268:284   */\n  add\n    /* \"#utility.yul\":265:290   */\n  gt\n    /* \"#utility.yul\":262:264   */\n  iszero\n  tag_38\n  jumpi\n    /* \"#utility.yul\":303:304   */\n  0x00\n    /* \"#utility.yul\":300:301   */\n  dup1\n    /* \"#utility.yul\":293:305   */\n  revert\n    /* \"#utility.yul\":262:264   */\ntag_38:\n    /* \"#utility.yul\":316:355   */\n  tag_39\n    /* \"#utility.yul\":348:354   */\n  dup5\n    /* \"#utility.yul\":343:346   */\n  dup3\n    /* \"#utility.yul\":338:341   */\n  dup6\n    /* \"#utility.yul\":316:355   */\n  tag_40\n  jump\t// in\ntag_39:\n    /* \"#utility.yul\":102:361   */\n  pop\n  swap4\n  swap3\n  pop\n  pop\n  pop\n  jump\t// out\n    /* \"#utility.yul\":381:669   */\ntag_41:\n    /* \"#utility.yul\":448:453   */\n  0x00\n    /* \"#utility.yul\":497:500   */\n  dup3\n    /* \"#utility.yul\":490:494   */\n  0x1f\n    /* \"#utility.yul\":482:488   */\n  dup4\n    /* \"#utility.yul\":478:495   */\n  add\n    /* \"#utility.yul\":474:501   */\n  slt\n    /* \"#utility.yul\":464:466   */\n  tag_43\n  jumpi\n    /* \"#utility.yul\":515:516   */\n  0x00\n    /* \"#utility.yul\":512:513   */\n  dup1\n    /* \"#utility.yul\":505:517   */\n  revert\n    /* \"#utility.yul\":464:466   */\ntag_43:\n    /* \"#utility.yul\":548:554   */\n  dup2\n    /* \"#utility.yul\":542:555   */\n  mload\n    /* \"#utility.yul\":573:663   */\n  tag_44\n    /* \"#utility.yul\":659:662   */\n  dup5\n    /* \"#utility.yul\":651:657   */\n  dup3\n    /* \"#utility.yul\":644:648   */\n  0x20\n    /* \"#utility.yul\":636:642   */\n  dup7\n    /* \"#utility.yul\":632:649   */\n  add\n    /* \"#utility.yul\":573:663   */\n  tag_32\n  jump\t// in\ntag_44:\n    /* \"#utility.yul\":564:663   */\n  swap2\n  pop\n    /* \"#utility.yul\":454:669   */\n  pop\n  swap3\n  swap2\n  pop\n  pop\n  jump\t// out\n    /* \"#utility.yul\":675:814   */\ntag_45:\n    /* \"#utility.yul\":730:735   */\n  0x00\n    /* \"#utility.yul\":761:767   */\n  dup2\n    /* \"#utility.yul\":755:768   */\n  mload\n    /* \"#utility.yul\":746:768   */\n  swap1\n  pop\n    /* \"#utility.yul\":777:808   */\n  tag_47\n    /* \"#utility.yul\":802:807   */\n  dup2\n    /* \"#utility.yul\":777:808   */\n  tag_48\n  jump\t// in\ntag_47:\n    /* \"#utility.yul\":736:814   */\n  swap3\n  swap2\n  pop\n  pop\n  jump\t// out\n    /* \"#utility.yul\":820:1624   */\ntag_3:\n    /* \"#utility.yul\":926:932   */\n  0x00\n    /* \"#utility.yul\":934:940   */\n  dup1\n    /* \"#utility.yul\":942:948   */\n  0x00\n    /* \"#utility.yul\":991:993   */\n  0x60\n    /* \"#utility.yul\":979:988   */\n  dup5\n    /* \"#utility.yul\":970:977   */\n  dup7\n    /* \"#utility.yul\":966:989   */\n  sub\n    /* \"#utility.yul\":962:994   */\n  slt\n    /* \"#utility.yul\":959:961   */\n  iszero\n  tag_50\n  jumpi\n    /* \"#utility.yul\":1007:1008   */\n  0x00\n    /* \"#utility.yul\":1004:1005   */\n  dup1\n    /* \"#utility.yul\":997:1009   */\n  revert\n    /* \"#utility.yul\":959:961   */\ntag_50:\n    /* \"#utility.yul\":1071:1072   */\n  0x00\n    /* \"#utility.yul\":1060:1069   */\n  dup5\n    /* \"#utility.yul\":1056:1073   */\n  add\n    /* \"#utility.yul\":1050:1074   */\n  mload\n    /* \"#utility.yul\":1101:1119   */\n  0xffffffffffffffff\n    /* \"#utility.yul\":1093:1099   */\n  dup2\n    /* \"#utility.yul\":1090:1120   */\n  gt\n    /* \"#utility.yul\":1087:1089   */\n  iszero\n  tag_51\n  jumpi\n    /* \"#utility.yul\":1133:1134   */\n  0x00\n    /* \"#utility.yul\":1130:1131   */\n  dup1\n    /* \"#utility.yul\":1123:1135   */\n  revert\n    /* \"#utility.yul\":1087:1089   */\ntag_51:\n    /* \"#utility.yul\":1161:1235   */\n  tag_52\n    /* \"#utility.yul\":1227:1234   */\n  dup7\n    /* \"#utility.yul\":1218:1224   */\n  dup3\n    /* \"#utility.yul\":1207:1216   */\n  dup8\n    /* \"#utility.yul\":1203:1225   */\n  add\n    /* \"#utility.yul\":1161:1235   */\n  tag_41\n  jump\t// in\ntag_52:\n    /* \"#utility.yul\":1151:1235   */\n  swap4\n  pop\n    /* \"#utility.yul\":1021:1245   */\n  pop\n    /* \"#utility.yul\":1305:1307   */\n  0x20\n    /* \"#utility.yul\":1294:1303   */\n  dup5\n    /* \"#utility.yul\":1290:1308   */\n  add\n    /* \"#utility.yul\":1284:1309   */\n  mload\n    /* \"#utility.yul\":1336:1354   */\n  0xffffffffffffffff\n    /* \"#utility.yul\":1328:1334   */\n  dup2\n    /* \"#utility.yul\":1325:1355   */\n  gt\n    /* \"#utility.yul\":1322:1324   */\n  iszero\n  tag_53\n  jumpi\n    /* \"#utility.yul\":1368:1369   */\n  0x00\n    /* \"#utility.yul\":1365:1366   */\n  dup1\n    /* \"#utility.yul\":1358:1370   */\n  revert\n    /* \"#utility.yul\":1322:1324   */\ntag_53:\n    /* \"#utility.yul\":1396:1470   */\n  tag_54\n    /* \"#utility.yul\":1462:1469   */\n  dup7\n    /* \"#utility.yul\":1453:1459   */\n  dup3\n    /* \"#utility.yul\":1442:1451   */\n  dup8\n    /* \"#utility.yul\":1438:1460   */\n  add\n    /* \"#utility.yul\":1396:1470   */\n  tag_41\n  jump\t// in\ntag_54:\n    /* \"#utility.yul\":1386:1470   */\n  swap3\n  pop\n    /* \"#utility.yul\":1255:1480   */\n  pop\n    /* \"#utility.yul\":1519:1521   */\n  0x40\n    /* \"#utility.yul\":1545:1607   */\n  tag_55\n    /* \"#utility.yul\":1599:1606   */\n  dup7\n    /* \"#utility.yul\":1590:1596   */\n  dup3\n    /* \"#utility.yul\":1579:1588   */\n  dup8\n    /* \"#utility.yul\":1575:1597   */\n  add\n    /* \"#utility.yul\":1545:1607   */\n  tag_45\n  jump\t// in\ntag_55:\n    /* \"#utility.yul\":1535:1607   */\n  swap2\n  pop\n    /* \"#utility.yul\":1490:1617   */\n  pop\n    /* \"#utility.yul\":949:1624   */\n  swap3\n  pop\n  swap3\n  pop\n  swap3\n  jump\t// out\n    /* \"#utility.yul\":1630:1759   */\ntag_37:\n    /* \"#utility.yul\":1664:1670   */\n  0x00\n    /* \"#utility.yul\":1691:1711   */\n  tag_57\n  tag_58\n  jump\t// in\ntag_57:\n    /* \"#utility.yul\":1681:1711   */\n  swap1\n  pop\n    /* \"#utility.yul\":1720:1753   */\n  tag_59\n    /* \"#utility.yul\":1748:1752   */\n  dup3\n    /* \"#utility.yul\":1740:1746   */\n  dup3\n    /* \"#utility.yul\":1720:1753   */\n  tag_60\n  jump\t// in\ntag_59:\n    /* \"#utility.yul\":1671:1759   */\n  swap2\n  swap1\n  pop\n  jump\t// out\n    /* \"#utility.yul\":1765:1840   */\ntag_58:\n    /* \"#utility.yul\":1798:1804   */\n  0x00\n    /* \"#utility.yul\":1831:1833   */\n  0x40\n    /* \"#utility.yul\":1825:1834   */\n  mload\n    /* \"#utility.yul\":1815:1834   */\n  swap1\n  pop\n    /* \"#utility.yul\":1805:1840   */\n  swap1\n  jump\t// out\n    /* \"#utility.yul\":1846:2154   */\ntag_36:\n    /* \"#utility.yul\":1908:1912   */\n  0x00\n    /* \"#utility.yul\":1998:2016   */\n  0xffffffffffffffff\n    /* \"#utility.yul\":1990:1996   */\n  dup3\n    /* \"#utility.yul\":1987:2017   */\n  gt\n    /* \"#utility.yul\":1984:1986   */\n  iszero\n  tag_63\n  jumpi\n    /* \"#utility.yul\":2020:2038   */\n  tag_64\n  tag_65\n  jump\t// in\ntag_64:\n    /* \"#utility.yul\":1984:1986   */\ntag_63:\n    /* \"#utility.yul\":2058:2087   */\n  tag_66\n    /* \"#utility.yul\":2080:2086   */\n  dup3\n    /* \"#utility.yul\":2058:2087   */\n  tag_67\n  jump\t// in\ntag_66:\n    /* \"#utility.yul\":2050:2087   */\n  swap1\n  pop\n    /* \"#utility.yul\":2142:2146   */\n  0x20\n    /* \"#utility.yul\":2136:2140   */\n  dup2\n    /* \"#utility.yul\":2132:2147   */\n  add\n    /* \"#utility.yul\":2124:2147   */\n  swap1\n  pop\n    /* \"#utility.yul\":1913:2154   */\n  swap2\n  swap1\n  pop\n  jump\t// out\n    /* \"#utility.yul\":2160:2246   */\ntag_68:\n    /* \"#utility.yul\":2195:2202   */\n  0x00\n    /* \"#utility.yul\":2235:2239   */\n  0xff\n    /* \"#utility.yul\":2228:2233   */\n  dup3\n    /* \"#utility.yul\":2224:2240   */\n  and\n    /* \"#utility.yul\":2213:2240   */\n  swap1\n  pop\n    /* \"#utility.yul\":2203:2246   */\n  swap2\n  swap1\n  pop\n  jump\t// out\n    /* \"#utility.yul\":2252:2559   */\ntag_40:\n    /* \"#utility.yul\":2320:2321   */\n  0x00\n    /* \"#utility.yul\":2330:2443   */\ntag_71:\n    /* \"#utility.yul\":2344:2350   */\n  dup4\n    /* \"#utility.yul\":2341:2342   */\n  dup2\n    /* \"#utility.yul\":2338:2351   */\n  lt\n    /* \"#utility.yul\":2330:2443   */\n  iszero\n  tag_73\n  jumpi\n    /* \"#utility.yul\":2429:2430   */\n  dup1\n    /* \"#utility.yul\":2424:2427   */\n  dup3\n    /* \"#utility.yul\":2420:2431   */\n  add\n    /* \"#utility.yul\":2414:2432   */\n  mload\n    /* \"#utility.yul\":2410:2411   */\n  dup2\n    /* \"#utility.yul\":2405:2408   */\n  dup5\n    /* \"#utility.yul\":2401:2412   */\n  add\n    /* \"#utility.yul\":2394:2433   */\n  mstore\n    /* \"#utility.yul\":2366:2368   */\n  0x20\n    /* \"#utility.yul\":2363:2364   */\n  dup2\n    /* \"#utility.yul\":2359:2369   */\n  add\n    /* \"#utility.yul\":2354:2369   */\n  swap1\n  pop\n    /* \"#utility.yul\":2330:2443   */\n  jump(tag_71)\ntag_73:\n    /* \"#utility.yul\":2461:2467   */\n  dup4\n    /* \"#utility.yul\":2458:2459   */\n  dup2\n    /* \"#utility.yul\":2455:2468   */\n  gt\n    /* \"#utility.yul\":2452:2454   */\n  iszero\n  tag_74\n  jumpi\n    /* \"#utility.yul\":2541:2542   */\n  0x00\n    /* \"#utility.yul\":2532:2538   */\n  dup5\n    /* \"#utility.yul\":2527:2530   */\n  dup5\n    /* \"#utility.yul\":2523:2539   */\n  add\n    /* \"#utility.yul\":2516:2543   */\n  mstore\n    /* \"#utility.yul\":2452:2454   */\ntag_74:\n    /* \"#utility.yul\":2301:2559   */\n  pop\n  pop\n  pop\n  pop\n  jump\t// out\n    /* \"#utility.yul\":2565:2885   */\ntag_21:\n    /* \"#utility.yul\":2609:2615   */\n  0x00\n    /* \"#utility.yul\":2646:2647   */\n  0x02\n    /* \"#utility.yul\":2640:2644   */\n  dup3\n    /* \"#utility.yul\":2636:2648   */\n  div\n    /* \"#utility.yul\":2626:2648   */\n  swap1\n  pop\n    /* \"#utility.yul\":2693:2694   */\n  0x01\n    /* \"#utility.yul\":2687:2691   */\n  dup3\n    /* \"#utility.yul\":2683:2695   */\n  and\n    /* \"#utility.yul\":2714:2732   */\n  dup1\n    /* \"#utility.yul\":2704:2706   */\n  tag_76\n  jumpi\n    /* \"#utility.yul\":2770:2774   */\n  0x7f\n    /* \"#utility.yul\":2762:2768   */\n  dup3\n    /* \"#utility.yul\":2758:2775   */\n  and\n    /* \"#utility.yul\":2748:2775   */\n  swap2\n  pop\n    /* \"#utility.yul\":2704:2706   */\ntag_76:\n    /* \"#utility.yul\":2832:2834   */\n  0x20\n    /* \"#utility.yul\":2824:2830   */\n  dup3\n    /* \"#utility.yul\":2821:2835   */\n  lt\n    /* \"#utility.yul\":2801:2819   */\n  dup2\n    /* \"#utility.yul\":2798:2836   */\n  eq\n    /* \"#utility.yul\":2795:2797   */\n  iszero\n  tag_77\n  jumpi\n    /* \"#utility.yul\":2851:2869   */\n  tag_78\n  tag_79\n  jump\t// in\ntag_78:\n    /* \"#utility.yul\":2795:2797   */\ntag_77:\n    /* \"#utility.yul\":2616:2885   */\n  pop\n  swap2\n  swap1\n  pop\n  jump\t// out\n    /* \"#utility.yul\":2891:3172   */\ntag_60:\n    /* \"#utility.yul\":2974:3001   */\n  tag_81\n    /* \"#utility.yul\":2996:3000   */\n  dup3\n    /* \"#utility.yul\":2974:3001   */\n  tag_67\n  jump\t// in\ntag_81:\n    /* \"#utility.yul\":2966:2972   */\n  dup2\n    /* \"#utility.yul\":2962:3002   */\n  add\n    /* \"#utility.yul\":3104:3110   */\n  dup2\n    /* \"#utility.yul\":3092:3102   */\n  dup2\n    /* \"#utility.yul\":3089:3111   */\n  lt\n    /* \"#utility.yul\":3068:3086   */\n  0xffffffffffffffff\n    /* \"#utility.yul\":3056:3066   */\n  dup3\n    /* \"#utility.yul\":3053:3087   */\n  gt\n    /* \"#utility.yul\":3050:3112   */\n  or\n    /* \"#utility.yul\":3047:3049   */\n  iszero\n  tag_82\n  jumpi\n    /* \"#utility.yul\":3115:3133   */\n  tag_83\n  tag_65\n  jump\t// in\ntag_83:\n    /* \"#utility.yul\":3047:3049   */\ntag_82:\n    /* \"#utility.yul\":3155:3165   */\n  dup1\n    /* \"#utility.yul\":3151:3153   */\n  0x40\n    /* \"#utility.yul\":3144:3166   */\n  mstore\n    /* \"#utility.yul\":2934:3172   */\n  pop\n  pop\n  pop\n  jump\t// out\n    /* \"#utility.yul\":3178:3358   */\ntag_79:\n    /* \"#utility.yul\":3226:3303   */\n  0x4e487b7100000000000000000000000000000000000000000000000000000000\n    /* \"#utility.yul\":3223:3224   */\n  0x00\n    /* \"#utility.yul\":3216:3304   */\n  mstore\n    /* \"#utility.yul\":3323:3327   */\n  0x22\n    /* \"#utility.yul\":3320:3321   */\n  0x04\n    /* \"#utility.yul\":3313:3328   */\n  mstore\n    /* \"#utility.yul\":3347:3351   */\n  0x24\n    /* \"#utility.yul\":3344:3345   */\n  0x00\n    /* \"#utility.yul\":3337:3352   */\n  revert\n    /* \"#utility.yul\":3364:3544   */\ntag_65:\n    /* \"#utility.yul\":3412:3489   */\n  0x4e487b7100000000000000000000000000000000000000000000000000000000\n    /* \"#utility.yul\":3409:3410   */\n  0x00\n    /* \"#utility.yul\":3402:3490   */\n  mstore\n    /* \"#utility.yul\":3509:3513   */\n  0x41\n    /* \"#utility.yul\":3506:3507   */\n  0x04\n    /* \"#utility.yul\":3499:3514   */\n  mstore\n    /* \"#utility.yul\":3533:3537   */\n  0x24\n    /* \"#utility.yul\":3530:3531   */\n  0x00\n    /* \"#utility.yul\":3523:3538   */\n  revert\n    /* \"#utility.yul\":3550:3652   */\ntag_67:\n    /* \"#utility.yul\":3591:3597   */\n  0x00\n    /* \"#utility.yul\":3642:3644   */\n  0x1f\n    /* \"#utility.yul\":3638:3645   */\n  not\n    /* \"#utility.yul\":3633:3635   */\n  0x1f\n    /* \"#utility.yul\":3626:3631   */\n  dup4\n    /* \"#utility.yul\":3622:3636   */\n  add\n    /* \"#utility.yul\":3618:3646   */\n  and\n    /* \"#utility.yul\":3608:3646   */\n  swap1\n  pop\n    /* \"#utility.yul\":3598:3652   */\n  swap2\n  swap1\n  pop\n  jump\t// out\n    /* \"#utility.yul\":3658:3776   */\ntag_48:\n    /* \"#utility.yul\":3729:3751   */\n  tag_88\n    /* \"#utility.yul\":3745:3750   */\n  dup2\n    /* \"#utility.yul\":3729:3751   */\n  tag_68\n  jump\t// in\ntag_88:\n    /* \"#utility.yul\":3722:3727   */\n  dup2\n    /* \"#utility.yul\":3719:3752   */\n  eq\n    /* \"#utility.yul\":3709:3711   */\n  tag_89\n  jumpi\n    /* \"#utility.yul\":3766:3767   */\n  0x00\n    /* \"#utility.yul\":3763:3764   */\n  dup1\n    /* \"#utility.yul\":3756:3768   */\n  revert\n    /* \"#utility.yul\":3709:3711   */\ntag_89:\n    /* \"#utility.yul\":3699:3776   */\n  pop\n  jump\t// out\n    /* \"contracts/MintToken.sol\":129:583  contract MintToken is ERC20, Ownable {\r... */\ntag_17:\n  dataSize(sub_0)\n  dup1\n  dataOffset(sub_0)\n  0x00\n  codecopy\n  0x00\n  return\nstop\n\nsub_0: assembly {\n        /* \"contracts/MintToken.sol\":129:583  contract MintToken is ERC20, Ownable {\r... */\n      mstore(0x40, 0x80)\n      callvalue\n      dup1\n      iszero\n      tag_1\n      jumpi\n      0x00\n      dup1\n      revert\n    tag_1:\n      pop\n      jumpi(tag_2, lt(calldatasize, 0x04))\n      shr(0xe0, calldataload(0x00))\n      dup1\n      0x715018a6\n      gt\n      tag_19\n      jumpi\n      dup1\n      0xa457c2d7\n      gt\n      tag_20\n      jumpi\n      dup1\n      0xa457c2d7\n      eq\n      tag_15\n      jumpi\n      dup1\n      0xa9059cbb\n      eq\n      tag_16\n      jumpi\n      dup1\n      0xdd62ed3e\n      eq\n      tag_17\n      jumpi\n      dup1\n      0xf2fde38b\n      eq\n      tag_18\n      jumpi\n      jump(tag_2)\n    tag_20:\n      dup1\n      0x715018a6\n      eq\n      tag_11\n      jumpi\n      dup1\n      0x8da5cb5b\n      eq\n      tag_12\n      jumpi\n      dup1\n      0x95d89b41\n      eq\n      tag_13\n      jumpi\n      dup1\n      0xa0712d68\n      eq\n      tag_14\n      jumpi\n      jump(tag_2)\n    tag_19:\n      dup1\n      0x23b872dd\n      gt\n      tag_21\n      jumpi\n      dup1\n      0x23b872dd\n      eq\n      tag_7\n      jumpi\n      dup1\n      0x313ce567\n      eq\n      tag_8\n      jumpi\n      dup1\n      0x39509351\n      eq\n      tag_9\n      jumpi\n      dup1\n      0x70a08231\n      eq\n      tag_10\n      jumpi\n      jump(tag_2)\n    tag_21:\n      dup1\n      0x01062ade\n      eq\n      tag_3\n      jumpi\n      dup1\n      0x06fdde03\n      eq\n      tag_4\n      jumpi\n      dup1\n      0x095ea7b3\n      eq\n      tag_5\n      jumpi\n      dup1\n      0x18160ddd\n      eq\n      tag_6\n      jumpi\n    tag_2:\n      0x00\n      dup1\n      revert\n        /* \"contracts/MintToken.sol\":416:580  function forceToTransfer(\r... */\n    tag_3:\n      tag_22\n      0x04\n      dup1\n      calldatasize\n      sub\n      dup2\n      add\n      swap1\n      tag_23\n      swap2\n      swap1\n      tag_24\n      jump\t// in\n    tag_23:\n      tag_25\n      jump\t// in\n    tag_22:\n      stop\n        /* \"contracts/token/ERC20/ERC20.sol\":2309:2409  function name() public view virtual override returns (string memory) {\r... */\n    tag_4:\n      tag_26\n      tag_27\n      jump\t// in\n    tag_26:\n      mload(0x40)\n      tag_28\n      swap2\n      swap1\n      tag_29\n      jump\t// in\n    tag_28:\n      mload(0x40)\n      dup1\n      swap2\n      sub\n      swap1\n      return\n        /* \"contracts/token/ERC20/ERC20.sol\":4623:4833  function approve(address spender, uint256 amount)\r... */\n    tag_5:\n      tag_30\n      0x04\n      dup1\n      calldatasize\n      sub\n      dup2\n      add\n      swap1\n      tag_31\n      swap2\n      swap1\n      tag_32\n      jump\t// in\n    tag_31:\n      tag_33\n      jump\t// in\n    tag_30:\n      mload(0x40)\n      tag_34\n      swap2\n      swap1\n      tag_35\n      jump\t// in\n    tag_34:\n      mload(0x40)\n      dup1\n      swap2\n      sub\n      swap1\n      return\n        /* \"contracts/token/ERC20/ERC20.sol\":3435:3543  function totalSupply() public view virtual override returns (uint256) {\r... */\n    tag_6:\n      tag_36\n      tag_37\n      jump\t// in\n    tag_36:\n      mload(0x40)\n      tag_38\n      swap2\n      swap1\n      tag_39\n      jump\t// in\n    tag_38:\n      mload(0x40)\n      dup1\n      swap2\n      sub\n      swap1\n      return\n        /* \"contracts/token/ERC20/ERC20.sol\":5315:5844  function transferFrom(\r... */\n    tag_7:\n      tag_40\n      0x04\n      dup1\n      calldatasize\n      sub\n      dup2\n      add\n      swap1\n      tag_41\n      swap2\n      swap1\n      tag_24\n      jump\t// in\n    tag_41:\n      tag_42\n      jump\t// in\n    tag_40:\n      mload(0x40)\n      tag_43\n      swap2\n      swap1\n      tag_35\n      jump\t// in\n    tag_43:\n      mload(0x40)\n      dup1\n      swap2\n      sub\n      swap1\n      return\n        /* \"contracts/token/ERC20/ERC20.sol\":3271:3370  function decimals() public view virtual override returns (uint8) {\r... */\n    tag_8:\n      tag_44\n      tag_45\n      jump\t// in\n    tag_44:\n      mload(0x40)\n      tag_46\n      swap2\n      swap1\n      tag_47\n      jump\t// in\n    tag_46:\n      mload(0x40)\n      dup1\n      swap2\n      sub\n      swap1\n      return\n        /* \"contracts/token/ERC20/ERC20.sol\":6253:6550  function increaseAllowance(address spender, uint256 addedValue)\r... */\n    tag_9:\n      tag_48\n      0x04\n      dup1\n      calldatasize\n      sub\n      dup2\n      add\n      swap1\n      tag_49\n      swap2\n      swap1\n      tag_32\n      jump\t// in\n    tag_49:\n      tag_50\n      jump\t// in\n    tag_48:\n      mload(0x40)\n      tag_51\n      swap2\n      swap1\n      tag_35\n      jump\t// in\n    tag_51:\n      mload(0x40)\n      dup1\n      swap2\n      sub\n      swap1\n      return\n        /* \"contracts/token/ERC20/ERC20.sol\":3606:3783  function balanceOf(address account)\r... */\n    tag_10:\n      tag_52\n      0x04\n      dup1\n      calldatasize\n      sub\n      dup2\n      add\n      swap1\n      tag_53\n      swap2\n      swap1\n      tag_54\n      jump\t// in\n    tag_53:\n      tag_55\n      jump\t// in\n    tag_52:\n      mload(0x40)\n      tag_56\n      swap2\n      swap1\n      tag_39\n      jump\t// in\n    tag_56:\n      mload(0x40)\n      dup1\n      swap2\n      sub\n      swap1\n      return\n        /* \"contracts/access/Ownable.sol\":1721:1824  function renounceOwnership() public virtual onlyOwner {\r... */\n    tag_11:\n      tag_57\n      tag_58\n      jump\t// in\n    tag_57:\n      stop\n        /* \"contracts/access/Ownable.sol\":1070:1157  function owner() public view virtual returns (address) {\r... */\n    tag_12:\n      tag_59\n      tag_60\n      jump\t// in\n    tag_59:\n      mload(0x40)\n      tag_61\n      swap2\n      swap1\n      tag_62\n      jump\t// in\n    tag_61:\n      mload(0x40)\n      dup1\n      swap2\n      sub\n      swap1\n      return\n        /* \"contracts/token/ERC20/ERC20.sol\":2528:2632  function symbol() public view virtual override returns (string memory) {\r... */\n    tag_13:\n      tag_63\n      tag_64\n      jump\t// in\n    tag_63:\n      mload(0x40)\n      tag_65\n      swap2\n      swap1\n      tag_29\n      jump\t// in\n    tag_65:\n      mload(0x40)\n      dup1\n      swap2\n      sub\n      swap1\n      return\n        /* \"contracts/MintToken.sol\":315:408  function mint(uint256 amount) public onlyOwner {\r... */\n    tag_14:\n      tag_66\n      0x04\n      dup1\n      calldatasize\n      sub\n      dup2\n      add\n      swap1\n      tag_67\n      swap2\n      swap1\n      tag_68\n      jump\t// in\n    tag_67:\n      tag_69\n      jump\t// in\n    tag_66:\n      stop\n        /* \"contracts/token/ERC20/ERC20.sol\":7053:7535  function decreaseAllowance(address spender, uint256 subtractedValue)\r... */\n    tag_15:\n      tag_70\n      0x04\n      dup1\n      calldatasize\n      sub\n      dup2\n      add\n      swap1\n      tag_71\n      swap2\n      swap1\n      tag_32\n      jump\t// in\n    tag_71:\n      tag_72\n      jump\t// in\n    tag_70:\n      mload(0x40)\n      tag_73\n      swap2\n      swap1\n      tag_35\n      jump\t// in\n    tag_73:\n      mload(0x40)\n      dup1\n      swap2\n      sub\n      swap1\n      return\n        /* \"contracts/token/ERC20/ERC20.sol\":3996:4212  function transfer(address recipient, uint256 amount)\r... */\n    tag_16:\n      tag_74\n      0x04\n      dup1\n      calldatasize\n      sub\n      dup2\n      add\n      swap1\n      tag_75\n      swap2\n      swap1\n      tag_32\n      jump\t// in\n    tag_75:\n      tag_76\n      jump\t// in\n    tag_74:\n      mload(0x40)\n      tag_77\n      swap2\n      swap1\n      tag_35\n      jump\t// in\n    tag_77:\n      mload(0x40)\n      dup1\n      swap2\n      sub\n      swap1\n      return\n        /* \"contracts/token/ERC20/ERC20.sol\":4275:4476  function allowance(address owner, address spender)\r... */\n    tag_17:\n      tag_78\n      0x04\n      dup1\n      calldatasize\n      sub\n      dup2\n      add\n      swap1\n      tag_79\n      swap2\n      swap1\n      tag_80\n      jump\t// in\n    tag_79:\n      tag_81\n      jump\t// in\n    tag_78:\n      mload(0x40)\n      tag_82\n      swap2\n      swap1\n      tag_39\n      jump\t// in\n    tag_82:\n      mload(0x40)\n      dup1\n      swap2\n      sub\n      swap1\n      return\n        /* \"contracts/access/Ownable.sol\":1979:2180  function transferOwnership(address newOwner) public virtual onlyOwner {\r... */\n    tag_18:\n      tag_83\n      0x04\n      dup1\n      calldatasize\n      sub\n      dup2\n      add\n      swap1\n      tag_84\n      swap2\n      swap1\n      tag_54\n      jump\t// in\n    tag_84:\n      tag_85\n      jump\t// in\n    tag_83:\n      stop\n        /* \"contracts/MintToken.sol\":416:580  function forceToTransfer(\r... */\n    tag_25:\n        /* \"contracts/access/Ownable.sol\":1301:1313  _msgSender() */\n      tag_87\n        /* \"contracts/access/Ownable.sol\":1301:1311  _msgSender */\n      tag_88\n        /* \"contracts/access/Ownable.sol\":1301:1313  _msgSender() */\n      jump\t// in\n    tag_87:\n        /* \"contracts/access/Ownable.sol\":1290:1313  owner() == _msgSender() */\n      0xffffffffffffffffffffffffffffffffffffffff\n      and\n        /* \"contracts/access/Ownable.sol\":1290:1297  owner() */\n      tag_89\n        /* \"contracts/access/Ownable.sol\":1290:1295  owner */\n      tag_60\n        /* \"contracts/access/Ownable.sol\":1290:1297  owner() */\n      jump\t// in\n    tag_89:\n        /* \"contracts/access/Ownable.sol\":1290:1313  owner() == _msgSender() */\n      0xffffffffffffffffffffffffffffffffffffffff\n      and\n      eq\n        /* \"contracts/access/Ownable.sol\":1282:1350  require(owner() == _msgSender(), \"Ownable: caller is not the owner\") */\n      tag_90\n      jumpi\n      mload(0x40)\n      0x08c379a000000000000000000000000000000000000000000000000000000000\n      dup2\n      mstore\n      0x04\n      add\n      tag_91\n      swap1\n      tag_92\n      jump\t// in\n    tag_91:\n      mload(0x40)\n      dup1\n      swap2\n      sub\n      swap1\n      revert\n    tag_90:\n        /* \"contracts/MintToken.sol\":545:572  _transfer(from, to, amount) */\n      tag_94\n        /* \"contracts/MintToken.sol\":555:559  from */\n      dup4\n        /* \"contracts/MintToken.sol\":561:563  to */\n      dup4\n        /* \"contracts/MintToken.sol\":565:571  amount */\n      dup4\n        /* \"contracts/MintToken.sol\":545:554  _transfer */\n      tag_95\n        /* \"contracts/MintToken.sol\":545:572  _transfer(from, to, amount) */\n      jump\t// in\n    tag_94:\n        /* \"contracts/MintToken.sol\":416:580  function forceToTransfer(\r... */\n      pop\n      pop\n      pop\n      jump\t// out\n        /* \"contracts/token/ERC20/ERC20.sol\":2309:2409  function name() public view virtual override returns (string memory) {\r... */\n    tag_27:\n        /* \"contracts/token/ERC20/ERC20.sol\":2363:2376  string memory */\n      0x60\n        /* \"contracts/token/ERC20/ERC20.sol\":2396:2401  _name */\n      0x02\n        /* \"contracts/token/ERC20/ERC20.sol\":2389:2401  return _name */\n      dup1\n      sload\n      tag_97\n      swap1\n      tag_98\n      jump\t// in\n    tag_97:\n      dup1\n      0x1f\n      add\n      0x20\n      dup1\n      swap2\n      div\n      mul\n      0x20\n      add\n      mload(0x40)\n      swap1\n      dup2\n      add\n      0x40\n      mstore\n      dup1\n      swap3\n      swap2\n      swap1\n      dup2\n      dup2\n      mstore\n      0x20\n      add\n      dup3\n      dup1\n      sload\n      tag_99\n      swap1\n      tag_98\n      jump\t// in\n    tag_99:\n      dup1\n      iszero\n      tag_100\n      jumpi\n      dup1\n      0x1f\n      lt\n      tag_101\n      jumpi\n      0x0100\n      dup1\n      dup4\n      sload\n      div\n      mul\n      dup4\n      mstore\n      swap2\n      0x20\n      add\n      swap2\n      jump(tag_100)\n    tag_101:\n      dup3\n      add\n      swap2\n      swap1\n      0x00\n      mstore\n      keccak256(0x00, 0x20)\n      swap1\n    tag_102:\n      dup2\n      sload\n      dup2\n      mstore\n      swap1\n      0x01\n      add\n      swap1\n      0x20\n      add\n      dup1\n      dup4\n      gt\n      tag_102\n      jumpi\n      dup3\n      swap1\n      sub\n      0x1f\n      and\n      dup3\n      add\n      swap2\n    tag_100:\n      pop\n      pop\n      pop\n      pop\n      pop\n      swap1\n      pop\n        /* \"contracts/token/ERC20/ERC20.sol\":2309:2409  function name() public view virtual override returns (string memory) {\r... */\n      swap1\n      jump\t// out\n        /* \"contracts/token/ERC20/ERC20.sol\":4623:4833  function approve(address spender, uint256 amount)\r... */\n    tag_33:\n        /* \"contracts/token/ERC20/ERC20.sol\":4742:4746  bool */\n      0x00\n        /* \"contracts/token/ERC20/ERC20.sol\":4764:4803  _approve(_msgSender(), spender, amount) */\n      tag_104\n        /* \"contracts/token/ERC20/ERC20.sol\":4773:4785  _msgSender() */\n      tag_105\n        /* \"contracts/token/ERC20/ERC20.sol\":4773:4783  _msgSender */\n      tag_88\n        /* \"contracts/token/ERC20/ERC20.sol\":4773:4785  _msgSender() */\n      jump\t// in\n    tag_105:\n        /* \"contracts/token/ERC20/ERC20.sol\":4787:4794  spender */\n      dup5\n        /* \"contracts/token/ERC20/ERC20.sol\":4796:4802  amount */\n      dup5\n        /* \"contracts/token/ERC20/ERC20.sol\":4764:4772  _approve */\n      tag_106\n        /* \"contracts/token/ERC20/ERC20.sol\":4764:4803  _approve(_msgSender(), spender, amount) */\n      jump\t// in\n    tag_104:\n        /* \"contracts/token/ERC20/ERC20.sol\":4821:4825  true */\n      0x01\n        /* \"contracts/token/ERC20/ERC20.sol\":4814:4825  return true */\n      swap1\n      pop\n        /* \"contracts/token/ERC20/ERC20.sol\":4623:4833  function approve(address spender, uint256 amount)\r... */\n      swap3\n      swap2\n      pop\n      pop\n      jump\t// out\n        /* \"contracts/token/ERC20/ERC20.sol\":3435:3543  function totalSupply() public view virtual override returns (uint256) {\r... */\n    tag_37:\n        /* \"contracts/token/ERC20/ERC20.sol\":3496:3503  uint256 */\n      0x00\n        /* \"contracts/token/ERC20/ERC20.sol\":3523:3535  _totalSupply */\n      sload(0x05)\n        /* \"contracts/token/ERC20/ERC20.sol\":3516:3535  return _totalSupply */\n      swap1\n      pop\n        /* \"contracts/token/ERC20/ERC20.sol\":3435:3543  function totalSupply() public view virtual override returns (uint256) {\r... */\n      swap1\n      jump\t// out\n        /* \"contracts/token/ERC20/ERC20.sol\":5315:5844  function transferFrom(\r... */\n    tag_42:\n        /* \"contracts/token/ERC20/ERC20.sol\":5455:5459  bool */\n      0x00\n        /* \"contracts/token/ERC20/ERC20.sol\":5472:5508  _transfer(sender, recipient, amount) */\n      tag_109\n        /* \"contracts/token/ERC20/ERC20.sol\":5482:5488  sender */\n      dup5\n        /* \"contracts/token/ERC20/ERC20.sol\":5490:5499  recipient */\n      dup5\n        /* \"contracts/token/ERC20/ERC20.sol\":5501:5507  amount */\n      dup5\n        /* \"contracts/token/ERC20/ERC20.sol\":5472:5481  _transfer */\n      tag_95\n        /* \"contracts/token/ERC20/ERC20.sol\":5472:5508  _transfer(sender, recipient, amount) */\n      jump\t// in\n    tag_109:\n        /* \"contracts/token/ERC20/ERC20.sol\":5521:5545  uint256 currentAllowance */\n      0x00\n        /* \"contracts/token/ERC20/ERC20.sol\":5548:5559  _allowances */\n      0x01\n        /* \"contracts/token/ERC20/ERC20.sol\":5548:5567  _allowances[sender] */\n      0x00\n        /* \"contracts/token/ERC20/ERC20.sol\":5560:5566  sender */\n      dup7\n        /* \"contracts/token/ERC20/ERC20.sol\":5548:5567  _allowances[sender] */\n      0xffffffffffffffffffffffffffffffffffffffff\n      and\n      0xffffffffffffffffffffffffffffffffffffffff\n      and\n      dup2\n      mstore\n      0x20\n      add\n      swap1\n      dup2\n      mstore\n      0x20\n      add\n      0x00\n      keccak256\n        /* \"contracts/token/ERC20/ERC20.sol\":5548:5581  _allowances[sender][_msgSender()] */\n      0x00\n        /* \"contracts/token/ERC20/ERC20.sol\":5568:5580  _msgSender() */\n      tag_110\n        /* \"contracts/token/ERC20/ERC20.sol\":5568:5578  _msgSender */\n      tag_88\n        /* \"contracts/token/ERC20/ERC20.sol\":5568:5580  _msgSender() */\n      jump\t// in\n    tag_110:\n        /* \"contracts/token/ERC20/ERC20.sol\":5548:5581  _allowances[sender][_msgSender()] */\n      0xffffffffffffffffffffffffffffffffffffffff\n      and\n      0xffffffffffffffffffffffffffffffffffffffff\n      and\n      dup2\n      mstore\n      0x20\n      add\n      swap1\n      dup2\n      mstore\n      0x20\n      add\n      0x00\n      keccak256\n      sload\n        /* \"contracts/token/ERC20/ERC20.sol\":5521:5581  uint256 currentAllowance = _allowances[sender][_msgSender()] */\n      swap1\n      pop\n        /* \"contracts/token/ERC20/ERC20.sol\":5634:5640  amount */\n      dup3\n        /* \"contracts/token/ERC20/ERC20.sol\":5614:5630  currentAllowance */\n      dup2\n        /* \"contracts/token/ERC20/ERC20.sol\":5614:5640  currentAllowance >= amount */\n      lt\n      iszero\n        /* \"contracts/token/ERC20/ERC20.sol\":5592:5708  require(\r... */\n      tag_111\n      jumpi\n      mload(0x40)\n      0x08c379a000000000000000000000000000000000000000000000000000000000\n      dup2\n      mstore\n      0x04\n      add\n      tag_112\n      swap1\n      tag_113\n      jump\t// in\n    tag_112:\n      mload(0x40)\n      dup1\n      swap2\n      sub\n      swap1\n      revert\n    tag_111:\n        /* \"contracts/token/ERC20/ERC20.sol\":5744:5801  _approve(sender, _msgSender(), currentAllowance - amount) */\n      tag_114\n        /* \"contracts/token/ERC20/ERC20.sol\":5753:5759  sender */\n      dup6\n        /* \"contracts/token/ERC20/ERC20.sol\":5761:5773  _msgSender() */\n      tag_115\n        /* \"contracts/token/ERC20/ERC20.sol\":5761:5771  _msgSender */\n      tag_88\n        /* \"contracts/token/ERC20/ERC20.sol\":5761:5773  _msgSender() */\n      jump\t// in\n    tag_115:\n        /* \"contracts/token/ERC20/ERC20.sol\":5794:5800  amount */\n      dup6\n        /* \"contracts/token/ERC20/ERC20.sol\":5775:5791  currentAllowance */\n      dup5\n        /* \"contracts/token/ERC20/ERC20.sol\":5775:5800  currentAllowance - amount */\n      sub\n        /* \"contracts/token/ERC20/ERC20.sol\":5744:5752  _approve */\n      tag_106\n        /* \"contracts/token/ERC20/ERC20.sol\":5744:5801  _approve(sender, _msgSender(), currentAllowance - amount) */\n      jump\t// in\n    tag_114:\n        /* \"contracts/token/ERC20/ERC20.sol\":5832:5836  true */\n      0x01\n        /* \"contracts/token/ERC20/ERC20.sol\":5825:5836  return true */\n      swap2\n      pop\n      pop\n        /* \"contracts/token/ERC20/ERC20.sol\":5315:5844  function transferFrom(\r... */\n      swap4\n      swap3\n      pop\n      pop\n      pop\n      jump\t// out\n        /* \"contracts/token/ERC20/ERC20.sol\":3271:3370  function decimals() public view virtual override returns (uint8) {\r... */\n    tag_45:\n        /* \"contracts/token/ERC20/ERC20.sol\":3329:3334  uint8 */\n      0x00\n        /* \"contracts/token/ERC20/ERC20.sol\":3354:3362  _decimal */\n      0x04\n      0x00\n      swap1\n      sload\n      swap1\n      0x0100\n      exp\n      swap1\n      div\n      0xff\n      and\n        /* \"contracts/token/ERC20/ERC20.sol\":3347:3362  return _decimal */\n      swap1\n      pop\n        /* \"contracts/token/ERC20/ERC20.sol\":3271:3370  function decimals() public view virtual override returns (uint8) {\r... */\n      swap1\n      jump\t// out\n        /* \"contracts/token/ERC20/ERC20.sol\":6253:6550  function increaseAllowance(address spender, uint256 addedValue)\r... */\n    tag_50:\n        /* \"contracts/token/ERC20/ERC20.sol\":6368:6372  bool */\n      0x00\n        /* \"contracts/token/ERC20/ERC20.sol\":6390:6520  _approve(\r... */\n      tag_118\n        /* \"contracts/token/ERC20/ERC20.sol\":6413:6425  _msgSender() */\n      tag_119\n        /* \"contracts/token/ERC20/ERC20.sol\":6413:6423  _msgSender */\n      tag_88\n        /* \"contracts/token/ERC20/ERC20.sol\":6413:6425  _msgSender() */\n      jump\t// in\n    tag_119:\n        /* \"contracts/token/ERC20/ERC20.sol\":6440:6447  spender */\n      dup5\n        /* \"contracts/token/ERC20/ERC20.sol\":6499:6509  addedValue */\n      dup5\n        /* \"contracts/token/ERC20/ERC20.sol\":6462:6473  _allowances */\n      0x01\n        /* \"contracts/token/ERC20/ERC20.sol\":6462:6487  _allowances[_msgSender()] */\n      0x00\n        /* \"contracts/token/ERC20/ERC20.sol\":6474:6486  _msgSender() */\n      tag_120\n        /* \"contracts/token/ERC20/ERC20.sol\":6474:6484  _msgSender */\n      tag_88\n        /* \"contracts/token/ERC20/ERC20.sol\":6474:6486  _msgSender() */\n      jump\t// in\n    tag_120:\n        /* \"contracts/token/ERC20/ERC20.sol\":6462:6487  _allowances[_msgSender()] */\n      0xffffffffffffffffffffffffffffffffffffffff\n      and\n      0xffffffffffffffffffffffffffffffffffffffff\n      and\n      dup2\n      mstore\n      0x20\n      add\n      swap1\n      dup2\n      mstore\n      0x20\n      add\n      0x00\n      keccak256\n        /* \"contracts/token/ERC20/ERC20.sol\":6462:6496  _allowances[_msgSender()][spender] */\n      0x00\n        /* \"contracts/token/ERC20/ERC20.sol\":6488:6495  spender */\n      dup9\n        /* \"contracts/token/ERC20/ERC20.sol\":6462:6496  _allowances[_msgSender()][spender] */\n      0xffffffffffffffffffffffffffffffffffffffff\n      and\n      0xffffffffffffffffffffffffffffffffffffffff\n      and\n      dup2\n      mstore\n      0x20\n      add\n      swap1\n      dup2\n      mstore\n      0x20\n      add\n      0x00\n      keccak256\n      sload\n        /* \"contracts/token/ERC20/ERC20.sol\":6462:6509  _allowances[_msgSender()][spender] + addedValue */\n      tag_121\n      swap2\n      swap1\n      tag_122\n      jump\t// in\n    tag_121:\n        /* \"contracts/token/ERC20/ERC20.sol\":6390:6398  _approve */\n      tag_106\n        /* \"contracts/token/ERC20/ERC20.sol\":6390:6520  _approve(\r... */\n      jump\t// in\n    tag_118:\n        /* \"contracts/token/ERC20/ERC20.sol\":6538:6542  true */\n      0x01\n        /* \"contracts/token/ERC20/ERC20.sol\":6531:6542  return true */\n      swap1\n      pop\n        /* \"contracts/token/ERC20/ERC20.sol\":6253:6550  function increaseAllowance(address spender, uint256 addedValue)\r... */\n      swap3\n      swap2\n      pop\n      pop\n      jump\t// out\n        /* \"contracts/token/ERC20/ERC20.sol\":3606:3783  function balanceOf(address account)\r... */\n    tag_55:\n        /* \"contracts/token/ERC20/ERC20.sol\":3725:3732  uint256 */\n      0x00\n        /* \"contracts/token/ERC20/ERC20.sol\":3757:3766  _balances */\n      dup1\n        /* \"contracts/token/ERC20/ERC20.sol\":3757:3775  _balances[account] */\n      0x00\n        /* \"contracts/token/ERC20/ERC20.sol\":3767:3774  account */\n      dup4\n        /* \"contracts/token/ERC20/ERC20.sol\":3757:3775  _balances[account] */\n      0xffffffffffffffffffffffffffffffffffffffff\n      and\n      0xffffffffffffffffffffffffffffffffffffffff\n      and\n      dup2\n      mstore\n      0x20\n      add\n      swap1\n      dup2\n      mstore\n      0x20\n      add\n      0x00\n      keccak256\n      sload\n        /* \"contracts/token/ERC20/ERC20.sol\":3750:3775  return _balances[account] */\n      swap1\n      pop\n        /* \"contracts/token/ERC20/ERC20.sol\":3606:3783  function balanceOf(address account)\r... */\n      swap2\n      swap1\n      pop\n      jump\t// out\n        /* \"contracts/access/Ownable.sol\":1721:1824  function renounceOwnership() public virtual onlyOwner {\r... */\n    tag_58:\n        /* \"contracts/access/Ownable.sol\":1301:1313  _msgSender() */\n      tag_125\n        /* \"contracts/access/Ownable.sol\":1301:1311  _msgSender */\n      tag_88\n        /* \"contracts/access/Ownable.sol\":1301:1313  _msgSender() */\n      jump\t// in\n    tag_125:\n        /* \"contracts/access/Ownable.sol\":1290:1313  owner() == _msgSender() */\n      0xffffffffffffffffffffffffffffffffffffffff\n      and\n        /* \"contracts/access/Ownable.sol\":1290:1297  owner() */\n      tag_126\n        /* \"contracts/access/Ownable.sol\":1290:1295  owner */\n      tag_60\n        /* \"contracts/access/Ownable.sol\":1290:1297  owner() */\n      jump\t// in\n    tag_126:\n        /* \"contracts/access/Ownable.sol\":1290:1313  owner() == _msgSender() */\n      0xffffffffffffffffffffffffffffffffffffffff\n      and\n      eq\n        /* \"contracts/access/Ownable.sol\":1282:1350  require(owner() == _msgSender(), \"Ownable: caller is not the owner\") */\n      tag_127\n      jumpi\n      mload(0x40)\n      0x08c379a000000000000000000000000000000000000000000000000000000000\n      dup2\n      mstore\n      0x04\n      add\n      tag_128\n      swap1\n      tag_92\n      jump\t// in\n    tag_128:\n      mload(0x40)\n      dup1\n      swap2\n      sub\n      swap1\n      revert\n    tag_127:\n        /* \"contracts/access/Ownable.sol\":1786:1816  _transferOwnership(address(0)) */\n      tag_130\n        /* \"contracts/access/Ownable.sol\":1813:1814  0 */\n      0x00\n        /* \"contracts/access/Ownable.sol\":1786:1804  _transferOwnership */\n      tag_131\n        /* \"contracts/access/Ownable.sol\":1786:1816  _transferOwnership(address(0)) */\n      jump\t// in\n    tag_130:\n        /* \"contracts/access/Ownable.sol\":1721:1824  function renounceOwnership() public virtual onlyOwner {\r... */\n      jump\t// out\n        /* \"contracts/access/Ownable.sol\":1070:1157  function owner() public view virtual returns (address) {\r... */\n    tag_60:\n        /* \"contracts/access/Ownable.sol\":1116:1123  address */\n      0x00\n        /* \"contracts/access/Ownable.sol\":1143:1149  _owner */\n      0x06\n      0x00\n      swap1\n      sload\n      swap1\n      0x0100\n      exp\n      swap1\n      div\n      0xffffffffffffffffffffffffffffffffffffffff\n      and\n        /* \"contracts/access/Ownable.sol\":1136:1149  return _owner */\n      swap1\n      pop\n        /* \"contracts/access/Ownable.sol\":1070:1157  function owner() public view virtual returns (address) {\r... */\n      swap1\n      jump\t// out\n        /* \"contracts/token/ERC20/ERC20.sol\":2528:2632  function symbol() public view virtual override returns (string memory) {\r... */\n    tag_64:\n        /* \"contracts/token/ERC20/ERC20.sol\":2584:2597  string memory */\n      0x60\n        /* \"contracts/token/ERC20/ERC20.sol\":2617:2624  _symbol */\n      0x03\n        /* \"contracts/token/ERC20/ERC20.sol\":2610:2624  return _symbol */\n      dup1\n      sload\n      tag_134\n      swap1\n      tag_98\n      jump\t// in\n    tag_134:\n      dup1\n      0x1f\n      add\n      0x20\n      dup1\n      swap2\n      div\n      mul\n      0x20\n      add\n      mload(0x40)\n      swap1\n      dup2\n      add\n      0x40\n      mstore\n      dup1\n      swap3\n      swap2\n      swap1\n      dup2\n      dup2\n      mstore\n      0x20\n      add\n      dup3\n      dup1\n      sload\n      tag_135\n      swap1\n      tag_98\n      jump\t// in\n    tag_135:\n      dup1\n      iszero\n      tag_136\n      jumpi\n      dup1\n      0x1f\n      lt\n      tag_137\n      jumpi\n      0x0100\n      dup1\n      dup4\n      sload\n      div\n      mul\n      dup4\n      mstore\n      swap2\n      0x20\n      add\n      swap2\n      jump(tag_136)\n    tag_137:\n      dup3\n      add\n      swap2\n      swap1\n      0x00\n      mstore\n      keccak256(0x00, 0x20)\n      swap1\n    tag_138:\n      dup2\n      sload\n      dup2\n      mstore\n      swap1\n      0x01\n      add\n      swap1\n      0x20\n      add\n      dup1\n      dup4\n      gt\n      tag_138\n      jumpi\n      dup3\n      swap1\n      sub\n      0x1f\n      and\n      dup3\n      add\n      swap2\n    tag_136:\n      pop\n      pop\n      pop\n      pop\n      pop\n      swap1\n      pop\n        /* \"contracts/token/ERC20/ERC20.sol\":2528:2632  function symbol() public view virtual override returns (string memory) {\r... */\n      swap1\n      jump\t// out\n        /* \"contracts/MintToken.sol\":315:408  function mint(uint256 amount) public onlyOwner {\r... */\n    tag_69:\n        /* \"contracts/access/Ownable.sol\":1301:1313  _msgSender() */\n      tag_140\n        /* \"contracts/access/Ownable.sol\":1301:1311  _msgSender */\n      tag_88\n        /* \"contracts/access/Ownable.sol\":1301:1313  _msgSender() */\n      jump\t// in\n    tag_140:\n        /* \"contracts/access/Ownable.sol\":1290:1313  owner() == _msgSender() */\n      0xffffffffffffffffffffffffffffffffffffffff\n      and\n        /* \"contracts/access/Ownable.sol\":1290:1297  owner() */\n      tag_141\n        /* \"contracts/access/Ownable.sol\":1290:1295  owner */\n      tag_60\n        /* \"contracts/access/Ownable.sol\":1290:1297  owner() */\n      jump\t// in\n    tag_141:\n        /* \"contracts/access/Ownable.sol\":1290:1313  owner() == _msgSender() */\n      0xffffffffffffffffffffffffffffffffffffffff\n      and\n      eq\n        /* \"contracts/access/Ownable.sol\":1282:1350  require(owner() == _msgSender(), \"Ownable: caller is not the owner\") */\n      tag_142\n      jumpi\n      mload(0x40)\n      0x08c379a000000000000000000000000000000000000000000000000000000000\n      dup2\n      mstore\n      0x04\n      add\n      tag_143\n      swap1\n      tag_92\n      jump\t// in\n    tag_143:\n      mload(0x40)\n      dup1\n      swap2\n      sub\n      swap1\n      revert\n    tag_142:\n        /* \"contracts/MintToken.sol\":373:400  _mint(_msgSender(), amount) */\n      tag_145\n        /* \"contracts/MintToken.sol\":379:391  _msgSender() */\n      tag_146\n        /* \"contracts/MintToken.sol\":379:389  _msgSender */\n      tag_88\n        /* \"contracts/MintToken.sol\":379:391  _msgSender() */\n      jump\t// in\n    tag_146:\n        /* \"contracts/MintToken.sol\":393:399  amount */\n      dup3\n        /* \"contracts/MintToken.sol\":373:378  _mint */\n      tag_147\n        /* \"contracts/MintToken.sol\":373:400  _mint(_msgSender(), amount) */\n      jump\t// in\n    tag_145:\n        /* \"contracts/MintToken.sol\":315:408  function mint(uint256 amount) public onlyOwner {\r... */\n      pop\n      jump\t// out\n        /* \"contracts/token/ERC20/ERC20.sol\":7053:7535  function decreaseAllowance(address spender, uint256 subtractedValue)\r... */\n    tag_72:\n        /* \"contracts/token/ERC20/ERC20.sol\":7173:7177  bool */\n      0x00\n        /* \"contracts/token/ERC20/ERC20.sol\":7195:7219  uint256 currentAllowance */\n      dup1\n        /* \"contracts/token/ERC20/ERC20.sol\":7222:7233  _allowances */\n      0x01\n        /* \"contracts/token/ERC20/ERC20.sol\":7222:7247  _allowances[_msgSender()] */\n      0x00\n        /* \"contracts/token/ERC20/ERC20.sol\":7234:7246  _msgSender() */\n      tag_149\n        /* \"contracts/token/ERC20/ERC20.sol\":7234:7244  _msgSender */\n      tag_88\n        /* \"contracts/token/ERC20/ERC20.sol\":7234:7246  _msgSender() */\n      jump\t// in\n    tag_149:\n        /* \"contracts/token/ERC20/ERC20.sol\":7222:7247  _allowances[_msgSender()] */\n      0xffffffffffffffffffffffffffffffffffffffff\n      and\n      0xffffffffffffffffffffffffffffffffffffffff\n      and\n      dup2\n      mstore\n      0x20\n      add\n      swap1\n      dup2\n      mstore\n      0x20\n      add\n      0x00\n      keccak256\n        /* \"contracts/token/ERC20/ERC20.sol\":7222:7256  _allowances[_msgSender()][spender] */\n      0x00\n        /* \"contracts/token/ERC20/ERC20.sol\":7248:7255  spender */\n      dup6\n        /* \"contracts/token/ERC20/ERC20.sol\":7222:7256  _allowances[_msgSender()][spender] */\n      0xffffffffffffffffffffffffffffffffffffffff\n      and\n      0xffffffffffffffffffffffffffffffffffffffff\n      and\n      dup2\n      mstore\n      0x20\n      add\n      swap1\n      dup2\n      mstore\n      0x20\n      add\n      0x00\n      keccak256\n      sload\n        /* \"contracts/token/ERC20/ERC20.sol\":7195:7256  uint256 currentAllowance = _allowances[_msgSender()][spender] */\n      swap1\n      pop\n        /* \"contracts/token/ERC20/ERC20.sol\":7309:7324  subtractedValue */\n      dup3\n        /* \"contracts/token/ERC20/ERC20.sol\":7289:7305  currentAllowance */\n      dup2\n        /* \"contracts/token/ERC20/ERC20.sol\":7289:7324  currentAllowance >= subtractedValue */\n      lt\n      iszero\n        /* \"contracts/token/ERC20/ERC20.sol\":7267:7389  require(\r... */\n      tag_150\n      jumpi\n      mload(0x40)\n      0x08c379a000000000000000000000000000000000000000000000000000000000\n      dup2\n      mstore\n      0x04\n      add\n      tag_151\n      swap1\n      tag_152\n      jump\t// in\n    tag_151:\n      mload(0x40)\n      dup1\n      swap2\n      sub\n      swap1\n      revert\n    tag_150:\n        /* \"contracts/token/ERC20/ERC20.sol\":7425:7492  _approve(_msgSender(), spender, currentAllowance - subtractedValue) */\n      tag_153\n        /* \"contracts/token/ERC20/ERC20.sol\":7434:7446  _msgSender() */\n      tag_154\n        /* \"contracts/token/ERC20/ERC20.sol\":7434:7444  _msgSender */\n      tag_88\n        /* \"contracts/token/ERC20/ERC20.sol\":7434:7446  _msgSender() */\n      jump\t// in\n    tag_154:\n        /* \"contracts/token/ERC20/ERC20.sol\":7448:7455  spender */\n      dup6\n        /* \"contracts/token/ERC20/ERC20.sol\":7476:7491  subtractedValue */\n      dup6\n        /* \"contracts/token/ERC20/ERC20.sol\":7457:7473  currentAllowance */\n      dup5\n        /* \"contracts/token/ERC20/ERC20.sol\":7457:7491  currentAllowance - subtractedValue */\n      sub\n        /* \"contracts/token/ERC20/ERC20.sol\":7425:7433  _approve */\n      tag_106\n        /* \"contracts/token/ERC20/ERC20.sol\":7425:7492  _approve(_msgSender(), spender, currentAllowance - subtractedValue) */\n      jump\t// in\n    tag_153:\n        /* \"contracts/token/ERC20/ERC20.sol\":7523:7527  true */\n      0x01\n        /* \"contracts/token/ERC20/ERC20.sol\":7516:7527  return true */\n      swap2\n      pop\n      pop\n        /* \"contracts/token/ERC20/ERC20.sol\":7053:7535  function decreaseAllowance(address spender, uint256 subtractedValue)\r... */\n      swap3\n      swap2\n      pop\n      pop\n      jump\t// out\n        /* \"contracts/token/ERC20/ERC20.sol\":3996:4212  function transfer(address recipient, uint256 amount)\r... */\n    tag_76:\n        /* \"contracts/token/ERC20/ERC20.sol\":4118:4122  bool */\n      0x00\n        /* \"contracts/token/ERC20/ERC20.sol\":4140:4182  _transfer(_msgSender(), recipient, amount) */\n      tag_156\n        /* \"contracts/token/ERC20/ERC20.sol\":4150:4162  _msgSender() */\n      tag_157\n        /* \"contracts/token/ERC20/ERC20.sol\":4150:4160  _msgSender */\n      tag_88\n        /* \"contracts/token/ERC20/ERC20.sol\":4150:4162  _msgSender() */\n      jump\t// in\n    tag_157:\n        /* \"contracts/token/ERC20/ERC20.sol\":4164:4173  recipient */\n      dup5\n        /* \"contracts/token/ERC20/ERC20.sol\":4175:4181  amount */\n      dup5\n        /* \"contracts/token/ERC20/ERC20.sol\":4140:4149  _transfer */\n      tag_95\n        /* \"contracts/token/ERC20/ERC20.sol\":4140:4182  _transfer(_msgSender(), recipient, amount) */\n      jump\t// in\n    tag_156:\n        /* \"contracts/token/ERC20/ERC20.sol\":4200:4204  true */\n      0x01\n        /* \"contracts/token/ERC20/ERC20.sol\":4193:4204  return true */\n      swap1\n      pop\n        /* \"contracts/token/ERC20/ERC20.sol\":3996:4212  function transfer(address recipient, uint256 amount)\r... */\n      swap3\n      swap2\n      pop\n      pop\n      jump\t// out\n        /* \"contracts/token/ERC20/ERC20.sol\":4275:4476  function allowance(address owner, address spender)\r... */\n    tag_81:\n        /* \"contracts/token/ERC20/ERC20.sol\":4409:4416  uint256 */\n      0x00\n        /* \"contracts/token/ERC20/ERC20.sol\":4441:4452  _allowances */\n      0x01\n        /* \"contracts/token/ERC20/ERC20.sol\":4441:4459  _allowances[owner] */\n      0x00\n        /* \"contracts/token/ERC20/ERC20.sol\":4453:4458  owner */\n      dup5\n        /* \"contracts/token/ERC20/ERC20.sol\":4441:4459  _allowances[owner] */\n      0xffffffffffffffffffffffffffffffffffffffff\n      and\n      0xffffffffffffffffffffffffffffffffffffffff\n      and\n      dup2\n      mstore\n      0x20\n      add\n      swap1\n      dup2\n      mstore\n      0x20\n      add\n      0x00\n      keccak256\n        /* \"contracts/token/ERC20/ERC20.sol\":4441:4468  _allowances[owner][spender] */\n      0x00\n        /* \"contracts/token/ERC20/ERC20.sol\":4460:4467  spender */\n      dup4\n        /* \"contracts/token/ERC20/ERC20.sol\":4441:4468  _allowances[owner][spender] */\n      0xffffffffffffffffffffffffffffffffffffffff\n      and\n      0xffffffffffffffffffffffffffffffffffffffff\n      and\n      dup2\n      mstore\n      0x20\n      add\n      swap1\n      dup2\n      mstore\n      0x20\n      add\n      0x00\n      keccak256\n      sload\n        /* \"contracts/token/ERC20/ERC20.sol\":4434:4468  return _allowances[owner][spender] */\n      swap1\n      pop\n        /* \"contracts/token/ERC20/ERC20.sol\":4275:4476  function allowance(address owner, address spender)\r... */\n      swap3\n      swap2\n      pop\n      pop\n      jump\t// out\n        /* \"contracts/access/Ownable.sol\":1979:2180  function transferOwnership(address newOwner) public virtual onlyOwner {\r... */\n    tag_85:\n        /* \"contracts/access/Ownable.sol\":1301:1313  _msgSender() */\n      tag_160\n        /* \"contracts/access/Ownable.sol\":1301:1311  _msgSender */\n      tag_88\n        /* \"contracts/access/Ownable.sol\":1301:1313  _msgSender() */\n      jump\t// in\n    tag_160:\n        /* \"contracts/access/Ownable.sol\":1290:1313  owner() == _msgSender() */\n      0xffffffffffffffffffffffffffffffffffffffff\n      and\n        /* \"contracts/access/Ownable.sol\":1290:1297  owner() */\n      tag_161\n        /* \"contracts/access/Ownable.sol\":1290:1295  owner */\n      tag_60\n        /* \"contracts/access/Ownable.sol\":1290:1297  owner() */\n      jump\t// in\n    tag_161:\n        /* \"contracts/access/Ownable.sol\":1290:1313  owner() == _msgSender() */\n      0xffffffffffffffffffffffffffffffffffffffff\n      and\n      eq\n        /* \"contracts/access/Ownable.sol\":1282:1350  require(owner() == _msgSender(), \"Ownable: caller is not the owner\") */\n      tag_162\n      jumpi\n      mload(0x40)\n      0x08c379a000000000000000000000000000000000000000000000000000000000\n      dup2\n      mstore\n      0x04\n      add\n      tag_163\n      swap1\n      tag_92\n      jump\t// in\n    tag_163:\n      mload(0x40)\n      dup1\n      swap2\n      sub\n      swap1\n      revert\n    tag_162:\n        /* \"contracts/access/Ownable.sol\":2088:2089  0 */\n      0x00\n        /* \"contracts/access/Ownable.sol\":2068:2090  newOwner != address(0) */\n      0xffffffffffffffffffffffffffffffffffffffff\n      and\n        /* \"contracts/access/Ownable.sol\":2068:2076  newOwner */\n      dup2\n        /* \"contracts/access/Ownable.sol\":2068:2090  newOwner != address(0) */\n      0xffffffffffffffffffffffffffffffffffffffff\n      and\n      eq\n      iszero\n        /* \"contracts/access/Ownable.sol\":2060:2133  require(newOwner != address(0), \"Ownable: new owner is the zero address\") */\n      tag_165\n      jumpi\n      mload(0x40)\n      0x08c379a000000000000000000000000000000000000000000000000000000000\n      dup2\n      mstore\n      0x04\n      add\n      tag_166\n      swap1\n      tag_167\n      jump\t// in\n    tag_166:\n      mload(0x40)\n      dup1\n      swap2\n      sub\n      swap1\n      revert\n    tag_165:\n        /* \"contracts/access/Ownable.sol\":2144:2172  _transferOwnership(newOwner) */\n      tag_168\n        /* \"contracts/access/Ownable.sol\":2163:2171  newOwner */\n      dup2\n        /* \"contracts/access/Ownable.sol\":2144:2162  _transferOwnership */\n      tag_131\n        /* \"contracts/access/Ownable.sol\":2144:2172  _transferOwnership(newOwner) */\n      jump\t// in\n    tag_168:\n        /* \"contracts/access/Ownable.sol\":1979:2180  function transferOwnership(address newOwner) public virtual onlyOwner {\r... */\n      pop\n      jump\t// out\n        /* \"contracts/utils/Context.sol\":656:754  function _msgSender() internal view virtual returns (address) {\r... */\n    tag_88:\n        /* \"contracts/utils/Context.sol\":709:716  address */\n      0x00\n        /* \"contracts/utils/Context.sol\":736:746  msg.sender */\n      caller\n        /* \"contracts/utils/Context.sol\":729:746  return msg.sender */\n      swap1\n      pop\n        /* \"contracts/utils/Context.sol\":656:754  function _msgSender() internal view virtual returns (address) {\r... */\n      swap1\n      jump\t// out\n        /* \"contracts/token/ERC20/ERC20.sol\":8025:8795  function _transfer(\r... */\n    tag_95:\n        /* \"contracts/token/ERC20/ERC20.sol\":8183:8184  0 */\n      0x00\n        /* \"contracts/token/ERC20/ERC20.sol\":8165:8185  sender != address(0) */\n      0xffffffffffffffffffffffffffffffffffffffff\n      and\n        /* \"contracts/token/ERC20/ERC20.sol\":8165:8171  sender */\n      dup4\n        /* \"contracts/token/ERC20/ERC20.sol\":8165:8185  sender != address(0) */\n      0xffffffffffffffffffffffffffffffffffffffff\n      and\n      eq\n      iszero\n        /* \"contracts/token/ERC20/ERC20.sol\":8157:8227  require(sender != address(0), \"ERC20: transfer from the zero address\") */\n      tag_171\n      jumpi\n      mload(0x40)\n      0x08c379a000000000000000000000000000000000000000000000000000000000\n      dup2\n      mstore\n      0x04\n      add\n      tag_172\n      swap1\n      tag_173\n      jump\t// in\n    tag_172:\n      mload(0x40)\n      dup1\n      swap2\n      sub\n      swap1\n      revert\n    tag_171:\n        /* \"contracts/token/ERC20/ERC20.sol\":8267:8268  0 */\n      0x00\n        /* \"contracts/token/ERC20/ERC20.sol\":8246:8269  recipient != address(0) */\n      0xffffffffffffffffffffffffffffffffffffffff\n      and\n        /* \"contracts/token/ERC20/ERC20.sol\":8246:8255  recipient */\n      dup3\n        /* \"contracts/token/ERC20/ERC20.sol\":8246:8269  recipient != address(0) */\n      0xffffffffffffffffffffffffffffffffffffffff\n      and\n      eq\n      iszero\n        /* \"contracts/token/ERC20/ERC20.sol\":8238:8309  require(recipient != address(0), \"ERC20: transfer to the zero address\") */\n      tag_174\n      jumpi\n      mload(0x40)\n      0x08c379a000000000000000000000000000000000000000000000000000000000\n      dup2\n      mstore\n      0x04\n      add\n      tag_175\n      swap1\n      tag_176\n      jump\t// in\n    tag_175:\n      mload(0x40)\n      dup1\n      swap2\n      sub\n      swap1\n      revert\n    tag_174:\n        /* \"contracts/token/ERC20/ERC20.sol\":8322:8369  _beforeTokenTransfer(sender, recipient, amount) */\n      tag_177\n        /* \"contracts/token/ERC20/ERC20.sol\":8343:8349  sender */\n      dup4\n        /* \"contracts/token/ERC20/ERC20.sol\":8351:8360  recipient */\n      dup4\n        /* \"contracts/token/ERC20/ERC20.sol\":8362:8368  amount */\n      dup4\n        /* \"contracts/token/ERC20/ERC20.sol\":8322:8342  _beforeTokenTransfer */\n      tag_178\n        /* \"contracts/token/ERC20/ERC20.sol\":8322:8369  _beforeTokenTransfer(sender, recipient, amount) */\n      jump\t// in\n    tag_177:\n        /* \"contracts/token/ERC20/ERC20.sol\":8382:8403  uint256 senderBalance */\n      0x00\n        /* \"contracts/token/ERC20/ERC20.sol\":8406:8415  _balances */\n      dup1\n        /* \"contracts/token/ERC20/ERC20.sol\":8406:8423  _balances[sender] */\n      0x00\n        /* \"contracts/token/ERC20/ERC20.sol\":8416:8422  sender */\n      dup6\n        /* \"contracts/token/ERC20/ERC20.sol\":8406:8423  _balances[sender] */\n      0xffffffffffffffffffffffffffffffffffffffff\n      and\n      0xffffffffffffffffffffffffffffffffffffffff\n      and\n      dup2\n      mstore\n      0x20\n      add\n      swap1\n      dup2\n      mstore\n      0x20\n      add\n      0x00\n      keccak256\n      sload\n        /* \"contracts/token/ERC20/ERC20.sol\":8382:8423  uint256 senderBalance = _balances[sender] */\n      swap1\n      pop\n        /* \"contracts/token/ERC20/ERC20.sol\":8473:8479  amount */\n      dup2\n        /* \"contracts/token/ERC20/ERC20.sol\":8456:8469  senderBalance */\n      dup2\n        /* \"contracts/token/ERC20/ERC20.sol\":8456:8479  senderBalance >= amount */\n      lt\n      iszero\n        /* \"contracts/token/ERC20/ERC20.sol\":8434:8545  require(\r... */\n      tag_179\n      jumpi\n      mload(0x40)\n      0x08c379a000000000000000000000000000000000000000000000000000000000\n      dup2\n      mstore\n      0x04\n      add\n      tag_180\n      swap1\n      tag_181\n      jump\t// in\n    tag_180:\n      mload(0x40)\n      dup1\n      swap2\n      sub\n      swap1\n      revert\n    tag_179:\n        /* \"contracts/token/ERC20/ERC20.sol\":8617:8623  amount */\n      dup2\n        /* \"contracts/token/ERC20/ERC20.sol\":8601:8614  senderBalance */\n      dup2\n        /* \"contracts/token/ERC20/ERC20.sol\":8601:8623  senderBalance - amount */\n      sub\n        /* \"contracts/token/ERC20/ERC20.sol\":8581:8590  _balances */\n      0x00\n        /* \"contracts/token/ERC20/ERC20.sol\":8581:8598  _balances[sender] */\n      dup1\n        /* \"contracts/token/ERC20/ERC20.sol\":8591:8597  sender */\n      dup7\n        /* \"contracts/token/ERC20/ERC20.sol\":8581:8598  _balances[sender] */\n      0xffffffffffffffffffffffffffffffffffffffff\n      and\n      0xffffffffffffffffffffffffffffffffffffffff\n      and\n      dup2\n      mstore\n      0x20\n      add\n      swap1\n      dup2\n      mstore\n      0x20\n      add\n      0x00\n      keccak256\n        /* \"contracts/token/ERC20/ERC20.sol\":8581:8623  _balances[sender] = senderBalance - amount */\n      dup2\n      swap1\n      sstore\n      pop\n        /* \"contracts/token/ERC20/ERC20.sol\":8669:8675  amount */\n      dup2\n        /* \"contracts/token/ERC20/ERC20.sol\":8645:8654  _balances */\n      0x00\n        /* \"contracts/token/ERC20/ERC20.sol\":8645:8665  _balances[recipient] */\n      dup1\n        /* \"contracts/token/ERC20/ERC20.sol\":8655:8664  recipient */\n      dup6\n        /* \"contracts/token/ERC20/ERC20.sol\":8645:8665  _balances[recipient] */\n      0xffffffffffffffffffffffffffffffffffffffff\n      and\n      0xffffffffffffffffffffffffffffffffffffffff\n      and\n      dup2\n      mstore\n      0x20\n      add\n      swap1\n      dup2\n      mstore\n      0x20\n      add\n      0x00\n      keccak256\n      0x00\n        /* \"contracts/token/ERC20/ERC20.sol\":8645:8675  _balances[recipient] += amount */\n      dup3\n      dup3\n      sload\n      tag_182\n      swap2\n      swap1\n      tag_122\n      jump\t// in\n    tag_182:\n      swap3\n      pop\n      pop\n      dup2\n      swap1\n      sstore\n      pop\n        /* \"contracts/token/ERC20/ERC20.sol\":8710:8719  recipient */\n      dup3\n        /* \"contracts/token/ERC20/ERC20.sol\":8693:8728  Transfer(sender, recipient, amount) */\n      0xffffffffffffffffffffffffffffffffffffffff\n      and\n        /* \"contracts/token/ERC20/ERC20.sol\":8702:8708  sender */\n      dup5\n        /* \"contracts/token/ERC20/ERC20.sol\":8693:8728  Transfer(sender, recipient, amount) */\n      0xffffffffffffffffffffffffffffffffffffffff\n      and\n      0xddf252ad1be2c89b69c2b068fc378daa952ba7f163c4a11628f55a4df523b3ef\n        /* \"contracts/token/ERC20/ERC20.sol\":8721:8727  amount */\n      dup5\n        /* \"contracts/token/ERC20/ERC20.sol\":8693:8728  Transfer(sender, recipient, amount) */\n      mload(0x40)\n      tag_183\n      swap2\n      swap1\n      tag_39\n      jump\t// in\n    tag_183:\n      mload(0x40)\n      dup1\n      swap2\n      sub\n      swap1\n      log3\n        /* \"contracts/token/ERC20/ERC20.sol\":8741:8787  _afterTokenTransfer(sender, recipient, amount) */\n      tag_184\n        /* \"contracts/token/ERC20/ERC20.sol\":8761:8767  sender */\n      dup5\n        /* \"contracts/token/ERC20/ERC20.sol\":8769:8778  recipient */\n      dup5\n        /* \"contracts/token/ERC20/ERC20.sol\":8780:8786  amount */\n      dup5\n        /* \"contracts/token/ERC20/ERC20.sol\":8741:8760  _afterTokenTransfer */\n      tag_185\n        /* \"contracts/token/ERC20/ERC20.sol\":8741:8787  _afterTokenTransfer(sender, recipient, amount) */\n      jump\t// in\n    tag_184:\n        /* \"contracts/token/ERC20/ERC20.sol\":8025:8795  function _transfer(\r... */\n      pop\n      pop\n      pop\n      pop\n      jump\t// out\n        /* \"contracts/token/ERC20/ERC20.sol\":10843:11223  function _approve(\r... */\n    tag_106:\n        /* \"contracts/token/ERC20/ERC20.sol\":10996:10997  0 */\n      0x00\n        /* \"contracts/token/ERC20/ERC20.sol\":10979:10998  owner != address(0) */\n      0xffffffffffffffffffffffffffffffffffffffff\n      and\n        /* \"contracts/token/ERC20/ERC20.sol\":10979:10984  owner */\n      dup4\n        /* \"contracts/token/ERC20/ERC20.sol\":10979:10998  owner != address(0) */\n      0xffffffffffffffffffffffffffffffffffffffff\n      and\n      eq\n      iszero\n        /* \"contracts/token/ERC20/ERC20.sol\":10971:11039  require(owner != address(0), \"ERC20: approve from the zero address\") */\n      tag_187\n      jumpi\n      mload(0x40)\n      0x08c379a000000000000000000000000000000000000000000000000000000000\n      dup2\n      mstore\n      0x04\n      add\n      tag_188\n      swap1\n      tag_189\n      jump\t// in\n    tag_188:\n      mload(0x40)\n      dup1\n      swap2\n      sub\n      swap1\n      revert\n    tag_187:\n        /* \"contracts/token/ERC20/ERC20.sol\":11077:11078  0 */\n      0x00\n        /* \"contracts/token/ERC20/ERC20.sol\":11058:11079  spender != address(0) */\n      0xffffffffffffffffffffffffffffffffffffffff\n      and\n        /* \"contracts/token/ERC20/ERC20.sol\":11058:11065  spender */\n      dup3\n        /* \"contracts/token/ERC20/ERC20.sol\":11058:11079  spender != address(0) */\n      0xffffffffffffffffffffffffffffffffffffffff\n      and\n      eq\n      iszero\n        /* \"contracts/token/ERC20/ERC20.sol\":11050:11118  require(spender != address(0), \"ERC20: approve to the zero address\") */\n      tag_190\n      jumpi\n      mload(0x40)\n      0x08c379a000000000000000000000000000000000000000000000000000000000\n      dup2\n      mstore\n      0x04\n      add\n      tag_191\n      swap1\n      tag_192\n      jump\t// in\n    tag_191:\n      mload(0x40)\n      dup1\n      swap2\n      sub\n      swap1\n      revert\n    tag_190:\n        /* \"contracts/token/ERC20/ERC20.sol\":11161:11167  amount */\n      dup1\n        /* \"contracts/token/ERC20/ERC20.sol\":11131:11142  _allowances */\n      0x01\n        /* \"contracts/token/ERC20/ERC20.sol\":11131:11149  _allowances[owner] */\n      0x00\n        /* \"contracts/token/ERC20/ERC20.sol\":11143:11148  owner */\n      dup6\n        /* \"contracts/token/ERC20/ERC20.sol\":11131:11149  _allowances[owner] */\n      0xffffffffffffffffffffffffffffffffffffffff\n      and\n      0xffffffffffffffffffffffffffffffffffffffff\n      and\n      dup2\n      mstore\n      0x20\n      add\n      swap1\n      dup2\n      mstore\n      0x20\n      add\n      0x00\n      keccak256\n        /* \"contracts/token/ERC20/ERC20.sol\":11131:11158  _allowances[owner][spender] */\n      0x00\n        /* \"contracts/token/ERC20/ERC20.sol\":11150:11157  spender */\n      dup5\n        /* \"contracts/token/ERC20/ERC20.sol\":11131:11158  _allowances[owner][spender] */\n      0xffffffffffffffffffffffffffffffffffffffff\n      and\n      0xffffffffffffffffffffffffffffffffffffffff\n      and\n      dup2\n      mstore\n      0x20\n      add\n      swap1\n      dup2\n      mstore\n      0x20\n      add\n      0x00\n      keccak256\n        /* \"contracts/token/ERC20/ERC20.sol\":11131:11167  _allowances[owner][spender] = amount */\n      dup2\n      swap1\n      sstore\n      pop\n        /* \"contracts/token/ERC20/ERC20.sol\":11199:11206  spender */\n      dup2\n        /* \"contracts/token/ERC20/ERC20.sol\":11183:11215  Approval(owner, spender, amount) */\n      0xffffffffffffffffffffffffffffffffffffffff\n      and\n        /* \"contracts/token/ERC20/ERC20.sol\":11192:11197  owner */\n      dup4\n        /* \"contracts/token/ERC20/ERC20.sol\":11183:11215  Approval(owner, spender, amount) */\n      0xffffffffffffffffffffffffffffffffffffffff\n      and\n      0x8c5be1e5ebec7d5bd14f71427d1e84f3dd0314c0f7b2291e5b200ac8c7c3b925\n        /* \"contracts/token/ERC20/ERC20.sol\":11208:11214  amount */\n      dup4\n        /* \"contracts/token/ERC20/ERC20.sol\":11183:11215  Approval(owner, spender, amount) */\n      mload(0x40)\n      tag_193\n      swap2\n      swap1\n      tag_39\n      jump\t// in\n    tag_193:\n      mload(0x40)\n      dup1\n      swap2\n      sub\n      swap1\n      log3\n        /* \"contracts/token/ERC20/ERC20.sol\":10843:11223  function _approve(\r... */\n      pop\n      pop\n      pop\n      jump\t// out\n        /* \"contracts/access/Ownable.sol\":2340:2531  function _transferOwnership(address newOwner) internal virtual {\r... */\n    tag_131:\n        /* \"contracts/access/Ownable.sol\":2414:2430  address oldOwner */\n      0x00\n        /* \"contracts/access/Ownable.sol\":2433:2439  _owner */\n      0x06\n      0x00\n      swap1\n      sload\n      swap1\n      0x0100\n      exp\n      swap1\n      div\n      0xffffffffffffffffffffffffffffffffffffffff\n      and\n        /* \"contracts/access/Ownable.sol\":2414:2439  address oldOwner = _owner */\n      swap1\n      pop\n        /* \"contracts/access/Ownable.sol\":2459:2467  newOwner */\n      dup2\n        /* \"contracts/access/Ownable.sol\":2450:2456  _owner */\n      0x06\n      0x00\n        /* \"contracts/access/Ownable.sol\":2450:2467  _owner = newOwner */\n      0x0100\n      exp\n      dup2\n      sload\n      dup2\n      0xffffffffffffffffffffffffffffffffffffffff\n      mul\n      not\n      and\n      swap1\n      dup4\n      0xffffffffffffffffffffffffffffffffffffffff\n      and\n      mul\n      or\n      swap1\n      sstore\n      pop\n        /* \"contracts/access/Ownable.sol\":2514:2522  newOwner */\n      dup2\n        /* \"contracts/access/Ownable.sol\":2483:2523  OwnershipTransferred(oldOwner, newOwner) */\n      0xffffffffffffffffffffffffffffffffffffffff\n      and\n        /* \"contracts/access/Ownable.sol\":2504:2512  oldOwner */\n      dup2\n        /* \"contracts/access/Ownable.sol\":2483:2523  OwnershipTransferred(oldOwner, newOwner) */\n      0xffffffffffffffffffffffffffffffffffffffff\n      and\n      0x8be0079c531659141344cd1fd0a4f28419497f9722a3daafe3b4186f6b6457e0\n      mload(0x40)\n      mload(0x40)\n      dup1\n      swap2\n      sub\n      swap1\n      log3\n        /* \"contracts/access/Ownable.sol\":2340:2531  function _transferOwnership(address newOwner) internal virtual {\r... */\n      pop\n      pop\n      jump\t// out\n        /* \"contracts/token/ERC20/ERC20.sol\":9082:9481  function _mint(address account, uint256 amount) internal virtual {\r... */\n    tag_147:\n        /* \"contracts/token/ERC20/ERC20.sol\":9185:9186  0 */\n      0x00\n        /* \"contracts/token/ERC20/ERC20.sol\":9166:9187  account != address(0) */\n      0xffffffffffffffffffffffffffffffffffffffff\n      and\n        /* \"contracts/token/ERC20/ERC20.sol\":9166:9173  account */\n      dup3\n        /* \"contracts/token/ERC20/ERC20.sol\":9166:9187  account != address(0) */\n      0xffffffffffffffffffffffffffffffffffffffff\n      and\n      eq\n      iszero\n        /* \"contracts/token/ERC20/ERC20.sol\":9158:9223  require(account != address(0), \"ERC20: mint to the zero address\") */\n      tag_196\n      jumpi\n      mload(0x40)\n      0x08c379a000000000000000000000000000000000000000000000000000000000\n      dup2\n      mstore\n      0x04\n      add\n      tag_197\n      swap1\n      tag_198\n      jump\t// in\n    tag_197:\n      mload(0x40)\n      dup1\n      swap2\n      sub\n      swap1\n      revert\n    tag_196:\n        /* \"contracts/token/ERC20/ERC20.sol\":9236:9285  _beforeTokenTransfer(address(0), account, amount) */\n      tag_199\n        /* \"contracts/token/ERC20/ERC20.sol\":9265:9266  0 */\n      0x00\n        /* \"contracts/token/ERC20/ERC20.sol\":9269:9276  account */\n      dup4\n        /* \"contracts/token/ERC20/ERC20.sol\":9278:9284  amount */\n      dup4\n        /* \"contracts/token/ERC20/ERC20.sol\":9236:9256  _beforeTokenTransfer */\n      tag_178\n        /* \"contracts/token/ERC20/ERC20.sol\":9236:9285  _beforeTokenTransfer(address(0), account, amount) */\n      jump\t// in\n    tag_199:\n        /* \"contracts/token/ERC20/ERC20.sol\":9314:9320  amount */\n      dup1\n        /* \"contracts/token/ERC20/ERC20.sol\":9298:9310  _totalSupply */\n      0x05\n      0x00\n        /* \"contracts/token/ERC20/ERC20.sol\":9298:9320  _totalSupply += amount */\n      dup3\n      dup3\n      sload\n      tag_200\n      swap2\n      swap1\n      tag_122\n      jump\t// in\n    tag_200:\n      swap3\n      pop\n      pop\n      dup2\n      swap1\n      sstore\n      pop\n        /* \"contracts/token/ERC20/ERC20.sol\":9353:9359  amount */\n      dup1\n        /* \"contracts/token/ERC20/ERC20.sol\":9331:9340  _balances */\n      0x00\n        /* \"contracts/token/ERC20/ERC20.sol\":9331:9349  _balances[account] */\n      dup1\n        /* \"contracts/token/ERC20/ERC20.sol\":9341:9348  account */\n      dup5\n        /* \"contracts/token/ERC20/ERC20.sol\":9331:9349  _balances[account] */\n      0xffffffffffffffffffffffffffffffffffffffff\n      and\n      0xffffffffffffffffffffffffffffffffffffffff\n      and\n      dup2\n      mstore\n      0x20\n      add\n      swap1\n      dup2\n      mstore\n      0x20\n      add\n      0x00\n      keccak256\n      0x00\n        /* \"contracts/token/ERC20/ERC20.sol\":9331:9359  _balances[account] += amount */\n      dup3\n      dup3\n      sload\n      tag_201\n      swap2\n      swap1\n      tag_122\n      jump\t// in\n    tag_201:\n      swap3\n      pop\n      pop\n      dup2\n      swap1\n      sstore\n      pop\n        /* \"contracts/token/ERC20/ERC20.sol\":9396:9403  account */\n      dup2\n        /* \"contracts/token/ERC20/ERC20.sol\":9375:9412  Transfer(address(0), account, amount) */\n      0xffffffffffffffffffffffffffffffffffffffff\n      and\n        /* \"contracts/token/ERC20/ERC20.sol\":9392:9393  0 */\n      0x00\n        /* \"contracts/token/ERC20/ERC20.sol\":9375:9412  Transfer(address(0), account, amount) */\n      0xffffffffffffffffffffffffffffffffffffffff\n      and\n      0xddf252ad1be2c89b69c2b068fc378daa952ba7f163c4a11628f55a4df523b3ef\n        /* \"contracts/token/ERC20/ERC20.sol\":9405:9411  amount */\n      dup4\n        /* \"contracts/token/ERC20/ERC20.sol\":9375:9412  Transfer(address(0), account, amount) */\n      mload(0x40)\n      tag_202\n      swap2\n      swap1\n      tag_39\n      jump\t// in\n    tag_202:\n      mload(0x40)\n      dup1\n      swap2\n      sub\n      swap1\n      log3\n        /* \"contracts/token/ERC20/ERC20.sol\":9425:9473  _afterTokenTransfer(address(0), account, amount) */\n      tag_203\n        /* \"contracts/token/ERC20/ERC20.sol\":9453:9454  0 */\n      0x00\n        /* \"contracts/token/ERC20/ERC20.sol\":9457:9464  account */\n      dup4\n        /* \"contracts/token/ERC20/ERC20.sol\":9466:9472  amount */\n      dup4\n        /* \"contracts/token/ERC20/ERC20.sol\":9425:9444  _afterTokenTransfer */\n      tag_185\n        /* \"contracts/token/ERC20/ERC20.sol\":9425:9473  _afterTokenTransfer(address(0), account, amount) */\n      jump\t// in\n    tag_203:\n        /* \"contracts/token/ERC20/ERC20.sol\":9082:9481  function _mint(address account, uint256 amount) internal virtual {\r... */\n      pop\n      pop\n      jump\t// out\n        /* \"contracts/token/ERC20/ERC20.sol\":11823:11948  function _beforeTokenTransfer(\r... */\n    tag_178:\n      pop\n      pop\n      pop\n      jump\t// out\n        /* \"contracts/token/ERC20/ERC20.sol\":12552:12676  function _afterTokenTransfer(\r... */\n    tag_185:\n      pop\n      pop\n      pop\n      jump\t// out\n        /* \"#utility.yul\":7:146   */\n    tag_207:\n        /* \"#utility.yul\":53:58   */\n      0x00\n        /* \"#utility.yul\":91:97   */\n      dup2\n        /* \"#utility.yul\":78:98   */\n      calldataload\n        /* \"#utility.yul\":69:98   */\n      swap1\n      pop\n        /* \"#utility.yul\":107:140   */\n      tag_209\n        /* \"#utility.yul\":134:139   */\n      dup2\n        /* \"#utility.yul\":107:140   */\n      tag_210\n      jump\t// in\n    tag_209:\n        /* \"#utility.yul\":59:146   */\n      swap3\n      swap2\n      pop\n      pop\n      jump\t// out\n        /* \"#utility.yul\":152:291   */\n    tag_211:\n        /* \"#utility.yul\":198:203   */\n      0x00\n        /* \"#utility.yul\":236:242   */\n      dup2\n        /* \"#utility.yul\":223:243   */\n      calldataload\n        /* \"#utility.yul\":214:243   */\n      swap1\n      pop\n        /* \"#utility.yul\":252:285   */\n      tag_213\n        /* \"#utility.yul\":279:284   */\n      dup2\n        /* \"#utility.yul\":252:285   */\n      tag_214\n      jump\t// in\n    tag_213:\n        /* \"#utility.yul\":204:291   */\n      swap3\n      swap2\n      pop\n      pop\n      jump\t// out\n        /* \"#utility.yul\":297:559   */\n    tag_54:\n        /* \"#utility.yul\":356:362   */\n      0x00\n        /* \"#utility.yul\":405:407   */\n      0x20\n        /* \"#utility.yul\":393:402   */\n      dup3\n        /* \"#utility.yul\":384:391   */\n      dup5\n        /* \"#utility.yul\":380:403   */\n      sub\n        /* \"#utility.yul\":376:408   */\n      slt\n        /* \"#utility.yul\":373:375   */\n      iszero\n      tag_216\n      jumpi\n        /* \"#utility.yul\":421:422   */\n      0x00\n        /* \"#utility.yul\":418:419   */\n      dup1\n        /* \"#utility.yul\":411:423   */\n      revert\n        /* \"#utility.yul\":373:375   */\n    tag_216:\n        /* \"#utility.yul\":464:465   */\n      0x00\n        /* \"#utility.yul\":489:542   */\n      tag_217\n        /* \"#utility.yul\":534:541   */\n      dup5\n        /* \"#utility.yul\":525:531   */\n      dup3\n        /* \"#utility.yul\":514:523   */\n      dup6\n        /* \"#utility.yul\":510:532   */\n      add\n        /* \"#utility.yul\":489:542   */\n      tag_207\n      jump\t// in\n    tag_217:\n        /* \"#utility.yul\":479:542   */\n      swap2\n      pop\n        /* \"#utility.yul\":435:552   */\n      pop\n        /* \"#utility.yul\":363:559   */\n      swap3\n      swap2\n      pop\n      pop\n      jump\t// out\n        /* \"#utility.yul\":565:972   */\n    tag_80:\n        /* \"#utility.yul\":633:639   */\n      0x00\n        /* \"#utility.yul\":641:647   */\n      dup1\n        /* \"#utility.yul\":690:692   */\n      0x40\n        /* \"#utility.yul\":678:687   */\n      dup4\n        /* \"#utility.yul\":669:676   */\n      dup6\n        /* \"#utility.yul\":665:688   */\n      sub\n        /* \"#utility.yul\":661:693   */\n      slt\n        /* \"#utility.yul\":658:660   */\n      iszero\n      tag_219\n      jumpi\n        /* \"#utility.yul\":706:707   */\n      0x00\n        /* \"#utility.yul\":703:704   */\n      dup1\n        /* \"#utility.yul\":696:708   */\n      revert\n        /* \"#utility.yul\":658:660   */\n    tag_219:\n        /* \"#utility.yul\":749:750   */\n      0x00\n        /* \"#utility.yul\":774:827   */\n      tag_220\n        /* \"#utility.yul\":819:826   */\n      dup6\n        /* \"#utility.yul\":810:816   */\n      dup3\n        /* \"#utility.yul\":799:808   */\n      dup7\n        /* \"#utility.yul\":795:817   */\n      add\n        /* \"#utility.yul\":774:827   */\n      tag_207\n      jump\t// in\n    tag_220:\n        /* \"#utility.yul\":764:827   */\n      swap3\n      pop\n        /* \"#utility.yul\":720:837   */\n      pop\n        /* \"#utility.yul\":876:878   */\n      0x20\n        /* \"#utility.yul\":902:955   */\n      tag_221\n        /* \"#utility.yul\":947:954   */\n      dup6\n        /* \"#utility.yul\":938:944   */\n      dup3\n        /* \"#utility.yul\":927:936   */\n      dup7\n        /* \"#utility.yul\":923:945   */\n      add\n        /* \"#utility.yul\":902:955   */\n      tag_207\n      jump\t// in\n    tag_221:\n        /* \"#utility.yul\":892:955   */\n      swap2\n      pop\n        /* \"#utility.yul\":847:965   */\n      pop\n        /* \"#utility.yul\":648:972   */\n      swap3\n      pop\n      swap3\n      swap1\n      pop\n      jump\t// out\n        /* \"#utility.yul\":978:1530   */\n    tag_24:\n        /* \"#utility.yul\":1055:1061   */\n      0x00\n        /* \"#utility.yul\":1063:1069   */\n      dup1\n        /* \"#utility.yul\":1071:1077   */\n      0x00\n        /* \"#utility.yul\":1120:1122   */\n      0x60\n        /* \"#utility.yul\":1108:1117   */\n      dup5\n        /* \"#utility.yul\":1099:1106   */\n      dup7\n        /* \"#utility.yul\":1095:1118   */\n      sub\n        /* \"#utility.yul\":1091:1123   */\n      slt\n        /* \"#utility.yul\":1088:1090   */\n      iszero\n      tag_223\n      jumpi\n        /* \"#utility.yul\":1136:1137   */\n      0x00\n        /* \"#utility.yul\":1133:1134   */\n      dup1\n        /* \"#utility.yul\":1126:1138   */\n      revert\n        /* \"#utility.yul\":1088:1090   */\n    tag_223:\n        /* \"#utility.yul\":1179:1180   */\n      0x00\n        /* \"#utility.yul\":1204:1257   */\n      tag_224\n        /* \"#utility.yul\":1249:1256   */\n      dup7\n        /* \"#utility.yul\":1240:1246   */\n      dup3\n        /* \"#utility.yul\":1229:1238   */\n      dup8\n        /* \"#utility.yul\":1225:1247   */\n      add\n        /* \"#utility.yul\":1204:1257   */\n      tag_207\n      jump\t// in\n    tag_224:\n        /* \"#utility.yul\":1194:1257   */\n      swap4\n      pop\n        /* \"#utility.yul\":1150:1267   */\n      pop\n        /* \"#utility.yul\":1306:1308   */\n      0x20\n        /* \"#utility.yul\":1332:1385   */\n      tag_225\n        /* \"#utility.yul\":1377:1384   */\n      dup7\n        /* \"#utility.yul\":1368:1374   */\n      dup3\n        /* \"#utility.yul\":1357:1366   */\n      dup8\n        /* \"#utility.yul\":1353:1375   */\n      add\n        /* \"#utility.yul\":1332:1385   */\n      tag_207\n      jump\t// in\n    tag_225:\n        /* \"#utility.yul\":1322:1385   */\n      swap3\n      pop\n        /* \"#utility.yul\":1277:1395   */\n      pop\n        /* \"#utility.yul\":1434:1436   */\n      0x40\n        /* \"#utility.yul\":1460:1513   */\n      tag_226\n        /* \"#utility.yul\":1505:1512   */\n      dup7\n        /* \"#utility.yul\":1496:1502   */\n      dup3\n        /* \"#utility.yul\":1485:1494   */\n      dup8\n        /* \"#utility.yul\":1481:1503   */\n      add\n        /* \"#utility.yul\":1460:1513   */\n      tag_211\n      jump\t// in\n    tag_226:\n        /* \"#utility.yul\":1450:1513   */\n      swap2\n      pop\n        /* \"#utility.yul\":1405:1523   */\n      pop\n        /* \"#utility.yul\":1078:1530   */\n      swap3\n      pop\n      swap3\n      pop\n      swap3\n      jump\t// out\n        /* \"#utility.yul\":1536:1943   */\n    tag_32:\n        /* \"#utility.yul\":1604:1610   */\n      0x00\n        /* \"#utility.yul\":1612:1618   */\n      dup1\n        /* \"#utility.yul\":1661:1663   */\n      0x40\n        /* \"#utility.yul\":1649:1658   */\n      dup4\n        /* \"#utility.yul\":1640:1647   */\n      dup6\n        /* \"#utility.yul\":1636:1659   */\n      sub\n        /* \"#utility.yul\":1632:1664   */\n      slt\n        /* \"#utility.yul\":1629:1631   */\n      iszero\n      tag_228\n      jumpi\n        /* \"#utility.yul\":1677:1678   */\n      0x00\n        /* \"#utility.yul\":1674:1675   */\n      dup1\n        /* \"#utility.yul\":1667:1679   */\n      revert\n        /* \"#utility.yul\":1629:1631   */\n    tag_228:\n        /* \"#utility.yul\":1720:1721   */\n      0x00\n        /* \"#utility.yul\":1745:1798   */\n      tag_229\n        /* \"#utility.yul\":1790:1797   */\n      dup6\n        /* \"#utility.yul\":1781:1787   */\n      dup3\n        /* \"#utility.yul\":1770:1779   */\n      dup7\n        /* \"#utility.yul\":1766:1788   */\n      add\n        /* \"#utility.yul\":1745:1798   */\n      tag_207\n      jump\t// in\n    tag_229:\n        /* \"#utility.yul\":1735:1798   */\n      swap3\n      pop\n        /* \"#utility.yul\":1691:1808   */\n      pop\n        /* \"#utility.yul\":1847:1849   */\n      0x20\n        /* \"#utility.yul\":1873:1926   */\n      tag_230\n        /* \"#utility.yul\":1918:1925   */\n      dup6\n        /* \"#utility.yul\":1909:1915   */\n      dup3\n        /* \"#utility.yul\":1898:1907   */\n      dup7\n        /* \"#utility.yul\":1894:1916   */\n      add\n        /* \"#utility.yul\":1873:1926   */\n      tag_211\n      jump\t// in\n    tag_230:\n        /* \"#utility.yul\":1863:1926   */\n      swap2\n      pop\n        /* \"#utility.yul\":1818:1936   */\n      pop\n        /* \"#utility.yul\":1619:1943   */\n      swap3\n      pop\n      swap3\n      swap1\n      pop\n      jump\t// out\n        /* \"#utility.yul\":1949:2211   */\n    tag_68:\n        /* \"#utility.yul\":2008:2014   */\n      0x00\n        /* \"#utility.yul\":2057:2059   */\n      0x20\n        /* \"#utility.yul\":2045:2054   */\n      dup3\n        /* \"#utility.yul\":2036:2043   */\n      dup5\n        /* \"#utility.yul\":2032:2055   */\n      sub\n        /* \"#utility.yul\":2028:2060   */\n      slt\n        /* \"#utility.yul\":2025:2027   */\n      iszero\n      tag_232\n      jumpi\n        /* \"#utility.yul\":2073:2074   */\n      0x00\n        /* \"#utility.yul\":2070:2071   */\n      dup1\n        /* \"#utility.yul\":2063:2075   */\n      revert\n        /* \"#utility.yul\":2025:2027   */\n    tag_232:\n        /* \"#utility.yul\":2116:2117   */\n      0x00\n        /* \"#utility.yul\":2141:2194   */\n      tag_233\n        /* \"#utility.yul\":2186:2193   */\n      dup5\n        /* \"#utility.yul\":2177:2183   */\n      dup3\n        /* \"#utility.yul\":2166:2175   */\n      dup6\n        /* \"#utility.yul\":2162:2184   */\n      add\n        /* \"#utility.yul\":2141:2194   */\n      tag_211\n      jump\t// in\n    tag_233:\n        /* \"#utility.yul\":2131:2194   */\n      swap2\n      pop\n        /* \"#utility.yul\":2087:2204   */\n      pop\n        /* \"#utility.yul\":2015:2211   */\n      swap3\n      swap2\n      pop\n      pop\n      jump\t// out\n        /* \"#utility.yul\":2217:2335   */\n    tag_234:\n        /* \"#utility.yul\":2304:2328   */\n      tag_236\n        /* \"#utility.yul\":2322:2327   */\n      dup2\n        /* \"#utility.yul\":2304:2328   */\n      tag_237\n      jump\t// in\n    tag_236:\n        /* \"#utility.yul\":2299:2302   */\n      dup3\n        /* \"#utility.yul\":2292:2329   */\n      mstore\n        /* \"#utility.yul\":2282:2335   */\n      pop\n      pop\n      jump\t// out\n        /* \"#utility.yul\":2341:2450   */\n    tag_238:\n        /* \"#utility.yul\":2422:2443   */\n      tag_240\n        /* \"#utility.yul\":2437:2442   */\n      dup2\n        /* \"#utility.yul\":2422:2443   */\n      tag_241\n      jump\t// in\n    tag_240:\n        /* \"#utility.yul\":2417:2420   */\n      dup3\n        /* \"#utility.yul\":2410:2444   */\n      mstore\n        /* \"#utility.yul\":2400:2450   */\n      pop\n      pop\n      jump\t// out\n        /* \"#utility.yul\":2456:2820   */\n    tag_242:\n        /* \"#utility.yul\":2544:2547   */\n      0x00\n        /* \"#utility.yul\":2572:2611   */\n      tag_244\n        /* \"#utility.yul\":2605:2610   */\n      dup3\n        /* \"#utility.yul\":2572:2611   */\n      tag_245\n      jump\t// in\n    tag_244:\n        /* \"#utility.yul\":2627:2698   */\n      tag_246\n        /* \"#utility.yul\":2691:2697   */\n      dup2\n        /* \"#utility.yul\":2686:2689   */\n      dup6\n        /* \"#utility.yul\":2627:2698   */\n      tag_247\n      jump\t// in\n    tag_246:\n        /* \"#utility.yul\":2620:2698   */\n      swap4\n      pop\n        /* \"#utility.yul\":2707:2759   */\n      tag_248\n        /* \"#utility.yul\":2752:2758   */\n      dup2\n        /* \"#utility.yul\":2747:2750   */\n      dup6\n        /* \"#utility.yul\":2740:2744   */\n      0x20\n        /* \"#utility.yul\":2733:2738   */\n      dup7\n        /* \"#utility.yul\":2729:2745   */\n      add\n        /* \"#utility.yul\":2707:2759   */\n      tag_249\n      jump\t// in\n    tag_248:\n        /* \"#utility.yul\":2784:2813   */\n      tag_250\n        /* \"#utility.yul\":2806:2812   */\n      dup2\n        /* \"#utility.yul\":2784:2813   */\n      tag_251\n      jump\t// in\n    tag_250:\n        /* \"#utility.yul\":2779:2782   */\n      dup5\n        /* \"#utility.yul\":2775:2814   */\n      add\n        /* \"#utility.yul\":2768:2814   */\n      swap2\n      pop\n        /* \"#utility.yul\":2548:2820   */\n      pop\n      swap3\n      swap2\n      pop\n      pop\n      jump\t// out\n        /* \"#utility.yul\":2826:3192   */\n    tag_252:\n        /* \"#utility.yul\":2968:2971   */\n      0x00\n        /* \"#utility.yul\":2989:3056   */\n      tag_254\n        /* \"#utility.yul\":3053:3055   */\n      0x23\n        /* \"#utility.yul\":3048:3051   */\n      dup4\n        /* \"#utility.yul\":2989:3056   */\n      tag_247\n      jump\t// in\n    tag_254:\n        /* \"#utility.yul\":2982:3056   */\n      swap2\n      pop\n        /* \"#utility.yul\":3065:3158   */\n      tag_255\n        /* \"#utility.yul\":3154:3157   */\n      dup3\n        /* \"#utility.yul\":3065:3158   */\n      tag_256\n      jump\t// in\n    tag_255:\n        /* \"#utility.yul\":3183:3185   */\n      0x40\n        /* \"#utility.yul\":3178:3181   */\n      dup3\n        /* \"#utility.yul\":3174:3186   */\n      add\n        /* \"#utility.yul\":3167:3186   */\n      swap1\n      pop\n        /* \"#utility.yul\":2972:3192   */\n      swap2\n      swap1\n      pop\n      jump\t// out\n        /* \"#utility.yul\":3198:3564   */\n    tag_257:\n        /* \"#utility.yul\":3340:3343   */\n      0x00\n        /* \"#utility.yul\":3361:3428   */\n      tag_259\n        /* \"#utility.yul\":3425:3427   */\n      0x26\n        /* \"#utility.yul\":3420:3423   */\n      dup4\n        /* \"#utility.yul\":3361:3428   */\n      tag_247\n      jump\t// in\n    tag_259:\n        /* \"#utility.yul\":3354:3428   */\n      swap2\n      pop\n        /* \"#utility.yul\":3437:3530   */\n      tag_260\n        /* \"#utility.yul\":3526:3529   */\n      dup3\n        /* \"#utility.yul\":3437:3530   */\n      tag_261\n      jump\t// in\n    tag_260:\n        /* \"#utility.yul\":3555:3557   */\n      0x40\n        /* \"#utility.yul\":3550:3553   */\n      dup3\n        /* \"#utility.yul\":3546:3558   */\n      add\n        /* \"#utility.yul\":3539:3558   */\n      swap1\n      pop\n        /* \"#utility.yul\":3344:3564   */\n      swap2\n      swap1\n      pop\n      jump\t// out\n        /* \"#utility.yul\":3570:3936   */\n    tag_262:\n        /* \"#utility.yul\":3712:3715   */\n      0x00\n        /* \"#utility.yul\":3733:3800   */\n      tag_264\n        /* \"#utility.yul\":3797:3799   */\n      0x22\n        /* \"#utility.yul\":3792:3795   */\n      dup4\n        /* \"#utility.yul\":3733:3800   */\n      tag_247\n      jump\t// in\n    tag_264:\n        /* \"#utility.yul\":3726:3800   */\n      swap2\n      pop\n        /* \"#utility.yul\":3809:3902   */\n      tag_265\n        /* \"#utility.yul\":3898:3901   */\n      dup3\n        /* \"#utility.yul\":3809:3902   */\n      tag_266\n      jump\t// in\n    tag_265:\n        /* \"#utility.yul\":3927:3929   */\n      0x40\n        /* \"#utility.yul\":3922:3925   */\n      dup3\n        /* \"#utility.yul\":3918:3930   */\n      add\n        /* \"#utility.yul\":3911:3930   */\n      swap1\n      pop\n        /* \"#utility.yul\":3716:3936   */\n      swap2\n      swap1\n      pop\n      jump\t// out\n        /* \"#utility.yul\":3942:4308   */\n    tag_267:\n        /* \"#utility.yul\":4084:4087   */\n      0x00\n        /* \"#utility.yul\":4105:4172   */\n      tag_269\n        /* \"#utility.yul\":4169:4171   */\n      0x26\n        /* \"#utility.yul\":4164:4167   */\n      dup4\n        /* \"#utility.yul\":4105:4172   */\n      tag_247\n      jump\t// in\n    tag_269:\n        /* \"#utility.yul\":4098:4172   */\n      swap2\n      pop\n        /* \"#utility.yul\":4181:4274   */\n      tag_270\n        /* \"#utility.yul\":4270:4273   */\n      dup3\n        /* \"#utility.yul\":4181:4274   */\n      tag_271\n      jump\t// in\n    tag_270:\n        /* \"#utility.yul\":4299:4301   */\n      0x40\n        /* \"#utility.yul\":4294:4297   */\n      dup3\n        /* \"#utility.yul\":4290:4302   */\n      add\n        /* \"#utility.yul\":4283:4302   */\n      swap1\n      pop\n        /* \"#utility.yul\":4088:4308   */\n      swap2\n      swap1\n      pop\n      jump\t// out\n        /* \"#utility.yul\":4314:4680   */\n    tag_272:\n        /* \"#utility.yul\":4456:4459   */\n      0x00\n        /* \"#utility.yul\":4477:4544   */\n      tag_274\n        /* \"#utility.yul\":4541:4543   */\n      0x28\n        /* \"#utility.yul\":4536:4539   */\n      dup4\n        /* \"#utility.yul\":4477:4544   */\n      tag_247\n      jump\t// in\n    tag_274:\n        /* \"#utility.yul\":4470:4544   */\n      swap2\n      pop\n        /* \"#utility.yul\":4553:4646   */\n      tag_275\n        /* \"#utility.yul\":4642:4645   */\n      dup3\n        /* \"#utility.yul\":4553:4646   */\n      tag_276\n      jump\t// in\n    tag_275:\n        /* \"#utility.yul\":4671:4673   */\n      0x40\n        /* \"#utility.yul\":4666:4669   */\n      dup3\n        /* \"#utility.yul\":4662:4674   */\n      add\n        /* \"#utility.yul\":4655:4674   */\n      swap1\n      pop\n        /* \"#utility.yul\":4460:4680   */\n      swap2\n      swap1\n      pop\n      jump\t// out\n        /* \"#utility.yul\":4686:5052   */\n    tag_277:\n        /* \"#utility.yul\":4828:4831   */\n      0x00\n        /* \"#utility.yul\":4849:4916   */\n      tag_279\n        /* \"#utility.yul\":4913:4915   */\n      0x20\n        /* \"#utility.yul\":4908:4911   */\n      dup4\n        /* \"#utility.yul\":4849:4916   */\n      tag_247\n      jump\t// in\n    tag_279:\n        /* \"#utility.yul\":4842:4916   */\n      swap2\n      pop\n        /* \"#utility.yul\":4925:5018   */\n      tag_280\n        /* \"#utility.yul\":5014:5017   */\n      dup3\n        /* \"#utility.yul\":4925:5018   */\n      tag_281\n      jump\t// in\n    tag_280:\n        /* \"#utility.yul\":5043:5045   */\n      0x20\n        /* \"#utility.yul\":5038:5041   */\n      dup3\n        /* \"#utility.yul\":5034:5046   */\n      add\n        /* \"#utility.yul\":5027:5046   */\n      swap1\n      pop\n        /* \"#utility.yul\":4832:5052   */\n      swap2\n      swap1\n      pop\n      jump\t// out\n        /* \"#utility.yul\":5058:5424   */\n    tag_282:\n        /* \"#utility.yul\":5200:5203   */\n      0x00\n        /* \"#utility.yul\":5221:5288   */\n      tag_284\n        /* \"#utility.yul\":5285:5287   */\n      0x25\n        /* \"#utility.yul\":5280:5283   */\n      dup4\n        /* \"#utility.yul\":5221:5288   */\n      tag_247\n      jump\t// in\n    tag_284:\n        /* \"#utility.yul\":5214:5288   */\n      swap2\n      pop\n        /* \"#utility.yul\":5297:5390   */\n      tag_285\n        /* \"#utility.yul\":5386:5389   */\n      dup3\n        /* \"#utility.yul\":5297:5390   */\n      tag_286\n      jump\t// in\n    tag_285:\n        /* \"#utility.yul\":5415:5417   */\n      0x40\n        /* \"#utility.yul\":5410:5413   */\n      dup3\n        /* \"#utility.yul\":5406:5418   */\n      add\n        /* \"#utility.yul\":5399:5418   */\n      swap1\n      pop\n        /* \"#utility.yul\":5204:5424   */\n      swap2\n      swap1\n      pop\n      jump\t// out\n        /* \"#utility.yul\":5430:5796   */\n    tag_287:\n        /* \"#utility.yul\":5572:5575   */\n      0x00\n        /* \"#utility.yul\":5593:5660   */\n      tag_289\n        /* \"#utility.yul\":5657:5659   */\n      0x24\n        /* \"#utility.yul\":5652:5655   */\n      dup4\n        /* \"#utility.yul\":5593:5660   */\n      tag_247\n      jump\t// in\n    tag_289:\n        /* \"#utility.yul\":5586:5660   */\n      swap2\n      pop\n        /* \"#utility.yul\":5669:5762   */\n      tag_290\n        /* \"#utility.yul\":5758:5761   */\n      dup3\n        /* \"#utility.yul\":5669:5762   */\n      tag_291\n      jump\t// in\n    tag_290:\n        /* \"#utility.yul\":5787:5789   */\n      0x40\n        /* \"#utility.yul\":5782:5785   */\n      dup3\n        /* \"#utility.yul\":5778:5790   */\n      add\n        /* \"#utility.yul\":5771:5790   */\n      swap1\n      pop\n        /* \"#utility.yul\":5576:5796   */\n      swap2\n      swap1\n      pop\n      jump\t// out\n        /* \"#utility.yul\":5802:6168   */\n    tag_292:\n        /* \"#utility.yul\":5944:5947   */\n      0x00\n        /* \"#utility.yul\":5965:6032   */\n      tag_294\n        /* \"#utility.yul\":6029:6031   */\n      0x25\n        /* \"#utility.yul\":6024:6027   */\n      dup4\n        /* \"#utility.yul\":5965:6032   */\n      tag_247\n      jump\t// in\n    tag_294:\n        /* \"#utility.yul\":5958:6032   */\n      swap2\n      pop\n        /* \"#utility.yul\":6041:6134   */\n      tag_295\n        /* \"#utility.yul\":6130:6133   */\n      dup3\n        /* \"#utility.yul\":6041:6134   */\n      tag_296\n      jump\t// in\n    tag_295:\n        /* \"#utility.yul\":6159:6161   */\n      0x40\n        /* \"#utility.yul\":6154:6157   */\n      dup3\n        /* \"#utility.yul\":6150:6162   */\n      add\n        /* \"#utility.yul\":6143:6162   */\n      swap1\n      pop\n        /* \"#utility.yul\":5948:6168   */\n      swap2\n      swap1\n      pop\n      jump\t// out\n        /* \"#utility.yul\":6174:6540   */\n    tag_297:\n        /* \"#utility.yul\":6316:6319   */\n      0x00\n        /* \"#utility.yul\":6337:6404   */\n      tag_299\n        /* \"#utility.yul\":6401:6403   */\n      0x1f\n        /* \"#utility.yul\":6396:6399   */\n      dup4\n        /* \"#utility.yul\":6337:6404   */\n      tag_247\n      jump\t// in\n    tag_299:\n        /* \"#utility.yul\":6330:6404   */\n      swap2\n      pop\n        /* \"#utility.yul\":6413:6506   */\n      tag_300\n        /* \"#utility.yul\":6502:6505   */\n      dup3\n        /* \"#utility.yul\":6413:6506   */\n      tag_301\n      jump\t// in\n    tag_300:\n        /* \"#utility.yul\":6531:6533   */\n      0x20\n        /* \"#utility.yul\":6526:6529   */\n      dup3\n        /* \"#utility.yul\":6522:6534   */\n      add\n        /* \"#utility.yul\":6515:6534   */\n      swap1\n      pop\n        /* \"#utility.yul\":6320:6540   */\n      swap2\n      swap1\n      pop\n      jump\t// out\n        /* \"#utility.yul\":6546:6664   */\n    tag_302:\n        /* \"#utility.yul\":6633:6657   */\n      tag_304\n        /* \"#utility.yul\":6651:6656   */\n      dup2\n        /* \"#utility.yul\":6633:6657   */\n      tag_305\n      jump\t// in\n    tag_304:\n        /* \"#utility.yul\":6628:6631   */\n      dup3\n        /* \"#utility.yul\":6621:6658   */\n      mstore\n        /* \"#utility.yul\":6611:6664   */\n      pop\n      pop\n      jump\t// out\n        /* \"#utility.yul\":6670:6782   */\n    tag_306:\n        /* \"#utility.yul\":6753:6775   */\n      tag_308\n        /* \"#utility.yul\":6769:6774   */\n      dup2\n        /* \"#utility.yul\":6753:6775   */\n      tag_309\n      jump\t// in\n    tag_308:\n        /* \"#utility.yul\":6748:6751   */\n      dup3\n        /* \"#utility.yul\":6741:6776   */\n      mstore\n        /* \"#utility.yul\":6731:6782   */\n      pop\n      pop\n      jump\t// out\n        /* \"#utility.yul\":6788:7010   */\n    tag_62:\n        /* \"#utility.yul\":6881:6885   */\n      0x00\n        /* \"#utility.yul\":6919:6921   */\n      0x20\n        /* \"#utility.yul\":6908:6917   */\n      dup3\n        /* \"#utility.yul\":6904:6922   */\n      add\n        /* \"#utility.yul\":6896:6922   */\n      swap1\n      pop\n        /* \"#utility.yul\":6932:7003   */\n      tag_311\n        /* \"#utility.yul\":7000:7001   */\n      0x00\n        /* \"#utility.yul\":6989:6998   */\n      dup4\n        /* \"#utility.yul\":6985:7002   */\n      add\n        /* \"#utility.yul\":6976:6982   */\n      dup5\n        /* \"#utility.yul\":6932:7003   */\n      tag_234\n      jump\t// in\n    tag_311:\n        /* \"#utility.yul\":6886:7010   */\n      swap3\n      swap2\n      pop\n      pop\n      jump\t// out\n        /* \"#utility.yul\":7016:7226   */\n    tag_35:\n        /* \"#utility.yul\":7103:7107   */\n      0x00\n        /* \"#utility.yul\":7141:7143   */\n      0x20\n        /* \"#utility.yul\":7130:7139   */\n      dup3\n        /* \"#utility.yul\":7126:7144   */\n      add\n        /* \"#utility.yul\":7118:7144   */\n      swap1\n      pop\n        /* \"#utility.yul\":7154:7219   */\n      tag_313\n        /* \"#utility.yul\":7216:7217   */\n      0x00\n        /* \"#utility.yul\":7205:7214   */\n      dup4\n        /* \"#utility.yul\":7201:7218   */\n      add\n        /* \"#utility.yul\":7192:7198   */\n      dup5\n        /* \"#utility.yul\":7154:7219   */\n      tag_238\n      jump\t// in\n    tag_313:\n        /* \"#utility.yul\":7108:7226   */\n      swap3\n      swap2\n      pop\n      pop\n      jump\t// out\n        /* \"#utility.yul\":7232:7545   */\n    tag_29:\n        /* \"#utility.yul\":7345:7349   */\n      0x00\n        /* \"#utility.yul\":7383:7385   */\n      0x20\n        /* \"#utility.yul\":7372:7381   */\n      dup3\n        /* \"#utility.yul\":7368:7386   */\n      add\n        /* \"#utility.yul\":7360:7386   */\n      swap1\n      pop\n        /* \"#utility.yul\":7432:7441   */\n      dup2\n        /* \"#utility.yul\":7426:7430   */\n      dup2\n        /* \"#utility.yul\":7422:7442   */\n      sub\n        /* \"#utility.yul\":7418:7419   */\n      0x00\n        /* \"#utility.yul\":7407:7416   */\n      dup4\n        /* \"#utility.yul\":7403:7420   */\n      add\n        /* \"#utility.yul\":7396:7443   */\n      mstore\n        /* \"#utility.yul\":7460:7538   */\n      tag_315\n        /* \"#utility.yul\":7533:7537   */\n      dup2\n        /* \"#utility.yul\":7524:7530   */\n      dup5\n        /* \"#utility.yul\":7460:7538   */\n      tag_242\n      jump\t// in\n    tag_315:\n        /* \"#utility.yul\":7452:7538   */\n      swap1\n      pop\n        /* \"#utility.yul\":7350:7545   */\n      swap3\n      swap2\n      pop\n      pop\n      jump\t// out\n        /* \"#utility.yul\":7551:7970   */\n    tag_176:\n        /* \"#utility.yul\":7717:7721   */\n      0x00\n        /* \"#utility.yul\":7755:7757   */\n      0x20\n        /* \"#utility.yul\":7744:7753   */\n      dup3\n        /* \"#utility.yul\":7740:7758   */\n      add\n        /* \"#utility.yul\":7732:7758   */\n      swap1\n      pop\n        /* \"#utility.yul\":7804:7813   */\n      dup2\n        /* \"#utility.yul\":7798:7802   */\n      dup2\n        /* \"#utility.yul\":7794:7814   */\n      sub\n        /* \"#utility.yul\":7790:7791   */\n      0x00\n        /* \"#utility.yul\":7779:7788   */\n      dup4\n        /* \"#utility.yul\":7775:7792   */\n      add\n        /* \"#utility.yul\":7768:7815   */\n      mstore\n        /* \"#utility.yul\":7832:7963   */\n      tag_317\n        /* \"#utility.yul\":7958:7962   */\n      dup2\n        /* \"#utility.yul\":7832:7963   */\n      tag_252\n      jump\t// in\n    tag_317:\n        /* \"#utility.yul\":7824:7963   */\n      swap1\n      pop\n        /* \"#utility.yul\":7722:7970   */\n      swap2\n      swap1\n      pop\n      jump\t// out\n        /* \"#utility.yul\":7976:8395   */\n    tag_167:\n        /* \"#utility.yul\":8142:8146   */\n      0x00\n        /* \"#utility.yul\":8180:8182   */\n      0x20\n        /* \"#utility.yul\":8169:8178   */\n      dup3\n        /* \"#utility.yul\":8165:8183   */\n      add\n        /* \"#utility.yul\":8157:8183   */\n      swap1\n      pop\n        /* \"#utility.yul\":8229:8238   */\n      dup2\n        /* \"#utility.yul\":8223:8227   */\n      dup2\n        /* \"#utility.yul\":8219:8239   */\n      sub\n        /* \"#utility.yul\":8215:8216   */\n      0x00\n        /* \"#utility.yul\":8204:8213   */\n      dup4\n        /* \"#utility.yul\":8200:8217   */\n      add\n        /* \"#utility.yul\":8193:8240   */\n      mstore\n        /* \"#utility.yul\":8257:8388   */\n      tag_319\n        /* \"#utility.yul\":8383:8387   */\n      dup2\n        /* \"#utility.yul\":8257:8388   */\n      tag_257\n      jump\t// in\n    tag_319:\n        /* \"#utility.yul\":8249:8388   */\n      swap1\n      pop\n        /* \"#utility.yul\":8147:8395   */\n      swap2\n      swap1\n      pop\n      jump\t// out\n        /* \"#utility.yul\":8401:8820   */\n    tag_192:\n        /* \"#utility.yul\":8567:8571   */\n      0x00\n        /* \"#utility.yul\":8605:8607   */\n      0x20\n        /* \"#utility.yul\":8594:8603   */\n      dup3\n        /* \"#utility.yul\":8590:8608   */\n      add\n        /* \"#utility.yul\":8582:8608   */\n      swap1\n      pop\n        /* \"#utility.yul\":8654:8663   */\n      dup2\n        /* \"#utility.yul\":8648:8652   */\n      dup2\n        /* \"#utility.yul\":8644:8664   */\n      sub\n        /* \"#utility.yul\":8640:8641   */\n      0x00\n        /* \"#utility.yul\":8629:8638   */\n      dup4\n        /* \"#utility.yul\":8625:8642   */\n      add\n        /* \"#utility.yul\":8618:8665   */\n      mstore\n        /* \"#utility.yul\":8682:8813   */\n      tag_321\n        /* \"#utility.yul\":8808:8812   */\n      dup2\n        /* \"#utility.yul\":8682:8813   */\n      tag_262\n      jump\t// in\n    tag_321:\n        /* \"#utility.yul\":8674:8813   */\n      swap1\n      pop\n        /* \"#utility.yul\":8572:8820   */\n      swap2\n      swap1\n      pop\n      jump\t// out\n        /* \"#utility.yul\":8826:9245   */\n    tag_181:\n        /* \"#utility.yul\":8992:8996   */\n      0x00\n        /* \"#utility.yul\":9030:9032   */\n      0x20\n        /* \"#utility.yul\":9019:9028   */\n      dup3\n        /* \"#utility.yul\":9015:9033   */\n      add\n        /* \"#utility.yul\":9007:9033   */\n      swap1\n      pop\n        /* \"#utility.yul\":9079:9088   */\n      dup2\n        /* \"#utility.yul\":9073:9077   */\n      dup2\n        /* \"#utility.yul\":9069:9089   */\n      sub\n        /* \"#utility.yul\":9065:9066   */\n      0x00\n        /* \"#utility.yul\":9054:9063   */\n      dup4\n        /* \"#utility.yul\":9050:9067   */\n      add\n        /* \"#utility.yul\":9043:9090   */\n      mstore\n        /* \"#utility.yul\":9107:9238   */\n      tag_323\n        /* \"#utility.yul\":9233:9237   */\n      dup2\n        /* \"#utility.yul\":9107:9238   */\n      tag_267\n      jump\t// in\n    tag_323:\n        /* \"#utility.yul\":9099:9238   */\n      swap1\n      pop\n        /* \"#utility.yul\":8997:9245   */\n      swap2\n      swap1\n      pop\n      jump\t// out\n        /* \"#utility.yul\":9251:9670   */\n    tag_113:\n        /* \"#utility.yul\":9417:9421   */\n      0x00\n        /* \"#utility.yul\":9455:9457   */\n      0x20\n        /* \"#utility.yul\":9444:9453   */\n      dup3\n        /* \"#utility.yul\":9440:9458   */\n      add\n        /* \"#utility.yul\":9432:9458   */\n      swap1\n      pop\n        /* \"#utility.yul\":9504:9513   */\n      dup2\n        /* \"#utility.yul\":9498:9502   */\n      dup2\n        /* \"#utility.yul\":9494:9514   */\n      sub\n        /* \"#utility.yul\":9490:9491   */\n      0x00\n        /* \"#utility.yul\":9479:9488   */\n      dup4\n        /* \"#utility.yul\":9475:9492   */\n      add\n        /* \"#utility.yul\":9468:9515   */\n      mstore\n        /* \"#utility.yul\":9532:9663   */\n      tag_325\n        /* \"#utility.yul\":9658:9662   */\n      dup2\n        /* \"#utility.yul\":9532:9663   */\n      tag_272\n      jump\t// in\n    tag_325:\n        /* \"#utility.yul\":9524:9663   */\n      swap1\n      pop\n        /* \"#utility.yul\":9422:9670   */\n      swap2\n      swap1\n      pop\n      jump\t// out\n        /* \"#utility.yul\":9676:10095   */\n    tag_92:\n        /* \"#utility.yul\":9842:9846   */\n      0x00\n        /* \"#utility.yul\":9880:9882   */\n      0x20\n        /* \"#utility.yul\":9869:9878   */\n      dup3\n        /* \"#utility.yul\":9865:9883   */\n      add\n        /* \"#utility.yul\":9857:9883   */\n      swap1\n      pop\n        /* \"#utility.yul\":9929:9938   */\n      dup2\n        /* \"#utility.yul\":9923:9927   */\n      dup2\n        /* \"#utility.yul\":9919:9939   */\n      sub\n        /* \"#utility.yul\":9915:9916   */\n      0x00\n        /* \"#utility.yul\":9904:9913   */\n      dup4\n        /* \"#utility.yul\":9900:9917   */\n      add\n        /* \"#utility.yul\":9893:9940   */\n      mstore\n        /* \"#utility.yul\":9957:10088   */\n      tag_327\n        /* \"#utility.yul\":10083:10087   */\n      dup2\n        /* \"#utility.yul\":9957:10088   */\n      tag_277\n      jump\t// in\n    tag_327:\n        /* \"#utility.yul\":9949:10088   */\n      swap1\n      pop\n        /* \"#utility.yul\":9847:10095   */\n      swap2\n      swap1\n      pop\n      jump\t// out\n        /* \"#utility.yul\":10101:10520   */\n    tag_173:\n        /* \"#utility.yul\":10267:10271   */\n      0x00\n        /* \"#utility.yul\":10305:10307   */\n      0x20\n        /* \"#utility.yul\":10294:10303   */\n      dup3\n        /* \"#utility.yul\":10290:10308   */\n      add\n        /* \"#utility.yul\":10282:10308   */\n      swap1\n      pop\n        /* \"#utility.yul\":10354:10363   */\n      dup2\n        /* \"#utility.yul\":10348:10352   */\n      dup2\n        /* \"#utility.yul\":10344:10364   */\n      sub\n        /* \"#utility.yul\":10340:10341   */\n      0x00\n        /* \"#utility.yul\":10329:10338   */\n      dup4\n        /* \"#utility.yul\":10325:10342   */\n      add\n        /* \"#utility.yul\":10318:10365   */\n      mstore\n        /* \"#utility.yul\":10382:10513   */\n      tag_329\n        /* \"#utility.yul\":10508:10512   */\n      dup2\n        /* \"#utility.yul\":10382:10513   */\n      tag_282\n      jump\t// in\n    tag_329:\n        /* \"#utility.yul\":10374:10513   */\n      swap1\n      pop\n        /* \"#utility.yul\":10272:10520   */\n      swap2\n      swap1\n      pop\n      jump\t// out\n        /* \"#utility.yul\":10526:10945   */\n    tag_189:\n        /* \"#utility.yul\":10692:10696   */\n      0x00\n        /* \"#utility.yul\":10730:10732   */\n      0x20\n        /* \"#utility.yul\":10719:10728   */\n      dup3\n        /* \"#utility.yul\":10715:10733   */\n      add\n        /* \"#utility.yul\":10707:10733   */\n      swap1\n      pop\n        /* \"#utility.yul\":10779:10788   */\n      dup2\n        /* \"#utility.yul\":10773:10777   */\n      dup2\n        /* \"#utility.yul\":10769:10789   */\n      sub\n        /* \"#utility.yul\":10765:10766   */\n      0x00\n        /* \"#utility.yul\":10754:10763   */\n      dup4\n        /* \"#utility.yul\":10750:10767   */\n      add\n        /* \"#utility.yul\":10743:10790   */\n      mstore\n        /* \"#utility.yul\":10807:10938   */\n      tag_331\n        /* \"#utility.yul\":10933:10937   */\n      dup2\n        /* \"#utility.yul\":10807:10938   */\n      tag_287\n      jump\t// in\n    tag_331:\n        /* \"#utility.yul\":10799:10938   */\n      swap1\n      pop\n        /* \"#utility.yul\":10697:10945   */\n      swap2\n      swap1\n      pop\n      jump\t// out\n        /* \"#utility.yul\":10951:11370   */\n    tag_152:\n        /* \"#utility.yul\":11117:11121   */\n      0x00\n        /* \"#utility.yul\":11155:11157   */\n      0x20\n        /* \"#utility.yul\":11144:11153   */\n      dup3\n        /* \"#utility.yul\":11140:11158   */\n      add\n        /* \"#utility.yul\":11132:11158   */\n      swap1\n      pop\n        /* \"#utility.yul\":11204:11213   */\n      dup2\n        /* \"#utility.yul\":11198:11202   */\n      dup2\n        /* \"#utility.yul\":11194:11214   */\n      sub\n        /* \"#utility.yul\":11190:11191   */\n      0x00\n        /* \"#utility.yul\":11179:11188   */\n      dup4\n        /* \"#utility.yul\":11175:11192   */\n      add\n        /* \"#utility.yul\":11168:11215   */\n      mstore\n        /* \"#utility.yul\":11232:11363   */\n      tag_333\n        /* \"#utility.yul\":11358:11362   */\n      dup2\n        /* \"#utility.yul\":11232:11363   */\n      tag_292\n      jump\t// in\n    tag_333:\n        /* \"#utility.yul\":11224:11363   */\n      swap1\n      pop\n        /* \"#utility.yul\":11122:11370   */\n      swap2\n      swap1\n      pop\n      jump\t// out\n        /* \"#utility.yul\":11376:11795   */\n    tag_198:\n        /* \"#utility.yul\":11542:11546   */\n      0x00\n        /* \"#utility.yul\":11580:11582   */\n      0x20\n        /* \"#utility.yul\":11569:11578   */\n      dup3\n        /* \"#utility.yul\":11565:11583   */\n      add\n        /* \"#utility.yul\":11557:11583   */\n      swap1\n      pop\n        /* \"#utility.yul\":11629:11638   */\n      dup2\n        /* \"#utility.yul\":11623:11627   */\n      dup2\n        /* \"#utility.yul\":11619:11639   */\n      sub\n        /* \"#utility.yul\":11615:11616   */\n      0x00\n        /* \"#utility.yul\":11604:11613   */\n      dup4\n        /* \"#utility.yul\":11600:11617   */\n      add\n        /* \"#utility.yul\":11593:11640   */\n      mstore\n        /* \"#utility.yul\":11657:11788   */\n      tag_335\n        /* \"#utility.yul\":11783:11787   */\n      dup2\n        /* \"#utility.yul\":11657:11788   */\n      tag_297\n      jump\t// in\n    tag_335:\n        /* \"#utility.yul\":11649:11788   */\n      swap1\n      pop\n        /* \"#utility.yul\":11547:11795   */\n      swap2\n      swap1\n      pop\n      jump\t// out\n        /* \"#utility.yul\":11801:12023   */\n    tag_39:\n        /* \"#utility.yul\":11894:11898   */\n      0x00\n        /* \"#utility.yul\":11932:11934   */\n      0x20\n        /* \"#utility.yul\":11921:11930   */\n      dup3\n        /* \"#utility.yul\":11917:11935   */\n      add\n        /* \"#utility.yul\":11909:11935   */\n      swap1\n      pop\n        /* \"#utility.yul\":11945:12016   */\n      tag_337\n        /* \"#utility.yul\":12013:12014   */\n      0x00\n        /* \"#utility.yul\":12002:12011   */\n      dup4\n        /* \"#utility.yul\":11998:12015   */\n      add\n        /* \"#utility.yul\":11989:11995   */\n      dup5\n        /* \"#utility.yul\":11945:12016   */\n      tag_302\n      jump\t// in\n    tag_337:\n        /* \"#utility.yul\":11899:12023   */\n      swap3\n      swap2\n      pop\n      pop\n      jump\t// out\n        /* \"#utility.yul\":12029:12243   */\n    tag_47:\n        /* \"#utility.yul\":12118:12122   */\n      0x00\n        /* \"#utility.yul\":12156:12158   */\n      0x20\n        /* \"#utility.yul\":12145:12154   */\n      dup3\n        /* \"#utility.yul\":12141:12159   */\n      add\n        /* \"#utility.yul\":12133:12159   */\n      swap1\n      pop\n        /* \"#utility.yul\":12169:12236   */\n      tag_339\n        /* \"#utility.yul\":12233:12234   */\n      0x00\n        /* \"#utility.yul\":12222:12231   */\n      dup4\n        /* \"#utility.yul\":12218:12235   */\n      add\n        /* \"#utility.yul\":12209:12215   */\n      dup5\n        /* \"#utility.yul\":12169:12236   */\n      tag_306\n      jump\t// in\n    tag_339:\n        /* \"#utility.yul\":12123:12243   */\n      swap3\n      swap2\n      pop\n      pop\n      jump\t// out\n        /* \"#utility.yul\":12249:12348   */\n    tag_245:\n        /* \"#utility.yul\":12301:12307   */\n      0x00\n        /* \"#utility.yul\":12335:12340   */\n      dup2\n        /* \"#utility.yul\":12329:12341   */\n      mload\n        /* \"#utility.yul\":12319:12341   */\n      swap1\n      pop\n        /* \"#utility.yul\":12308:12348   */\n      swap2\n      swap1\n      pop\n      jump\t// out\n        /* \"#utility.yul\":12354:12523   */\n    tag_247:\n        /* \"#utility.yul\":12438:12449   */\n      0x00\n        /* \"#utility.yul\":12472:12478   */\n      dup3\n        /* \"#utility.yul\":12467:12470   */\n      dup3\n        /* \"#utility.yul\":12460:12479   */\n      mstore\n        /* \"#utility.yul\":12512:12516   */\n      0x20\n        /* \"#utility.yul\":12507:12510   */\n      dup3\n        /* \"#utility.yul\":12503:12517   */\n      add\n        /* \"#utility.yul\":12488:12517   */\n      swap1\n      pop\n        /* \"#utility.yul\":12450:12523   */\n      swap3\n      swap2\n      pop\n      pop\n      jump\t// out\n        /* \"#utility.yul\":12529:12834   */\n    tag_122:\n        /* \"#utility.yul\":12569:12572   */\n      0x00\n        /* \"#utility.yul\":12588:12608   */\n      tag_343\n        /* \"#utility.yul\":12606:12607   */\n      dup3\n        /* \"#utility.yul\":12588:12608   */\n      tag_305\n      jump\t// in\n    tag_343:\n        /* \"#utility.yul\":12583:12608   */\n      swap2\n      pop\n        /* \"#utility.yul\":12622:12642   */\n      tag_344\n        /* \"#utility.yul\":12640:12641   */\n      dup4\n        /* \"#utility.yul\":12622:12642   */\n      tag_305\n      jump\t// in\n    tag_344:\n        /* \"#utility.yul\":12617:12642   */\n      swap3\n      pop\n        /* \"#utility.yul\":12776:12777   */\n      dup3\n        /* \"#utility.yul\":12708:12774   */\n      0xffffffffffffffffffffffffffffffffffffffffffffffffffffffffffffffff\n        /* \"#utility.yul\":12704:12778   */\n      sub\n        /* \"#utility.yul\":12701:12702   */\n      dup3\n        /* \"#utility.yul\":12698:12779   */\n      gt\n        /* \"#utility.yul\":12695:12697   */\n      iszero\n      tag_345\n      jumpi\n        /* \"#utility.yul\":12782:12800   */\n      tag_346\n      tag_347\n      jump\t// in\n    tag_346:\n        /* \"#utility.yul\":12695:12697   */\n    tag_345:\n        /* \"#utility.yul\":12826:12827   */\n      dup3\n        /* \"#utility.yul\":12823:12824   */\n      dup3\n        /* \"#utility.yul\":12819:12828   */\n      add\n        /* \"#utility.yul\":12812:12828   */\n      swap1\n      pop\n        /* \"#utility.yul\":12573:12834   */\n      swap3\n      swap2\n      pop\n      pop\n      jump\t// out\n        /* \"#utility.yul\":12840:12936   */\n    tag_237:\n        /* \"#utility.yul\":12877:12884   */\n      0x00\n        /* \"#utility.yul\":12906:12930   */\n      tag_349\n        /* \"#utility.yul\":12924:12929   */\n      dup3\n        /* \"#utility.yul\":12906:12930   */\n      tag_350\n      jump\t// in\n    tag_349:\n        /* \"#utility.yul\":12895:12930   */\n      swap1\n      pop\n        /* \"#utility.yul\":12885:12936   */\n      swap2\n      swap1\n      pop\n      jump\t// out\n        /* \"#utility.yul\":12942:13032   */\n    tag_241:\n        /* \"#utility.yul\":12976:12983   */\n      0x00\n        /* \"#utility.yul\":13019:13024   */\n      dup2\n        /* \"#utility.yul\":13012:13025   */\n      iszero\n        /* \"#utility.yul\":13005:13026   */\n      iszero\n        /* \"#utility.yul\":12994:13026   */\n      swap1\n      pop\n        /* \"#utility.yul\":12984:13032   */\n      swap2\n      swap1\n      pop\n      jump\t// out\n        /* \"#utility.yul\":13038:13164   */\n    tag_350:\n        /* \"#utility.yul\":13075:13082   */\n      0x00\n        /* \"#utility.yul\":13115:13157   */\n      0xffffffffffffffffffffffffffffffffffffffff\n        /* \"#utility.yul\":13108:13113   */\n      dup3\n        /* \"#utility.yul\":13104:13158   */\n      and\n        /* \"#utility.yul\":13093:13158   */\n      swap1\n      pop\n        /* \"#utility.yul\":13083:13164   */\n      swap2\n      swap1\n      pop\n      jump\t// out\n        /* \"#utility.yul\":13170:13247   */\n    tag_305:\n        /* \"#utility.yul\":13207:13214   */\n      0x00\n        /* \"#utility.yul\":13236:13241   */\n      dup2\n        /* \"#utility.yul\":13225:13241   */\n      swap1\n      pop\n        /* \"#utility.yul\":13215:13247   */\n      swap2\n      swap1\n      pop\n      jump\t// out\n        /* \"#utility.yul\":13253:13339   */\n    tag_309:\n        /* \"#utility.yul\":13288:13295   */\n      0x00\n        /* \"#utility.yul\":13328:13332   */\n      0xff\n        /* \"#utility.yul\":13321:13326   */\n      dup3\n        /* \"#utility.yul\":13317:13333   */\n      and\n        /* \"#utility.yul\":13306:13333   */\n      swap1\n      pop\n        /* \"#utility.yul\":13296:13339   */\n      swap2\n      swap1\n      pop\n      jump\t// out\n        /* \"#utility.yul\":13345:13652   */\n    tag_249:\n        /* \"#utility.yul\":13413:13414   */\n      0x00\n        /* \"#utility.yul\":13423:13536   */\n    tag_356:\n        /* \"#utility.yul\":13437:13443   */\n      dup4\n        /* \"#utility.yul\":13434:13435   */\n      dup2\n        /* \"#utility.yul\":13431:13444   */\n      lt\n        /* \"#utility.yul\":13423:13536   */\n      iszero\n      tag_358\n      jumpi\n        /* \"#utility.yul\":13522:13523   */\n      dup1\n        /* \"#utility.yul\":13517:13520   */\n      dup3\n        /* \"#utility.yul\":13513:13524   */\n      add\n        /* \"#utility.yul\":13507:13525   */\n      mload\n        /* \"#utility.yul\":13503:13504   */\n      dup2\n        /* \"#utility.yul\":13498:13501   */\n      dup5\n        /* \"#utility.yul\":13494:13505   */\n      add\n        /* \"#utility.yul\":13487:13526   */\n      mstore\n        /* \"#utility.yul\":13459:13461   */\n      0x20\n        /* \"#utility.yul\":13456:13457   */\n      dup2\n        /* \"#utility.yul\":13452:13462   */\n      add\n        /* \"#utility.yul\":13447:13462   */\n      swap1\n      pop\n        /* \"#utility.yul\":13423:13536   */\n      jump(tag_356)\n    tag_358:\n        /* \"#utility.yul\":13554:13560   */\n      dup4\n        /* \"#utility.yul\":13551:13552   */\n      dup2\n        /* \"#utility.yul\":13548:13561   */\n      gt\n        /* \"#utility.yul\":13545:13547   */\n      iszero\n      tag_359\n      jumpi\n        /* \"#utility.yul\":13634:13635   */\n      0x00\n        /* \"#utility.yul\":13625:13631   */\n      dup5\n        /* \"#utility.yul\":13620:13623   */\n      dup5\n        /* \"#utility.yul\":13616:13632   */\n      add\n        /* \"#utility.yul\":13609:13636   */\n      mstore\n        /* \"#utility.yul\":13545:13547   */\n    tag_359:\n        /* \"#utility.yul\":13394:13652   */\n      pop\n      pop\n      pop\n      pop\n      jump\t// out\n        /* \"#utility.yul\":13658:13978   */\n    tag_98:\n        /* \"#utility.yul\":13702:13708   */\n      0x00\n        /* \"#utility.yul\":13739:13740   */\n      0x02\n        /* \"#utility.yul\":13733:13737   */\n      dup3\n        /* \"#utility.yul\":13729:13741   */\n      div\n        /* \"#utility.yul\":13719:13741   */\n      swap1\n      pop\n        /* \"#utility.yul\":13786:13787   */\n      0x01\n        /* \"#utility.yul\":13780:13784   */\n      dup3\n        /* \"#utility.yul\":13776:13788   */\n      and\n        /* \"#utility.yul\":13807:13825   */\n      dup1\n        /* \"#utility.yul\":13797:13799   */\n      tag_361\n      jumpi\n        /* \"#utility.yul\":13863:13867   */\n      0x7f\n        /* \"#utility.yul\":13855:13861   */\n      dup3\n        /* \"#utility.yul\":13851:13868   */\n      and\n        /* \"#utility.yul\":13841:13868   */\n      swap2\n      pop\n        /* \"#utility.yul\":13797:13799   */\n    tag_361:\n        /* \"#utility.yul\":13925:13927   */\n      0x20\n        /* \"#utility.yul\":13917:13923   */\n      dup3\n        /* \"#utility.yul\":13914:13928   */\n      lt\n        /* \"#utility.yul\":13894:13912   */\n      dup2\n        /* \"#utility.yul\":13891:13929   */\n      eq\n        /* \"#utility.yul\":13888:13890   */\n      iszero\n      tag_362\n      jumpi\n        /* \"#utility.yul\":13944:13962   */\n      tag_363\n      tag_364\n      jump\t// in\n    tag_363:\n        /* \"#utility.yul\":13888:13890   */\n    tag_362:\n        /* \"#utility.yul\":13709:13978   */\n      pop\n      swap2\n      swap1\n      pop\n      jump\t// out\n        /* \"#utility.yul\":13984:14164   */\n    tag_347:\n        /* \"#utility.yul\":14032:14109   */\n      0x4e487b7100000000000000000000000000000000000000000000000000000000\n        /* \"#utility.yul\":14029:14030   */\n      0x00\n        /* \"#utility.yul\":14022:14110   */\n      mstore\n        /* \"#utility.yul\":14129:14133   */\n      0x11\n        /* \"#utility.yul\":14126:14127   */\n      0x04\n        /* \"#utility.yul\":14119:14134   */\n      mstore\n        /* \"#utility.yul\":14153:14157   */\n      0x24\n        /* \"#utility.yul\":14150:14151   */\n      0x00\n        /* \"#utility.yul\":14143:14158   */\n      revert\n        /* \"#utility.yul\":14170:14350   */\n    tag_364:\n        /* \"#utility.yul\":14218:14295   */\n      0x4e487b7100000000000000000000000000000000000000000000000000000000\n        /* \"#utility.yul\":14215:14216   */\n      0x00\n        /* \"#utility.yul\":14208:14296   */\n      mstore\n        /* \"#utility.yul\":14315:14319   */\n      0x22\n        /* \"#utility.yul\":14312:14313   */\n      0x04\n        /* \"#utility.yul\":14305:14320   */\n      mstore\n        /* \"#utility.yul\":14339:14343   */\n      0x24\n        /* \"#utility.yul\":14336:14337   */\n      0x00\n        /* \"#utility.yul\":14329:14344   */\n      revert\n        /* \"#utility.yul\":14356:14458   */\n    tag_251:\n        /* \"#utility.yul\":14397:14403   */\n      0x00\n        /* \"#utility.yul\":14448:14450   */\n      0x1f\n        /* \"#utility.yul\":14444:14451   */\n      not\n        /* \"#utility.yul\":14439:14441   */\n      0x1f\n        /* \"#utility.yul\":14432:14437   */\n      dup4\n        /* \"#utility.yul\":14428:14442   */\n      add\n        /* \"#utility.yul\":14424:14452   */\n      and\n        /* \"#utility.yul\":14414:14452   */\n      swap1\n      pop\n        /* \"#utility.yul\":14404:14458   */\n      swap2\n      swap1\n      pop\n      jump\t// out\n        /* \"#utility.yul\":14464:14686   */\n    tag_256:\n        /* \"#utility.yul\":14604:14638   */\n      0x45524332303a207472616e7366657220746f20746865207a65726f2061646472\n        /* \"#utility.yul\":14600:14601   */\n      0x00\n        /* \"#utility.yul\":14592:14598   */\n      dup3\n        /* \"#utility.yul\":14588:14602   */\n      add\n        /* \"#utility.yul\":14581:14639   */\n      mstore\n        /* \"#utility.yul\":14673:14678   */\n      0x6573730000000000000000000000000000000000000000000000000000000000\n        /* \"#utility.yul\":14668:14670   */\n      0x20\n        /* \"#utility.yul\":14660:14666   */\n      dup3\n        /* \"#utility.yul\":14656:14671   */\n      add\n        /* \"#utility.yul\":14649:14679   */\n      mstore\n        /* \"#utility.yul\":14570:14686   */\n      pop\n      jump\t// out\n        /* \"#utility.yul\":14692:14917   */\n    tag_261:\n        /* \"#utility.yul\":14832:14866   */\n      0x4f776e61626c653a206e6577206f776e657220697320746865207a65726f2061\n        /* \"#utility.yul\":14828:14829   */\n      0x00\n        /* \"#utility.yul\":14820:14826   */\n      dup3\n        /* \"#utility.yul\":14816:14830   */\n      add\n        /* \"#utility.yul\":14809:14867   */\n      mstore\n        /* \"#utility.yul\":14901:14909   */\n      0x6464726573730000000000000000000000000000000000000000000000000000\n        /* \"#utility.yul\":14896:14898   */\n      0x20\n        /* \"#utility.yul\":14888:14894   */\n      dup3\n        /* \"#utility.yul\":14884:14899   */\n      add\n        /* \"#utility.yul\":14877:14910   */\n      mstore\n        /* \"#utility.yul\":14798:14917   */\n      pop\n      jump\t// out\n        /* \"#utility.yul\":14923:15144   */\n    tag_266:\n        /* \"#utility.yul\":15063:15097   */\n      0x45524332303a20617070726f766520746f20746865207a65726f206164647265\n        /* \"#utility.yul\":15059:15060   */\n      0x00\n        /* \"#utility.yul\":15051:15057   */\n      dup3\n        /* \"#utility.yul\":15047:15061   */\n      add\n        /* \"#utility.yul\":15040:15098   */\n      mstore\n        /* \"#utility.yul\":15132:15136   */\n      0x7373000000000000000000000000000000000000000000000000000000000000\n        /* \"#utility.yul\":15127:15129   */\n      0x20\n        /* \"#utility.yul\":15119:15125   */\n      dup3\n        /* \"#utility.yul\":15115:15130   */\n      add\n        /* \"#utility.yul\":15108:15137   */\n      mstore\n        /* \"#utility.yul\":15029:15144   */\n      pop\n      jump\t// out\n        /* \"#utility.yul\":15150:15375   */\n    tag_271:\n        /* \"#utility.yul\":15290:15324   */\n      0x45524332303a207472616e7366657220616d6f756e7420657863656564732062\n        /* \"#utility.yul\":15286:15287   */\n      0x00\n        /* \"#utility.yul\":15278:15284   */\n      dup3\n        /* \"#utility.yul\":15274:15288   */\n      add\n        /* \"#utility.yul\":15267:15325   */\n      mstore\n        /* \"#utility.yul\":15359:15367   */\n      0x616c616e63650000000000000000000000000000000000000000000000000000\n        /* \"#utility.yul\":15354:15356   */\n      0x20\n        /* \"#utility.yul\":15346:15352   */\n      dup3\n        /* \"#utility.yul\":15342:15357   */\n      add\n        /* \"#utility.yul\":15335:15368   */\n      mstore\n        /* \"#utility.yul\":15256:15375   */\n      pop\n      jump\t// out\n        /* \"#utility.yul\":15381:15608   */\n    tag_276:\n        /* \"#utility.yul\":15521:15555   */\n      0x45524332303a207472616e7366657220616d6f756e7420657863656564732061\n        /* \"#utility.yul\":15517:15518   */\n      0x00\n        /* \"#utility.yul\":15509:15515   */\n      dup3\n        /* \"#utility.yul\":15505:15519   */\n      add\n        /* \"#utility.yul\":15498:15556   */\n      mstore\n        /* \"#utility.yul\":15590:15600   */\n      0x6c6c6f77616e6365000000000000000000000000000000000000000000000000\n        /* \"#utility.yul\":15585:15587   */\n      0x20\n        /* \"#utility.yul\":15577:15583   */\n      dup3\n        /* \"#utility.yul\":15573:15588   */\n      add\n        /* \"#utility.yul\":15566:15601   */\n      mstore\n        /* \"#utility.yul\":15487:15608   */\n      pop\n      jump\t// out\n        /* \"#utility.yul\":15614:15796   */\n    tag_281:\n        /* \"#utility.yul\":15754:15788   */\n      0x4f776e61626c653a2063616c6c6572206973206e6f7420746865206f776e6572\n        /* \"#utility.yul\":15750:15751   */\n      0x00\n        /* \"#utility.yul\":15742:15748   */\n      dup3\n        /* \"#utility.yul\":15738:15752   */\n      add\n        /* \"#utility.yul\":15731:15789   */\n      mstore\n        /* \"#utility.yul\":15720:15796   */\n      pop\n      jump\t// out\n        /* \"#utility.yul\":15802:16026   */\n    tag_286:\n        /* \"#utility.yul\":15942:15976   */\n      0x45524332303a207472616e736665722066726f6d20746865207a65726f206164\n        /* \"#utility.yul\":15938:15939   */\n      0x00\n        /* \"#utility.yul\":15930:15936   */\n      dup3\n        /* \"#utility.yul\":15926:15940   */\n      add\n        /* \"#utility.yul\":15919:15977   */\n      mstore\n        /* \"#utility.yul\":16011:16018   */\n      0x6472657373000000000000000000000000000000000000000000000000000000\n        /* \"#utility.yul\":16006:16008   */\n      0x20\n        /* \"#utility.yul\":15998:16004   */\n      dup3\n        /* \"#utility.yul\":15994:16009   */\n      add\n        /* \"#utility.yul\":15987:16019   */\n      mstore\n        /* \"#utility.yul\":15908:16026   */\n      pop\n      jump\t// out\n        /* \"#utility.yul\":16032:16255   */\n    tag_291:\n        /* \"#utility.yul\":16172:16206   */\n      0x45524332303a20617070726f76652066726f6d20746865207a65726f20616464\n        /* \"#utility.yul\":16168:16169   */\n      0x00\n        /* \"#utility.yul\":16160:16166   */\n      dup3\n        /* \"#utility.yul\":16156:16170   */\n      add\n        /* \"#utility.yul\":16149:16207   */\n      mstore\n        /* \"#utility.yul\":16241:16247   */\n      0x7265737300000000000000000000000000000000000000000000000000000000\n        /* \"#utility.yul\":16236:16238   */\n      0x20\n        /* \"#utility.yul\":16228:16234   */\n      dup3\n        /* \"#utility.yul\":16224:16239   */\n      add\n        /* \"#utility.yul\":16217:16248   */\n      mstore\n        /* \"#utility.yul\":16138:16255   */\n      pop\n      jump\t// out\n        /* \"#utility.yul\":16261:16485   */\n    tag_296:\n        /* \"#utility.yul\":16401:16435   */\n      0x45524332303a2064656372656173656420616c6c6f77616e63652062656c6f77\n        /* \"#utility.yul\":16397:16398   */\n      0x00\n        /* \"#utility.yul\":16389:16395   */\n      dup3\n        /* \"#utility.yul\":16385:16399   */\n      add\n        /* \"#utility.yul\":16378:16436   */\n      mstore\n        /* \"#utility.yul\":16470:16477   */\n      0x207a65726f000000000000000000000000000000000000000000000000000000\n        /* \"#utility.yul\":16465:16467   */\n      0x20\n        /* \"#utility.yul\":16457:16463   */\n      dup3\n        /* \"#utility.yul\":16453:16468   */\n      add\n        /* \"#utility.yul\":16446:16478   */\n      mstore\n        /* \"#utility.yul\":16367:16485   */\n      pop\n      jump\t// out\n        /* \"#utility.yul\":16491:16672   */\n    tag_301:\n        /* \"#utility.yul\":16631:16664   */\n      0x45524332303a206d696e7420746f20746865207a65726f206164647265737300\n        /* \"#utility.yul\":16627:16628   */\n      0x00\n        /* \"#utility.yul\":16619:16625   */\n      dup3\n        /* \"#utility.yul\":16615:16629   */\n      add\n        /* \"#utility.yul\":16608:16665   */\n      mstore\n        /* \"#utility.yul\":16597:16672   */\n      pop\n      jump\t// out\n        /* \"#utility.yul\":16678:16800   */\n    tag_210:\n        /* \"#utility.yul\":16751:16775   */\n      tag_379\n        /* \"#utility.yul\":16769:16774   */\n      dup2\n        /* \"#utility.yul\":16751:16775   */\n      tag_237\n      jump\t// in\n    tag_379:\n        /* \"#utility.yul\":16744:16749   */\n      dup2\n        /* \"#utility.yul\":16741:16776   */\n      eq\n        /* \"#utility.yul\":16731:16733   */\n      tag_380\n      jumpi\n        /* \"#utility.yul\":16790:16791   */\n      0x00\n        /* \"#utility.yul\":16787:16788   */\n      dup1\n        /* \"#utility.yul\":16780:16792   */\n      revert\n        /* \"#utility.yul\":16731:16733   */\n    tag_380:\n        /* \"#utility.yul\":16721:16800   */\n      pop\n      jump\t// out\n        /* \"#utility.yul\":16806:16928   */\n    tag_214:\n        /* \"#utility.yul\":16879:16903   */\n      tag_382\n        /* \"#utility.yul\":16897:16902   */\n      dup2\n        /* \"#utility.yul\":16879:16903   */\n      tag_305\n      jump\t// in\n    tag_382:\n        /* \"#utility.yul\":16872:16877   */\n      dup2\n        /* \"#utility.yul\":16869:16904   */\n      eq\n        /* \"#utility.yul\":16859:16861   */\n      tag_383\n      jumpi\n        /* \"#utility.yul\":16918:16919   */\n      0x00\n        /* \"#utility.yul\":16915:16916   */\n      dup1\n        /* \"#utility.yul\":16908:16920   */\n      revert\n        /* \"#utility.yul\":16859:16861   */\n    tag_383:\n        /* \"#utility.yul\":16849:16928   */\n      pop\n      jump\t// out\n\n    auxdata: 0xa2646970667358221220796e0817115b65cf56639a63b208558765dadab79e170ff0f6b8d0217400038564736f6c63430008040033\n}\n",
				"bytecode": {
					"linkReferences": {},
					"object": "60806040523480156200001157600080fd5b5060405162002008380380620020088339818101604052810190620000379190620002ba565b82828282600290805190602001906200005292919062000181565b5081600390805190602001906200006b92919062000181565b5080600460006101000a81548160ff021916908360ff160217905550505050620000aa6200009e620000b360201b60201c565b620000bb60201b60201c565b505050620004d9565b600033905090565b6000600660009054906101000a900473ffffffffffffffffffffffffffffffffffffffff16905081600660006101000a81548173ffffffffffffffffffffffffffffffffffffffff021916908373ffffffffffffffffffffffffffffffffffffffff1602179055508173ffffffffffffffffffffffffffffffffffffffff168173ffffffffffffffffffffffffffffffffffffffff167f8be0079c531659141344cd1fd0a4f28419497f9722a3daafe3b4186f6b6457e060405160405180910390a35050565b8280546200018f90620003e4565b90600052602060002090601f016020900481019282620001b35760008555620001ff565b82601f10620001ce57805160ff1916838001178555620001ff565b82800160010185558215620001ff579182015b82811115620001fe578251825591602001919060010190620001e1565b5b5090506200020e919062000212565b5090565b5b808211156200022d57600081600090555060010162000213565b5090565b60006200024862000242846200036b565b62000342565b9050828152602081018484840111156200026157600080fd5b6200026e848285620003ae565b509392505050565b600082601f8301126200028857600080fd5b81516200029a84826020860162000231565b91505092915050565b600081519050620002b481620004bf565b92915050565b600080600060608486031215620002d057600080fd5b600084015167ffffffffffffffff811115620002eb57600080fd5b620002f98682870162000276565b935050602084015167ffffffffffffffff8111156200031757600080fd5b620003258682870162000276565b92505060406200033886828701620002a3565b9150509250925092565b60006200034e62000361565b90506200035c82826200041a565b919050565b6000604051905090565b600067ffffffffffffffff8211156200038957620003886200047f565b5b6200039482620004ae565b9050602081019050919050565b600060ff82169050919050565b60005b83811015620003ce578082015181840152602081019050620003b1565b83811115620003de576000848401525b50505050565b60006002820490506001821680620003fd57607f821691505b6020821081141562000414576200041362000450565b5b50919050565b6200042582620004ae565b810181811067ffffffffffffffff821117156200044757620004466200047f565b5b80604052505050565b7f4e487b7100000000000000000000000000000000000000000000000000000000600052602260045260246000fd5b7f4e487b7100000000000000000000000000000000000000000000000000000000600052604160045260246000fd5b6000601f19601f8301169050919050565b620004ca81620003a1565b8114620004d657600080fd5b50565b611b1f80620004e96000396000f3fe608060405234801561001057600080fd5b50600436106101005760003560e01c8063715018a611610097578063a457c2d711610066578063a457c2d71461029d578063a9059cbb146102cd578063dd62ed3e146102fd578063f2fde38b1461032d57610100565b8063715018a61461023b5780638da5cb5b1461024557806395d89b4114610263578063a0712d681461028157610100565b806323b872dd116100d357806323b872dd1461018d578063313ce567146101bd57806339509351146101db57806370a082311461020b57610100565b806301062ade1461010557806306fdde0314610121578063095ea7b31461013f57806318160ddd1461016f575b600080fd5b61011f600480360381019061011a9190611201565b610349565b005b6101296103d5565b60405161013691906114be565b60405180910390f35b61015960048036038101906101549190611250565b610467565b60405161016691906114a3565b60405180910390f35b610177610485565b6040516101849190611620565b60405180910390f35b6101a760048036038101906101a29190611201565b61048f565b6040516101b491906114a3565b60405180910390f35b6101c5610587565b6040516101d2919061163b565b60405180910390f35b6101f560048036038101906101f09190611250565b61059e565b60405161020291906114a3565b60405180910390f35b6102256004803603810190610220919061119c565b61064a565b6040516102329190611620565b60405180910390f35b610243610692565b005b61024d61071a565b60405161025a9190611488565b60405180910390f35b61026b610744565b60405161027891906114be565b60405180910390f35b61029b6004803603810190610296919061128c565b6107d6565b005b6102b760048036038101906102b29190611250565b610866565b6040516102c491906114a3565b60405180910390f35b6102e760048036038101906102e29190611250565b610951565b6040516102f491906114a3565b60405180910390f35b610317600480360381019061031291906111c5565b61096f565b6040516103249190611620565b60405180910390f35b6103476004803603810190610342919061119c565b6109f6565b005b610351610aee565b73ffffffffffffffffffffffffffffffffffffffff1661036f61071a565b73ffffffffffffffffffffffffffffffffffffffff16146103c5576040517f08c379a00000000000000000000000000000000000000000000000000000000081526004016103bc90611580565b60405180910390fd5b6103d0838383610af6565b505050565b6060600280546103e490611750565b80601f016020809104026020016040519081016040528092919081815260200182805461041090611750565b801561045d5780601f106104325761010080835404028352916020019161045d565b820191906000526020600020905b81548152906001019060200180831161044057829003601f168201915b5050505050905090565b600061047b610474610aee565b8484610d77565b6001905092915050565b6000600554905090565b600061049c848484610af6565b6000600160008673ffffffffffffffffffffffffffffffffffffffff1673ffffffffffffffffffffffffffffffffffffffff16815260200190815260200160002060006104e7610aee565b73ffffffffffffffffffffffffffffffffffffffff1673ffffffffffffffffffffffffffffffffffffffff16815260200190815260200160002054905082811015610567576040517f08c379a000000000000000000000000000000000000000000000000000000000815260040161055e90611560565b60405180910390fd5b61057b85610573610aee565b858403610d77565b60019150509392505050565b6000600460009054906101000a900460ff16905090565b60006106406105ab610aee565b8484600160006105b9610aee565b73ffffffffffffffffffffffffffffffffffffffff1673ffffffffffffffffffffffffffffffffffffffff16815260200190815260200160002060008873ffffffffffffffffffffffffffffffffffffffff1673ffffffffffffffffffffffffffffffffffffffff1681526020019081526020016000205461063b9190611672565b610d77565b6001905092915050565b60008060008373ffffffffffffffffffffffffffffffffffffffff1673ffffffffffffffffffffffffffffffffffffffff168152602001908152602001600020549050919050565b61069a610aee565b73ffffffffffffffffffffffffffffffffffffffff166106b861071a565b73ffffffffffffffffffffffffffffffffffffffff161461070e576040517f08c379a000000000000000000000000000000000000000000000000000000000815260040161070590611580565b60405180910390fd5b6107186000610f42565b565b6000600660009054906101000a900473ffffffffffffffffffffffffffffffffffffffff16905090565b60606003805461075390611750565b80601f016020809104026020016040519081016040528092919081815260200182805461077f90611750565b80156107cc5780601f106107a1576101008083540402835291602001916107cc565b820191906000526020600020905b8154815290600101906020018083116107af57829003601f168201915b5050505050905090565b6107de610aee565b73ffffffffffffffffffffffffffffffffffffffff166107fc61071a565b73ffffffffffffffffffffffffffffffffffffffff1614610852576040517f08c379a000000000000000000000000000000000000000000000000000000000815260040161084990611580565b60405180910390fd5b61086361085d610aee565b82611008565b50565b60008060016000610875610aee565b73ffffffffffffffffffffffffffffffffffffffff1673ffffffffffffffffffffffffffffffffffffffff16815260200190815260200160002060008573ffffffffffffffffffffffffffffffffffffffff1673ffffffffffffffffffffffffffffffffffffffff16815260200190815260200160002054905082811015610932576040517f08c379a0000000000000000000000000000000000000000000000000000000008152600401610929906115e0565b60405180910390fd5b61094661093d610aee565b85858403610d77565b600191505092915050565b600061096561095e610aee565b8484610af6565b6001905092915050565b6000600160008473ffffffffffffffffffffffffffffffffffffffff1673ffffffffffffffffffffffffffffffffffffffff16815260200190815260200160002060008373ffffffffffffffffffffffffffffffffffffffff1673ffffffffffffffffffffffffffffffffffffffff16815260200190815260200160002054905092915050565b6109fe610aee565b73ffffffffffffffffffffffffffffffffffffffff16610a1c61071a565b73ffffffffffffffffffffffffffffffffffffffff1614610a72576040517f08c379a0000000000000000000000000000000000000000000000000000000008152600401610a6990611580565b60405180910390fd5b600073ffffffffffffffffffffffffffffffffffffffff168173ffffffffffffffffffffffffffffffffffffffff161415610ae2576040517f08c379a0000000000000000000000000000000000000000000000000000000008152600401610ad990611500565b60405180910390fd5b610aeb81610f42565b50565b600033905090565b600073ffffffffffffffffffffffffffffffffffffffff168373ffffffffffffffffffffffffffffffffffffffff161415610b66576040517f08c379a0000000000000000000000000000000000000000000000000000000008152600401610b5d906115a0565b60405180910390fd5b600073ffffffffffffffffffffffffffffffffffffffff168273ffffffffffffffffffffffffffffffffffffffff161415610bd6576040517f08c379a0000000000000000000000000000000000000000000000000000000008152600401610bcd906114e0565b60405180910390fd5b610be1838383611168565b60008060008573ffffffffffffffffffffffffffffffffffffffff1673ffffffffffffffffffffffffffffffffffffffff16815260200190815260200160002054905081811015610c67576040517f08c379a0000000000000000000000000000000000000000000000000000000008152600401610c5e90611540565b60405180910390fd5b8181036000808673ffffffffffffffffffffffffffffffffffffffff1673ffffffffffffffffffffffffffffffffffffffff16815260200190815260200160002081905550816000808573ffffffffffffffffffffffffffffffffffffffff1673ffffffffffffffffffffffffffffffffffffffff1681526020019081526020016000206000828254610cfa9190611672565b925050819055508273ffffffffffffffffffffffffffffffffffffffff168473ffffffffffffffffffffffffffffffffffffffff167fddf252ad1be2c89b69c2b068fc378daa952ba7f163c4a11628f55a4df523b3ef84604051610d5e9190611620565b60405180910390a3610d7184848461116d565b50505050565b600073ffffffffffffffffffffffffffffffffffffffff168373ffffffffffffffffffffffffffffffffffffffff161415610de7576040517f08c379a0000000000000000000000000000000000000000000000000000000008152600401610dde906115c0565b60405180910390fd5b600073ffffffffffffffffffffffffffffffffffffffff168273ffffffffffffffffffffffffffffffffffffffff161415610e57576040517f08c379a0000000000000000000000000000000000000000000000000000000008152600401610e4e90611520565b60405180910390fd5b80600160008573ffffffffffffffffffffffffffffffffffffffff1673ffffffffffffffffffffffffffffffffffffffff16815260200190815260200160002060008473ffffffffffffffffffffffffffffffffffffffff1673ffffffffffffffffffffffffffffffffffffffff168152602001908152602001600020819055508173ffffffffffffffffffffffffffffffffffffffff168373ffffffffffffffffffffffffffffffffffffffff167f8c5be1e5ebec7d5bd14f71427d1e84f3dd0314c0f7b2291e5b200ac8c7c3b92583604051610f359190611620565b60405180910390a3505050565b6000600660009054906101000a900473ffffffffffffffffffffffffffffffffffffffff16905081600660006101000a81548173ffffffffffffffffffffffffffffffffffffffff021916908373ffffffffffffffffffffffffffffffffffffffff1602179055508173ffffffffffffffffffffffffffffffffffffffff168173ffffffffffffffffffffffffffffffffffffffff167f8be0079c531659141344cd1fd0a4f28419497f9722a3daafe3b4186f6b6457e060405160405180910390a35050565b600073ffffffffffffffffffffffffffffffffffffffff168273ffffffffffffffffffffffffffffffffffffffff161415611078576040517f08c379a000000000000000000000000000000000000000000000000000000000815260040161106f90611600565b60405180910390fd5b61108460008383611168565b80600560008282546110969190611672565b92505081905550806000808473ffffffffffffffffffffffffffffffffffffffff1673ffffffffffffffffffffffffffffffffffffffff16815260200190815260200160002060008282546110eb9190611672565b925050819055508173ffffffffffffffffffffffffffffffffffffffff16600073ffffffffffffffffffffffffffffffffffffffff167fddf252ad1be2c89b69c2b068fc378daa952ba7f163c4a11628f55a4df523b3ef836040516111509190611620565b60405180910390a36111646000838361116d565b5050565b505050565b505050565b60008135905061118181611abb565b92915050565b60008135905061119681611ad2565b92915050565b6000602082840312156111ae57600080fd5b60006111bc84828501611172565b91505092915050565b600080604083850312156111d857600080fd5b60006111e685828601611172565b92505060206111f785828601611172565b9150509250929050565b60008060006060848603121561121657600080fd5b600061122486828701611172565b935050602061123586828701611172565b925050604061124686828701611187565b9150509250925092565b6000806040838503121561126357600080fd5b600061127185828601611172565b925050602061128285828601611187565b9150509250929050565b60006020828403121561129e57600080fd5b60006112ac84828501611187565b91505092915050565b6112be816116c8565b82525050565b6112cd816116da565b82525050565b60006112de82611656565b6112e88185611661565b93506112f881856020860161171d565b611301816117e0565b840191505092915050565b6000611319602383611661565b9150611324826117f1565b604082019050919050565b600061133c602683611661565b915061134782611840565b604082019050919050565b600061135f602283611661565b915061136a8261188f565b604082019050919050565b6000611382602683611661565b915061138d826118de565b604082019050919050565b60006113a5602883611661565b91506113b08261192d565b604082019050919050565b60006113c8602083611661565b91506113d38261197c565b602082019050919050565b60006113eb602583611661565b91506113f6826119a5565b604082019050919050565b600061140e602483611661565b9150611419826119f4565b604082019050919050565b6000611431602583611661565b915061143c82611a43565b604082019050919050565b6000611454601f83611661565b915061145f82611a92565b602082019050919050565b61147381611706565b82525050565b61148281611710565b82525050565b600060208201905061149d60008301846112b5565b92915050565b60006020820190506114b860008301846112c4565b92915050565b600060208201905081810360008301526114d881846112d3565b905092915050565b600060208201905081810360008301526114f98161130c565b9050919050565b600060208201905081810360008301526115198161132f565b9050919050565b6000602082019050818103600083015261153981611352565b9050919050565b6000602082019050818103600083015261155981611375565b9050919050565b6000602082019050818103600083015261157981611398565b9050919050565b60006020820190508181036000830152611599816113bb565b9050919050565b600060208201905081810360008301526115b9816113de565b9050919050565b600060208201905081810360008301526115d981611401565b9050919050565b600060208201905081810360008301526115f981611424565b9050919050565b6000602082019050818103600083015261161981611447565b9050919050565b6000602082019050611635600083018461146a565b92915050565b60006020820190506116506000830184611479565b92915050565b600081519050919050565b600082825260208201905092915050565b600061167d82611706565b915061168883611706565b9250827fffffffffffffffffffffffffffffffffffffffffffffffffffffffffffffffff038211156116bd576116bc611782565b5b828201905092915050565b60006116d3826116e6565b9050919050565b60008115159050919050565b600073ffffffffffffffffffffffffffffffffffffffff82169050919050565b6000819050919050565b600060ff82169050919050565b60005b8381101561173b578082015181840152602081019050611720565b8381111561174a576000848401525b50505050565b6000600282049050600182168061176857607f821691505b6020821081141561177c5761177b6117b1565b5b50919050565b7f4e487b7100000000000000000000000000000000000000000000000000000000600052601160045260246000fd5b7f4e487b7100000000000000000000000000000000000000000000000000000000600052602260045260246000fd5b6000601f19601f8301169050919050565b7f45524332303a207472616e7366657220746f20746865207a65726f206164647260008201527f6573730000000000000000000000000000000000000000000000000000000000602082015250565b7f4f776e61626c653a206e6577206f776e657220697320746865207a65726f206160008201527f6464726573730000000000000000000000000000000000000000000000000000602082015250565b7f45524332303a20617070726f766520746f20746865207a65726f20616464726560008201527f7373000000000000000000000000000000000000000000000000000000000000602082015250565b7f45524332303a207472616e7366657220616d6f756e742065786365656473206260008201527f616c616e63650000000000000000000000000000000000000000000000000000602082015250565b7f45524332303a207472616e7366657220616d6f756e742065786365656473206160008201527f6c6c6f77616e6365000000000000000000000000000000000000000000000000602082015250565b7f4f776e61626c653a2063616c6c6572206973206e6f7420746865206f776e6572600082015250565b7f45524332303a207472616e736665722066726f6d20746865207a65726f20616460008201527f6472657373000000000000000000000000000000000000000000000000000000602082015250565b7f45524332303a20617070726f76652066726f6d20746865207a65726f2061646460008201527f7265737300000000000000000000000000000000000000000000000000000000602082015250565b7f45524332303a2064656372656173656420616c6c6f77616e63652062656c6f7760008201527f207a65726f000000000000000000000000000000000000000000000000000000602082015250565b7f45524332303a206d696e7420746f20746865207a65726f206164647265737300600082015250565b611ac4816116c8565b8114611acf57600080fd5b50565b611adb81611706565b8114611ae657600080fd5b5056fea2646970667358221220796e0817115b65cf56639a63b208558765dadab79e170ff0f6b8d0217400038564736f6c63430008040033",
					"opcodes": "PUSH1 0x80 PUSH1 0x40 MSTORE CALLVALUE DUP1 ISZERO PUSH3 0x11 JUMPI PUSH1 0x0 DUP1 REVERT JUMPDEST POP PUSH1 0x40 MLOAD PUSH3 0x2008 CODESIZE SUB DUP1 PUSH3 0x2008 DUP4 CODECOPY DUP2 DUP2 ADD PUSH1 0x40 MSTORE DUP2 ADD SWAP1 PUSH3 0x37 SWAP2 SWAP1 PUSH3 0x2BA JUMP JUMPDEST DUP3 DUP3 DUP3 DUP3 PUSH1 0x2 SWAP1 DUP1 MLOAD SWAP1 PUSH1 0x20 ADD SWAP1 PUSH3 0x52 SWAP3 SWAP2 SWAP1 PUSH3 0x181 JUMP JUMPDEST POP DUP2 PUSH1 0x3 SWAP1 DUP1 MLOAD SWAP1 PUSH1 0x20 ADD SWAP1 PUSH3 0x6B SWAP3 SWAP2 SWAP1 PUSH3 0x181 JUMP JUMPDEST POP DUP1 PUSH1 0x4 PUSH1 0x0 PUSH2 0x100 EXP DUP2 SLOAD DUP2 PUSH1 0xFF MUL NOT AND SWAP1 DUP4 PUSH1 0xFF AND MUL OR SWAP1 SSTORE POP POP POP POP PUSH3 0xAA PUSH3 0x9E PUSH3 0xB3 PUSH1 0x20 SHL PUSH1 0x20 SHR JUMP JUMPDEST PUSH3 0xBB PUSH1 0x20 SHL PUSH1 0x20 SHR JUMP JUMPDEST POP POP POP PUSH3 0x4D9 JUMP JUMPDEST PUSH1 0x0 CALLER SWAP1 POP SWAP1 JUMP JUMPDEST PUSH1 0x0 PUSH1 0x6 PUSH1 0x0 SWAP1 SLOAD SWAP1 PUSH2 0x100 EXP SWAP1 DIV PUSH20 0xFFFFFFFFFFFFFFFFFFFFFFFFFFFFFFFFFFFFFFFF AND SWAP1 POP DUP2 PUSH1 0x6 PUSH1 0x0 PUSH2 0x100 EXP DUP2 SLOAD DUP2 PUSH20 0xFFFFFFFFFFFFFFFFFFFFFFFFFFFFFFFFFFFFFFFF MUL NOT AND SWAP1 DUP4 PUSH20 0xFFFFFFFFFFFFFFFFFFFFFFFFFFFFFFFFFFFFFFFF AND MUL OR SWAP1 SSTORE POP DUP2 PUSH20 0xFFFFFFFFFFFFFFFFFFFFFFFFFFFFFFFFFFFFFFFF AND DUP2 PUSH20 0xFFFFFFFFFFFFFFFFFFFFFFFFFFFFFFFFFFFFFFFF AND PUSH32 0x8BE0079C531659141344CD1FD0A4F28419497F9722A3DAAFE3B4186F6B6457E0 PUSH1 0x40 MLOAD PUSH1 0x40 MLOAD DUP1 SWAP2 SUB SWAP1 LOG3 POP POP JUMP JUMPDEST DUP3 DUP1 SLOAD PUSH3 0x18F SWAP1 PUSH3 0x3E4 JUMP JUMPDEST SWAP1 PUSH1 0x0 MSTORE PUSH1 0x20 PUSH1 0x0 KECCAK256 SWAP1 PUSH1 0x1F ADD PUSH1 0x20 SWAP1 DIV DUP2 ADD SWAP3 DUP3 PUSH3 0x1B3 JUMPI PUSH1 0x0 DUP6 SSTORE PUSH3 0x1FF JUMP JUMPDEST DUP3 PUSH1 0x1F LT PUSH3 0x1CE JUMPI DUP1 MLOAD PUSH1 0xFF NOT AND DUP4 DUP1 ADD OR DUP6 SSTORE PUSH3 0x1FF JUMP JUMPDEST DUP3 DUP1 ADD PUSH1 0x1 ADD DUP6 SSTORE DUP3 ISZERO PUSH3 0x1FF JUMPI SWAP2 DUP3 ADD JUMPDEST DUP3 DUP2 GT ISZERO PUSH3 0x1FE JUMPI DUP3 MLOAD DUP3 SSTORE SWAP2 PUSH1 0x20 ADD SWAP2 SWAP1 PUSH1 0x1 ADD SWAP1 PUSH3 0x1E1 JUMP JUMPDEST JUMPDEST POP SWAP1 POP PUSH3 0x20E SWAP2 SWAP1 PUSH3 0x212 JUMP JUMPDEST POP SWAP1 JUMP JUMPDEST JUMPDEST DUP1 DUP3 GT ISZERO PUSH3 0x22D JUMPI PUSH1 0x0 DUP2 PUSH1 0x0 SWAP1 SSTORE POP PUSH1 0x1 ADD PUSH3 0x213 JUMP JUMPDEST POP SWAP1 JUMP JUMPDEST PUSH1 0x0 PUSH3 0x248 PUSH3 0x242 DUP5 PUSH3 0x36B JUMP JUMPDEST PUSH3 0x342 JUMP JUMPDEST SWAP1 POP DUP3 DUP2 MSTORE PUSH1 0x20 DUP2 ADD DUP5 DUP5 DUP5 ADD GT ISZERO PUSH3 0x261 JUMPI PUSH1 0x0 DUP1 REVERT JUMPDEST PUSH3 0x26E DUP5 DUP3 DUP6 PUSH3 0x3AE JUMP JUMPDEST POP SWAP4 SWAP3 POP POP POP JUMP JUMPDEST PUSH1 0x0 DUP3 PUSH1 0x1F DUP4 ADD SLT PUSH3 0x288 JUMPI PUSH1 0x0 DUP1 REVERT JUMPDEST DUP2 MLOAD PUSH3 0x29A DUP5 DUP3 PUSH1 0x20 DUP7 ADD PUSH3 0x231 JUMP JUMPDEST SWAP2 POP POP SWAP3 SWAP2 POP POP JUMP JUMPDEST PUSH1 0x0 DUP2 MLOAD SWAP1 POP PUSH3 0x2B4 DUP2 PUSH3 0x4BF JUMP JUMPDEST SWAP3 SWAP2 POP POP JUMP JUMPDEST PUSH1 0x0 DUP1 PUSH1 0x0 PUSH1 0x60 DUP5 DUP7 SUB SLT ISZERO PUSH3 0x2D0 JUMPI PUSH1 0x0 DUP1 REVERT JUMPDEST PUSH1 0x0 DUP5 ADD MLOAD PUSH8 0xFFFFFFFFFFFFFFFF DUP2 GT ISZERO PUSH3 0x2EB JUMPI PUSH1 0x0 DUP1 REVERT JUMPDEST PUSH3 0x2F9 DUP7 DUP3 DUP8 ADD PUSH3 0x276 JUMP JUMPDEST SWAP4 POP POP PUSH1 0x20 DUP5 ADD MLOAD PUSH8 0xFFFFFFFFFFFFFFFF DUP2 GT ISZERO PUSH3 0x317 JUMPI PUSH1 0x0 DUP1 REVERT JUMPDEST PUSH3 0x325 DUP7 DUP3 DUP8 ADD PUSH3 0x276 JUMP JUMPDEST SWAP3 POP POP PUSH1 0x40 PUSH3 0x338 DUP7 DUP3 DUP8 ADD PUSH3 0x2A3 JUMP JUMPDEST SWAP2 POP POP SWAP3 POP SWAP3 POP SWAP3 JUMP JUMPDEST PUSH1 0x0 PUSH3 0x34E PUSH3 0x361 JUMP JUMPDEST SWAP1 POP PUSH3 0x35C DUP3 DUP3 PUSH3 0x41A JUMP JUMPDEST SWAP2 SWAP1 POP JUMP JUMPDEST PUSH1 0x0 PUSH1 0x40 MLOAD SWAP1 POP SWAP1 JUMP JUMPDEST PUSH1 0x0 PUSH8 0xFFFFFFFFFFFFFFFF DUP3 GT ISZERO PUSH3 0x389 JUMPI PUSH3 0x388 PUSH3 0x47F JUMP JUMPDEST JUMPDEST PUSH3 0x394 DUP3 PUSH3 0x4AE JUMP JUMPDEST SWAP1 POP PUSH1 0x20 DUP2 ADD SWAP1 POP SWAP2 SWAP1 POP JUMP JUMPDEST PUSH1 0x0 PUSH1 0xFF DUP3 AND SWAP1 POP SWAP2 SWAP1 POP JUMP JUMPDEST PUSH1 0x0 JUMPDEST DUP4 DUP2 LT ISZERO PUSH3 0x3CE JUMPI DUP1 DUP3 ADD MLOAD DUP2 DUP5 ADD MSTORE PUSH1 0x20 DUP2 ADD SWAP1 POP PUSH3 0x3B1 JUMP JUMPDEST DUP4 DUP2 GT ISZERO PUSH3 0x3DE JUMPI PUSH1 0x0 DUP5 DUP5 ADD MSTORE JUMPDEST POP POP POP POP JUMP JUMPDEST PUSH1 0x0 PUSH1 0x2 DUP3 DIV SWAP1 POP PUSH1 0x1 DUP3 AND DUP1 PUSH3 0x3FD JUMPI PUSH1 0x7F DUP3 AND SWAP2 POP JUMPDEST PUSH1 0x20 DUP3 LT DUP2 EQ ISZERO PUSH3 0x414 JUMPI PUSH3 0x413 PUSH3 0x450 JUMP JUMPDEST JUMPDEST POP SWAP2 SWAP1 POP JUMP JUMPDEST PUSH3 0x425 DUP3 PUSH3 0x4AE JUMP JUMPDEST DUP2 ADD DUP2 DUP2 LT PUSH8 0xFFFFFFFFFFFFFFFF DUP3 GT OR ISZERO PUSH3 0x447 JUMPI PUSH3 0x446 PUSH3 0x47F JUMP JUMPDEST JUMPDEST DUP1 PUSH1 0x40 MSTORE POP POP POP JUMP JUMPDEST PUSH32 0x4E487B7100000000000000000000000000000000000000000000000000000000 PUSH1 0x0 MSTORE PUSH1 0x22 PUSH1 0x4 MSTORE PUSH1 0x24 PUSH1 0x0 REVERT JUMPDEST PUSH32 0x4E487B7100000000000000000000000000000000000000000000000000000000 PUSH1 0x0 MSTORE PUSH1 0x41 PUSH1 0x4 MSTORE PUSH1 0x24 PUSH1 0x0 REVERT JUMPDEST PUSH1 0x0 PUSH1 0x1F NOT PUSH1 0x1F DUP4 ADD AND SWAP1 POP SWAP2 SWAP1 POP JUMP JUMPDEST PUSH3 0x4CA DUP2 PUSH3 0x3A1 JUMP JUMPDEST DUP2 EQ PUSH3 0x4D6 JUMPI PUSH1 0x0 DUP1 REVERT JUMPDEST POP JUMP JUMPDEST PUSH2 0x1B1F DUP1 PUSH3 0x4E9 PUSH1 0x0 CODECOPY PUSH1 0x0 RETURN INVALID PUSH1 0x80 PUSH1 0x40 MSTORE CALLVALUE DUP1 ISZERO PUSH2 0x10 JUMPI PUSH1 0x0 DUP1 REVERT JUMPDEST POP PUSH1 0x4 CALLDATASIZE LT PUSH2 0x100 JUMPI PUSH1 0x0 CALLDATALOAD PUSH1 0xE0 SHR DUP1 PUSH4 0x715018A6 GT PUSH2 0x97 JUMPI DUP1 PUSH4 0xA457C2D7 GT PUSH2 0x66 JUMPI DUP1 PUSH4 0xA457C2D7 EQ PUSH2 0x29D JUMPI DUP1 PUSH4 0xA9059CBB EQ PUSH2 0x2CD JUMPI DUP1 PUSH4 0xDD62ED3E EQ PUSH2 0x2FD JUMPI DUP1 PUSH4 0xF2FDE38B EQ PUSH2 0x32D JUMPI PUSH2 0x100 JUMP JUMPDEST DUP1 PUSH4 0x715018A6 EQ PUSH2 0x23B JUMPI DUP1 PUSH4 0x8DA5CB5B EQ PUSH2 0x245 JUMPI DUP1 PUSH4 0x95D89B41 EQ PUSH2 0x263 JUMPI DUP1 PUSH4 0xA0712D68 EQ PUSH2 0x281 JUMPI PUSH2 0x100 JUMP JUMPDEST DUP1 PUSH4 0x23B872DD GT PUSH2 0xD3 JUMPI DUP1 PUSH4 0x23B872DD EQ PUSH2 0x18D JUMPI DUP1 PUSH4 0x313CE567 EQ PUSH2 0x1BD JUMPI DUP1 PUSH4 0x39509351 EQ PUSH2 0x1DB JUMPI DUP1 PUSH4 0x70A08231 EQ PUSH2 0x20B JUMPI PUSH2 0x100 JUMP JUMPDEST DUP1 PUSH4 0x1062ADE EQ PUSH2 0x105 JUMPI DUP1 PUSH4 0x6FDDE03 EQ PUSH2 0x121 JUMPI DUP1 PUSH4 0x95EA7B3 EQ PUSH2 0x13F JUMPI DUP1 PUSH4 0x18160DDD EQ PUSH2 0x16F JUMPI JUMPDEST PUSH1 0x0 DUP1 REVERT JUMPDEST PUSH2 0x11F PUSH1 0x4 DUP1 CALLDATASIZE SUB DUP2 ADD SWAP1 PUSH2 0x11A SWAP2 SWAP1 PUSH2 0x1201 JUMP JUMPDEST PUSH2 0x349 JUMP JUMPDEST STOP JUMPDEST PUSH2 0x129 PUSH2 0x3D5 JUMP JUMPDEST PUSH1 0x40 MLOAD PUSH2 0x136 SWAP2 SWAP1 PUSH2 0x14BE JUMP JUMPDEST PUSH1 0x40 MLOAD DUP1 SWAP2 SUB SWAP1 RETURN JUMPDEST PUSH2 0x159 PUSH1 0x4 DUP1 CALLDATASIZE SUB DUP2 ADD SWAP1 PUSH2 0x154 SWAP2 SWAP1 PUSH2 0x1250 JUMP JUMPDEST PUSH2 0x467 JUMP JUMPDEST PUSH1 0x40 MLOAD PUSH2 0x166 SWAP2 SWAP1 PUSH2 0x14A3 JUMP JUMPDEST PUSH1 0x40 MLOAD DUP1 SWAP2 SUB SWAP1 RETURN JUMPDEST PUSH2 0x177 PUSH2 0x485 JUMP JUMPDEST PUSH1 0x40 MLOAD PUSH2 0x184 SWAP2 SWAP1 PUSH2 0x1620 JUMP JUMPDEST PUSH1 0x40 MLOAD DUP1 SWAP2 SUB SWAP1 RETURN JUMPDEST PUSH2 0x1A7 PUSH1 0x4 DUP1 CALLDATASIZE SUB DUP2 ADD SWAP1 PUSH2 0x1A2 SWAP2 SWAP1 PUSH2 0x1201 JUMP JUMPDEST PUSH2 0x48F JUMP JUMPDEST PUSH1 0x40 MLOAD PUSH2 0x1B4 SWAP2 SWAP1 PUSH2 0x14A3 JUMP JUMPDEST PUSH1 0x40 MLOAD DUP1 SWAP2 SUB SWAP1 RETURN JUMPDEST PUSH2 0x1C5 PUSH2 0x587 JUMP JUMPDEST PUSH1 0x40 MLOAD PUSH2 0x1D2 SWAP2 SWAP1 PUSH2 0x163B JUMP JUMPDEST PUSH1 0x40 MLOAD DUP1 SWAP2 SUB SWAP1 RETURN JUMPDEST PUSH2 0x1F5 PUSH1 0x4 DUP1 CALLDATASIZE SUB DUP2 ADD SWAP1 PUSH2 0x1F0 SWAP2 SWAP1 PUSH2 0x1250 JUMP JUMPDEST PUSH2 0x59E JUMP JUMPDEST PUSH1 0x40 MLOAD PUSH2 0x202 SWAP2 SWAP1 PUSH2 0x14A3 JUMP JUMPDEST PUSH1 0x40 MLOAD DUP1 SWAP2 SUB SWAP1 RETURN JUMPDEST PUSH2 0x225 PUSH1 0x4 DUP1 CALLDATASIZE SUB DUP2 ADD SWAP1 PUSH2 0x220 SWAP2 SWAP1 PUSH2 0x119C JUMP JUMPDEST PUSH2 0x64A JUMP JUMPDEST PUSH1 0x40 MLOAD PUSH2 0x232 SWAP2 SWAP1 PUSH2 0x1620 JUMP JUMPDEST PUSH1 0x40 MLOAD DUP1 SWAP2 SUB SWAP1 RETURN JUMPDEST PUSH2 0x243 PUSH2 0x692 JUMP JUMPDEST STOP JUMPDEST PUSH2 0x24D PUSH2 0x71A JUMP JUMPDEST PUSH1 0x40 MLOAD PUSH2 0x25A SWAP2 SWAP1 PUSH2 0x1488 JUMP JUMPDEST PUSH1 0x40 MLOAD DUP1 SWAP2 SUB SWAP1 RETURN JUMPDEST PUSH2 0x26B PUSH2 0x744 JUMP JUMPDEST PUSH1 0x40 MLOAD PUSH2 0x278 SWAP2 SWAP1 PUSH2 0x14BE JUMP JUMPDEST PUSH1 0x40 MLOAD DUP1 SWAP2 SUB SWAP1 RETURN JUMPDEST PUSH2 0x29B PUSH1 0x4 DUP1 CALLDATASIZE SUB DUP2 ADD SWAP1 PUSH2 0x296 SWAP2 SWAP1 PUSH2 0x128C JUMP JUMPDEST PUSH2 0x7D6 JUMP JUMPDEST STOP JUMPDEST PUSH2 0x2B7 PUSH1 0x4 DUP1 CALLDATASIZE SUB DUP2 ADD SWAP1 PUSH2 0x2B2 SWAP2 SWAP1 PUSH2 0x1250 JUMP JUMPDEST PUSH2 0x866 JUMP JUMPDEST PUSH1 0x40 MLOAD PUSH2 0x2C4 SWAP2 SWAP1 PUSH2 0x14A3 JUMP JUMPDEST PUSH1 0x40 MLOAD DUP1 SWAP2 SUB SWAP1 RETURN JUMPDEST PUSH2 0x2E7 PUSH1 0x4 DUP1 CALLDATASIZE SUB DUP2 ADD SWAP1 PUSH2 0x2E2 SWAP2 SWAP1 PUSH2 0x1250 JUMP JUMPDEST PUSH2 0x951 JUMP JUMPDEST PUSH1 0x40 MLOAD PUSH2 0x2F4 SWAP2 SWAP1 PUSH2 0x14A3 JUMP JUMPDEST PUSH1 0x40 MLOAD DUP1 SWAP2 SUB SWAP1 RETURN JUMPDEST PUSH2 0x317 PUSH1 0x4 DUP1 CALLDATASIZE SUB DUP2 ADD SWAP1 PUSH2 0x312 SWAP2 SWAP1 PUSH2 0x11C5 JUMP JUMPDEST PUSH2 0x96F JUMP JUMPDEST PUSH1 0x40 MLOAD PUSH2 0x324 SWAP2 SWAP1 PUSH2 0x1620 JUMP JUMPDEST PUSH1 0x40 MLOAD DUP1 SWAP2 SUB SWAP1 RETURN JUMPDEST PUSH2 0x347 PUSH1 0x4 DUP1 CALLDATASIZE SUB DUP2 ADD SWAP1 PUSH2 0x342 SWAP2 SWAP1 PUSH2 0x119C JUMP JUMPDEST PUSH2 0x9F6 JUMP JUMPDEST STOP JUMPDEST PUSH2 0x351 PUSH2 0xAEE JUMP JUMPDEST PUSH20 0xFFFFFFFFFFFFFFFFFFFFFFFFFFFFFFFFFFFFFFFF AND PUSH2 0x36F PUSH2 0x71A JUMP JUMPDEST PUSH20 0xFFFFFFFFFFFFFFFFFFFFFFFFFFFFFFFFFFFFFFFF AND EQ PUSH2 0x3C5 JUMPI PUSH1 0x40 MLOAD PUSH32 0x8C379A000000000000000000000000000000000000000000000000000000000 DUP2 MSTORE PUSH1 0x4 ADD PUSH2 0x3BC SWAP1 PUSH2 0x1580 JUMP JUMPDEST PUSH1 0x40 MLOAD DUP1 SWAP2 SUB SWAP1 REVERT JUMPDEST PUSH2 0x3D0 DUP4 DUP4 DUP4 PUSH2 0xAF6 JUMP JUMPDEST POP POP POP JUMP JUMPDEST PUSH1 0x60 PUSH1 0x2 DUP1 SLOAD PUSH2 0x3E4 SWAP1 PUSH2 0x1750 JUMP JUMPDEST DUP1 PUSH1 0x1F ADD PUSH1 0x20 DUP1 SWAP2 DIV MUL PUSH1 0x20 ADD PUSH1 0x40 MLOAD SWAP1 DUP2 ADD PUSH1 0x40 MSTORE DUP1 SWAP3 SWAP2 SWAP1 DUP2 DUP2 MSTORE PUSH1 0x20 ADD DUP3 DUP1 SLOAD PUSH2 0x410 SWAP1 PUSH2 0x1750 JUMP JUMPDEST DUP1 ISZERO PUSH2 0x45D JUMPI DUP1 PUSH1 0x1F LT PUSH2 0x432 JUMPI PUSH2 0x100 DUP1 DUP4 SLOAD DIV MUL DUP4 MSTORE SWAP2 PUSH1 0x20 ADD SWAP2 PUSH2 0x45D JUMP JUMPDEST DUP3 ADD SWAP2 SWAP1 PUSH1 0x0 MSTORE PUSH1 0x20 PUSH1 0x0 KECCAK256 SWAP1 JUMPDEST DUP2 SLOAD DUP2 MSTORE SWAP1 PUSH1 0x1 ADD SWAP1 PUSH1 0x20 ADD DUP1 DUP4 GT PUSH2 0x440 JUMPI DUP3 SWAP1 SUB PUSH1 0x1F AND DUP3 ADD SWAP2 JUMPDEST POP POP POP POP POP SWAP1 POP SWAP1 JUMP JUMPDEST PUSH1 0x0 PUSH2 0x47B PUSH2 0x474 PUSH2 0xAEE JUMP JUMPDEST DUP5 DUP5 PUSH2 0xD77 JUMP JUMPDEST PUSH1 0x1 SWAP1 POP SWAP3 SWAP2 POP POP JUMP JUMPDEST PUSH1 0x0 PUSH1 0x5 SLOAD SWAP1 POP SWAP1 JUMP JUMPDEST PUSH1 0x0 PUSH2 0x49C DUP5 DUP5 DUP5 PUSH2 0xAF6 JUMP JUMPDEST PUSH1 0x0 PUSH1 0x1 PUSH1 0x0 DUP7 PUSH20 0xFFFFFFFFFFFFFFFFFFFFFFFFFFFFFFFFFFFFFFFF AND PUSH20 0xFFFFFFFFFFFFFFFFFFFFFFFFFFFFFFFFFFFFFFFF AND DUP2 MSTORE PUSH1 0x20 ADD SWAP1 DUP2 MSTORE PUSH1 0x20 ADD PUSH1 0x0 KECCAK256 PUSH1 0x0 PUSH2 0x4E7 PUSH2 0xAEE JUMP JUMPDEST PUSH20 0xFFFFFFFFFFFFFFFFFFFFFFFFFFFFFFFFFFFFFFFF AND PUSH20 0xFFFFFFFFFFFFFFFFFFFFFFFFFFFFFFFFFFFFFFFF AND DUP2 MSTORE PUSH1 0x20 ADD SWAP1 DUP2 MSTORE PUSH1 0x20 ADD PUSH1 0x0 KECCAK256 SLOAD SWAP1 POP DUP3 DUP2 LT ISZERO PUSH2 0x567 JUMPI PUSH1 0x40 MLOAD PUSH32 0x8C379A000000000000000000000000000000000000000000000000000000000 DUP2 MSTORE PUSH1 0x4 ADD PUSH2 0x55E SWAP1 PUSH2 0x1560 JUMP JUMPDEST PUSH1 0x40 MLOAD DUP1 SWAP2 SUB SWAP1 REVERT JUMPDEST PUSH2 0x57B DUP6 PUSH2 0x573 PUSH2 0xAEE JUMP JUMPDEST DUP6 DUP5 SUB PUSH2 0xD77 JUMP JUMPDEST PUSH1 0x1 SWAP2 POP POP SWAP4 SWAP3 POP POP POP JUMP JUMPDEST PUSH1 0x0 PUSH1 0x4 PUSH1 0x0 SWAP1 SLOAD SWAP1 PUSH2 0x100 EXP SWAP1 DIV PUSH1 0xFF AND SWAP1 POP SWAP1 JUMP JUMPDEST PUSH1 0x0 PUSH2 0x640 PUSH2 0x5AB PUSH2 0xAEE JUMP JUMPDEST DUP5 DUP5 PUSH1 0x1 PUSH1 0x0 PUSH2 0x5B9 PUSH2 0xAEE JUMP JUMPDEST PUSH20 0xFFFFFFFFFFFFFFFFFFFFFFFFFFFFFFFFFFFFFFFF AND PUSH20 0xFFFFFFFFFFFFFFFFFFFFFFFFFFFFFFFFFFFFFFFF AND DUP2 MSTORE PUSH1 0x20 ADD SWAP1 DUP2 MSTORE PUSH1 0x20 ADD PUSH1 0x0 KECCAK256 PUSH1 0x0 DUP9 PUSH20 0xFFFFFFFFFFFFFFFFFFFFFFFFFFFFFFFFFFFFFFFF AND PUSH20 0xFFFFFFFFFFFFFFFFFFFFFFFFFFFFFFFFFFFFFFFF AND DUP2 MSTORE PUSH1 0x20 ADD SWAP1 DUP2 MSTORE PUSH1 0x20 ADD PUSH1 0x0 KECCAK256 SLOAD PUSH2 0x63B SWAP2 SWAP1 PUSH2 0x1672 JUMP JUMPDEST PUSH2 0xD77 JUMP JUMPDEST PUSH1 0x1 SWAP1 POP SWAP3 SWAP2 POP POP JUMP JUMPDEST PUSH1 0x0 DUP1 PUSH1 0x0 DUP4 PUSH20 0xFFFFFFFFFFFFFFFFFFFFFFFFFFFFFFFFFFFFFFFF AND PUSH20 0xFFFFFFFFFFFFFFFFFFFFFFFFFFFFFFFFFFFFFFFF AND DUP2 MSTORE PUSH1 0x20 ADD SWAP1 DUP2 MSTORE PUSH1 0x20 ADD PUSH1 0x0 KECCAK256 SLOAD SWAP1 POP SWAP2 SWAP1 POP JUMP JUMPDEST PUSH2 0x69A PUSH2 0xAEE JUMP JUMPDEST PUSH20 0xFFFFFFFFFFFFFFFFFFFFFFFFFFFFFFFFFFFFFFFF AND PUSH2 0x6B8 PUSH2 0x71A JUMP JUMPDEST PUSH20 0xFFFFFFFFFFFFFFFFFFFFFFFFFFFFFFFFFFFFFFFF AND EQ PUSH2 0x70E JUMPI PUSH1 0x40 MLOAD PUSH32 0x8C379A000000000000000000000000000000000000000000000000000000000 DUP2 MSTORE PUSH1 0x4 ADD PUSH2 0x705 SWAP1 PUSH2 0x1580 JUMP JUMPDEST PUSH1 0x40 MLOAD DUP1 SWAP2 SUB SWAP1 REVERT JUMPDEST PUSH2 0x718 PUSH1 0x0 PUSH2 0xF42 JUMP JUMPDEST JUMP JUMPDEST PUSH1 0x0 PUSH1 0x6 PUSH1 0x0 SWAP1 SLOAD SWAP1 PUSH2 0x100 EXP SWAP1 DIV PUSH20 0xFFFFFFFFFFFFFFFFFFFFFFFFFFFFFFFFFFFFFFFF AND SWAP1 POP SWAP1 JUMP JUMPDEST PUSH1 0x60 PUSH1 0x3 DUP1 SLOAD PUSH2 0x753 SWAP1 PUSH2 0x1750 JUMP JUMPDEST DUP1 PUSH1 0x1F ADD PUSH1 0x20 DUP1 SWAP2 DIV MUL PUSH1 0x20 ADD PUSH1 0x40 MLOAD SWAP1 DUP2 ADD PUSH1 0x40 MSTORE DUP1 SWAP3 SWAP2 SWAP1 DUP2 DUP2 MSTORE PUSH1 0x20 ADD DUP3 DUP1 SLOAD PUSH2 0x77F SWAP1 PUSH2 0x1750 JUMP JUMPDEST DUP1 ISZERO PUSH2 0x7CC JUMPI DUP1 PUSH1 0x1F LT PUSH2 0x7A1 JUMPI PUSH2 0x100 DUP1 DUP4 SLOAD DIV MUL DUP4 MSTORE SWAP2 PUSH1 0x20 ADD SWAP2 PUSH2 0x7CC JUMP JUMPDEST DUP3 ADD SWAP2 SWAP1 PUSH1 0x0 MSTORE PUSH1 0x20 PUSH1 0x0 KECCAK256 SWAP1 JUMPDEST DUP2 SLOAD DUP2 MSTORE SWAP1 PUSH1 0x1 ADD SWAP1 PUSH1 0x20 ADD DUP1 DUP4 GT PUSH2 0x7AF JUMPI DUP3 SWAP1 SUB PUSH1 0x1F AND DUP3 ADD SWAP2 JUMPDEST POP POP POP POP POP SWAP1 POP SWAP1 JUMP JUMPDEST PUSH2 0x7DE PUSH2 0xAEE JUMP JUMPDEST PUSH20 0xFFFFFFFFFFFFFFFFFFFFFFFFFFFFFFFFFFFFFFFF AND PUSH2 0x7FC PUSH2 0x71A JUMP JUMPDEST PUSH20 0xFFFFFFFFFFFFFFFFFFFFFFFFFFFFFFFFFFFFFFFF AND EQ PUSH2 0x852 JUMPI PUSH1 0x40 MLOAD PUSH32 0x8C379A000000000000000000000000000000000000000000000000000000000 DUP2 MSTORE PUSH1 0x4 ADD PUSH2 0x849 SWAP1 PUSH2 0x1580 JUMP JUMPDEST PUSH1 0x40 MLOAD DUP1 SWAP2 SUB SWAP1 REVERT JUMPDEST PUSH2 0x863 PUSH2 0x85D PUSH2 0xAEE JUMP JUMPDEST DUP3 PUSH2 0x1008 JUMP JUMPDEST POP JUMP JUMPDEST PUSH1 0x0 DUP1 PUSH1 0x1 PUSH1 0x0 PUSH2 0x875 PUSH2 0xAEE JUMP JUMPDEST PUSH20 0xFFFFFFFFFFFFFFFFFFFFFFFFFFFFFFFFFFFFFFFF AND PUSH20 0xFFFFFFFFFFFFFFFFFFFFFFFFFFFFFFFFFFFFFFFF AND DUP2 MSTORE PUSH1 0x20 ADD SWAP1 DUP2 MSTORE PUSH1 0x20 ADD PUSH1 0x0 KECCAK256 PUSH1 0x0 DUP6 PUSH20 0xFFFFFFFFFFFFFFFFFFFFFFFFFFFFFFFFFFFFFFFF AND PUSH20 0xFFFFFFFFFFFFFFFFFFFFFFFFFFFFFFFFFFFFFFFF AND DUP2 MSTORE PUSH1 0x20 ADD SWAP1 DUP2 MSTORE PUSH1 0x20 ADD PUSH1 0x0 KECCAK256 SLOAD SWAP1 POP DUP3 DUP2 LT ISZERO PUSH2 0x932 JUMPI PUSH1 0x40 MLOAD PUSH32 0x8C379A000000000000000000000000000000000000000000000000000000000 DUP2 MSTORE PUSH1 0x4 ADD PUSH2 0x929 SWAP1 PUSH2 0x15E0 JUMP JUMPDEST PUSH1 0x40 MLOAD DUP1 SWAP2 SUB SWAP1 REVERT JUMPDEST PUSH2 0x946 PUSH2 0x93D PUSH2 0xAEE JUMP JUMPDEST DUP6 DUP6 DUP5 SUB PUSH2 0xD77 JUMP JUMPDEST PUSH1 0x1 SWAP2 POP POP SWAP3 SWAP2 POP POP JUMP JUMPDEST PUSH1 0x0 PUSH2 0x965 PUSH2 0x95E PUSH2 0xAEE JUMP JUMPDEST DUP5 DUP5 PUSH2 0xAF6 JUMP JUMPDEST PUSH1 0x1 SWAP1 POP SWAP3 SWAP2 POP POP JUMP JUMPDEST PUSH1 0x0 PUSH1 0x1 PUSH1 0x0 DUP5 PUSH20 0xFFFFFFFFFFFFFFFFFFFFFFFFFFFFFFFFFFFFFFFF AND PUSH20 0xFFFFFFFFFFFFFFFFFFFFFFFFFFFFFFFFFFFFFFFF AND DUP2 MSTORE PUSH1 0x20 ADD SWAP1 DUP2 MSTORE PUSH1 0x20 ADD PUSH1 0x0 KECCAK256 PUSH1 0x0 DUP4 PUSH20 0xFFFFFFFFFFFFFFFFFFFFFFFFFFFFFFFFFFFFFFFF AND PUSH20 0xFFFFFFFFFFFFFFFFFFFFFFFFFFFFFFFFFFFFFFFF AND DUP2 MSTORE PUSH1 0x20 ADD SWAP1 DUP2 MSTORE PUSH1 0x20 ADD PUSH1 0x0 KECCAK256 SLOAD SWAP1 POP SWAP3 SWAP2 POP POP JUMP JUMPDEST PUSH2 0x9FE PUSH2 0xAEE JUMP JUMPDEST PUSH20 0xFFFFFFFFFFFFFFFFFFFFFFFFFFFFFFFFFFFFFFFF AND PUSH2 0xA1C PUSH2 0x71A JUMP JUMPDEST PUSH20 0xFFFFFFFFFFFFFFFFFFFFFFFFFFFFFFFFFFFFFFFF AND EQ PUSH2 0xA72 JUMPI PUSH1 0x40 MLOAD PUSH32 0x8C379A000000000000000000000000000000000000000000000000000000000 DUP2 MSTORE PUSH1 0x4 ADD PUSH2 0xA69 SWAP1 PUSH2 0x1580 JUMP JUMPDEST PUSH1 0x40 MLOAD DUP1 SWAP2 SUB SWAP1 REVERT JUMPDEST PUSH1 0x0 PUSH20 0xFFFFFFFFFFFFFFFFFFFFFFFFFFFFFFFFFFFFFFFF AND DUP2 PUSH20 0xFFFFFFFFFFFFFFFFFFFFFFFFFFFFFFFFFFFFFFFF AND EQ ISZERO PUSH2 0xAE2 JUMPI PUSH1 0x40 MLOAD PUSH32 0x8C379A000000000000000000000000000000000000000000000000000000000 DUP2 MSTORE PUSH1 0x4 ADD PUSH2 0xAD9 SWAP1 PUSH2 0x1500 JUMP JUMPDEST PUSH1 0x40 MLOAD DUP1 SWAP2 SUB SWAP1 REVERT JUMPDEST PUSH2 0xAEB DUP2 PUSH2 0xF42 JUMP JUMPDEST POP JUMP JUMPDEST PUSH1 0x0 CALLER SWAP1 POP SWAP1 JUMP JUMPDEST PUSH1 0x0 PUSH20 0xFFFFFFFFFFFFFFFFFFFFFFFFFFFFFFFFFFFFFFFF AND DUP4 PUSH20 0xFFFFFFFFFFFFFFFFFFFFFFFFFFFFFFFFFFFFFFFF AND EQ ISZERO PUSH2 0xB66 JUMPI PUSH1 0x40 MLOAD PUSH32 0x8C379A000000000000000000000000000000000000000000000000000000000 DUP2 MSTORE PUSH1 0x4 ADD PUSH2 0xB5D SWAP1 PUSH2 0x15A0 JUMP JUMPDEST PUSH1 0x40 MLOAD DUP1 SWAP2 SUB SWAP1 REVERT JUMPDEST PUSH1 0x0 PUSH20 0xFFFFFFFFFFFFFFFFFFFFFFFFFFFFFFFFFFFFFFFF AND DUP3 PUSH20 0xFFFFFFFFFFFFFFFFFFFFFFFFFFFFFFFFFFFFFFFF AND EQ ISZERO PUSH2 0xBD6 JUMPI PUSH1 0x40 MLOAD PUSH32 0x8C379A000000000000000000000000000000000000000000000000000000000 DUP2 MSTORE PUSH1 0x4 ADD PUSH2 0xBCD SWAP1 PUSH2 0x14E0 JUMP JUMPDEST PUSH1 0x40 MLOAD DUP1 SWAP2 SUB SWAP1 REVERT JUMPDEST PUSH2 0xBE1 DUP4 DUP4 DUP4 PUSH2 0x1168 JUMP JUMPDEST PUSH1 0x0 DUP1 PUSH1 0x0 DUP6 PUSH20 0xFFFFFFFFFFFFFFFFFFFFFFFFFFFFFFFFFFFFFFFF AND PUSH20 0xFFFFFFFFFFFFFFFFFFFFFFFFFFFFFFFFFFFFFFFF AND DUP2 MSTORE PUSH1 0x20 ADD SWAP1 DUP2 MSTORE PUSH1 0x20 ADD PUSH1 0x0 KECCAK256 SLOAD SWAP1 POP DUP2 DUP2 LT ISZERO PUSH2 0xC67 JUMPI PUSH1 0x40 MLOAD PUSH32 0x8C379A000000000000000000000000000000000000000000000000000000000 DUP2 MSTORE PUSH1 0x4 ADD PUSH2 0xC5E SWAP1 PUSH2 0x1540 JUMP JUMPDEST PUSH1 0x40 MLOAD DUP1 SWAP2 SUB SWAP1 REVERT JUMPDEST DUP2 DUP2 SUB PUSH1 0x0 DUP1 DUP7 PUSH20 0xFFFFFFFFFFFFFFFFFFFFFFFFFFFFFFFFFFFFFFFF AND PUSH20 0xFFFFFFFFFFFFFFFFFFFFFFFFFFFFFFFFFFFFFFFF AND DUP2 MSTORE PUSH1 0x20 ADD SWAP1 DUP2 MSTORE PUSH1 0x20 ADD PUSH1 0x0 KECCAK256 DUP2 SWAP1 SSTORE POP DUP2 PUSH1 0x0 DUP1 DUP6 PUSH20 0xFFFFFFFFFFFFFFFFFFFFFFFFFFFFFFFFFFFFFFFF AND PUSH20 0xFFFFFFFFFFFFFFFFFFFFFFFFFFFFFFFFFFFFFFFF AND DUP2 MSTORE PUSH1 0x20 ADD SWAP1 DUP2 MSTORE PUSH1 0x20 ADD PUSH1 0x0 KECCAK256 PUSH1 0x0 DUP3 DUP3 SLOAD PUSH2 0xCFA SWAP2 SWAP1 PUSH2 0x1672 JUMP JUMPDEST SWAP3 POP POP DUP2 SWAP1 SSTORE POP DUP3 PUSH20 0xFFFFFFFFFFFFFFFFFFFFFFFFFFFFFFFFFFFFFFFF AND DUP5 PUSH20 0xFFFFFFFFFFFFFFFFFFFFFFFFFFFFFFFFFFFFFFFF AND PUSH32 0xDDF252AD1BE2C89B69C2B068FC378DAA952BA7F163C4A11628F55A4DF523B3EF DUP5 PUSH1 0x40 MLOAD PUSH2 0xD5E SWAP2 SWAP1 PUSH2 0x1620 JUMP JUMPDEST PUSH1 0x40 MLOAD DUP1 SWAP2 SUB SWAP1 LOG3 PUSH2 0xD71 DUP5 DUP5 DUP5 PUSH2 0x116D JUMP JUMPDEST POP POP POP POP JUMP JUMPDEST PUSH1 0x0 PUSH20 0xFFFFFFFFFFFFFFFFFFFFFFFFFFFFFFFFFFFFFFFF AND DUP4 PUSH20 0xFFFFFFFFFFFFFFFFFFFFFFFFFFFFFFFFFFFFFFFF AND EQ ISZERO PUSH2 0xDE7 JUMPI PUSH1 0x40 MLOAD PUSH32 0x8C379A000000000000000000000000000000000000000000000000000000000 DUP2 MSTORE PUSH1 0x4 ADD PUSH2 0xDDE SWAP1 PUSH2 0x15C0 JUMP JUMPDEST PUSH1 0x40 MLOAD DUP1 SWAP2 SUB SWAP1 REVERT JUMPDEST PUSH1 0x0 PUSH20 0xFFFFFFFFFFFFFFFFFFFFFFFFFFFFFFFFFFFFFFFF AND DUP3 PUSH20 0xFFFFFFFFFFFFFFFFFFFFFFFFFFFFFFFFFFFFFFFF AND EQ ISZERO PUSH2 0xE57 JUMPI PUSH1 0x40 MLOAD PUSH32 0x8C379A000000000000000000000000000000000000000000000000000000000 DUP2 MSTORE PUSH1 0x4 ADD PUSH2 0xE4E SWAP1 PUSH2 0x1520 JUMP JUMPDEST PUSH1 0x40 MLOAD DUP1 SWAP2 SUB SWAP1 REVERT JUMPDEST DUP1 PUSH1 0x1 PUSH1 0x0 DUP6 PUSH20 0xFFFFFFFFFFFFFFFFFFFFFFFFFFFFFFFFFFFFFFFF AND PUSH20 0xFFFFFFFFFFFFFFFFFFFFFFFFFFFFFFFFFFFFFFFF AND DUP2 MSTORE PUSH1 0x20 ADD SWAP1 DUP2 MSTORE PUSH1 0x20 ADD PUSH1 0x0 KECCAK256 PUSH1 0x0 DUP5 PUSH20 0xFFFFFFFFFFFFFFFFFFFFFFFFFFFFFFFFFFFFFFFF AND PUSH20 0xFFFFFFFFFFFFFFFFFFFFFFFFFFFFFFFFFFFFFFFF AND DUP2 MSTORE PUSH1 0x20 ADD SWAP1 DUP2 MSTORE PUSH1 0x20 ADD PUSH1 0x0 KECCAK256 DUP2 SWAP1 SSTORE POP DUP2 PUSH20 0xFFFFFFFFFFFFFFFFFFFFFFFFFFFFFFFFFFFFFFFF AND DUP4 PUSH20 0xFFFFFFFFFFFFFFFFFFFFFFFFFFFFFFFFFFFFFFFF AND PUSH32 0x8C5BE1E5EBEC7D5BD14F71427D1E84F3DD0314C0F7B2291E5B200AC8C7C3B925 DUP4 PUSH1 0x40 MLOAD PUSH2 0xF35 SWAP2 SWAP1 PUSH2 0x1620 JUMP JUMPDEST PUSH1 0x40 MLOAD DUP1 SWAP2 SUB SWAP1 LOG3 POP POP POP JUMP JUMPDEST PUSH1 0x0 PUSH1 0x6 PUSH1 0x0 SWAP1 SLOAD SWAP1 PUSH2 0x100 EXP SWAP1 DIV PUSH20 0xFFFFFFFFFFFFFFFFFFFFFFFFFFFFFFFFFFFFFFFF AND SWAP1 POP DUP2 PUSH1 0x6 PUSH1 0x0 PUSH2 0x100 EXP DUP2 SLOAD DUP2 PUSH20 0xFFFFFFFFFFFFFFFFFFFFFFFFFFFFFFFFFFFFFFFF MUL NOT AND SWAP1 DUP4 PUSH20 0xFFFFFFFFFFFFFFFFFFFFFFFFFFFFFFFFFFFFFFFF AND MUL OR SWAP1 SSTORE POP DUP2 PUSH20 0xFFFFFFFFFFFFFFFFFFFFFFFFFFFFFFFFFFFFFFFF AND DUP2 PUSH20 0xFFFFFFFFFFFFFFFFFFFFFFFFFFFFFFFFFFFFFFFF AND PUSH32 0x8BE0079C531659141344CD1FD0A4F28419497F9722A3DAAFE3B4186F6B6457E0 PUSH1 0x40 MLOAD PUSH1 0x40 MLOAD DUP1 SWAP2 SUB SWAP1 LOG3 POP POP JUMP JUMPDEST PUSH1 0x0 PUSH20 0xFFFFFFFFFFFFFFFFFFFFFFFFFFFFFFFFFFFFFFFF AND DUP3 PUSH20 0xFFFFFFFFFFFFFFFFFFFFFFFFFFFFFFFFFFFFFFFF AND EQ ISZERO PUSH2 0x1078 JUMPI PUSH1 0x40 MLOAD PUSH32 0x8C379A000000000000000000000000000000000000000000000000000000000 DUP2 MSTORE PUSH1 0x4 ADD PUSH2 0x106F SWAP1 PUSH2 0x1600 JUMP JUMPDEST PUSH1 0x40 MLOAD DUP1 SWAP2 SUB SWAP1 REVERT JUMPDEST PUSH2 0x1084 PUSH1 0x0 DUP4 DUP4 PUSH2 0x1168 JUMP JUMPDEST DUP1 PUSH1 0x5 PUSH1 0x0 DUP3 DUP3 SLOAD PUSH2 0x1096 SWAP2 SWAP1 PUSH2 0x1672 JUMP JUMPDEST SWAP3 POP POP DUP2 SWAP1 SSTORE POP DUP1 PUSH1 0x0 DUP1 DUP5 PUSH20 0xFFFFFFFFFFFFFFFFFFFFFFFFFFFFFFFFFFFFFFFF AND PUSH20 0xFFFFFFFFFFFFFFFFFFFFFFFFFFFFFFFFFFFFFFFF AND DUP2 MSTORE PUSH1 0x20 ADD SWAP1 DUP2 MSTORE PUSH1 0x20 ADD PUSH1 0x0 KECCAK256 PUSH1 0x0 DUP3 DUP3 SLOAD PUSH2 0x10EB SWAP2 SWAP1 PUSH2 0x1672 JUMP JUMPDEST SWAP3 POP POP DUP2 SWAP1 SSTORE POP DUP2 PUSH20 0xFFFFFFFFFFFFFFFFFFFFFFFFFFFFFFFFFFFFFFFF AND PUSH1 0x0 PUSH20 0xFFFFFFFFFFFFFFFFFFFFFFFFFFFFFFFFFFFFFFFF AND PUSH32 0xDDF252AD1BE2C89B69C2B068FC378DAA952BA7F163C4A11628F55A4DF523B3EF DUP4 PUSH1 0x40 MLOAD PUSH2 0x1150 SWAP2 SWAP1 PUSH2 0x1620 JUMP JUMPDEST PUSH1 0x40 MLOAD DUP1 SWAP2 SUB SWAP1 LOG3 PUSH2 0x1164 PUSH1 0x0 DUP4 DUP4 PUSH2 0x116D JUMP JUMPDEST POP POP JUMP JUMPDEST POP POP POP JUMP JUMPDEST POP POP POP JUMP JUMPDEST PUSH1 0x0 DUP2 CALLDATALOAD SWAP1 POP PUSH2 0x1181 DUP2 PUSH2 0x1ABB JUMP JUMPDEST SWAP3 SWAP2 POP POP JUMP JUMPDEST PUSH1 0x0 DUP2 CALLDATALOAD SWAP1 POP PUSH2 0x1196 DUP2 PUSH2 0x1AD2 JUMP JUMPDEST SWAP3 SWAP2 POP POP JUMP JUMPDEST PUSH1 0x0 PUSH1 0x20 DUP3 DUP5 SUB SLT ISZERO PUSH2 0x11AE JUMPI PUSH1 0x0 DUP1 REVERT JUMPDEST PUSH1 0x0 PUSH2 0x11BC DUP5 DUP3 DUP6 ADD PUSH2 0x1172 JUMP JUMPDEST SWAP2 POP POP SWAP3 SWAP2 POP POP JUMP JUMPDEST PUSH1 0x0 DUP1 PUSH1 0x40 DUP4 DUP6 SUB SLT ISZERO PUSH2 0x11D8 JUMPI PUSH1 0x0 DUP1 REVERT JUMPDEST PUSH1 0x0 PUSH2 0x11E6 DUP6 DUP3 DUP7 ADD PUSH2 0x1172 JUMP JUMPDEST SWAP3 POP POP PUSH1 0x20 PUSH2 0x11F7 DUP6 DUP3 DUP7 ADD PUSH2 0x1172 JUMP JUMPDEST SWAP2 POP POP SWAP3 POP SWAP3 SWAP1 POP JUMP JUMPDEST PUSH1 0x0 DUP1 PUSH1 0x0 PUSH1 0x60 DUP5 DUP7 SUB SLT ISZERO PUSH2 0x1216 JUMPI PUSH1 0x0 DUP1 REVERT JUMPDEST PUSH1 0x0 PUSH2 0x1224 DUP7 DUP3 DUP8 ADD PUSH2 0x1172 JUMP JUMPDEST SWAP4 POP POP PUSH1 0x20 PUSH2 0x1235 DUP7 DUP3 DUP8 ADD PUSH2 0x1172 JUMP JUMPDEST SWAP3 POP POP PUSH1 0x40 PUSH2 0x1246 DUP7 DUP3 DUP8 ADD PUSH2 0x1187 JUMP JUMPDEST SWAP2 POP POP SWAP3 POP SWAP3 POP SWAP3 JUMP JUMPDEST PUSH1 0x0 DUP1 PUSH1 0x40 DUP4 DUP6 SUB SLT ISZERO PUSH2 0x1263 JUMPI PUSH1 0x0 DUP1 REVERT JUMPDEST PUSH1 0x0 PUSH2 0x1271 DUP6 DUP3 DUP7 ADD PUSH2 0x1172 JUMP JUMPDEST SWAP3 POP POP PUSH1 0x20 PUSH2 0x1282 DUP6 DUP3 DUP7 ADD PUSH2 0x1187 JUMP JUMPDEST SWAP2 POP POP SWAP3 POP SWAP3 SWAP1 POP JUMP JUMPDEST PUSH1 0x0 PUSH1 0x20 DUP3 DUP5 SUB SLT ISZERO PUSH2 0x129E JUMPI PUSH1 0x0 DUP1 REVERT JUMPDEST PUSH1 0x0 PUSH2 0x12AC DUP5 DUP3 DUP6 ADD PUSH2 0x1187 JUMP JUMPDEST SWAP2 POP POP SWAP3 SWAP2 POP POP JUMP JUMPDEST PUSH2 0x12BE DUP2 PUSH2 0x16C8 JUMP JUMPDEST DUP3 MSTORE POP POP JUMP JUMPDEST PUSH2 0x12CD DUP2 PUSH2 0x16DA JUMP JUMPDEST DUP3 MSTORE POP POP JUMP JUMPDEST PUSH1 0x0 PUSH2 0x12DE DUP3 PUSH2 0x1656 JUMP JUMPDEST PUSH2 0x12E8 DUP2 DUP6 PUSH2 0x1661 JUMP JUMPDEST SWAP4 POP PUSH2 0x12F8 DUP2 DUP6 PUSH1 0x20 DUP7 ADD PUSH2 0x171D JUMP JUMPDEST PUSH2 0x1301 DUP2 PUSH2 0x17E0 JUMP JUMPDEST DUP5 ADD SWAP2 POP POP SWAP3 SWAP2 POP POP JUMP JUMPDEST PUSH1 0x0 PUSH2 0x1319 PUSH1 0x23 DUP4 PUSH2 0x1661 JUMP JUMPDEST SWAP2 POP PUSH2 0x1324 DUP3 PUSH2 0x17F1 JUMP JUMPDEST PUSH1 0x40 DUP3 ADD SWAP1 POP SWAP2 SWAP1 POP JUMP JUMPDEST PUSH1 0x0 PUSH2 0x133C PUSH1 0x26 DUP4 PUSH2 0x1661 JUMP JUMPDEST SWAP2 POP PUSH2 0x1347 DUP3 PUSH2 0x1840 JUMP JUMPDEST PUSH1 0x40 DUP3 ADD SWAP1 POP SWAP2 SWAP1 POP JUMP JUMPDEST PUSH1 0x0 PUSH2 0x135F PUSH1 0x22 DUP4 PUSH2 0x1661 JUMP JUMPDEST SWAP2 POP PUSH2 0x136A DUP3 PUSH2 0x188F JUMP JUMPDEST PUSH1 0x40 DUP3 ADD SWAP1 POP SWAP2 SWAP1 POP JUMP JUMPDEST PUSH1 0x0 PUSH2 0x1382 PUSH1 0x26 DUP4 PUSH2 0x1661 JUMP JUMPDEST SWAP2 POP PUSH2 0x138D DUP3 PUSH2 0x18DE JUMP JUMPDEST PUSH1 0x40 DUP3 ADD SWAP1 POP SWAP2 SWAP1 POP JUMP JUMPDEST PUSH1 0x0 PUSH2 0x13A5 PUSH1 0x28 DUP4 PUSH2 0x1661 JUMP JUMPDEST SWAP2 POP PUSH2 0x13B0 DUP3 PUSH2 0x192D JUMP JUMPDEST PUSH1 0x40 DUP3 ADD SWAP1 POP SWAP2 SWAP1 POP JUMP JUMPDEST PUSH1 0x0 PUSH2 0x13C8 PUSH1 0x20 DUP4 PUSH2 0x1661 JUMP JUMPDEST SWAP2 POP PUSH2 0x13D3 DUP3 PUSH2 0x197C JUMP JUMPDEST PUSH1 0x20 DUP3 ADD SWAP1 POP SWAP2 SWAP1 POP JUMP JUMPDEST PUSH1 0x0 PUSH2 0x13EB PUSH1 0x25 DUP4 PUSH2 0x1661 JUMP JUMPDEST SWAP2 POP PUSH2 0x13F6 DUP3 PUSH2 0x19A5 JUMP JUMPDEST PUSH1 0x40 DUP3 ADD SWAP1 POP SWAP2 SWAP1 POP JUMP JUMPDEST PUSH1 0x0 PUSH2 0x140E PUSH1 0x24 DUP4 PUSH2 0x1661 JUMP JUMPDEST SWAP2 POP PUSH2 0x1419 DUP3 PUSH2 0x19F4 JUMP JUMPDEST PUSH1 0x40 DUP3 ADD SWAP1 POP SWAP2 SWAP1 POP JUMP JUMPDEST PUSH1 0x0 PUSH2 0x1431 PUSH1 0x25 DUP4 PUSH2 0x1661 JUMP JUMPDEST SWAP2 POP PUSH2 0x143C DUP3 PUSH2 0x1A43 JUMP JUMPDEST PUSH1 0x40 DUP3 ADD SWAP1 POP SWAP2 SWAP1 POP JUMP JUMPDEST PUSH1 0x0 PUSH2 0x1454 PUSH1 0x1F DUP4 PUSH2 0x1661 JUMP JUMPDEST SWAP2 POP PUSH2 0x145F DUP3 PUSH2 0x1A92 JUMP JUMPDEST PUSH1 0x20 DUP3 ADD SWAP1 POP SWAP2 SWAP1 POP JUMP JUMPDEST PUSH2 0x1473 DUP2 PUSH2 0x1706 JUMP JUMPDEST DUP3 MSTORE POP POP JUMP JUMPDEST PUSH2 0x1482 DUP2 PUSH2 0x1710 JUMP JUMPDEST DUP3 MSTORE POP POP JUMP JUMPDEST PUSH1 0x0 PUSH1 0x20 DUP3 ADD SWAP1 POP PUSH2 0x149D PUSH1 0x0 DUP4 ADD DUP5 PUSH2 0x12B5 JUMP JUMPDEST SWAP3 SWAP2 POP POP JUMP JUMPDEST PUSH1 0x0 PUSH1 0x20 DUP3 ADD SWAP1 POP PUSH2 0x14B8 PUSH1 0x0 DUP4 ADD DUP5 PUSH2 0x12C4 JUMP JUMPDEST SWAP3 SWAP2 POP POP JUMP JUMPDEST PUSH1 0x0 PUSH1 0x20 DUP3 ADD SWAP1 POP DUP2 DUP2 SUB PUSH1 0x0 DUP4 ADD MSTORE PUSH2 0x14D8 DUP2 DUP5 PUSH2 0x12D3 JUMP JUMPDEST SWAP1 POP SWAP3 SWAP2 POP POP JUMP JUMPDEST PUSH1 0x0 PUSH1 0x20 DUP3 ADD SWAP1 POP DUP2 DUP2 SUB PUSH1 0x0 DUP4 ADD MSTORE PUSH2 0x14F9 DUP2 PUSH2 0x130C JUMP JUMPDEST SWAP1 POP SWAP2 SWAP1 POP JUMP JUMPDEST PUSH1 0x0 PUSH1 0x20 DUP3 ADD SWAP1 POP DUP2 DUP2 SUB PUSH1 0x0 DUP4 ADD MSTORE PUSH2 0x1519 DUP2 PUSH2 0x132F JUMP JUMPDEST SWAP1 POP SWAP2 SWAP1 POP JUMP JUMPDEST PUSH1 0x0 PUSH1 0x20 DUP3 ADD SWAP1 POP DUP2 DUP2 SUB PUSH1 0x0 DUP4 ADD MSTORE PUSH2 0x1539 DUP2 PUSH2 0x1352 JUMP JUMPDEST SWAP1 POP SWAP2 SWAP1 POP JUMP JUMPDEST PUSH1 0x0 PUSH1 0x20 DUP3 ADD SWAP1 POP DUP2 DUP2 SUB PUSH1 0x0 DUP4 ADD MSTORE PUSH2 0x1559 DUP2 PUSH2 0x1375 JUMP JUMPDEST SWAP1 POP SWAP2 SWAP1 POP JUMP JUMPDEST PUSH1 0x0 PUSH1 0x20 DUP3 ADD SWAP1 POP DUP2 DUP2 SUB PUSH1 0x0 DUP4 ADD MSTORE PUSH2 0x1579 DUP2 PUSH2 0x1398 JUMP JUMPDEST SWAP1 POP SWAP2 SWAP1 POP JUMP JUMPDEST PUSH1 0x0 PUSH1 0x20 DUP3 ADD SWAP1 POP DUP2 DUP2 SUB PUSH1 0x0 DUP4 ADD MSTORE PUSH2 0x1599 DUP2 PUSH2 0x13BB JUMP JUMPDEST SWAP1 POP SWAP2 SWAP1 POP JUMP JUMPDEST PUSH1 0x0 PUSH1 0x20 DUP3 ADD SWAP1 POP DUP2 DUP2 SUB PUSH1 0x0 DUP4 ADD MSTORE PUSH2 0x15B9 DUP2 PUSH2 0x13DE JUMP JUMPDEST SWAP1 POP SWAP2 SWAP1 POP JUMP JUMPDEST PUSH1 0x0 PUSH1 0x20 DUP3 ADD SWAP1 POP DUP2 DUP2 SUB PUSH1 0x0 DUP4 ADD MSTORE PUSH2 0x15D9 DUP2 PUSH2 0x1401 JUMP JUMPDEST SWAP1 POP SWAP2 SWAP1 POP JUMP JUMPDEST PUSH1 0x0 PUSH1 0x20 DUP3 ADD SWAP1 POP DUP2 DUP2 SUB PUSH1 0x0 DUP4 ADD MSTORE PUSH2 0x15F9 DUP2 PUSH2 0x1424 JUMP JUMPDEST SWAP1 POP SWAP2 SWAP1 POP JUMP JUMPDEST PUSH1 0x0 PUSH1 0x20 DUP3 ADD SWAP1 POP DUP2 DUP2 SUB PUSH1 0x0 DUP4 ADD MSTORE PUSH2 0x1619 DUP2 PUSH2 0x1447 JUMP JUMPDEST SWAP1 POP SWAP2 SWAP1 POP JUMP JUMPDEST PUSH1 0x0 PUSH1 0x20 DUP3 ADD SWAP1 POP PUSH2 0x1635 PUSH1 0x0 DUP4 ADD DUP5 PUSH2 0x146A JUMP JUMPDEST SWAP3 SWAP2 POP POP JUMP JUMPDEST PUSH1 0x0 PUSH1 0x20 DUP3 ADD SWAP1 POP PUSH2 0x1650 PUSH1 0x0 DUP4 ADD DUP5 PUSH2 0x1479 JUMP JUMPDEST SWAP3 SWAP2 POP POP JUMP JUMPDEST PUSH1 0x0 DUP2 MLOAD SWAP1 POP SWAP2 SWAP1 POP JUMP JUMPDEST PUSH1 0x0 DUP3 DUP3 MSTORE PUSH1 0x20 DUP3 ADD SWAP1 POP SWAP3 SWAP2 POP POP JUMP JUMPDEST PUSH1 0x0 PUSH2 0x167D DUP3 PUSH2 0x1706 JUMP JUMPDEST SWAP2 POP PUSH2 0x1688 DUP4 PUSH2 0x1706 JUMP JUMPDEST SWAP3 POP DUP3 PUSH32 0xFFFFFFFFFFFFFFFFFFFFFFFFFFFFFFFFFFFFFFFFFFFFFFFFFFFFFFFFFFFFFFFF SUB DUP3 GT ISZERO PUSH2 0x16BD JUMPI PUSH2 0x16BC PUSH2 0x1782 JUMP JUMPDEST JUMPDEST DUP3 DUP3 ADD SWAP1 POP SWAP3 SWAP2 POP POP JUMP JUMPDEST PUSH1 0x0 PUSH2 0x16D3 DUP3 PUSH2 0x16E6 JUMP JUMPDEST SWAP1 POP SWAP2 SWAP1 POP JUMP JUMPDEST PUSH1 0x0 DUP2 ISZERO ISZERO SWAP1 POP SWAP2 SWAP1 POP JUMP JUMPDEST PUSH1 0x0 PUSH20 0xFFFFFFFFFFFFFFFFFFFFFFFFFFFFFFFFFFFFFFFF DUP3 AND SWAP1 POP SWAP2 SWAP1 POP JUMP JUMPDEST PUSH1 0x0 DUP2 SWAP1 POP SWAP2 SWAP1 POP JUMP JUMPDEST PUSH1 0x0 PUSH1 0xFF DUP3 AND SWAP1 POP SWAP2 SWAP1 POP JUMP JUMPDEST PUSH1 0x0 JUMPDEST DUP4 DUP2 LT ISZERO PUSH2 0x173B JUMPI DUP1 DUP3 ADD MLOAD DUP2 DUP5 ADD MSTORE PUSH1 0x20 DUP2 ADD SWAP1 POP PUSH2 0x1720 JUMP JUMPDEST DUP4 DUP2 GT ISZERO PUSH2 0x174A JUMPI PUSH1 0x0 DUP5 DUP5 ADD MSTORE JUMPDEST POP POP POP POP JUMP JUMPDEST PUSH1 0x0 PUSH1 0x2 DUP3 DIV SWAP1 POP PUSH1 0x1 DUP3 AND DUP1 PUSH2 0x1768 JUMPI PUSH1 0x7F DUP3 AND SWAP2 POP JUMPDEST PUSH1 0x20 DUP3 LT DUP2 EQ ISZERO PUSH2 0x177C JUMPI PUSH2 0x177B PUSH2 0x17B1 JUMP JUMPDEST JUMPDEST POP SWAP2 SWAP1 POP JUMP JUMPDEST PUSH32 0x4E487B7100000000000000000000000000000000000000000000000000000000 PUSH1 0x0 MSTORE PUSH1 0x11 PUSH1 0x4 MSTORE PUSH1 0x24 PUSH1 0x0 REVERT JUMPDEST PUSH32 0x4E487B7100000000000000000000000000000000000000000000000000000000 PUSH1 0x0 MSTORE PUSH1 0x22 PUSH1 0x4 MSTORE PUSH1 0x24 PUSH1 0x0 REVERT JUMPDEST PUSH1 0x0 PUSH1 0x1F NOT PUSH1 0x1F DUP4 ADD AND SWAP1 POP SWAP2 SWAP1 POP JUMP JUMPDEST PUSH32 0x45524332303A207472616E7366657220746F20746865207A65726F2061646472 PUSH1 0x0 DUP3 ADD MSTORE PUSH32 0x6573730000000000000000000000000000000000000000000000000000000000 PUSH1 0x20 DUP3 ADD MSTORE POP JUMP JUMPDEST PUSH32 0x4F776E61626C653A206E6577206F776E657220697320746865207A65726F2061 PUSH1 0x0 DUP3 ADD MSTORE PUSH32 0x6464726573730000000000000000000000000000000000000000000000000000 PUSH1 0x20 DUP3 ADD MSTORE POP JUMP JUMPDEST PUSH32 0x45524332303A20617070726F766520746F20746865207A65726F206164647265 PUSH1 0x0 DUP3 ADD MSTORE PUSH32 0x7373000000000000000000000000000000000000000000000000000000000000 PUSH1 0x20 DUP3 ADD MSTORE POP JUMP JUMPDEST PUSH32 0x45524332303A207472616E7366657220616D6F756E7420657863656564732062 PUSH1 0x0 DUP3 ADD MSTORE PUSH32 0x616C616E63650000000000000000000000000000000000000000000000000000 PUSH1 0x20 DUP3 ADD MSTORE POP JUMP JUMPDEST PUSH32 0x45524332303A207472616E7366657220616D6F756E7420657863656564732061 PUSH1 0x0 DUP3 ADD MSTORE PUSH32 0x6C6C6F77616E6365000000000000000000000000000000000000000000000000 PUSH1 0x20 DUP3 ADD MSTORE POP JUMP JUMPDEST PUSH32 0x4F776E61626C653A2063616C6C6572206973206E6F7420746865206F776E6572 PUSH1 0x0 DUP3 ADD MSTORE POP JUMP JUMPDEST PUSH32 0x45524332303A207472616E736665722066726F6D20746865207A65726F206164 PUSH1 0x0 DUP3 ADD MSTORE PUSH32 0x6472657373000000000000000000000000000000000000000000000000000000 PUSH1 0x20 DUP3 ADD MSTORE POP JUMP JUMPDEST PUSH32 0x45524332303A20617070726F76652066726F6D20746865207A65726F20616464 PUSH1 0x0 DUP3 ADD MSTORE PUSH32 0x7265737300000000000000000000000000000000000000000000000000000000 PUSH1 0x20 DUP3 ADD MSTORE POP JUMP JUMPDEST PUSH32 0x45524332303A2064656372656173656420616C6C6F77616E63652062656C6F77 PUSH1 0x0 DUP3 ADD MSTORE PUSH32 0x207A65726F000000000000000000000000000000000000000000000000000000 PUSH1 0x20 DUP3 ADD MSTORE POP JUMP JUMPDEST PUSH32 0x45524332303A206D696E7420746F20746865207A65726F206164647265737300 PUSH1 0x0 DUP3 ADD MSTORE POP JUMP JUMPDEST PUSH2 0x1AC4 DUP2 PUSH2 0x16C8 JUMP JUMPDEST DUP2 EQ PUSH2 0x1ACF JUMPI PUSH1 0x0 DUP1 REVERT JUMPDEST POP JUMP JUMPDEST PUSH2 0x1ADB DUP2 PUSH2 0x1706 JUMP JUMPDEST DUP2 EQ PUSH2 0x1AE6 JUMPI PUSH1 0x0 DUP1 REVERT JUMPDEST POP JUMP INVALID LOG2 PUSH5 0x6970667358 0x22 SLT KECCAK256 PUSH26 0x6E0817115B65CF56639A63B208558765DADAB79E170FF0F6B8D0 0x21 PUSH21 0x38564736F6C6343000804003300000000000000 "
				},
				"gasEstimates": {
					"creation": {
						"codeDepositCost": "1388600",
						"executionCost": "infinite",
						"totalCost": "infinite"
					},
					"external": {
						"allowance(address,address)": "infinite",
						"approve(address,uint256)": "infinite",
						"balanceOf(address)": "1630",
						"decimals()": "1224",
						"decreaseAllowance(address,uint256)": "infinite",
						"forceToTransfer(address,address,uint256)": "infinite",
						"increaseAllowance(address,uint256)": "infinite",
						"mint(uint256)": "infinite",
						"name()": "infinite",
						"owner()": "1267",
						"renounceOwnership()": "24397",
						"symbol()": "infinite",
						"totalSupply()": "1227",
						"transfer(address,uint256)": "infinite",
						"transferFrom(address,address,uint256)": "infinite",
						"transferOwnership(address)": "24811"
					}
				},
				"methodIdentifiers": {
					"allowance(address,address)": "dd62ed3e",
					"approve(address,uint256)": "095ea7b3",
					"balanceOf(address)": "70a08231",
					"decimals()": "313ce567",
					"decreaseAllowance(address,uint256)": "a457c2d7",
					"forceToTransfer(address,address,uint256)": "01062ade",
					"increaseAllowance(address,uint256)": "39509351",
					"mint(uint256)": "a0712d68",
					"name()": "06fdde03",
					"owner()": "8da5cb5b",
					"renounceOwnership()": "715018a6",
					"symbol()": "95d89b41",
					"totalSupply()": "18160ddd",
					"transfer(address,uint256)": "a9059cbb",
					"transferFrom(address,address,uint256)": "23b872dd",
					"transferOwnership(address)": "f2fde38b"
				}
			},
			"userdoc": {
				"kind": "user",
				"methods": {},
				"version": 1
			}
		}
	}
}