{
	"contracts/TileNFT.sol": {
		"TileNFT": {
			"abi": [
				{
					"inputs": [],
					"stateMutability": "nonpayable",
					"type": "constructor"
				},
				{
					"anonymous": false,
					"inputs": [
						{
							"indexed": true,
							"internalType": "address",
							"name": "owner",
							"type": "address"
						},
						{
							"indexed": true,
							"internalType": "address",
							"name": "approved",
							"type": "address"
						},
						{
							"indexed": true,
							"internalType": "uint256",
							"name": "tokenId",
							"type": "uint256"
						}
					],
					"name": "Approval",
					"type": "event"
				},
				{
					"anonymous": false,
					"inputs": [
						{
							"indexed": true,
							"internalType": "address",
							"name": "owner",
							"type": "address"
						},
						{
							"indexed": true,
							"internalType": "address",
							"name": "operator",
							"type": "address"
						},
						{
							"indexed": false,
							"internalType": "bool",
							"name": "approved",
							"type": "bool"
						}
					],
					"name": "ApprovalForAll",
					"type": "event"
				},
				{
					"anonymous": false,
					"inputs": [
						{
							"indexed": true,
							"internalType": "address",
							"name": "from",
							"type": "address"
						},
						{
							"indexed": true,
							"internalType": "address",
							"name": "to",
							"type": "address"
						},
						{
							"indexed": true,
							"internalType": "uint256",
							"name": "tokenId",
							"type": "uint256"
						}
					],
					"name": "Transfer",
					"type": "event"
				},
				{
					"inputs": [
						{
							"internalType": "address",
							"name": "to",
							"type": "address"
						},
						{
							"internalType": "uint256",
							"name": "tokenId",
							"type": "uint256"
						}
					],
					"name": "approve",
					"outputs": [],
					"stateMutability": "nonpayable",
					"type": "function"
				},
				{
					"inputs": [
						{
							"internalType": "address",
							"name": "owner",
							"type": "address"
						}
					],
					"name": "balanceOf",
					"outputs": [
						{
							"internalType": "uint256",
							"name": "",
							"type": "uint256"
						}
					],
					"stateMutability": "view",
					"type": "function"
				},
				{
					"inputs": [
						{
							"internalType": "uint256",
							"name": "_tokenId",
							"type": "uint256"
						}
					],
					"name": "burn",
					"outputs": [],
					"stateMutability": "nonpayable",
					"type": "function"
				},
				{
					"inputs": [
						{
							"internalType": "uint256",
							"name": "tokenId",
							"type": "uint256"
						}
					],
					"name": "getApproved",
					"outputs": [
						{
							"internalType": "address",
							"name": "",
							"type": "address"
						}
					],
					"stateMutability": "view",
					"type": "function"
				},
				{
					"inputs": [
						{
							"internalType": "address",
							"name": "owner",
							"type": "address"
						},
						{
							"internalType": "address",
							"name": "operator",
							"type": "address"
						}
					],
					"name": "isApprovedForAll",
					"outputs": [
						{
							"internalType": "bool",
							"name": "",
							"type": "bool"
						}
					],
					"stateMutability": "view",
					"type": "function"
				},
				{
					"inputs": [
						{
							"internalType": "uint256",
							"name": "_tokenId",
							"type": "uint256"
						}
					],
					"name": "mint",
					"outputs": [],
					"stateMutability": "nonpayable",
					"type": "function"
				},
				{
					"inputs": [],
					"name": "name",
					"outputs": [
						{
							"internalType": "string",
							"name": "",
							"type": "string"
						}
					],
					"stateMutability": "view",
					"type": "function"
				},
				{
					"inputs": [
						{
							"internalType": "uint256",
							"name": "tokenId",
							"type": "uint256"
						}
					],
					"name": "ownerOf",
					"outputs": [
						{
							"internalType": "address",
							"name": "",
							"type": "address"
						}
					],
					"stateMutability": "view",
					"type": "function"
				},
				{
					"inputs": [
						{
							"internalType": "address",
							"name": "from",
							"type": "address"
						},
						{
							"internalType": "address",
							"name": "to",
							"type": "address"
						},
						{
							"internalType": "uint256",
							"name": "tokenId",
							"type": "uint256"
						}
					],
					"name": "safeTransferFrom",
					"outputs": [],
					"stateMutability": "nonpayable",
					"type": "function"
				},
				{
					"inputs": [
						{
							"internalType": "address",
							"name": "from",
							"type": "address"
						},
						{
							"internalType": "address",
							"name": "to",
							"type": "address"
						},
						{
							"internalType": "uint256",
							"name": "tokenId",
							"type": "uint256"
						},
						{
							"internalType": "bytes",
							"name": "_data",
							"type": "bytes"
						}
					],
					"name": "safeTransferFrom",
					"outputs": [],
					"stateMutability": "nonpayable",
					"type": "function"
				},
				{
					"inputs": [
						{
							"internalType": "address",
							"name": "operator",
							"type": "address"
						},
						{
							"internalType": "bool",
							"name": "approved",
							"type": "bool"
						}
					],
					"name": "setApprovalForAll",
					"outputs": [],
					"stateMutability": "nonpayable",
					"type": "function"
				},
				{
					"inputs": [
						{
							"internalType": "bytes4",
							"name": "interfaceId",
							"type": "bytes4"
						}
					],
					"name": "supportsInterface",
					"outputs": [
						{
							"internalType": "bool",
							"name": "",
							"type": "bool"
						}
					],
					"stateMutability": "view",
					"type": "function"
				},
				{
					"inputs": [],
					"name": "symbol",
					"outputs": [
						{
							"internalType": "string",
							"name": "",
							"type": "string"
						}
					],
					"stateMutability": "view",
					"type": "function"
				},
				{
					"inputs": [
						{
							"internalType": "uint256",
							"name": "tokenId",
							"type": "uint256"
						}
					],
					"name": "tokenURI",
					"outputs": [
						{
							"internalType": "string",
							"name": "",
							"type": "string"
						}
					],
					"stateMutability": "view",
					"type": "function"
				},
				{
					"inputs": [
						{
							"internalType": "address",
							"name": "from",
							"type": "address"
						},
						{
							"internalType": "address",
							"name": "to",
							"type": "address"
						},
						{
							"internalType": "uint256",
							"name": "tokenId",
							"type": "uint256"
						}
					],
					"name": "transferFrom",
					"outputs": [],
					"stateMutability": "nonpayable",
					"type": "function"
				}
			],
			"devdoc": {
				"kind": "dev",
				"methods": {
					"approve(address,uint256)": {
						"details": "See {IERC721-approve}. 토큰 권한은 특정 주소에게 부여한다. NFT의 소유자만 권한을 부여할 수 있어야 한다. 권한이 부여되면 Approval 이벤트를 발생시킨다."
					},
					"balanceOf(address)": {
						"details": "See {IERC721-balanceOf}. 특정 주소가 몇 개의 NFT 토큰을 보유하는지 반환한다. 매개변수는 0 주소(address(0)일 수 없다.)"
					},
					"getApproved(uint256)": {
						"details": "See {IERC721-getApproved}. 토큰의 approve 권한을 가진 주소를 반환한다."
					},
					"isApprovedForAll(address,address)": {
						"details": "See {IERC721-isApprovedForAll}. 특정 주소가 operator 권한을 갖는지 반환한다."
					},
					"name()": {
						"details": "See {IERC721Metadata-name}."
					},
					"ownerOf(uint256)": {
						"details": "See {IERC721-ownerOf}. 특정 토큰의 소유자 주소를 반환한다."
					},
					"safeTransferFrom(address,address,uint256)": {
						"details": "See {IERC721-safeTransferFrom}."
					},
					"safeTransferFrom(address,address,uint256,bytes)": {
						"details": "See {IERC721-safeTransferFrom}. NFT 전송 함수 1. 송금을 지시할 수 있는 대상은 NFT의 소유 당사자(ownerOf()), 승인 받은 주소, 지정된 관리자 주소이다. 2. tokenId가 유효한 토큰인지 확인할 수 있어야 한다. 3. 받는 주소가 0 주소가 아닌지 확인한다. 위 조건이 맞다면, 함수 내부에서 _balances와 _owners 정보를 변경하고 Transfer 이벤트를 발생시킨다."
					},
					"setApprovalForAll(address,bool)": {
						"details": "See {IERC721-setApprovalForAll}. 토큰의 operator를 설정한다. operator 란 특정 소유자의 토큰을 전송할 수 있는 모든 권한을 가지며, 토큰 소유자에 의해서만 권한을 지정할 수 있어야 한다. 함수 호출 시  ApprovalForAll 이벤트를 발생시킨다."
					},
					"supportsInterface(bytes4)": {
						"details": "See {IERC165-supportsInterface}."
					},
					"symbol()": {
						"details": "See {IERC721Metadata-symbol}."
					},
					"tokenURI(uint256)": {
						"details": "See {IERC721Metadata-tokenURI}."
					},
					"transferFrom(address,address,uint256)": {
						"details": "See {IERC721-transferFrom}."
					}
				},
				"version": 1
			},
			"evm": {
				"assembly": "    /* \"contracts/TileNFT.sol\":99:389  contract TileNFT is ERC721 {\r... */\n  mstore(0x40, 0x80)\n    /* \"contracts/TileNFT.sol\":133:170  constructor() ERC721(\"LAND\", \"LD\") {} */\n  callvalue\n  dup1\n  iszero\n  tag_1\n  jumpi\n  0x00\n  dup1\n  revert\ntag_1:\n  pop\n    /* \"contracts/token/ERC721/ERC721.sol\":1273:1389  constructor(string memory name_, string memory symbol_) {\r... */\n  mload(0x40)\n  dup1\n  0x40\n  add\n  0x40\n  mstore\n  dup1\n  0x04\n  dup2\n  mstore\n  0x20\n  add\n  0x4c414e4400000000000000000000000000000000000000000000000000000000\n  dup2\n  mstore\n  pop\n  mload(0x40)\n  dup1\n  0x40\n  add\n  0x40\n  mstore\n  dup1\n  0x02\n  dup2\n  mstore\n  0x20\n  add\n  0x4c44000000000000000000000000000000000000000000000000000000000000\n  dup2\n  mstore\n  pop\n    /* \"contracts/token/ERC721/ERC721.sol\":1348:1353  name_ */\n  dup2\n    /* \"contracts/token/ERC721/ERC721.sol\":1340:1345  _name */\n  0x00\n    /* \"contracts/token/ERC721/ERC721.sol\":1340:1353  _name = name_ */\n  swap1\n  dup1\n  mload\n  swap1\n  0x20\n  add\n  swap1\n  tag_5\n  swap3\n  swap2\n  swap1\n  tag_6\n  jump\t// in\ntag_5:\n  pop\n    /* \"contracts/token/ERC721/ERC721.sol\":1374:1381  symbol_ */\n  dup1\n    /* \"contracts/token/ERC721/ERC721.sol\":1364:1371  _symbol */\n  0x01\n    /* \"contracts/token/ERC721/ERC721.sol\":1364:1381  _symbol = symbol_ */\n  swap1\n  dup1\n  mload\n  swap1\n  0x20\n  add\n  swap1\n  tag_7\n  swap3\n  swap2\n  swap1\n  tag_6\n  jump\t// in\ntag_7:\n  pop\n    /* \"contracts/token/ERC721/ERC721.sol\":1273:1389  constructor(string memory name_, string memory symbol_) {\r... */\n  pop\n  pop\n    /* \"contracts/TileNFT.sol\":99:389  contract TileNFT is ERC721 {\r... */\n  jump(tag_9)\ntag_6:\n  dup3\n  dup1\n  sload\n  tag_10\n  swap1\n  tag_11\n  jump\t// in\ntag_10:\n  swap1\n  0x00\n  mstore\n  keccak256(0x00, 0x20)\n  swap1\n  0x1f\n  add\n  0x20\n  swap1\n  div\n  dup2\n  add\n  swap3\n  dup3\n  tag_13\n  jumpi\n  0x00\n  dup6\n  sstore\n  jump(tag_12)\ntag_13:\n  dup3\n  0x1f\n  lt\n  tag_14\n  jumpi\n  dup1\n  mload\n  not(0xff)\n  and\n  dup4\n  dup1\n  add\n  or\n  dup6\n  sstore\n  jump(tag_12)\ntag_14:\n  dup3\n  dup1\n  add\n  0x01\n  add\n  dup6\n  sstore\n  dup3\n  iszero\n  tag_12\n  jumpi\n  swap2\n  dup3\n  add\ntag_15:\n  dup3\n  dup2\n  gt\n  iszero\n  tag_16\n  jumpi\n  dup3\n  mload\n  dup3\n  sstore\n  swap2\n  0x20\n  add\n  swap2\n  swap1\n  0x01\n  add\n  swap1\n  jump(tag_15)\ntag_16:\ntag_12:\n  pop\n  swap1\n  pop\n  tag_17\n  swap2\n  swap1\n  tag_18\n  jump\t// in\ntag_17:\n  pop\n  swap1\n  jump\t// out\ntag_18:\ntag_19:\n  dup1\n  dup3\n  gt\n  iszero\n  tag_20\n  jumpi\n  0x00\n  dup2\n  0x00\n  swap1\n  sstore\n  pop\n  0x01\n  add\n  jump(tag_19)\ntag_20:\n  pop\n  swap1\n  jump\t// out\n    /* \"#utility.yul\":7:327   */\ntag_11:\n    /* \"#utility.yul\":51:57   */\n  0x00\n    /* \"#utility.yul\":88:89   */\n  0x02\n    /* \"#utility.yul\":82:86   */\n  dup3\n    /* \"#utility.yul\":78:90   */\n  div\n    /* \"#utility.yul\":68:90   */\n  swap1\n  pop\n    /* \"#utility.yul\":135:136   */\n  0x01\n    /* \"#utility.yul\":129:133   */\n  dup3\n    /* \"#utility.yul\":125:137   */\n  and\n    /* \"#utility.yul\":156:174   */\n  dup1\n    /* \"#utility.yul\":146:148   */\n  tag_23\n  jumpi\n    /* \"#utility.yul\":212:216   */\n  0x7f\n    /* \"#utility.yul\":204:210   */\n  dup3\n    /* \"#utility.yul\":200:217   */\n  and\n    /* \"#utility.yul\":190:217   */\n  swap2\n  pop\n    /* \"#utility.yul\":146:148   */\ntag_23:\n    /* \"#utility.yul\":274:276   */\n  0x20\n    /* \"#utility.yul\":266:272   */\n  dup3\n    /* \"#utility.yul\":263:277   */\n  lt\n    /* \"#utility.yul\":243:261   */\n  dup2\n    /* \"#utility.yul\":240:278   */\n  eq\n    /* \"#utility.yul\":237:239   */\n  iszero\n  tag_24\n  jumpi\n    /* \"#utility.yul\":293:311   */\n  tag_25\n  tag_26\n  jump\t// in\ntag_25:\n    /* \"#utility.yul\":237:239   */\ntag_24:\n    /* \"#utility.yul\":58:327   */\n  pop\n  swap2\n  swap1\n  pop\n  jump\t// out\n    /* \"#utility.yul\":333:513   */\ntag_26:\n    /* \"#utility.yul\":381:458   */\n  0x4e487b7100000000000000000000000000000000000000000000000000000000\n    /* \"#utility.yul\":378:379   */\n  0x00\n    /* \"#utility.yul\":371:459   */\n  mstore\n    /* \"#utility.yul\":478:482   */\n  0x22\n    /* \"#utility.yul\":475:476   */\n  0x04\n    /* \"#utility.yul\":468:483   */\n  mstore\n    /* \"#utility.yul\":502:506   */\n  0x24\n    /* \"#utility.yul\":499:500   */\n  0x00\n    /* \"#utility.yul\":492:507   */\n  revert\n    /* \"contracts/TileNFT.sol\":99:389  contract TileNFT is ERC721 {\r... */\ntag_9:\n  dataSize(sub_0)\n  dup1\n  dataOffset(sub_0)\n  0x00\n  codecopy\n  0x00\n  return\nstop\n\nsub_0: assembly {\n        /* \"contracts/TileNFT.sol\":99:389  contract TileNFT is ERC721 {\r... */\n      mstore(0x40, 0x80)\n      callvalue\n      dup1\n      iszero\n      tag_1\n      jumpi\n      0x00\n      dup1\n      revert\n    tag_1:\n      pop\n      jumpi(tag_2, lt(calldatasize, 0x04))\n      shr(0xe0, calldataload(0x00))\n      dup1\n      0x6352211e\n      gt\n      tag_18\n      jumpi\n      dup1\n      0xa22cb465\n      gt\n      tag_19\n      jumpi\n      dup1\n      0xa22cb465\n      eq\n      tag_14\n      jumpi\n      dup1\n      0xb88d4fde\n      eq\n      tag_15\n      jumpi\n      dup1\n      0xc87b56dd\n      eq\n      tag_16\n      jumpi\n      dup1\n      0xe985e9c5\n      eq\n      tag_17\n      jumpi\n      jump(tag_2)\n    tag_19:\n      dup1\n      0x6352211e\n      eq\n      tag_10\n      jumpi\n      dup1\n      0x70a08231\n      eq\n      tag_11\n      jumpi\n      dup1\n      0x95d89b41\n      eq\n      tag_12\n      jumpi\n      dup1\n      0xa0712d68\n      eq\n      tag_13\n      jumpi\n      jump(tag_2)\n    tag_18:\n      dup1\n      0x095ea7b3\n      gt\n      tag_20\n      jumpi\n      dup1\n      0x095ea7b3\n      eq\n      tag_6\n      jumpi\n      dup1\n      0x23b872dd\n      eq\n      tag_7\n      jumpi\n      dup1\n      0x42842e0e\n      eq\n      tag_8\n      jumpi\n      dup1\n      0x42966c68\n      eq\n      tag_9\n      jumpi\n      jump(tag_2)\n    tag_20:\n      dup1\n      0x01ffc9a7\n      eq\n      tag_3\n      jumpi\n      dup1\n      0x06fdde03\n      eq\n      tag_4\n      jumpi\n      dup1\n      0x081812fc\n      eq\n      tag_5\n      jumpi\n    tag_2:\n      0x00\n      dup1\n      revert\n        /* \"contracts/token/ERC721/ERC721.sol\":1461:1816  function supportsInterface(bytes4 interfaceId)\r... */\n    tag_3:\n      tag_21\n      0x04\n      dup1\n      calldatasize\n      sub\n      dup2\n      add\n      swap1\n      tag_22\n      swap2\n      swap1\n      tag_23\n      jump\t// in\n    tag_22:\n      tag_24\n      jump\t// in\n    tag_21:\n      mload(0x40)\n      tag_25\n      swap2\n      swap1\n      tag_26\n      jump\t// in\n    tag_25:\n      mload(0x40)\n      dup1\n      swap2\n      sub\n      swap1\n      return\n        /* \"contracts/token/ERC721/ERC721.sol\":2829:2929  function name() public view virtual override returns (string memory) {\r... */\n    tag_4:\n      tag_27\n      tag_28\n      jump\t// in\n    tag_27:\n      mload(0x40)\n      tag_29\n      swap2\n      swap1\n      tag_30\n      jump\t// in\n    tag_29:\n      mload(0x40)\n      dup1\n      swap2\n      sub\n      swap1\n      return\n        /* \"contracts/token/ERC721/ERC721.sol\":4802:5110  function getApproved(uint256 tokenId)\r... */\n    tag_5:\n      tag_31\n      0x04\n      dup1\n      calldatasize\n      sub\n      dup2\n      add\n      swap1\n      tag_32\n      swap2\n      swap1\n      tag_33\n      jump\t// in\n    tag_32:\n      tag_34\n      jump\t// in\n    tag_31:\n      mload(0x40)\n      tag_35\n      swap2\n      swap1\n      tag_36\n      jump\t// in\n    tag_35:\n      mload(0x40)\n      dup1\n      swap2\n      sub\n      swap1\n      return\n        /* \"contracts/token/ERC721/ERC721.sol\":4258:4669  function approve(address to, uint256 tokenId) public virtual override {\r... */\n    tag_6:\n      tag_37\n      0x04\n      dup1\n      calldatasize\n      sub\n      dup2\n      add\n      swap1\n      tag_38\n      swap2\n      swap1\n      tag_39\n      jump\t// in\n    tag_38:\n      tag_40\n      jump\t// in\n    tag_37:\n      stop\n        /* \"contracts/token/ERC721/ERC721.sol\":6530:6851  function transferFrom(\r... */\n    tag_7:\n      tag_41\n      0x04\n      dup1\n      calldatasize\n      sub\n      dup2\n      add\n      swap1\n      tag_42\n      swap2\n      swap1\n      tag_43\n      jump\t// in\n    tag_42:\n      tag_44\n      jump\t// in\n    tag_41:\n      stop\n        /* \"contracts/token/ERC721/ERC721.sol\":9188:9369  function safeTransferFrom(\r... */\n    tag_8:\n      tag_45\n      0x04\n      dup1\n      calldatasize\n      sub\n      dup2\n      add\n      swap1\n      tag_46\n      swap2\n      swap1\n      tag_43\n      jump\t// in\n    tag_46:\n      tag_47\n      jump\t// in\n    tag_45:\n      stop\n        /* \"contracts/TileNFT.sol\":313:386  function burn(uint256 _tokenId) public {\r... */\n    tag_9:\n      tag_48\n      0x04\n      dup1\n      calldatasize\n      sub\n      dup2\n      add\n      swap1\n      tag_49\n      swap2\n      swap1\n      tag_33\n      jump\t// in\n    tag_49:\n      tag_50\n      jump\t// in\n    tag_48:\n      stop\n        /* \"contracts/token/ERC721/ERC721.sol\":2436:2762  function ownerOf(uint256 tokenId)\r... */\n    tag_10:\n      tag_51\n      0x04\n      dup1\n      calldatasize\n      sub\n      dup2\n      add\n      swap1\n      tag_52\n      swap2\n      swap1\n      tag_33\n      jump\t// in\n    tag_52:\n      tag_53\n      jump\t// in\n    tag_51:\n      mload(0x40)\n      tag_54\n      swap2\n      swap1\n      tag_36\n      jump\t// in\n    tag_54:\n      mload(0x40)\n      dup1\n      swap2\n      sub\n      swap1\n      return\n        /* \"contracts/token/ERC721/ERC721.sol\":2020:2315  function balanceOf(address owner)\r... */\n    tag_11:\n      tag_55\n      0x04\n      dup1\n      calldatasize\n      sub\n      dup2\n      add\n      swap1\n      tag_56\n      swap2\n      swap1\n      tag_57\n      jump\t// in\n    tag_56:\n      tag_58\n      jump\t// in\n    tag_55:\n      mload(0x40)\n      tag_59\n      swap2\n      swap1\n      tag_60\n      jump\t// in\n    tag_59:\n      mload(0x40)\n      dup1\n      swap2\n      sub\n      swap1\n      return\n        /* \"contracts/token/ERC721/ERC721.sol\":2998:3102  function symbol() public view virtual override returns (string memory) {\r... */\n    tag_12:\n      tag_61\n      tag_62\n      jump\t// in\n    tag_61:\n      mload(0x40)\n      tag_63\n      swap2\n      swap1\n      tag_30\n      jump\t// in\n    tag_63:\n      mload(0x40)\n      dup1\n      swap2\n      sub\n      swap1\n      return\n        /* \"contracts/TileNFT.sol\":178:305  function mint(uint256 _tokenId) public {\r... */\n    tag_13:\n      tag_64\n      0x04\n      dup1\n      calldatasize\n      sub\n      dup2\n      add\n      swap1\n      tag_65\n      swap2\n      swap1\n      tag_33\n      jump\t// in\n    tag_65:\n      tag_66\n      jump\t// in\n    tag_64:\n      stop\n        /* \"contracts/token/ERC721/ERC721.sol\":5473:5660  function setApprovalForAll(address operator, bool approved)\r... */\n    tag_14:\n      tag_67\n      0x04\n      dup1\n      calldatasize\n      sub\n      dup2\n      add\n      swap1\n      tag_68\n      swap2\n      swap1\n      tag_69\n      jump\t// in\n    tag_68:\n      tag_70\n      jump\t// in\n    tag_67:\n      stop\n        /* \"contracts/token/ERC721/ERC721.sol\":9879:10244  function safeTransferFrom(\r... */\n    tag_15:\n      tag_71\n      0x04\n      dup1\n      calldatasize\n      sub\n      dup2\n      add\n      swap1\n      tag_72\n      swap2\n      swap1\n      tag_73\n      jump\t// in\n    tag_72:\n      tag_74\n      jump\t// in\n    tag_71:\n      stop\n        /* \"contracts/token/ERC721/ERC721.sol\":3173:3641  function tokenURI(uint256 tokenId)\r... */\n    tag_16:\n      tag_75\n      0x04\n      dup1\n      calldatasize\n      sub\n      dup2\n      add\n      swap1\n      tag_76\n      swap2\n      swap1\n      tag_33\n      jump\t// in\n    tag_76:\n      tag_77\n      jump\t// in\n    tag_75:\n      mload(0x40)\n      tag_78\n      swap2\n      swap1\n      tag_30\n      jump\t// in\n    tag_78:\n      mload(0x40)\n      dup1\n      swap2\n      sub\n      swap1\n      return\n        /* \"contracts/token/ERC721/ERC721.sol\":6249:6463  function isApprovedForAll(address owner, address operator)\r... */\n    tag_17:\n      tag_79\n      0x04\n      dup1\n      calldatasize\n      sub\n      dup2\n      add\n      swap1\n      tag_80\n      swap2\n      swap1\n      tag_81\n      jump\t// in\n    tag_80:\n      tag_82\n      jump\t// in\n    tag_79:\n      mload(0x40)\n      tag_83\n      swap2\n      swap1\n      tag_26\n      jump\t// in\n    tag_83:\n      mload(0x40)\n      dup1\n      swap2\n      sub\n      swap1\n      return\n        /* \"contracts/token/ERC721/ERC721.sol\":1461:1816  function supportsInterface(bytes4 interfaceId)\r... */\n    tag_24:\n        /* \"contracts/token/ERC721/ERC721.sol\":1608:1612  bool */\n      0x00\n        /* \"contracts/token/ERC721/ERC721.sol\":1665:1690  type(IERC721).interfaceId */\n      0x80ac58cd00000000000000000000000000000000000000000000000000000000\n        /* \"contracts/token/ERC721/ERC721.sol\":1650:1690  interfaceId == type(IERC721).interfaceId */\n      not(0xffffffffffffffffffffffffffffffffffffffffffffffffffffffff)\n      and\n        /* \"contracts/token/ERC721/ERC721.sol\":1650:1661  interfaceId */\n      dup3\n        /* \"contracts/token/ERC721/ERC721.sol\":1650:1690  interfaceId == type(IERC721).interfaceId */\n      not(0xffffffffffffffffffffffffffffffffffffffffffffffffffffffff)\n      and\n      eq\n        /* \"contracts/token/ERC721/ERC721.sol\":1650:1755  interfaceId == type(IERC721).interfaceId ||\r... */\n      dup1\n      tag_85\n      jumpi\n      pop\n        /* \"contracts/token/ERC721/ERC721.sol\":1722:1755  type(IERC721Metadata).interfaceId */\n      0x5b5e139f00000000000000000000000000000000000000000000000000000000\n        /* \"contracts/token/ERC721/ERC721.sol\":1707:1755  interfaceId == type(IERC721Metadata).interfaceId */\n      not(0xffffffffffffffffffffffffffffffffffffffffffffffffffffffff)\n      and\n        /* \"contracts/token/ERC721/ERC721.sol\":1707:1718  interfaceId */\n      dup3\n        /* \"contracts/token/ERC721/ERC721.sol\":1707:1755  interfaceId == type(IERC721Metadata).interfaceId */\n      not(0xffffffffffffffffffffffffffffffffffffffffffffffffffffffff)\n      and\n      eq\n        /* \"contracts/token/ERC721/ERC721.sol\":1650:1755  interfaceId == type(IERC721).interfaceId ||\r... */\n    tag_85:\n        /* \"contracts/token/ERC721/ERC721.sol\":1650:1808  interfaceId == type(IERC721).interfaceId ||\r... */\n      dup1\n      tag_86\n      jumpi\n      pop\n        /* \"contracts/token/ERC721/ERC721.sol\":1772:1808  super.supportsInterface(interfaceId) */\n      tag_87\n        /* \"contracts/token/ERC721/ERC721.sol\":1796:1807  interfaceId */\n      dup3\n        /* \"contracts/token/ERC721/ERC721.sol\":1772:1795  super.supportsInterface */\n      tag_88\n        /* \"contracts/token/ERC721/ERC721.sol\":1772:1808  super.supportsInterface(interfaceId) */\n      jump\t// in\n    tag_87:\n        /* \"contracts/token/ERC721/ERC721.sol\":1650:1808  interfaceId == type(IERC721).interfaceId ||\r... */\n    tag_86:\n        /* \"contracts/token/ERC721/ERC721.sol\":1630:1808  return\r... */\n      swap1\n      pop\n        /* \"contracts/token/ERC721/ERC721.sol\":1461:1816  function supportsInterface(bytes4 interfaceId)\r... */\n      swap2\n      swap1\n      pop\n      jump\t// out\n        /* \"contracts/token/ERC721/ERC721.sol\":2829:2929  function name() public view virtual override returns (string memory) {\r... */\n    tag_28:\n        /* \"contracts/token/ERC721/ERC721.sol\":2883:2896  string memory */\n      0x60\n        /* \"contracts/token/ERC721/ERC721.sol\":2916:2921  _name */\n      0x00\n        /* \"contracts/token/ERC721/ERC721.sol\":2909:2921  return _name */\n      dup1\n      sload\n      tag_90\n      swap1\n      tag_91\n      jump\t// in\n    tag_90:\n      dup1\n      0x1f\n      add\n      0x20\n      dup1\n      swap2\n      div\n      mul\n      0x20\n      add\n      mload(0x40)\n      swap1\n      dup2\n      add\n      0x40\n      mstore\n      dup1\n      swap3\n      swap2\n      swap1\n      dup2\n      dup2\n      mstore\n      0x20\n      add\n      dup3\n      dup1\n      sload\n      tag_92\n      swap1\n      tag_91\n      jump\t// in\n    tag_92:\n      dup1\n      iszero\n      tag_93\n      jumpi\n      dup1\n      0x1f\n      lt\n      tag_94\n      jumpi\n      0x0100\n      dup1\n      dup4\n      sload\n      div\n      mul\n      dup4\n      mstore\n      swap2\n      0x20\n      add\n      swap2\n      jump(tag_93)\n    tag_94:\n      dup3\n      add\n      swap2\n      swap1\n      0x00\n      mstore\n      keccak256(0x00, 0x20)\n      swap1\n    tag_95:\n      dup2\n      sload\n      dup2\n      mstore\n      swap1\n      0x01\n      add\n      swap1\n      0x20\n      add\n      dup1\n      dup4\n      gt\n      tag_95\n      jumpi\n      dup3\n      swap1\n      sub\n      0x1f\n      and\n      dup3\n      add\n      swap2\n    tag_93:\n      pop\n      pop\n      pop\n      pop\n      pop\n      swap1\n      pop\n        /* \"contracts/token/ERC721/ERC721.sol\":2829:2929  function name() public view virtual override returns (string memory) {\r... */\n      swap1\n      jump\t// out\n        /* \"contracts/token/ERC721/ERC721.sol\":4802:5110  function getApproved(uint256 tokenId)\r... */\n    tag_34:\n        /* \"contracts/token/ERC721/ERC721.sol\":4923:4930  address */\n      0x00\n        /* \"contracts/token/ERC721/ERC721.sol\":4970:4986  _exists(tokenId) */\n      tag_97\n        /* \"contracts/token/ERC721/ERC721.sol\":4978:4985  tokenId */\n      dup3\n        /* \"contracts/token/ERC721/ERC721.sol\":4970:4977  _exists */\n      tag_98\n        /* \"contracts/token/ERC721/ERC721.sol\":4970:4986  _exists(tokenId) */\n      jump\t// in\n    tag_97:\n        /* \"contracts/token/ERC721/ERC721.sol\":4948:5058  require(\r... */\n      tag_99\n      jumpi\n      mload(0x40)\n      0x08c379a000000000000000000000000000000000000000000000000000000000\n      dup2\n      mstore\n      0x04\n      add\n      tag_100\n      swap1\n      tag_101\n      jump\t// in\n    tag_100:\n      mload(0x40)\n      dup1\n      swap2\n      sub\n      swap1\n      revert\n    tag_99:\n        /* \"contracts/token/ERC721/ERC721.sol\":5078:5093  _tokenApprovals */\n      0x04\n        /* \"contracts/token/ERC721/ERC721.sol\":5078:5102  _tokenApprovals[tokenId] */\n      0x00\n        /* \"contracts/token/ERC721/ERC721.sol\":5094:5101  tokenId */\n      dup4\n        /* \"contracts/token/ERC721/ERC721.sol\":5078:5102  _tokenApprovals[tokenId] */\n      dup2\n      mstore\n      0x20\n      add\n      swap1\n      dup2\n      mstore\n      0x20\n      add\n      0x00\n      keccak256\n      0x00\n      swap1\n      sload\n      swap1\n      0x0100\n      exp\n      swap1\n      div\n      0xffffffffffffffffffffffffffffffffffffffff\n      and\n        /* \"contracts/token/ERC721/ERC721.sol\":5071:5102  return _tokenApprovals[tokenId] */\n      swap1\n      pop\n        /* \"contracts/token/ERC721/ERC721.sol\":4802:5110  function getApproved(uint256 tokenId)\r... */\n      swap2\n      swap1\n      pop\n      jump\t// out\n        /* \"contracts/token/ERC721/ERC721.sol\":4258:4669  function approve(address to, uint256 tokenId) public virtual override {\r... */\n    tag_40:\n        /* \"contracts/token/ERC721/ERC721.sol\":4339:4352  address owner */\n      0x00\n        /* \"contracts/token/ERC721/ERC721.sol\":4355:4378  ERC721.ownerOf(tokenId) */\n      tag_103\n        /* \"contracts/token/ERC721/ERC721.sol\":4370:4377  tokenId */\n      dup3\n        /* \"contracts/token/ERC721/ERC721.sol\":4355:4369  ERC721.ownerOf */\n      tag_53\n        /* \"contracts/token/ERC721/ERC721.sol\":4355:4378  ERC721.ownerOf(tokenId) */\n      jump\t// in\n    tag_103:\n        /* \"contracts/token/ERC721/ERC721.sol\":4339:4378  address owner = ERC721.ownerOf(tokenId) */\n      swap1\n      pop\n        /* \"contracts/token/ERC721/ERC721.sol\":4405:4410  owner */\n      dup1\n        /* \"contracts/token/ERC721/ERC721.sol\":4399:4410  to != owner */\n      0xffffffffffffffffffffffffffffffffffffffff\n      and\n        /* \"contracts/token/ERC721/ERC721.sol\":4399:4401  to */\n      dup4\n        /* \"contracts/token/ERC721/ERC721.sol\":4399:4410  to != owner */\n      0xffffffffffffffffffffffffffffffffffffffff\n      and\n      eq\n      iszero\n        /* \"contracts/token/ERC721/ERC721.sol\":4391:4448  require(to != owner, \"ERC721: approval to current owner\") */\n      tag_104\n      jumpi\n      mload(0x40)\n      0x08c379a000000000000000000000000000000000000000000000000000000000\n      dup2\n      mstore\n      0x04\n      add\n      tag_105\n      swap1\n      tag_106\n      jump\t// in\n    tag_105:\n      mload(0x40)\n      dup1\n      swap2\n      sub\n      swap1\n      revert\n    tag_104:\n        /* \"contracts/token/ERC721/ERC721.sol\":4497:4502  owner */\n      dup1\n        /* \"contracts/token/ERC721/ERC721.sol\":4481:4502  _msgSender() == owner */\n      0xffffffffffffffffffffffffffffffffffffffff\n      and\n        /* \"contracts/token/ERC721/ERC721.sol\":4481:4493  _msgSender() */\n      tag_107\n        /* \"contracts/token/ERC721/ERC721.sol\":4481:4491  _msgSender */\n      tag_108\n        /* \"contracts/token/ERC721/ERC721.sol\":4481:4493  _msgSender() */\n      jump\t// in\n    tag_107:\n        /* \"contracts/token/ERC721/ERC721.sol\":4481:4502  _msgSender() == owner */\n      0xffffffffffffffffffffffffffffffffffffffff\n      and\n      eq\n        /* \"contracts/token/ERC721/ERC721.sol\":4481:4543  _msgSender() == owner || isApprovedForAll(owner, _msgSender()) */\n      dup1\n      tag_109\n      jumpi\n      pop\n        /* \"contracts/token/ERC721/ERC721.sol\":4506:4543  isApprovedForAll(owner, _msgSender()) */\n      tag_110\n        /* \"contracts/token/ERC721/ERC721.sol\":4523:4528  owner */\n      dup2\n        /* \"contracts/token/ERC721/ERC721.sol\":4530:4542  _msgSender() */\n      tag_111\n        /* \"contracts/token/ERC721/ERC721.sol\":4530:4540  _msgSender */\n      tag_108\n        /* \"contracts/token/ERC721/ERC721.sol\":4530:4542  _msgSender() */\n      jump\t// in\n    tag_111:\n        /* \"contracts/token/ERC721/ERC721.sol\":4506:4522  isApprovedForAll */\n      tag_82\n        /* \"contracts/token/ERC721/ERC721.sol\":4506:4543  isApprovedForAll(owner, _msgSender()) */\n      jump\t// in\n    tag_110:\n        /* \"contracts/token/ERC721/ERC721.sol\":4481:4543  _msgSender() == owner || isApprovedForAll(owner, _msgSender()) */\n    tag_109:\n        /* \"contracts/token/ERC721/ERC721.sol\":4459:4627  require(\r... */\n      tag_112\n      jumpi\n      mload(0x40)\n      0x08c379a000000000000000000000000000000000000000000000000000000000\n      dup2\n      mstore\n      0x04\n      add\n      tag_113\n      swap1\n      tag_114\n      jump\t// in\n    tag_113:\n      mload(0x40)\n      dup1\n      swap2\n      sub\n      swap1\n      revert\n    tag_112:\n        /* \"contracts/token/ERC721/ERC721.sol\":4640:4661  _approve(to, tokenId) */\n      tag_115\n        /* \"contracts/token/ERC721/ERC721.sol\":4649:4651  to */\n      dup4\n        /* \"contracts/token/ERC721/ERC721.sol\":4653:4660  tokenId */\n      dup4\n        /* \"contracts/token/ERC721/ERC721.sol\":4640:4648  _approve */\n      tag_116\n        /* \"contracts/token/ERC721/ERC721.sol\":4640:4661  _approve(to, tokenId) */\n      jump\t// in\n    tag_115:\n        /* \"contracts/token/ERC721/ERC721.sol\":4258:4669  function approve(address to, uint256 tokenId) public virtual override {\r... */\n      pop\n      pop\n      pop\n      jump\t// out\n        /* \"contracts/token/ERC721/ERC721.sol\":6530:6851  function transferFrom(\r... */\n    tag_44:\n        /* \"contracts/token/ERC721/ERC721.sol\":6686:6727  _isApprovedOrOwner(_msgSender(), tokenId) */\n      tag_118\n        /* \"contracts/token/ERC721/ERC721.sol\":6705:6717  _msgSender() */\n      tag_119\n        /* \"contracts/token/ERC721/ERC721.sol\":6705:6715  _msgSender */\n      tag_108\n        /* \"contracts/token/ERC721/ERC721.sol\":6705:6717  _msgSender() */\n      jump\t// in\n    tag_119:\n        /* \"contracts/token/ERC721/ERC721.sol\":6719:6726  tokenId */\n      dup3\n        /* \"contracts/token/ERC721/ERC721.sol\":6686:6704  _isApprovedOrOwner */\n      tag_120\n        /* \"contracts/token/ERC721/ERC721.sol\":6686:6727  _isApprovedOrOwner(_msgSender(), tokenId) */\n      jump\t// in\n    tag_118:\n        /* \"contracts/token/ERC721/ERC721.sol\":6664:6804  require(\r... */\n      tag_121\n      jumpi\n      mload(0x40)\n      0x08c379a000000000000000000000000000000000000000000000000000000000\n      dup2\n      mstore\n      0x04\n      add\n      tag_122\n      swap1\n      tag_123\n      jump\t// in\n    tag_122:\n      mload(0x40)\n      dup1\n      swap2\n      sub\n      swap1\n      revert\n    tag_121:\n        /* \"contracts/token/ERC721/ERC721.sol\":6815:6843  _transfer(from, to, tokenId) */\n      tag_124\n        /* \"contracts/token/ERC721/ERC721.sol\":6825:6829  from */\n      dup4\n        /* \"contracts/token/ERC721/ERC721.sol\":6831:6833  to */\n      dup4\n        /* \"contracts/token/ERC721/ERC721.sol\":6835:6842  tokenId */\n      dup4\n        /* \"contracts/token/ERC721/ERC721.sol\":6815:6824  _transfer */\n      tag_125\n        /* \"contracts/token/ERC721/ERC721.sol\":6815:6843  _transfer(from, to, tokenId) */\n      jump\t// in\n    tag_124:\n        /* \"contracts/token/ERC721/ERC721.sol\":6530:6851  function transferFrom(\r... */\n      pop\n      pop\n      pop\n      jump\t// out\n        /* \"contracts/token/ERC721/ERC721.sol\":9188:9369  function safeTransferFrom(\r... */\n    tag_47:\n        /* \"contracts/token/ERC721/ERC721.sol\":9326:9361  safeTransferFrom(from, to, tokenId) */\n      tag_127\n        /* \"contracts/token/ERC721/ERC721.sol\":9343:9347  from */\n      dup4\n        /* \"contracts/token/ERC721/ERC721.sol\":9349:9351  to */\n      dup4\n        /* \"contracts/token/ERC721/ERC721.sol\":9353:9360  tokenId */\n      dup4\n        /* \"contracts/token/ERC721/ERC721.sol\":9326:9342  safeTransferFrom */\n      tag_47\n        /* \"contracts/token/ERC721/ERC721.sol\":9326:9361  safeTransferFrom(from, to, tokenId) */\n      jump\t// in\n    tag_127:\n        /* \"contracts/token/ERC721/ERC721.sol\":9188:9369  function safeTransferFrom(\r... */\n      pop\n      pop\n      pop\n      jump\t// out\n        /* \"contracts/TileNFT.sol\":313:386  function burn(uint256 _tokenId) public {\r... */\n    tag_50:\n        /* \"contracts/TileNFT.sol\":363:378  _burn(_tokenId) */\n      tag_129\n        /* \"contracts/TileNFT.sol\":369:377  _tokenId */\n      dup2\n        /* \"contracts/TileNFT.sol\":363:368  _burn */\n      tag_130\n        /* \"contracts/TileNFT.sol\":363:378  _burn(_tokenId) */\n      jump\t// in\n    tag_129:\n        /* \"contracts/TileNFT.sol\":313:386  function burn(uint256 _tokenId) public {\r... */\n      pop\n      jump\t// out\n        /* \"contracts/token/ERC721/ERC721.sol\":2436:2762  function ownerOf(uint256 tokenId)\r... */\n    tag_53:\n        /* \"contracts/token/ERC721/ERC721.sol\":2553:2560  address */\n      0x00\n        /* \"contracts/token/ERC721/ERC721.sol\":2578:2591  address owner */\n      dup1\n        /* \"contracts/token/ERC721/ERC721.sol\":2594:2601  _owners */\n      0x02\n        /* \"contracts/token/ERC721/ERC721.sol\":2594:2610  _owners[tokenId] */\n      0x00\n        /* \"contracts/token/ERC721/ERC721.sol\":2602:2609  tokenId */\n      dup5\n        /* \"contracts/token/ERC721/ERC721.sol\":2594:2610  _owners[tokenId] */\n      dup2\n      mstore\n      0x20\n      add\n      swap1\n      dup2\n      mstore\n      0x20\n      add\n      0x00\n      keccak256\n      0x00\n      swap1\n      sload\n      swap1\n      0x0100\n      exp\n      swap1\n      div\n      0xffffffffffffffffffffffffffffffffffffffff\n      and\n        /* \"contracts/token/ERC721/ERC721.sol\":2578:2610  address owner = _owners[tokenId] */\n      swap1\n      pop\n        /* \"contracts/token/ERC721/ERC721.sol\":2660:2661  0 */\n      0x00\n        /* \"contracts/token/ERC721/ERC721.sol\":2643:2662  owner != address(0) */\n      0xffffffffffffffffffffffffffffffffffffffff\n      and\n        /* \"contracts/token/ERC721/ERC721.sol\":2643:2648  owner */\n      dup2\n        /* \"contracts/token/ERC721/ERC721.sol\":2643:2662  owner != address(0) */\n      0xffffffffffffffffffffffffffffffffffffffff\n      and\n      eq\n      iszero\n        /* \"contracts/token/ERC721/ERC721.sol\":2621:2731  require(\r... */\n      tag_132\n      jumpi\n      mload(0x40)\n      0x08c379a000000000000000000000000000000000000000000000000000000000\n      dup2\n      mstore\n      0x04\n      add\n      tag_133\n      swap1\n      tag_134\n      jump\t// in\n    tag_133:\n      mload(0x40)\n      dup1\n      swap2\n      sub\n      swap1\n      revert\n    tag_132:\n        /* \"contracts/token/ERC721/ERC721.sol\":2749:2754  owner */\n      dup1\n        /* \"contracts/token/ERC721/ERC721.sol\":2742:2754  return owner */\n      swap2\n      pop\n      pop\n        /* \"contracts/token/ERC721/ERC721.sol\":2436:2762  function ownerOf(uint256 tokenId)\r... */\n      swap2\n      swap1\n      pop\n      jump\t// out\n        /* \"contracts/token/ERC721/ERC721.sol\":2020:2315  function balanceOf(address owner)\r... */\n    tag_58:\n        /* \"contracts/token/ERC721/ERC721.sol\":2137:2144  uint256 */\n      0x00\n        /* \"contracts/token/ERC721/ERC721.sol\":2201:2202  0 */\n      dup1\n        /* \"contracts/token/ERC721/ERC721.sol\":2184:2203  owner != address(0) */\n      0xffffffffffffffffffffffffffffffffffffffff\n      and\n        /* \"contracts/token/ERC721/ERC721.sol\":2184:2189  owner */\n      dup3\n        /* \"contracts/token/ERC721/ERC721.sol\":2184:2203  owner != address(0) */\n      0xffffffffffffffffffffffffffffffffffffffff\n      and\n      eq\n      iszero\n        /* \"contracts/token/ERC721/ERC721.sol\":2162:2273  require(\r... */\n      tag_136\n      jumpi\n      mload(0x40)\n      0x08c379a000000000000000000000000000000000000000000000000000000000\n      dup2\n      mstore\n      0x04\n      add\n      tag_137\n      swap1\n      tag_138\n      jump\t// in\n    tag_137:\n      mload(0x40)\n      dup1\n      swap2\n      sub\n      swap1\n      revert\n    tag_136:\n        /* \"contracts/token/ERC721/ERC721.sol\":2291:2300  _balances */\n      0x03\n        /* \"contracts/token/ERC721/ERC721.sol\":2291:2307  _balances[owner] */\n      0x00\n        /* \"contracts/token/ERC721/ERC721.sol\":2301:2306  owner */\n      dup4\n        /* \"contracts/token/ERC721/ERC721.sol\":2291:2307  _balances[owner] */\n      0xffffffffffffffffffffffffffffffffffffffff\n      and\n      0xffffffffffffffffffffffffffffffffffffffff\n      and\n      dup2\n      mstore\n      0x20\n      add\n      swap1\n      dup2\n      mstore\n      0x20\n      add\n      0x00\n      keccak256\n      sload\n        /* \"contracts/token/ERC721/ERC721.sol\":2284:2307  return _balances[owner] */\n      swap1\n      pop\n        /* \"contracts/token/ERC721/ERC721.sol\":2020:2315  function balanceOf(address owner)\r... */\n      swap2\n      swap1\n      pop\n      jump\t// out\n        /* \"contracts/token/ERC721/ERC721.sol\":2998:3102  function symbol() public view virtual override returns (string memory) {\r... */\n    tag_62:\n        /* \"contracts/token/ERC721/ERC721.sol\":3054:3067  string memory */\n      0x60\n        /* \"contracts/token/ERC721/ERC721.sol\":3087:3094  _symbol */\n      0x01\n        /* \"contracts/token/ERC721/ERC721.sol\":3080:3094  return _symbol */\n      dup1\n      sload\n      tag_140\n      swap1\n      tag_91\n      jump\t// in\n    tag_140:\n      dup1\n      0x1f\n      add\n      0x20\n      dup1\n      swap2\n      div\n      mul\n      0x20\n      add\n      mload(0x40)\n      swap1\n      dup2\n      add\n      0x40\n      mstore\n      dup1\n      swap3\n      swap2\n      swap1\n      dup2\n      dup2\n      mstore\n      0x20\n      add\n      dup3\n      dup1\n      sload\n      tag_141\n      swap1\n      tag_91\n      jump\t// in\n    tag_141:\n      dup1\n      iszero\n      tag_142\n      jumpi\n      dup1\n      0x1f\n      lt\n      tag_143\n      jumpi\n      0x0100\n      dup1\n      dup4\n      sload\n      div\n      mul\n      dup4\n      mstore\n      swap2\n      0x20\n      add\n      swap2\n      jump(tag_142)\n    tag_143:\n      dup3\n      add\n      swap2\n      swap1\n      0x00\n      mstore\n      keccak256(0x00, 0x20)\n      swap1\n    tag_144:\n      dup2\n      sload\n      dup2\n      mstore\n      swap1\n      0x01\n      add\n      swap1\n      0x20\n      add\n      dup1\n      dup4\n      gt\n      tag_144\n      jumpi\n      dup3\n      swap1\n      sub\n      0x1f\n      and\n      dup3\n      add\n      swap2\n    tag_142:\n      pop\n      pop\n      pop\n      pop\n      pop\n      swap1\n      pop\n        /* \"contracts/token/ERC721/ERC721.sol\":2998:3102  function symbol() public view virtual override returns (string memory) {\r... */\n      swap1\n      jump\t// out\n        /* \"contracts/TileNFT.sol\":178:305  function mint(uint256 _tokenId) public {\r... */\n    tag_66:\n        /* \"contracts/TileNFT.sol\":228:244  uint256 tokenIds */\n      0x00\n        /* \"contracts/TileNFT.sol\":247:255  _tokenId */\n      dup2\n        /* \"contracts/TileNFT.sol\":228:255  uint256 tokenIds = _tokenId */\n      swap1\n      pop\n        /* \"contracts/TileNFT.sol\":266:297  _safeMint(msg.sender, tokenIds) */\n      tag_146\n        /* \"contracts/TileNFT.sol\":276:286  msg.sender */\n      caller\n        /* \"contracts/TileNFT.sol\":288:296  tokenIds */\n      dup3\n        /* \"contracts/TileNFT.sol\":266:275  _safeMint */\n      tag_147\n        /* \"contracts/TileNFT.sol\":266:297  _safeMint(msg.sender, tokenIds) */\n      jump\t// in\n    tag_146:\n        /* \"contracts/TileNFT.sol\":178:305  function mint(uint256 _tokenId) public {\r... */\n      pop\n      pop\n      jump\t// out\n        /* \"contracts/token/ERC721/ERC721.sol\":5473:5660  function setApprovalForAll(address operator, bool approved)\r... */\n    tag_70:\n        /* \"contracts/token/ERC721/ERC721.sol\":5600:5652  _setApprovalForAll(_msgSender(), operator, approved) */\n      tag_149\n        /* \"contracts/token/ERC721/ERC721.sol\":5619:5631  _msgSender() */\n      tag_150\n        /* \"contracts/token/ERC721/ERC721.sol\":5619:5629  _msgSender */\n      tag_108\n        /* \"contracts/token/ERC721/ERC721.sol\":5619:5631  _msgSender() */\n      jump\t// in\n    tag_150:\n        /* \"contracts/token/ERC721/ERC721.sol\":5633:5641  operator */\n      dup4\n        /* \"contracts/token/ERC721/ERC721.sol\":5643:5651  approved */\n      dup4\n        /* \"contracts/token/ERC721/ERC721.sol\":5600:5618  _setApprovalForAll */\n      tag_151\n        /* \"contracts/token/ERC721/ERC721.sol\":5600:5652  _setApprovalForAll(_msgSender(), operator, approved) */\n      jump\t// in\n    tag_149:\n        /* \"contracts/token/ERC721/ERC721.sol\":5473:5660  function setApprovalForAll(address operator, bool approved)\r... */\n      pop\n      pop\n      jump\t// out\n        /* \"contracts/token/ERC721/ERC721.sol\":9879:10244  function safeTransferFrom(\r... */\n    tag_74:\n        /* \"contracts/token/ERC721/ERC721.sol\":10068:10109  _isApprovedOrOwner(_msgSender(), tokenId) */\n      tag_153\n        /* \"contracts/token/ERC721/ERC721.sol\":10087:10099  _msgSender() */\n      tag_154\n        /* \"contracts/token/ERC721/ERC721.sol\":10087:10097  _msgSender */\n      tag_108\n        /* \"contracts/token/ERC721/ERC721.sol\":10087:10099  _msgSender() */\n      jump\t// in\n    tag_154:\n        /* \"contracts/token/ERC721/ERC721.sol\":10101:10108  tokenId */\n      dup4\n        /* \"contracts/token/ERC721/ERC721.sol\":10068:10086  _isApprovedOrOwner */\n      tag_120\n        /* \"contracts/token/ERC721/ERC721.sol\":10068:10109  _isApprovedOrOwner(_msgSender(), tokenId) */\n      jump\t// in\n    tag_153:\n        /* \"contracts/token/ERC721/ERC721.sol\":10046:10186  require(\r... */\n      tag_155\n      jumpi\n      mload(0x40)\n      0x08c379a000000000000000000000000000000000000000000000000000000000\n      dup2\n      mstore\n      0x04\n      add\n      tag_156\n      swap1\n      tag_157\n      jump\t// in\n    tag_156:\n      mload(0x40)\n      dup1\n      swap2\n      sub\n      swap1\n      revert\n    tag_155:\n        /* \"contracts/token/ERC721/ERC721.sol\":10197:10236  _safeTransfer(from, to, tokenId, _data) */\n      tag_158\n        /* \"contracts/token/ERC721/ERC721.sol\":10211:10215  from */\n      dup5\n        /* \"contracts/token/ERC721/ERC721.sol\":10217:10219  to */\n      dup5\n        /* \"contracts/token/ERC721/ERC721.sol\":10221:10228  tokenId */\n      dup5\n        /* \"contracts/token/ERC721/ERC721.sol\":10230:10235  _data */\n      dup5\n        /* \"contracts/token/ERC721/ERC721.sol\":10197:10210  _safeTransfer */\n      tag_159\n        /* \"contracts/token/ERC721/ERC721.sol\":10197:10236  _safeTransfer(from, to, tokenId, _data) */\n      jump\t// in\n    tag_158:\n        /* \"contracts/token/ERC721/ERC721.sol\":9879:10244  function safeTransferFrom(\r... */\n      pop\n      pop\n      pop\n      pop\n      jump\t// out\n        /* \"contracts/token/ERC721/ERC721.sol\":3173:3641  function tokenURI(uint256 tokenId)\r... */\n    tag_77:\n        /* \"contracts/token/ERC721/ERC721.sol\":3291:3304  string memory */\n      0x60\n        /* \"contracts/token/ERC721/ERC721.sol\":3344:3360  _exists(tokenId) */\n      tag_161\n        /* \"contracts/token/ERC721/ERC721.sol\":3352:3359  tokenId */\n      dup3\n        /* \"contracts/token/ERC721/ERC721.sol\":3344:3351  _exists */\n      tag_98\n        /* \"contracts/token/ERC721/ERC721.sol\":3344:3360  _exists(tokenId) */\n      jump\t// in\n    tag_161:\n        /* \"contracts/token/ERC721/ERC721.sol\":3322:3435  require(\r... */\n      tag_162\n      jumpi\n      mload(0x40)\n      0x08c379a000000000000000000000000000000000000000000000000000000000\n      dup2\n      mstore\n      0x04\n      add\n      tag_163\n      swap1\n      tag_164\n      jump\t// in\n    tag_163:\n      mload(0x40)\n      dup1\n      swap2\n      sub\n      swap1\n      revert\n    tag_162:\n        /* \"contracts/token/ERC721/ERC721.sol\":3448:3469  string memory baseURI */\n      0x00\n        /* \"contracts/token/ERC721/ERC721.sol\":3472:3482  _baseURI() */\n      tag_165\n        /* \"contracts/token/ERC721/ERC721.sol\":3472:3480  _baseURI */\n      tag_166\n        /* \"contracts/token/ERC721/ERC721.sol\":3472:3482  _baseURI() */\n      jump\t// in\n    tag_165:\n        /* \"contracts/token/ERC721/ERC721.sol\":3448:3482  string memory baseURI = _baseURI() */\n      swap1\n      pop\n        /* \"contracts/token/ERC721/ERC721.sol\":3537:3538  0 */\n      0x00\n        /* \"contracts/token/ERC721/ERC721.sol\":3519:3526  baseURI */\n      dup2\n        /* \"contracts/token/ERC721/ERC721.sol\":3513:3534  bytes(baseURI).length */\n      mload\n        /* \"contracts/token/ERC721/ERC721.sol\":3513:3538  bytes(baseURI).length > 0 */\n      gt\n        /* \"contracts/token/ERC721/ERC721.sol\":3513:3633  bytes(baseURI).length > 0\r... */\n      tag_167\n      jumpi\n      mload(0x40)\n      dup1\n      0x20\n      add\n      0x40\n      mstore\n      dup1\n      0x00\n      dup2\n      mstore\n      pop\n      jump(tag_168)\n    tag_167:\n        /* \"contracts/token/ERC721/ERC721.sol\":3582:3589  baseURI */\n      dup1\n        /* \"contracts/token/ERC721/ERC721.sol\":3591:3609  tokenId.toString() */\n      tag_169\n        /* \"contracts/token/ERC721/ERC721.sol\":3591:3598  tokenId */\n      dup5\n        /* \"contracts/token/ERC721/ERC721.sol\":3591:3607  tokenId.toString */\n      tag_170\n        /* \"contracts/token/ERC721/ERC721.sol\":3591:3609  tokenId.toString() */\n      jump\t// in\n    tag_169:\n        /* \"contracts/token/ERC721/ERC721.sol\":3565:3610  abi.encodePacked(baseURI, tokenId.toString()) */\n      add(0x20, mload(0x40))\n      tag_171\n      swap3\n      swap2\n      swap1\n      tag_172\n      jump\t// in\n    tag_171:\n      mload(0x40)\n      0x20\n      dup2\n      dup4\n      sub\n      sub\n      dup2\n      mstore\n      swap1\n      0x40\n      mstore\n        /* \"contracts/token/ERC721/ERC721.sol\":3513:3633  bytes(baseURI).length > 0\r... */\n    tag_168:\n        /* \"contracts/token/ERC721/ERC721.sol\":3493:3633  return\r... */\n      swap2\n      pop\n      pop\n        /* \"contracts/token/ERC721/ERC721.sol\":3173:3641  function tokenURI(uint256 tokenId)\r... */\n      swap2\n      swap1\n      pop\n      jump\t// out\n        /* \"contracts/token/ERC721/ERC721.sol\":6249:6463  function isApprovedForAll(address owner, address operator)\r... */\n    tag_82:\n        /* \"contracts/token/ERC721/ERC721.sol\":6391:6395  bool */\n      0x00\n        /* \"contracts/token/ERC721/ERC721.sol\":6420:6438  _operatorApprovals */\n      0x05\n        /* \"contracts/token/ERC721/ERC721.sol\":6420:6445  _operatorApprovals[owner] */\n      0x00\n        /* \"contracts/token/ERC721/ERC721.sol\":6439:6444  owner */\n      dup5\n        /* \"contracts/token/ERC721/ERC721.sol\":6420:6445  _operatorApprovals[owner] */\n      0xffffffffffffffffffffffffffffffffffffffff\n      and\n      0xffffffffffffffffffffffffffffffffffffffff\n      and\n      dup2\n      mstore\n      0x20\n      add\n      swap1\n      dup2\n      mstore\n      0x20\n      add\n      0x00\n      keccak256\n        /* \"contracts/token/ERC721/ERC721.sol\":6420:6455  _operatorApprovals[owner][operator] */\n      0x00\n        /* \"contracts/token/ERC721/ERC721.sol\":6446:6454  operator */\n      dup4\n        /* \"contracts/token/ERC721/ERC721.sol\":6420:6455  _operatorApprovals[owner][operator] */\n      0xffffffffffffffffffffffffffffffffffffffff\n      and\n      0xffffffffffffffffffffffffffffffffffffffff\n      and\n      dup2\n      mstore\n      0x20\n      add\n      swap1\n      dup2\n      mstore\n      0x20\n      add\n      0x00\n      keccak256\n      0x00\n      swap1\n      sload\n      swap1\n      0x0100\n      exp\n      swap1\n      div\n      0xff\n      and\n        /* \"contracts/token/ERC721/ERC721.sol\":6413:6455  return _operatorApprovals[owner][operator] */\n      swap1\n      pop\n        /* \"contracts/token/ERC721/ERC721.sol\":6249:6463  function isApprovedForAll(address owner, address operator)\r... */\n      swap3\n      swap2\n      pop\n      pop\n      jump\t// out\n        /* \"contracts/utils/introspection/ERC165.sol\":854:1061  function supportsInterface(bytes4 interfaceId)\r... */\n    tag_88:\n        /* \"contracts/utils/introspection/ERC165.sol\":984:988  bool */\n      0x00\n        /* \"contracts/utils/introspection/ERC165.sol\":1028:1053  type(IERC165).interfaceId */\n      0x01ffc9a700000000000000000000000000000000000000000000000000000000\n        /* \"contracts/utils/introspection/ERC165.sol\":1013:1053  interfaceId == type(IERC165).interfaceId */\n      not(0xffffffffffffffffffffffffffffffffffffffffffffffffffffffff)\n      and\n        /* \"contracts/utils/introspection/ERC165.sol\":1013:1024  interfaceId */\n      dup3\n        /* \"contracts/utils/introspection/ERC165.sol\":1013:1053  interfaceId == type(IERC165).interfaceId */\n      not(0xffffffffffffffffffffffffffffffffffffffffffffffffffffffff)\n      and\n      eq\n        /* \"contracts/utils/introspection/ERC165.sol\":1006:1053  return interfaceId == type(IERC165).interfaceId */\n      swap1\n      pop\n        /* \"contracts/utils/introspection/ERC165.sol\":854:1061  function supportsInterface(bytes4 interfaceId)\r... */\n      swap2\n      swap1\n      pop\n      jump\t// out\n        /* \"contracts/token/ERC721/ERC721.sol\":13481:13608  function _exists(uint256 tokenId) internal view virtual returns (bool) {\r... */\n    tag_98:\n        /* \"contracts/token/ERC721/ERC721.sol\":13546:13550  bool */\n      0x00\n        /* \"contracts/token/ERC721/ERC721.sol\":13598:13599  0 */\n      dup1\n        /* \"contracts/token/ERC721/ERC721.sol\":13570:13600  _owners[tokenId] != address(0) */\n      0xffffffffffffffffffffffffffffffffffffffff\n      and\n        /* \"contracts/token/ERC721/ERC721.sol\":13570:13577  _owners */\n      0x02\n        /* \"contracts/token/ERC721/ERC721.sol\":13570:13586  _owners[tokenId] */\n      0x00\n        /* \"contracts/token/ERC721/ERC721.sol\":13578:13585  tokenId */\n      dup5\n        /* \"contracts/token/ERC721/ERC721.sol\":13570:13586  _owners[tokenId] */\n      dup2\n      mstore\n      0x20\n      add\n      swap1\n      dup2\n      mstore\n      0x20\n      add\n      0x00\n      keccak256\n      0x00\n      swap1\n      sload\n      swap1\n      0x0100\n      exp\n      swap1\n      div\n      0xffffffffffffffffffffffffffffffffffffffff\n      and\n        /* \"contracts/token/ERC721/ERC721.sol\":13570:13600  _owners[tokenId] != address(0) */\n      0xffffffffffffffffffffffffffffffffffffffff\n      and\n      eq\n      iszero\n        /* \"contracts/token/ERC721/ERC721.sol\":13563:13600  return _owners[tokenId] != address(0) */\n      swap1\n      pop\n        /* \"contracts/token/ERC721/ERC721.sol\":13481:13608  function _exists(uint256 tokenId) internal view virtual returns (bool) {\r... */\n      swap2\n      swap1\n      pop\n      jump\t// out\n        /* \"contracts/utils/Context.sol\":656:754  function _msgSender() internal view virtual returns (address) {\r... */\n    tag_108:\n        /* \"contracts/utils/Context.sol\":709:716  address */\n      0x00\n        /* \"contracts/utils/Context.sol\":736:746  msg.sender */\n      caller\n        /* \"contracts/utils/Context.sol\":729:746  return msg.sender */\n      swap1\n      pop\n        /* \"contracts/utils/Context.sol\":656:754  function _msgSender() internal view virtual returns (address) {\r... */\n      swap1\n      jump\t// out\n        /* \"contracts/token/ERC721/ERC721.sol\":7961:8135  function _approve(address to, uint256 tokenId) internal virtual {\r... */\n    tag_116:\n        /* \"contracts/token/ERC721/ERC721.sol\":8063:8065  to */\n      dup2\n        /* \"contracts/token/ERC721/ERC721.sol\":8036:8051  _tokenApprovals */\n      0x04\n        /* \"contracts/token/ERC721/ERC721.sol\":8036:8060  _tokenApprovals[tokenId] */\n      0x00\n        /* \"contracts/token/ERC721/ERC721.sol\":8052:8059  tokenId */\n      dup4\n        /* \"contracts/token/ERC721/ERC721.sol\":8036:8060  _tokenApprovals[tokenId] */\n      dup2\n      mstore\n      0x20\n      add\n      swap1\n      dup2\n      mstore\n      0x20\n      add\n      0x00\n      keccak256\n      0x00\n        /* \"contracts/token/ERC721/ERC721.sol\":8036:8065  _tokenApprovals[tokenId] = to */\n      0x0100\n      exp\n      dup2\n      sload\n      dup2\n      0xffffffffffffffffffffffffffffffffffffffff\n      mul\n      not\n      and\n      swap1\n      dup4\n      0xffffffffffffffffffffffffffffffffffffffff\n      and\n      mul\n      or\n      swap1\n      sstore\n      pop\n        /* \"contracts/token/ERC721/ERC721.sol\":8119:8126  tokenId */\n      dup1\n        /* \"contracts/token/ERC721/ERC721.sol\":8115:8117  to */\n      dup3\n        /* \"contracts/token/ERC721/ERC721.sol\":8081:8127  Approval(ERC721.ownerOf(tokenId), to, tokenId) */\n      0xffffffffffffffffffffffffffffffffffffffff\n      and\n        /* \"contracts/token/ERC721/ERC721.sol\":8090:8113  ERC721.ownerOf(tokenId) */\n      tag_178\n        /* \"contracts/token/ERC721/ERC721.sol\":8105:8112  tokenId */\n      dup4\n        /* \"contracts/token/ERC721/ERC721.sol\":8090:8104  ERC721.ownerOf */\n      tag_53\n        /* \"contracts/token/ERC721/ERC721.sol\":8090:8113  ERC721.ownerOf(tokenId) */\n      jump\t// in\n    tag_178:\n        /* \"contracts/token/ERC721/ERC721.sol\":8081:8127  Approval(ERC721.ownerOf(tokenId), to, tokenId) */\n      0xffffffffffffffffffffffffffffffffffffffff\n      and\n      0x8c5be1e5ebec7d5bd14f71427d1e84f3dd0314c0f7b2291e5b200ac8c7c3b925\n      mload(0x40)\n      mload(0x40)\n      dup1\n      swap2\n      sub\n      swap1\n      log4\n        /* \"contracts/token/ERC721/ERC721.sol\":7961:8135  function _approve(address to, uint256 tokenId) internal virtual {\r... */\n      pop\n      pop\n      jump\t// out\n        /* \"contracts/token/ERC721/ERC721.sol\":13019:13473  function _isApprovedOrOwner(address spender, uint256 tokenId)\r... */\n    tag_120:\n        /* \"contracts/token/ERC721/ERC721.sol\":13148:13152  bool */\n      0x00\n        /* \"contracts/token/ERC721/ERC721.sol\":13192:13208  _exists(tokenId) */\n      tag_180\n        /* \"contracts/token/ERC721/ERC721.sol\":13200:13207  tokenId */\n      dup3\n        /* \"contracts/token/ERC721/ERC721.sol\":13192:13199  _exists */\n      tag_98\n        /* \"contracts/token/ERC721/ERC721.sol\":13192:13208  _exists(tokenId) */\n      jump\t// in\n    tag_180:\n        /* \"contracts/token/ERC721/ERC721.sol\":13170:13280  require(\r... */\n      tag_181\n      jumpi\n      mload(0x40)\n      0x08c379a000000000000000000000000000000000000000000000000000000000\n      dup2\n      mstore\n      0x04\n      add\n      tag_182\n      swap1\n      tag_183\n      jump\t// in\n    tag_182:\n      mload(0x40)\n      dup1\n      swap2\n      sub\n      swap1\n      revert\n    tag_181:\n        /* \"contracts/token/ERC721/ERC721.sol\":13293:13306  address owner */\n      0x00\n        /* \"contracts/token/ERC721/ERC721.sol\":13309:13332  ERC721.ownerOf(tokenId) */\n      tag_184\n        /* \"contracts/token/ERC721/ERC721.sol\":13324:13331  tokenId */\n      dup4\n        /* \"contracts/token/ERC721/ERC721.sol\":13309:13323  ERC721.ownerOf */\n      tag_53\n        /* \"contracts/token/ERC721/ERC721.sol\":13309:13332  ERC721.ownerOf(tokenId) */\n      jump\t// in\n    tag_184:\n        /* \"contracts/token/ERC721/ERC721.sol\":13293:13332  address owner = ERC721.ownerOf(tokenId) */\n      swap1\n      pop\n        /* \"contracts/token/ERC721/ERC721.sol\":13362:13367  owner */\n      dup1\n        /* \"contracts/token/ERC721/ERC721.sol\":13351:13367  spender == owner */\n      0xffffffffffffffffffffffffffffffffffffffff\n      and\n        /* \"contracts/token/ERC721/ERC721.sol\":13351:13358  spender */\n      dup5\n        /* \"contracts/token/ERC721/ERC721.sol\":13351:13367  spender == owner */\n      0xffffffffffffffffffffffffffffffffffffffff\n      and\n      eq\n        /* \"contracts/token/ERC721/ERC721.sol\":13351:13416  spender == owner ||\r... */\n      dup1\n      tag_185\n      jumpi\n      pop\n        /* \"contracts/token/ERC721/ERC721.sol\":13384:13416  isApprovedForAll(owner, spender) */\n      tag_186\n        /* \"contracts/token/ERC721/ERC721.sol\":13401:13406  owner */\n      dup2\n        /* \"contracts/token/ERC721/ERC721.sol\":13408:13415  spender */\n      dup6\n        /* \"contracts/token/ERC721/ERC721.sol\":13384:13400  isApprovedForAll */\n      tag_82\n        /* \"contracts/token/ERC721/ERC721.sol\":13384:13416  isApprovedForAll(owner, spender) */\n      jump\t// in\n    tag_186:\n        /* \"contracts/token/ERC721/ERC721.sol\":13351:13416  spender == owner ||\r... */\n    tag_185:\n        /* \"contracts/token/ERC721/ERC721.sol\":13351:13464  spender == owner ||\r... */\n      dup1\n      tag_187\n      jumpi\n      pop\n        /* \"contracts/token/ERC721/ERC721.sol\":13457:13464  spender */\n      dup4\n        /* \"contracts/token/ERC721/ERC721.sol\":13433:13464  getApproved(tokenId) == spender */\n      0xffffffffffffffffffffffffffffffffffffffff\n      and\n        /* \"contracts/token/ERC721/ERC721.sol\":13433:13453  getApproved(tokenId) */\n      tag_188\n        /* \"contracts/token/ERC721/ERC721.sol\":13445:13452  tokenId */\n      dup5\n        /* \"contracts/token/ERC721/ERC721.sol\":13433:13444  getApproved */\n      tag_34\n        /* \"contracts/token/ERC721/ERC721.sol\":13433:13453  getApproved(tokenId) */\n      jump\t// in\n    tag_188:\n        /* \"contracts/token/ERC721/ERC721.sol\":13433:13464  getApproved(tokenId) == spender */\n      0xffffffffffffffffffffffffffffffffffffffff\n      and\n      eq\n        /* \"contracts/token/ERC721/ERC721.sol\":13351:13464  spender == owner ||\r... */\n    tag_187:\n        /* \"contracts/token/ERC721/ERC721.sol\":13343:13465  return (spender == owner ||\r... */\n      swap2\n      pop\n      pop\n        /* \"contracts/token/ERC721/ERC721.sol\":13019:13473  function _isApprovedOrOwner(address spender, uint256 tokenId)\r... */\n      swap3\n      swap2\n      pop\n      pop\n      jump\t// out\n        /* \"contracts/token/ERC721/ERC721.sol\":7156:7818  function _transfer(\r... */\n    tag_125:\n        /* \"contracts/token/ERC721/ERC721.sol\":7329:7333  from */\n      dup3\n        /* \"contracts/token/ERC721/ERC721.sol\":7302:7333  ERC721.ownerOf(tokenId) == from */\n      0xffffffffffffffffffffffffffffffffffffffff\n      and\n        /* \"contracts/token/ERC721/ERC721.sol\":7302:7325  ERC721.ownerOf(tokenId) */\n      tag_190\n        /* \"contracts/token/ERC721/ERC721.sol\":7317:7324  tokenId */\n      dup3\n        /* \"contracts/token/ERC721/ERC721.sol\":7302:7316  ERC721.ownerOf */\n      tag_53\n        /* \"contracts/token/ERC721/ERC721.sol\":7302:7325  ERC721.ownerOf(tokenId) */\n      jump\t// in\n    tag_190:\n        /* \"contracts/token/ERC721/ERC721.sol\":7302:7333  ERC721.ownerOf(tokenId) == from */\n      0xffffffffffffffffffffffffffffffffffffffff\n      and\n      eq\n        /* \"contracts/token/ERC721/ERC721.sol\":7280:7398  require(\r... */\n      tag_191\n      jumpi\n      mload(0x40)\n      0x08c379a000000000000000000000000000000000000000000000000000000000\n      dup2\n      mstore\n      0x04\n      add\n      tag_192\n      swap1\n      tag_193\n      jump\t// in\n    tag_192:\n      mload(0x40)\n      dup1\n      swap2\n      sub\n      swap1\n      revert\n    tag_191:\n        /* \"contracts/token/ERC721/ERC721.sol\":7431:7432  0 */\n      0x00\n        /* \"contracts/token/ERC721/ERC721.sol\":7417:7433  to != address(0) */\n      0xffffffffffffffffffffffffffffffffffffffff\n      and\n        /* \"contracts/token/ERC721/ERC721.sol\":7417:7419  to */\n      dup3\n        /* \"contracts/token/ERC721/ERC721.sol\":7417:7433  to != address(0) */\n      0xffffffffffffffffffffffffffffffffffffffff\n      and\n      eq\n      iszero\n        /* \"contracts/token/ERC721/ERC721.sol\":7409:7474  require(to != address(0), \"ERC721: transfer to the zero address\") */\n      tag_194\n      jumpi\n      mload(0x40)\n      0x08c379a000000000000000000000000000000000000000000000000000000000\n      dup2\n      mstore\n      0x04\n      add\n      tag_195\n      swap1\n      tag_196\n      jump\t// in\n    tag_195:\n      mload(0x40)\n      dup1\n      swap2\n      sub\n      swap1\n      revert\n    tag_194:\n        /* \"contracts/token/ERC721/ERC721.sol\":7487:7526  _beforeTokenTransfer(from, to, tokenId) */\n      tag_197\n        /* \"contracts/token/ERC721/ERC721.sol\":7508:7512  from */\n      dup4\n        /* \"contracts/token/ERC721/ERC721.sol\":7514:7516  to */\n      dup4\n        /* \"contracts/token/ERC721/ERC721.sol\":7518:7525  tokenId */\n      dup4\n        /* \"contracts/token/ERC721/ERC721.sol\":7487:7507  _beforeTokenTransfer */\n      tag_198\n        /* \"contracts/token/ERC721/ERC721.sol\":7487:7526  _beforeTokenTransfer(from, to, tokenId) */\n      jump\t// in\n    tag_197:\n        /* \"contracts/token/ERC721/ERC721.sol\":7591:7620  _approve(address(0), tokenId) */\n      tag_199\n        /* \"contracts/token/ERC721/ERC721.sol\":7608:7609  0 */\n      0x00\n        /* \"contracts/token/ERC721/ERC721.sol\":7612:7619  tokenId */\n      dup3\n        /* \"contracts/token/ERC721/ERC721.sol\":7591:7599  _approve */\n      tag_116\n        /* \"contracts/token/ERC721/ERC721.sol\":7591:7620  _approve(address(0), tokenId) */\n      jump\t// in\n    tag_199:\n        /* \"contracts/token/ERC721/ERC721.sol\":7652:7653  1 */\n      0x01\n        /* \"contracts/token/ERC721/ERC721.sol\":7633:7642  _balances */\n      0x03\n        /* \"contracts/token/ERC721/ERC721.sol\":7633:7648  _balances[from] */\n      0x00\n        /* \"contracts/token/ERC721/ERC721.sol\":7643:7647  from */\n      dup6\n        /* \"contracts/token/ERC721/ERC721.sol\":7633:7648  _balances[from] */\n      0xffffffffffffffffffffffffffffffffffffffff\n      and\n      0xffffffffffffffffffffffffffffffffffffffff\n      and\n      dup2\n      mstore\n      0x20\n      add\n      swap1\n      dup2\n      mstore\n      0x20\n      add\n      0x00\n      keccak256\n      0x00\n        /* \"contracts/token/ERC721/ERC721.sol\":7633:7653  _balances[from] -= 1 */\n      dup3\n      dup3\n      sload\n      tag_200\n      swap2\n      swap1\n      tag_201\n      jump\t// in\n    tag_200:\n      swap3\n      pop\n      pop\n      dup2\n      swap1\n      sstore\n      pop\n        /* \"contracts/token/ERC721/ERC721.sol\":7681:7682  1 */\n      0x01\n        /* \"contracts/token/ERC721/ERC721.sol\":7664:7673  _balances */\n      0x03\n        /* \"contracts/token/ERC721/ERC721.sol\":7664:7677  _balances[to] */\n      0x00\n        /* \"contracts/token/ERC721/ERC721.sol\":7674:7676  to */\n      dup5\n        /* \"contracts/token/ERC721/ERC721.sol\":7664:7677  _balances[to] */\n      0xffffffffffffffffffffffffffffffffffffffff\n      and\n      0xffffffffffffffffffffffffffffffffffffffff\n      and\n      dup2\n      mstore\n      0x20\n      add\n      swap1\n      dup2\n      mstore\n      0x20\n      add\n      0x00\n      keccak256\n      0x00\n        /* \"contracts/token/ERC721/ERC721.sol\":7664:7682  _balances[to] += 1 */\n      dup3\n      dup3\n      sload\n      tag_202\n      swap2\n      swap1\n      tag_203\n      jump\t// in\n    tag_202:\n      swap3\n      pop\n      pop\n      dup2\n      swap1\n      sstore\n      pop\n        /* \"contracts/token/ERC721/ERC721.sol\":7712:7714  to */\n      dup2\n        /* \"contracts/token/ERC721/ERC721.sol\":7693:7700  _owners */\n      0x02\n        /* \"contracts/token/ERC721/ERC721.sol\":7693:7709  _owners[tokenId] */\n      0x00\n        /* \"contracts/token/ERC721/ERC721.sol\":7701:7708  tokenId */\n      dup4\n        /* \"contracts/token/ERC721/ERC721.sol\":7693:7709  _owners[tokenId] */\n      dup2\n      mstore\n      0x20\n      add\n      swap1\n      dup2\n      mstore\n      0x20\n      add\n      0x00\n      keccak256\n      0x00\n        /* \"contracts/token/ERC721/ERC721.sol\":7693:7714  _owners[tokenId] = to */\n      0x0100\n      exp\n      dup2\n      sload\n      dup2\n      0xffffffffffffffffffffffffffffffffffffffff\n      mul\n      not\n      and\n      swap1\n      dup4\n      0xffffffffffffffffffffffffffffffffffffffff\n      and\n      mul\n      or\n      swap1\n      sstore\n      pop\n        /* \"contracts/token/ERC721/ERC721.sol\":7751:7758  tokenId */\n      dup1\n        /* \"contracts/token/ERC721/ERC721.sol\":7747:7749  to */\n      dup3\n        /* \"contracts/token/ERC721/ERC721.sol\":7732:7759  Transfer(from, to, tokenId) */\n      0xffffffffffffffffffffffffffffffffffffffff\n      and\n        /* \"contracts/token/ERC721/ERC721.sol\":7741:7745  from */\n      dup5\n        /* \"contracts/token/ERC721/ERC721.sol\":7732:7759  Transfer(from, to, tokenId) */\n      0xffffffffffffffffffffffffffffffffffffffff\n      and\n      0xddf252ad1be2c89b69c2b068fc378daa952ba7f163c4a11628f55a4df523b3ef\n      mload(0x40)\n      mload(0x40)\n      dup1\n      swap2\n      sub\n      swap1\n      log4\n        /* \"contracts/token/ERC721/ERC721.sol\":7772:7810  _afterTokenTransfer(from, to, tokenId) */\n      tag_204\n        /* \"contracts/token/ERC721/ERC721.sol\":7792:7796  from */\n      dup4\n        /* \"contracts/token/ERC721/ERC721.sol\":7798:7800  to */\n      dup4\n        /* \"contracts/token/ERC721/ERC721.sol\":7802:7809  tokenId */\n      dup4\n        /* \"contracts/token/ERC721/ERC721.sol\":7772:7791  _afterTokenTransfer */\n      tag_205\n        /* \"contracts/token/ERC721/ERC721.sol\":7772:7810  _afterTokenTransfer(from, to, tokenId) */\n      jump\t// in\n    tag_204:\n        /* \"contracts/token/ERC721/ERC721.sol\":7156:7818  function _transfer(\r... */\n      pop\n      pop\n      pop\n      jump\t// out\n        /* \"contracts/token/ERC721/ERC721.sol\":15070:15462  function _burn(uint256 tokenId) internal virtual {\r... */\n    tag_130:\n        /* \"contracts/token/ERC721/ERC721.sol\":15130:15143  address owner */\n      0x00\n        /* \"contracts/token/ERC721/ERC721.sol\":15146:15169  ERC721.ownerOf(tokenId) */\n      tag_207\n        /* \"contracts/token/ERC721/ERC721.sol\":15161:15168  tokenId */\n      dup3\n        /* \"contracts/token/ERC721/ERC721.sol\":15146:15160  ERC721.ownerOf */\n      tag_53\n        /* \"contracts/token/ERC721/ERC721.sol\":15146:15169  ERC721.ownerOf(tokenId) */\n      jump\t// in\n    tag_207:\n        /* \"contracts/token/ERC721/ERC721.sol\":15130:15169  address owner = ERC721.ownerOf(tokenId) */\n      swap1\n      pop\n        /* \"contracts/token/ERC721/ERC721.sol\":15182:15230  _beforeTokenTransfer(owner, address(0), tokenId) */\n      tag_208\n        /* \"contracts/token/ERC721/ERC721.sol\":15203:15208  owner */\n      dup2\n        /* \"contracts/token/ERC721/ERC721.sol\":15218:15219  0 */\n      0x00\n        /* \"contracts/token/ERC721/ERC721.sol\":15222:15229  tokenId */\n      dup5\n        /* \"contracts/token/ERC721/ERC721.sol\":15182:15202  _beforeTokenTransfer */\n      tag_198\n        /* \"contracts/token/ERC721/ERC721.sol\":15182:15230  _beforeTokenTransfer(owner, address(0), tokenId) */\n      jump\t// in\n    tag_208:\n        /* \"contracts/token/ERC721/ERC721.sol\":15243:15272  _approve(address(0), tokenId) */\n      tag_209\n        /* \"contracts/token/ERC721/ERC721.sol\":15260:15261  0 */\n      0x00\n        /* \"contracts/token/ERC721/ERC721.sol\":15264:15271  tokenId */\n      dup4\n        /* \"contracts/token/ERC721/ERC721.sol\":15243:15251  _approve */\n      tag_116\n        /* \"contracts/token/ERC721/ERC721.sol\":15243:15272  _approve(address(0), tokenId) */\n      jump\t// in\n    tag_209:\n        /* \"contracts/token/ERC721/ERC721.sol\":15305:15306  1 */\n      0x01\n        /* \"contracts/token/ERC721/ERC721.sol\":15285:15294  _balances */\n      0x03\n        /* \"contracts/token/ERC721/ERC721.sol\":15285:15301  _balances[owner] */\n      0x00\n        /* \"contracts/token/ERC721/ERC721.sol\":15295:15300  owner */\n      dup4\n        /* \"contracts/token/ERC721/ERC721.sol\":15285:15301  _balances[owner] */\n      0xffffffffffffffffffffffffffffffffffffffff\n      and\n      0xffffffffffffffffffffffffffffffffffffffff\n      and\n      dup2\n      mstore\n      0x20\n      add\n      swap1\n      dup2\n      mstore\n      0x20\n      add\n      0x00\n      keccak256\n      0x00\n        /* \"contracts/token/ERC721/ERC721.sol\":15285:15306  _balances[owner] -= 1 */\n      dup3\n      dup3\n      sload\n      tag_210\n      swap2\n      swap1\n      tag_201\n      jump\t// in\n    tag_210:\n      swap3\n      pop\n      pop\n      dup2\n      swap1\n      sstore\n      pop\n        /* \"contracts/token/ERC721/ERC721.sol\":15324:15331  _owners */\n      0x02\n        /* \"contracts/token/ERC721/ERC721.sol\":15324:15340  _owners[tokenId] */\n      0x00\n        /* \"contracts/token/ERC721/ERC721.sol\":15332:15339  tokenId */\n      dup4\n        /* \"contracts/token/ERC721/ERC721.sol\":15324:15340  _owners[tokenId] */\n      dup2\n      mstore\n      0x20\n      add\n      swap1\n      dup2\n      mstore\n      0x20\n      add\n      0x00\n      keccak256\n      0x00\n        /* \"contracts/token/ERC721/ERC721.sol\":15317:15340  delete _owners[tokenId] */\n      0x0100\n      exp\n      dup2\n      sload\n      swap1\n      0xffffffffffffffffffffffffffffffffffffffff\n      mul\n      not\n      and\n      swap1\n      sstore\n        /* \"contracts/token/ERC721/ERC721.sol\":15386:15393  tokenId */\n      dup2\n        /* \"contracts/token/ERC721/ERC721.sol\":15382:15383  0 */\n      0x00\n        /* \"contracts/token/ERC721/ERC721.sol\":15358:15394  Transfer(owner, address(0), tokenId) */\n      0xffffffffffffffffffffffffffffffffffffffff\n      and\n        /* \"contracts/token/ERC721/ERC721.sol\":15367:15372  owner */\n      dup3\n        /* \"contracts/token/ERC721/ERC721.sol\":15358:15394  Transfer(owner, address(0), tokenId) */\n      0xffffffffffffffffffffffffffffffffffffffff\n      and\n      0xddf252ad1be2c89b69c2b068fc378daa952ba7f163c4a11628f55a4df523b3ef\n      mload(0x40)\n      mload(0x40)\n      dup1\n      swap2\n      sub\n      swap1\n      log4\n        /* \"contracts/token/ERC721/ERC721.sol\":15407:15454  _afterTokenTransfer(owner, address(0), tokenId) */\n      tag_211\n        /* \"contracts/token/ERC721/ERC721.sol\":15427:15432  owner */\n      dup2\n        /* \"contracts/token/ERC721/ERC721.sol\":15442:15443  0 */\n      0x00\n        /* \"contracts/token/ERC721/ERC721.sol\":15446:15453  tokenId */\n      dup5\n        /* \"contracts/token/ERC721/ERC721.sol\":15407:15426  _afterTokenTransfer */\n      tag_205\n        /* \"contracts/token/ERC721/ERC721.sol\":15407:15454  _afterTokenTransfer(owner, address(0), tokenId) */\n      jump\t// in\n    tag_211:\n        /* \"contracts/token/ERC721/ERC721.sol\":15070:15462  function _burn(uint256 tokenId) internal virtual {\r... */\n      pop\n      pop\n      jump\t// out\n        /* \"contracts/token/ERC721/ERC721.sol\":14435:14545  function _safeMint(address to, uint256 tokenId) internal virtual {\r... */\n    tag_147:\n        /* \"contracts/token/ERC721/ERC721.sol\":14511:14537  _safeMint(to, tokenId, \"\") */\n      tag_213\n        /* \"contracts/token/ERC721/ERC721.sol\":14521:14523  to */\n      dup3\n        /* \"contracts/token/ERC721/ERC721.sol\":14525:14532  tokenId */\n      dup3\n        /* \"contracts/token/ERC721/ERC721.sol\":14511:14537  _safeMint(to, tokenId, \"\") */\n      mload(0x40)\n      dup1\n      0x20\n      add\n      0x40\n      mstore\n      dup1\n      0x00\n      dup2\n      mstore\n      pop\n        /* \"contracts/token/ERC721/ERC721.sol\":14511:14520  _safeMint */\n      tag_214\n        /* \"contracts/token/ERC721/ERC721.sol\":14511:14537  _safeMint(to, tokenId, \"\") */\n      jump\t// in\n    tag_213:\n        /* \"contracts/token/ERC721/ERC721.sol\":14435:14545  function _safeMint(address to, uint256 tokenId) internal virtual {\r... */\n      pop\n      pop\n      jump\t// out\n        /* \"contracts/token/ERC721/ERC721.sol\":5795:6110  function _setApprovalForAll(\r... */\n    tag_151:\n        /* \"contracts/token/ERC721/ERC721.sol\":5950:5958  operator */\n      dup2\n        /* \"contracts/token/ERC721/ERC721.sol\":5941:5958  owner != operator */\n      0xffffffffffffffffffffffffffffffffffffffff\n      and\n        /* \"contracts/token/ERC721/ERC721.sol\":5941:5946  owner */\n      dup4\n        /* \"contracts/token/ERC721/ERC721.sol\":5941:5958  owner != operator */\n      0xffffffffffffffffffffffffffffffffffffffff\n      and\n      eq\n      iszero\n        /* \"contracts/token/ERC721/ERC721.sol\":5933:5988  require(owner != operator, \"ERC721: approve to caller\") */\n      tag_216\n      jumpi\n      mload(0x40)\n      0x08c379a000000000000000000000000000000000000000000000000000000000\n      dup2\n      mstore\n      0x04\n      add\n      tag_217\n      swap1\n      tag_218\n      jump\t// in\n    tag_217:\n      mload(0x40)\n      dup1\n      swap2\n      sub\n      swap1\n      revert\n    tag_216:\n        /* \"contracts/token/ERC721/ERC721.sol\":6037:6045  approved */\n      dup1\n        /* \"contracts/token/ERC721/ERC721.sol\":5999:6017  _operatorApprovals */\n      0x05\n        /* \"contracts/token/ERC721/ERC721.sol\":5999:6024  _operatorApprovals[owner] */\n      0x00\n        /* \"contracts/token/ERC721/ERC721.sol\":6018:6023  owner */\n      dup6\n        /* \"contracts/token/ERC721/ERC721.sol\":5999:6024  _operatorApprovals[owner] */\n      0xffffffffffffffffffffffffffffffffffffffff\n      and\n      0xffffffffffffffffffffffffffffffffffffffff\n      and\n      dup2\n      mstore\n      0x20\n      add\n      swap1\n      dup2\n      mstore\n      0x20\n      add\n      0x00\n      keccak256\n        /* \"contracts/token/ERC721/ERC721.sol\":5999:6034  _operatorApprovals[owner][operator] */\n      0x00\n        /* \"contracts/token/ERC721/ERC721.sol\":6025:6033  operator */\n      dup5\n        /* \"contracts/token/ERC721/ERC721.sol\":5999:6034  _operatorApprovals[owner][operator] */\n      0xffffffffffffffffffffffffffffffffffffffff\n      and\n      0xffffffffffffffffffffffffffffffffffffffff\n      and\n      dup2\n      mstore\n      0x20\n      add\n      swap1\n      dup2\n      mstore\n      0x20\n      add\n      0x00\n      keccak256\n      0x00\n        /* \"contracts/token/ERC721/ERC721.sol\":5999:6045  _operatorApprovals[owner][operator] = approved */\n      0x0100\n      exp\n      dup2\n      sload\n      dup2\n      0xff\n      mul\n      not\n      and\n      swap1\n      dup4\n      iszero\n      iszero\n      mul\n      or\n      swap1\n      sstore\n      pop\n        /* \"contracts/token/ERC721/ERC721.sol\":6083:6091  operator */\n      dup2\n        /* \"contracts/token/ERC721/ERC721.sol\":6061:6102  ApprovalForAll(owner, operator, approved) */\n      0xffffffffffffffffffffffffffffffffffffffff\n      and\n        /* \"contracts/token/ERC721/ERC721.sol\":6076:6081  owner */\n      dup4\n        /* \"contracts/token/ERC721/ERC721.sol\":6061:6102  ApprovalForAll(owner, operator, approved) */\n      0xffffffffffffffffffffffffffffffffffffffff\n      and\n      0x17307eab39ab6107e8899845ad3d59bd9653f200f220920489ca2b5937696c31\n        /* \"contracts/token/ERC721/ERC721.sol\":6093:6101  approved */\n      dup4\n        /* \"contracts/token/ERC721/ERC721.sol\":6061:6102  ApprovalForAll(owner, operator, approved) */\n      mload(0x40)\n      tag_219\n      swap2\n      swap1\n      tag_26\n      jump\t// in\n    tag_219:\n      mload(0x40)\n      dup1\n      swap2\n      sub\n      swap1\n      log3\n        /* \"contracts/token/ERC721/ERC721.sol\":5795:6110  function _setApprovalForAll(\r... */\n      pop\n      pop\n      pop\n      jump\t// out\n        /* \"contracts/token/ERC721/ERC721.sol\":11226:11578  function _safeTransfer(\r... */\n    tag_159:\n        /* \"contracts/token/ERC721/ERC721.sol\":11383:11411  _transfer(from, to, tokenId) */\n      tag_221\n        /* \"contracts/token/ERC721/ERC721.sol\":11393:11397  from */\n      dup5\n        /* \"contracts/token/ERC721/ERC721.sol\":11399:11401  to */\n      dup5\n        /* \"contracts/token/ERC721/ERC721.sol\":11403:11410  tokenId */\n      dup5\n        /* \"contracts/token/ERC721/ERC721.sol\":11383:11392  _transfer */\n      tag_125\n        /* \"contracts/token/ERC721/ERC721.sol\":11383:11411  _transfer(from, to, tokenId) */\n      jump\t// in\n    tag_221:\n        /* \"contracts/token/ERC721/ERC721.sol\":11444:11492  _checkOnERC721Received(from, to, tokenId, _data) */\n      tag_222\n        /* \"contracts/token/ERC721/ERC721.sol\":11467:11471  from */\n      dup5\n        /* \"contracts/token/ERC721/ERC721.sol\":11473:11475  to */\n      dup5\n        /* \"contracts/token/ERC721/ERC721.sol\":11477:11484  tokenId */\n      dup5\n        /* \"contracts/token/ERC721/ERC721.sol\":11486:11491  _data */\n      dup5\n        /* \"contracts/token/ERC721/ERC721.sol\":11444:11466  _checkOnERC721Received */\n      tag_223\n        /* \"contracts/token/ERC721/ERC721.sol\":11444:11492  _checkOnERC721Received(from, to, tokenId, _data) */\n      jump\t// in\n    tag_222:\n        /* \"contracts/token/ERC721/ERC721.sol\":11422:11570  require(\r... */\n      tag_224\n      jumpi\n      mload(0x40)\n      0x08c379a000000000000000000000000000000000000000000000000000000000\n      dup2\n      mstore\n      0x04\n      add\n      tag_225\n      swap1\n      tag_226\n      jump\t// in\n    tag_225:\n      mload(0x40)\n      dup1\n      swap2\n      sub\n      swap1\n      revert\n    tag_224:\n        /* \"contracts/token/ERC721/ERC721.sol\":11226:11578  function _safeTransfer(\r... */\n      pop\n      pop\n      pop\n      pop\n      jump\t// out\n        /* \"contracts/token/ERC721/ERC721.sol\":3903:3997  function _baseURI() internal view virtual returns (string memory) {\r... */\n    tag_166:\n        /* \"contracts/token/ERC721/ERC721.sol\":3954:3967  string memory */\n      0x60\n        /* \"contracts/token/ERC721/ERC721.sol\":3980:3989  return \"\" */\n      mload(0x40)\n      dup1\n      0x20\n      add\n      0x40\n      mstore\n      dup1\n      0x00\n      dup2\n      mstore\n      pop\n      swap1\n      pop\n        /* \"contracts/token/ERC721/ERC721.sol\":3903:3997  function _baseURI() internal view virtual returns (string memory) {\r... */\n      swap1\n      jump\t// out\n        /* \"contracts/utils/Strings.sol\":342:1065  function toString(uint256 value) internal pure returns (string memory) {\r... */\n    tag_170:\n        /* \"contracts/utils/Strings.sol\":398:411  string memory */\n      0x60\n        /* \"contracts/utils/Strings.sol\":628:629  0 */\n      0x00\n        /* \"contracts/utils/Strings.sol\":619:624  value */\n      dup3\n        /* \"contracts/utils/Strings.sol\":619:629  value == 0 */\n      eq\n        /* \"contracts/utils/Strings.sol\":615:668  if (value == 0) {\r... */\n      iszero\n      tag_229\n      jumpi\n        /* \"contracts/utils/Strings.sol\":646:656  return \"0\" */\n      mload(0x40)\n      dup1\n      0x40\n      add\n      0x40\n      mstore\n      dup1\n      0x01\n      dup2\n      mstore\n      0x20\n      add\n      0x3000000000000000000000000000000000000000000000000000000000000000\n      dup2\n      mstore\n      pop\n      swap1\n      pop\n      jump(tag_228)\n        /* \"contracts/utils/Strings.sol\":615:668  if (value == 0) {\r... */\n    tag_229:\n        /* \"contracts/utils/Strings.sol\":678:690  uint256 temp */\n      0x00\n        /* \"contracts/utils/Strings.sol\":693:698  value */\n      dup3\n        /* \"contracts/utils/Strings.sol\":678:698  uint256 temp = value */\n      swap1\n      pop\n        /* \"contracts/utils/Strings.sol\":709:723  uint256 digits */\n      0x00\n        /* \"contracts/utils/Strings.sol\":734:812  while (temp != 0) {\r... */\n    tag_230:\n        /* \"contracts/utils/Strings.sol\":749:750  0 */\n      0x00\n        /* \"contracts/utils/Strings.sol\":741:745  temp */\n      dup3\n        /* \"contracts/utils/Strings.sol\":741:750  temp != 0 */\n      eq\n        /* \"contracts/utils/Strings.sol\":734:812  while (temp != 0) {\r... */\n      tag_231\n      jumpi\n        /* \"contracts/utils/Strings.sol\":767:775  digits++ */\n      dup1\n      dup1\n      tag_232\n      swap1\n      tag_233\n      jump\t// in\n    tag_232:\n      swap2\n      pop\n      pop\n        /* \"contracts/utils/Strings.sol\":798:800  10 */\n      0x0a\n        /* \"contracts/utils/Strings.sol\":790:800  temp /= 10 */\n      dup3\n      tag_234\n      swap2\n      swap1\n      tag_235\n      jump\t// in\n    tag_234:\n      swap2\n      pop\n        /* \"contracts/utils/Strings.sol\":734:812  while (temp != 0) {\r... */\n      jump(tag_230)\n    tag_231:\n        /* \"contracts/utils/Strings.sol\":822:841  bytes memory buffer */\n      0x00\n        /* \"contracts/utils/Strings.sol\":854:860  digits */\n      dup2\n        /* \"contracts/utils/Strings.sol\":844:861  new bytes(digits) */\n      0xffffffffffffffff\n      dup2\n      gt\n      iszero\n      tag_236\n      jumpi\n      mstore(0x00, 0x4e487b7100000000000000000000000000000000000000000000000000000000)\n      mstore(0x04, 0x41)\n      revert(0x00, 0x24)\n    tag_236:\n      mload(0x40)\n      swap1\n      dup1\n      dup3\n      mstore\n      dup1\n      0x1f\n      add\n      not(0x1f)\n      and\n      0x20\n      add\n      dup3\n      add\n      0x40\n      mstore\n      dup1\n      iszero\n      tag_237\n      jumpi\n      dup2\n      0x20\n      add\n      0x01\n      dup3\n      mul\n      dup1\n      calldatasize\n      dup4\n      calldatacopy\n      dup1\n      dup3\n      add\n      swap2\n      pop\n      pop\n      swap1\n      pop\n    tag_237:\n      pop\n        /* \"contracts/utils/Strings.sol\":822:861  bytes memory buffer = new bytes(digits) */\n      swap1\n      pop\n        /* \"contracts/utils/Strings.sol\":872:1026  while (value != 0) {\r... */\n    tag_238:\n        /* \"contracts/utils/Strings.sol\":888:889  0 */\n      0x00\n        /* \"contracts/utils/Strings.sol\":879:884  value */\n      dup6\n        /* \"contracts/utils/Strings.sol\":879:889  value != 0 */\n      eq\n        /* \"contracts/utils/Strings.sol\":872:1026  while (value != 0) {\r... */\n      tag_239\n      jumpi\n        /* \"contracts/utils/Strings.sol\":916:917  1 */\n      0x01\n        /* \"contracts/utils/Strings.sol\":906:917  digits -= 1 */\n      dup3\n      tag_240\n      swap2\n      swap1\n      tag_201\n      jump\t// in\n    tag_240:\n      swap2\n      pop\n        /* \"contracts/utils/Strings.sol\":983:985  10 */\n      0x0a\n        /* \"contracts/utils/Strings.sol\":975:980  value */\n      dup6\n        /* \"contracts/utils/Strings.sol\":975:985  value % 10 */\n      tag_241\n      swap2\n      swap1\n      tag_242\n      jump\t// in\n    tag_241:\n        /* \"contracts/utils/Strings.sol\":962:964  48 */\n      0x30\n        /* \"contracts/utils/Strings.sol\":962:986  48 + uint256(value % 10) */\n      tag_243\n      swap2\n      swap1\n      tag_203\n      jump\t// in\n    tag_243:\n        /* \"contracts/utils/Strings.sol\":949:988  bytes1(uint8(48 + uint256(value % 10))) */\n      0xf8\n      shl\n        /* \"contracts/utils/Strings.sol\":932:938  buffer */\n      dup2\n        /* \"contracts/utils/Strings.sol\":939:945  digits */\n      dup4\n        /* \"contracts/utils/Strings.sol\":932:946  buffer[digits] */\n      dup2\n      mload\n      dup2\n      lt\n      tag_244\n      jumpi\n      mstore(0x00, 0x4e487b7100000000000000000000000000000000000000000000000000000000)\n      mstore(0x04, 0x32)\n      revert(0x00, 0x24)\n    tag_244:\n      0x20\n      add\n      add\n        /* \"contracts/utils/Strings.sol\":932:988  buffer[digits] = bytes1(uint8(48 + uint256(value % 10))) */\n      swap1\n      not(0xffffffffffffffffffffffffffffffffffffffffffffffffffffffffffffff)\n      and\n      swap1\n      dup2\n      0x00\n      byte\n      swap1\n      mstore8\n      pop\n        /* \"contracts/utils/Strings.sol\":1012:1014  10 */\n      0x0a\n        /* \"contracts/utils/Strings.sol\":1003:1014  value /= 10 */\n      dup6\n      tag_245\n      swap2\n      swap1\n      tag_235\n      jump\t// in\n    tag_245:\n      swap5\n      pop\n        /* \"contracts/utils/Strings.sol\":872:1026  while (value != 0) {\r... */\n      jump(tag_238)\n    tag_239:\n        /* \"contracts/utils/Strings.sol\":1050:1056  buffer */\n      dup1\n        /* \"contracts/utils/Strings.sol\":1036:1057  return string(buffer) */\n      swap4\n      pop\n      pop\n      pop\n      pop\n        /* \"contracts/utils/Strings.sol\":342:1065  function toString(uint256 value) internal pure returns (string memory) {\r... */\n    tag_228:\n      swap2\n      swap1\n      pop\n      jump\t// out\n        /* \"contracts/token/ERC721/ERC721.sol\":8619:8745  function _beforeTokenTransfer(\r... */\n    tag_198:\n      pop\n      pop\n      pop\n      jump\t// out\n        /* \"contracts/token/ERC721/ERC721.sol\":8992:9117  function _afterTokenTransfer(\r... */\n    tag_205:\n      pop\n      pop\n      pop\n      jump\t// out\n        /* \"contracts/token/ERC721/ERC721.sol\":14553:14874  function _safeMint(\r... */\n    tag_214:\n        /* \"contracts/token/ERC721/ERC721.sol\":14683:14701  _mint(to, tokenId) */\n      tag_249\n        /* \"contracts/token/ERC721/ERC721.sol\":14689:14691  to */\n      dup4\n        /* \"contracts/token/ERC721/ERC721.sol\":14693:14700  tokenId */\n      dup4\n        /* \"contracts/token/ERC721/ERC721.sol\":14683:14688  _mint */\n      tag_250\n        /* \"contracts/token/ERC721/ERC721.sol\":14683:14701  _mint(to, tokenId) */\n      jump\t// in\n    tag_249:\n        /* \"contracts/token/ERC721/ERC721.sol\":14734:14788  _checkOnERC721Received(address(0), to, tokenId, _data) */\n      tag_251\n        /* \"contracts/token/ERC721/ERC721.sol\":14765:14766  0 */\n      0x00\n        /* \"contracts/token/ERC721/ERC721.sol\":14769:14771  to */\n      dup5\n        /* \"contracts/token/ERC721/ERC721.sol\":14773:14780  tokenId */\n      dup5\n        /* \"contracts/token/ERC721/ERC721.sol\":14782:14787  _data */\n      dup5\n        /* \"contracts/token/ERC721/ERC721.sol\":14734:14756  _checkOnERC721Received */\n      tag_223\n        /* \"contracts/token/ERC721/ERC721.sol\":14734:14788  _checkOnERC721Received(address(0), to, tokenId, _data) */\n      jump\t// in\n    tag_251:\n        /* \"contracts/token/ERC721/ERC721.sol\":14712:14866  require(\r... */\n      tag_252\n      jumpi\n      mload(0x40)\n      0x08c379a000000000000000000000000000000000000000000000000000000000\n      dup2\n      mstore\n      0x04\n      add\n      tag_253\n      swap1\n      tag_226\n      jump\t// in\n    tag_253:\n      mload(0x40)\n      dup1\n      swap2\n      sub\n      swap1\n      revert\n    tag_252:\n        /* \"contracts/token/ERC721/ERC721.sol\":14553:14874  function _safeMint(\r... */\n      pop\n      pop\n      pop\n      jump\t// out\n        /* \"contracts/token/ERC721/ERC721.sol\":11820:12800  function _checkOnERC721Received(\r... */\n    tag_223:\n        /* \"contracts/token/ERC721/ERC721.sol\":11975:11979  bool */\n      0x00\n        /* \"contracts/token/ERC721/ERC721.sol\":11996:12011  to.isContract() */\n      tag_255\n        /* \"contracts/token/ERC721/ERC721.sol\":11996:11998  to */\n      dup5\n        /* \"contracts/token/ERC721/ERC721.sol\":11996:12009  to.isContract */\n      0xffffffffffffffffffffffffffffffffffffffff\n      and\n      tag_256\n        /* \"contracts/token/ERC721/ERC721.sol\":11996:12011  to.isContract() */\n      jump\t// in\n    tag_255:\n        /* \"contracts/token/ERC721/ERC721.sol\":11992:12793  if (to.isContract()) {\r... */\n      iszero\n      tag_257\n      jumpi\n        /* \"contracts/token/ERC721/ERC721.sol\":12065:12067  to */\n      dup4\n        /* \"contracts/token/ERC721/ERC721.sol\":12049:12085  IERC721Receiver(to).onERC721Received */\n      0xffffffffffffffffffffffffffffffffffffffff\n      and\n      0x150b7a02\n        /* \"contracts/token/ERC721/ERC721.sol\":12108:12120  _msgSender() */\n      tag_258\n        /* \"contracts/token/ERC721/ERC721.sol\":12108:12118  _msgSender */\n      tag_108\n        /* \"contracts/token/ERC721/ERC721.sol\":12108:12120  _msgSender() */\n      jump\t// in\n    tag_258:\n        /* \"contracts/token/ERC721/ERC721.sol\":12143:12147  from */\n      dup8\n        /* \"contracts/token/ERC721/ERC721.sol\":12170:12177  tokenId */\n      dup7\n        /* \"contracts/token/ERC721/ERC721.sol\":12200:12205  _data */\n      dup7\n        /* \"contracts/token/ERC721/ERC721.sol\":12049:12224  IERC721Receiver(to).onERC721Received(\r... */\n      mload(0x40)\n      dup6\n      0xffffffff\n      and\n      0xe0\n      shl\n      dup2\n      mstore\n      0x04\n      add\n      tag_259\n      swap5\n      swap4\n      swap3\n      swap2\n      swap1\n      tag_260\n      jump\t// in\n    tag_259:\n      0x20\n      mload(0x40)\n      dup1\n      dup4\n      sub\n      dup2\n      0x00\n      dup8\n      dup1\n      extcodesize\n      iszero\n      dup1\n      iszero\n      tag_261\n      jumpi\n      0x00\n      dup1\n      revert\n    tag_261:\n      pop\n      gas\n      call\n      swap3\n      pop\n      pop\n      pop\n      dup1\n      iszero\n      tag_262\n      jumpi\n      pop\n      mload(0x40)\n      returndatasize\n      not(0x1f)\n      0x1f\n      dup3\n      add\n      and\n      dup3\n      add\n      dup1\n      0x40\n      mstore\n      pop\n      dup2\n      add\n      swap1\n      tag_263\n      swap2\n      swap1\n      tag_264\n      jump\t// in\n    tag_263:\n      0x01\n    tag_262:\n        /* \"contracts/token/ERC721/ERC721.sol\":12028:12738  try\r... */\n      tag_265\n      jumpi\n      returndatasize\n      dup1\n      0x00\n      dup2\n      eq\n      tag_270\n      jumpi\n      mload(0x40)\n      swap2\n      pop\n      and(add(returndatasize, 0x3f), not(0x1f))\n      dup3\n      add\n      0x40\n      mstore\n      returndatasize\n      dup3\n      mstore\n      returndatasize\n      0x00\n      0x20\n      dup5\n      add\n      returndatacopy\n      jump(tag_269)\n    tag_270:\n      0x60\n      swap2\n      pop\n    tag_269:\n      pop\n        /* \"contracts/token/ERC721/ERC721.sol\":12424:12425  0 */\n      0x00\n        /* \"contracts/token/ERC721/ERC721.sol\":12407:12413  reason */\n      dup2\n        /* \"contracts/token/ERC721/ERC721.sol\":12407:12420  reason.length */\n      mload\n        /* \"contracts/token/ERC721/ERC721.sol\":12407:12425  reason.length == 0 */\n      eq\n        /* \"contracts/token/ERC721/ERC721.sol\":12403:12723  if (reason.length == 0) {\r... */\n      iszero\n      tag_271\n      jumpi\n        /* \"contracts/token/ERC721/ERC721.sol\":12450:12558  revert(\r... */\n      mload(0x40)\n      0x08c379a000000000000000000000000000000000000000000000000000000000\n      dup2\n      mstore\n      0x04\n      add\n      tag_272\n      swap1\n      tag_226\n      jump\t// in\n    tag_272:\n      mload(0x40)\n      dup1\n      swap2\n      sub\n      swap1\n      revert\n        /* \"contracts/token/ERC721/ERC721.sol\":12403:12723  if (reason.length == 0) {\r... */\n    tag_271:\n        /* \"contracts/token/ERC721/ERC721.sol\":12673:12679  reason */\n      dup1\n        /* \"contracts/token/ERC721/ERC721.sol\":12667:12680  mload(reason) */\n      mload\n        /* \"contracts/token/ERC721/ERC721.sol\":12658:12664  reason */\n      dup2\n        /* \"contracts/token/ERC721/ERC721.sol\":12654:12656  32 */\n      0x20\n        /* \"contracts/token/ERC721/ERC721.sol\":12650:12665  add(32, reason) */\n      add\n        /* \"contracts/token/ERC721/ERC721.sol\":12643:12681  revert(add(32, reason), mload(reason)) */\n      revert\n        /* \"contracts/token/ERC721/ERC721.sol\":12028:12738  try\r... */\n    tag_265:\n        /* \"contracts/token/ERC721/ERC721.sol\":12298:12339  IERC721Receiver.onERC721Received.selector */\n      shl(0xe0, 0x150b7a02)\n        /* \"contracts/token/ERC721/ERC721.sol\":12288:12339  retval == IERC721Receiver.onERC721Received.selector */\n      not(0xffffffffffffffffffffffffffffffffffffffffffffffffffffffff)\n      and\n        /* \"contracts/token/ERC721/ERC721.sol\":12288:12294  retval */\n      dup2\n        /* \"contracts/token/ERC721/ERC721.sol\":12288:12339  retval == IERC721Receiver.onERC721Received.selector */\n      not(0xffffffffffffffffffffffffffffffffffffffffffffffffffffffff)\n      and\n      eq\n        /* \"contracts/token/ERC721/ERC721.sol\":12281:12339  return retval == IERC721Receiver.onERC721Received.selector */\n      swap2\n      pop\n      pop\n      jump(tag_254)\n        /* \"contracts/token/ERC721/ERC721.sol\":11992:12793  if (to.isContract()) {\r... */\n    tag_257:\n        /* \"contracts/token/ERC721/ERC721.sol\":12777:12781  true */\n      0x01\n        /* \"contracts/token/ERC721/ERC721.sol\":12770:12781  return true */\n      swap1\n      pop\n        /* \"contracts/token/ERC721/ERC721.sol\":11820:12800  function _checkOnERC721Received(\r... */\n    tag_254:\n      swap5\n      swap4\n      pop\n      pop\n      pop\n      pop\n      jump\t// out\n        /* \"contracts/token/ERC721/ERC721.sol\":13988:14427  function _mint(address to, uint256 tokenId) internal virtual {\r... */\n    tag_250:\n        /* \"contracts/token/ERC721/ERC721.sol\":14082:14083  0 */\n      0x00\n        /* \"contracts/token/ERC721/ERC721.sol\":14068:14084  to != address(0) */\n      0xffffffffffffffffffffffffffffffffffffffff\n      and\n        /* \"contracts/token/ERC721/ERC721.sol\":14068:14070  to */\n      dup3\n        /* \"contracts/token/ERC721/ERC721.sol\":14068:14084  to != address(0) */\n      0xffffffffffffffffffffffffffffffffffffffff\n      and\n      eq\n      iszero\n        /* \"contracts/token/ERC721/ERC721.sol\":14060:14121  require(to != address(0), \"ERC721: mint to the zero address\") */\n      tag_277\n      jumpi\n      mload(0x40)\n      0x08c379a000000000000000000000000000000000000000000000000000000000\n      dup2\n      mstore\n      0x04\n      add\n      tag_278\n      swap1\n      tag_279\n      jump\t// in\n    tag_278:\n      mload(0x40)\n      dup1\n      swap2\n      sub\n      swap1\n      revert\n    tag_277:\n        /* \"contracts/token/ERC721/ERC721.sol\":14141:14157  _exists(tokenId) */\n      tag_280\n        /* \"contracts/token/ERC721/ERC721.sol\":14149:14156  tokenId */\n      dup2\n        /* \"contracts/token/ERC721/ERC721.sol\":14141:14148  _exists */\n      tag_98\n        /* \"contracts/token/ERC721/ERC721.sol\":14141:14157  _exists(tokenId) */\n      jump\t// in\n    tag_280:\n        /* \"contracts/token/ERC721/ERC721.sol\":14140:14157  !_exists(tokenId) */\n      iszero\n        /* \"contracts/token/ERC721/ERC721.sol\":14132:14190  require(!_exists(tokenId), \"ERC721: token already minted\") */\n      tag_281\n      jumpi\n      mload(0x40)\n      0x08c379a000000000000000000000000000000000000000000000000000000000\n      dup2\n      mstore\n      0x04\n      add\n      tag_282\n      swap1\n      tag_283\n      jump\t// in\n    tag_282:\n      mload(0x40)\n      dup1\n      swap2\n      sub\n      swap1\n      revert\n    tag_281:\n        /* \"contracts/token/ERC721/ERC721.sol\":14203:14248  _beforeTokenTransfer(address(0), to, tokenId) */\n      tag_284\n        /* \"contracts/token/ERC721/ERC721.sol\":14232:14233  0 */\n      0x00\n        /* \"contracts/token/ERC721/ERC721.sol\":14236:14238  to */\n      dup4\n        /* \"contracts/token/ERC721/ERC721.sol\":14240:14247  tokenId */\n      dup4\n        /* \"contracts/token/ERC721/ERC721.sol\":14203:14223  _beforeTokenTransfer */\n      tag_198\n        /* \"contracts/token/ERC721/ERC721.sol\":14203:14248  _beforeTokenTransfer(address(0), to, tokenId) */\n      jump\t// in\n    tag_284:\n        /* \"contracts/token/ERC721/ERC721.sol\":14278:14279  1 */\n      0x01\n        /* \"contracts/token/ERC721/ERC721.sol\":14261:14270  _balances */\n      0x03\n        /* \"contracts/token/ERC721/ERC721.sol\":14261:14274  _balances[to] */\n      0x00\n        /* \"contracts/token/ERC721/ERC721.sol\":14271:14273  to */\n      dup5\n        /* \"contracts/token/ERC721/ERC721.sol\":14261:14274  _balances[to] */\n      0xffffffffffffffffffffffffffffffffffffffff\n      and\n      0xffffffffffffffffffffffffffffffffffffffff\n      and\n      dup2\n      mstore\n      0x20\n      add\n      swap1\n      dup2\n      mstore\n      0x20\n      add\n      0x00\n      keccak256\n      0x00\n        /* \"contracts/token/ERC721/ERC721.sol\":14261:14279  _balances[to] += 1 */\n      dup3\n      dup3\n      sload\n      tag_285\n      swap2\n      swap1\n      tag_203\n      jump\t// in\n    tag_285:\n      swap3\n      pop\n      pop\n      dup2\n      swap1\n      sstore\n      pop\n        /* \"contracts/token/ERC721/ERC721.sol\":14309:14311  to */\n      dup2\n        /* \"contracts/token/ERC721/ERC721.sol\":14290:14297  _owners */\n      0x02\n        /* \"contracts/token/ERC721/ERC721.sol\":14290:14306  _owners[tokenId] */\n      0x00\n        /* \"contracts/token/ERC721/ERC721.sol\":14298:14305  tokenId */\n      dup4\n        /* \"contracts/token/ERC721/ERC721.sol\":14290:14306  _owners[tokenId] */\n      dup2\n      mstore\n      0x20\n      add\n      swap1\n      dup2\n      mstore\n      0x20\n      add\n      0x00\n      keccak256\n      0x00\n        /* \"contracts/token/ERC721/ERC721.sol\":14290:14311  _owners[tokenId] = to */\n      0x0100\n      exp\n      dup2\n      sload\n      dup2\n      0xffffffffffffffffffffffffffffffffffffffff\n      mul\n      not\n      and\n      swap1\n      dup4\n      0xffffffffffffffffffffffffffffffffffffffff\n      and\n      mul\n      or\n      swap1\n      sstore\n      pop\n        /* \"contracts/token/ERC721/ERC721.sol\":14354:14361  tokenId */\n      dup1\n        /* \"contracts/token/ERC721/ERC721.sol\":14350:14352  to */\n      dup3\n        /* \"contracts/token/ERC721/ERC721.sol\":14329:14362  Transfer(address(0), to, tokenId) */\n      0xffffffffffffffffffffffffffffffffffffffff\n      and\n        /* \"contracts/token/ERC721/ERC721.sol\":14346:14347  0 */\n      0x00\n        /* \"contracts/token/ERC721/ERC721.sol\":14329:14362  Transfer(address(0), to, tokenId) */\n      0xffffffffffffffffffffffffffffffffffffffff\n      and\n      0xddf252ad1be2c89b69c2b068fc378daa952ba7f163c4a11628f55a4df523b3ef\n      mload(0x40)\n      mload(0x40)\n      dup1\n      swap2\n      sub\n      swap1\n      log4\n        /* \"contracts/token/ERC721/ERC721.sol\":14375:14419  _afterTokenTransfer(address(0), to, tokenId) */\n      tag_286\n        /* \"contracts/token/ERC721/ERC721.sol\":14403:14404  0 */\n      0x00\n        /* \"contracts/token/ERC721/ERC721.sol\":14407:14409  to */\n      dup4\n        /* \"contracts/token/ERC721/ERC721.sol\":14411:14418  tokenId */\n      dup4\n        /* \"contracts/token/ERC721/ERC721.sol\":14375:14394  _afterTokenTransfer */\n      tag_205\n        /* \"contracts/token/ERC721/ERC721.sol\":14375:14419  _afterTokenTransfer(address(0), to, tokenId) */\n      jump\t// in\n    tag_286:\n        /* \"contracts/token/ERC721/ERC721.sol\":13988:14427  function _mint(address to, uint256 tokenId) internal virtual {\r... */\n      pop\n      pop\n      jump\t// out\n        /* \"contracts/utils/Address.sol\":797:1184  function isContract(address account) internal view returns (bool) {\r... */\n    tag_256:\n        /* \"contracts/utils/Address.sol\":857:861  bool */\n      0x00\n        /* \"contracts/utils/Address.sol\":1065:1077  uint256 size */\n      dup1\n        /* \"contracts/utils/Address.sol\":1132:1139  account */\n      dup3\n        /* \"contracts/utils/Address.sol\":1120:1140  extcodesize(account) */\n      extcodesize\n        /* \"contracts/utils/Address.sol\":1112:1140  size := extcodesize(account) */\n      swap1\n      pop\n        /* \"contracts/utils/Address.sol\":1175:1176  0 */\n      0x00\n        /* \"contracts/utils/Address.sol\":1168:1172  size */\n      dup2\n        /* \"contracts/utils/Address.sol\":1168:1176  size > 0 */\n      gt\n        /* \"contracts/utils/Address.sol\":1161:1176  return size > 0 */\n      swap2\n      pop\n      pop\n        /* \"contracts/utils/Address.sol\":797:1184  function isContract(address account) internal view returns (bool) {\r... */\n      swap2\n      swap1\n      pop\n      jump\t// out\n        /* \"#utility.yul\":7:350   */\n    tag_289:\n        /* \"#utility.yul\":84:89   */\n      0x00\n        /* \"#utility.yul\":109:174   */\n      tag_291\n        /* \"#utility.yul\":125:173   */\n      tag_292\n        /* \"#utility.yul\":166:172   */\n      dup5\n        /* \"#utility.yul\":125:173   */\n      tag_293\n      jump\t// in\n    tag_292:\n        /* \"#utility.yul\":109:174   */\n      tag_294\n      jump\t// in\n    tag_291:\n        /* \"#utility.yul\":100:174   */\n      swap1\n      pop\n        /* \"#utility.yul\":197:203   */\n      dup3\n        /* \"#utility.yul\":190:195   */\n      dup2\n        /* \"#utility.yul\":183:204   */\n      mstore\n        /* \"#utility.yul\":235:239   */\n      0x20\n        /* \"#utility.yul\":228:233   */\n      dup2\n        /* \"#utility.yul\":224:240   */\n      add\n        /* \"#utility.yul\":273:276   */\n      dup5\n        /* \"#utility.yul\":264:270   */\n      dup5\n        /* \"#utility.yul\":259:262   */\n      dup5\n        /* \"#utility.yul\":255:271   */\n      add\n        /* \"#utility.yul\":252:277   */\n      gt\n        /* \"#utility.yul\":249:251   */\n      iszero\n      tag_295\n      jumpi\n        /* \"#utility.yul\":290:291   */\n      0x00\n        /* \"#utility.yul\":287:288   */\n      dup1\n        /* \"#utility.yul\":280:292   */\n      revert\n        /* \"#utility.yul\":249:251   */\n    tag_295:\n        /* \"#utility.yul\":303:344   */\n      tag_296\n        /* \"#utility.yul\":337:343   */\n      dup5\n        /* \"#utility.yul\":332:335   */\n      dup3\n        /* \"#utility.yul\":327:330   */\n      dup6\n        /* \"#utility.yul\":303:344   */\n      tag_297\n      jump\t// in\n    tag_296:\n        /* \"#utility.yul\":90:350   */\n      pop\n      swap4\n      swap3\n      pop\n      pop\n      pop\n      jump\t// out\n        /* \"#utility.yul\":356:495   */\n    tag_298:\n        /* \"#utility.yul\":402:407   */\n      0x00\n        /* \"#utility.yul\":440:446   */\n      dup2\n        /* \"#utility.yul\":427:447   */\n      calldataload\n        /* \"#utility.yul\":418:447   */\n      swap1\n      pop\n        /* \"#utility.yul\":456:489   */\n      tag_300\n        /* \"#utility.yul\":483:488   */\n      dup2\n        /* \"#utility.yul\":456:489   */\n      tag_301\n      jump\t// in\n    tag_300:\n        /* \"#utility.yul\":408:495   */\n      swap3\n      swap2\n      pop\n      pop\n      jump\t// out\n        /* \"#utility.yul\":501:634   */\n    tag_302:\n        /* \"#utility.yul\":544:549   */\n      0x00\n        /* \"#utility.yul\":582:588   */\n      dup2\n        /* \"#utility.yul\":569:589   */\n      calldataload\n        /* \"#utility.yul\":560:589   */\n      swap1\n      pop\n        /* \"#utility.yul\":598:628   */\n      tag_304\n        /* \"#utility.yul\":622:627   */\n      dup2\n        /* \"#utility.yul\":598:628   */\n      tag_305\n      jump\t// in\n    tag_304:\n        /* \"#utility.yul\":550:634   */\n      swap3\n      swap2\n      pop\n      pop\n      jump\t// out\n        /* \"#utility.yul\":640:777   */\n    tag_306:\n        /* \"#utility.yul\":685:690   */\n      0x00\n        /* \"#utility.yul\":723:729   */\n      dup2\n        /* \"#utility.yul\":710:730   */\n      calldataload\n        /* \"#utility.yul\":701:730   */\n      swap1\n      pop\n        /* \"#utility.yul\":739:771   */\n      tag_308\n        /* \"#utility.yul\":765:770   */\n      dup2\n        /* \"#utility.yul\":739:771   */\n      tag_309\n      jump\t// in\n    tag_308:\n        /* \"#utility.yul\":691:777   */\n      swap3\n      swap2\n      pop\n      pop\n      jump\t// out\n        /* \"#utility.yul\":783:924   */\n    tag_310:\n        /* \"#utility.yul\":839:844   */\n      0x00\n        /* \"#utility.yul\":870:876   */\n      dup2\n        /* \"#utility.yul\":864:877   */\n      mload\n        /* \"#utility.yul\":855:877   */\n      swap1\n      pop\n        /* \"#utility.yul\":886:918   */\n      tag_312\n        /* \"#utility.yul\":912:917   */\n      dup2\n        /* \"#utility.yul\":886:918   */\n      tag_309\n      jump\t// in\n    tag_312:\n        /* \"#utility.yul\":845:924   */\n      swap3\n      swap2\n      pop\n      pop\n      jump\t// out\n        /* \"#utility.yul\":943:1214   */\n    tag_313:\n        /* \"#utility.yul\":998:1003   */\n      0x00\n        /* \"#utility.yul\":1047:1050   */\n      dup3\n        /* \"#utility.yul\":1040:1044   */\n      0x1f\n        /* \"#utility.yul\":1032:1038   */\n      dup4\n        /* \"#utility.yul\":1028:1045   */\n      add\n        /* \"#utility.yul\":1024:1051   */\n      slt\n        /* \"#utility.yul\":1014:1016   */\n      tag_315\n      jumpi\n        /* \"#utility.yul\":1065:1066   */\n      0x00\n        /* \"#utility.yul\":1062:1063   */\n      dup1\n        /* \"#utility.yul\":1055:1067   */\n      revert\n        /* \"#utility.yul\":1014:1016   */\n    tag_315:\n        /* \"#utility.yul\":1105:1111   */\n      dup2\n        /* \"#utility.yul\":1092:1112   */\n      calldataload\n        /* \"#utility.yul\":1130:1208   */\n      tag_316\n        /* \"#utility.yul\":1204:1207   */\n      dup5\n        /* \"#utility.yul\":1196:1202   */\n      dup3\n        /* \"#utility.yul\":1189:1193   */\n      0x20\n        /* \"#utility.yul\":1181:1187   */\n      dup7\n        /* \"#utility.yul\":1177:1194   */\n      add\n        /* \"#utility.yul\":1130:1208   */\n      tag_289\n      jump\t// in\n    tag_316:\n        /* \"#utility.yul\":1121:1208   */\n      swap2\n      pop\n        /* \"#utility.yul\":1004:1214   */\n      pop\n      swap3\n      swap2\n      pop\n      pop\n      jump\t// out\n        /* \"#utility.yul\":1220:1359   */\n    tag_317:\n        /* \"#utility.yul\":1266:1271   */\n      0x00\n        /* \"#utility.yul\":1304:1310   */\n      dup2\n        /* \"#utility.yul\":1291:1311   */\n      calldataload\n        /* \"#utility.yul\":1282:1311   */\n      swap1\n      pop\n        /* \"#utility.yul\":1320:1353   */\n      tag_319\n        /* \"#utility.yul\":1347:1352   */\n      dup2\n        /* \"#utility.yul\":1320:1353   */\n      tag_320\n      jump\t// in\n    tag_319:\n        /* \"#utility.yul\":1272:1359   */\n      swap3\n      swap2\n      pop\n      pop\n      jump\t// out\n        /* \"#utility.yul\":1365:1627   */\n    tag_57:\n        /* \"#utility.yul\":1424:1430   */\n      0x00\n        /* \"#utility.yul\":1473:1475   */\n      0x20\n        /* \"#utility.yul\":1461:1470   */\n      dup3\n        /* \"#utility.yul\":1452:1459   */\n      dup5\n        /* \"#utility.yul\":1448:1471   */\n      sub\n        /* \"#utility.yul\":1444:1476   */\n      slt\n        /* \"#utility.yul\":1441:1443   */\n      iszero\n      tag_322\n      jumpi\n        /* \"#utility.yul\":1489:1490   */\n      0x00\n        /* \"#utility.yul\":1486:1487   */\n      dup1\n        /* \"#utility.yul\":1479:1491   */\n      revert\n        /* \"#utility.yul\":1441:1443   */\n    tag_322:\n        /* \"#utility.yul\":1532:1533   */\n      0x00\n        /* \"#utility.yul\":1557:1610   */\n      tag_323\n        /* \"#utility.yul\":1602:1609   */\n      dup5\n        /* \"#utility.yul\":1593:1599   */\n      dup3\n        /* \"#utility.yul\":1582:1591   */\n      dup6\n        /* \"#utility.yul\":1578:1600   */\n      add\n        /* \"#utility.yul\":1557:1610   */\n      tag_298\n      jump\t// in\n    tag_323:\n        /* \"#utility.yul\":1547:1610   */\n      swap2\n      pop\n        /* \"#utility.yul\":1503:1620   */\n      pop\n        /* \"#utility.yul\":1431:1627   */\n      swap3\n      swap2\n      pop\n      pop\n      jump\t// out\n        /* \"#utility.yul\":1633:2040   */\n    tag_81:\n        /* \"#utility.yul\":1701:1707   */\n      0x00\n        /* \"#utility.yul\":1709:1715   */\n      dup1\n        /* \"#utility.yul\":1758:1760   */\n      0x40\n        /* \"#utility.yul\":1746:1755   */\n      dup4\n        /* \"#utility.yul\":1737:1744   */\n      dup6\n        /* \"#utility.yul\":1733:1756   */\n      sub\n        /* \"#utility.yul\":1729:1761   */\n      slt\n        /* \"#utility.yul\":1726:1728   */\n      iszero\n      tag_325\n      jumpi\n        /* \"#utility.yul\":1774:1775   */\n      0x00\n        /* \"#utility.yul\":1771:1772   */\n      dup1\n        /* \"#utility.yul\":1764:1776   */\n      revert\n        /* \"#utility.yul\":1726:1728   */\n    tag_325:\n        /* \"#utility.yul\":1817:1818   */\n      0x00\n        /* \"#utility.yul\":1842:1895   */\n      tag_326\n        /* \"#utility.yul\":1887:1894   */\n      dup6\n        /* \"#utility.yul\":1878:1884   */\n      dup3\n        /* \"#utility.yul\":1867:1876   */\n      dup7\n        /* \"#utility.yul\":1863:1885   */\n      add\n        /* \"#utility.yul\":1842:1895   */\n      tag_298\n      jump\t// in\n    tag_326:\n        /* \"#utility.yul\":1832:1895   */\n      swap3\n      pop\n        /* \"#utility.yul\":1788:1905   */\n      pop\n        /* \"#utility.yul\":1944:1946   */\n      0x20\n        /* \"#utility.yul\":1970:2023   */\n      tag_327\n        /* \"#utility.yul\":2015:2022   */\n      dup6\n        /* \"#utility.yul\":2006:2012   */\n      dup3\n        /* \"#utility.yul\":1995:2004   */\n      dup7\n        /* \"#utility.yul\":1991:2013   */\n      add\n        /* \"#utility.yul\":1970:2023   */\n      tag_298\n      jump\t// in\n    tag_327:\n        /* \"#utility.yul\":1960:2023   */\n      swap2\n      pop\n        /* \"#utility.yul\":1915:2033   */\n      pop\n        /* \"#utility.yul\":1716:2040   */\n      swap3\n      pop\n      swap3\n      swap1\n      pop\n      jump\t// out\n        /* \"#utility.yul\":2046:2598   */\n    tag_43:\n        /* \"#utility.yul\":2123:2129   */\n      0x00\n        /* \"#utility.yul\":2131:2137   */\n      dup1\n        /* \"#utility.yul\":2139:2145   */\n      0x00\n        /* \"#utility.yul\":2188:2190   */\n      0x60\n        /* \"#utility.yul\":2176:2185   */\n      dup5\n        /* \"#utility.yul\":2167:2174   */\n      dup7\n        /* \"#utility.yul\":2163:2186   */\n      sub\n        /* \"#utility.yul\":2159:2191   */\n      slt\n        /* \"#utility.yul\":2156:2158   */\n      iszero\n      tag_329\n      jumpi\n        /* \"#utility.yul\":2204:2205   */\n      0x00\n        /* \"#utility.yul\":2201:2202   */\n      dup1\n        /* \"#utility.yul\":2194:2206   */\n      revert\n        /* \"#utility.yul\":2156:2158   */\n    tag_329:\n        /* \"#utility.yul\":2247:2248   */\n      0x00\n        /* \"#utility.yul\":2272:2325   */\n      tag_330\n        /* \"#utility.yul\":2317:2324   */\n      dup7\n        /* \"#utility.yul\":2308:2314   */\n      dup3\n        /* \"#utility.yul\":2297:2306   */\n      dup8\n        /* \"#utility.yul\":2293:2315   */\n      add\n        /* \"#utility.yul\":2272:2325   */\n      tag_298\n      jump\t// in\n    tag_330:\n        /* \"#utility.yul\":2262:2325   */\n      swap4\n      pop\n        /* \"#utility.yul\":2218:2335   */\n      pop\n        /* \"#utility.yul\":2374:2376   */\n      0x20\n        /* \"#utility.yul\":2400:2453   */\n      tag_331\n        /* \"#utility.yul\":2445:2452   */\n      dup7\n        /* \"#utility.yul\":2436:2442   */\n      dup3\n        /* \"#utility.yul\":2425:2434   */\n      dup8\n        /* \"#utility.yul\":2421:2443   */\n      add\n        /* \"#utility.yul\":2400:2453   */\n      tag_298\n      jump\t// in\n    tag_331:\n        /* \"#utility.yul\":2390:2453   */\n      swap3\n      pop\n        /* \"#utility.yul\":2345:2463   */\n      pop\n        /* \"#utility.yul\":2502:2504   */\n      0x40\n        /* \"#utility.yul\":2528:2581   */\n      tag_332\n        /* \"#utility.yul\":2573:2580   */\n      dup7\n        /* \"#utility.yul\":2564:2570   */\n      dup3\n        /* \"#utility.yul\":2553:2562   */\n      dup8\n        /* \"#utility.yul\":2549:2571   */\n      add\n        /* \"#utility.yul\":2528:2581   */\n      tag_317\n      jump\t// in\n    tag_332:\n        /* \"#utility.yul\":2518:2581   */\n      swap2\n      pop\n        /* \"#utility.yul\":2473:2591   */\n      pop\n        /* \"#utility.yul\":2146:2598   */\n      swap3\n      pop\n      swap3\n      pop\n      swap3\n      jump\t// out\n        /* \"#utility.yul\":2604:3413   */\n    tag_73:\n        /* \"#utility.yul\":2699:2705   */\n      0x00\n        /* \"#utility.yul\":2707:2713   */\n      dup1\n        /* \"#utility.yul\":2715:2721   */\n      0x00\n        /* \"#utility.yul\":2723:2729   */\n      dup1\n        /* \"#utility.yul\":2772:2775   */\n      0x80\n        /* \"#utility.yul\":2760:2769   */\n      dup6\n        /* \"#utility.yul\":2751:2758   */\n      dup8\n        /* \"#utility.yul\":2747:2770   */\n      sub\n        /* \"#utility.yul\":2743:2776   */\n      slt\n        /* \"#utility.yul\":2740:2742   */\n      iszero\n      tag_334\n      jumpi\n        /* \"#utility.yul\":2789:2790   */\n      0x00\n        /* \"#utility.yul\":2786:2787   */\n      dup1\n        /* \"#utility.yul\":2779:2791   */\n      revert\n        /* \"#utility.yul\":2740:2742   */\n    tag_334:\n        /* \"#utility.yul\":2832:2833   */\n      0x00\n        /* \"#utility.yul\":2857:2910   */\n      tag_335\n        /* \"#utility.yul\":2902:2909   */\n      dup8\n        /* \"#utility.yul\":2893:2899   */\n      dup3\n        /* \"#utility.yul\":2882:2891   */\n      dup9\n        /* \"#utility.yul\":2878:2900   */\n      add\n        /* \"#utility.yul\":2857:2910   */\n      tag_298\n      jump\t// in\n    tag_335:\n        /* \"#utility.yul\":2847:2910   */\n      swap5\n      pop\n        /* \"#utility.yul\":2803:2920   */\n      pop\n        /* \"#utility.yul\":2959:2961   */\n      0x20\n        /* \"#utility.yul\":2985:3038   */\n      tag_336\n        /* \"#utility.yul\":3030:3037   */\n      dup8\n        /* \"#utility.yul\":3021:3027   */\n      dup3\n        /* \"#utility.yul\":3010:3019   */\n      dup9\n        /* \"#utility.yul\":3006:3028   */\n      add\n        /* \"#utility.yul\":2985:3038   */\n      tag_298\n      jump\t// in\n    tag_336:\n        /* \"#utility.yul\":2975:3038   */\n      swap4\n      pop\n        /* \"#utility.yul\":2930:3048   */\n      pop\n        /* \"#utility.yul\":3087:3089   */\n      0x40\n        /* \"#utility.yul\":3113:3166   */\n      tag_337\n        /* \"#utility.yul\":3158:3165   */\n      dup8\n        /* \"#utility.yul\":3149:3155   */\n      dup3\n        /* \"#utility.yul\":3138:3147   */\n      dup9\n        /* \"#utility.yul\":3134:3156   */\n      add\n        /* \"#utility.yul\":3113:3166   */\n      tag_317\n      jump\t// in\n    tag_337:\n        /* \"#utility.yul\":3103:3166   */\n      swap3\n      pop\n        /* \"#utility.yul\":3058:3176   */\n      pop\n        /* \"#utility.yul\":3243:3245   */\n      0x60\n        /* \"#utility.yul\":3232:3241   */\n      dup6\n        /* \"#utility.yul\":3228:3246   */\n      add\n        /* \"#utility.yul\":3215:3247   */\n      calldataload\n        /* \"#utility.yul\":3274:3292   */\n      0xffffffffffffffff\n        /* \"#utility.yul\":3266:3272   */\n      dup2\n        /* \"#utility.yul\":3263:3293   */\n      gt\n        /* \"#utility.yul\":3260:3262   */\n      iszero\n      tag_338\n      jumpi\n        /* \"#utility.yul\":3306:3307   */\n      0x00\n        /* \"#utility.yul\":3303:3304   */\n      dup1\n        /* \"#utility.yul\":3296:3308   */\n      revert\n        /* \"#utility.yul\":3260:3262   */\n    tag_338:\n        /* \"#utility.yul\":3334:3396   */\n      tag_339\n        /* \"#utility.yul\":3388:3395   */\n      dup8\n        /* \"#utility.yul\":3379:3385   */\n      dup3\n        /* \"#utility.yul\":3368:3377   */\n      dup9\n        /* \"#utility.yul\":3364:3386   */\n      add\n        /* \"#utility.yul\":3334:3396   */\n      tag_313\n      jump\t// in\n    tag_339:\n        /* \"#utility.yul\":3324:3396   */\n      swap2\n      pop\n        /* \"#utility.yul\":3186:3406   */\n      pop\n        /* \"#utility.yul\":2730:3413   */\n      swap3\n      swap6\n      swap2\n      swap5\n      pop\n      swap3\n      pop\n      jump\t// out\n        /* \"#utility.yul\":3419:3820   */\n    tag_69:\n        /* \"#utility.yul\":3484:3490   */\n      0x00\n        /* \"#utility.yul\":3492:3498   */\n      dup1\n        /* \"#utility.yul\":3541:3543   */\n      0x40\n        /* \"#utility.yul\":3529:3538   */\n      dup4\n        /* \"#utility.yul\":3520:3527   */\n      dup6\n        /* \"#utility.yul\":3516:3539   */\n      sub\n        /* \"#utility.yul\":3512:3544   */\n      slt\n        /* \"#utility.yul\":3509:3511   */\n      iszero\n      tag_341\n      jumpi\n        /* \"#utility.yul\":3557:3558   */\n      0x00\n        /* \"#utility.yul\":3554:3555   */\n      dup1\n        /* \"#utility.yul\":3547:3559   */\n      revert\n        /* \"#utility.yul\":3509:3511   */\n    tag_341:\n        /* \"#utility.yul\":3600:3601   */\n      0x00\n        /* \"#utility.yul\":3625:3678   */\n      tag_342\n        /* \"#utility.yul\":3670:3677   */\n      dup6\n        /* \"#utility.yul\":3661:3667   */\n      dup3\n        /* \"#utility.yul\":3650:3659   */\n      dup7\n        /* \"#utility.yul\":3646:3668   */\n      add\n        /* \"#utility.yul\":3625:3678   */\n      tag_298\n      jump\t// in\n    tag_342:\n        /* \"#utility.yul\":3615:3678   */\n      swap3\n      pop\n        /* \"#utility.yul\":3571:3688   */\n      pop\n        /* \"#utility.yul\":3727:3729   */\n      0x20\n        /* \"#utility.yul\":3753:3803   */\n      tag_343\n        /* \"#utility.yul\":3795:3802   */\n      dup6\n        /* \"#utility.yul\":3786:3792   */\n      dup3\n        /* \"#utility.yul\":3775:3784   */\n      dup7\n        /* \"#utility.yul\":3771:3793   */\n      add\n        /* \"#utility.yul\":3753:3803   */\n      tag_302\n      jump\t// in\n    tag_343:\n        /* \"#utility.yul\":3743:3803   */\n      swap2\n      pop\n        /* \"#utility.yul\":3698:3813   */\n      pop\n        /* \"#utility.yul\":3499:3820   */\n      swap3\n      pop\n      swap3\n      swap1\n      pop\n      jump\t// out\n        /* \"#utility.yul\":3826:4233   */\n    tag_39:\n        /* \"#utility.yul\":3894:3900   */\n      0x00\n        /* \"#utility.yul\":3902:3908   */\n      dup1\n        /* \"#utility.yul\":3951:3953   */\n      0x40\n        /* \"#utility.yul\":3939:3948   */\n      dup4\n        /* \"#utility.yul\":3930:3937   */\n      dup6\n        /* \"#utility.yul\":3926:3949   */\n      sub\n        /* \"#utility.yul\":3922:3954   */\n      slt\n        /* \"#utility.yul\":3919:3921   */\n      iszero\n      tag_345\n      jumpi\n        /* \"#utility.yul\":3967:3968   */\n      0x00\n        /* \"#utility.yul\":3964:3965   */\n      dup1\n        /* \"#utility.yul\":3957:3969   */\n      revert\n        /* \"#utility.yul\":3919:3921   */\n    tag_345:\n        /* \"#utility.yul\":4010:4011   */\n      0x00\n        /* \"#utility.yul\":4035:4088   */\n      tag_346\n        /* \"#utility.yul\":4080:4087   */\n      dup6\n        /* \"#utility.yul\":4071:4077   */\n      dup3\n        /* \"#utility.yul\":4060:4069   */\n      dup7\n        /* \"#utility.yul\":4056:4078   */\n      add\n        /* \"#utility.yul\":4035:4088   */\n      tag_298\n      jump\t// in\n    tag_346:\n        /* \"#utility.yul\":4025:4088   */\n      swap3\n      pop\n        /* \"#utility.yul\":3981:4098   */\n      pop\n        /* \"#utility.yul\":4137:4139   */\n      0x20\n        /* \"#utility.yul\":4163:4216   */\n      tag_347\n        /* \"#utility.yul\":4208:4215   */\n      dup6\n        /* \"#utility.yul\":4199:4205   */\n      dup3\n        /* \"#utility.yul\":4188:4197   */\n      dup7\n        /* \"#utility.yul\":4184:4206   */\n      add\n        /* \"#utility.yul\":4163:4216   */\n      tag_317\n      jump\t// in\n    tag_347:\n        /* \"#utility.yul\":4153:4216   */\n      swap2\n      pop\n        /* \"#utility.yul\":4108:4226   */\n      pop\n        /* \"#utility.yul\":3909:4233   */\n      swap3\n      pop\n      swap3\n      swap1\n      pop\n      jump\t// out\n        /* \"#utility.yul\":4239:4499   */\n    tag_23:\n        /* \"#utility.yul\":4297:4303   */\n      0x00\n        /* \"#utility.yul\":4346:4348   */\n      0x20\n        /* \"#utility.yul\":4334:4343   */\n      dup3\n        /* \"#utility.yul\":4325:4332   */\n      dup5\n        /* \"#utility.yul\":4321:4344   */\n      sub\n        /* \"#utility.yul\":4317:4349   */\n      slt\n        /* \"#utility.yul\":4314:4316   */\n      iszero\n      tag_349\n      jumpi\n        /* \"#utility.yul\":4362:4363   */\n      0x00\n        /* \"#utility.yul\":4359:4360   */\n      dup1\n        /* \"#utility.yul\":4352:4364   */\n      revert\n        /* \"#utility.yul\":4314:4316   */\n    tag_349:\n        /* \"#utility.yul\":4405:4406   */\n      0x00\n        /* \"#utility.yul\":4430:4482   */\n      tag_350\n        /* \"#utility.yul\":4474:4481   */\n      dup5\n        /* \"#utility.yul\":4465:4471   */\n      dup3\n        /* \"#utility.yul\":4454:4463   */\n      dup6\n        /* \"#utility.yul\":4450:4472   */\n      add\n        /* \"#utility.yul\":4430:4482   */\n      tag_306\n      jump\t// in\n    tag_350:\n        /* \"#utility.yul\":4420:4482   */\n      swap2\n      pop\n        /* \"#utility.yul\":4376:4492   */\n      pop\n        /* \"#utility.yul\":4304:4499   */\n      swap3\n      swap2\n      pop\n      pop\n      jump\t// out\n        /* \"#utility.yul\":4505:4787   */\n    tag_264:\n        /* \"#utility.yul\":4574:4580   */\n      0x00\n        /* \"#utility.yul\":4623:4625   */\n      0x20\n        /* \"#utility.yul\":4611:4620   */\n      dup3\n        /* \"#utility.yul\":4602:4609   */\n      dup5\n        /* \"#utility.yul\":4598:4621   */\n      sub\n        /* \"#utility.yul\":4594:4626   */\n      slt\n        /* \"#utility.yul\":4591:4593   */\n      iszero\n      tag_352\n      jumpi\n        /* \"#utility.yul\":4639:4640   */\n      0x00\n        /* \"#utility.yul\":4636:4637   */\n      dup1\n        /* \"#utility.yul\":4629:4641   */\n      revert\n        /* \"#utility.yul\":4591:4593   */\n    tag_352:\n        /* \"#utility.yul\":4682:4683   */\n      0x00\n        /* \"#utility.yul\":4707:4770   */\n      tag_353\n        /* \"#utility.yul\":4762:4769   */\n      dup5\n        /* \"#utility.yul\":4753:4759   */\n      dup3\n        /* \"#utility.yul\":4742:4751   */\n      dup6\n        /* \"#utility.yul\":4738:4760   */\n      add\n        /* \"#utility.yul\":4707:4770   */\n      tag_310\n      jump\t// in\n    tag_353:\n        /* \"#utility.yul\":4697:4770   */\n      swap2\n      pop\n        /* \"#utility.yul\":4653:4780   */\n      pop\n        /* \"#utility.yul\":4581:4787   */\n      swap3\n      swap2\n      pop\n      pop\n      jump\t// out\n        /* \"#utility.yul\":4793:5055   */\n    tag_33:\n        /* \"#utility.yul\":4852:4858   */\n      0x00\n        /* \"#utility.yul\":4901:4903   */\n      0x20\n        /* \"#utility.yul\":4889:4898   */\n      dup3\n        /* \"#utility.yul\":4880:4887   */\n      dup5\n        /* \"#utility.yul\":4876:4899   */\n      sub\n        /* \"#utility.yul\":4872:4904   */\n      slt\n        /* \"#utility.yul\":4869:4871   */\n      iszero\n      tag_355\n      jumpi\n        /* \"#utility.yul\":4917:4918   */\n      0x00\n        /* \"#utility.yul\":4914:4915   */\n      dup1\n        /* \"#utility.yul\":4907:4919   */\n      revert\n        /* \"#utility.yul\":4869:4871   */\n    tag_355:\n        /* \"#utility.yul\":4960:4961   */\n      0x00\n        /* \"#utility.yul\":4985:5038   */\n      tag_356\n        /* \"#utility.yul\":5030:5037   */\n      dup5\n        /* \"#utility.yul\":5021:5027   */\n      dup3\n        /* \"#utility.yul\":5010:5019   */\n      dup6\n        /* \"#utility.yul\":5006:5028   */\n      add\n        /* \"#utility.yul\":4985:5038   */\n      tag_317\n      jump\t// in\n    tag_356:\n        /* \"#utility.yul\":4975:5038   */\n      swap2\n      pop\n        /* \"#utility.yul\":4931:5048   */\n      pop\n        /* \"#utility.yul\":4859:5055   */\n      swap3\n      swap2\n      pop\n      pop\n      jump\t// out\n        /* \"#utility.yul\":5061:5179   */\n    tag_357:\n        /* \"#utility.yul\":5148:5172   */\n      tag_359\n        /* \"#utility.yul\":5166:5171   */\n      dup2\n        /* \"#utility.yul\":5148:5172   */\n      tag_360\n      jump\t// in\n    tag_359:\n        /* \"#utility.yul\":5143:5146   */\n      dup3\n        /* \"#utility.yul\":5136:5173   */\n      mstore\n        /* \"#utility.yul\":5126:5179   */\n      pop\n      pop\n      jump\t// out\n        /* \"#utility.yul\":5185:5294   */\n    tag_361:\n        /* \"#utility.yul\":5266:5287   */\n      tag_363\n        /* \"#utility.yul\":5281:5286   */\n      dup2\n        /* \"#utility.yul\":5266:5287   */\n      tag_364\n      jump\t// in\n    tag_363:\n        /* \"#utility.yul\":5261:5264   */\n      dup3\n        /* \"#utility.yul\":5254:5288   */\n      mstore\n        /* \"#utility.yul\":5244:5294   */\n      pop\n      pop\n      jump\t// out\n        /* \"#utility.yul\":5300:5660   */\n    tag_365:\n        /* \"#utility.yul\":5386:5389   */\n      0x00\n        /* \"#utility.yul\":5414:5452   */\n      tag_367\n        /* \"#utility.yul\":5446:5451   */\n      dup3\n        /* \"#utility.yul\":5414:5452   */\n      tag_368\n      jump\t// in\n    tag_367:\n        /* \"#utility.yul\":5468:5538   */\n      tag_369\n        /* \"#utility.yul\":5531:5537   */\n      dup2\n        /* \"#utility.yul\":5526:5529   */\n      dup6\n        /* \"#utility.yul\":5468:5538   */\n      tag_370\n      jump\t// in\n    tag_369:\n        /* \"#utility.yul\":5461:5538   */\n      swap4\n      pop\n        /* \"#utility.yul\":5547:5599   */\n      tag_371\n        /* \"#utility.yul\":5592:5598   */\n      dup2\n        /* \"#utility.yul\":5587:5590   */\n      dup6\n        /* \"#utility.yul\":5580:5584   */\n      0x20\n        /* \"#utility.yul\":5573:5578   */\n      dup7\n        /* \"#utility.yul\":5569:5585   */\n      add\n        /* \"#utility.yul\":5547:5599   */\n      tag_372\n      jump\t// in\n    tag_371:\n        /* \"#utility.yul\":5624:5653   */\n      tag_373\n        /* \"#utility.yul\":5646:5652   */\n      dup2\n        /* \"#utility.yul\":5624:5653   */\n      tag_374\n      jump\t// in\n    tag_373:\n        /* \"#utility.yul\":5619:5622   */\n      dup5\n        /* \"#utility.yul\":5615:5654   */\n      add\n        /* \"#utility.yul\":5608:5654   */\n      swap2\n      pop\n        /* \"#utility.yul\":5390:5660   */\n      pop\n      swap3\n      swap2\n      pop\n      pop\n      jump\t// out\n        /* \"#utility.yul\":5666:6030   */\n    tag_375:\n        /* \"#utility.yul\":5754:5757   */\n      0x00\n        /* \"#utility.yul\":5782:5821   */\n      tag_377\n        /* \"#utility.yul\":5815:5820   */\n      dup3\n        /* \"#utility.yul\":5782:5821   */\n      tag_378\n      jump\t// in\n    tag_377:\n        /* \"#utility.yul\":5837:5908   */\n      tag_379\n        /* \"#utility.yul\":5901:5907   */\n      dup2\n        /* \"#utility.yul\":5896:5899   */\n      dup6\n        /* \"#utility.yul\":5837:5908   */\n      tag_380\n      jump\t// in\n    tag_379:\n        /* \"#utility.yul\":5830:5908   */\n      swap4\n      pop\n        /* \"#utility.yul\":5917:5969   */\n      tag_381\n        /* \"#utility.yul\":5962:5968   */\n      dup2\n        /* \"#utility.yul\":5957:5960   */\n      dup6\n        /* \"#utility.yul\":5950:5954   */\n      0x20\n        /* \"#utility.yul\":5943:5948   */\n      dup7\n        /* \"#utility.yul\":5939:5955   */\n      add\n        /* \"#utility.yul\":5917:5969   */\n      tag_372\n      jump\t// in\n    tag_381:\n        /* \"#utility.yul\":5994:6023   */\n      tag_382\n        /* \"#utility.yul\":6016:6022   */\n      dup2\n        /* \"#utility.yul\":5994:6023   */\n      tag_374\n      jump\t// in\n    tag_382:\n        /* \"#utility.yul\":5989:5992   */\n      dup5\n        /* \"#utility.yul\":5985:6024   */\n      add\n        /* \"#utility.yul\":5978:6024   */\n      swap2\n      pop\n        /* \"#utility.yul\":5758:6030   */\n      pop\n      swap3\n      swap2\n      pop\n      pop\n      jump\t// out\n        /* \"#utility.yul\":6036:6413   */\n    tag_383:\n        /* \"#utility.yul\":6142:6145   */\n      0x00\n        /* \"#utility.yul\":6170:6209   */\n      tag_385\n        /* \"#utility.yul\":6203:6208   */\n      dup3\n        /* \"#utility.yul\":6170:6209   */\n      tag_378\n      jump\t// in\n    tag_385:\n        /* \"#utility.yul\":6225:6314   */\n      tag_386\n        /* \"#utility.yul\":6307:6313   */\n      dup2\n        /* \"#utility.yul\":6302:6305   */\n      dup6\n        /* \"#utility.yul\":6225:6314   */\n      tag_387\n      jump\t// in\n    tag_386:\n        /* \"#utility.yul\":6218:6314   */\n      swap4\n      pop\n        /* \"#utility.yul\":6323:6375   */\n      tag_388\n        /* \"#utility.yul\":6368:6374   */\n      dup2\n        /* \"#utility.yul\":6363:6366   */\n      dup6\n        /* \"#utility.yul\":6356:6360   */\n      0x20\n        /* \"#utility.yul\":6349:6354   */\n      dup7\n        /* \"#utility.yul\":6345:6361   */\n      add\n        /* \"#utility.yul\":6323:6375   */\n      tag_372\n      jump\t// in\n    tag_388:\n        /* \"#utility.yul\":6400:6406   */\n      dup1\n        /* \"#utility.yul\":6395:6398   */\n      dup5\n        /* \"#utility.yul\":6391:6407   */\n      add\n        /* \"#utility.yul\":6384:6407   */\n      swap2\n      pop\n        /* \"#utility.yul\":6146:6413   */\n      pop\n      swap3\n      swap2\n      pop\n      pop\n      jump\t// out\n        /* \"#utility.yul\":6419:6785   */\n    tag_389:\n        /* \"#utility.yul\":6561:6564   */\n      0x00\n        /* \"#utility.yul\":6582:6649   */\n      tag_391\n        /* \"#utility.yul\":6646:6648   */\n      0x32\n        /* \"#utility.yul\":6641:6644   */\n      dup4\n        /* \"#utility.yul\":6582:6649   */\n      tag_380\n      jump\t// in\n    tag_391:\n        /* \"#utility.yul\":6575:6649   */\n      swap2\n      pop\n        /* \"#utility.yul\":6658:6751   */\n      tag_392\n        /* \"#utility.yul\":6747:6750   */\n      dup3\n        /* \"#utility.yul\":6658:6751   */\n      tag_393\n      jump\t// in\n    tag_392:\n        /* \"#utility.yul\":6776:6778   */\n      0x40\n        /* \"#utility.yul\":6771:6774   */\n      dup3\n        /* \"#utility.yul\":6767:6779   */\n      add\n        /* \"#utility.yul\":6760:6779   */\n      swap1\n      pop\n        /* \"#utility.yul\":6565:6785   */\n      swap2\n      swap1\n      pop\n      jump\t// out\n        /* \"#utility.yul\":6791:7157   */\n    tag_394:\n        /* \"#utility.yul\":6933:6936   */\n      0x00\n        /* \"#utility.yul\":6954:7021   */\n      tag_396\n        /* \"#utility.yul\":7018:7020   */\n      0x25\n        /* \"#utility.yul\":7013:7016   */\n      dup4\n        /* \"#utility.yul\":6954:7021   */\n      tag_380\n      jump\t// in\n    tag_396:\n        /* \"#utility.yul\":6947:7021   */\n      swap2\n      pop\n        /* \"#utility.yul\":7030:7123   */\n      tag_397\n        /* \"#utility.yul\":7119:7122   */\n      dup3\n        /* \"#utility.yul\":7030:7123   */\n      tag_398\n      jump\t// in\n    tag_397:\n        /* \"#utility.yul\":7148:7150   */\n      0x40\n        /* \"#utility.yul\":7143:7146   */\n      dup3\n        /* \"#utility.yul\":7139:7151   */\n      add\n        /* \"#utility.yul\":7132:7151   */\n      swap1\n      pop\n        /* \"#utility.yul\":6937:7157   */\n      swap2\n      swap1\n      pop\n      jump\t// out\n        /* \"#utility.yul\":7163:7529   */\n    tag_399:\n        /* \"#utility.yul\":7305:7308   */\n      0x00\n        /* \"#utility.yul\":7326:7393   */\n      tag_401\n        /* \"#utility.yul\":7390:7392   */\n      0x1c\n        /* \"#utility.yul\":7385:7388   */\n      dup4\n        /* \"#utility.yul\":7326:7393   */\n      tag_380\n      jump\t// in\n    tag_401:\n        /* \"#utility.yul\":7319:7393   */\n      swap2\n      pop\n        /* \"#utility.yul\":7402:7495   */\n      tag_402\n        /* \"#utility.yul\":7491:7494   */\n      dup3\n        /* \"#utility.yul\":7402:7495   */\n      tag_403\n      jump\t// in\n    tag_402:\n        /* \"#utility.yul\":7520:7522   */\n      0x20\n        /* \"#utility.yul\":7515:7518   */\n      dup3\n        /* \"#utility.yul\":7511:7523   */\n      add\n        /* \"#utility.yul\":7504:7523   */\n      swap1\n      pop\n        /* \"#utility.yul\":7309:7529   */\n      swap2\n      swap1\n      pop\n      jump\t// out\n        /* \"#utility.yul\":7535:7901   */\n    tag_404:\n        /* \"#utility.yul\":7677:7680   */\n      0x00\n        /* \"#utility.yul\":7698:7765   */\n      tag_406\n        /* \"#utility.yul\":7762:7764   */\n      0x24\n        /* \"#utility.yul\":7757:7760   */\n      dup4\n        /* \"#utility.yul\":7698:7765   */\n      tag_380\n      jump\t// in\n    tag_406:\n        /* \"#utility.yul\":7691:7765   */\n      swap2\n      pop\n        /* \"#utility.yul\":7774:7867   */\n      tag_407\n        /* \"#utility.yul\":7863:7866   */\n      dup3\n        /* \"#utility.yul\":7774:7867   */\n      tag_408\n      jump\t// in\n    tag_407:\n        /* \"#utility.yul\":7892:7894   */\n      0x40\n        /* \"#utility.yul\":7887:7890   */\n      dup3\n        /* \"#utility.yul\":7883:7895   */\n      add\n        /* \"#utility.yul\":7876:7895   */\n      swap1\n      pop\n        /* \"#utility.yul\":7681:7901   */\n      swap2\n      swap1\n      pop\n      jump\t// out\n        /* \"#utility.yul\":7907:8273   */\n    tag_409:\n        /* \"#utility.yul\":8049:8052   */\n      0x00\n        /* \"#utility.yul\":8070:8137   */\n      tag_411\n        /* \"#utility.yul\":8134:8136   */\n      0x19\n        /* \"#utility.yul\":8129:8132   */\n      dup4\n        /* \"#utility.yul\":8070:8137   */\n      tag_380\n      jump\t// in\n    tag_411:\n        /* \"#utility.yul\":8063:8137   */\n      swap2\n      pop\n        /* \"#utility.yul\":8146:8239   */\n      tag_412\n        /* \"#utility.yul\":8235:8238   */\n      dup3\n        /* \"#utility.yul\":8146:8239   */\n      tag_413\n      jump\t// in\n    tag_412:\n        /* \"#utility.yul\":8264:8266   */\n      0x20\n        /* \"#utility.yul\":8259:8262   */\n      dup3\n        /* \"#utility.yul\":8255:8267   */\n      add\n        /* \"#utility.yul\":8248:8267   */\n      swap1\n      pop\n        /* \"#utility.yul\":8053:8273   */\n      swap2\n      swap1\n      pop\n      jump\t// out\n        /* \"#utility.yul\":8279:8645   */\n    tag_414:\n        /* \"#utility.yul\":8421:8424   */\n      0x00\n        /* \"#utility.yul\":8442:8509   */\n      tag_416\n        /* \"#utility.yul\":8506:8508   */\n      0x2c\n        /* \"#utility.yul\":8501:8504   */\n      dup4\n        /* \"#utility.yul\":8442:8509   */\n      tag_380\n      jump\t// in\n    tag_416:\n        /* \"#utility.yul\":8435:8509   */\n      swap2\n      pop\n        /* \"#utility.yul\":8518:8611   */\n      tag_417\n        /* \"#utility.yul\":8607:8610   */\n      dup3\n        /* \"#utility.yul\":8518:8611   */\n      tag_418\n      jump\t// in\n    tag_417:\n        /* \"#utility.yul\":8636:8638   */\n      0x40\n        /* \"#utility.yul\":8631:8634   */\n      dup3\n        /* \"#utility.yul\":8627:8639   */\n      add\n        /* \"#utility.yul\":8620:8639   */\n      swap1\n      pop\n        /* \"#utility.yul\":8425:8645   */\n      swap2\n      swap1\n      pop\n      jump\t// out\n        /* \"#utility.yul\":8651:9017   */\n    tag_419:\n        /* \"#utility.yul\":8793:8796   */\n      0x00\n        /* \"#utility.yul\":8814:8881   */\n      tag_421\n        /* \"#utility.yul\":8878:8880   */\n      0x31\n        /* \"#utility.yul\":8873:8876   */\n      dup4\n        /* \"#utility.yul\":8814:8881   */\n      tag_380\n      jump\t// in\n    tag_421:\n        /* \"#utility.yul\":8807:8881   */\n      swap2\n      pop\n        /* \"#utility.yul\":8890:8983   */\n      tag_422\n        /* \"#utility.yul\":8979:8982   */\n      dup3\n        /* \"#utility.yul\":8890:8983   */\n      tag_423\n      jump\t// in\n    tag_422:\n        /* \"#utility.yul\":9008:9010   */\n      0x40\n        /* \"#utility.yul\":9003:9006   */\n      dup3\n        /* \"#utility.yul\":8999:9011   */\n      add\n        /* \"#utility.yul\":8992:9011   */\n      swap1\n      pop\n        /* \"#utility.yul\":8797:9017   */\n      swap2\n      swap1\n      pop\n      jump\t// out\n        /* \"#utility.yul\":9023:9389   */\n    tag_424:\n        /* \"#utility.yul\":9165:9168   */\n      0x00\n        /* \"#utility.yul\":9186:9253   */\n      tag_426\n        /* \"#utility.yul\":9250:9252   */\n      0x38\n        /* \"#utility.yul\":9245:9248   */\n      dup4\n        /* \"#utility.yul\":9186:9253   */\n      tag_380\n      jump\t// in\n    tag_426:\n        /* \"#utility.yul\":9179:9253   */\n      swap2\n      pop\n        /* \"#utility.yul\":9262:9355   */\n      tag_427\n        /* \"#utility.yul\":9351:9354   */\n      dup3\n        /* \"#utility.yul\":9262:9355   */\n      tag_428\n      jump\t// in\n    tag_427:\n        /* \"#utility.yul\":9380:9382   */\n      0x40\n        /* \"#utility.yul\":9375:9378   */\n      dup3\n        /* \"#utility.yul\":9371:9383   */\n      add\n        /* \"#utility.yul\":9364:9383   */\n      swap1\n      pop\n        /* \"#utility.yul\":9169:9389   */\n      swap2\n      swap1\n      pop\n      jump\t// out\n        /* \"#utility.yul\":9395:9761   */\n    tag_429:\n        /* \"#utility.yul\":9537:9540   */\n      0x00\n        /* \"#utility.yul\":9558:9625   */\n      tag_431\n        /* \"#utility.yul\":9622:9624   */\n      0x2a\n        /* \"#utility.yul\":9617:9620   */\n      dup4\n        /* \"#utility.yul\":9558:9625   */\n      tag_380\n      jump\t// in\n    tag_431:\n        /* \"#utility.yul\":9551:9625   */\n      swap2\n      pop\n        /* \"#utility.yul\":9634:9727   */\n      tag_432\n        /* \"#utility.yul\":9723:9726   */\n      dup3\n        /* \"#utility.yul\":9634:9727   */\n      tag_433\n      jump\t// in\n    tag_432:\n        /* \"#utility.yul\":9752:9754   */\n      0x40\n        /* \"#utility.yul\":9747:9750   */\n      dup3\n        /* \"#utility.yul\":9743:9755   */\n      add\n        /* \"#utility.yul\":9736:9755   */\n      swap1\n      pop\n        /* \"#utility.yul\":9541:9761   */\n      swap2\n      swap1\n      pop\n      jump\t// out\n        /* \"#utility.yul\":9767:10133   */\n    tag_434:\n        /* \"#utility.yul\":9909:9912   */\n      0x00\n        /* \"#utility.yul\":9930:9997   */\n      tag_436\n        /* \"#utility.yul\":9994:9996   */\n      0x29\n        /* \"#utility.yul\":9989:9992   */\n      dup4\n        /* \"#utility.yul\":9930:9997   */\n      tag_380\n      jump\t// in\n    tag_436:\n        /* \"#utility.yul\":9923:9997   */\n      swap2\n      pop\n        /* \"#utility.yul\":10006:10099   */\n      tag_437\n        /* \"#utility.yul\":10095:10098   */\n      dup3\n        /* \"#utility.yul\":10006:10099   */\n      tag_438\n      jump\t// in\n    tag_437:\n        /* \"#utility.yul\":10124:10126   */\n      0x40\n        /* \"#utility.yul\":10119:10122   */\n      dup3\n        /* \"#utility.yul\":10115:10127   */\n      add\n        /* \"#utility.yul\":10108:10127   */\n      swap1\n      pop\n        /* \"#utility.yul\":9913:10133   */\n      swap2\n      swap1\n      pop\n      jump\t// out\n        /* \"#utility.yul\":10139:10505   */\n    tag_439:\n        /* \"#utility.yul\":10281:10284   */\n      0x00\n        /* \"#utility.yul\":10302:10369   */\n      tag_441\n        /* \"#utility.yul\":10366:10368   */\n      0x20\n        /* \"#utility.yul\":10361:10364   */\n      dup4\n        /* \"#utility.yul\":10302:10369   */\n      tag_380\n      jump\t// in\n    tag_441:\n        /* \"#utility.yul\":10295:10369   */\n      swap2\n      pop\n        /* \"#utility.yul\":10378:10471   */\n      tag_442\n        /* \"#utility.yul\":10467:10470   */\n      dup3\n        /* \"#utility.yul\":10378:10471   */\n      tag_443\n      jump\t// in\n    tag_442:\n        /* \"#utility.yul\":10496:10498   */\n      0x20\n        /* \"#utility.yul\":10491:10494   */\n      dup3\n        /* \"#utility.yul\":10487:10499   */\n      add\n        /* \"#utility.yul\":10480:10499   */\n      swap1\n      pop\n        /* \"#utility.yul\":10285:10505   */\n      swap2\n      swap1\n      pop\n      jump\t// out\n        /* \"#utility.yul\":10511:10877   */\n    tag_444:\n        /* \"#utility.yul\":10653:10656   */\n      0x00\n        /* \"#utility.yul\":10674:10741   */\n      tag_446\n        /* \"#utility.yul\":10738:10740   */\n      0x2c\n        /* \"#utility.yul\":10733:10736   */\n      dup4\n        /* \"#utility.yul\":10674:10741   */\n      tag_380\n      jump\t// in\n    tag_446:\n        /* \"#utility.yul\":10667:10741   */\n      swap2\n      pop\n        /* \"#utility.yul\":10750:10843   */\n      tag_447\n        /* \"#utility.yul\":10839:10842   */\n      dup3\n        /* \"#utility.yul\":10750:10843   */\n      tag_448\n      jump\t// in\n    tag_447:\n        /* \"#utility.yul\":10868:10870   */\n      0x40\n        /* \"#utility.yul\":10863:10866   */\n      dup3\n        /* \"#utility.yul\":10859:10871   */\n      add\n        /* \"#utility.yul\":10852:10871   */\n      swap1\n      pop\n        /* \"#utility.yul\":10657:10877   */\n      swap2\n      swap1\n      pop\n      jump\t// out\n        /* \"#utility.yul\":10883:11249   */\n    tag_449:\n        /* \"#utility.yul\":11025:11028   */\n      0x00\n        /* \"#utility.yul\":11046:11113   */\n      tag_451\n        /* \"#utility.yul\":11110:11112   */\n      0x21\n        /* \"#utility.yul\":11105:11108   */\n      dup4\n        /* \"#utility.yul\":11046:11113   */\n      tag_380\n      jump\t// in\n    tag_451:\n        /* \"#utility.yul\":11039:11113   */\n      swap2\n      pop\n        /* \"#utility.yul\":11122:11215   */\n      tag_452\n        /* \"#utility.yul\":11211:11214   */\n      dup3\n        /* \"#utility.yul\":11122:11215   */\n      tag_453\n      jump\t// in\n    tag_452:\n        /* \"#utility.yul\":11240:11242   */\n      0x40\n        /* \"#utility.yul\":11235:11238   */\n      dup3\n        /* \"#utility.yul\":11231:11243   */\n      add\n        /* \"#utility.yul\":11224:11243   */\n      swap1\n      pop\n        /* \"#utility.yul\":11029:11249   */\n      swap2\n      swap1\n      pop\n      jump\t// out\n        /* \"#utility.yul\":11255:11621   */\n    tag_454:\n        /* \"#utility.yul\":11397:11400   */\n      0x00\n        /* \"#utility.yul\":11418:11485   */\n      tag_456\n        /* \"#utility.yul\":11482:11484   */\n      0x31\n        /* \"#utility.yul\":11477:11480   */\n      dup4\n        /* \"#utility.yul\":11418:11485   */\n      tag_380\n      jump\t// in\n    tag_456:\n        /* \"#utility.yul\":11411:11485   */\n      swap2\n      pop\n        /* \"#utility.yul\":11494:11587   */\n      tag_457\n        /* \"#utility.yul\":11583:11586   */\n      dup3\n        /* \"#utility.yul\":11494:11587   */\n      tag_458\n      jump\t// in\n    tag_457:\n        /* \"#utility.yul\":11612:11614   */\n      0x40\n        /* \"#utility.yul\":11607:11610   */\n      dup3\n        /* \"#utility.yul\":11603:11615   */\n      add\n        /* \"#utility.yul\":11596:11615   */\n      swap1\n      pop\n        /* \"#utility.yul\":11401:11621   */\n      swap2\n      swap1\n      pop\n      jump\t// out\n        /* \"#utility.yul\":11627:11993   */\n    tag_459:\n        /* \"#utility.yul\":11769:11772   */\n      0x00\n        /* \"#utility.yul\":11790:11857   */\n      tag_461\n        /* \"#utility.yul\":11854:11856   */\n      0x2f\n        /* \"#utility.yul\":11849:11852   */\n      dup4\n        /* \"#utility.yul\":11790:11857   */\n      tag_380\n      jump\t// in\n    tag_461:\n        /* \"#utility.yul\":11783:11857   */\n      swap2\n      pop\n        /* \"#utility.yul\":11866:11959   */\n      tag_462\n        /* \"#utility.yul\":11955:11958   */\n      dup3\n        /* \"#utility.yul\":11866:11959   */\n      tag_463\n      jump\t// in\n    tag_462:\n        /* \"#utility.yul\":11984:11986   */\n      0x40\n        /* \"#utility.yul\":11979:11982   */\n      dup3\n        /* \"#utility.yul\":11975:11987   */\n      add\n        /* \"#utility.yul\":11968:11987   */\n      swap1\n      pop\n        /* \"#utility.yul\":11773:11993   */\n      swap2\n      swap1\n      pop\n      jump\t// out\n        /* \"#utility.yul\":11999:12117   */\n    tag_464:\n        /* \"#utility.yul\":12086:12110   */\n      tag_466\n        /* \"#utility.yul\":12104:12109   */\n      dup2\n        /* \"#utility.yul\":12086:12110   */\n      tag_467\n      jump\t// in\n    tag_466:\n        /* \"#utility.yul\":12081:12084   */\n      dup3\n        /* \"#utility.yul\":12074:12111   */\n      mstore\n        /* \"#utility.yul\":12064:12117   */\n      pop\n      pop\n      jump\t// out\n        /* \"#utility.yul\":12123:12558   */\n    tag_172:\n        /* \"#utility.yul\":12303:12306   */\n      0x00\n        /* \"#utility.yul\":12325:12420   */\n      tag_469\n        /* \"#utility.yul\":12416:12419   */\n      dup3\n        /* \"#utility.yul\":12407:12413   */\n      dup6\n        /* \"#utility.yul\":12325:12420   */\n      tag_383\n      jump\t// in\n    tag_469:\n        /* \"#utility.yul\":12318:12420   */\n      swap2\n      pop\n        /* \"#utility.yul\":12437:12532   */\n      tag_470\n        /* \"#utility.yul\":12528:12531   */\n      dup3\n        /* \"#utility.yul\":12519:12525   */\n      dup5\n        /* \"#utility.yul\":12437:12532   */\n      tag_383\n      jump\t// in\n    tag_470:\n        /* \"#utility.yul\":12430:12532   */\n      swap2\n      pop\n        /* \"#utility.yul\":12549:12552   */\n      dup2\n        /* \"#utility.yul\":12542:12552   */\n      swap1\n      pop\n        /* \"#utility.yul\":12307:12558   */\n      swap4\n      swap3\n      pop\n      pop\n      pop\n      jump\t// out\n        /* \"#utility.yul\":12564:12786   */\n    tag_36:\n        /* \"#utility.yul\":12657:12661   */\n      0x00\n        /* \"#utility.yul\":12695:12697   */\n      0x20\n        /* \"#utility.yul\":12684:12693   */\n      dup3\n        /* \"#utility.yul\":12680:12698   */\n      add\n        /* \"#utility.yul\":12672:12698   */\n      swap1\n      pop\n        /* \"#utility.yul\":12708:12779   */\n      tag_472\n        /* \"#utility.yul\":12776:12777   */\n      0x00\n        /* \"#utility.yul\":12765:12774   */\n      dup4\n        /* \"#utility.yul\":12761:12778   */\n      add\n        /* \"#utility.yul\":12752:12758   */\n      dup5\n        /* \"#utility.yul\":12708:12779   */\n      tag_357\n      jump\t// in\n    tag_472:\n        /* \"#utility.yul\":12662:12786   */\n      swap3\n      swap2\n      pop\n      pop\n      jump\t// out\n        /* \"#utility.yul\":12792:13432   */\n    tag_260:\n        /* \"#utility.yul\":12987:12991   */\n      0x00\n        /* \"#utility.yul\":13025:13028   */\n      0x80\n        /* \"#utility.yul\":13014:13023   */\n      dup3\n        /* \"#utility.yul\":13010:13029   */\n      add\n        /* \"#utility.yul\":13002:13029   */\n      swap1\n      pop\n        /* \"#utility.yul\":13039:13110   */\n      tag_474\n        /* \"#utility.yul\":13107:13108   */\n      0x00\n        /* \"#utility.yul\":13096:13105   */\n      dup4\n        /* \"#utility.yul\":13092:13109   */\n      add\n        /* \"#utility.yul\":13083:13089   */\n      dup8\n        /* \"#utility.yul\":13039:13110   */\n      tag_357\n      jump\t// in\n    tag_474:\n        /* \"#utility.yul\":13120:13192   */\n      tag_475\n        /* \"#utility.yul\":13188:13190   */\n      0x20\n        /* \"#utility.yul\":13177:13186   */\n      dup4\n        /* \"#utility.yul\":13173:13191   */\n      add\n        /* \"#utility.yul\":13164:13170   */\n      dup7\n        /* \"#utility.yul\":13120:13192   */\n      tag_357\n      jump\t// in\n    tag_475:\n        /* \"#utility.yul\":13202:13274   */\n      tag_476\n        /* \"#utility.yul\":13270:13272   */\n      0x40\n        /* \"#utility.yul\":13259:13268   */\n      dup4\n        /* \"#utility.yul\":13255:13273   */\n      add\n        /* \"#utility.yul\":13246:13252   */\n      dup6\n        /* \"#utility.yul\":13202:13274   */\n      tag_464\n      jump\t// in\n    tag_476:\n        /* \"#utility.yul\":13321:13330   */\n      dup2\n        /* \"#utility.yul\":13315:13319   */\n      dup2\n        /* \"#utility.yul\":13311:13331   */\n      sub\n        /* \"#utility.yul\":13306:13308   */\n      0x60\n        /* \"#utility.yul\":13295:13304   */\n      dup4\n        /* \"#utility.yul\":13291:13309   */\n      add\n        /* \"#utility.yul\":13284:13332   */\n      mstore\n        /* \"#utility.yul\":13349:13425   */\n      tag_477\n        /* \"#utility.yul\":13420:13424   */\n      dup2\n        /* \"#utility.yul\":13411:13417   */\n      dup5\n        /* \"#utility.yul\":13349:13425   */\n      tag_365\n      jump\t// in\n    tag_477:\n        /* \"#utility.yul\":13341:13425   */\n      swap1\n      pop\n        /* \"#utility.yul\":12992:13432   */\n      swap6\n      swap5\n      pop\n      pop\n      pop\n      pop\n      pop\n      jump\t// out\n        /* \"#utility.yul\":13438:13648   */\n    tag_26:\n        /* \"#utility.yul\":13525:13529   */\n      0x00\n        /* \"#utility.yul\":13563:13565   */\n      0x20\n        /* \"#utility.yul\":13552:13561   */\n      dup3\n        /* \"#utility.yul\":13548:13566   */\n      add\n        /* \"#utility.yul\":13540:13566   */\n      swap1\n      pop\n        /* \"#utility.yul\":13576:13641   */\n      tag_479\n        /* \"#utility.yul\":13638:13639   */\n      0x00\n        /* \"#utility.yul\":13627:13636   */\n      dup4\n        /* \"#utility.yul\":13623:13640   */\n      add\n        /* \"#utility.yul\":13614:13620   */\n      dup5\n        /* \"#utility.yul\":13576:13641   */\n      tag_361\n      jump\t// in\n    tag_479:\n        /* \"#utility.yul\":13530:13648   */\n      swap3\n      swap2\n      pop\n      pop\n      jump\t// out\n        /* \"#utility.yul\":13654:13967   */\n    tag_30:\n        /* \"#utility.yul\":13767:13771   */\n      0x00\n        /* \"#utility.yul\":13805:13807   */\n      0x20\n        /* \"#utility.yul\":13794:13803   */\n      dup3\n        /* \"#utility.yul\":13790:13808   */\n      add\n        /* \"#utility.yul\":13782:13808   */\n      swap1\n      pop\n        /* \"#utility.yul\":13854:13863   */\n      dup2\n        /* \"#utility.yul\":13848:13852   */\n      dup2\n        /* \"#utility.yul\":13844:13864   */\n      sub\n        /* \"#utility.yul\":13840:13841   */\n      0x00\n        /* \"#utility.yul\":13829:13838   */\n      dup4\n        /* \"#utility.yul\":13825:13842   */\n      add\n        /* \"#utility.yul\":13818:13865   */\n      mstore\n        /* \"#utility.yul\":13882:13960   */\n      tag_481\n        /* \"#utility.yul\":13955:13959   */\n      dup2\n        /* \"#utility.yul\":13946:13952   */\n      dup5\n        /* \"#utility.yul\":13882:13960   */\n      tag_375\n      jump\t// in\n    tag_481:\n        /* \"#utility.yul\":13874:13960   */\n      swap1\n      pop\n        /* \"#utility.yul\":13772:13967   */\n      swap3\n      swap2\n      pop\n      pop\n      jump\t// out\n        /* \"#utility.yul\":13973:14392   */\n    tag_226:\n        /* \"#utility.yul\":14139:14143   */\n      0x00\n        /* \"#utility.yul\":14177:14179   */\n      0x20\n        /* \"#utility.yul\":14166:14175   */\n      dup3\n        /* \"#utility.yul\":14162:14180   */\n      add\n        /* \"#utility.yul\":14154:14180   */\n      swap1\n      pop\n        /* \"#utility.yul\":14226:14235   */\n      dup2\n        /* \"#utility.yul\":14220:14224   */\n      dup2\n        /* \"#utility.yul\":14216:14236   */\n      sub\n        /* \"#utility.yul\":14212:14213   */\n      0x00\n        /* \"#utility.yul\":14201:14210   */\n      dup4\n        /* \"#utility.yul\":14197:14214   */\n      add\n        /* \"#utility.yul\":14190:14237   */\n      mstore\n        /* \"#utility.yul\":14254:14385   */\n      tag_483\n        /* \"#utility.yul\":14380:14384   */\n      dup2\n        /* \"#utility.yul\":14254:14385   */\n      tag_389\n      jump\t// in\n    tag_483:\n        /* \"#utility.yul\":14246:14385   */\n      swap1\n      pop\n        /* \"#utility.yul\":14144:14392   */\n      swap2\n      swap1\n      pop\n      jump\t// out\n        /* \"#utility.yul\":14398:14817   */\n    tag_193:\n        /* \"#utility.yul\":14564:14568   */\n      0x00\n        /* \"#utility.yul\":14602:14604   */\n      0x20\n        /* \"#utility.yul\":14591:14600   */\n      dup3\n        /* \"#utility.yul\":14587:14605   */\n      add\n        /* \"#utility.yul\":14579:14605   */\n      swap1\n      pop\n        /* \"#utility.yul\":14651:14660   */\n      dup2\n        /* \"#utility.yul\":14645:14649   */\n      dup2\n        /* \"#utility.yul\":14641:14661   */\n      sub\n        /* \"#utility.yul\":14637:14638   */\n      0x00\n        /* \"#utility.yul\":14626:14635   */\n      dup4\n        /* \"#utility.yul\":14622:14639   */\n      add\n        /* \"#utility.yul\":14615:14662   */\n      mstore\n        /* \"#utility.yul\":14679:14810   */\n      tag_485\n        /* \"#utility.yul\":14805:14809   */\n      dup2\n        /* \"#utility.yul\":14679:14810   */\n      tag_394\n      jump\t// in\n    tag_485:\n        /* \"#utility.yul\":14671:14810   */\n      swap1\n      pop\n        /* \"#utility.yul\":14569:14817   */\n      swap2\n      swap1\n      pop\n      jump\t// out\n        /* \"#utility.yul\":14823:15242   */\n    tag_283:\n        /* \"#utility.yul\":14989:14993   */\n      0x00\n        /* \"#utility.yul\":15027:15029   */\n      0x20\n        /* \"#utility.yul\":15016:15025   */\n      dup3\n        /* \"#utility.yul\":15012:15030   */\n      add\n        /* \"#utility.yul\":15004:15030   */\n      swap1\n      pop\n        /* \"#utility.yul\":15076:15085   */\n      dup2\n        /* \"#utility.yul\":15070:15074   */\n      dup2\n        /* \"#utility.yul\":15066:15086   */\n      sub\n        /* \"#utility.yul\":15062:15063   */\n      0x00\n        /* \"#utility.yul\":15051:15060   */\n      dup4\n        /* \"#utility.yul\":15047:15064   */\n      add\n        /* \"#utility.yul\":15040:15087   */\n      mstore\n        /* \"#utility.yul\":15104:15235   */\n      tag_487\n        /* \"#utility.yul\":15230:15234   */\n      dup2\n        /* \"#utility.yul\":15104:15235   */\n      tag_399\n      jump\t// in\n    tag_487:\n        /* \"#utility.yul\":15096:15235   */\n      swap1\n      pop\n        /* \"#utility.yul\":14994:15242   */\n      swap2\n      swap1\n      pop\n      jump\t// out\n        /* \"#utility.yul\":15248:15667   */\n    tag_196:\n        /* \"#utility.yul\":15414:15418   */\n      0x00\n        /* \"#utility.yul\":15452:15454   */\n      0x20\n        /* \"#utility.yul\":15441:15450   */\n      dup3\n        /* \"#utility.yul\":15437:15455   */\n      add\n        /* \"#utility.yul\":15429:15455   */\n      swap1\n      pop\n        /* \"#utility.yul\":15501:15510   */\n      dup2\n        /* \"#utility.yul\":15495:15499   */\n      dup2\n        /* \"#utility.yul\":15491:15511   */\n      sub\n        /* \"#utility.yul\":15487:15488   */\n      0x00\n        /* \"#utility.yul\":15476:15485   */\n      dup4\n        /* \"#utility.yul\":15472:15489   */\n      add\n        /* \"#utility.yul\":15465:15512   */\n      mstore\n        /* \"#utility.yul\":15529:15660   */\n      tag_489\n        /* \"#utility.yul\":15655:15659   */\n      dup2\n        /* \"#utility.yul\":15529:15660   */\n      tag_404\n      jump\t// in\n    tag_489:\n        /* \"#utility.yul\":15521:15660   */\n      swap1\n      pop\n        /* \"#utility.yul\":15419:15667   */\n      swap2\n      swap1\n      pop\n      jump\t// out\n        /* \"#utility.yul\":15673:16092   */\n    tag_218:\n        /* \"#utility.yul\":15839:15843   */\n      0x00\n        /* \"#utility.yul\":15877:15879   */\n      0x20\n        /* \"#utility.yul\":15866:15875   */\n      dup3\n        /* \"#utility.yul\":15862:15880   */\n      add\n        /* \"#utility.yul\":15854:15880   */\n      swap1\n      pop\n        /* \"#utility.yul\":15926:15935   */\n      dup2\n        /* \"#utility.yul\":15920:15924   */\n      dup2\n        /* \"#utility.yul\":15916:15936   */\n      sub\n        /* \"#utility.yul\":15912:15913   */\n      0x00\n        /* \"#utility.yul\":15901:15910   */\n      dup4\n        /* \"#utility.yul\":15897:15914   */\n      add\n        /* \"#utility.yul\":15890:15937   */\n      mstore\n        /* \"#utility.yul\":15954:16085   */\n      tag_491\n        /* \"#utility.yul\":16080:16084   */\n      dup2\n        /* \"#utility.yul\":15954:16085   */\n      tag_409\n      jump\t// in\n    tag_491:\n        /* \"#utility.yul\":15946:16085   */\n      swap1\n      pop\n        /* \"#utility.yul\":15844:16092   */\n      swap2\n      swap1\n      pop\n      jump\t// out\n        /* \"#utility.yul\":16098:16517   */\n    tag_183:\n        /* \"#utility.yul\":16264:16268   */\n      0x00\n        /* \"#utility.yul\":16302:16304   */\n      0x20\n        /* \"#utility.yul\":16291:16300   */\n      dup3\n        /* \"#utility.yul\":16287:16305   */\n      add\n        /* \"#utility.yul\":16279:16305   */\n      swap1\n      pop\n        /* \"#utility.yul\":16351:16360   */\n      dup2\n        /* \"#utility.yul\":16345:16349   */\n      dup2\n        /* \"#utility.yul\":16341:16361   */\n      sub\n        /* \"#utility.yul\":16337:16338   */\n      0x00\n        /* \"#utility.yul\":16326:16335   */\n      dup4\n        /* \"#utility.yul\":16322:16339   */\n      add\n        /* \"#utility.yul\":16315:16362   */\n      mstore\n        /* \"#utility.yul\":16379:16510   */\n      tag_493\n        /* \"#utility.yul\":16505:16509   */\n      dup2\n        /* \"#utility.yul\":16379:16510   */\n      tag_414\n      jump\t// in\n    tag_493:\n        /* \"#utility.yul\":16371:16510   */\n      swap1\n      pop\n        /* \"#utility.yul\":16269:16517   */\n      swap2\n      swap1\n      pop\n      jump\t// out\n        /* \"#utility.yul\":16523:16942   */\n    tag_157:\n        /* \"#utility.yul\":16689:16693   */\n      0x00\n        /* \"#utility.yul\":16727:16729   */\n      0x20\n        /* \"#utility.yul\":16716:16725   */\n      dup3\n        /* \"#utility.yul\":16712:16730   */\n      add\n        /* \"#utility.yul\":16704:16730   */\n      swap1\n      pop\n        /* \"#utility.yul\":16776:16785   */\n      dup2\n        /* \"#utility.yul\":16770:16774   */\n      dup2\n        /* \"#utility.yul\":16766:16786   */\n      sub\n        /* \"#utility.yul\":16762:16763   */\n      0x00\n        /* \"#utility.yul\":16751:16760   */\n      dup4\n        /* \"#utility.yul\":16747:16764   */\n      add\n        /* \"#utility.yul\":16740:16787   */\n      mstore\n        /* \"#utility.yul\":16804:16935   */\n      tag_495\n        /* \"#utility.yul\":16930:16934   */\n      dup2\n        /* \"#utility.yul\":16804:16935   */\n      tag_419\n      jump\t// in\n    tag_495:\n        /* \"#utility.yul\":16796:16935   */\n      swap1\n      pop\n        /* \"#utility.yul\":16694:16942   */\n      swap2\n      swap1\n      pop\n      jump\t// out\n        /* \"#utility.yul\":16948:17367   */\n    tag_114:\n        /* \"#utility.yul\":17114:17118   */\n      0x00\n        /* \"#utility.yul\":17152:17154   */\n      0x20\n        /* \"#utility.yul\":17141:17150   */\n      dup3\n        /* \"#utility.yul\":17137:17155   */\n      add\n        /* \"#utility.yul\":17129:17155   */\n      swap1\n      pop\n        /* \"#utility.yul\":17201:17210   */\n      dup2\n        /* \"#utility.yul\":17195:17199   */\n      dup2\n        /* \"#utility.yul\":17191:17211   */\n      sub\n        /* \"#utility.yul\":17187:17188   */\n      0x00\n        /* \"#utility.yul\":17176:17185   */\n      dup4\n        /* \"#utility.yul\":17172:17189   */\n      add\n        /* \"#utility.yul\":17165:17212   */\n      mstore\n        /* \"#utility.yul\":17229:17360   */\n      tag_497\n        /* \"#utility.yul\":17355:17359   */\n      dup2\n        /* \"#utility.yul\":17229:17360   */\n      tag_424\n      jump\t// in\n    tag_497:\n        /* \"#utility.yul\":17221:17360   */\n      swap1\n      pop\n        /* \"#utility.yul\":17119:17367   */\n      swap2\n      swap1\n      pop\n      jump\t// out\n        /* \"#utility.yul\":17373:17792   */\n    tag_138:\n        /* \"#utility.yul\":17539:17543   */\n      0x00\n        /* \"#utility.yul\":17577:17579   */\n      0x20\n        /* \"#utility.yul\":17566:17575   */\n      dup3\n        /* \"#utility.yul\":17562:17580   */\n      add\n        /* \"#utility.yul\":17554:17580   */\n      swap1\n      pop\n        /* \"#utility.yul\":17626:17635   */\n      dup2\n        /* \"#utility.yul\":17620:17624   */\n      dup2\n        /* \"#utility.yul\":17616:17636   */\n      sub\n        /* \"#utility.yul\":17612:17613   */\n      0x00\n        /* \"#utility.yul\":17601:17610   */\n      dup4\n        /* \"#utility.yul\":17597:17614   */\n      add\n        /* \"#utility.yul\":17590:17637   */\n      mstore\n        /* \"#utility.yul\":17654:17785   */\n      tag_499\n        /* \"#utility.yul\":17780:17784   */\n      dup2\n        /* \"#utility.yul\":17654:17785   */\n      tag_429\n      jump\t// in\n    tag_499:\n        /* \"#utility.yul\":17646:17785   */\n      swap1\n      pop\n        /* \"#utility.yul\":17544:17792   */\n      swap2\n      swap1\n      pop\n      jump\t// out\n        /* \"#utility.yul\":17798:18217   */\n    tag_134:\n        /* \"#utility.yul\":17964:17968   */\n      0x00\n        /* \"#utility.yul\":18002:18004   */\n      0x20\n        /* \"#utility.yul\":17991:18000   */\n      dup3\n        /* \"#utility.yul\":17987:18005   */\n      add\n        /* \"#utility.yul\":17979:18005   */\n      swap1\n      pop\n        /* \"#utility.yul\":18051:18060   */\n      dup2\n        /* \"#utility.yul\":18045:18049   */\n      dup2\n        /* \"#utility.yul\":18041:18061   */\n      sub\n        /* \"#utility.yul\":18037:18038   */\n      0x00\n        /* \"#utility.yul\":18026:18035   */\n      dup4\n        /* \"#utility.yul\":18022:18039   */\n      add\n        /* \"#utility.yul\":18015:18062   */\n      mstore\n        /* \"#utility.yul\":18079:18210   */\n      tag_501\n        /* \"#utility.yul\":18205:18209   */\n      dup2\n        /* \"#utility.yul\":18079:18210   */\n      tag_434\n      jump\t// in\n    tag_501:\n        /* \"#utility.yul\":18071:18210   */\n      swap1\n      pop\n        /* \"#utility.yul\":17969:18217   */\n      swap2\n      swap1\n      pop\n      jump\t// out\n        /* \"#utility.yul\":18223:18642   */\n    tag_279:\n        /* \"#utility.yul\":18389:18393   */\n      0x00\n        /* \"#utility.yul\":18427:18429   */\n      0x20\n        /* \"#utility.yul\":18416:18425   */\n      dup3\n        /* \"#utility.yul\":18412:18430   */\n      add\n        /* \"#utility.yul\":18404:18430   */\n      swap1\n      pop\n        /* \"#utility.yul\":18476:18485   */\n      dup2\n        /* \"#utility.yul\":18470:18474   */\n      dup2\n        /* \"#utility.yul\":18466:18486   */\n      sub\n        /* \"#utility.yul\":18462:18463   */\n      0x00\n        /* \"#utility.yul\":18451:18460   */\n      dup4\n        /* \"#utility.yul\":18447:18464   */\n      add\n        /* \"#utility.yul\":18440:18487   */\n      mstore\n        /* \"#utility.yul\":18504:18635   */\n      tag_503\n        /* \"#utility.yul\":18630:18634   */\n      dup2\n        /* \"#utility.yul\":18504:18635   */\n      tag_439\n      jump\t// in\n    tag_503:\n        /* \"#utility.yul\":18496:18635   */\n      swap1\n      pop\n        /* \"#utility.yul\":18394:18642   */\n      swap2\n      swap1\n      pop\n      jump\t// out\n        /* \"#utility.yul\":18648:19067   */\n    tag_101:\n        /* \"#utility.yul\":18814:18818   */\n      0x00\n        /* \"#utility.yul\":18852:18854   */\n      0x20\n        /* \"#utility.yul\":18841:18850   */\n      dup3\n        /* \"#utility.yul\":18837:18855   */\n      add\n        /* \"#utility.yul\":18829:18855   */\n      swap1\n      pop\n        /* \"#utility.yul\":18901:18910   */\n      dup2\n        /* \"#utility.yul\":18895:18899   */\n      dup2\n        /* \"#utility.yul\":18891:18911   */\n      sub\n        /* \"#utility.yul\":18887:18888   */\n      0x00\n        /* \"#utility.yul\":18876:18885   */\n      dup4\n        /* \"#utility.yul\":18872:18889   */\n      add\n        /* \"#utility.yul\":18865:18912   */\n      mstore\n        /* \"#utility.yul\":18929:19060   */\n      tag_505\n        /* \"#utility.yul\":19055:19059   */\n      dup2\n        /* \"#utility.yul\":18929:19060   */\n      tag_444\n      jump\t// in\n    tag_505:\n        /* \"#utility.yul\":18921:19060   */\n      swap1\n      pop\n        /* \"#utility.yul\":18819:19067   */\n      swap2\n      swap1\n      pop\n      jump\t// out\n        /* \"#utility.yul\":19073:19492   */\n    tag_106:\n        /* \"#utility.yul\":19239:19243   */\n      0x00\n        /* \"#utility.yul\":19277:19279   */\n      0x20\n        /* \"#utility.yul\":19266:19275   */\n      dup3\n        /* \"#utility.yul\":19262:19280   */\n      add\n        /* \"#utility.yul\":19254:19280   */\n      swap1\n      pop\n        /* \"#utility.yul\":19326:19335   */\n      dup2\n        /* \"#utility.yul\":19320:19324   */\n      dup2\n        /* \"#utility.yul\":19316:19336   */\n      sub\n        /* \"#utility.yul\":19312:19313   */\n      0x00\n        /* \"#utility.yul\":19301:19310   */\n      dup4\n        /* \"#utility.yul\":19297:19314   */\n      add\n        /* \"#utility.yul\":19290:19337   */\n      mstore\n        /* \"#utility.yul\":19354:19485   */\n      tag_507\n        /* \"#utility.yul\":19480:19484   */\n      dup2\n        /* \"#utility.yul\":19354:19485   */\n      tag_449\n      jump\t// in\n    tag_507:\n        /* \"#utility.yul\":19346:19485   */\n      swap1\n      pop\n        /* \"#utility.yul\":19244:19492   */\n      swap2\n      swap1\n      pop\n      jump\t// out\n        /* \"#utility.yul\":19498:19917   */\n    tag_123:\n        /* \"#utility.yul\":19664:19668   */\n      0x00\n        /* \"#utility.yul\":19702:19704   */\n      0x20\n        /* \"#utility.yul\":19691:19700   */\n      dup3\n        /* \"#utility.yul\":19687:19705   */\n      add\n        /* \"#utility.yul\":19679:19705   */\n      swap1\n      pop\n        /* \"#utility.yul\":19751:19760   */\n      dup2\n        /* \"#utility.yul\":19745:19749   */\n      dup2\n        /* \"#utility.yul\":19741:19761   */\n      sub\n        /* \"#utility.yul\":19737:19738   */\n      0x00\n        /* \"#utility.yul\":19726:19735   */\n      dup4\n        /* \"#utility.yul\":19722:19739   */\n      add\n        /* \"#utility.yul\":19715:19762   */\n      mstore\n        /* \"#utility.yul\":19779:19910   */\n      tag_509\n        /* \"#utility.yul\":19905:19909   */\n      dup2\n        /* \"#utility.yul\":19779:19910   */\n      tag_454\n      jump\t// in\n    tag_509:\n        /* \"#utility.yul\":19771:19910   */\n      swap1\n      pop\n        /* \"#utility.yul\":19669:19917   */\n      swap2\n      swap1\n      pop\n      jump\t// out\n        /* \"#utility.yul\":19923:20342   */\n    tag_164:\n        /* \"#utility.yul\":20089:20093   */\n      0x00\n        /* \"#utility.yul\":20127:20129   */\n      0x20\n        /* \"#utility.yul\":20116:20125   */\n      dup3\n        /* \"#utility.yul\":20112:20130   */\n      add\n        /* \"#utility.yul\":20104:20130   */\n      swap1\n      pop\n        /* \"#utility.yul\":20176:20185   */\n      dup2\n        /* \"#utility.yul\":20170:20174   */\n      dup2\n        /* \"#utility.yul\":20166:20186   */\n      sub\n        /* \"#utility.yul\":20162:20163   */\n      0x00\n        /* \"#utility.yul\":20151:20160   */\n      dup4\n        /* \"#utility.yul\":20147:20164   */\n      add\n        /* \"#utility.yul\":20140:20187   */\n      mstore\n        /* \"#utility.yul\":20204:20335   */\n      tag_511\n        /* \"#utility.yul\":20330:20334   */\n      dup2\n        /* \"#utility.yul\":20204:20335   */\n      tag_459\n      jump\t// in\n    tag_511:\n        /* \"#utility.yul\":20196:20335   */\n      swap1\n      pop\n        /* \"#utility.yul\":20094:20342   */\n      swap2\n      swap1\n      pop\n      jump\t// out\n        /* \"#utility.yul\":20348:20570   */\n    tag_60:\n        /* \"#utility.yul\":20441:20445   */\n      0x00\n        /* \"#utility.yul\":20479:20481   */\n      0x20\n        /* \"#utility.yul\":20468:20477   */\n      dup3\n        /* \"#utility.yul\":20464:20482   */\n      add\n        /* \"#utility.yul\":20456:20482   */\n      swap1\n      pop\n        /* \"#utility.yul\":20492:20563   */\n      tag_513\n        /* \"#utility.yul\":20560:20561   */\n      0x00\n        /* \"#utility.yul\":20549:20558   */\n      dup4\n        /* \"#utility.yul\":20545:20562   */\n      add\n        /* \"#utility.yul\":20536:20542   */\n      dup5\n        /* \"#utility.yul\":20492:20563   */\n      tag_464\n      jump\t// in\n    tag_513:\n        /* \"#utility.yul\":20446:20570   */\n      swap3\n      swap2\n      pop\n      pop\n      jump\t// out\n        /* \"#utility.yul\":20576:20705   */\n    tag_294:\n        /* \"#utility.yul\":20610:20616   */\n      0x00\n        /* \"#utility.yul\":20637:20657   */\n      tag_515\n      tag_516\n      jump\t// in\n    tag_515:\n        /* \"#utility.yul\":20627:20657   */\n      swap1\n      pop\n        /* \"#utility.yul\":20666:20699   */\n      tag_517\n        /* \"#utility.yul\":20694:20698   */\n      dup3\n        /* \"#utility.yul\":20686:20692   */\n      dup3\n        /* \"#utility.yul\":20666:20699   */\n      tag_518\n      jump\t// in\n    tag_517:\n        /* \"#utility.yul\":20617:20705   */\n      swap2\n      swap1\n      pop\n      jump\t// out\n        /* \"#utility.yul\":20711:20786   */\n    tag_516:\n        /* \"#utility.yul\":20744:20750   */\n      0x00\n        /* \"#utility.yul\":20777:20779   */\n      0x40\n        /* \"#utility.yul\":20771:20780   */\n      mload\n        /* \"#utility.yul\":20761:20780   */\n      swap1\n      pop\n        /* \"#utility.yul\":20751:20786   */\n      swap1\n      jump\t// out\n        /* \"#utility.yul\":20792:21099   */\n    tag_293:\n        /* \"#utility.yul\":20853:20857   */\n      0x00\n        /* \"#utility.yul\":20943:20961   */\n      0xffffffffffffffff\n        /* \"#utility.yul\":20935:20941   */\n      dup3\n        /* \"#utility.yul\":20932:20962   */\n      gt\n        /* \"#utility.yul\":20929:20931   */\n      iszero\n      tag_521\n      jumpi\n        /* \"#utility.yul\":20965:20983   */\n      tag_522\n      tag_523\n      jump\t// in\n    tag_522:\n        /* \"#utility.yul\":20929:20931   */\n    tag_521:\n        /* \"#utility.yul\":21003:21032   */\n      tag_524\n        /* \"#utility.yul\":21025:21031   */\n      dup3\n        /* \"#utility.yul\":21003:21032   */\n      tag_374\n      jump\t// in\n    tag_524:\n        /* \"#utility.yul\":20995:21032   */\n      swap1\n      pop\n        /* \"#utility.yul\":21087:21091   */\n      0x20\n        /* \"#utility.yul\":21081:21085   */\n      dup2\n        /* \"#utility.yul\":21077:21092   */\n      add\n        /* \"#utility.yul\":21069:21092   */\n      swap1\n      pop\n        /* \"#utility.yul\":20858:21099   */\n      swap2\n      swap1\n      pop\n      jump\t// out\n        /* \"#utility.yul\":21105:21203   */\n    tag_368:\n        /* \"#utility.yul\":21156:21162   */\n      0x00\n        /* \"#utility.yul\":21190:21195   */\n      dup2\n        /* \"#utility.yul\":21184:21196   */\n      mload\n        /* \"#utility.yul\":21174:21196   */\n      swap1\n      pop\n        /* \"#utility.yul\":21163:21203   */\n      swap2\n      swap1\n      pop\n      jump\t// out\n        /* \"#utility.yul\":21209:21308   */\n    tag_378:\n        /* \"#utility.yul\":21261:21267   */\n      0x00\n        /* \"#utility.yul\":21295:21300   */\n      dup2\n        /* \"#utility.yul\":21289:21301   */\n      mload\n        /* \"#utility.yul\":21279:21301   */\n      swap1\n      pop\n        /* \"#utility.yul\":21268:21308   */\n      swap2\n      swap1\n      pop\n      jump\t// out\n        /* \"#utility.yul\":21314:21482   */\n    tag_370:\n        /* \"#utility.yul\":21397:21408   */\n      0x00\n        /* \"#utility.yul\":21431:21437   */\n      dup3\n        /* \"#utility.yul\":21426:21429   */\n      dup3\n        /* \"#utility.yul\":21419:21438   */\n      mstore\n        /* \"#utility.yul\":21471:21475   */\n      0x20\n        /* \"#utility.yul\":21466:21469   */\n      dup3\n        /* \"#utility.yul\":21462:21476   */\n      add\n        /* \"#utility.yul\":21447:21476   */\n      swap1\n      pop\n        /* \"#utility.yul\":21409:21482   */\n      swap3\n      swap2\n      pop\n      pop\n      jump\t// out\n        /* \"#utility.yul\":21488:21657   */\n    tag_380:\n        /* \"#utility.yul\":21572:21583   */\n      0x00\n        /* \"#utility.yul\":21606:21612   */\n      dup3\n        /* \"#utility.yul\":21601:21604   */\n      dup3\n        /* \"#utility.yul\":21594:21613   */\n      mstore\n        /* \"#utility.yul\":21646:21650   */\n      0x20\n        /* \"#utility.yul\":21641:21644   */\n      dup3\n        /* \"#utility.yul\":21637:21651   */\n      add\n        /* \"#utility.yul\":21622:21651   */\n      swap1\n      pop\n        /* \"#utility.yul\":21584:21657   */\n      swap3\n      swap2\n      pop\n      pop\n      jump\t// out\n        /* \"#utility.yul\":21663:21811   */\n    tag_387:\n        /* \"#utility.yul\":21765:21776   */\n      0x00\n        /* \"#utility.yul\":21802:21805   */\n      dup2\n        /* \"#utility.yul\":21787:21805   */\n      swap1\n      pop\n        /* \"#utility.yul\":21777:21811   */\n      swap3\n      swap2\n      pop\n      pop\n      jump\t// out\n        /* \"#utility.yul\":21817:22122   */\n    tag_203:\n        /* \"#utility.yul\":21857:21860   */\n      0x00\n        /* \"#utility.yul\":21876:21896   */\n      tag_531\n        /* \"#utility.yul\":21894:21895   */\n      dup3\n        /* \"#utility.yul\":21876:21896   */\n      tag_467\n      jump\t// in\n    tag_531:\n        /* \"#utility.yul\":21871:21896   */\n      swap2\n      pop\n        /* \"#utility.yul\":21910:21930   */\n      tag_532\n        /* \"#utility.yul\":21928:21929   */\n      dup4\n        /* \"#utility.yul\":21910:21930   */\n      tag_467\n      jump\t// in\n    tag_532:\n        /* \"#utility.yul\":21905:21930   */\n      swap3\n      pop\n        /* \"#utility.yul\":22064:22065   */\n      dup3\n        /* \"#utility.yul\":21996:22062   */\n      0xffffffffffffffffffffffffffffffffffffffffffffffffffffffffffffffff\n        /* \"#utility.yul\":21992:22066   */\n      sub\n        /* \"#utility.yul\":21989:21990   */\n      dup3\n        /* \"#utility.yul\":21986:22067   */\n      gt\n        /* \"#utility.yul\":21983:21985   */\n      iszero\n      tag_533\n      jumpi\n        /* \"#utility.yul\":22070:22088   */\n      tag_534\n      tag_535\n      jump\t// in\n    tag_534:\n        /* \"#utility.yul\":21983:21985   */\n    tag_533:\n        /* \"#utility.yul\":22114:22115   */\n      dup3\n        /* \"#utility.yul\":22111:22112   */\n      dup3\n        /* \"#utility.yul\":22107:22116   */\n      add\n        /* \"#utility.yul\":22100:22116   */\n      swap1\n      pop\n        /* \"#utility.yul\":21861:22122   */\n      swap3\n      swap2\n      pop\n      pop\n      jump\t// out\n        /* \"#utility.yul\":22128:22313   */\n    tag_235:\n        /* \"#utility.yul\":22168:22169   */\n      0x00\n        /* \"#utility.yul\":22185:22205   */\n      tag_537\n        /* \"#utility.yul\":22203:22204   */\n      dup3\n        /* \"#utility.yul\":22185:22205   */\n      tag_467\n      jump\t// in\n    tag_537:\n        /* \"#utility.yul\":22180:22205   */\n      swap2\n      pop\n        /* \"#utility.yul\":22219:22239   */\n      tag_538\n        /* \"#utility.yul\":22237:22238   */\n      dup4\n        /* \"#utility.yul\":22219:22239   */\n      tag_467\n      jump\t// in\n    tag_538:\n        /* \"#utility.yul\":22214:22239   */\n      swap3\n      pop\n        /* \"#utility.yul\":22258:22259   */\n      dup3\n        /* \"#utility.yul\":22248:22250   */\n      tag_539\n      jumpi\n        /* \"#utility.yul\":22263:22281   */\n      tag_540\n      tag_541\n      jump\t// in\n    tag_540:\n        /* \"#utility.yul\":22248:22250   */\n    tag_539:\n        /* \"#utility.yul\":22305:22306   */\n      dup3\n        /* \"#utility.yul\":22302:22303   */\n      dup3\n        /* \"#utility.yul\":22298:22307   */\n      div\n        /* \"#utility.yul\":22293:22307   */\n      swap1\n      pop\n        /* \"#utility.yul\":22170:22313   */\n      swap3\n      swap2\n      pop\n      pop\n      jump\t// out\n        /* \"#utility.yul\":22319:22510   */\n    tag_201:\n        /* \"#utility.yul\":22359:22363   */\n      0x00\n        /* \"#utility.yul\":22379:22399   */\n      tag_543\n        /* \"#utility.yul\":22397:22398   */\n      dup3\n        /* \"#utility.yul\":22379:22399   */\n      tag_467\n      jump\t// in\n    tag_543:\n        /* \"#utility.yul\":22374:22399   */\n      swap2\n      pop\n        /* \"#utility.yul\":22413:22433   */\n      tag_544\n        /* \"#utility.yul\":22431:22432   */\n      dup4\n        /* \"#utility.yul\":22413:22433   */\n      tag_467\n      jump\t// in\n    tag_544:\n        /* \"#utility.yul\":22408:22433   */\n      swap3\n      pop\n        /* \"#utility.yul\":22452:22453   */\n      dup3\n        /* \"#utility.yul\":22449:22450   */\n      dup3\n        /* \"#utility.yul\":22446:22454   */\n      lt\n        /* \"#utility.yul\":22443:22445   */\n      iszero\n      tag_545\n      jumpi\n        /* \"#utility.yul\":22457:22475   */\n      tag_546\n      tag_535\n      jump\t// in\n    tag_546:\n        /* \"#utility.yul\":22443:22445   */\n    tag_545:\n        /* \"#utility.yul\":22502:22503   */\n      dup3\n        /* \"#utility.yul\":22499:22500   */\n      dup3\n        /* \"#utility.yul\":22495:22504   */\n      sub\n        /* \"#utility.yul\":22487:22504   */\n      swap1\n      pop\n        /* \"#utility.yul\":22364:22510   */\n      swap3\n      swap2\n      pop\n      pop\n      jump\t// out\n        /* \"#utility.yul\":22516:22612   */\n    tag_360:\n        /* \"#utility.yul\":22553:22560   */\n      0x00\n        /* \"#utility.yul\":22582:22606   */\n      tag_548\n        /* \"#utility.yul\":22600:22605   */\n      dup3\n        /* \"#utility.yul\":22582:22606   */\n      tag_549\n      jump\t// in\n    tag_548:\n        /* \"#utility.yul\":22571:22606   */\n      swap1\n      pop\n        /* \"#utility.yul\":22561:22612   */\n      swap2\n      swap1\n      pop\n      jump\t// out\n        /* \"#utility.yul\":22618:22708   */\n    tag_364:\n        /* \"#utility.yul\":22652:22659   */\n      0x00\n        /* \"#utility.yul\":22695:22700   */\n      dup2\n        /* \"#utility.yul\":22688:22701   */\n      iszero\n        /* \"#utility.yul\":22681:22702   */\n      iszero\n        /* \"#utility.yul\":22670:22702   */\n      swap1\n      pop\n        /* \"#utility.yul\":22660:22708   */\n      swap2\n      swap1\n      pop\n      jump\t// out\n        /* \"#utility.yul\":22714:22863   */\n    tag_551:\n        /* \"#utility.yul\":22750:22757   */\n      0x00\n        /* \"#utility.yul\":22790:22856   */\n      0xffffffff00000000000000000000000000000000000000000000000000000000\n        /* \"#utility.yul\":22783:22788   */\n      dup3\n        /* \"#utility.yul\":22779:22857   */\n      and\n        /* \"#utility.yul\":22768:22857   */\n      swap1\n      pop\n        /* \"#utility.yul\":22758:22863   */\n      swap2\n      swap1\n      pop\n      jump\t// out\n        /* \"#utility.yul\":22869:22995   */\n    tag_549:\n        /* \"#utility.yul\":22906:22913   */\n      0x00\n        /* \"#utility.yul\":22946:22988   */\n      0xffffffffffffffffffffffffffffffffffffffff\n        /* \"#utility.yul\":22939:22944   */\n      dup3\n        /* \"#utility.yul\":22935:22989   */\n      and\n        /* \"#utility.yul\":22924:22989   */\n      swap1\n      pop\n        /* \"#utility.yul\":22914:22995   */\n      swap2\n      swap1\n      pop\n      jump\t// out\n        /* \"#utility.yul\":23001:23078   */\n    tag_467:\n        /* \"#utility.yul\":23038:23045   */\n      0x00\n        /* \"#utility.yul\":23067:23072   */\n      dup2\n        /* \"#utility.yul\":23056:23072   */\n      swap1\n      pop\n        /* \"#utility.yul\":23046:23078   */\n      swap2\n      swap1\n      pop\n      jump\t// out\n        /* \"#utility.yul\":23084:23238   */\n    tag_297:\n        /* \"#utility.yul\":23168:23174   */\n      dup3\n        /* \"#utility.yul\":23163:23166   */\n      dup2\n        /* \"#utility.yul\":23158:23161   */\n      dup4\n        /* \"#utility.yul\":23145:23175   */\n      calldatacopy\n        /* \"#utility.yul\":23230:23231   */\n      0x00\n        /* \"#utility.yul\":23221:23227   */\n      dup4\n        /* \"#utility.yul\":23216:23219   */\n      dup4\n        /* \"#utility.yul\":23212:23228   */\n      add\n        /* \"#utility.yul\":23205:23232   */\n      mstore\n        /* \"#utility.yul\":23135:23238   */\n      pop\n      pop\n      pop\n      jump\t// out\n        /* \"#utility.yul\":23244:23551   */\n    tag_372:\n        /* \"#utility.yul\":23312:23313   */\n      0x00\n        /* \"#utility.yul\":23322:23435   */\n    tag_557:\n        /* \"#utility.yul\":23336:23342   */\n      dup4\n        /* \"#utility.yul\":23333:23334   */\n      dup2\n        /* \"#utility.yul\":23330:23343   */\n      lt\n        /* \"#utility.yul\":23322:23435   */\n      iszero\n      tag_559\n      jumpi\n        /* \"#utility.yul\":23421:23422   */\n      dup1\n        /* \"#utility.yul\":23416:23419   */\n      dup3\n        /* \"#utility.yul\":23412:23423   */\n      add\n        /* \"#utility.yul\":23406:23424   */\n      mload\n        /* \"#utility.yul\":23402:23403   */\n      dup2\n        /* \"#utility.yul\":23397:23400   */\n      dup5\n        /* \"#utility.yul\":23393:23404   */\n      add\n        /* \"#utility.yul\":23386:23425   */\n      mstore\n        /* \"#utility.yul\":23358:23360   */\n      0x20\n        /* \"#utility.yul\":23355:23356   */\n      dup2\n        /* \"#utility.yul\":23351:23361   */\n      add\n        /* \"#utility.yul\":23346:23361   */\n      swap1\n      pop\n        /* \"#utility.yul\":23322:23435   */\n      jump(tag_557)\n    tag_559:\n        /* \"#utility.yul\":23453:23459   */\n      dup4\n        /* \"#utility.yul\":23450:23451   */\n      dup2\n        /* \"#utility.yul\":23447:23460   */\n      gt\n        /* \"#utility.yul\":23444:23446   */\n      iszero\n      tag_560\n      jumpi\n        /* \"#utility.yul\":23533:23534   */\n      0x00\n        /* \"#utility.yul\":23524:23530   */\n      dup5\n        /* \"#utility.yul\":23519:23522   */\n      dup5\n        /* \"#utility.yul\":23515:23531   */\n      add\n        /* \"#utility.yul\":23508:23535   */\n      mstore\n        /* \"#utility.yul\":23444:23446   */\n    tag_560:\n        /* \"#utility.yul\":23293:23551   */\n      pop\n      pop\n      pop\n      pop\n      jump\t// out\n        /* \"#utility.yul\":23557:23877   */\n    tag_91:\n        /* \"#utility.yul\":23601:23607   */\n      0x00\n        /* \"#utility.yul\":23638:23639   */\n      0x02\n        /* \"#utility.yul\":23632:23636   */\n      dup3\n        /* \"#utility.yul\":23628:23640   */\n      div\n        /* \"#utility.yul\":23618:23640   */\n      swap1\n      pop\n        /* \"#utility.yul\":23685:23686   */\n      0x01\n        /* \"#utility.yul\":23679:23683   */\n      dup3\n        /* \"#utility.yul\":23675:23687   */\n      and\n        /* \"#utility.yul\":23706:23724   */\n      dup1\n        /* \"#utility.yul\":23696:23698   */\n      tag_562\n      jumpi\n        /* \"#utility.yul\":23762:23766   */\n      0x7f\n        /* \"#utility.yul\":23754:23760   */\n      dup3\n        /* \"#utility.yul\":23750:23767   */\n      and\n        /* \"#utility.yul\":23740:23767   */\n      swap2\n      pop\n        /* \"#utility.yul\":23696:23698   */\n    tag_562:\n        /* \"#utility.yul\":23824:23826   */\n      0x20\n        /* \"#utility.yul\":23816:23822   */\n      dup3\n        /* \"#utility.yul\":23813:23827   */\n      lt\n        /* \"#utility.yul\":23793:23811   */\n      dup2\n        /* \"#utility.yul\":23790:23828   */\n      eq\n        /* \"#utility.yul\":23787:23789   */\n      iszero\n      tag_563\n      jumpi\n        /* \"#utility.yul\":23843:23861   */\n      tag_564\n      tag_565\n      jump\t// in\n    tag_564:\n        /* \"#utility.yul\":23787:23789   */\n    tag_563:\n        /* \"#utility.yul\":23608:23877   */\n      pop\n      swap2\n      swap1\n      pop\n      jump\t// out\n        /* \"#utility.yul\":23883:24164   */\n    tag_518:\n        /* \"#utility.yul\":23966:23993   */\n      tag_567\n        /* \"#utility.yul\":23988:23992   */\n      dup3\n        /* \"#utility.yul\":23966:23993   */\n      tag_374\n      jump\t// in\n    tag_567:\n        /* \"#utility.yul\":23958:23964   */\n      dup2\n        /* \"#utility.yul\":23954:23994   */\n      add\n        /* \"#utility.yul\":24096:24102   */\n      dup2\n        /* \"#utility.yul\":24084:24094   */\n      dup2\n        /* \"#utility.yul\":24081:24103   */\n      lt\n        /* \"#utility.yul\":24060:24078   */\n      0xffffffffffffffff\n        /* \"#utility.yul\":24048:24058   */\n      dup3\n        /* \"#utility.yul\":24045:24079   */\n      gt\n        /* \"#utility.yul\":24042:24104   */\n      or\n        /* \"#utility.yul\":24039:24041   */\n      iszero\n      tag_568\n      jumpi\n        /* \"#utility.yul\":24107:24125   */\n      tag_569\n      tag_523\n      jump\t// in\n    tag_569:\n        /* \"#utility.yul\":24039:24041   */\n    tag_568:\n        /* \"#utility.yul\":24147:24157   */\n      dup1\n        /* \"#utility.yul\":24143:24145   */\n      0x40\n        /* \"#utility.yul\":24136:24158   */\n      mstore\n        /* \"#utility.yul\":23926:24164   */\n      pop\n      pop\n      pop\n      jump\t// out\n        /* \"#utility.yul\":24170:24403   */\n    tag_233:\n        /* \"#utility.yul\":24209:24212   */\n      0x00\n        /* \"#utility.yul\":24232:24256   */\n      tag_571\n        /* \"#utility.yul\":24250:24255   */\n      dup3\n        /* \"#utility.yul\":24232:24256   */\n      tag_467\n      jump\t// in\n    tag_571:\n        /* \"#utility.yul\":24223:24256   */\n      swap2\n      pop\n        /* \"#utility.yul\":24278:24344   */\n      0xffffffffffffffffffffffffffffffffffffffffffffffffffffffffffffffff\n        /* \"#utility.yul\":24271:24276   */\n      dup3\n        /* \"#utility.yul\":24268:24345   */\n      eq\n        /* \"#utility.yul\":24265:24267   */\n      iszero\n      tag_572\n      jumpi\n        /* \"#utility.yul\":24348:24366   */\n      tag_573\n      tag_535\n      jump\t// in\n    tag_573:\n        /* \"#utility.yul\":24265:24267   */\n    tag_572:\n        /* \"#utility.yul\":24395:24396   */\n      0x01\n        /* \"#utility.yul\":24388:24393   */\n      dup3\n        /* \"#utility.yul\":24384:24397   */\n      add\n        /* \"#utility.yul\":24377:24397   */\n      swap1\n      pop\n        /* \"#utility.yul\":24213:24403   */\n      swap2\n      swap1\n      pop\n      jump\t// out\n        /* \"#utility.yul\":24409:24585   */\n    tag_242:\n        /* \"#utility.yul\":24441:24442   */\n      0x00\n        /* \"#utility.yul\":24458:24478   */\n      tag_575\n        /* \"#utility.yul\":24476:24477   */\n      dup3\n        /* \"#utility.yul\":24458:24478   */\n      tag_467\n      jump\t// in\n    tag_575:\n        /* \"#utility.yul\":24453:24478   */\n      swap2\n      pop\n        /* \"#utility.yul\":24492:24512   */\n      tag_576\n        /* \"#utility.yul\":24510:24511   */\n      dup4\n        /* \"#utility.yul\":24492:24512   */\n      tag_467\n      jump\t// in\n    tag_576:\n        /* \"#utility.yul\":24487:24512   */\n      swap3\n      pop\n        /* \"#utility.yul\":24531:24532   */\n      dup3\n        /* \"#utility.yul\":24521:24523   */\n      tag_577\n      jumpi\n        /* \"#utility.yul\":24536:24554   */\n      tag_578\n      tag_541\n      jump\t// in\n    tag_578:\n        /* \"#utility.yul\":24521:24523   */\n    tag_577:\n        /* \"#utility.yul\":24577:24578   */\n      dup3\n        /* \"#utility.yul\":24574:24575   */\n      dup3\n        /* \"#utility.yul\":24570:24579   */\n      mod\n        /* \"#utility.yul\":24565:24579   */\n      swap1\n      pop\n        /* \"#utility.yul\":24443:24585   */\n      swap3\n      swap2\n      pop\n      pop\n      jump\t// out\n        /* \"#utility.yul\":24591:24771   */\n    tag_535:\n        /* \"#utility.yul\":24639:24716   */\n      0x4e487b7100000000000000000000000000000000000000000000000000000000\n        /* \"#utility.yul\":24636:24637   */\n      0x00\n        /* \"#utility.yul\":24629:24717   */\n      mstore\n        /* \"#utility.yul\":24736:24740   */\n      0x11\n        /* \"#utility.yul\":24733:24734   */\n      0x04\n        /* \"#utility.yul\":24726:24741   */\n      mstore\n        /* \"#utility.yul\":24760:24764   */\n      0x24\n        /* \"#utility.yul\":24757:24758   */\n      0x00\n        /* \"#utility.yul\":24750:24765   */\n      revert\n        /* \"#utility.yul\":24777:24957   */\n    tag_541:\n        /* \"#utility.yul\":24825:24902   */\n      0x4e487b7100000000000000000000000000000000000000000000000000000000\n        /* \"#utility.yul\":24822:24823   */\n      0x00\n        /* \"#utility.yul\":24815:24903   */\n      mstore\n        /* \"#utility.yul\":24922:24926   */\n      0x12\n        /* \"#utility.yul\":24919:24920   */\n      0x04\n        /* \"#utility.yul\":24912:24927   */\n      mstore\n        /* \"#utility.yul\":24946:24950   */\n      0x24\n        /* \"#utility.yul\":24943:24944   */\n      0x00\n        /* \"#utility.yul\":24936:24951   */\n      revert\n        /* \"#utility.yul\":24963:25143   */\n    tag_565:\n        /* \"#utility.yul\":25011:25088   */\n      0x4e487b7100000000000000000000000000000000000000000000000000000000\n        /* \"#utility.yul\":25008:25009   */\n      0x00\n        /* \"#utility.yul\":25001:25089   */\n      mstore\n        /* \"#utility.yul\":25108:25112   */\n      0x22\n        /* \"#utility.yul\":25105:25106   */\n      0x04\n        /* \"#utility.yul\":25098:25113   */\n      mstore\n        /* \"#utility.yul\":25132:25136   */\n      0x24\n        /* \"#utility.yul\":25129:25130   */\n      0x00\n        /* \"#utility.yul\":25122:25137   */\n      revert\n        /* \"#utility.yul\":25149:25329   */\n    tag_523:\n        /* \"#utility.yul\":25197:25274   */\n      0x4e487b7100000000000000000000000000000000000000000000000000000000\n        /* \"#utility.yul\":25194:25195   */\n      0x00\n        /* \"#utility.yul\":25187:25275   */\n      mstore\n        /* \"#utility.yul\":25294:25298   */\n      0x41\n        /* \"#utility.yul\":25291:25292   */\n      0x04\n        /* \"#utility.yul\":25284:25299   */\n      mstore\n        /* \"#utility.yul\":25318:25322   */\n      0x24\n        /* \"#utility.yul\":25315:25316   */\n      0x00\n        /* \"#utility.yul\":25308:25323   */\n      revert\n        /* \"#utility.yul\":25335:25437   */\n    tag_374:\n        /* \"#utility.yul\":25376:25382   */\n      0x00\n        /* \"#utility.yul\":25427:25429   */\n      0x1f\n        /* \"#utility.yul\":25423:25430   */\n      not\n        /* \"#utility.yul\":25418:25420   */\n      0x1f\n        /* \"#utility.yul\":25411:25416   */\n      dup4\n        /* \"#utility.yul\":25407:25421   */\n      add\n        /* \"#utility.yul\":25403:25431   */\n      and\n        /* \"#utility.yul\":25393:25431   */\n      swap1\n      pop\n        /* \"#utility.yul\":25383:25437   */\n      swap2\n      swap1\n      pop\n      jump\t// out\n        /* \"#utility.yul\":25443:25680   */\n    tag_393:\n        /* \"#utility.yul\":25583:25617   */\n      0x4552433732313a207472616e7366657220746f206e6f6e204552433732315265\n        /* \"#utility.yul\":25579:25580   */\n      0x00\n        /* \"#utility.yul\":25571:25577   */\n      dup3\n        /* \"#utility.yul\":25567:25581   */\n      add\n        /* \"#utility.yul\":25560:25618   */\n      mstore\n        /* \"#utility.yul\":25652:25672   */\n      0x63656976657220696d706c656d656e7465720000000000000000000000000000\n        /* \"#utility.yul\":25647:25649   */\n      0x20\n        /* \"#utility.yul\":25639:25645   */\n      dup3\n        /* \"#utility.yul\":25635:25650   */\n      add\n        /* \"#utility.yul\":25628:25673   */\n      mstore\n        /* \"#utility.yul\":25549:25680   */\n      pop\n      jump\t// out\n        /* \"#utility.yul\":25686:25910   */\n    tag_398:\n        /* \"#utility.yul\":25826:25860   */\n      0x4552433732313a207472616e736665722066726f6d20696e636f727265637420\n        /* \"#utility.yul\":25822:25823   */\n      0x00\n        /* \"#utility.yul\":25814:25820   */\n      dup3\n        /* \"#utility.yul\":25810:25824   */\n      add\n        /* \"#utility.yul\":25803:25861   */\n      mstore\n        /* \"#utility.yul\":25895:25902   */\n      0x6f776e6572000000000000000000000000000000000000000000000000000000\n        /* \"#utility.yul\":25890:25892   */\n      0x20\n        /* \"#utility.yul\":25882:25888   */\n      dup3\n        /* \"#utility.yul\":25878:25893   */\n      add\n        /* \"#utility.yul\":25871:25903   */\n      mstore\n        /* \"#utility.yul\":25792:25910   */\n      pop\n      jump\t// out\n        /* \"#utility.yul\":25916:26094   */\n    tag_403:\n        /* \"#utility.yul\":26056:26086   */\n      0x4552433732313a20746f6b656e20616c7265616479206d696e74656400000000\n        /* \"#utility.yul\":26052:26053   */\n      0x00\n        /* \"#utility.yul\":26044:26050   */\n      dup3\n        /* \"#utility.yul\":26040:26054   */\n      add\n        /* \"#utility.yul\":26033:26087   */\n      mstore\n        /* \"#utility.yul\":26022:26094   */\n      pop\n      jump\t// out\n        /* \"#utility.yul\":26100:26323   */\n    tag_408:\n        /* \"#utility.yul\":26240:26274   */\n      0x4552433732313a207472616e7366657220746f20746865207a65726f20616464\n        /* \"#utility.yul\":26236:26237   */\n      0x00\n        /* \"#utility.yul\":26228:26234   */\n      dup3\n        /* \"#utility.yul\":26224:26238   */\n      add\n        /* \"#utility.yul\":26217:26275   */\n      mstore\n        /* \"#utility.yul\":26309:26315   */\n      0x7265737300000000000000000000000000000000000000000000000000000000\n        /* \"#utility.yul\":26304:26306   */\n      0x20\n        /* \"#utility.yul\":26296:26302   */\n      dup3\n        /* \"#utility.yul\":26292:26307   */\n      add\n        /* \"#utility.yul\":26285:26316   */\n      mstore\n        /* \"#utility.yul\":26206:26323   */\n      pop\n      jump\t// out\n        /* \"#utility.yul\":26329:26504   */\n    tag_413:\n        /* \"#utility.yul\":26469:26496   */\n      0x4552433732313a20617070726f766520746f2063616c6c657200000000000000\n        /* \"#utility.yul\":26465:26466   */\n      0x00\n        /* \"#utility.yul\":26457:26463   */\n      dup3\n        /* \"#utility.yul\":26453:26467   */\n      add\n        /* \"#utility.yul\":26446:26497   */\n      mstore\n        /* \"#utility.yul\":26435:26504   */\n      pop\n      jump\t// out\n        /* \"#utility.yul\":26510:26741   */\n    tag_418:\n        /* \"#utility.yul\":26650:26684   */\n      0x4552433732313a206f70657261746f7220717565727920666f72206e6f6e6578\n        /* \"#utility.yul\":26646:26647   */\n      0x00\n        /* \"#utility.yul\":26638:26644   */\n      dup3\n        /* \"#utility.yul\":26634:26648   */\n      add\n        /* \"#utility.yul\":26627:26685   */\n      mstore\n        /* \"#utility.yul\":26719:26733   */\n      0x697374656e7420746f6b656e0000000000000000000000000000000000000000\n        /* \"#utility.yul\":26714:26716   */\n      0x20\n        /* \"#utility.yul\":26706:26712   */\n      dup3\n        /* \"#utility.yul\":26702:26717   */\n      add\n        /* \"#utility.yul\":26695:26734   */\n      mstore\n        /* \"#utility.yul\":26616:26741   */\n      pop\n      jump\t// out\n        /* \"#utility.yul\":26747:26983   */\n    tag_423:\n        /* \"#utility.yul\":26887:26921   */\n      0x4552433732313a207472616e736765722063616c6c6572206973206e6f74206f\n        /* \"#utility.yul\":26883:26884   */\n      0x00\n        /* \"#utility.yul\":26875:26881   */\n      dup3\n        /* \"#utility.yul\":26871:26885   */\n      add\n        /* \"#utility.yul\":26864:26922   */\n      mstore\n        /* \"#utility.yul\":26956:26975   */\n      0x776e6572206e6f7220617070726f766564000000000000000000000000000000\n        /* \"#utility.yul\":26951:26953   */\n      0x20\n        /* \"#utility.yul\":26943:26949   */\n      dup3\n        /* \"#utility.yul\":26939:26954   */\n      add\n        /* \"#utility.yul\":26932:26976   */\n      mstore\n        /* \"#utility.yul\":26853:26983   */\n      pop\n      jump\t// out\n        /* \"#utility.yul\":26989:27232   */\n    tag_428:\n        /* \"#utility.yul\":27129:27163   */\n      0x4552433732313a20617070726f76652063616c6c6572206973206e6f74206f77\n        /* \"#utility.yul\":27125:27126   */\n      0x00\n        /* \"#utility.yul\":27117:27123   */\n      dup3\n        /* \"#utility.yul\":27113:27127   */\n      add\n        /* \"#utility.yul\":27106:27164   */\n      mstore\n        /* \"#utility.yul\":27198:27224   */\n      0x6e6572206e6f7220617070726f76656420666f7220616c6c0000000000000000\n        /* \"#utility.yul\":27193:27195   */\n      0x20\n        /* \"#utility.yul\":27185:27191   */\n      dup3\n        /* \"#utility.yul\":27181:27196   */\n      add\n        /* \"#utility.yul\":27174:27225   */\n      mstore\n        /* \"#utility.yul\":27095:27232   */\n      pop\n      jump\t// out\n        /* \"#utility.yul\":27238:27467   */\n    tag_433:\n        /* \"#utility.yul\":27378:27412   */\n      0x4552433732313a2062616c616e636520717565727920666f7220746865207a65\n        /* \"#utility.yul\":27374:27375   */\n      0x00\n        /* \"#utility.yul\":27366:27372   */\n      dup3\n        /* \"#utility.yul\":27362:27376   */\n      add\n        /* \"#utility.yul\":27355:27413   */\n      mstore\n        /* \"#utility.yul\":27447:27459   */\n      0x726f206164647265737300000000000000000000000000000000000000000000\n        /* \"#utility.yul\":27442:27444   */\n      0x20\n        /* \"#utility.yul\":27434:27440   */\n      dup3\n        /* \"#utility.yul\":27430:27445   */\n      add\n        /* \"#utility.yul\":27423:27460   */\n      mstore\n        /* \"#utility.yul\":27344:27467   */\n      pop\n      jump\t// out\n        /* \"#utility.yul\":27473:27701   */\n    tag_438:\n        /* \"#utility.yul\":27613:27647   */\n      0x4552433732313a206f776e657220717565727920666f72206e6f6e6578697374\n        /* \"#utility.yul\":27609:27610   */\n      0x00\n        /* \"#utility.yul\":27601:27607   */\n      dup3\n        /* \"#utility.yul\":27597:27611   */\n      add\n        /* \"#utility.yul\":27590:27648   */\n      mstore\n        /* \"#utility.yul\":27682:27693   */\n      0x656e7420746f6b656e0000000000000000000000000000000000000000000000\n        /* \"#utility.yul\":27677:27679   */\n      0x20\n        /* \"#utility.yul\":27669:27675   */\n      dup3\n        /* \"#utility.yul\":27665:27680   */\n      add\n        /* \"#utility.yul\":27658:27694   */\n      mstore\n        /* \"#utility.yul\":27579:27701   */\n      pop\n      jump\t// out\n        /* \"#utility.yul\":27707:27889   */\n    tag_443:\n        /* \"#utility.yul\":27847:27881   */\n      0x4552433732313a206d696e7420746f20746865207a65726f2061646472657373\n        /* \"#utility.yul\":27843:27844   */\n      0x00\n        /* \"#utility.yul\":27835:27841   */\n      dup3\n        /* \"#utility.yul\":27831:27845   */\n      add\n        /* \"#utility.yul\":27824:27882   */\n      mstore\n        /* \"#utility.yul\":27813:27889   */\n      pop\n      jump\t// out\n        /* \"#utility.yul\":27895:28126   */\n    tag_448:\n        /* \"#utility.yul\":28035:28069   */\n      0x4552433732313a20617070726f76656420717565727920666f72206e6f6e6578\n        /* \"#utility.yul\":28031:28032   */\n      0x00\n        /* \"#utility.yul\":28023:28029   */\n      dup3\n        /* \"#utility.yul\":28019:28033   */\n      add\n        /* \"#utility.yul\":28012:28070   */\n      mstore\n        /* \"#utility.yul\":28104:28118   */\n      0x697374656e7420746f6b656e0000000000000000000000000000000000000000\n        /* \"#utility.yul\":28099:28101   */\n      0x20\n        /* \"#utility.yul\":28091:28097   */\n      dup3\n        /* \"#utility.yul\":28087:28102   */\n      add\n        /* \"#utility.yul\":28080:28119   */\n      mstore\n        /* \"#utility.yul\":28001:28126   */\n      pop\n      jump\t// out\n        /* \"#utility.yul\":28132:28352   */\n    tag_453:\n        /* \"#utility.yul\":28272:28306   */\n      0x4552433732313a20617070726f76616c20746f2063757272656e74206f776e65\n        /* \"#utility.yul\":28268:28269   */\n      0x00\n        /* \"#utility.yul\":28260:28266   */\n      dup3\n        /* \"#utility.yul\":28256:28270   */\n      add\n        /* \"#utility.yul\":28249:28307   */\n      mstore\n        /* \"#utility.yul\":28341:28344   */\n      0x7200000000000000000000000000000000000000000000000000000000000000\n        /* \"#utility.yul\":28336:28338   */\n      0x20\n        /* \"#utility.yul\":28328:28334   */\n      dup3\n        /* \"#utility.yul\":28324:28339   */\n      add\n        /* \"#utility.yul\":28317:28345   */\n      mstore\n        /* \"#utility.yul\":28238:28352   */\n      pop\n      jump\t// out\n        /* \"#utility.yul\":28358:28594   */\n    tag_458:\n        /* \"#utility.yul\":28498:28532   */\n      0x4552433732313a207472616e736665722063616c6c6572206973206e6f74206f\n        /* \"#utility.yul\":28494:28495   */\n      0x00\n        /* \"#utility.yul\":28486:28492   */\n      dup3\n        /* \"#utility.yul\":28482:28496   */\n      add\n        /* \"#utility.yul\":28475:28533   */\n      mstore\n        /* \"#utility.yul\":28567:28586   */\n      0x776e6572206e6f7220617070726f766564000000000000000000000000000000\n        /* \"#utility.yul\":28562:28564   */\n      0x20\n        /* \"#utility.yul\":28554:28560   */\n      dup3\n        /* \"#utility.yul\":28550:28565   */\n      add\n        /* \"#utility.yul\":28543:28587   */\n      mstore\n        /* \"#utility.yul\":28464:28594   */\n      pop\n      jump\t// out\n        /* \"#utility.yul\":28600:28834   */\n    tag_463:\n        /* \"#utility.yul\":28740:28774   */\n      0x4552433732314d657461646174653a2055524920717565727920666f72206e6f\n        /* \"#utility.yul\":28736:28737   */\n      0x00\n        /* \"#utility.yul\":28728:28734   */\n      dup3\n        /* \"#utility.yul\":28724:28738   */\n      add\n        /* \"#utility.yul\":28717:28775   */\n      mstore\n        /* \"#utility.yul\":28809:28826   */\n      0x6e6578697374656e7420746f6b656e0000000000000000000000000000000000\n        /* \"#utility.yul\":28804:28806   */\n      0x20\n        /* \"#utility.yul\":28796:28802   */\n      dup3\n        /* \"#utility.yul\":28792:28807   */\n      add\n        /* \"#utility.yul\":28785:28827   */\n      mstore\n        /* \"#utility.yul\":28706:28834   */\n      pop\n      jump\t// out\n        /* \"#utility.yul\":28840:28962   */\n    tag_301:\n        /* \"#utility.yul\":28913:28937   */\n      tag_600\n        /* \"#utility.yul\":28931:28936   */\n      dup2\n        /* \"#utility.yul\":28913:28937   */\n      tag_360\n      jump\t// in\n    tag_600:\n        /* \"#utility.yul\":28906:28911   */\n      dup2\n        /* \"#utility.yul\":28903:28938   */\n      eq\n        /* \"#utility.yul\":28893:28895   */\n      tag_601\n      jumpi\n        /* \"#utility.yul\":28952:28953   */\n      0x00\n        /* \"#utility.yul\":28949:28950   */\n      dup1\n        /* \"#utility.yul\":28942:28954   */\n      revert\n        /* \"#utility.yul\":28893:28895   */\n    tag_601:\n        /* \"#utility.yul\":28883:28962   */\n      pop\n      jump\t// out\n        /* \"#utility.yul\":28968:29084   */\n    tag_305:\n        /* \"#utility.yul\":29038:29059   */\n      tag_603\n        /* \"#utility.yul\":29053:29058   */\n      dup2\n        /* \"#utility.yul\":29038:29059   */\n      tag_364\n      jump\t// in\n    tag_603:\n        /* \"#utility.yul\":29031:29036   */\n      dup2\n        /* \"#utility.yul\":29028:29060   */\n      eq\n        /* \"#utility.yul\":29018:29020   */\n      tag_604\n      jumpi\n        /* \"#utility.yul\":29074:29075   */\n      0x00\n        /* \"#utility.yul\":29071:29072   */\n      dup1\n        /* \"#utility.yul\":29064:29076   */\n      revert\n        /* \"#utility.yul\":29018:29020   */\n    tag_604:\n        /* \"#utility.yul\":29008:29084   */\n      pop\n      jump\t// out\n        /* \"#utility.yul\":29090:29210   */\n    tag_309:\n        /* \"#utility.yul\":29162:29185   */\n      tag_606\n        /* \"#utility.yul\":29179:29184   */\n      dup2\n        /* \"#utility.yul\":29162:29185   */\n      tag_551\n      jump\t// in\n    tag_606:\n        /* \"#utility.yul\":29155:29160   */\n      dup2\n        /* \"#utility.yul\":29152:29186   */\n      eq\n        /* \"#utility.yul\":29142:29144   */\n      tag_607\n      jumpi\n        /* \"#utility.yul\":29200:29201   */\n      0x00\n        /* \"#utility.yul\":29197:29198   */\n      dup1\n        /* \"#utility.yul\":29190:29202   */\n      revert\n        /* \"#utility.yul\":29142:29144   */\n    tag_607:\n        /* \"#utility.yul\":29132:29210   */\n      pop\n      jump\t// out\n        /* \"#utility.yul\":29216:29338   */\n    tag_320:\n        /* \"#utility.yul\":29289:29313   */\n      tag_609\n        /* \"#utility.yul\":29307:29312   */\n      dup2\n        /* \"#utility.yul\":29289:29313   */\n      tag_467\n      jump\t// in\n    tag_609:\n        /* \"#utility.yul\":29282:29287   */\n      dup2\n        /* \"#utility.yul\":29279:29314   */\n      eq\n        /* \"#utility.yul\":29269:29271   */\n      tag_610\n      jumpi\n        /* \"#utility.yul\":29328:29329   */\n      0x00\n        /* \"#utility.yul\":29325:29326   */\n      dup1\n        /* \"#utility.yul\":29318:29330   */\n      revert\n        /* \"#utility.yul\":29269:29271   */\n    tag_610:\n        /* \"#utility.yul\":29259:29338   */\n      pop\n      jump\t// out\n\n    auxdata: 0xa264697066735822122011dda2f75d217c92ad1a2ce3f9c8597970c881fbdf5008f5959c9a19ed32c1de64736f6c63430008040033\n}\n",
				"bytecode": {
					"linkReferences": {},
					"object": "60806040523480156200001157600080fd5b506040518060400160405280600481526020017f4c414e44000000000000000000000000000000000000000000000000000000008152506040518060400160405280600281526020017f4c44000000000000000000000000000000000000000000000000000000000000815250816000908051906020019062000096929190620000b8565b508060019080519060200190620000af929190620000b8565b505050620001cd565b828054620000c69062000168565b90600052602060002090601f016020900481019282620000ea576000855562000136565b82601f106200010557805160ff191683800117855562000136565b8280016001018555821562000136579182015b828111156200013557825182559160200191906001019062000118565b5b50905062000145919062000149565b5090565b5b80821115620001645760008160009055506001016200014a565b5090565b600060028204905060018216806200018157607f821691505b602082108114156200019857620001976200019e565b5b50919050565b7f4e487b7100000000000000000000000000000000000000000000000000000000600052602260045260246000fd5b6128fe80620001dd6000396000f3fe608060405234801561001057600080fd5b50600436106100f55760003560e01c80636352211e11610097578063a22cb46511610066578063a22cb46514610282578063b88d4fde1461029e578063c87b56dd146102ba578063e985e9c5146102ea576100f5565b80636352211e146101e857806370a082311461021857806395d89b4114610248578063a0712d6814610266576100f5565b8063095ea7b3116100d3578063095ea7b31461017857806323b872dd1461019457806342842e0e146101b057806342966c68146101cc576100f5565b806301ffc9a7146100fa57806306fdde031461012a578063081812fc14610148575b600080fd5b610114600480360381019061010f9190611a6e565b61031a565b6040516101219190611e51565b60405180910390f35b6101326103fc565b60405161013f9190611e6c565b60405180910390f35b610162600480360381019061015d9190611ac0565b61048e565b60405161016f9190611dea565b60405180910390f35b610192600480360381019061018d9190611a32565b610513565b005b6101ae60048036038101906101a9919061192c565b61062b565b005b6101ca60048036038101906101c5919061192c565b61068b565b005b6101e660048036038101906101e19190611ac0565b61069b565b005b61020260048036038101906101fd9190611ac0565b6106a7565b60405161020f9190611dea565b60405180910390f35b610232600480360381019061022d91906118c7565b610759565b60405161023f919061206e565b60405180910390f35b610250610811565b60405161025d9190611e6c565b60405180910390f35b610280600480360381019061027b9190611ac0565b6108a3565b005b61029c600480360381019061029791906119f6565b6108b6565b005b6102b860048036038101906102b3919061197b565b6108cc565b005b6102d460048036038101906102cf9190611ac0565b61092e565b6040516102e19190611e6c565b60405180910390f35b61030460048036038101906102ff91906118f0565b6109d5565b6040516103119190611e51565b60405180910390f35b60007f80ac58cd000000000000000000000000000000000000000000000000000000007bffffffffffffffffffffffffffffffffffffffffffffffffffffffff1916827bffffffffffffffffffffffffffffffffffffffffffffffffffffffff191614806103e557507f5b5e139f000000000000000000000000000000000000000000000000000000007bffffffffffffffffffffffffffffffffffffffffffffffffffffffff1916827bffffffffffffffffffffffffffffffffffffffffffffffffffffffff1916145b806103f557506103f482610a69565b5b9050919050565b60606000805461040b90612293565b80601f016020809104026020016040519081016040528092919081815260200182805461043790612293565b80156104845780601f1061045957610100808354040283529160200191610484565b820191906000526020600020905b81548152906001019060200180831161046757829003601f168201915b5050505050905090565b600061049982610ad3565b6104d8576040517f08c379a00000000000000000000000000000000000000000000000000000000081526004016104cf90611fee565b60405180910390fd5b6004600083815260200190815260200160002060009054906101000a900473ffffffffffffffffffffffffffffffffffffffff169050919050565b600061051e826106a7565b90508073ffffffffffffffffffffffffffffffffffffffff168373ffffffffffffffffffffffffffffffffffffffff16141561058f576040517f08c379a00000000000000000000000000000000000000000000000000000000081526004016105869061200e565b60405180910390fd5b8073ffffffffffffffffffffffffffffffffffffffff166105ae610b3f565b73ffffffffffffffffffffffffffffffffffffffff1614806105dd57506105dc816105d7610b3f565b6109d5565b5b61061c576040517f08c379a000000000000000000000000000000000000000000000000000000000815260040161061390611f6e565b60405180910390fd5b6106268383610b47565b505050565b61063c610636610b3f565b82610c00565b61067b576040517f08c379a00000000000000000000000000000000000000000000000000000000081526004016106729061202e565b60405180910390fd5b610686838383610cde565b505050565b61069683838361068b565b505050565b6106a481610f45565b50565b6000806002600084815260200190815260200160002060009054906101000a900473ffffffffffffffffffffffffffffffffffffffff169050600073ffffffffffffffffffffffffffffffffffffffff168173ffffffffffffffffffffffffffffffffffffffff161415610750576040517f08c379a000000000000000000000000000000000000000000000000000000000815260040161074790611fae565b60405180910390fd5b80915050919050565b60008073ffffffffffffffffffffffffffffffffffffffff168273ffffffffffffffffffffffffffffffffffffffff1614156107ca576040517f08c379a00000000000000000000000000000000000000000000000000000000081526004016107c190611f8e565b60405180910390fd5b600360008373ffffffffffffffffffffffffffffffffffffffff1673ffffffffffffffffffffffffffffffffffffffff168152602001908152602001600020549050919050565b60606001805461082090612293565b80601f016020809104026020016040519081016040528092919081815260200182805461084c90612293565b80156108995780601f1061086e57610100808354040283529160200191610899565b820191906000526020600020905b81548152906001019060200180831161087c57829003601f168201915b5050505050905090565b60008190506108b23382611062565b5050565b6108c86108c1610b3f565b8383611080565b5050565b6108dd6108d7610b3f565b83610c00565b61091c576040517f08c379a000000000000000000000000000000000000000000000000000000000815260040161091390611f4e565b60405180910390fd5b610928848484846111ed565b50505050565b606061093982610ad3565b610978576040517f08c379a000000000000000000000000000000000000000000000000000000000815260040161096f9061204e565b60405180910390fd5b6000610982611249565b905060008151116109a257604051806020016040528060008152506109cd565b806109ac84611260565b6040516020016109bd929190611dc6565b6040516020818303038152906040525b915050919050565b6000600560008473ffffffffffffffffffffffffffffffffffffffff1673ffffffffffffffffffffffffffffffffffffffff16815260200190815260200160002060008373ffffffffffffffffffffffffffffffffffffffff1673ffffffffffffffffffffffffffffffffffffffff16815260200190815260200160002060009054906101000a900460ff16905092915050565b60007f01ffc9a7000000000000000000000000000000000000000000000000000000007bffffffffffffffffffffffffffffffffffffffffffffffffffffffff1916827bffffffffffffffffffffffffffffffffffffffffffffffffffffffff1916149050919050565b60008073ffffffffffffffffffffffffffffffffffffffff166002600084815260200190815260200160002060009054906101000a900473ffffffffffffffffffffffffffffffffffffffff1673ffffffffffffffffffffffffffffffffffffffff1614159050919050565b600033905090565b816004600083815260200190815260200160002060006101000a81548173ffffffffffffffffffffffffffffffffffffffff021916908373ffffffffffffffffffffffffffffffffffffffff160217905550808273ffffffffffffffffffffffffffffffffffffffff16610bba836106a7565b73ffffffffffffffffffffffffffffffffffffffff167f8c5be1e5ebec7d5bd14f71427d1e84f3dd0314c0f7b2291e5b200ac8c7c3b92560405160405180910390a45050565b6000610c0b82610ad3565b610c4a576040517f08c379a0000000000000000000000000000000000000000000000000000000008152600401610c4190611f2e565b60405180910390fd5b6000610c55836106a7565b90508073ffffffffffffffffffffffffffffffffffffffff168473ffffffffffffffffffffffffffffffffffffffff161480610c975750610c9681856109d5565b5b80610cd557508373ffffffffffffffffffffffffffffffffffffffff16610cbd8461048e565b73ffffffffffffffffffffffffffffffffffffffff16145b91505092915050565b8273ffffffffffffffffffffffffffffffffffffffff16610cfe826106a7565b73ffffffffffffffffffffffffffffffffffffffff1614610d54576040517f08c379a0000000000000000000000000000000000000000000000000000000008152600401610d4b90611eae565b60405180910390fd5b600073ffffffffffffffffffffffffffffffffffffffff168273ffffffffffffffffffffffffffffffffffffffff161415610dc4576040517f08c379a0000000000000000000000000000000000000000000000000000000008152600401610dbb90611eee565b60405180910390fd5b610dcf83838361140d565b610dda600082610b47565b6001600360008573ffffffffffffffffffffffffffffffffffffffff1673ffffffffffffffffffffffffffffffffffffffff1681526020019081526020016000206000828254610e2a91906121a9565b925050819055506001600360008473ffffffffffffffffffffffffffffffffffffffff1673ffffffffffffffffffffffffffffffffffffffff1681526020019081526020016000206000828254610e819190612122565b92505081905550816002600083815260200190815260200160002060006101000a81548173ffffffffffffffffffffffffffffffffffffffff021916908373ffffffffffffffffffffffffffffffffffffffff160217905550808273ffffffffffffffffffffffffffffffffffffffff168473ffffffffffffffffffffffffffffffffffffffff167fddf252ad1be2c89b69c2b068fc378daa952ba7f163c4a11628f55a4df523b3ef60405160405180910390a4610f40838383611412565b505050565b6000610f50826106a7565b9050610f5e8160008461140d565b610f69600083610b47565b6001600360008373ffffffffffffffffffffffffffffffffffffffff1673ffffffffffffffffffffffffffffffffffffffff1681526020019081526020016000206000828254610fb991906121a9565b925050819055506002600083815260200190815260200160002060006101000a81549073ffffffffffffffffffffffffffffffffffffffff021916905581600073ffffffffffffffffffffffffffffffffffffffff168273ffffffffffffffffffffffffffffffffffffffff167fddf252ad1be2c89b69c2b068fc378daa952ba7f163c4a11628f55a4df523b3ef60405160405180910390a461105e81600084611412565b5050565b61107c828260405180602001604052806000815250611417565b5050565b8173ffffffffffffffffffffffffffffffffffffffff168373ffffffffffffffffffffffffffffffffffffffff1614156110ef576040517f08c379a00000000000000000000000000000000000000000000000000000000081526004016110e690611f0e565b60405180910390fd5b80600560008573ffffffffffffffffffffffffffffffffffffffff1673ffffffffffffffffffffffffffffffffffffffff16815260200190815260200160002060008473ffffffffffffffffffffffffffffffffffffffff1673ffffffffffffffffffffffffffffffffffffffff16815260200190815260200160002060006101000a81548160ff0219169083151502179055508173ffffffffffffffffffffffffffffffffffffffff168373ffffffffffffffffffffffffffffffffffffffff167f17307eab39ab6107e8899845ad3d59bd9653f200f220920489ca2b5937696c31836040516111e09190611e51565b60405180910390a3505050565b6111f8848484610cde565b61120484848484611472565b611243576040517f08c379a000000000000000000000000000000000000000000000000000000000815260040161123a90611e8e565b60405180910390fd5b50505050565b606060405180602001604052806000815250905090565b606060008214156112a8576040518060400160405280600181526020017f30000000000000000000000000000000000000000000000000000000000000008152509050611408565b600082905060005b600082146112da5780806112c3906122f6565b915050600a826112d39190612178565b91506112b0565b60008167ffffffffffffffff81111561131c577f4e487b7100000000000000000000000000000000000000000000000000000000600052604160045260246000fd5b6040519080825280601f01601f19166020018201604052801561134e5781602001600182028036833780820191505090505b5090505b600085146114015760018261136791906121a9565b9150600a85611376919061233f565b60306113829190612122565b60f81b8183815181106113be577f4e487b7100000000000000000000000000000000000000000000000000000000600052603260045260246000fd5b60200101907effffffffffffffffffffffffffffffffffffffffffffffffffffffffffffff1916908160001a905350600a856113fa9190612178565b9450611352565b8093505050505b919050565b505050565b505050565b6114218383611609565b61142e6000848484611472565b61146d576040517f08c379a000000000000000000000000000000000000000000000000000000000815260040161146490611e8e565b60405180910390fd5b505050565b60006114938473ffffffffffffffffffffffffffffffffffffffff166117e3565b156115fc578373ffffffffffffffffffffffffffffffffffffffff1663150b7a026114bc610b3f565b8786866040518563ffffffff1660e01b81526004016114de9493929190611e05565b602060405180830381600087803b1580156114f857600080fd5b505af192505050801561152957506040513d601f19601f820116820180604052508101906115269190611a97565b60015b6115ac573d8060008114611559576040519150601f19603f3d011682016040523d82523d6000602084013e61155e565b606091505b506000815114156115a4576040517f08c379a000000000000000000000000000000000000000000000000000000000815260040161159b90611e8e565b60405180910390fd5b805181602001fd5b63150b7a0260e01b7bffffffffffffffffffffffffffffffffffffffffffffffffffffffff1916817bffffffffffffffffffffffffffffffffffffffffffffffffffffffff191614915050611601565b600190505b949350505050565b600073ffffffffffffffffffffffffffffffffffffffff168273ffffffffffffffffffffffffffffffffffffffff161415611679576040517f08c379a000000000000000000000000000000000000000000000000000000000815260040161167090611fce565b60405180910390fd5b61168281610ad3565b156116c2576040517f08c379a00000000000000000000000000000000000000000000000000000000081526004016116b990611ece565b60405180910390fd5b6116ce6000838361140d565b6001600360008473ffffffffffffffffffffffffffffffffffffffff1673ffffffffffffffffffffffffffffffffffffffff168152602001908152602001600020600082825461171e9190612122565b92505081905550816002600083815260200190815260200160002060006101000a81548173ffffffffffffffffffffffffffffffffffffffff021916908373ffffffffffffffffffffffffffffffffffffffff160217905550808273ffffffffffffffffffffffffffffffffffffffff16600073ffffffffffffffffffffffffffffffffffffffff167fddf252ad1be2c89b69c2b068fc378daa952ba7f163c4a11628f55a4df523b3ef60405160405180910390a46117df60008383611412565b5050565b600080823b905060008111915050919050565b6000611809611804846120ae565b612089565b90508281526020810184848401111561182157600080fd5b61182c848285612251565b509392505050565b6000813590506118438161286c565b92915050565b60008135905061185881612883565b92915050565b60008135905061186d8161289a565b92915050565b6000815190506118828161289a565b92915050565b600082601f83011261189957600080fd5b81356118a98482602086016117f6565b91505092915050565b6000813590506118c1816128b1565b92915050565b6000602082840312156118d957600080fd5b60006118e784828501611834565b91505092915050565b6000806040838503121561190357600080fd5b600061191185828601611834565b925050602061192285828601611834565b9150509250929050565b60008060006060848603121561194157600080fd5b600061194f86828701611834565b935050602061196086828701611834565b9250506040611971868287016118b2565b9150509250925092565b6000806000806080858703121561199157600080fd5b600061199f87828801611834565b94505060206119b087828801611834565b93505060406119c1878288016118b2565b925050606085013567ffffffffffffffff8111156119de57600080fd5b6119ea87828801611888565b91505092959194509250565b60008060408385031215611a0957600080fd5b6000611a1785828601611834565b9250506020611a2885828601611849565b9150509250929050565b60008060408385031215611a4557600080fd5b6000611a5385828601611834565b9250506020611a64858286016118b2565b9150509250929050565b600060208284031215611a8057600080fd5b6000611a8e8482850161185e565b91505092915050565b600060208284031215611aa957600080fd5b6000611ab784828501611873565b91505092915050565b600060208284031215611ad257600080fd5b6000611ae0848285016118b2565b91505092915050565b611af2816121dd565b82525050565b611b01816121ef565b82525050565b6000611b12826120df565b611b1c81856120f5565b9350611b2c818560208601612260565b611b358161242c565b840191505092915050565b6000611b4b826120ea565b611b558185612106565b9350611b65818560208601612260565b611b6e8161242c565b840191505092915050565b6000611b84826120ea565b611b8e8185612117565b9350611b9e818560208601612260565b80840191505092915050565b6000611bb7603283612106565b9150611bc28261243d565b604082019050919050565b6000611bda602583612106565b9150611be58261248c565b604082019050919050565b6000611bfd601c83612106565b9150611c08826124db565b602082019050919050565b6000611c20602483612106565b9150611c2b82612504565b604082019050919050565b6000611c43601983612106565b9150611c4e82612553565b602082019050919050565b6000611c66602c83612106565b9150611c718261257c565b604082019050919050565b6000611c89603183612106565b9150611c94826125cb565b604082019050919050565b6000611cac603883612106565b9150611cb78261261a565b604082019050919050565b6000611ccf602a83612106565b9150611cda82612669565b604082019050919050565b6000611cf2602983612106565b9150611cfd826126b8565b604082019050919050565b6000611d15602083612106565b9150611d2082612707565b602082019050919050565b6000611d38602c83612106565b9150611d4382612730565b604082019050919050565b6000611d5b602183612106565b9150611d668261277f565b604082019050919050565b6000611d7e603183612106565b9150611d89826127ce565b604082019050919050565b6000611da1602f83612106565b9150611dac8261281d565b604082019050919050565b611dc081612247565b82525050565b6000611dd28285611b79565b9150611dde8284611b79565b91508190509392505050565b6000602082019050611dff6000830184611ae9565b92915050565b6000608082019050611e1a6000830187611ae9565b611e276020830186611ae9565b611e346040830185611db7565b8181036060830152611e468184611b07565b905095945050505050565b6000602082019050611e666000830184611af8565b92915050565b60006020820190508181036000830152611e868184611b40565b905092915050565b60006020820190508181036000830152611ea781611baa565b9050919050565b60006020820190508181036000830152611ec781611bcd565b9050919050565b60006020820190508181036000830152611ee781611bf0565b9050919050565b60006020820190508181036000830152611f0781611c13565b9050919050565b60006020820190508181036000830152611f2781611c36565b9050919050565b60006020820190508181036000830152611f4781611c59565b9050919050565b60006020820190508181036000830152611f6781611c7c565b9050919050565b60006020820190508181036000830152611f8781611c9f565b9050919050565b60006020820190508181036000830152611fa781611cc2565b9050919050565b60006020820190508181036000830152611fc781611ce5565b9050919050565b60006020820190508181036000830152611fe781611d08565b9050919050565b6000602082019050818103600083015261200781611d2b565b9050919050565b6000602082019050818103600083015261202781611d4e565b9050919050565b6000602082019050818103600083015261204781611d71565b9050919050565b6000602082019050818103600083015261206781611d94565b9050919050565b60006020820190506120836000830184611db7565b92915050565b60006120936120a4565b905061209f82826122c5565b919050565b6000604051905090565b600067ffffffffffffffff8211156120c9576120c86123fd565b5b6120d28261242c565b9050602081019050919050565b600081519050919050565b600081519050919050565b600082825260208201905092915050565b600082825260208201905092915050565b600081905092915050565b600061212d82612247565b915061213883612247565b9250827fffffffffffffffffffffffffffffffffffffffffffffffffffffffffffffffff0382111561216d5761216c612370565b5b828201905092915050565b600061218382612247565b915061218e83612247565b92508261219e5761219d61239f565b5b828204905092915050565b60006121b482612247565b91506121bf83612247565b9250828210156121d2576121d1612370565b5b828203905092915050565b60006121e882612227565b9050919050565b60008115159050919050565b60007fffffffff0000000000000000000000000000000000000000000000000000000082169050919050565b600073ffffffffffffffffffffffffffffffffffffffff82169050919050565b6000819050919050565b82818337600083830152505050565b60005b8381101561227e578082015181840152602081019050612263565b8381111561228d576000848401525b50505050565b600060028204905060018216806122ab57607f821691505b602082108114156122bf576122be6123ce565b5b50919050565b6122ce8261242c565b810181811067ffffffffffffffff821117156122ed576122ec6123fd565b5b80604052505050565b600061230182612247565b91507fffffffffffffffffffffffffffffffffffffffffffffffffffffffffffffffff82141561233457612333612370565b5b600182019050919050565b600061234a82612247565b915061235583612247565b9250826123655761236461239f565b5b828206905092915050565b7f4e487b7100000000000000000000000000000000000000000000000000000000600052601160045260246000fd5b7f4e487b7100000000000000000000000000000000000000000000000000000000600052601260045260246000fd5b7f4e487b7100000000000000000000000000000000000000000000000000000000600052602260045260246000fd5b7f4e487b7100000000000000000000000000000000000000000000000000000000600052604160045260246000fd5b6000601f19601f8301169050919050565b7f4552433732313a207472616e7366657220746f206e6f6e20455243373231526560008201527f63656976657220696d706c656d656e7465720000000000000000000000000000602082015250565b7f4552433732313a207472616e736665722066726f6d20696e636f72726563742060008201527f6f776e6572000000000000000000000000000000000000000000000000000000602082015250565b7f4552433732313a20746f6b656e20616c7265616479206d696e74656400000000600082015250565b7f4552433732313a207472616e7366657220746f20746865207a65726f2061646460008201527f7265737300000000000000000000000000000000000000000000000000000000602082015250565b7f4552433732313a20617070726f766520746f2063616c6c657200000000000000600082015250565b7f4552433732313a206f70657261746f7220717565727920666f72206e6f6e657860008201527f697374656e7420746f6b656e0000000000000000000000000000000000000000602082015250565b7f4552433732313a207472616e736765722063616c6c6572206973206e6f74206f60008201527f776e6572206e6f7220617070726f766564000000000000000000000000000000602082015250565b7f4552433732313a20617070726f76652063616c6c6572206973206e6f74206f7760008201527f6e6572206e6f7220617070726f76656420666f7220616c6c0000000000000000602082015250565b7f4552433732313a2062616c616e636520717565727920666f7220746865207a6560008201527f726f206164647265737300000000000000000000000000000000000000000000602082015250565b7f4552433732313a206f776e657220717565727920666f72206e6f6e657869737460008201527f656e7420746f6b656e0000000000000000000000000000000000000000000000602082015250565b7f4552433732313a206d696e7420746f20746865207a65726f2061646472657373600082015250565b7f4552433732313a20617070726f76656420717565727920666f72206e6f6e657860008201527f697374656e7420746f6b656e0000000000000000000000000000000000000000602082015250565b7f4552433732313a20617070726f76616c20746f2063757272656e74206f776e6560008201527f7200000000000000000000000000000000000000000000000000000000000000602082015250565b7f4552433732313a207472616e736665722063616c6c6572206973206e6f74206f60008201527f776e6572206e6f7220617070726f766564000000000000000000000000000000602082015250565b7f4552433732314d657461646174653a2055524920717565727920666f72206e6f60008201527f6e6578697374656e7420746f6b656e0000000000000000000000000000000000602082015250565b612875816121dd565b811461288057600080fd5b50565b61288c816121ef565b811461289757600080fd5b50565b6128a3816121fb565b81146128ae57600080fd5b50565b6128ba81612247565b81146128c557600080fd5b5056fea264697066735822122011dda2f75d217c92ad1a2ce3f9c8597970c881fbdf5008f5959c9a19ed32c1de64736f6c63430008040033",
					"opcodes": "PUSH1 0x80 PUSH1 0x40 MSTORE CALLVALUE DUP1 ISZERO PUSH3 0x11 JUMPI PUSH1 0x0 DUP1 REVERT JUMPDEST POP PUSH1 0x40 MLOAD DUP1 PUSH1 0x40 ADD PUSH1 0x40 MSTORE DUP1 PUSH1 0x4 DUP2 MSTORE PUSH1 0x20 ADD PUSH32 0x4C414E4400000000000000000000000000000000000000000000000000000000 DUP2 MSTORE POP PUSH1 0x40 MLOAD DUP1 PUSH1 0x40 ADD PUSH1 0x40 MSTORE DUP1 PUSH1 0x2 DUP2 MSTORE PUSH1 0x20 ADD PUSH32 0x4C44000000000000000000000000000000000000000000000000000000000000 DUP2 MSTORE POP DUP2 PUSH1 0x0 SWAP1 DUP1 MLOAD SWAP1 PUSH1 0x20 ADD SWAP1 PUSH3 0x96 SWAP3 SWAP2 SWAP1 PUSH3 0xB8 JUMP JUMPDEST POP DUP1 PUSH1 0x1 SWAP1 DUP1 MLOAD SWAP1 PUSH1 0x20 ADD SWAP1 PUSH3 0xAF SWAP3 SWAP2 SWAP1 PUSH3 0xB8 JUMP JUMPDEST POP POP POP PUSH3 0x1CD JUMP JUMPDEST DUP3 DUP1 SLOAD PUSH3 0xC6 SWAP1 PUSH3 0x168 JUMP JUMPDEST SWAP1 PUSH1 0x0 MSTORE PUSH1 0x20 PUSH1 0x0 KECCAK256 SWAP1 PUSH1 0x1F ADD PUSH1 0x20 SWAP1 DIV DUP2 ADD SWAP3 DUP3 PUSH3 0xEA JUMPI PUSH1 0x0 DUP6 SSTORE PUSH3 0x136 JUMP JUMPDEST DUP3 PUSH1 0x1F LT PUSH3 0x105 JUMPI DUP1 MLOAD PUSH1 0xFF NOT AND DUP4 DUP1 ADD OR DUP6 SSTORE PUSH3 0x136 JUMP JUMPDEST DUP3 DUP1 ADD PUSH1 0x1 ADD DUP6 SSTORE DUP3 ISZERO PUSH3 0x136 JUMPI SWAP2 DUP3 ADD JUMPDEST DUP3 DUP2 GT ISZERO PUSH3 0x135 JUMPI DUP3 MLOAD DUP3 SSTORE SWAP2 PUSH1 0x20 ADD SWAP2 SWAP1 PUSH1 0x1 ADD SWAP1 PUSH3 0x118 JUMP JUMPDEST JUMPDEST POP SWAP1 POP PUSH3 0x145 SWAP2 SWAP1 PUSH3 0x149 JUMP JUMPDEST POP SWAP1 JUMP JUMPDEST JUMPDEST DUP1 DUP3 GT ISZERO PUSH3 0x164 JUMPI PUSH1 0x0 DUP2 PUSH1 0x0 SWAP1 SSTORE POP PUSH1 0x1 ADD PUSH3 0x14A JUMP JUMPDEST POP SWAP1 JUMP JUMPDEST PUSH1 0x0 PUSH1 0x2 DUP3 DIV SWAP1 POP PUSH1 0x1 DUP3 AND DUP1 PUSH3 0x181 JUMPI PUSH1 0x7F DUP3 AND SWAP2 POP JUMPDEST PUSH1 0x20 DUP3 LT DUP2 EQ ISZERO PUSH3 0x198 JUMPI PUSH3 0x197 PUSH3 0x19E JUMP JUMPDEST JUMPDEST POP SWAP2 SWAP1 POP JUMP JUMPDEST PUSH32 0x4E487B7100000000000000000000000000000000000000000000000000000000 PUSH1 0x0 MSTORE PUSH1 0x22 PUSH1 0x4 MSTORE PUSH1 0x24 PUSH1 0x0 REVERT JUMPDEST PUSH2 0x28FE DUP1 PUSH3 0x1DD PUSH1 0x0 CODECOPY PUSH1 0x0 RETURN INVALID PUSH1 0x80 PUSH1 0x40 MSTORE CALLVALUE DUP1 ISZERO PUSH2 0x10 JUMPI PUSH1 0x0 DUP1 REVERT JUMPDEST POP PUSH1 0x4 CALLDATASIZE LT PUSH2 0xF5 JUMPI PUSH1 0x0 CALLDATALOAD PUSH1 0xE0 SHR DUP1 PUSH4 0x6352211E GT PUSH2 0x97 JUMPI DUP1 PUSH4 0xA22CB465 GT PUSH2 0x66 JUMPI DUP1 PUSH4 0xA22CB465 EQ PUSH2 0x282 JUMPI DUP1 PUSH4 0xB88D4FDE EQ PUSH2 0x29E JUMPI DUP1 PUSH4 0xC87B56DD EQ PUSH2 0x2BA JUMPI DUP1 PUSH4 0xE985E9C5 EQ PUSH2 0x2EA JUMPI PUSH2 0xF5 JUMP JUMPDEST DUP1 PUSH4 0x6352211E EQ PUSH2 0x1E8 JUMPI DUP1 PUSH4 0x70A08231 EQ PUSH2 0x218 JUMPI DUP1 PUSH4 0x95D89B41 EQ PUSH2 0x248 JUMPI DUP1 PUSH4 0xA0712D68 EQ PUSH2 0x266 JUMPI PUSH2 0xF5 JUMP JUMPDEST DUP1 PUSH4 0x95EA7B3 GT PUSH2 0xD3 JUMPI DUP1 PUSH4 0x95EA7B3 EQ PUSH2 0x178 JUMPI DUP1 PUSH4 0x23B872DD EQ PUSH2 0x194 JUMPI DUP1 PUSH4 0x42842E0E EQ PUSH2 0x1B0 JUMPI DUP1 PUSH4 0x42966C68 EQ PUSH2 0x1CC JUMPI PUSH2 0xF5 JUMP JUMPDEST DUP1 PUSH4 0x1FFC9A7 EQ PUSH2 0xFA JUMPI DUP1 PUSH4 0x6FDDE03 EQ PUSH2 0x12A JUMPI DUP1 PUSH4 0x81812FC EQ PUSH2 0x148 JUMPI JUMPDEST PUSH1 0x0 DUP1 REVERT JUMPDEST PUSH2 0x114 PUSH1 0x4 DUP1 CALLDATASIZE SUB DUP2 ADD SWAP1 PUSH2 0x10F SWAP2 SWAP1 PUSH2 0x1A6E JUMP JUMPDEST PUSH2 0x31A JUMP JUMPDEST PUSH1 0x40 MLOAD PUSH2 0x121 SWAP2 SWAP1 PUSH2 0x1E51 JUMP JUMPDEST PUSH1 0x40 MLOAD DUP1 SWAP2 SUB SWAP1 RETURN JUMPDEST PUSH2 0x132 PUSH2 0x3FC JUMP JUMPDEST PUSH1 0x40 MLOAD PUSH2 0x13F SWAP2 SWAP1 PUSH2 0x1E6C JUMP JUMPDEST PUSH1 0x40 MLOAD DUP1 SWAP2 SUB SWAP1 RETURN JUMPDEST PUSH2 0x162 PUSH1 0x4 DUP1 CALLDATASIZE SUB DUP2 ADD SWAP1 PUSH2 0x15D SWAP2 SWAP1 PUSH2 0x1AC0 JUMP JUMPDEST PUSH2 0x48E JUMP JUMPDEST PUSH1 0x40 MLOAD PUSH2 0x16F SWAP2 SWAP1 PUSH2 0x1DEA JUMP JUMPDEST PUSH1 0x40 MLOAD DUP1 SWAP2 SUB SWAP1 RETURN JUMPDEST PUSH2 0x192 PUSH1 0x4 DUP1 CALLDATASIZE SUB DUP2 ADD SWAP1 PUSH2 0x18D SWAP2 SWAP1 PUSH2 0x1A32 JUMP JUMPDEST PUSH2 0x513 JUMP JUMPDEST STOP JUMPDEST PUSH2 0x1AE PUSH1 0x4 DUP1 CALLDATASIZE SUB DUP2 ADD SWAP1 PUSH2 0x1A9 SWAP2 SWAP1 PUSH2 0x192C JUMP JUMPDEST PUSH2 0x62B JUMP JUMPDEST STOP JUMPDEST PUSH2 0x1CA PUSH1 0x4 DUP1 CALLDATASIZE SUB DUP2 ADD SWAP1 PUSH2 0x1C5 SWAP2 SWAP1 PUSH2 0x192C JUMP JUMPDEST PUSH2 0x68B JUMP JUMPDEST STOP JUMPDEST PUSH2 0x1E6 PUSH1 0x4 DUP1 CALLDATASIZE SUB DUP2 ADD SWAP1 PUSH2 0x1E1 SWAP2 SWAP1 PUSH2 0x1AC0 JUMP JUMPDEST PUSH2 0x69B JUMP JUMPDEST STOP JUMPDEST PUSH2 0x202 PUSH1 0x4 DUP1 CALLDATASIZE SUB DUP2 ADD SWAP1 PUSH2 0x1FD SWAP2 SWAP1 PUSH2 0x1AC0 JUMP JUMPDEST PUSH2 0x6A7 JUMP JUMPDEST PUSH1 0x40 MLOAD PUSH2 0x20F SWAP2 SWAP1 PUSH2 0x1DEA JUMP JUMPDEST PUSH1 0x40 MLOAD DUP1 SWAP2 SUB SWAP1 RETURN JUMPDEST PUSH2 0x232 PUSH1 0x4 DUP1 CALLDATASIZE SUB DUP2 ADD SWAP1 PUSH2 0x22D SWAP2 SWAP1 PUSH2 0x18C7 JUMP JUMPDEST PUSH2 0x759 JUMP JUMPDEST PUSH1 0x40 MLOAD PUSH2 0x23F SWAP2 SWAP1 PUSH2 0x206E JUMP JUMPDEST PUSH1 0x40 MLOAD DUP1 SWAP2 SUB SWAP1 RETURN JUMPDEST PUSH2 0x250 PUSH2 0x811 JUMP JUMPDEST PUSH1 0x40 MLOAD PUSH2 0x25D SWAP2 SWAP1 PUSH2 0x1E6C JUMP JUMPDEST PUSH1 0x40 MLOAD DUP1 SWAP2 SUB SWAP1 RETURN JUMPDEST PUSH2 0x280 PUSH1 0x4 DUP1 CALLDATASIZE SUB DUP2 ADD SWAP1 PUSH2 0x27B SWAP2 SWAP1 PUSH2 0x1AC0 JUMP JUMPDEST PUSH2 0x8A3 JUMP JUMPDEST STOP JUMPDEST PUSH2 0x29C PUSH1 0x4 DUP1 CALLDATASIZE SUB DUP2 ADD SWAP1 PUSH2 0x297 SWAP2 SWAP1 PUSH2 0x19F6 JUMP JUMPDEST PUSH2 0x8B6 JUMP JUMPDEST STOP JUMPDEST PUSH2 0x2B8 PUSH1 0x4 DUP1 CALLDATASIZE SUB DUP2 ADD SWAP1 PUSH2 0x2B3 SWAP2 SWAP1 PUSH2 0x197B JUMP JUMPDEST PUSH2 0x8CC JUMP JUMPDEST STOP JUMPDEST PUSH2 0x2D4 PUSH1 0x4 DUP1 CALLDATASIZE SUB DUP2 ADD SWAP1 PUSH2 0x2CF SWAP2 SWAP1 PUSH2 0x1AC0 JUMP JUMPDEST PUSH2 0x92E JUMP JUMPDEST PUSH1 0x40 MLOAD PUSH2 0x2E1 SWAP2 SWAP1 PUSH2 0x1E6C JUMP JUMPDEST PUSH1 0x40 MLOAD DUP1 SWAP2 SUB SWAP1 RETURN JUMPDEST PUSH2 0x304 PUSH1 0x4 DUP1 CALLDATASIZE SUB DUP2 ADD SWAP1 PUSH2 0x2FF SWAP2 SWAP1 PUSH2 0x18F0 JUMP JUMPDEST PUSH2 0x9D5 JUMP JUMPDEST PUSH1 0x40 MLOAD PUSH2 0x311 SWAP2 SWAP1 PUSH2 0x1E51 JUMP JUMPDEST PUSH1 0x40 MLOAD DUP1 SWAP2 SUB SWAP1 RETURN JUMPDEST PUSH1 0x0 PUSH32 0x80AC58CD00000000000000000000000000000000000000000000000000000000 PUSH28 0xFFFFFFFFFFFFFFFFFFFFFFFFFFFFFFFFFFFFFFFFFFFFFFFFFFFFFFFF NOT AND DUP3 PUSH28 0xFFFFFFFFFFFFFFFFFFFFFFFFFFFFFFFFFFFFFFFFFFFFFFFFFFFFFFFF NOT AND EQ DUP1 PUSH2 0x3E5 JUMPI POP PUSH32 0x5B5E139F00000000000000000000000000000000000000000000000000000000 PUSH28 0xFFFFFFFFFFFFFFFFFFFFFFFFFFFFFFFFFFFFFFFFFFFFFFFFFFFFFFFF NOT AND DUP3 PUSH28 0xFFFFFFFFFFFFFFFFFFFFFFFFFFFFFFFFFFFFFFFFFFFFFFFFFFFFFFFF NOT AND EQ JUMPDEST DUP1 PUSH2 0x3F5 JUMPI POP PUSH2 0x3F4 DUP3 PUSH2 0xA69 JUMP JUMPDEST JUMPDEST SWAP1 POP SWAP2 SWAP1 POP JUMP JUMPDEST PUSH1 0x60 PUSH1 0x0 DUP1 SLOAD PUSH2 0x40B SWAP1 PUSH2 0x2293 JUMP JUMPDEST DUP1 PUSH1 0x1F ADD PUSH1 0x20 DUP1 SWAP2 DIV MUL PUSH1 0x20 ADD PUSH1 0x40 MLOAD SWAP1 DUP2 ADD PUSH1 0x40 MSTORE DUP1 SWAP3 SWAP2 SWAP1 DUP2 DUP2 MSTORE PUSH1 0x20 ADD DUP3 DUP1 SLOAD PUSH2 0x437 SWAP1 PUSH2 0x2293 JUMP JUMPDEST DUP1 ISZERO PUSH2 0x484 JUMPI DUP1 PUSH1 0x1F LT PUSH2 0x459 JUMPI PUSH2 0x100 DUP1 DUP4 SLOAD DIV MUL DUP4 MSTORE SWAP2 PUSH1 0x20 ADD SWAP2 PUSH2 0x484 JUMP JUMPDEST DUP3 ADD SWAP2 SWAP1 PUSH1 0x0 MSTORE PUSH1 0x20 PUSH1 0x0 KECCAK256 SWAP1 JUMPDEST DUP2 SLOAD DUP2 MSTORE SWAP1 PUSH1 0x1 ADD SWAP1 PUSH1 0x20 ADD DUP1 DUP4 GT PUSH2 0x467 JUMPI DUP3 SWAP1 SUB PUSH1 0x1F AND DUP3 ADD SWAP2 JUMPDEST POP POP POP POP POP SWAP1 POP SWAP1 JUMP JUMPDEST PUSH1 0x0 PUSH2 0x499 DUP3 PUSH2 0xAD3 JUMP JUMPDEST PUSH2 0x4D8 JUMPI PUSH1 0x40 MLOAD PUSH32 0x8C379A000000000000000000000000000000000000000000000000000000000 DUP2 MSTORE PUSH1 0x4 ADD PUSH2 0x4CF SWAP1 PUSH2 0x1FEE JUMP JUMPDEST PUSH1 0x40 MLOAD DUP1 SWAP2 SUB SWAP1 REVERT JUMPDEST PUSH1 0x4 PUSH1 0x0 DUP4 DUP2 MSTORE PUSH1 0x20 ADD SWAP1 DUP2 MSTORE PUSH1 0x20 ADD PUSH1 0x0 KECCAK256 PUSH1 0x0 SWAP1 SLOAD SWAP1 PUSH2 0x100 EXP SWAP1 DIV PUSH20 0xFFFFFFFFFFFFFFFFFFFFFFFFFFFFFFFFFFFFFFFF AND SWAP1 POP SWAP2 SWAP1 POP JUMP JUMPDEST PUSH1 0x0 PUSH2 0x51E DUP3 PUSH2 0x6A7 JUMP JUMPDEST SWAP1 POP DUP1 PUSH20 0xFFFFFFFFFFFFFFFFFFFFFFFFFFFFFFFFFFFFFFFF AND DUP4 PUSH20 0xFFFFFFFFFFFFFFFFFFFFFFFFFFFFFFFFFFFFFFFF AND EQ ISZERO PUSH2 0x58F JUMPI PUSH1 0x40 MLOAD PUSH32 0x8C379A000000000000000000000000000000000000000000000000000000000 DUP2 MSTORE PUSH1 0x4 ADD PUSH2 0x586 SWAP1 PUSH2 0x200E JUMP JUMPDEST PUSH1 0x40 MLOAD DUP1 SWAP2 SUB SWAP1 REVERT JUMPDEST DUP1 PUSH20 0xFFFFFFFFFFFFFFFFFFFFFFFFFFFFFFFFFFFFFFFF AND PUSH2 0x5AE PUSH2 0xB3F JUMP JUMPDEST PUSH20 0xFFFFFFFFFFFFFFFFFFFFFFFFFFFFFFFFFFFFFFFF AND EQ DUP1 PUSH2 0x5DD JUMPI POP PUSH2 0x5DC DUP2 PUSH2 0x5D7 PUSH2 0xB3F JUMP JUMPDEST PUSH2 0x9D5 JUMP JUMPDEST JUMPDEST PUSH2 0x61C JUMPI PUSH1 0x40 MLOAD PUSH32 0x8C379A000000000000000000000000000000000000000000000000000000000 DUP2 MSTORE PUSH1 0x4 ADD PUSH2 0x613 SWAP1 PUSH2 0x1F6E JUMP JUMPDEST PUSH1 0x40 MLOAD DUP1 SWAP2 SUB SWAP1 REVERT JUMPDEST PUSH2 0x626 DUP4 DUP4 PUSH2 0xB47 JUMP JUMPDEST POP POP POP JUMP JUMPDEST PUSH2 0x63C PUSH2 0x636 PUSH2 0xB3F JUMP JUMPDEST DUP3 PUSH2 0xC00 JUMP JUMPDEST PUSH2 0x67B JUMPI PUSH1 0x40 MLOAD PUSH32 0x8C379A000000000000000000000000000000000000000000000000000000000 DUP2 MSTORE PUSH1 0x4 ADD PUSH2 0x672 SWAP1 PUSH2 0x202E JUMP JUMPDEST PUSH1 0x40 MLOAD DUP1 SWAP2 SUB SWAP1 REVERT JUMPDEST PUSH2 0x686 DUP4 DUP4 DUP4 PUSH2 0xCDE JUMP JUMPDEST POP POP POP JUMP JUMPDEST PUSH2 0x696 DUP4 DUP4 DUP4 PUSH2 0x68B JUMP JUMPDEST POP POP POP JUMP JUMPDEST PUSH2 0x6A4 DUP2 PUSH2 0xF45 JUMP JUMPDEST POP JUMP JUMPDEST PUSH1 0x0 DUP1 PUSH1 0x2 PUSH1 0x0 DUP5 DUP2 MSTORE PUSH1 0x20 ADD SWAP1 DUP2 MSTORE PUSH1 0x20 ADD PUSH1 0x0 KECCAK256 PUSH1 0x0 SWAP1 SLOAD SWAP1 PUSH2 0x100 EXP SWAP1 DIV PUSH20 0xFFFFFFFFFFFFFFFFFFFFFFFFFFFFFFFFFFFFFFFF AND SWAP1 POP PUSH1 0x0 PUSH20 0xFFFFFFFFFFFFFFFFFFFFFFFFFFFFFFFFFFFFFFFF AND DUP2 PUSH20 0xFFFFFFFFFFFFFFFFFFFFFFFFFFFFFFFFFFFFFFFF AND EQ ISZERO PUSH2 0x750 JUMPI PUSH1 0x40 MLOAD PUSH32 0x8C379A000000000000000000000000000000000000000000000000000000000 DUP2 MSTORE PUSH1 0x4 ADD PUSH2 0x747 SWAP1 PUSH2 0x1FAE JUMP JUMPDEST PUSH1 0x40 MLOAD DUP1 SWAP2 SUB SWAP1 REVERT JUMPDEST DUP1 SWAP2 POP POP SWAP2 SWAP1 POP JUMP JUMPDEST PUSH1 0x0 DUP1 PUSH20 0xFFFFFFFFFFFFFFFFFFFFFFFFFFFFFFFFFFFFFFFF AND DUP3 PUSH20 0xFFFFFFFFFFFFFFFFFFFFFFFFFFFFFFFFFFFFFFFF AND EQ ISZERO PUSH2 0x7CA JUMPI PUSH1 0x40 MLOAD PUSH32 0x8C379A000000000000000000000000000000000000000000000000000000000 DUP2 MSTORE PUSH1 0x4 ADD PUSH2 0x7C1 SWAP1 PUSH2 0x1F8E JUMP JUMPDEST PUSH1 0x40 MLOAD DUP1 SWAP2 SUB SWAP1 REVERT JUMPDEST PUSH1 0x3 PUSH1 0x0 DUP4 PUSH20 0xFFFFFFFFFFFFFFFFFFFFFFFFFFFFFFFFFFFFFFFF AND PUSH20 0xFFFFFFFFFFFFFFFFFFFFFFFFFFFFFFFFFFFFFFFF AND DUP2 MSTORE PUSH1 0x20 ADD SWAP1 DUP2 MSTORE PUSH1 0x20 ADD PUSH1 0x0 KECCAK256 SLOAD SWAP1 POP SWAP2 SWAP1 POP JUMP JUMPDEST PUSH1 0x60 PUSH1 0x1 DUP1 SLOAD PUSH2 0x820 SWAP1 PUSH2 0x2293 JUMP JUMPDEST DUP1 PUSH1 0x1F ADD PUSH1 0x20 DUP1 SWAP2 DIV MUL PUSH1 0x20 ADD PUSH1 0x40 MLOAD SWAP1 DUP2 ADD PUSH1 0x40 MSTORE DUP1 SWAP3 SWAP2 SWAP1 DUP2 DUP2 MSTORE PUSH1 0x20 ADD DUP3 DUP1 SLOAD PUSH2 0x84C SWAP1 PUSH2 0x2293 JUMP JUMPDEST DUP1 ISZERO PUSH2 0x899 JUMPI DUP1 PUSH1 0x1F LT PUSH2 0x86E JUMPI PUSH2 0x100 DUP1 DUP4 SLOAD DIV MUL DUP4 MSTORE SWAP2 PUSH1 0x20 ADD SWAP2 PUSH2 0x899 JUMP JUMPDEST DUP3 ADD SWAP2 SWAP1 PUSH1 0x0 MSTORE PUSH1 0x20 PUSH1 0x0 KECCAK256 SWAP1 JUMPDEST DUP2 SLOAD DUP2 MSTORE SWAP1 PUSH1 0x1 ADD SWAP1 PUSH1 0x20 ADD DUP1 DUP4 GT PUSH2 0x87C JUMPI DUP3 SWAP1 SUB PUSH1 0x1F AND DUP3 ADD SWAP2 JUMPDEST POP POP POP POP POP SWAP1 POP SWAP1 JUMP JUMPDEST PUSH1 0x0 DUP2 SWAP1 POP PUSH2 0x8B2 CALLER DUP3 PUSH2 0x1062 JUMP JUMPDEST POP POP JUMP JUMPDEST PUSH2 0x8C8 PUSH2 0x8C1 PUSH2 0xB3F JUMP JUMPDEST DUP4 DUP4 PUSH2 0x1080 JUMP JUMPDEST POP POP JUMP JUMPDEST PUSH2 0x8DD PUSH2 0x8D7 PUSH2 0xB3F JUMP JUMPDEST DUP4 PUSH2 0xC00 JUMP JUMPDEST PUSH2 0x91C JUMPI PUSH1 0x40 MLOAD PUSH32 0x8C379A000000000000000000000000000000000000000000000000000000000 DUP2 MSTORE PUSH1 0x4 ADD PUSH2 0x913 SWAP1 PUSH2 0x1F4E JUMP JUMPDEST PUSH1 0x40 MLOAD DUP1 SWAP2 SUB SWAP1 REVERT JUMPDEST PUSH2 0x928 DUP5 DUP5 DUP5 DUP5 PUSH2 0x11ED JUMP JUMPDEST POP POP POP POP JUMP JUMPDEST PUSH1 0x60 PUSH2 0x939 DUP3 PUSH2 0xAD3 JUMP JUMPDEST PUSH2 0x978 JUMPI PUSH1 0x40 MLOAD PUSH32 0x8C379A000000000000000000000000000000000000000000000000000000000 DUP2 MSTORE PUSH1 0x4 ADD PUSH2 0x96F SWAP1 PUSH2 0x204E JUMP JUMPDEST PUSH1 0x40 MLOAD DUP1 SWAP2 SUB SWAP1 REVERT JUMPDEST PUSH1 0x0 PUSH2 0x982 PUSH2 0x1249 JUMP JUMPDEST SWAP1 POP PUSH1 0x0 DUP2 MLOAD GT PUSH2 0x9A2 JUMPI PUSH1 0x40 MLOAD DUP1 PUSH1 0x20 ADD PUSH1 0x40 MSTORE DUP1 PUSH1 0x0 DUP2 MSTORE POP PUSH2 0x9CD JUMP JUMPDEST DUP1 PUSH2 0x9AC DUP5 PUSH2 0x1260 JUMP JUMPDEST PUSH1 0x40 MLOAD PUSH1 0x20 ADD PUSH2 0x9BD SWAP3 SWAP2 SWAP1 PUSH2 0x1DC6 JUMP JUMPDEST PUSH1 0x40 MLOAD PUSH1 0x20 DUP2 DUP4 SUB SUB DUP2 MSTORE SWAP1 PUSH1 0x40 MSTORE JUMPDEST SWAP2 POP POP SWAP2 SWAP1 POP JUMP JUMPDEST PUSH1 0x0 PUSH1 0x5 PUSH1 0x0 DUP5 PUSH20 0xFFFFFFFFFFFFFFFFFFFFFFFFFFFFFFFFFFFFFFFF AND PUSH20 0xFFFFFFFFFFFFFFFFFFFFFFFFFFFFFFFFFFFFFFFF AND DUP2 MSTORE PUSH1 0x20 ADD SWAP1 DUP2 MSTORE PUSH1 0x20 ADD PUSH1 0x0 KECCAK256 PUSH1 0x0 DUP4 PUSH20 0xFFFFFFFFFFFFFFFFFFFFFFFFFFFFFFFFFFFFFFFF AND PUSH20 0xFFFFFFFFFFFFFFFFFFFFFFFFFFFFFFFFFFFFFFFF AND DUP2 MSTORE PUSH1 0x20 ADD SWAP1 DUP2 MSTORE PUSH1 0x20 ADD PUSH1 0x0 KECCAK256 PUSH1 0x0 SWAP1 SLOAD SWAP1 PUSH2 0x100 EXP SWAP1 DIV PUSH1 0xFF AND SWAP1 POP SWAP3 SWAP2 POP POP JUMP JUMPDEST PUSH1 0x0 PUSH32 0x1FFC9A700000000000000000000000000000000000000000000000000000000 PUSH28 0xFFFFFFFFFFFFFFFFFFFFFFFFFFFFFFFFFFFFFFFFFFFFFFFFFFFFFFFF NOT AND DUP3 PUSH28 0xFFFFFFFFFFFFFFFFFFFFFFFFFFFFFFFFFFFFFFFFFFFFFFFFFFFFFFFF NOT AND EQ SWAP1 POP SWAP2 SWAP1 POP JUMP JUMPDEST PUSH1 0x0 DUP1 PUSH20 0xFFFFFFFFFFFFFFFFFFFFFFFFFFFFFFFFFFFFFFFF AND PUSH1 0x2 PUSH1 0x0 DUP5 DUP2 MSTORE PUSH1 0x20 ADD SWAP1 DUP2 MSTORE PUSH1 0x20 ADD PUSH1 0x0 KECCAK256 PUSH1 0x0 SWAP1 SLOAD SWAP1 PUSH2 0x100 EXP SWAP1 DIV PUSH20 0xFFFFFFFFFFFFFFFFFFFFFFFFFFFFFFFFFFFFFFFF AND PUSH20 0xFFFFFFFFFFFFFFFFFFFFFFFFFFFFFFFFFFFFFFFF AND EQ ISZERO SWAP1 POP SWAP2 SWAP1 POP JUMP JUMPDEST PUSH1 0x0 CALLER SWAP1 POP SWAP1 JUMP JUMPDEST DUP2 PUSH1 0x4 PUSH1 0x0 DUP4 DUP2 MSTORE PUSH1 0x20 ADD SWAP1 DUP2 MSTORE PUSH1 0x20 ADD PUSH1 0x0 KECCAK256 PUSH1 0x0 PUSH2 0x100 EXP DUP2 SLOAD DUP2 PUSH20 0xFFFFFFFFFFFFFFFFFFFFFFFFFFFFFFFFFFFFFFFF MUL NOT AND SWAP1 DUP4 PUSH20 0xFFFFFFFFFFFFFFFFFFFFFFFFFFFFFFFFFFFFFFFF AND MUL OR SWAP1 SSTORE POP DUP1 DUP3 PUSH20 0xFFFFFFFFFFFFFFFFFFFFFFFFFFFFFFFFFFFFFFFF AND PUSH2 0xBBA DUP4 PUSH2 0x6A7 JUMP JUMPDEST PUSH20 0xFFFFFFFFFFFFFFFFFFFFFFFFFFFFFFFFFFFFFFFF AND PUSH32 0x8C5BE1E5EBEC7D5BD14F71427D1E84F3DD0314C0F7B2291E5B200AC8C7C3B925 PUSH1 0x40 MLOAD PUSH1 0x40 MLOAD DUP1 SWAP2 SUB SWAP1 LOG4 POP POP JUMP JUMPDEST PUSH1 0x0 PUSH2 0xC0B DUP3 PUSH2 0xAD3 JUMP JUMPDEST PUSH2 0xC4A JUMPI PUSH1 0x40 MLOAD PUSH32 0x8C379A000000000000000000000000000000000000000000000000000000000 DUP2 MSTORE PUSH1 0x4 ADD PUSH2 0xC41 SWAP1 PUSH2 0x1F2E JUMP JUMPDEST PUSH1 0x40 MLOAD DUP1 SWAP2 SUB SWAP1 REVERT JUMPDEST PUSH1 0x0 PUSH2 0xC55 DUP4 PUSH2 0x6A7 JUMP JUMPDEST SWAP1 POP DUP1 PUSH20 0xFFFFFFFFFFFFFFFFFFFFFFFFFFFFFFFFFFFFFFFF AND DUP5 PUSH20 0xFFFFFFFFFFFFFFFFFFFFFFFFFFFFFFFFFFFFFFFF AND EQ DUP1 PUSH2 0xC97 JUMPI POP PUSH2 0xC96 DUP2 DUP6 PUSH2 0x9D5 JUMP JUMPDEST JUMPDEST DUP1 PUSH2 0xCD5 JUMPI POP DUP4 PUSH20 0xFFFFFFFFFFFFFFFFFFFFFFFFFFFFFFFFFFFFFFFF AND PUSH2 0xCBD DUP5 PUSH2 0x48E JUMP JUMPDEST PUSH20 0xFFFFFFFFFFFFFFFFFFFFFFFFFFFFFFFFFFFFFFFF AND EQ JUMPDEST SWAP2 POP POP SWAP3 SWAP2 POP POP JUMP JUMPDEST DUP3 PUSH20 0xFFFFFFFFFFFFFFFFFFFFFFFFFFFFFFFFFFFFFFFF AND PUSH2 0xCFE DUP3 PUSH2 0x6A7 JUMP JUMPDEST PUSH20 0xFFFFFFFFFFFFFFFFFFFFFFFFFFFFFFFFFFFFFFFF AND EQ PUSH2 0xD54 JUMPI PUSH1 0x40 MLOAD PUSH32 0x8C379A000000000000000000000000000000000000000000000000000000000 DUP2 MSTORE PUSH1 0x4 ADD PUSH2 0xD4B SWAP1 PUSH2 0x1EAE JUMP JUMPDEST PUSH1 0x40 MLOAD DUP1 SWAP2 SUB SWAP1 REVERT JUMPDEST PUSH1 0x0 PUSH20 0xFFFFFFFFFFFFFFFFFFFFFFFFFFFFFFFFFFFFFFFF AND DUP3 PUSH20 0xFFFFFFFFFFFFFFFFFFFFFFFFFFFFFFFFFFFFFFFF AND EQ ISZERO PUSH2 0xDC4 JUMPI PUSH1 0x40 MLOAD PUSH32 0x8C379A000000000000000000000000000000000000000000000000000000000 DUP2 MSTORE PUSH1 0x4 ADD PUSH2 0xDBB SWAP1 PUSH2 0x1EEE JUMP JUMPDEST PUSH1 0x40 MLOAD DUP1 SWAP2 SUB SWAP1 REVERT JUMPDEST PUSH2 0xDCF DUP4 DUP4 DUP4 PUSH2 0x140D JUMP JUMPDEST PUSH2 0xDDA PUSH1 0x0 DUP3 PUSH2 0xB47 JUMP JUMPDEST PUSH1 0x1 PUSH1 0x3 PUSH1 0x0 DUP6 PUSH20 0xFFFFFFFFFFFFFFFFFFFFFFFFFFFFFFFFFFFFFFFF AND PUSH20 0xFFFFFFFFFFFFFFFFFFFFFFFFFFFFFFFFFFFFFFFF AND DUP2 MSTORE PUSH1 0x20 ADD SWAP1 DUP2 MSTORE PUSH1 0x20 ADD PUSH1 0x0 KECCAK256 PUSH1 0x0 DUP3 DUP3 SLOAD PUSH2 0xE2A SWAP2 SWAP1 PUSH2 0x21A9 JUMP JUMPDEST SWAP3 POP POP DUP2 SWAP1 SSTORE POP PUSH1 0x1 PUSH1 0x3 PUSH1 0x0 DUP5 PUSH20 0xFFFFFFFFFFFFFFFFFFFFFFFFFFFFFFFFFFFFFFFF AND PUSH20 0xFFFFFFFFFFFFFFFFFFFFFFFFFFFFFFFFFFFFFFFF AND DUP2 MSTORE PUSH1 0x20 ADD SWAP1 DUP2 MSTORE PUSH1 0x20 ADD PUSH1 0x0 KECCAK256 PUSH1 0x0 DUP3 DUP3 SLOAD PUSH2 0xE81 SWAP2 SWAP1 PUSH2 0x2122 JUMP JUMPDEST SWAP3 POP POP DUP2 SWAP1 SSTORE POP DUP2 PUSH1 0x2 PUSH1 0x0 DUP4 DUP2 MSTORE PUSH1 0x20 ADD SWAP1 DUP2 MSTORE PUSH1 0x20 ADD PUSH1 0x0 KECCAK256 PUSH1 0x0 PUSH2 0x100 EXP DUP2 SLOAD DUP2 PUSH20 0xFFFFFFFFFFFFFFFFFFFFFFFFFFFFFFFFFFFFFFFF MUL NOT AND SWAP1 DUP4 PUSH20 0xFFFFFFFFFFFFFFFFFFFFFFFFFFFFFFFFFFFFFFFF AND MUL OR SWAP1 SSTORE POP DUP1 DUP3 PUSH20 0xFFFFFFFFFFFFFFFFFFFFFFFFFFFFFFFFFFFFFFFF AND DUP5 PUSH20 0xFFFFFFFFFFFFFFFFFFFFFFFFFFFFFFFFFFFFFFFF AND PUSH32 0xDDF252AD1BE2C89B69C2B068FC378DAA952BA7F163C4A11628F55A4DF523B3EF PUSH1 0x40 MLOAD PUSH1 0x40 MLOAD DUP1 SWAP2 SUB SWAP1 LOG4 PUSH2 0xF40 DUP4 DUP4 DUP4 PUSH2 0x1412 JUMP JUMPDEST POP POP POP JUMP JUMPDEST PUSH1 0x0 PUSH2 0xF50 DUP3 PUSH2 0x6A7 JUMP JUMPDEST SWAP1 POP PUSH2 0xF5E DUP2 PUSH1 0x0 DUP5 PUSH2 0x140D JUMP JUMPDEST PUSH2 0xF69 PUSH1 0x0 DUP4 PUSH2 0xB47 JUMP JUMPDEST PUSH1 0x1 PUSH1 0x3 PUSH1 0x0 DUP4 PUSH20 0xFFFFFFFFFFFFFFFFFFFFFFFFFFFFFFFFFFFFFFFF AND PUSH20 0xFFFFFFFFFFFFFFFFFFFFFFFFFFFFFFFFFFFFFFFF AND DUP2 MSTORE PUSH1 0x20 ADD SWAP1 DUP2 MSTORE PUSH1 0x20 ADD PUSH1 0x0 KECCAK256 PUSH1 0x0 DUP3 DUP3 SLOAD PUSH2 0xFB9 SWAP2 SWAP1 PUSH2 0x21A9 JUMP JUMPDEST SWAP3 POP POP DUP2 SWAP1 SSTORE POP PUSH1 0x2 PUSH1 0x0 DUP4 DUP2 MSTORE PUSH1 0x20 ADD SWAP1 DUP2 MSTORE PUSH1 0x20 ADD PUSH1 0x0 KECCAK256 PUSH1 0x0 PUSH2 0x100 EXP DUP2 SLOAD SWAP1 PUSH20 0xFFFFFFFFFFFFFFFFFFFFFFFFFFFFFFFFFFFFFFFF MUL NOT AND SWAP1 SSTORE DUP2 PUSH1 0x0 PUSH20 0xFFFFFFFFFFFFFFFFFFFFFFFFFFFFFFFFFFFFFFFF AND DUP3 PUSH20 0xFFFFFFFFFFFFFFFFFFFFFFFFFFFFFFFFFFFFFFFF AND PUSH32 0xDDF252AD1BE2C89B69C2B068FC378DAA952BA7F163C4A11628F55A4DF523B3EF PUSH1 0x40 MLOAD PUSH1 0x40 MLOAD DUP1 SWAP2 SUB SWAP1 LOG4 PUSH2 0x105E DUP2 PUSH1 0x0 DUP5 PUSH2 0x1412 JUMP JUMPDEST POP POP JUMP JUMPDEST PUSH2 0x107C DUP3 DUP3 PUSH1 0x40 MLOAD DUP1 PUSH1 0x20 ADD PUSH1 0x40 MSTORE DUP1 PUSH1 0x0 DUP2 MSTORE POP PUSH2 0x1417 JUMP JUMPDEST POP POP JUMP JUMPDEST DUP2 PUSH20 0xFFFFFFFFFFFFFFFFFFFFFFFFFFFFFFFFFFFFFFFF AND DUP4 PUSH20 0xFFFFFFFFFFFFFFFFFFFFFFFFFFFFFFFFFFFFFFFF AND EQ ISZERO PUSH2 0x10EF JUMPI PUSH1 0x40 MLOAD PUSH32 0x8C379A000000000000000000000000000000000000000000000000000000000 DUP2 MSTORE PUSH1 0x4 ADD PUSH2 0x10E6 SWAP1 PUSH2 0x1F0E JUMP JUMPDEST PUSH1 0x40 MLOAD DUP1 SWAP2 SUB SWAP1 REVERT JUMPDEST DUP1 PUSH1 0x5 PUSH1 0x0 DUP6 PUSH20 0xFFFFFFFFFFFFFFFFFFFFFFFFFFFFFFFFFFFFFFFF AND PUSH20 0xFFFFFFFFFFFFFFFFFFFFFFFFFFFFFFFFFFFFFFFF AND DUP2 MSTORE PUSH1 0x20 ADD SWAP1 DUP2 MSTORE PUSH1 0x20 ADD PUSH1 0x0 KECCAK256 PUSH1 0x0 DUP5 PUSH20 0xFFFFFFFFFFFFFFFFFFFFFFFFFFFFFFFFFFFFFFFF AND PUSH20 0xFFFFFFFFFFFFFFFFFFFFFFFFFFFFFFFFFFFFFFFF AND DUP2 MSTORE PUSH1 0x20 ADD SWAP1 DUP2 MSTORE PUSH1 0x20 ADD PUSH1 0x0 KECCAK256 PUSH1 0x0 PUSH2 0x100 EXP DUP2 SLOAD DUP2 PUSH1 0xFF MUL NOT AND SWAP1 DUP4 ISZERO ISZERO MUL OR SWAP1 SSTORE POP DUP2 PUSH20 0xFFFFFFFFFFFFFFFFFFFFFFFFFFFFFFFFFFFFFFFF AND DUP4 PUSH20 0xFFFFFFFFFFFFFFFFFFFFFFFFFFFFFFFFFFFFFFFF AND PUSH32 0x17307EAB39AB6107E8899845AD3D59BD9653F200F220920489CA2B5937696C31 DUP4 PUSH1 0x40 MLOAD PUSH2 0x11E0 SWAP2 SWAP1 PUSH2 0x1E51 JUMP JUMPDEST PUSH1 0x40 MLOAD DUP1 SWAP2 SUB SWAP1 LOG3 POP POP POP JUMP JUMPDEST PUSH2 0x11F8 DUP5 DUP5 DUP5 PUSH2 0xCDE JUMP JUMPDEST PUSH2 0x1204 DUP5 DUP5 DUP5 DUP5 PUSH2 0x1472 JUMP JUMPDEST PUSH2 0x1243 JUMPI PUSH1 0x40 MLOAD PUSH32 0x8C379A000000000000000000000000000000000000000000000000000000000 DUP2 MSTORE PUSH1 0x4 ADD PUSH2 0x123A SWAP1 PUSH2 0x1E8E JUMP JUMPDEST PUSH1 0x40 MLOAD DUP1 SWAP2 SUB SWAP1 REVERT JUMPDEST POP POP POP POP JUMP JUMPDEST PUSH1 0x60 PUSH1 0x40 MLOAD DUP1 PUSH1 0x20 ADD PUSH1 0x40 MSTORE DUP1 PUSH1 0x0 DUP2 MSTORE POP SWAP1 POP SWAP1 JUMP JUMPDEST PUSH1 0x60 PUSH1 0x0 DUP3 EQ ISZERO PUSH2 0x12A8 JUMPI PUSH1 0x40 MLOAD DUP1 PUSH1 0x40 ADD PUSH1 0x40 MSTORE DUP1 PUSH1 0x1 DUP2 MSTORE PUSH1 0x20 ADD PUSH32 0x3000000000000000000000000000000000000000000000000000000000000000 DUP2 MSTORE POP SWAP1 POP PUSH2 0x1408 JUMP JUMPDEST PUSH1 0x0 DUP3 SWAP1 POP PUSH1 0x0 JUMPDEST PUSH1 0x0 DUP3 EQ PUSH2 0x12DA JUMPI DUP1 DUP1 PUSH2 0x12C3 SWAP1 PUSH2 0x22F6 JUMP JUMPDEST SWAP2 POP POP PUSH1 0xA DUP3 PUSH2 0x12D3 SWAP2 SWAP1 PUSH2 0x2178 JUMP JUMPDEST SWAP2 POP PUSH2 0x12B0 JUMP JUMPDEST PUSH1 0x0 DUP2 PUSH8 0xFFFFFFFFFFFFFFFF DUP2 GT ISZERO PUSH2 0x131C JUMPI PUSH32 0x4E487B7100000000000000000000000000000000000000000000000000000000 PUSH1 0x0 MSTORE PUSH1 0x41 PUSH1 0x4 MSTORE PUSH1 0x24 PUSH1 0x0 REVERT JUMPDEST PUSH1 0x40 MLOAD SWAP1 DUP1 DUP3 MSTORE DUP1 PUSH1 0x1F ADD PUSH1 0x1F NOT AND PUSH1 0x20 ADD DUP3 ADD PUSH1 0x40 MSTORE DUP1 ISZERO PUSH2 0x134E JUMPI DUP2 PUSH1 0x20 ADD PUSH1 0x1 DUP3 MUL DUP1 CALLDATASIZE DUP4 CALLDATACOPY DUP1 DUP3 ADD SWAP2 POP POP SWAP1 POP JUMPDEST POP SWAP1 POP JUMPDEST PUSH1 0x0 DUP6 EQ PUSH2 0x1401 JUMPI PUSH1 0x1 DUP3 PUSH2 0x1367 SWAP2 SWAP1 PUSH2 0x21A9 JUMP JUMPDEST SWAP2 POP PUSH1 0xA DUP6 PUSH2 0x1376 SWAP2 SWAP1 PUSH2 0x233F JUMP JUMPDEST PUSH1 0x30 PUSH2 0x1382 SWAP2 SWAP1 PUSH2 0x2122 JUMP JUMPDEST PUSH1 0xF8 SHL DUP2 DUP4 DUP2 MLOAD DUP2 LT PUSH2 0x13BE JUMPI PUSH32 0x4E487B7100000000000000000000000000000000000000000000000000000000 PUSH1 0x0 MSTORE PUSH1 0x32 PUSH1 0x4 MSTORE PUSH1 0x24 PUSH1 0x0 REVERT JUMPDEST PUSH1 0x20 ADD ADD SWAP1 PUSH31 0xFFFFFFFFFFFFFFFFFFFFFFFFFFFFFFFFFFFFFFFFFFFFFFFFFFFFFFFFFFFFFF NOT AND SWAP1 DUP2 PUSH1 0x0 BYTE SWAP1 MSTORE8 POP PUSH1 0xA DUP6 PUSH2 0x13FA SWAP2 SWAP1 PUSH2 0x2178 JUMP JUMPDEST SWAP5 POP PUSH2 0x1352 JUMP JUMPDEST DUP1 SWAP4 POP POP POP POP JUMPDEST SWAP2 SWAP1 POP JUMP JUMPDEST POP POP POP JUMP JUMPDEST POP POP POP JUMP JUMPDEST PUSH2 0x1421 DUP4 DUP4 PUSH2 0x1609 JUMP JUMPDEST PUSH2 0x142E PUSH1 0x0 DUP5 DUP5 DUP5 PUSH2 0x1472 JUMP JUMPDEST PUSH2 0x146D JUMPI PUSH1 0x40 MLOAD PUSH32 0x8C379A000000000000000000000000000000000000000000000000000000000 DUP2 MSTORE PUSH1 0x4 ADD PUSH2 0x1464 SWAP1 PUSH2 0x1E8E JUMP JUMPDEST PUSH1 0x40 MLOAD DUP1 SWAP2 SUB SWAP1 REVERT JUMPDEST POP POP POP JUMP JUMPDEST PUSH1 0x0 PUSH2 0x1493 DUP5 PUSH20 0xFFFFFFFFFFFFFFFFFFFFFFFFFFFFFFFFFFFFFFFF AND PUSH2 0x17E3 JUMP JUMPDEST ISZERO PUSH2 0x15FC JUMPI DUP4 PUSH20 0xFFFFFFFFFFFFFFFFFFFFFFFFFFFFFFFFFFFFFFFF AND PUSH4 0x150B7A02 PUSH2 0x14BC PUSH2 0xB3F JUMP JUMPDEST DUP8 DUP7 DUP7 PUSH1 0x40 MLOAD DUP6 PUSH4 0xFFFFFFFF AND PUSH1 0xE0 SHL DUP2 MSTORE PUSH1 0x4 ADD PUSH2 0x14DE SWAP5 SWAP4 SWAP3 SWAP2 SWAP1 PUSH2 0x1E05 JUMP JUMPDEST PUSH1 0x20 PUSH1 0x40 MLOAD DUP1 DUP4 SUB DUP2 PUSH1 0x0 DUP8 DUP1 EXTCODESIZE ISZERO DUP1 ISZERO PUSH2 0x14F8 JUMPI PUSH1 0x0 DUP1 REVERT JUMPDEST POP GAS CALL SWAP3 POP POP POP DUP1 ISZERO PUSH2 0x1529 JUMPI POP PUSH1 0x40 MLOAD RETURNDATASIZE PUSH1 0x1F NOT PUSH1 0x1F DUP3 ADD AND DUP3 ADD DUP1 PUSH1 0x40 MSTORE POP DUP2 ADD SWAP1 PUSH2 0x1526 SWAP2 SWAP1 PUSH2 0x1A97 JUMP JUMPDEST PUSH1 0x1 JUMPDEST PUSH2 0x15AC JUMPI RETURNDATASIZE DUP1 PUSH1 0x0 DUP2 EQ PUSH2 0x1559 JUMPI PUSH1 0x40 MLOAD SWAP2 POP PUSH1 0x1F NOT PUSH1 0x3F RETURNDATASIZE ADD AND DUP3 ADD PUSH1 0x40 MSTORE RETURNDATASIZE DUP3 MSTORE RETURNDATASIZE PUSH1 0x0 PUSH1 0x20 DUP5 ADD RETURNDATACOPY PUSH2 0x155E JUMP JUMPDEST PUSH1 0x60 SWAP2 POP JUMPDEST POP PUSH1 0x0 DUP2 MLOAD EQ ISZERO PUSH2 0x15A4 JUMPI PUSH1 0x40 MLOAD PUSH32 0x8C379A000000000000000000000000000000000000000000000000000000000 DUP2 MSTORE PUSH1 0x4 ADD PUSH2 0x159B SWAP1 PUSH2 0x1E8E JUMP JUMPDEST PUSH1 0x40 MLOAD DUP1 SWAP2 SUB SWAP1 REVERT JUMPDEST DUP1 MLOAD DUP2 PUSH1 0x20 ADD REVERT JUMPDEST PUSH4 0x150B7A02 PUSH1 0xE0 SHL PUSH28 0xFFFFFFFFFFFFFFFFFFFFFFFFFFFFFFFFFFFFFFFFFFFFFFFFFFFFFFFF NOT AND DUP2 PUSH28 0xFFFFFFFFFFFFFFFFFFFFFFFFFFFFFFFFFFFFFFFFFFFFFFFFFFFFFFFF NOT AND EQ SWAP2 POP POP PUSH2 0x1601 JUMP JUMPDEST PUSH1 0x1 SWAP1 POP JUMPDEST SWAP5 SWAP4 POP POP POP POP JUMP JUMPDEST PUSH1 0x0 PUSH20 0xFFFFFFFFFFFFFFFFFFFFFFFFFFFFFFFFFFFFFFFF AND DUP3 PUSH20 0xFFFFFFFFFFFFFFFFFFFFFFFFFFFFFFFFFFFFFFFF AND EQ ISZERO PUSH2 0x1679 JUMPI PUSH1 0x40 MLOAD PUSH32 0x8C379A000000000000000000000000000000000000000000000000000000000 DUP2 MSTORE PUSH1 0x4 ADD PUSH2 0x1670 SWAP1 PUSH2 0x1FCE JUMP JUMPDEST PUSH1 0x40 MLOAD DUP1 SWAP2 SUB SWAP1 REVERT JUMPDEST PUSH2 0x1682 DUP2 PUSH2 0xAD3 JUMP JUMPDEST ISZERO PUSH2 0x16C2 JUMPI PUSH1 0x40 MLOAD PUSH32 0x8C379A000000000000000000000000000000000000000000000000000000000 DUP2 MSTORE PUSH1 0x4 ADD PUSH2 0x16B9 SWAP1 PUSH2 0x1ECE JUMP JUMPDEST PUSH1 0x40 MLOAD DUP1 SWAP2 SUB SWAP1 REVERT JUMPDEST PUSH2 0x16CE PUSH1 0x0 DUP4 DUP4 PUSH2 0x140D JUMP JUMPDEST PUSH1 0x1 PUSH1 0x3 PUSH1 0x0 DUP5 PUSH20 0xFFFFFFFFFFFFFFFFFFFFFFFFFFFFFFFFFFFFFFFF AND PUSH20 0xFFFFFFFFFFFFFFFFFFFFFFFFFFFFFFFFFFFFFFFF AND DUP2 MSTORE PUSH1 0x20 ADD SWAP1 DUP2 MSTORE PUSH1 0x20 ADD PUSH1 0x0 KECCAK256 PUSH1 0x0 DUP3 DUP3 SLOAD PUSH2 0x171E SWAP2 SWAP1 PUSH2 0x2122 JUMP JUMPDEST SWAP3 POP POP DUP2 SWAP1 SSTORE POP DUP2 PUSH1 0x2 PUSH1 0x0 DUP4 DUP2 MSTORE PUSH1 0x20 ADD SWAP1 DUP2 MSTORE PUSH1 0x20 ADD PUSH1 0x0 KECCAK256 PUSH1 0x0 PUSH2 0x100 EXP DUP2 SLOAD DUP2 PUSH20 0xFFFFFFFFFFFFFFFFFFFFFFFFFFFFFFFFFFFFFFFF MUL NOT AND SWAP1 DUP4 PUSH20 0xFFFFFFFFFFFFFFFFFFFFFFFFFFFFFFFFFFFFFFFF AND MUL OR SWAP1 SSTORE POP DUP1 DUP3 PUSH20 0xFFFFFFFFFFFFFFFFFFFFFFFFFFFFFFFFFFFFFFFF AND PUSH1 0x0 PUSH20 0xFFFFFFFFFFFFFFFFFFFFFFFFFFFFFFFFFFFFFFFF AND PUSH32 0xDDF252AD1BE2C89B69C2B068FC378DAA952BA7F163C4A11628F55A4DF523B3EF PUSH1 0x40 MLOAD PUSH1 0x40 MLOAD DUP1 SWAP2 SUB SWAP1 LOG4 PUSH2 0x17DF PUSH1 0x0 DUP4 DUP4 PUSH2 0x1412 JUMP JUMPDEST POP POP JUMP JUMPDEST PUSH1 0x0 DUP1 DUP3 EXTCODESIZE SWAP1 POP PUSH1 0x0 DUP2 GT SWAP2 POP POP SWAP2 SWAP1 POP JUMP JUMPDEST PUSH1 0x0 PUSH2 0x1809 PUSH2 0x1804 DUP5 PUSH2 0x20AE JUMP JUMPDEST PUSH2 0x2089 JUMP JUMPDEST SWAP1 POP DUP3 DUP2 MSTORE PUSH1 0x20 DUP2 ADD DUP5 DUP5 DUP5 ADD GT ISZERO PUSH2 0x1821 JUMPI PUSH1 0x0 DUP1 REVERT JUMPDEST PUSH2 0x182C DUP5 DUP3 DUP6 PUSH2 0x2251 JUMP JUMPDEST POP SWAP4 SWAP3 POP POP POP JUMP JUMPDEST PUSH1 0x0 DUP2 CALLDATALOAD SWAP1 POP PUSH2 0x1843 DUP2 PUSH2 0x286C JUMP JUMPDEST SWAP3 SWAP2 POP POP JUMP JUMPDEST PUSH1 0x0 DUP2 CALLDATALOAD SWAP1 POP PUSH2 0x1858 DUP2 PUSH2 0x2883 JUMP JUMPDEST SWAP3 SWAP2 POP POP JUMP JUMPDEST PUSH1 0x0 DUP2 CALLDATALOAD SWAP1 POP PUSH2 0x186D DUP2 PUSH2 0x289A JUMP JUMPDEST SWAP3 SWAP2 POP POP JUMP JUMPDEST PUSH1 0x0 DUP2 MLOAD SWAP1 POP PUSH2 0x1882 DUP2 PUSH2 0x289A JUMP JUMPDEST SWAP3 SWAP2 POP POP JUMP JUMPDEST PUSH1 0x0 DUP3 PUSH1 0x1F DUP4 ADD SLT PUSH2 0x1899 JUMPI PUSH1 0x0 DUP1 REVERT JUMPDEST DUP2 CALLDATALOAD PUSH2 0x18A9 DUP5 DUP3 PUSH1 0x20 DUP7 ADD PUSH2 0x17F6 JUMP JUMPDEST SWAP2 POP POP SWAP3 SWAP2 POP POP JUMP JUMPDEST PUSH1 0x0 DUP2 CALLDATALOAD SWAP1 POP PUSH2 0x18C1 DUP2 PUSH2 0x28B1 JUMP JUMPDEST SWAP3 SWAP2 POP POP JUMP JUMPDEST PUSH1 0x0 PUSH1 0x20 DUP3 DUP5 SUB SLT ISZERO PUSH2 0x18D9 JUMPI PUSH1 0x0 DUP1 REVERT JUMPDEST PUSH1 0x0 PUSH2 0x18E7 DUP5 DUP3 DUP6 ADD PUSH2 0x1834 JUMP JUMPDEST SWAP2 POP POP SWAP3 SWAP2 POP POP JUMP JUMPDEST PUSH1 0x0 DUP1 PUSH1 0x40 DUP4 DUP6 SUB SLT ISZERO PUSH2 0x1903 JUMPI PUSH1 0x0 DUP1 REVERT JUMPDEST PUSH1 0x0 PUSH2 0x1911 DUP6 DUP3 DUP7 ADD PUSH2 0x1834 JUMP JUMPDEST SWAP3 POP POP PUSH1 0x20 PUSH2 0x1922 DUP6 DUP3 DUP7 ADD PUSH2 0x1834 JUMP JUMPDEST SWAP2 POP POP SWAP3 POP SWAP3 SWAP1 POP JUMP JUMPDEST PUSH1 0x0 DUP1 PUSH1 0x0 PUSH1 0x60 DUP5 DUP7 SUB SLT ISZERO PUSH2 0x1941 JUMPI PUSH1 0x0 DUP1 REVERT JUMPDEST PUSH1 0x0 PUSH2 0x194F DUP7 DUP3 DUP8 ADD PUSH2 0x1834 JUMP JUMPDEST SWAP4 POP POP PUSH1 0x20 PUSH2 0x1960 DUP7 DUP3 DUP8 ADD PUSH2 0x1834 JUMP JUMPDEST SWAP3 POP POP PUSH1 0x40 PUSH2 0x1971 DUP7 DUP3 DUP8 ADD PUSH2 0x18B2 JUMP JUMPDEST SWAP2 POP POP SWAP3 POP SWAP3 POP SWAP3 JUMP JUMPDEST PUSH1 0x0 DUP1 PUSH1 0x0 DUP1 PUSH1 0x80 DUP6 DUP8 SUB SLT ISZERO PUSH2 0x1991 JUMPI PUSH1 0x0 DUP1 REVERT JUMPDEST PUSH1 0x0 PUSH2 0x199F DUP8 DUP3 DUP9 ADD PUSH2 0x1834 JUMP JUMPDEST SWAP5 POP POP PUSH1 0x20 PUSH2 0x19B0 DUP8 DUP3 DUP9 ADD PUSH2 0x1834 JUMP JUMPDEST SWAP4 POP POP PUSH1 0x40 PUSH2 0x19C1 DUP8 DUP3 DUP9 ADD PUSH2 0x18B2 JUMP JUMPDEST SWAP3 POP POP PUSH1 0x60 DUP6 ADD CALLDATALOAD PUSH8 0xFFFFFFFFFFFFFFFF DUP2 GT ISZERO PUSH2 0x19DE JUMPI PUSH1 0x0 DUP1 REVERT JUMPDEST PUSH2 0x19EA DUP8 DUP3 DUP9 ADD PUSH2 0x1888 JUMP JUMPDEST SWAP2 POP POP SWAP3 SWAP6 SWAP2 SWAP5 POP SWAP3 POP JUMP JUMPDEST PUSH1 0x0 DUP1 PUSH1 0x40 DUP4 DUP6 SUB SLT ISZERO PUSH2 0x1A09 JUMPI PUSH1 0x0 DUP1 REVERT JUMPDEST PUSH1 0x0 PUSH2 0x1A17 DUP6 DUP3 DUP7 ADD PUSH2 0x1834 JUMP JUMPDEST SWAP3 POP POP PUSH1 0x20 PUSH2 0x1A28 DUP6 DUP3 DUP7 ADD PUSH2 0x1849 JUMP JUMPDEST SWAP2 POP POP SWAP3 POP SWAP3 SWAP1 POP JUMP JUMPDEST PUSH1 0x0 DUP1 PUSH1 0x40 DUP4 DUP6 SUB SLT ISZERO PUSH2 0x1A45 JUMPI PUSH1 0x0 DUP1 REVERT JUMPDEST PUSH1 0x0 PUSH2 0x1A53 DUP6 DUP3 DUP7 ADD PUSH2 0x1834 JUMP JUMPDEST SWAP3 POP POP PUSH1 0x20 PUSH2 0x1A64 DUP6 DUP3 DUP7 ADD PUSH2 0x18B2 JUMP JUMPDEST SWAP2 POP POP SWAP3 POP SWAP3 SWAP1 POP JUMP JUMPDEST PUSH1 0x0 PUSH1 0x20 DUP3 DUP5 SUB SLT ISZERO PUSH2 0x1A80 JUMPI PUSH1 0x0 DUP1 REVERT JUMPDEST PUSH1 0x0 PUSH2 0x1A8E DUP5 DUP3 DUP6 ADD PUSH2 0x185E JUMP JUMPDEST SWAP2 POP POP SWAP3 SWAP2 POP POP JUMP JUMPDEST PUSH1 0x0 PUSH1 0x20 DUP3 DUP5 SUB SLT ISZERO PUSH2 0x1AA9 JUMPI PUSH1 0x0 DUP1 REVERT JUMPDEST PUSH1 0x0 PUSH2 0x1AB7 DUP5 DUP3 DUP6 ADD PUSH2 0x1873 JUMP JUMPDEST SWAP2 POP POP SWAP3 SWAP2 POP POP JUMP JUMPDEST PUSH1 0x0 PUSH1 0x20 DUP3 DUP5 SUB SLT ISZERO PUSH2 0x1AD2 JUMPI PUSH1 0x0 DUP1 REVERT JUMPDEST PUSH1 0x0 PUSH2 0x1AE0 DUP5 DUP3 DUP6 ADD PUSH2 0x18B2 JUMP JUMPDEST SWAP2 POP POP SWAP3 SWAP2 POP POP JUMP JUMPDEST PUSH2 0x1AF2 DUP2 PUSH2 0x21DD JUMP JUMPDEST DUP3 MSTORE POP POP JUMP JUMPDEST PUSH2 0x1B01 DUP2 PUSH2 0x21EF JUMP JUMPDEST DUP3 MSTORE POP POP JUMP JUMPDEST PUSH1 0x0 PUSH2 0x1B12 DUP3 PUSH2 0x20DF JUMP JUMPDEST PUSH2 0x1B1C DUP2 DUP6 PUSH2 0x20F5 JUMP JUMPDEST SWAP4 POP PUSH2 0x1B2C DUP2 DUP6 PUSH1 0x20 DUP7 ADD PUSH2 0x2260 JUMP JUMPDEST PUSH2 0x1B35 DUP2 PUSH2 0x242C JUMP JUMPDEST DUP5 ADD SWAP2 POP POP SWAP3 SWAP2 POP POP JUMP JUMPDEST PUSH1 0x0 PUSH2 0x1B4B DUP3 PUSH2 0x20EA JUMP JUMPDEST PUSH2 0x1B55 DUP2 DUP6 PUSH2 0x2106 JUMP JUMPDEST SWAP4 POP PUSH2 0x1B65 DUP2 DUP6 PUSH1 0x20 DUP7 ADD PUSH2 0x2260 JUMP JUMPDEST PUSH2 0x1B6E DUP2 PUSH2 0x242C JUMP JUMPDEST DUP5 ADD SWAP2 POP POP SWAP3 SWAP2 POP POP JUMP JUMPDEST PUSH1 0x0 PUSH2 0x1B84 DUP3 PUSH2 0x20EA JUMP JUMPDEST PUSH2 0x1B8E DUP2 DUP6 PUSH2 0x2117 JUMP JUMPDEST SWAP4 POP PUSH2 0x1B9E DUP2 DUP6 PUSH1 0x20 DUP7 ADD PUSH2 0x2260 JUMP JUMPDEST DUP1 DUP5 ADD SWAP2 POP POP SWAP3 SWAP2 POP POP JUMP JUMPDEST PUSH1 0x0 PUSH2 0x1BB7 PUSH1 0x32 DUP4 PUSH2 0x2106 JUMP JUMPDEST SWAP2 POP PUSH2 0x1BC2 DUP3 PUSH2 0x243D JUMP JUMPDEST PUSH1 0x40 DUP3 ADD SWAP1 POP SWAP2 SWAP1 POP JUMP JUMPDEST PUSH1 0x0 PUSH2 0x1BDA PUSH1 0x25 DUP4 PUSH2 0x2106 JUMP JUMPDEST SWAP2 POP PUSH2 0x1BE5 DUP3 PUSH2 0x248C JUMP JUMPDEST PUSH1 0x40 DUP3 ADD SWAP1 POP SWAP2 SWAP1 POP JUMP JUMPDEST PUSH1 0x0 PUSH2 0x1BFD PUSH1 0x1C DUP4 PUSH2 0x2106 JUMP JUMPDEST SWAP2 POP PUSH2 0x1C08 DUP3 PUSH2 0x24DB JUMP JUMPDEST PUSH1 0x20 DUP3 ADD SWAP1 POP SWAP2 SWAP1 POP JUMP JUMPDEST PUSH1 0x0 PUSH2 0x1C20 PUSH1 0x24 DUP4 PUSH2 0x2106 JUMP JUMPDEST SWAP2 POP PUSH2 0x1C2B DUP3 PUSH2 0x2504 JUMP JUMPDEST PUSH1 0x40 DUP3 ADD SWAP1 POP SWAP2 SWAP1 POP JUMP JUMPDEST PUSH1 0x0 PUSH2 0x1C43 PUSH1 0x19 DUP4 PUSH2 0x2106 JUMP JUMPDEST SWAP2 POP PUSH2 0x1C4E DUP3 PUSH2 0x2553 JUMP JUMPDEST PUSH1 0x20 DUP3 ADD SWAP1 POP SWAP2 SWAP1 POP JUMP JUMPDEST PUSH1 0x0 PUSH2 0x1C66 PUSH1 0x2C DUP4 PUSH2 0x2106 JUMP JUMPDEST SWAP2 POP PUSH2 0x1C71 DUP3 PUSH2 0x257C JUMP JUMPDEST PUSH1 0x40 DUP3 ADD SWAP1 POP SWAP2 SWAP1 POP JUMP JUMPDEST PUSH1 0x0 PUSH2 0x1C89 PUSH1 0x31 DUP4 PUSH2 0x2106 JUMP JUMPDEST SWAP2 POP PUSH2 0x1C94 DUP3 PUSH2 0x25CB JUMP JUMPDEST PUSH1 0x40 DUP3 ADD SWAP1 POP SWAP2 SWAP1 POP JUMP JUMPDEST PUSH1 0x0 PUSH2 0x1CAC PUSH1 0x38 DUP4 PUSH2 0x2106 JUMP JUMPDEST SWAP2 POP PUSH2 0x1CB7 DUP3 PUSH2 0x261A JUMP JUMPDEST PUSH1 0x40 DUP3 ADD SWAP1 POP SWAP2 SWAP1 POP JUMP JUMPDEST PUSH1 0x0 PUSH2 0x1CCF PUSH1 0x2A DUP4 PUSH2 0x2106 JUMP JUMPDEST SWAP2 POP PUSH2 0x1CDA DUP3 PUSH2 0x2669 JUMP JUMPDEST PUSH1 0x40 DUP3 ADD SWAP1 POP SWAP2 SWAP1 POP JUMP JUMPDEST PUSH1 0x0 PUSH2 0x1CF2 PUSH1 0x29 DUP4 PUSH2 0x2106 JUMP JUMPDEST SWAP2 POP PUSH2 0x1CFD DUP3 PUSH2 0x26B8 JUMP JUMPDEST PUSH1 0x40 DUP3 ADD SWAP1 POP SWAP2 SWAP1 POP JUMP JUMPDEST PUSH1 0x0 PUSH2 0x1D15 PUSH1 0x20 DUP4 PUSH2 0x2106 JUMP JUMPDEST SWAP2 POP PUSH2 0x1D20 DUP3 PUSH2 0x2707 JUMP JUMPDEST PUSH1 0x20 DUP3 ADD SWAP1 POP SWAP2 SWAP1 POP JUMP JUMPDEST PUSH1 0x0 PUSH2 0x1D38 PUSH1 0x2C DUP4 PUSH2 0x2106 JUMP JUMPDEST SWAP2 POP PUSH2 0x1D43 DUP3 PUSH2 0x2730 JUMP JUMPDEST PUSH1 0x40 DUP3 ADD SWAP1 POP SWAP2 SWAP1 POP JUMP JUMPDEST PUSH1 0x0 PUSH2 0x1D5B PUSH1 0x21 DUP4 PUSH2 0x2106 JUMP JUMPDEST SWAP2 POP PUSH2 0x1D66 DUP3 PUSH2 0x277F JUMP JUMPDEST PUSH1 0x40 DUP3 ADD SWAP1 POP SWAP2 SWAP1 POP JUMP JUMPDEST PUSH1 0x0 PUSH2 0x1D7E PUSH1 0x31 DUP4 PUSH2 0x2106 JUMP JUMPDEST SWAP2 POP PUSH2 0x1D89 DUP3 PUSH2 0x27CE JUMP JUMPDEST PUSH1 0x40 DUP3 ADD SWAP1 POP SWAP2 SWAP1 POP JUMP JUMPDEST PUSH1 0x0 PUSH2 0x1DA1 PUSH1 0x2F DUP4 PUSH2 0x2106 JUMP JUMPDEST SWAP2 POP PUSH2 0x1DAC DUP3 PUSH2 0x281D JUMP JUMPDEST PUSH1 0x40 DUP3 ADD SWAP1 POP SWAP2 SWAP1 POP JUMP JUMPDEST PUSH2 0x1DC0 DUP2 PUSH2 0x2247 JUMP JUMPDEST DUP3 MSTORE POP POP JUMP JUMPDEST PUSH1 0x0 PUSH2 0x1DD2 DUP3 DUP6 PUSH2 0x1B79 JUMP JUMPDEST SWAP2 POP PUSH2 0x1DDE DUP3 DUP5 PUSH2 0x1B79 JUMP JUMPDEST SWAP2 POP DUP2 SWAP1 POP SWAP4 SWAP3 POP POP POP JUMP JUMPDEST PUSH1 0x0 PUSH1 0x20 DUP3 ADD SWAP1 POP PUSH2 0x1DFF PUSH1 0x0 DUP4 ADD DUP5 PUSH2 0x1AE9 JUMP JUMPDEST SWAP3 SWAP2 POP POP JUMP JUMPDEST PUSH1 0x0 PUSH1 0x80 DUP3 ADD SWAP1 POP PUSH2 0x1E1A PUSH1 0x0 DUP4 ADD DUP8 PUSH2 0x1AE9 JUMP JUMPDEST PUSH2 0x1E27 PUSH1 0x20 DUP4 ADD DUP7 PUSH2 0x1AE9 JUMP JUMPDEST PUSH2 0x1E34 PUSH1 0x40 DUP4 ADD DUP6 PUSH2 0x1DB7 JUMP JUMPDEST DUP2 DUP2 SUB PUSH1 0x60 DUP4 ADD MSTORE PUSH2 0x1E46 DUP2 DUP5 PUSH2 0x1B07 JUMP JUMPDEST SWAP1 POP SWAP6 SWAP5 POP POP POP POP POP JUMP JUMPDEST PUSH1 0x0 PUSH1 0x20 DUP3 ADD SWAP1 POP PUSH2 0x1E66 PUSH1 0x0 DUP4 ADD DUP5 PUSH2 0x1AF8 JUMP JUMPDEST SWAP3 SWAP2 POP POP JUMP JUMPDEST PUSH1 0x0 PUSH1 0x20 DUP3 ADD SWAP1 POP DUP2 DUP2 SUB PUSH1 0x0 DUP4 ADD MSTORE PUSH2 0x1E86 DUP2 DUP5 PUSH2 0x1B40 JUMP JUMPDEST SWAP1 POP SWAP3 SWAP2 POP POP JUMP JUMPDEST PUSH1 0x0 PUSH1 0x20 DUP3 ADD SWAP1 POP DUP2 DUP2 SUB PUSH1 0x0 DUP4 ADD MSTORE PUSH2 0x1EA7 DUP2 PUSH2 0x1BAA JUMP JUMPDEST SWAP1 POP SWAP2 SWAP1 POP JUMP JUMPDEST PUSH1 0x0 PUSH1 0x20 DUP3 ADD SWAP1 POP DUP2 DUP2 SUB PUSH1 0x0 DUP4 ADD MSTORE PUSH2 0x1EC7 DUP2 PUSH2 0x1BCD JUMP JUMPDEST SWAP1 POP SWAP2 SWAP1 POP JUMP JUMPDEST PUSH1 0x0 PUSH1 0x20 DUP3 ADD SWAP1 POP DUP2 DUP2 SUB PUSH1 0x0 DUP4 ADD MSTORE PUSH2 0x1EE7 DUP2 PUSH2 0x1BF0 JUMP JUMPDEST SWAP1 POP SWAP2 SWAP1 POP JUMP JUMPDEST PUSH1 0x0 PUSH1 0x20 DUP3 ADD SWAP1 POP DUP2 DUP2 SUB PUSH1 0x0 DUP4 ADD MSTORE PUSH2 0x1F07 DUP2 PUSH2 0x1C13 JUMP JUMPDEST SWAP1 POP SWAP2 SWAP1 POP JUMP JUMPDEST PUSH1 0x0 PUSH1 0x20 DUP3 ADD SWAP1 POP DUP2 DUP2 SUB PUSH1 0x0 DUP4 ADD MSTORE PUSH2 0x1F27 DUP2 PUSH2 0x1C36 JUMP JUMPDEST SWAP1 POP SWAP2 SWAP1 POP JUMP JUMPDEST PUSH1 0x0 PUSH1 0x20 DUP3 ADD SWAP1 POP DUP2 DUP2 SUB PUSH1 0x0 DUP4 ADD MSTORE PUSH2 0x1F47 DUP2 PUSH2 0x1C59 JUMP JUMPDEST SWAP1 POP SWAP2 SWAP1 POP JUMP JUMPDEST PUSH1 0x0 PUSH1 0x20 DUP3 ADD SWAP1 POP DUP2 DUP2 SUB PUSH1 0x0 DUP4 ADD MSTORE PUSH2 0x1F67 DUP2 PUSH2 0x1C7C JUMP JUMPDEST SWAP1 POP SWAP2 SWAP1 POP JUMP JUMPDEST PUSH1 0x0 PUSH1 0x20 DUP3 ADD SWAP1 POP DUP2 DUP2 SUB PUSH1 0x0 DUP4 ADD MSTORE PUSH2 0x1F87 DUP2 PUSH2 0x1C9F JUMP JUMPDEST SWAP1 POP SWAP2 SWAP1 POP JUMP JUMPDEST PUSH1 0x0 PUSH1 0x20 DUP3 ADD SWAP1 POP DUP2 DUP2 SUB PUSH1 0x0 DUP4 ADD MSTORE PUSH2 0x1FA7 DUP2 PUSH2 0x1CC2 JUMP JUMPDEST SWAP1 POP SWAP2 SWAP1 POP JUMP JUMPDEST PUSH1 0x0 PUSH1 0x20 DUP3 ADD SWAP1 POP DUP2 DUP2 SUB PUSH1 0x0 DUP4 ADD MSTORE PUSH2 0x1FC7 DUP2 PUSH2 0x1CE5 JUMP JUMPDEST SWAP1 POP SWAP2 SWAP1 POP JUMP JUMPDEST PUSH1 0x0 PUSH1 0x20 DUP3 ADD SWAP1 POP DUP2 DUP2 SUB PUSH1 0x0 DUP4 ADD MSTORE PUSH2 0x1FE7 DUP2 PUSH2 0x1D08 JUMP JUMPDEST SWAP1 POP SWAP2 SWAP1 POP JUMP JUMPDEST PUSH1 0x0 PUSH1 0x20 DUP3 ADD SWAP1 POP DUP2 DUP2 SUB PUSH1 0x0 DUP4 ADD MSTORE PUSH2 0x2007 DUP2 PUSH2 0x1D2B JUMP JUMPDEST SWAP1 POP SWAP2 SWAP1 POP JUMP JUMPDEST PUSH1 0x0 PUSH1 0x20 DUP3 ADD SWAP1 POP DUP2 DUP2 SUB PUSH1 0x0 DUP4 ADD MSTORE PUSH2 0x2027 DUP2 PUSH2 0x1D4E JUMP JUMPDEST SWAP1 POP SWAP2 SWAP1 POP JUMP JUMPDEST PUSH1 0x0 PUSH1 0x20 DUP3 ADD SWAP1 POP DUP2 DUP2 SUB PUSH1 0x0 DUP4 ADD MSTORE PUSH2 0x2047 DUP2 PUSH2 0x1D71 JUMP JUMPDEST SWAP1 POP SWAP2 SWAP1 POP JUMP JUMPDEST PUSH1 0x0 PUSH1 0x20 DUP3 ADD SWAP1 POP DUP2 DUP2 SUB PUSH1 0x0 DUP4 ADD MSTORE PUSH2 0x2067 DUP2 PUSH2 0x1D94 JUMP JUMPDEST SWAP1 POP SWAP2 SWAP1 POP JUMP JUMPDEST PUSH1 0x0 PUSH1 0x20 DUP3 ADD SWAP1 POP PUSH2 0x2083 PUSH1 0x0 DUP4 ADD DUP5 PUSH2 0x1DB7 JUMP JUMPDEST SWAP3 SWAP2 POP POP JUMP JUMPDEST PUSH1 0x0 PUSH2 0x2093 PUSH2 0x20A4 JUMP JUMPDEST SWAP1 POP PUSH2 0x209F DUP3 DUP3 PUSH2 0x22C5 JUMP JUMPDEST SWAP2 SWAP1 POP JUMP JUMPDEST PUSH1 0x0 PUSH1 0x40 MLOAD SWAP1 POP SWAP1 JUMP JUMPDEST PUSH1 0x0 PUSH8 0xFFFFFFFFFFFFFFFF DUP3 GT ISZERO PUSH2 0x20C9 JUMPI PUSH2 0x20C8 PUSH2 0x23FD JUMP JUMPDEST JUMPDEST PUSH2 0x20D2 DUP3 PUSH2 0x242C JUMP JUMPDEST SWAP1 POP PUSH1 0x20 DUP2 ADD SWAP1 POP SWAP2 SWAP1 POP JUMP JUMPDEST PUSH1 0x0 DUP2 MLOAD SWAP1 POP SWAP2 SWAP1 POP JUMP JUMPDEST PUSH1 0x0 DUP2 MLOAD SWAP1 POP SWAP2 SWAP1 POP JUMP JUMPDEST PUSH1 0x0 DUP3 DUP3 MSTORE PUSH1 0x20 DUP3 ADD SWAP1 POP SWAP3 SWAP2 POP POP JUMP JUMPDEST PUSH1 0x0 DUP3 DUP3 MSTORE PUSH1 0x20 DUP3 ADD SWAP1 POP SWAP3 SWAP2 POP POP JUMP JUMPDEST PUSH1 0x0 DUP2 SWAP1 POP SWAP3 SWAP2 POP POP JUMP JUMPDEST PUSH1 0x0 PUSH2 0x212D DUP3 PUSH2 0x2247 JUMP JUMPDEST SWAP2 POP PUSH2 0x2138 DUP4 PUSH2 0x2247 JUMP JUMPDEST SWAP3 POP DUP3 PUSH32 0xFFFFFFFFFFFFFFFFFFFFFFFFFFFFFFFFFFFFFFFFFFFFFFFFFFFFFFFFFFFFFFFF SUB DUP3 GT ISZERO PUSH2 0x216D JUMPI PUSH2 0x216C PUSH2 0x2370 JUMP JUMPDEST JUMPDEST DUP3 DUP3 ADD SWAP1 POP SWAP3 SWAP2 POP POP JUMP JUMPDEST PUSH1 0x0 PUSH2 0x2183 DUP3 PUSH2 0x2247 JUMP JUMPDEST SWAP2 POP PUSH2 0x218E DUP4 PUSH2 0x2247 JUMP JUMPDEST SWAP3 POP DUP3 PUSH2 0x219E JUMPI PUSH2 0x219D PUSH2 0x239F JUMP JUMPDEST JUMPDEST DUP3 DUP3 DIV SWAP1 POP SWAP3 SWAP2 POP POP JUMP JUMPDEST PUSH1 0x0 PUSH2 0x21B4 DUP3 PUSH2 0x2247 JUMP JUMPDEST SWAP2 POP PUSH2 0x21BF DUP4 PUSH2 0x2247 JUMP JUMPDEST SWAP3 POP DUP3 DUP3 LT ISZERO PUSH2 0x21D2 JUMPI PUSH2 0x21D1 PUSH2 0x2370 JUMP JUMPDEST JUMPDEST DUP3 DUP3 SUB SWAP1 POP SWAP3 SWAP2 POP POP JUMP JUMPDEST PUSH1 0x0 PUSH2 0x21E8 DUP3 PUSH2 0x2227 JUMP JUMPDEST SWAP1 POP SWAP2 SWAP1 POP JUMP JUMPDEST PUSH1 0x0 DUP2 ISZERO ISZERO SWAP1 POP SWAP2 SWAP1 POP JUMP JUMPDEST PUSH1 0x0 PUSH32 0xFFFFFFFF00000000000000000000000000000000000000000000000000000000 DUP3 AND SWAP1 POP SWAP2 SWAP1 POP JUMP JUMPDEST PUSH1 0x0 PUSH20 0xFFFFFFFFFFFFFFFFFFFFFFFFFFFFFFFFFFFFFFFF DUP3 AND SWAP1 POP SWAP2 SWAP1 POP JUMP JUMPDEST PUSH1 0x0 DUP2 SWAP1 POP SWAP2 SWAP1 POP JUMP JUMPDEST DUP3 DUP2 DUP4 CALLDATACOPY PUSH1 0x0 DUP4 DUP4 ADD MSTORE POP POP POP JUMP JUMPDEST PUSH1 0x0 JUMPDEST DUP4 DUP2 LT ISZERO PUSH2 0x227E JUMPI DUP1 DUP3 ADD MLOAD DUP2 DUP5 ADD MSTORE PUSH1 0x20 DUP2 ADD SWAP1 POP PUSH2 0x2263 JUMP JUMPDEST DUP4 DUP2 GT ISZERO PUSH2 0x228D JUMPI PUSH1 0x0 DUP5 DUP5 ADD MSTORE JUMPDEST POP POP POP POP JUMP JUMPDEST PUSH1 0x0 PUSH1 0x2 DUP3 DIV SWAP1 POP PUSH1 0x1 DUP3 AND DUP1 PUSH2 0x22AB JUMPI PUSH1 0x7F DUP3 AND SWAP2 POP JUMPDEST PUSH1 0x20 DUP3 LT DUP2 EQ ISZERO PUSH2 0x22BF JUMPI PUSH2 0x22BE PUSH2 0x23CE JUMP JUMPDEST JUMPDEST POP SWAP2 SWAP1 POP JUMP JUMPDEST PUSH2 0x22CE DUP3 PUSH2 0x242C JUMP JUMPDEST DUP2 ADD DUP2 DUP2 LT PUSH8 0xFFFFFFFFFFFFFFFF DUP3 GT OR ISZERO PUSH2 0x22ED JUMPI PUSH2 0x22EC PUSH2 0x23FD JUMP JUMPDEST JUMPDEST DUP1 PUSH1 0x40 MSTORE POP POP POP JUMP JUMPDEST PUSH1 0x0 PUSH2 0x2301 DUP3 PUSH2 0x2247 JUMP JUMPDEST SWAP2 POP PUSH32 0xFFFFFFFFFFFFFFFFFFFFFFFFFFFFFFFFFFFFFFFFFFFFFFFFFFFFFFFFFFFFFFFF DUP3 EQ ISZERO PUSH2 0x2334 JUMPI PUSH2 0x2333 PUSH2 0x2370 JUMP JUMPDEST JUMPDEST PUSH1 0x1 DUP3 ADD SWAP1 POP SWAP2 SWAP1 POP JUMP JUMPDEST PUSH1 0x0 PUSH2 0x234A DUP3 PUSH2 0x2247 JUMP JUMPDEST SWAP2 POP PUSH2 0x2355 DUP4 PUSH2 0x2247 JUMP JUMPDEST SWAP3 POP DUP3 PUSH2 0x2365 JUMPI PUSH2 0x2364 PUSH2 0x239F JUMP JUMPDEST JUMPDEST DUP3 DUP3 MOD SWAP1 POP SWAP3 SWAP2 POP POP JUMP JUMPDEST PUSH32 0x4E487B7100000000000000000000000000000000000000000000000000000000 PUSH1 0x0 MSTORE PUSH1 0x11 PUSH1 0x4 MSTORE PUSH1 0x24 PUSH1 0x0 REVERT JUMPDEST PUSH32 0x4E487B7100000000000000000000000000000000000000000000000000000000 PUSH1 0x0 MSTORE PUSH1 0x12 PUSH1 0x4 MSTORE PUSH1 0x24 PUSH1 0x0 REVERT JUMPDEST PUSH32 0x4E487B7100000000000000000000000000000000000000000000000000000000 PUSH1 0x0 MSTORE PUSH1 0x22 PUSH1 0x4 MSTORE PUSH1 0x24 PUSH1 0x0 REVERT JUMPDEST PUSH32 0x4E487B7100000000000000000000000000000000000000000000000000000000 PUSH1 0x0 MSTORE PUSH1 0x41 PUSH1 0x4 MSTORE PUSH1 0x24 PUSH1 0x0 REVERT JUMPDEST PUSH1 0x0 PUSH1 0x1F NOT PUSH1 0x1F DUP4 ADD AND SWAP1 POP SWAP2 SWAP1 POP JUMP JUMPDEST PUSH32 0x4552433732313A207472616E7366657220746F206E6F6E204552433732315265 PUSH1 0x0 DUP3 ADD MSTORE PUSH32 0x63656976657220696D706C656D656E7465720000000000000000000000000000 PUSH1 0x20 DUP3 ADD MSTORE POP JUMP JUMPDEST PUSH32 0x4552433732313A207472616E736665722066726F6D20696E636F727265637420 PUSH1 0x0 DUP3 ADD MSTORE PUSH32 0x6F776E6572000000000000000000000000000000000000000000000000000000 PUSH1 0x20 DUP3 ADD MSTORE POP JUMP JUMPDEST PUSH32 0x4552433732313A20746F6B656E20616C7265616479206D696E74656400000000 PUSH1 0x0 DUP3 ADD MSTORE POP JUMP JUMPDEST PUSH32 0x4552433732313A207472616E7366657220746F20746865207A65726F20616464 PUSH1 0x0 DUP3 ADD MSTORE PUSH32 0x7265737300000000000000000000000000000000000000000000000000000000 PUSH1 0x20 DUP3 ADD MSTORE POP JUMP JUMPDEST PUSH32 0x4552433732313A20617070726F766520746F2063616C6C657200000000000000 PUSH1 0x0 DUP3 ADD MSTORE POP JUMP JUMPDEST PUSH32 0x4552433732313A206F70657261746F7220717565727920666F72206E6F6E6578 PUSH1 0x0 DUP3 ADD MSTORE PUSH32 0x697374656E7420746F6B656E0000000000000000000000000000000000000000 PUSH1 0x20 DUP3 ADD MSTORE POP JUMP JUMPDEST PUSH32 0x4552433732313A207472616E736765722063616C6C6572206973206E6F74206F PUSH1 0x0 DUP3 ADD MSTORE PUSH32 0x776E6572206E6F7220617070726F766564000000000000000000000000000000 PUSH1 0x20 DUP3 ADD MSTORE POP JUMP JUMPDEST PUSH32 0x4552433732313A20617070726F76652063616C6C6572206973206E6F74206F77 PUSH1 0x0 DUP3 ADD MSTORE PUSH32 0x6E6572206E6F7220617070726F76656420666F7220616C6C0000000000000000 PUSH1 0x20 DUP3 ADD MSTORE POP JUMP JUMPDEST PUSH32 0x4552433732313A2062616C616E636520717565727920666F7220746865207A65 PUSH1 0x0 DUP3 ADD MSTORE PUSH32 0x726F206164647265737300000000000000000000000000000000000000000000 PUSH1 0x20 DUP3 ADD MSTORE POP JUMP JUMPDEST PUSH32 0x4552433732313A206F776E657220717565727920666F72206E6F6E6578697374 PUSH1 0x0 DUP3 ADD MSTORE PUSH32 0x656E7420746F6B656E0000000000000000000000000000000000000000000000 PUSH1 0x20 DUP3 ADD MSTORE POP JUMP JUMPDEST PUSH32 0x4552433732313A206D696E7420746F20746865207A65726F2061646472657373 PUSH1 0x0 DUP3 ADD MSTORE POP JUMP JUMPDEST PUSH32 0x4552433732313A20617070726F76656420717565727920666F72206E6F6E6578 PUSH1 0x0 DUP3 ADD MSTORE PUSH32 0x697374656E7420746F6B656E0000000000000000000000000000000000000000 PUSH1 0x20 DUP3 ADD MSTORE POP JUMP JUMPDEST PUSH32 0x4552433732313A20617070726F76616C20746F2063757272656E74206F776E65 PUSH1 0x0 DUP3 ADD MSTORE PUSH32 0x7200000000000000000000000000000000000000000000000000000000000000 PUSH1 0x20 DUP3 ADD MSTORE POP JUMP JUMPDEST PUSH32 0x4552433732313A207472616E736665722063616C6C6572206973206E6F74206F PUSH1 0x0 DUP3 ADD MSTORE PUSH32 0x776E6572206E6F7220617070726F766564000000000000000000000000000000 PUSH1 0x20 DUP3 ADD MSTORE POP JUMP JUMPDEST PUSH32 0x4552433732314D657461646174653A2055524920717565727920666F72206E6F PUSH1 0x0 DUP3 ADD MSTORE PUSH32 0x6E6578697374656E7420746F6B656E0000000000000000000000000000000000 PUSH1 0x20 DUP3 ADD MSTORE POP JUMP JUMPDEST PUSH2 0x2875 DUP2 PUSH2 0x21DD JUMP JUMPDEST DUP2 EQ PUSH2 0x2880 JUMPI PUSH1 0x0 DUP1 REVERT JUMPDEST POP JUMP JUMPDEST PUSH2 0x288C DUP2 PUSH2 0x21EF JUMP JUMPDEST DUP2 EQ PUSH2 0x2897 JUMPI PUSH1 0x0 DUP1 REVERT JUMPDEST POP JUMP JUMPDEST PUSH2 0x28A3 DUP2 PUSH2 0x21FB JUMP JUMPDEST DUP2 EQ PUSH2 0x28AE JUMPI PUSH1 0x0 DUP1 REVERT JUMPDEST POP JUMP JUMPDEST PUSH2 0x28BA DUP2 PUSH2 0x2247 JUMP JUMPDEST DUP2 EQ PUSH2 0x28C5 JUMPI PUSH1 0x0 DUP1 REVERT JUMPDEST POP JUMP INVALID LOG2 PUSH5 0x6970667358 0x22 SLT KECCAK256 GT 0xDD LOG2 0xF7 0x5D 0x21 PUSH29 0x92AD1A2CE3F9C8597970C881FBDF5008F5959C9A19ED32C1DE64736F6C PUSH4 0x43000804 STOP CALLER "
				},
				"gasEstimates": {
					"creation": {
						"codeDepositCost": "2098800",
						"executionCost": "infinite",
						"totalCost": "infinite"
					},
					"external": {
						"approve(address,uint256)": "infinite",
						"balanceOf(address)": "1624",
						"burn(uint256)": "infinite",
						"getApproved(uint256)": "2628",
						"isApprovedForAll(address,address)": "infinite",
						"mint(uint256)": "infinite",
						"name()": "infinite",
						"ownerOf(uint256)": "1700",
						"safeTransferFrom(address,address,uint256)": "infinite",
						"safeTransferFrom(address,address,uint256,bytes)": "infinite",
						"setApprovalForAll(address,bool)": "infinite",
						"supportsInterface(bytes4)": "797",
						"symbol()": "infinite",
						"tokenURI(uint256)": "2095",
						"transferFrom(address,address,uint256)": "infinite"
					}
				},
				"methodIdentifiers": {
					"approve(address,uint256)": "095ea7b3",
					"balanceOf(address)": "70a08231",
					"burn(uint256)": "42966c68",
					"getApproved(uint256)": "081812fc",
					"isApprovedForAll(address,address)": "e985e9c5",
					"mint(uint256)": "a0712d68",
					"name()": "06fdde03",
					"ownerOf(uint256)": "6352211e",
					"safeTransferFrom(address,address,uint256)": "42842e0e",
					"safeTransferFrom(address,address,uint256,bytes)": "b88d4fde",
					"setApprovalForAll(address,bool)": "a22cb465",
					"supportsInterface(bytes4)": "01ffc9a7",
					"symbol()": "95d89b41",
					"tokenURI(uint256)": "c87b56dd",
					"transferFrom(address,address,uint256)": "23b872dd"
				}
			},
			"userdoc": {
				"kind": "user",
				"methods": {},
				"version": 1
			}
		}
	}
}